{"contracts/Voting.sol":{"SimpleVoting":{"abi":[{"inputs":[{"internalType":"string","name":"_option1","type":"string"},{"internalType":"string","name":"_option2","type":"string"}],"stateMutability":"nonpayable","type":"constructor"},{"anonymous":false,"inputs":[{"indexed":true,"internalType":"address","name":"voter","type":"address"},{"indexed":false,"internalType":"string","name":"option","type":"string"}],"name":"Voted","type":"event"},{"inputs":[],"name":"option1","outputs":[{"internalType":"string","name":"","type":"string"}],"stateMutability":"view","type":"function"},{"inputs":[],"name":"option1Votes","outputs":[{"internalType":"uint256","name":"","type":"uint256"}],"stateMutability":"view","type":"function"},{"inputs":[],"name":"option2","outputs":[{"internalType":"string","name":"","type":"string"}],"stateMutability":"view","type":"function"},{"inputs":[],"name":"option2Votes","outputs":[{"internalType":"uint256","name":"","type":"uint256"}],"stateMutability":"view","type":"function"},{"inputs":[],"name":"owner","outputs":[{"internalType":"address","name":"","type":"address"}],"stateMutability":"view","type":"function"},{"inputs":[],"name":"viewOptions","outputs":[{"internalType":"string","name":"","type":"string"}],"stateMutability":"view","type":"function"},{"inputs":[{"internalType":"uint256","name":"option","type":"uint256"}],"name":"vote","outputs":[],"stateMutability":"nonpayable","type":"function"},{"inputs":[{"internalType":"address","name":"","type":"address"}],"name":"voters","outputs":[{"internalType":"bool","name":"hasVoted","type":"bool"},{"internalType":"string","name":"votedFor","type":"string"}],"stateMutability":"view","type":"function"},{"inputs":[],"name":"winner","outputs":[{"internalType":"string","name":"","type":"string"}],"stateMutability":"view","type":"function"}],"evm":{"bytecode":{"linkReferences":{},"object":"60806040523480156200001157600080fd5b5060405162000c8238038062000c82833981016040819052620000349162000131565b600080546001600160a01b0319163317905560046200005483826200022a565b5060056200006382826200022a565b505050620002f6565b634e487b7160e01b600052604160045260246000fd5b600082601f8301126200009457600080fd5b81516001600160401b0380821115620000b157620000b16200006c565b604051601f8301601f19908116603f01168101908282118183101715620000dc57620000dc6200006c565b81604052838152602092508683858801011115620000f957600080fd5b600091505b838210156200011d5785820183015181830184015290820190620000fe565b600093810190920192909252949350505050565b600080604083850312156200014557600080fd5b82516001600160401b03808211156200015d57600080fd5b6200016b8683870162000082565b935060208501519150808211156200018257600080fd5b50620001918582860162000082565b9150509250929050565b600181811c90821680620001b057607f821691505b602082108103620001d157634e487b7160e01b600052602260045260246000fd5b50919050565b601f8211156200022557600081815260208120601f850160051c81016020861015620002005750805b601f850160051c820191505b8181101562000221578281556001016200020c565b5050505b505050565b81516001600160401b038111156200024657620002466200006c565b6200025e816200025784546200019b565b84620001d7565b602080601f8311600181146200029657600084156200027d5750858301515b600019600386901b1c1916600185901b17855562000221565b600085815260208120601f198616915b82811015620002c757888601518255948401946001909101908401620002a6565b5085821015620002e65787850151600019600388901b60f8161c191681555b5050505050600190811b01905550565b61097c80620003066000396000f3fe608060405234801561001057600080fd5b50600436106100a35760003560e01c8063a3ec138d11610076578063b4de23841161005b578063b4de238414610142578063c0db3c601461014b578063dfbf53ae1461015357600080fd5b8063a3ec138d14610119578063ad69ab951461013a57600080fd5b80630121b93f146100a85780634d2c6c12146100bd5780638da5cb5b146100d957806392d2e43814610104575b600080fd5b6100bb6100b6366004610538565b61015b565b005b6100c660025481565b6040519081526020015b60405180910390f35b6000546100ec906001600160a01b031681565b6040516001600160a01b0390911681526020016100d0565b61010c610354565b6040516100d09190610597565b61012c6101273660046105b1565b6103e2565b6040516100d09291906105da565b61010c61048b565b6100c660015481565b61010c610498565b61010c6104c3565b6000546001600160a01b031633036101ba5760405162461bcd60e51b815260206004820152601160248201527f4f776e65722063616e6e6f7420766f746500000000000000000000000000000060448201526064015b60405180910390fd5b336000908152600360205260409020805460ff161561021b5760405162461bcd60e51b815260206004820152600d60248201527f416c726561647920766f7465640000000000000000000000000000000000000060448201526064016101b1565b816001148061022a5750816002145b6102765760405162461bcd60e51b815260206004820152600e60248201527f496e76616c6964206f7074696f6e00000000000000000000000000000000000060448201526064016101b1565b805460ff1916600190811782558290036102f5576001810161029960048261069c565b50600180549060006102aa8361077d565b9190505550336001600160a01b03167fcb6783276e8a4347387036bbfea000268f0a4b1f8c46ac79980609f2af8d2acd60046040516102e991906107a4565b60405180910390a25050565b6001810161030460058261069c565b50600280549060006103158361077d565b9190505550336001600160a01b03167fcb6783276e8a4347387036bbfea000268f0a4b1f8c46ac79980609f2af8d2acd60056040516102e991906107a4565b60048054610361906105fd565b80601f016020809104026020016040519081016040528092919081815260200182805461038d906105fd565b80156103da5780601f106103af576101008083540402835291602001916103da565b820191906000526020600020905b8154815290600101906020018083116103bd57829003601f168201915b505050505081565b6003602052600090815260409020805460018201805460ff9092169291610408906105fd565b80601f0160208091040260200160405190810160405280929190818152602001828054610434906105fd565b80156104815780601f1061045657610100808354040283529160200191610481565b820191906000526020600020905b81548152906001019060200180831161046457829003601f168201915b5050505050905082565b60058054610361906105fd565b6060600460056040516020016104af9291906108a2565b604051602081830303815290604052905090565b606060025460015403610508575060408051808201909152600f81527f4954532041204452415721212121210000000000000000000000000000000000602082015290565b60025460015411156105265760046040516020016104af919061090d565b60056040516020016104af919061090d565b60006020828403121561054a57600080fd5b5035919050565b6000815180845260005b818110156105775760208185018101518683018201520161055b565b506000602082860101526020601f19601f83011685010191505092915050565b6020815260006105aa6020830184610551565b9392505050565b6000602082840312156105c357600080fd5b81356001600160a01b03811681146105aa57600080fd5b82151581526040602082015260006105f56040830184610551565b949350505050565b600181811c9082168061061157607f821691505b60208210810361063157634e487b7160e01b600052602260045260246000fd5b50919050565b634e487b7160e01b600052604160045260246000fd5b601f82111561069757600081815260208120601f850160051c810160208610156106745750805b601f850160051c820191505b8181101561069357828155600101610680565b5050505b505050565b8181036106a7575050565b6106b182546105fd565b67ffffffffffffffff8111156106c9576106c9610637565b6106dd816106d784546105fd565b8461064d565b6000601f82116001811461071157600083156106f95750848201545b600019600385901b1c1916600184901b178455610776565b600085815260209020601f19841690600086815260209020845b8381101561074b578286015482556001958601959091019060200161072b565b50858310156107695781850154600019600388901b60f8161c191681555b50505060018360011b0184555b5050505050565b60006001820161079d57634e487b7160e01b600052601160045260246000fd5b5060010190565b60006020808352600084546107b8816105fd565b808487015260406001808416600081146107d957600181146107f357610821565b60ff1985168984015283151560051b890183019550610821565b896000528660002060005b858110156108195781548b82018601529083019088016107fe565b8a0184019650505b509398975050505050505050565b6000815461083c816105fd565b60018281168015610854576001811461086957610898565b60ff1984168752821515830287019450610898565b8560005260208060002060005b8581101561088f5781548a820152908401908201610876565b50505082870194505b5050505092915050565b7f53656c656374203120666f722000000000000000000000000000000000000000815260006108d4600d83018561082f565b7f206f72202053656c656374203220666f722000000000000000000000000000008152610904601282018561082f565b95945050505050565b6000610919828461082f565b7f2057494e532121212121210000000000000000000000000000000000000000008152600b01939250505056fea2646970667358221220d8e1a572e67ae8638cdd4e9d28bc4a188f6de50f84196f292481ed7cd26afcf364736f6c63430008140033","opcodes":"PUSH1 0x80 PUSH1 0x40 MSTORE CALLVALUE DUP1 ISZERO PUSH3 0x11 JUMPI PUSH1 0x0 DUP1 REVERT JUMPDEST POP PUSH1 0x40 MLOAD PUSH3 0xC82 CODESIZE SUB DUP1 PUSH3 0xC82 DUP4 CODECOPY DUP2 ADD PUSH1 0x40 DUP2 SWAP1 MSTORE PUSH3 0x34 SWAP2 PUSH3 0x131 JUMP JUMPDEST PUSH1 0x0 DUP1 SLOAD PUSH1 0x1 PUSH1 0x1 PUSH1 0xA0 SHL SUB NOT AND CALLER OR SWAP1 SSTORE PUSH1 0x4 PUSH3 0x54 DUP4 DUP3 PUSH3 0x22A JUMP JUMPDEST POP PUSH1 0x5 PUSH3 0x63 DUP3 DUP3 PUSH3 0x22A JUMP JUMPDEST POP POP POP PUSH3 0x2F6 JUMP JUMPDEST PUSH4 0x4E487B71 PUSH1 0xE0 SHL PUSH1 0x0 MSTORE PUSH1 0x41 PUSH1 0x4 MSTORE PUSH1 0x24 PUSH1 0x0 REVERT JUMPDEST PUSH1 0x0 DUP3 PUSH1 0x1F DUP4 ADD SLT PUSH3 0x94 JUMPI PUSH1 0x0 DUP1 REVERT JUMPDEST DUP2 MLOAD PUSH1 0x1 PUSH1 0x1 PUSH1 0x40 SHL SUB DUP1 DUP3 GT ISZERO PUSH3 0xB1 JUMPI PUSH3 0xB1 PUSH3 0x6C JUMP JUMPDEST PUSH1 0x40 MLOAD PUSH1 0x1F DUP4 ADD PUSH1 0x1F NOT SWAP1 DUP2 AND PUSH1 0x3F ADD AND DUP2 ADD SWAP1 DUP3 DUP3 GT DUP2 DUP4 LT OR ISZERO PUSH3 0xDC JUMPI PUSH3 0xDC PUSH3 0x6C JUMP JUMPDEST DUP2 PUSH1 0x40 MSTORE DUP4 DUP2 MSTORE PUSH1 0x20 SWAP3 POP DUP7 DUP4 DUP6 DUP9 ADD ADD GT ISZERO PUSH3 0xF9 JUMPI PUSH1 0x0 DUP1 REVERT JUMPDEST PUSH1 0x0 SWAP2 POP JUMPDEST DUP4 DUP3 LT ISZERO PUSH3 0x11D JUMPI DUP6 DUP3 ADD DUP4 ADD MLOAD DUP2 DUP4 ADD DUP5 ADD MSTORE SWAP1 DUP3 ADD SWAP1 PUSH3 0xFE JUMP JUMPDEST PUSH1 0x0 SWAP4 DUP2 ADD SWAP1 SWAP3 ADD SWAP3 SWAP1 SWAP3 MSTORE SWAP5 SWAP4 POP POP POP POP JUMP JUMPDEST PUSH1 0x0 DUP1 PUSH1 0x40 DUP4 DUP6 SUB SLT ISZERO PUSH3 0x145 JUMPI PUSH1 0x0 DUP1 REVERT JUMPDEST DUP3 MLOAD PUSH1 0x1 PUSH1 0x1 PUSH1 0x40 SHL SUB DUP1 DUP3 GT ISZERO PUSH3 0x15D JUMPI PUSH1 0x0 DUP1 REVERT JUMPDEST PUSH3 0x16B DUP7 DUP4 DUP8 ADD PUSH3 0x82 JUMP JUMPDEST SWAP4 POP PUSH1 0x20 DUP6 ADD MLOAD SWAP2 POP DUP1 DUP3 GT ISZERO PUSH3 0x182 JUMPI PUSH1 0x0 DUP1 REVERT JUMPDEST POP PUSH3 0x191 DUP6 DUP3 DUP7 ADD PUSH3 0x82 JUMP JUMPDEST SWAP2 POP POP SWAP3 POP SWAP3 SWAP1 POP JUMP JUMPDEST PUSH1 0x1 DUP2 DUP2 SHR SWAP1 DUP3 AND DUP1 PUSH3 0x1B0 JUMPI PUSH1 0x7F DUP3 AND SWAP2 POP JUMPDEST PUSH1 0x20 DUP3 LT DUP2 SUB PUSH3 0x1D1 JUMPI PUSH4 0x4E487B71 PUSH1 0xE0 SHL PUSH1 0x0 MSTORE PUSH1 0x22 PUSH1 0x4 MSTORE PUSH1 0x24 PUSH1 0x0 REVERT JUMPDEST POP SWAP2 SWAP1 POP JUMP JUMPDEST PUSH1 0x1F DUP3 GT ISZERO PUSH3 0x225 JUMPI PUSH1 0x0 DUP2 DUP2 MSTORE PUSH1 0x20 DUP2 KECCAK256 PUSH1 0x1F DUP6 ADD PUSH1 0x5 SHR DUP2 ADD PUSH1 0x20 DUP7 LT ISZERO PUSH3 0x200 JUMPI POP DUP1 JUMPDEST PUSH1 0x1F DUP6 ADD PUSH1 0x5 SHR DUP3 ADD SWAP2 POP JUMPDEST DUP2 DUP2 LT ISZERO PUSH3 0x221 JUMPI DUP3 DUP2 SSTORE PUSH1 0x1 ADD PUSH3 0x20C JUMP JUMPDEST POP POP POP JUMPDEST POP POP POP JUMP JUMPDEST DUP2 MLOAD PUSH1 0x1 PUSH1 0x1 PUSH1 0x40 SHL SUB DUP2 GT ISZERO PUSH3 0x246 JUMPI PUSH3 0x246 PUSH3 0x6C JUMP JUMPDEST PUSH3 0x25E DUP2 PUSH3 0x257 DUP5 SLOAD PUSH3 0x19B JUMP JUMPDEST DUP5 PUSH3 0x1D7 JUMP JUMPDEST PUSH1 0x20 DUP1 PUSH1 0x1F DUP4 GT PUSH1 0x1 DUP2 EQ PUSH3 0x296 JUMPI PUSH1 0x0 DUP5 ISZERO PUSH3 0x27D JUMPI POP DUP6 DUP4 ADD MLOAD JUMPDEST PUSH1 0x0 NOT PUSH1 0x3 DUP7 SWAP1 SHL SHR NOT AND PUSH1 0x1 DUP6 SWAP1 SHL OR DUP6 SSTORE PUSH3 0x221 JUMP JUMPDEST PUSH1 0x0 DUP6 DUP2 MSTORE PUSH1 0x20 DUP2 KECCAK256 PUSH1 0x1F NOT DUP7 AND SWAP2 JUMPDEST DUP3 DUP2 LT ISZERO PUSH3 0x2C7 JUMPI DUP9 DUP7 ADD MLOAD DUP3 SSTORE SWAP5 DUP5 ADD SWAP5 PUSH1 0x1 SWAP1 SWAP2 ADD SWAP1 DUP5 ADD PUSH3 0x2A6 JUMP JUMPDEST POP DUP6 DUP3 LT ISZERO PUSH3 0x2E6 JUMPI DUP8 DUP6 ADD MLOAD PUSH1 0x0 NOT PUSH1 0x3 DUP9 SWAP1 SHL PUSH1 0xF8 AND SHR NOT AND DUP2 SSTORE JUMPDEST POP POP POP POP POP PUSH1 0x1 SWAP1 DUP2 SHL ADD SWAP1 SSTORE POP JUMP JUMPDEST PUSH2 0x97C DUP1 PUSH3 0x306 PUSH1 0x0 CODECOPY PUSH1 0x0 RETURN INVALID PUSH1 0x80 PUSH1 0x40 MSTORE CALLVALUE DUP1 ISZERO PUSH2 0x10 JUMPI PUSH1 0x0 DUP1 REVERT JUMPDEST POP PUSH1 0x4 CALLDATASIZE LT PUSH2 0xA3 JUMPI PUSH1 0x0 CALLDATALOAD PUSH1 0xE0 SHR DUP1 PUSH4 0xA3EC138D GT PUSH2 0x76 JUMPI DUP1 PUSH4 0xB4DE2384 GT PUSH2 0x5B JUMPI DUP1 PUSH4 0xB4DE2384 EQ PUSH2 0x142 JUMPI DUP1 PUSH4 0xC0DB3C60 EQ PUSH2 0x14B JUMPI DUP1 PUSH4 0xDFBF53AE EQ PUSH2 0x153 JUMPI PUSH1 0x0 DUP1 REVERT JUMPDEST DUP1 PUSH4 0xA3EC138D EQ PUSH2 0x119 JUMPI DUP1 PUSH4 0xAD69AB95 EQ PUSH2 0x13A JUMPI PUSH1 0x0 DUP1 REVERT JUMPDEST DUP1 PUSH4 0x121B93F EQ PUSH2 0xA8 JUMPI DUP1 PUSH4 0x4D2C6C12 EQ PUSH2 0xBD JUMPI DUP1 PUSH4 0x8DA5CB5B EQ PUSH2 0xD9 JUMPI DUP1 PUSH4 0x92D2E438 EQ PUSH2 0x104 JUMPI JUMPDEST PUSH1 0x0 DUP1 REVERT JUMPDEST PUSH2 0xBB PUSH2 0xB6 CALLDATASIZE PUSH1 0x4 PUSH2 0x538 JUMP JUMPDEST PUSH2 0x15B JUMP JUMPDEST STOP JUMPDEST PUSH2 0xC6 PUSH1 0x2 SLOAD DUP2 JUMP JUMPDEST PUSH1 0x40 MLOAD SWAP1 DUP2 MSTORE PUSH1 0x20 ADD JUMPDEST PUSH1 0x40 MLOAD DUP1 SWAP2 SUB SWAP1 RETURN JUMPDEST PUSH1 0x0 SLOAD PUSH2 0xEC SWAP1 PUSH1 0x1 PUSH1 0x1 PUSH1 0xA0 SHL SUB AND DUP2 JUMP JUMPDEST PUSH1 0x40 MLOAD PUSH1 0x1 PUSH1 0x1 PUSH1 0xA0 SHL SUB SWAP1 SWAP2 AND DUP2 MSTORE PUSH1 0x20 ADD PUSH2 0xD0 JUMP JUMPDEST PUSH2 0x10C PUSH2 0x354 JUMP JUMPDEST PUSH1 0x40 MLOAD PUSH2 0xD0 SWAP2 SWAP1 PUSH2 0x597 JUMP JUMPDEST PUSH2 0x12C PUSH2 0x127 CALLDATASIZE PUSH1 0x4 PUSH2 0x5B1 JUMP JUMPDEST PUSH2 0x3E2 JUMP JUMPDEST PUSH1 0x40 MLOAD PUSH2 0xD0 SWAP3 SWAP2 SWAP1 PUSH2 0x5DA JUMP JUMPDEST PUSH2 0x10C PUSH2 0x48B JUMP JUMPDEST PUSH2 0xC6 PUSH1 0x1 SLOAD DUP2 JUMP JUMPDEST PUSH2 0x10C PUSH2 0x498 JUMP JUMPDEST PUSH2 0x10C PUSH2 0x4C3 JUMP JUMPDEST PUSH1 0x0 SLOAD PUSH1 0x1 PUSH1 0x1 PUSH1 0xA0 SHL SUB AND CALLER SUB PUSH2 0x1BA JUMPI PUSH1 0x40 MLOAD PUSH3 0x461BCD PUSH1 0xE5 SHL DUP2 MSTORE PUSH1 0x20 PUSH1 0x4 DUP3 ADD MSTORE PUSH1 0x11 PUSH1 0x24 DUP3 ADD MSTORE PUSH32 0x4F776E65722063616E6E6F7420766F7465000000000000000000000000000000 PUSH1 0x44 DUP3 ADD MSTORE PUSH1 0x64 ADD JUMPDEST PUSH1 0x40 MLOAD DUP1 SWAP2 SUB SWAP1 REVERT JUMPDEST CALLER PUSH1 0x0 SWAP1 DUP2 MSTORE PUSH1 0x3 PUSH1 0x20 MSTORE PUSH1 0x40 SWAP1 KECCAK256 DUP1 SLOAD PUSH1 0xFF AND ISZERO PUSH2 0x21B JUMPI PUSH1 0x40 MLOAD PUSH3 0x461BCD PUSH1 0xE5 SHL DUP2 MSTORE PUSH1 0x20 PUSH1 0x4 DUP3 ADD MSTORE PUSH1 0xD PUSH1 0x24 DUP3 ADD MSTORE PUSH32 0x416C726561647920766F74656400000000000000000000000000000000000000 PUSH1 0x44 DUP3 ADD MSTORE PUSH1 0x64 ADD PUSH2 0x1B1 JUMP JUMPDEST DUP2 PUSH1 0x1 EQ DUP1 PUSH2 0x22A JUMPI POP DUP2 PUSH1 0x2 EQ JUMPDEST PUSH2 0x276 JUMPI PUSH1 0x40 MLOAD PUSH3 0x461BCD PUSH1 0xE5 SHL DUP2 MSTORE PUSH1 0x20 PUSH1 0x4 DUP3 ADD MSTORE PUSH1 0xE PUSH1 0x24 DUP3 ADD MSTORE PUSH32 0x496E76616C6964206F7074696F6E000000000000000000000000000000000000 PUSH1 0x44 DUP3 ADD MSTORE PUSH1 0x64 ADD PUSH2 0x1B1 JUMP JUMPDEST DUP1 SLOAD PUSH1 0xFF NOT AND PUSH1 0x1 SWAP1 DUP2 OR DUP3 SSTORE DUP3 SWAP1 SUB PUSH2 0x2F5 JUMPI PUSH1 0x1 DUP2 ADD PUSH2 0x299 PUSH1 0x4 DUP3 PUSH2 0x69C JUMP JUMPDEST POP PUSH1 0x1 DUP1 SLOAD SWAP1 PUSH1 0x0 PUSH2 0x2AA DUP4 PUSH2 0x77D JUMP JUMPDEST SWAP2 SWAP1 POP SSTORE POP CALLER PUSH1 0x1 PUSH1 0x1 PUSH1 0xA0 SHL SUB AND PUSH32 0xCB6783276E8A4347387036BBFEA000268F0A4B1F8C46AC79980609F2AF8D2ACD PUSH1 0x4 PUSH1 0x40 MLOAD PUSH2 0x2E9 SWAP2 SWAP1 PUSH2 0x7A4 JUMP JUMPDEST PUSH1 0x40 MLOAD DUP1 SWAP2 SUB SWAP1 LOG2 POP POP JUMP JUMPDEST PUSH1 0x1 DUP2 ADD PUSH2 0x304 PUSH1 0x5 DUP3 PUSH2 0x69C JUMP JUMPDEST POP PUSH1 0x2 DUP1 SLOAD SWAP1 PUSH1 0x0 PUSH2 0x315 DUP4 PUSH2 0x77D JUMP JUMPDEST SWAP2 SWAP1 POP SSTORE POP CALLER PUSH1 0x1 PUSH1 0x1 PUSH1 0xA0 SHL SUB AND PUSH32 0xCB6783276E8A4347387036BBFEA000268F0A4B1F8C46AC79980609F2AF8D2ACD PUSH1 0x5 PUSH1 0x40 MLOAD PUSH2 0x2E9 SWAP2 SWAP1 PUSH2 0x7A4 JUMP JUMPDEST PUSH1 0x4 DUP1 SLOAD PUSH2 0x361 SWAP1 PUSH2 0x5FD JUMP JUMPDEST DUP1 PUSH1 0x1F ADD PUSH1 0x20 DUP1 SWAP2 DIV MUL PUSH1 0x20 ADD PUSH1 0x40 MLOAD SWAP1 DUP2 ADD PUSH1 0x40 MSTORE DUP1 SWAP3 SWAP2 SWAP1 DUP2 DUP2 MSTORE PUSH1 0x20 ADD DUP3 DUP1 SLOAD PUSH2 0x38D SWAP1 PUSH2 0x5FD JUMP JUMPDEST DUP1 ISZERO PUSH2 0x3DA JUMPI DUP1 PUSH1 0x1F LT PUSH2 0x3AF JUMPI PUSH2 0x100 DUP1 DUP4 SLOAD DIV MUL DUP4 MSTORE SWAP2 PUSH1 0x20 ADD SWAP2 PUSH2 0x3DA JUMP JUMPDEST DUP3 ADD SWAP2 SWAP1 PUSH1 0x0 MSTORE PUSH1 0x20 PUSH1 0x0 KECCAK256 SWAP1 JUMPDEST DUP2 SLOAD DUP2 MSTORE SWAP1 PUSH1 0x1 ADD SWAP1 PUSH1 0x20 ADD DUP1 DUP4 GT PUSH2 0x3BD JUMPI DUP3 SWAP1 SUB PUSH1 0x1F AND DUP3 ADD SWAP2 JUMPDEST POP POP POP POP POP DUP2 JUMP JUMPDEST PUSH1 0x3 PUSH1 0x20 MSTORE PUSH1 0x0 SWAP1 DUP2 MSTORE PUSH1 0x40 SWAP1 KECCAK256 DUP1 SLOAD PUSH1 0x1 DUP3 ADD DUP1 SLOAD PUSH1 0xFF SWAP1 SWAP3 AND SWAP3 SWAP2 PUSH2 0x408 SWAP1 PUSH2 0x5FD JUMP JUMPDEST DUP1 PUSH1 0x1F ADD PUSH1 0x20 DUP1 SWAP2 DIV MUL PUSH1 0x20 ADD PUSH1 0x40 MLOAD SWAP1 DUP2 ADD PUSH1 0x40 MSTORE DUP1 SWAP3 SWAP2 SWAP1 DUP2 DUP2 MSTORE PUSH1 0x20 ADD DUP3 DUP1 SLOAD PUSH2 0x434 SWAP1 PUSH2 0x5FD JUMP JUMPDEST DUP1 ISZERO PUSH2 0x481 JUMPI DUP1 PUSH1 0x1F LT PUSH2 0x456 JUMPI PUSH2 0x100 DUP1 DUP4 SLOAD DIV MUL DUP4 MSTORE SWAP2 PUSH1 0x20 ADD SWAP2 PUSH2 0x481 JUMP JUMPDEST DUP3 ADD SWAP2 SWAP1 PUSH1 0x0 MSTORE PUSH1 0x20 PUSH1 0x0 KECCAK256 SWAP1 JUMPDEST DUP2 SLOAD DUP2 MSTORE SWAP1 PUSH1 0x1 ADD SWAP1 PUSH1 0x20 ADD DUP1 DUP4 GT PUSH2 0x464 JUMPI DUP3 SWAP1 SUB PUSH1 0x1F AND DUP3 ADD SWAP2 JUMPDEST POP POP POP POP POP SWAP1 POP DUP3 JUMP JUMPDEST PUSH1 0x5 DUP1 SLOAD PUSH2 0x361 SWAP1 PUSH2 0x5FD JUMP JUMPDEST PUSH1 0x60 PUSH1 0x4 PUSH1 0x5 PUSH1 0x40 MLOAD PUSH1 0x20 ADD PUSH2 0x4AF SWAP3 SWAP2 SWAP1 PUSH2 0x8A2 JUMP JUMPDEST PUSH1 0x40 MLOAD PUSH1 0x20 DUP2 DUP4 SUB SUB DUP2 MSTORE SWAP1 PUSH1 0x40 MSTORE SWAP1 POP SWAP1 JUMP JUMPDEST PUSH1 0x60 PUSH1 0x2 SLOAD PUSH1 0x1 SLOAD SUB PUSH2 0x508 JUMPI POP PUSH1 0x40 DUP1 MLOAD DUP1 DUP3 ADD SWAP1 SWAP2 MSTORE PUSH1 0xF DUP2 MSTORE PUSH32 0x4954532041204452415721212121210000000000000000000000000000000000 PUSH1 0x20 DUP3 ADD MSTORE SWAP1 JUMP JUMPDEST PUSH1 0x2 SLOAD PUSH1 0x1 SLOAD GT ISZERO PUSH2 0x526 JUMPI PUSH1 0x4 PUSH1 0x40 MLOAD PUSH1 0x20 ADD PUSH2 0x4AF SWAP2 SWAP1 PUSH2 0x90D JUMP JUMPDEST PUSH1 0x5 PUSH1 0x40 MLOAD PUSH1 0x20 ADD PUSH2 0x4AF SWAP2 SWAP1 PUSH2 0x90D JUMP JUMPDEST PUSH1 0x0 PUSH1 0x20 DUP3 DUP5 SUB SLT ISZERO PUSH2 0x54A JUMPI PUSH1 0x0 DUP1 REVERT JUMPDEST POP CALLDATALOAD SWAP2 SWAP1 POP JUMP JUMPDEST PUSH1 0x0 DUP2 MLOAD DUP1 DUP5 MSTORE PUSH1 0x0 JUMPDEST DUP2 DUP2 LT ISZERO PUSH2 0x577 JUMPI PUSH1 0x20 DUP2 DUP6 ADD DUP2 ADD MLOAD DUP7 DUP4 ADD DUP3 ADD MSTORE ADD PUSH2 0x55B JUMP JUMPDEST POP PUSH1 0x0 PUSH1 0x20 DUP3 DUP7 ADD ADD MSTORE PUSH1 0x20 PUSH1 0x1F NOT PUSH1 0x1F DUP4 ADD AND DUP6 ADD ADD SWAP2 POP POP SWAP3 SWAP2 POP POP JUMP JUMPDEST PUSH1 0x20 DUP2 MSTORE PUSH1 0x0 PUSH2 0x5AA PUSH1 0x20 DUP4 ADD DUP5 PUSH2 0x551 JUMP JUMPDEST SWAP4 SWAP3 POP POP POP JUMP JUMPDEST PUSH1 0x0 PUSH1 0x20 DUP3 DUP5 SUB SLT ISZERO PUSH2 0x5C3 JUMPI PUSH1 0x0 DUP1 REVERT JUMPDEST DUP2 CALLDATALOAD PUSH1 0x1 PUSH1 0x1 PUSH1 0xA0 SHL SUB DUP2 AND DUP2 EQ PUSH2 0x5AA JUMPI PUSH1 0x0 DUP1 REVERT JUMPDEST DUP3 ISZERO ISZERO DUP2 MSTORE PUSH1 0x40 PUSH1 0x20 DUP3 ADD MSTORE PUSH1 0x0 PUSH2 0x5F5 PUSH1 0x40 DUP4 ADD DUP5 PUSH2 0x551 JUMP JUMPDEST SWAP5 SWAP4 POP POP POP POP JUMP JUMPDEST PUSH1 0x1 DUP2 DUP2 SHR SWAP1 DUP3 AND DUP1 PUSH2 0x611 JUMPI PUSH1 0x7F DUP3 AND SWAP2 POP JUMPDEST PUSH1 0x20 DUP3 LT DUP2 SUB PUSH2 0x631 JUMPI PUSH4 0x4E487B71 PUSH1 0xE0 SHL PUSH1 0x0 MSTORE PUSH1 0x22 PUSH1 0x4 MSTORE PUSH1 0x24 PUSH1 0x0 REVERT JUMPDEST POP SWAP2 SWAP1 POP JUMP JUMPDEST PUSH4 0x4E487B71 PUSH1 0xE0 SHL PUSH1 0x0 MSTORE PUSH1 0x41 PUSH1 0x4 MSTORE PUSH1 0x24 PUSH1 0x0 REVERT JUMPDEST PUSH1 0x1F DUP3 GT ISZERO PUSH2 0x697 JUMPI PUSH1 0x0 DUP2 DUP2 MSTORE PUSH1 0x20 DUP2 KECCAK256 PUSH1 0x1F DUP6 ADD PUSH1 0x5 SHR DUP2 ADD PUSH1 0x20 DUP7 LT ISZERO PUSH2 0x674 JUMPI POP DUP1 JUMPDEST PUSH1 0x1F DUP6 ADD PUSH1 0x5 SHR DUP3 ADD SWAP2 POP JUMPDEST DUP2 DUP2 LT ISZERO PUSH2 0x693 JUMPI DUP3 DUP2 SSTORE PUSH1 0x1 ADD PUSH2 0x680 JUMP JUMPDEST POP POP POP JUMPDEST POP POP POP JUMP JUMPDEST DUP2 DUP2 SUB PUSH2 0x6A7 JUMPI POP POP JUMP JUMPDEST PUSH2 0x6B1 DUP3 SLOAD PUSH2 0x5FD JUMP JUMPDEST PUSH8 0xFFFFFFFFFFFFFFFF DUP2 GT ISZERO PUSH2 0x6C9 JUMPI PUSH2 0x6C9 PUSH2 0x637 JUMP JUMPDEST PUSH2 0x6DD DUP2 PUSH2 0x6D7 DUP5 SLOAD PUSH2 0x5FD JUMP JUMPDEST DUP5 PUSH2 0x64D JUMP JUMPDEST PUSH1 0x0 PUSH1 0x1F DUP3 GT PUSH1 0x1 DUP2 EQ PUSH2 0x711 JUMPI PUSH1 0x0 DUP4 ISZERO PUSH2 0x6F9 JUMPI POP DUP5 DUP3 ADD SLOAD JUMPDEST PUSH1 0x0 NOT PUSH1 0x3 DUP6 SWAP1 SHL SHR NOT AND PUSH1 0x1 DUP5 SWAP1 SHL OR DUP5 SSTORE PUSH2 0x776 JUMP JUMPDEST PUSH1 0x0 DUP6 DUP2 MSTORE PUSH1 0x20 SWAP1 KECCAK256 PUSH1 0x1F NOT DUP5 AND SWAP1 PUSH1 0x0 DUP7 DUP2 MSTORE PUSH1 0x20 SWAP1 KECCAK256 DUP5 JUMPDEST DUP4 DUP2 LT ISZERO PUSH2 0x74B JUMPI DUP3 DUP7 ADD SLOAD DUP3 SSTORE PUSH1 0x1 SWAP6 DUP7 ADD SWAP6 SWAP1 SWAP2 ADD SWAP1 PUSH1 0x20 ADD PUSH2 0x72B JUMP JUMPDEST POP DUP6 DUP4 LT ISZERO PUSH2 0x769 JUMPI DUP2 DUP6 ADD SLOAD PUSH1 0x0 NOT PUSH1 0x3 DUP9 SWAP1 SHL PUSH1 0xF8 AND SHR NOT AND DUP2 SSTORE JUMPDEST POP POP POP PUSH1 0x1 DUP4 PUSH1 0x1 SHL ADD DUP5 SSTORE JUMPDEST POP POP POP POP POP JUMP JUMPDEST PUSH1 0x0 PUSH1 0x1 DUP3 ADD PUSH2 0x79D JUMPI PUSH4 0x4E487B71 PUSH1 0xE0 SHL PUSH1 0x0 MSTORE PUSH1 0x11 PUSH1 0x4 MSTORE PUSH1 0x24 PUSH1 0x0 REVERT JUMPDEST POP PUSH1 0x1 ADD SWAP1 JUMP JUMPDEST PUSH1 0x0 PUSH1 0x20 DUP1 DUP4 MSTORE PUSH1 0x0 DUP5 SLOAD PUSH2 0x7B8 DUP2 PUSH2 0x5FD JUMP JUMPDEST DUP1 DUP5 DUP8 ADD MSTORE PUSH1 0x40 PUSH1 0x1 DUP1 DUP5 AND PUSH1 0x0 DUP2 EQ PUSH2 0x7D9 JUMPI PUSH1 0x1 DUP2 EQ PUSH2 0x7F3 JUMPI PUSH2 0x821 JUMP JUMPDEST PUSH1 0xFF NOT DUP6 AND DUP10 DUP5 ADD MSTORE DUP4 ISZERO ISZERO PUSH1 0x5 SHL DUP10 ADD DUP4 ADD SWAP6 POP PUSH2 0x821 JUMP JUMPDEST DUP10 PUSH1 0x0 MSTORE DUP7 PUSH1 0x0 KECCAK256 PUSH1 0x0 JUMPDEST DUP6 DUP2 LT ISZERO PUSH2 0x819 JUMPI DUP2 SLOAD DUP12 DUP3 ADD DUP7 ADD MSTORE SWAP1 DUP4 ADD SWAP1 DUP9 ADD PUSH2 0x7FE JUMP JUMPDEST DUP11 ADD DUP5 ADD SWAP7 POP POP JUMPDEST POP SWAP4 SWAP9 SWAP8 POP POP POP POP POP POP POP POP JUMP JUMPDEST PUSH1 0x0 DUP2 SLOAD PUSH2 0x83C DUP2 PUSH2 0x5FD JUMP JUMPDEST PUSH1 0x1 DUP3 DUP2 AND DUP1 ISZERO PUSH2 0x854 JUMPI PUSH1 0x1 DUP2 EQ PUSH2 0x869 JUMPI PUSH2 0x898 JUMP JUMPDEST PUSH1 0xFF NOT DUP5 AND DUP8 MSTORE DUP3 ISZERO ISZERO DUP4 MUL DUP8 ADD SWAP5 POP PUSH2 0x898 JUMP JUMPDEST DUP6 PUSH1 0x0 MSTORE PUSH1 0x20 DUP1 PUSH1 0x0 KECCAK256 PUSH1 0x0 JUMPDEST DUP6 DUP2 LT ISZERO PUSH2 0x88F JUMPI DUP2 SLOAD DUP11 DUP3 ADD MSTORE SWAP1 DUP5 ADD SWAP1 DUP3 ADD PUSH2 0x876 JUMP JUMPDEST POP POP POP DUP3 DUP8 ADD SWAP5 POP JUMPDEST POP POP POP POP SWAP3 SWAP2 POP POP JUMP JUMPDEST PUSH32 0x53656C656374203120666F722000000000000000000000000000000000000000 DUP2 MSTORE PUSH1 0x0 PUSH2 0x8D4 PUSH1 0xD DUP4 ADD DUP6 PUSH2 0x82F JUMP JUMPDEST PUSH32 0x206F72202053656C656374203220666F72200000000000000000000000000000 DUP2 MSTORE PUSH2 0x904 PUSH1 0x12 DUP3 ADD DUP6 PUSH2 0x82F JUMP JUMPDEST SWAP6 SWAP5 POP POP POP POP POP JUMP JUMPDEST PUSH1 0x0 PUSH2 0x919 DUP3 DUP5 PUSH2 0x82F JUMP JUMPDEST PUSH32 0x2057494E53212121212121000000000000000000000000000000000000000000 DUP2 MSTORE PUSH1 0xB ADD SWAP4 SWAP3 POP POP POP JUMP INVALID LOG2 PUSH5 0x6970667358 0x22 SLT KECCAK256 0xD8 0xE1 0xA5 PUSH19 0xE67AE8638CDD4E9D28BC4A188F6DE50F84196F 0x29 0x24 DUP2 0xED PUSH29 0xD26AFCF364736F6C634300081400330000000000000000000000000000 "},"methodIdentifiers":{"option1()":"92d2e438","option1Votes()":"b4de2384","option2()":"ad69ab95","option2Votes()":"4d2c6c12","owner()":"8da5cb5b","viewOptions()":"c0db3c60","vote(uint256)":"0121b93f","voters(address)":"a3ec138d","winner()":"dfbf53ae"}},"storageLayout":{"storage":[{"astId":3,"contract":"contracts/Voting.sol:SimpleVoting","label":"owner","offset":0,"slot":"0","type":"t_address"},{"astId":10,"contract":"contracts/Voting.sol:SimpleVoting","label":"option1Votes","offset":0,"slot":"1","type":"t_uint256"},{"astId":12,"contract":"contracts/Voting.sol:SimpleVoting","label":"option2Votes","offset":0,"slot":"2","type":"t_uint256"},{"astId":17,"contract":"contracts/Voting.sol:SimpleVoting","label":"voters","offset":0,"slot":"3","type":"t_mapping(t_address,t_struct(Voter)8_storage)"},{"astId":19,"contract":"contracts/Voting.sol:SimpleVoting","label":"option1","offset":0,"slot":"4","type":"t_string_storage"},{"astId":21,"contract":"contracts/Voting.sol:SimpleVoting","label":"option2","offset":0,"slot":"5","type":"t_string_storage"}],"types":{"t_address":{"encoding":"inplace","label":"address","numberOfBytes":"20"},"t_bool":{"encoding":"inplace","label":"bool","numberOfBytes":"1"},"t_mapping(t_address,t_struct(Voter)8_storage)":{"encoding":"mapping","key":"t_address","label":"mapping(address => struct SimpleVoting.Voter)","numberOfBytes":"32","value":"t_struct(Voter)8_storage"},"t_string_storage":{"encoding":"bytes","label":"string","numberOfBytes":"32"},"t_struct(Voter)8_storage":{"encoding":"inplace","label":"struct SimpleVoting.Voter","members":[{"astId":5,"contract":"contracts/Voting.sol:SimpleVoting","label":"hasVoted","offset":0,"slot":"0","type":"t_bool"},{"astId":7,"contract":"contracts/Voting.sol:SimpleVoting","label":"votedFor","offset":0,"slot":"1","type":"t_string_storage"}],"numberOfBytes":"64"},"t_uint256":{"encoding":"inplace","label":"uint256","numberOfBytes":"32"}}}}}}