{"contracts/Lottery1.sol":{"Lottery1":{"abi":[{"inputs":[],"stateMutability":"nonpayable","type":"constructor"},{"anonymous":false,"inputs":[{"indexed":false,"internalType":"address","name":"previousAdmin","type":"address"},{"indexed":false,"internalType":"address","name":"newAdmin","type":"address"}],"name":"AdminChanged","type":"event"},{"anonymous":false,"inputs":[{"indexed":true,"internalType":"address","name":"beacon","type":"address"}],"name":"BeaconUpgraded","type":"event"},{"anonymous":false,"inputs":[{"indexed":false,"internalType":"uint8","name":"version","type":"uint8"}],"name":"Initialized","type":"event"},{"anonymous":false,"inputs":[{"indexed":true,"internalType":"address","name":"owner","type":"address"},{"indexed":false,"internalType":"uint256","name":"amount","type":"uint256"}],"name":"OwnerFeesWithdrawn","type":"event"},{"anonymous":false,"inputs":[{"indexed":true,"internalType":"address","name":"previousOwner","type":"address"},{"indexed":true,"internalType":"address","name":"newOwner","type":"address"}],"name":"OwnershipTransferred","type":"event"},{"anonymous":false,"inputs":[{"indexed":false,"internalType":"uint256","name":"requestId","type":"uint256"},{"indexed":false,"internalType":"uint256[]","name":"randomWords","type":"uint256[]"}],"name":"RequestFulfilled","type":"event"},{"anonymous":false,"inputs":[{"indexed":false,"internalType":"uint256","name":"requestId","type":"uint256"},{"indexed":false,"internalType":"uint32","name":"numWords","type":"uint32"}],"name":"RequestSent","type":"event"},{"anonymous":false,"inputs":[{"indexed":true,"internalType":"uint256","name":"roundId","type":"uint256"},{"indexed":true,"internalType":"address","name":"player","type":"address"},{"indexed":false,"internalType":"uint256","name":"ticketIndex","type":"uint256"},{"indexed":false,"internalType":"uint8","name":"matches","type":"uint8"},{"indexed":false,"internalType":"uint256","name":"reward","type":"uint256"}],"name":"RewardAssigned","type":"event"},{"anonymous":false,"inputs":[{"indexed":true,"internalType":"address","name":"player","type":"address"},{"indexed":false,"internalType":"uint256","name":"amount","type":"uint256"}],"name":"RewardWithdrawn","type":"event"},{"anonymous":false,"inputs":[{"indexed":true,"internalType":"uint256","name":"roundId","type":"uint256"},{"indexed":false,"internalType":"uint256","name":"requestId","type":"uint256"}],"name":"RoundClosed","type":"event"},{"anonymous":false,"inputs":[{"indexed":true,"internalType":"uint256","name":"roundId","type":"uint256"},{"indexed":false,"internalType":"uint8[7]","name":"winningNumbers","type":"uint8[7]"},{"indexed":false,"internalType":"uint256","name":"ownerFee","type":"uint256"},{"indexed":false,"internalType":"uint256","name":"rolloverAdded","type":"uint256"}],"name":"RoundSettled","type":"event"},{"anonymous":false,"inputs":[{"indexed":true,"internalType":"uint256","name":"roundId","type":"uint256"},{"indexed":false,"internalType":"uint256","name":"rolloverAmount","type":"uint256"}],"name":"RoundSkipped","type":"event"},{"anonymous":false,"inputs":[{"indexed":true,"internalType":"uint256","name":"roundId","type":"uint256"},{"indexed":false,"internalType":"uint256","name":"startTime","type":"uint256"},{"indexed":false,"internalType":"uint256","name":"endTime","type":"uint256"},{"indexed":false,"internalType":"uint256","name":"seededPot","type":"uint256"}],"name":"RoundStarted","type":"event"},{"anonymous":false,"inputs":[{"indexed":true,"internalType":"uint256","name":"roundId","type":"uint256"},{"indexed":true,"internalType":"address","name":"player","type":"address"},{"indexed":false,"internalType":"uint256","name":"ticketIndex","type":"uint256"},{"indexed":false,"internalType":"uint8[7]","name":"numbers","type":"uint8[7]"}],"name":"TicketBought","type":"event"},{"anonymous":false,"inputs":[{"indexed":true,"internalType":"address","name":"implementation","type":"address"}],"name":"Upgraded","type":"event"},{"anonymous":false,"inputs":[{"indexed":false,"internalType":"uint256","name":"requestId","type":"uint256"},{"indexed":false,"internalType":"uint256","name":"roundId","type":"uint256"},{"indexed":false,"internalType":"uint8[7]","name":"winningNumbers","type":"uint8[7]"}],"name":"WinningNumbersGenerated","type":"event"},{"inputs":[],"name":"BPS_DENOMINATOR","outputs":[{"internalType":"uint256","name":"","type":"uint256"}],"stateMutability":"view","type":"function"},{"inputs":[],"name":"OWNER_FEE_BPS","outputs":[{"internalType":"uint256","name":"","type":"uint256"}],"stateMutability":"view","type":"function"},{"inputs":[],"name":"automationNativePayment","outputs":[{"internalType":"bool","name":"","type":"bool"}],"stateMutability":"view","type":"function"},{"inputs":[{"internalType":"uint8[7]","name":"numbers","type":"uint8[7]"}],"name":"buyTicket","outputs":[],"stateMutability":"payable","type":"function"},{"inputs":[],"name":"callbackGasLimit","outputs":[{"internalType":"uint32","name":"","type":"uint32"}],"stateMutability":"view","type":"function"},{"inputs":[{"internalType":"bytes","name":"","type":"bytes"}],"name":"checkUpkeep","outputs":[{"internalType":"bool","name":"upkeepNeeded","type":"bool"},{"internalType":"bytes","name":"performData","type":"bytes"}],"stateMutability":"view","type":"function"},{"inputs":[],"name":"currentRoundId","outputs":[{"internalType":"uint256","name":"","type":"uint256"}],"stateMutability":"view","type":"function"},{"inputs":[],"name":"entryFee","outputs":[{"internalType":"uint256","name":"","type":"uint256"}],"stateMutability":"view","type":"function"},{"inputs":[],"name":"getLastRandomWords","outputs":[{"internalType":"uint256[]","name":"","type":"uint256[]"}],"stateMutability":"view","type":"function"},{"inputs":[{"internalType":"uint256","name":"requestId","type":"uint256"}],"name":"getRequestStatus","outputs":[{"internalType":"bool","name":"fulfilled","type":"bool"},{"internalType":"uint256[]","name":"randomWords","type":"uint256[]"}],"stateMutability":"view","type":"function"},{"inputs":[{"internalType":"uint256","name":"roundId","type":"uint256"}],"name":"getRoundTicketCount","outputs":[{"internalType":"uint256","name":"","type":"uint256"}],"stateMutability":"view","type":"function"},{"inputs":[{"internalType":"uint256","name":"roundId","type":"uint256"}],"name":"getRoundWinningNumbers","outputs":[{"internalType":"uint8[7]","name":"","type":"uint8[7]"}],"stateMutability":"view","type":"function"},{"inputs":[{"internalType":"uint256","name":"roundId","type":"uint256"},{"internalType":"uint256","name":"ticketIndex","type":"uint256"}],"name":"getTicket","outputs":[{"internalType":"address","name":"player","type":"address"},{"internalType":"uint8[7]","name":"numbers","type":"uint8[7]"},{"internalType":"bool","name":"claimed","type":"bool"},{"internalType":"uint8","name":"matchedCount","type":"uint8"},{"internalType":"uint256","name":"reward","type":"uint256"}],"stateMutability":"view","type":"function"},{"inputs":[],"name":"getWinningNumbers","outputs":[{"internalType":"uint8[7]","name":"","type":"uint8[7]"}],"stateMutability":"view","type":"function"},{"inputs":[],"name":"initialize2","outputs":[],"stateMutability":"nonpayable","type":"function"},{"inputs":[],"name":"keyHash","outputs":[{"internalType":"bytes32","name":"","type":"bytes32"}],"stateMutability":"view","type":"function"},{"inputs":[{"internalType":"uint256","name":"","type":"uint256"}],"name":"lastRandomWords","outputs":[{"internalType":"uint256","name":"","type":"uint256"}],"stateMutability":"view","type":"function"},{"inputs":[],"name":"lastRequestId","outputs":[{"internalType":"uint256","name":"","type":"uint256"}],"stateMutability":"view","type":"function"},{"inputs":[],"name":"numWords","outputs":[{"internalType":"uint32","name":"","type":"uint32"}],"stateMutability":"view","type":"function"},{"inputs":[],"name":"owner","outputs":[{"internalType":"address","name":"","type":"address"}],"stateMutability":"view","type":"function"},{"inputs":[],"name":"ownerFeesAccrued","outputs":[{"internalType":"uint256","name":"","type":"uint256"}],"stateMutability":"view","type":"function"},{"inputs":[{"internalType":"address","name":"","type":"address"}],"name":"pendingRewards","outputs":[{"internalType":"uint256","name":"","type":"uint256"}],"stateMutability":"view","type":"function"},{"inputs":[{"internalType":"bytes","name":"performData","type":"bytes"}],"name":"performUpkeep","outputs":[],"stateMutability":"nonpayable","type":"function"},{"inputs":[],"name":"proxiableUUID","outputs":[{"internalType":"bytes32","name":"","type":"bytes32"}],"stateMutability":"view","type":"function"},{"inputs":[{"internalType":"uint256","name":"requestId","type":"uint256"},{"internalType":"uint256[]","name":"randomWords","type":"uint256[]"}],"name":"rawFulfillRandomWords","outputs":[],"stateMutability":"nonpayable","type":"function"},{"inputs":[],"name":"renounceOwnership","outputs":[],"stateMutability":"nonpayable","type":"function"},{"inputs":[],"name":"requestConfirmations","outputs":[{"internalType":"uint16","name":"","type":"uint16"}],"stateMutability":"view","type":"function"},{"inputs":[{"internalType":"uint256","name":"","type":"uint256"}],"name":"requestToRoundId","outputs":[{"internalType":"uint256","name":"","type":"uint256"}],"stateMutability":"view","type":"function"},{"inputs":[{"internalType":"uint256","name":"","type":"uint256"}],"name":"requests","outputs":[{"internalType":"bool","name":"exists","type":"bool"},{"internalType":"bool","name":"fulfilled","type":"bool"}],"stateMutability":"view","type":"function"},{"inputs":[],"name":"rolloverPool","outputs":[{"internalType":"uint256","name":"","type":"uint256"}],"stateMutability":"view","type":"function"},{"inputs":[],"name":"roundDuration","outputs":[{"internalType":"uint256","name":"","type":"uint256"}],"stateMutability":"view","type":"function"},{"inputs":[{"internalType":"uint256","name":"","type":"uint256"},{"internalType":"uint256","name":"","type":"uint256"}],"name":"roundWinningNumbers","outputs":[{"internalType":"uint8","name":"","type":"uint8"}],"stateMutability":"view","type":"function"},{"inputs":[{"internalType":"uint256","name":"","type":"uint256"}],"name":"rounds","outputs":[{"internalType":"bool","name":"active","type":"bool"},{"internalType":"bool","name":"drawRequested","type":"bool"},{"internalType":"bool","name":"drawn","type":"bool"},{"internalType":"uint256","name":"startTime","type":"uint256"},{"internalType":"uint256","name":"endTime","type":"uint256"},{"internalType":"uint256","name":"pot","type":"uint256"}],"stateMutability":"view","type":"function"},{"inputs":[],"name":"s_vrfCoordinator","outputs":[{"internalType":"contract IVRFCoordinatorV2Plus","name":"","type":"address"}],"stateMutability":"view","type":"function"},{"inputs":[{"internalType":"bool","name":"enabled","type":"bool"}],"name":"setAutomationNativePayment","outputs":[],"stateMutability":"nonpayable","type":"function"},{"inputs":[{"internalType":"uint32","name":"_callbackGasLimit","type":"uint32"}],"name":"setCallbackGasLimit","outputs":[],"stateMutability":"nonpayable","type":"function"},{"inputs":[{"internalType":"bytes32","name":"_keyHash","type":"bytes32"}],"name":"setKeyHash","outputs":[],"stateMutability":"nonpayable","type":"function"},{"inputs":[{"internalType":"uint32","name":"_numWords","type":"uint32"}],"name":"setNumWords","outputs":[],"stateMutability":"nonpayable","type":"function"},{"inputs":[{"internalType":"uint16","name":"_requestConfirmations","type":"uint16"}],"name":"setRequestConfirmations","outputs":[],"stateMutability":"nonpayable","type":"function"},{"inputs":[{"internalType":"uint256","name":"time","type":"uint256"}],"name":"setRoundDuration","outputs":[],"stateMutability":"nonpayable","type":"function"},{"inputs":[{"internalType":"uint256","name":"_subscriptionId","type":"uint256"}],"name":"setSubscriptionId","outputs":[],"stateMutability":"nonpayable","type":"function"},{"inputs":[{"internalType":"uint256","name":"price","type":"uint256"}],"name":"setTicketPrice","outputs":[],"stateMutability":"nonpayable","type":"function"},{"inputs":[],"name":"subscriptionId","outputs":[{"internalType":"uint256","name":"","type":"uint256"}],"stateMutability":"view","type":"function"},{"inputs":[{"internalType":"address","name":"newOwner","type":"address"}],"name":"transferOwnership","outputs":[],"stateMutability":"nonpayable","type":"function"},{"inputs":[{"internalType":"address","name":"newCoordinator","type":"address"}],"name":"updateCoordinator","outputs":[],"stateMutability":"nonpayable","type":"function"},{"inputs":[{"internalType":"address","name":"newImplementation","type":"address"}],"name":"upgradeTo","outputs":[],"stateMutability":"nonpayable","type":"function"},{"inputs":[{"internalType":"address","name":"newImplementation","type":"address"},{"internalType":"bytes","name":"data","type":"bytes"}],"name":"upgradeToAndCall","outputs":[],"stateMutability":"payable","type":"function"},{"inputs":[{"internalType":"uint256","name":"","type":"uint256"}],"name":"winningNumbers","outputs":[{"internalType":"uint8","name":"","type":"uint8"}],"stateMutability":"view","type":"function"},{"inputs":[],"name":"withdrawOwnerFees","outputs":[],"stateMutability":"nonpayable","type":"function"},{"inputs":[],"name":"withdrawReward","outputs":[],"stateMutability":"nonpayable","type":"function"},{"stateMutability":"payable","type":"receive"}],"evm":{"bytecode":{"linkReferences":{},"object":"60a0604052306080523480156200001557600080fd5b506200002062000026565b620000e7565b600054610100900460ff1615620000935760405162461bcd60e51b815260206004820152602760248201527f496e697469616c697a61626c653a20636f6e747261637420697320696e697469604482015266616c697a696e6760c81b606482015260840160405180910390fd5b60005460ff90811614620000e5576000805460ff191660ff9081179091556040519081527f7f26b83ff96e1f2b6a682f133852f6798a09c465da95921460cefb38474024989060200160405180910390a15b565b608051613cfb6200011f60003960008181610e3f01528181610ec4015281816115fc01528181611681015261176b0152613cfb6000f3fe60806040526004361061032d5760003560e01c806384350e1d116101a5578063b368ba42116100ec578063d8a4676f11610095578063f30c07d31161006f578063f30c07d3146109be578063f7cb789a146109de578063f9f94e34146109f4578063fc2a88c314610a1457600080fd5b8063d8a4676f1461095a578063e1a4521814610988578063f2fde38b1461099e57600080fd5b8063c885bc58116100c6578063c885bc58146108f8578063c88e15611461090d578063d88d27d61461092d57600080fd5b8063b368ba4214610881578063c1e0d236146108ab578063c4289070146108cb57600080fd5b80639cbe5efd1161014e578063a4eb718c11610128578063a4eb718c14610815578063b0fb162f14610835578063b28f6ef11461086b57600080fd5b80639cbe5efd146107ae5780639eccacf6146107c4578063a426e4c8146107e457600080fd5b80638da5cb5b1161017f5780638da5cb5b1461073c578063900fc8691461076e578063985447101461078e57600080fd5b806384350e1d1461067b5780638824f5a7146106905780638c65c81f146106b057600080fd5b80633c51c7bb1161027457806361728f391161021d578063715018a6116101f7578063715018a6146105cf5780637ccfd7fc146105e457806381d12c581461060b57806382fbc5c21461065b57600080fd5b806361728f391461055e57806364069e71146105745780636e04ff0d146105a157600080fd5b80634e45f0951161024e5780634e45f095146105045780634f1ef2861461053657806352d1902d1461054957600080fd5b80633c51c7bb146104b95780634585e33b146104cf578063472abf68146104ef57600080fd5b806325c5d34a116102d657806336c92c3f116102b057806336c92c3f1461046457806339e7397b146104845780633c256b241461049757600080fd5b806325c5d34a1461040157806331d7a262146104175780633659cfe61461044457600080fd5b80631598165011610307578063159816501461038f5780631fe543e3146103af57806324f74697146103cf57600080fd5b8063072ea61c1461033957806309c1ba2e146103625780630a9ef34c1461037857600080fd5b3661033457005b600080fd5b34801561034557600080fd5b5061034f60d95481565b6040519081526020015b60405180910390f35b34801561036e57600080fd5b5061034f60ca5481565b34801561038457600080fd5b5061038d610a2a565b005b34801561039b57600080fd5b5061038d6103aa36600461358b565b610b82565b3480156103bb57600080fd5b5061038d6103ca3660046135a4565b610bdf565b3480156103db57600080fd5b5060cc546103ec9063ffffffff1681565b60405163ffffffff9091168152602001610359565b34801561040d57600080fd5b5061034f6103e881565b34801561042357600080fd5b5061034f61043236600461363f565b60d56020526000908152604090205481565b34801561045057600080fd5b5061038d61045f36600461363f565b610e35565b34801561047057600080fd5b5061038d61047f36600461358b565b610fb0565b61038d61049236600461365a565b61100d565b3480156104a357600080fd5b506104ac6112d5565b60405161035991906136bd565b3480156104c557600080fd5b5061034f60d75481565b3480156104db57600080fd5b5061038d6104ea3660046136d0565b61132d565b3480156104fb57600080fd5b5061038d6114ba565b34801561051057600080fd5b5061052461051f36600461358b565b6115c8565b60405160ff9091168152602001610359565b61038d610544366004613758565b6115f2565b34801561055557600080fd5b5061034f61175e565b34801561056a57600080fd5b5061034f60cb5481565b34801561058057600080fd5b5061059461058f36600461358b565b611823565b6040516103599190613840565b3480156105ad57600080fd5b506105c16105bc3660046136d0565b611887565b60405161035992919061389e565b3480156105db57600080fd5b5061038d6118f4565b3480156105f057600080fd5b5060cc546103ec906601000000000000900463ffffffff1681565b34801561061757600080fd5b5061064461062636600461358b565b60d06020526000908152604090205460ff8082169161010090041682565b604080519215158352901515602083015201610359565b34801561066757600080fd5b506105246106763660046138b9565b611908565b34801561068757600080fd5b50610594611941565b34801561069c57600080fd5b5061038d6106ab3660046138db565b611999565b3480156106bc57600080fd5b506107076106cb36600461358b565b60d260205260009081526040902080546001820154600283015460039093015460ff808416946101008504821694620100009004909116929186565b6040805196151587529415156020870152921515938501939093526060840152608083019190915260a082015260c001610359565b34801561074857600080fd5b506033546001600160a01b03165b6040516001600160a01b039091168152602001610359565b34801561077a57600080fd5b5061034f61078936600461358b565b6119c5565b34801561079a57600080fd5b5061038d6107a936600461358b565b6119e6565b3480156107ba57600080fd5b5061034f60d85481565b3480156107d057600080fd5b5060c954610756906001600160a01b031681565b3480156107f057600080fd5b506108046107ff3660046138b9565b6119f3565b6040516103599594939291906138ff565b34801561082157600080fd5b5061038d61083036600461393f565b611ac5565b34801561084157600080fd5b5060cc5461085890640100000000900461ffff1681565b60405161ffff9091168152602001610359565b34801561087757600080fd5b5061034f60d65481565b34801561088d57600080fd5b5060db5461089b9060ff1681565b6040519015158152602001610359565b3480156108b757600080fd5b5061038d6108c636600461358b565b611ae9565b3480156108d757600080fd5b5061034f6108e636600461358b565b600090815260d3602052604090205490565b34801561090457600080fd5b5061038d611af6565b34801561091957600080fd5b5061038d610928366004613965565b611c2c565b34801561093957600080fd5b5061034f61094836600461358b565b60d16020526000908152604090205481565b34801561096657600080fd5b5061097a61097536600461358b565b611c47565b604051610359929190613987565b34801561099457600080fd5b5061034f61271081565b3480156109aa57600080fd5b5061038d6109b936600461363f565b611d21565b3480156109ca57600080fd5b5061038d6109d936600461393f565b611dae565b3480156109ea57600080fd5b5061034f60da5481565b348015610a0057600080fd5b5061038d610a0f36600461363f565b611e38565b348015610a2057600080fd5b5061034f60cd5481565b610a32611e6f565b60d65480610a875760405162461bcd60e51b815260206004820152600d60248201527f4e6f206f776e657220666565730000000000000000000000000000000000000060448201526064015b60405180910390fd5b600060d68190556033546040516001600160a01b039091169083908381818185875af1925050503d8060008114610ada576040519150601f19603f3d011682016040523d82523d6000602084013e610adf565b606091505b5050905080610b305760405162461bcd60e51b815260206004820152601960248201527f4f776e657220666565207472616e73666572206661696c6564000000000000006044820152606401610a7e565b6033546001600160a01b03166001600160a01b03167f8c86225979e924f39334c49a16a32e53ca5ffe7a271a6793b57476cd62749d0583604051610b7691815260200190565b60405180910390a25050565b610b8a611e6f565b60008111610bda5760405162461bcd60e51b815260206004820152601160248201527f5072696365206d757374206265203e20300000000000000000000000000000006044820152606401610a7e565b60d955565b60c9546001600160a01b03163314610c395760405162461bcd60e51b815260206004820152601c60248201527f4f6e6c7920636f6f7264696e61746f722063616e2066756c66696c6c000000006044820152606401610a7e565b600083815260d0602052604090205460ff16610c975760405162461bcd60e51b815260206004820152601160248201527f52657175657374206e6f7420666f756e640000000000000000000000000000006044820152606401610a7e565b600083815260d060205260409020805461ff001916610100178155610cc09060010183836133d3565b50610ccd60ce83836133d3565b50600083815260d1602052604081205490819003610d2d5760405162461bcd60e51b815260206004820152601060248201527f526f756e64206e6f74206c696e6b6564000000000000000000000000000000006044820152606401610a7e565b610d378383611ec9565b610d459060cf90600761341e565b50600081815260d460205260409020610d619060cf60076134ac565b507ffe2e2d779dba245964d4e3ef9b994be63856fd568bf7d3ca9e224755cb1bd54d848484604051610d95939291906139a2565b60405180910390a17f65a3cadf20a29471ee7bc9e1bf93b5f513a619fcfffc0bcab66d7cbae1045cb1848260cf604051610dd1939291906139fb565b60405180910390a16040805160e0810191829052610e2f9183919060cf90600790826000855b825461010083900a900460ff16815260206001928301818104948501949093039092029101808411610df7579050505050505061200c565b50505050565b6001600160a01b037f0000000000000000000000000000000000000000000000000000000000000000163003610ec25760405162461bcd60e51b815260206004820152602c60248201527f46756e6374696f6e206d7573742062652063616c6c6564207468726f7567682060448201526b19195b1959d85d1958d85b1b60a21b6064820152608401610a7e565b7f00000000000000000000000000000000000000000000000000000000000000006001600160a01b0316610f1d7f360894a13ba1a3210667c828492db98dca3e2076cc3735a920a3ca505d382bbc546001600160a01b031690565b6001600160a01b031614610f885760405162461bcd60e51b815260206004820152602c60248201527f46756e6374696f6e206d7573742062652063616c6c6564207468726f7567682060448201526b6163746976652070726f787960a01b6064820152608401610a7e565b610f91816125ee565b60408051600080825260208201909252610fad918391906125f6565b50565b610fb8611e6f565b600081116110085760405162461bcd60e51b815260206004820152601460248201527f4475726174696f6e206d757374206265203e20300000000000000000000000006044820152606401610a7e565b60da55565b60d954341461105e5760405162461bcd60e51b815260206004820152601360248201527f496e636f727265637420656e74727920666565000000000000000000000000006044820152606401610a7e565b6110678161279b565b60d854600090815260d260205260409020805460ff166110bb5760405162461bcd60e51b815260206004820152600f60248201526e139bc81858dd1a5d99481c9bdd5b99608a1b6044820152606401610a7e565b8054610100900460ff16156111125760405162461bcd60e51b815260206004820152601660248201527f4472617720616c726561647920726571756573746564000000000000000000006044820152606401610a7e565b806002015442106111655760405162461bcd60e51b815260206004820152600d60248201527f526f756e642065787069726564000000000000000000000000000000000000006044820152606401610a7e565b348160030160008282546111799190613aa0565b909155505060d854600090815260d36020908152604091829020825160a081018452338152835160e0818101909552919390928301919086906007908390839080828437600092018290525092845250506020808301829052604083018290526060909201819052835460018082018655948252908290208351600490920201805473ffffffffffffffffffffffffffffffffffffffff19166001600160a01b03909216919091178155908201519192909161123991830190600761341e565b50604082810151600283018054606086015160ff166101000261ff00199315159390931661ffff199091161791909117905560809092015160039091015560d854600081815260d360205291909120543391907f72c7c6a525d2c132932b4fc43ae4bb642b552692d21f5bedeb662e34b564e8e8906112ba90600190613ab3565b856040516112c9929190613ad7565b60405180910390a35050565b606060ce80548060200260200160405190810160405280929190818152602001828054801561132357602002820191906000526020600020905b81548152602001906001019080831161130f575b5050505050905090565b600061133b8284018461358b565b60d854600081815260d260205260409020919250821461139d5760405162461bcd60e51b815260206004820152600c60248201527f5374616c652075706b65657000000000000000000000000000000000000000006044820152606401610a7e565b805460ff166113e05760405162461bcd60e51b815260206004820152600f60248201526e139bc81858dd1a5d99481c9bdd5b99608a1b6044820152606401610a7e565b8054610100900460ff16156114375760405162461bcd60e51b815260206004820152601660248201527f4472617720616c726561647920726571756573746564000000000000000000006044820152606401610a7e565b806002015442101561148b5760405162461bcd60e51b815260206004820152601260248201527f526f756e64207374696c6c2061637469766500000000000000000000000000006044820152606401610a7e565b60d854600090815260d3602052604081205490036114ab57610e2f61293d565b6114b3612ab0565b5050505050565b600054600290610100900460ff161580156114dc575060005460ff8083169116105b61154e5760405162461bcd60e51b815260206004820152602e60248201527f496e697469616c697a61626c653a20636f6e747261637420697320616c72656160448201527f647920696e697469616c697a65640000000000000000000000000000000000006064820152608401610a7e565b6000805461ffff191660ff83161761010017905561156a612ccb565b655af3107a400060d95561012c60da5560db805460ff191690556000805461ff001916905560405160ff821681527f7f26b83ff96e1f2b6a682f133852f6798a09c465da95921460cefb38474024989060200160405180910390a150565b60cf81600781106115d857600080fd5b60209182820401919006915054906101000a900460ff1681565b6001600160a01b037f000000000000000000000000000000000000000000000000000000000000000016300361167f5760405162461bcd60e51b815260206004820152602c60248201527f46756e6374696f6e206d7573742062652063616c6c6564207468726f7567682060448201526b19195b1959d85d1958d85b1b60a21b6064820152608401610a7e565b7f00000000000000000000000000000000000000000000000000000000000000006001600160a01b03166116da7f360894a13ba1a3210667c828492db98dca3e2076cc3735a920a3ca505d382bbc546001600160a01b031690565b6001600160a01b0316146117455760405162461bcd60e51b815260206004820152602c60248201527f46756e6374696f6e206d7573742062652063616c6c6564207468726f7567682060448201526b6163746976652070726f787960a01b6064820152608401610a7e565b61174e826125ee565b61175a828260016125f6565b5050565b6000306001600160a01b037f000000000000000000000000000000000000000000000000000000000000000016146117fe5760405162461bcd60e51b815260206004820152603860248201527f555550535570677261646561626c653a206d757374206e6f742062652063616c60448201527f6c6564207468726f7567682064656c656761746563616c6c00000000000000006064820152608401610a7e565b507f360894a13ba1a3210667c828492db98dca3e2076cc3735a920a3ca505d382bbc90565b61182b6134df565b600082815260d46020526040808220815160e08101928390529290916007918390855b825461010083900a900460ff1681526020600192830181810494850194909303909202910180841161184e575094979650505050505050565b60d854600090815260d26020526040812080546060919060ff1680156118b457508054610100900460ff16155b80156118c4575080600201544210155b925060d8546040516020016118db91815260200190565b6040516020818303038152906040529150509250929050565b6118fc611e6f565b6119066000612d4d565b565b60d4602052816000526040600020816007811061192457600080fd5b602081049091015460ff601f9092166101000a9004169150829050565b6119496134df565b6040805160e08101918290529060cf90600790826000855b825461010083900a900460ff168152602060019283018181049485019490930390920291018084116119615790505050505050905090565b6119a1611e6f565b60cc805461ffff9092166401000000000265ffff0000000019909216919091179055565b60ce81815481106119d557600080fd5b600091825260209091200154905081565b6119ee611e6f565b60cb55565b60006119fd6134df565b60008060008060d360008981526020019081526020016000208781548110611a2757611a27613b1a565b6000918252602082206004909102018054600282015460038301546040805160e08101918290529496506001600160a01b0390931694600187019460ff808516956101009095041693909186916007918390855b825461010083900a900460ff16815260206001928301818104948501949093039092029101808411611a7b5790505050505050935095509550955095509550509295509295909350565b611acd611e6f565b60cc805463ffffffff191663ffffffff92909216919091179055565b611af1611e6f565b60ca55565b33600090815260d5602052604090205480611b535760405162461bcd60e51b815260206004820152601360248201527f4e6f2072657761726420617661696c61626c65000000000000000000000000006044820152606401610a7e565b33600081815260d560205260408082208290555190919083908381818185875af1925050503d8060008114611ba4576040519150601f19603f3d011682016040523d82523d6000602084013e611ba9565b606091505b5050905080611bfa5760405162461bcd60e51b815260206004820152601660248201527f526577617264207472616e73666572206661696c6564000000000000000000006044820152606401610a7e565b60405182815233907f1d3eee4ca001cff39eec6ec7615aacf2f2bd61791273830728ba00ccbd6e133790602001610b76565b611c34611e6f565b60db805460ff1916911515919091179055565b600081815260d0602052604081205460609060ff16611ca85760405162461bcd60e51b815260206004820152601160248201527f52657175657374206e6f7420666f756e640000000000000000000000000000006044820152606401610a7e565b600083815260d060209081526040918290208054600182018054855181860281018601909652808652929461010090920460ff169390928391830182828015611d1057602002820191906000526020600020905b815481526020019060010190808311611cfc575b505050505090509250925050915091565b611d29611e6f565b6001600160a01b038116611da55760405162461bcd60e51b815260206004820152602660248201527f4f776e61626c653a206e6577206f776e657220697320746865207a65726f206160448201527f64647265737300000000000000000000000000000000000000000000000000006064820152608401610a7e565b610fad81612d4d565b611db6611e6f565b60008163ffffffff1611611e0c5760405162461bcd60e51b815260206004820152601460248201527f6e756d576f726473206d757374206265203e20300000000000000000000000006044820152606401610a7e565b60cc805463ffffffff90921666010000000000000269ffffffff00000000000019909216919091179055565b611e40611e6f565b60c9805473ffffffffffffffffffffffffffffffffffffffff19166001600160a01b0392909216919091179055565b6033546001600160a01b031633146119065760405162461bcd60e51b815260206004820181905260248201527f4f776e61626c653a2063616c6c6572206973206e6f7420746865206f776e65726044820152606401610a7e565b611ed16134df565b611ed96134fd565b6000805b6007821015611ff95760005b8581108015611ef85750600783105b15611ff35760006031888884818110611f1357611f13613b1a565b9050602002013584604051602001611f35929190918252602082015260400190565b6040516020818303038152906040528051906020012060001c611f589190613b46565b611f63906001613aa0565b9050848160ff1660328110611f7a57611f7a613b1a565b6020020151611fd2576001858260ff1660328110611f9a57611f9a613b1a565b9115156020909202015280868560078110611fb757611fb7613b1a565b60ff909216602092909202015283611fce81613b5a565b9450505b82611fdc81613b5a565b935050508080611feb90613b5a565b915050611ee9565b50611edd565b61200284612dac565b5050505b92915050565b600082815260d260205260409020805460ff1661206b5760405162461bcd60e51b815260206004820152601060248201527f526f756e64206e6f7420616374697665000000000000000000000000000000006044820152606401610a7e565b8054610100900460ff166120c15760405162461bcd60e51b815260206004820152601260248201527f44726177206e6f742072657175657374656400000000000000000000000000006044820152606401610a7e565b805462010000900460ff16156121195760405162461bcd60e51b815260206004820152601560248201527f526f756e6420616c726561647920736574746c656400000000000000000000006044820152606401610a7e565b600083815260d360205260409020805461213161351c565b60005b828110156122375760006121b685838154811061215357612153613b1a565b6000918252602082206040805160e081019182905293600490930290910160010191600791908390855b825461010083900a900460ff1681526020600192830181810494850194909303909202910180841161217d579050505050505088612ea3565b9050808583815481106121cb576121cb613b1a565b600091825260209091206004909102016002908101805461ff00191661010060ff948516021790559082161061222457828160ff166008811061221057612210613b1a565b6020020180519061222082613b5a565b9052505b508061222f81613b5a565b915050612134565b5060006127106103e8866003015461224f9190613b73565b6122599190613b8a565b9050600081866003015461226d9190613ab3565b9050600061227961351c565b6064612286846005613b73565b6122909190613b8a565b604082015260646122a284600a613b73565b6122ac9190613b8a565b606082015260646122be84600f613b73565b6122c89190613b8a565b608082015260646122da846014613b73565b6122e49190613b8a565b60a082015260646122f6846014613b73565b6123009190613b8a565b60c0820152606461231284601e613b73565b61231c9190613b8a565b60e082015261232961351c565b60025b60078160ff16116123ef576000878260ff166008811061234e5761234e613b1a565b602002015111156123b657868160ff166008811061236e5761236e613b1a565b6020020151838260ff166008811061238857612388613b1a565b60200201516123979190613b8a565b828260ff16600881106123ac576123ac613b1a565b60200201526123dd565b828160ff16600881106123cb576123cb613b1a565b60200201516123da9085613aa0565b93505b806123e781613b9e565b91505061232c565b5060005b8781101561255b57600089828154811061240f5761240f613b1a565b60009182526020909120600260049092020181015460ff6101009091041691508110612548576000838260ff166008811061244c5761244c613b1a565b60200201519050808b848154811061246657612466613b1a565b9060005260206000209060040201600301819055508060d560008d868154811061249257612492613b1a565b600091825260208083206004909202909101546001600160a01b03168352820192909252604001812080549091906124cb908490613aa0565b925050819055508a83815481106124e4576124e4613b1a565b6000918252602091829020600490910201546040805186815260ff86169381019390935282018390526001600160a01b0316908f907faf8d69c5bf84763f900b51e0405fdc2ad4eaf8b44698617a07ae9c31bc41204c9060600160405180910390a3505b508061255381613b5a565b9150506123f3565b508460d6600082825461256e9190613aa0565b925050819055508260d760008282546125879190613aa0565b9091555050885462ff00ff1916620100001789556040518b907fb8ca8b8466fca767994635dc37682d654da89bf89d11de69e1025ccdb2cdfee5906125d1908d9089908890613bbd565b60405180910390a26125e1612f22565b5050505050505050505050565b610fad611e6f565b7f4910fdfa16fed3260ed0e7147f7cc6da11a60208b5b9406d12a635614ffd91435460ff161561262e57612629836130b6565b505050565b826001600160a01b03166352d1902d6040518163ffffffff1660e01b8152600401602060405180830381865afa925050508015612688575060408051601f3d908101601f1916820190925261268591810190613bde565b60015b6126fa5760405162461bcd60e51b815260206004820152602e60248201527f45524331393637557067726164653a206e657720696d706c656d656e7461746960448201527f6f6e206973206e6f7420555550530000000000000000000000000000000000006064820152608401610a7e565b7f360894a13ba1a3210667c828492db98dca3e2076cc3735a920a3ca505d382bbc811461278f5760405162461bcd60e51b815260206004820152602960248201527f45524331393637557067726164653a20756e737570706f727465642070726f7860448201527f6961626c655555494400000000000000000000000000000000000000000000006064820152608401610a7e565b50612629838383613181565b6127a36134fd565b60005b60078110156126295760018382600781106127c3576127c3613b1a565b6020020160208101906127d69190613bf7565b60ff161015801561280f575060318382600781106127f6576127f6613b1a565b6020020160208101906128099190613bf7565b60ff1611155b61285b5760405162461bcd60e51b815260206004820152601360248201527f4e756d626572206f7574206f662072616e6765000000000000000000000000006044820152606401610a7e565b8183826007811061286e5761286e613b1a565b6020020160208101906128819190613bf7565b60ff166032811061289457612894613b1a565b6020020151156128e65760405162461bcd60e51b815260206004820152601c60248201527f4475706c6963617465206e756d626572206e6f7420616c6c6f776564000000006044820152606401610a7e565b6001828483600781106128fb576128fb613b1a565b60200201602081019061290e9190613bf7565b60ff166032811061292157612921613b1a565b911515602090920201528061293581613b5a565b9150506127a6565b60d854600090815260d260205260409020805460ff166129915760405162461bcd60e51b815260206004820152600f60248201526e139bc81858dd1a5d99481c9bdd5b99608a1b6044820152606401610a7e565b8054610100900460ff16156129e85760405162461bcd60e51b815260206004820152601660248201527f4472617720616c726561647920726571756573746564000000000000000000006044820152606401610a7e565b8060020154421015612a3c5760405162461bcd60e51b815260206004820152601260248201527f526f756e64207374696c6c2061637469766500000000000000000000000000006044820152606401610a7e565b806003015460d76000828254612a529190613aa0565b9091555050805462ff00ff19166201000017815560d85460038201546040517f3fd1c85cda6246c06e5680d9888d379fe80d0234f53064ba2f3e3ef7698dfd4b91612aa09190815260200190565b60405180910390a2610fad612f22565b60d854600090815260d26020908152604080832060c954825160c08101845260cb54815260ca548186015260cc5461ffff6401000000008204168286015263ffffffff80821660608401526601000000000000909104166080820152835194850190935260db5460ff161515845290926001600160a01b0390911691639b1c385e9160a0820190612b40906131a6565b8152506040518263ffffffff1660e01b8152600401612b5f9190613c12565b6020604051808303816000875af1158015612b7e573d6000803e3d6000fd5b505050506040513d601f19601f82011682018060405250810190612ba29190613bde565b604080516060810182526001808252600060208084018281528551838152808301875285870190815287845260d083529590922084518154935161ffff1990941690151561ff00191617610100931515939093029290921782559351805195975092949093612c169392850192019061353b565b505060d854600084815260d160209081526040918290209290925560cd859055835461010061ff001990911617845560cc548151868152660100000000000090910463ffffffff16928101929092527fcc58b13ad3eab50626c6a6300b1d139cd6ebb1688a7cced9461c2f7e762665ee92500160405180910390a160d8546040518381527fc67dda8e11f1aa941c7e74466b1859a07a32f46aaf641d29b83be348424d93cd9060200160405180910390a25090565b600054610100900460ff16612d485760405162461bcd60e51b815260206004820152602b60248201527f496e697469616c697a61626c653a20636f6e7472616374206973206e6f74206960448201527f6e697469616c697a696e670000000000000000000000000000000000000000006064820152608401610a7e565b611906335b603380546001600160a01b0383811673ffffffffffffffffffffffffffffffffffffffff19831681179093556040519116919082907f8be0079c531659141344cd1fd0a4f28419497f9722a3daafe3b4186f6b6457e090600090a35050565b60005b600781101561175a576000612dc5826001613aa0565b90505b6007811015612e9057828260078110612de357612de3613b1a565b602002015160ff16838260078110612dfd57612dfd613b1a565b602002015160ff161015612e7e576000838360078110612e1f57612e1f613b1a565b60200201519050838260078110612e3857612e38613b1a565b6020020151848460078110612e4f57612e4f613b1a565b60ff909216602092909202015280848360078110612e6f57612e6f613b1a565b60ff9092166020929092020152505b80612e8881613b5a565b915050612dc8565b5080612e9b81613b5a565b915050612daf565b6000805b60078160ff161015612f1b57828160ff1660078110612ec857612ec8613b1a565b602002015160ff16848260ff1660078110612ee557612ee5613b1a565b602002015160ff1603612f045781612efc81613b9e565b925050612f09565b612f1b565b80612f1381613b9e565b915050612ea7565b5092915050565b60d8541580612f43575060d854600090815260d2602052604090205460ff16155b612f8f5760405162461bcd60e51b815260206004820152601a60248201527f43757272656e7420726f756e64207374696c6c206163746976650000000000006044820152606401610a7e565b60d88054906000612f9f83613b5a565b91905055506040518060c0016040528060011515815260200160001515815260200160001515815260200142815260200160da5442612fde9190613aa0565b815260d75460209182015260d88054600090815260d283526040908190208451815494860151928601511515620100000262ff0000199315156101000261ff00199215159290921661ffff19909616959095171791909116929092178255606083015160018301556080830151600283015560a0909201516003909101555460da547ffd9d17e5565deea3d25918d95fc398673b9445ef0a96d12eaf3ab2b198756c6590429061308e9082613aa0565b60d7546040805193845260208401929092529082015260600160405180910390a2600060d755565b6001600160a01b0381163b6131335760405162461bcd60e51b815260206004820152602d60248201527f455243313936373a206e657720696d706c656d656e746174696f6e206973206e60448201527f6f74206120636f6e7472616374000000000000000000000000000000000000006064820152608401610a7e565b7f360894a13ba1a3210667c828492db98dca3e2076cc3735a920a3ca505d382bbc805473ffffffffffffffffffffffffffffffffffffffff19166001600160a01b0392909216919091179055565b61318a83613244565b6000825111806131975750805b1561262957610e2f8383613284565b60607f92fd13387c7fe7befbc38d303d6468778fb9731bc4583f17d92989c6fcfdeaaa826040516024016131df91511515815260200190565b60408051601f198184030181529190526020810180517bffffffffffffffffffffffffffffffffffffffffffffffffffffffff167fffffffff000000000000000000000000000000000000000000000000000000009093169290921790915292915050565b61324d816130b6565b6040516001600160a01b038216907fbc7cd75a20ee27fd9adebab32041f755214dbc6bffa90cc0225b39da2e5c2d3b90600090a250565b60606132a98383604051806060016040528060278152602001613c9f602791396132b0565b9392505050565b6060600080856001600160a01b0316856040516132cd9190613c6f565b600060405180830381855af49150503d8060008114613308576040519150601f19603f3d011682016040523d82523d6000602084013e61330d565b606091505b509150915061331e86838387613328565b9695505050505050565b60608315613397578251600003613390576001600160a01b0385163b6133905760405162461bcd60e51b815260206004820152601d60248201527f416464726573733a2063616c6c20746f206e6f6e2d636f6e74726163740000006044820152606401610a7e565b50816133a1565b6133a183836133a9565b949350505050565b8151156133b95781518083602001fd5b8060405162461bcd60e51b8152600401610a7e9190613c8b565b82805482825590600052602060002090810192821561340e579160200282015b8281111561340e5782358255916020019190600101906133f3565b5061341a929150613576565b5090565b60018301918390821561340e5791602002820160005b8382111561347257835183826101000a81548160ff021916908360ff1602179055509260200192600101602081600001049283019260010302613434565b801561349f5782816101000a81549060ff0219169055600101602081600001049283019260010302613472565b505061341a929150613576565b60018301918390821561340e5791601f016020900482015b8281111561340e5782548255916001019190600101906134c4565b6040518060e001604052806007906020820280368337509192915050565b6040518061064001604052806032906020820280368337509192915050565b6040518061010001604052806008906020820280368337509192915050565b82805482825590600052602060002090810192821561340e579160200282015b8281111561340e57825182559160200191906001019061355b565b5b8082111561341a5760008155600101613577565b60006020828403121561359d57600080fd5b5035919050565b6000806000604084860312156135b957600080fd5b83359250602084013567ffffffffffffffff808211156135d857600080fd5b818601915086601f8301126135ec57600080fd5b8135818111156135fb57600080fd5b8760208260051b850101111561361057600080fd5b6020830194508093505050509250925092565b80356001600160a01b038116811461363a57600080fd5b919050565b60006020828403121561365157600080fd5b6132a982613623565b600060e0828403121561366c57600080fd5b8260e08301111561367c57600080fd5b50919050565b600081518084526020808501945080840160005b838110156136b257815187529582019590820190600101613696565b509495945050505050565b6020815260006132a96020830184613682565b600080602083850312156136e357600080fd5b823567ffffffffffffffff808211156136fb57600080fd5b818501915085601f83011261370f57600080fd5b81358181111561371e57600080fd5b86602082850101111561373057600080fd5b60209290920196919550909350505050565b634e487b7160e01b600052604160045260246000fd5b6000806040838503121561376b57600080fd5b61377483613623565b9150602083013567ffffffffffffffff8082111561379157600080fd5b818501915085601f8301126137a557600080fd5b8135818111156137b7576137b7613742565b604051601f8201601f19908116603f011681019083821181831017156137df576137df613742565b816040528281528860208487010111156137f857600080fd5b8260208601602083013760006020848301015280955050505050509250929050565b8060005b6007811015610e2f57815160ff1684526020938401939091019060010161381e565b60e08101612006828461381a565b60005b83811015613869578181015183820152602001613851565b50506000910152565b6000815180845261388a81602086016020860161384e565b601f01601f19169290920160200192915050565b82151581526040602082015260006133a16040830184613872565b600080604083850312156138cc57600080fd5b50508035926020909101359150565b6000602082840312156138ed57600080fd5b813561ffff811681146132a957600080fd5b6001600160a01b0386168152610160810161391d602083018761381a565b93151561010082015260ff929092166101208301526101409091015292915050565b60006020828403121561395157600080fd5b813563ffffffff811681146132a957600080fd5b60006020828403121561397757600080fd5b813580151581146132a957600080fd5b82151581526040602082015260006133a16040830184613682565b8381526040602082015281604082015260007f07ffffffffffffffffffffffffffffffffffffffffffffffffffffffffffffff8311156139e157600080fd5b8260051b8085606085013791909101606001949350505050565b600061012082019050848252836020830152825460ff8082166040850152808260081c166060850152808260101c166080850152613a4360a08501828460181c1660ff169052565b613a5760c08501828460201c1660ff169052565b613a6b60e08501828460281c1660ff169052565b613a806101008501828460301c1660ff169052565b5050949350505050565b634e487b7160e01b600052601160045260246000fd5b8082018082111561200657612006613a8a565b8181038181111561200657612006613a8a565b803560ff8116811461363a57600080fd5b828152610100810160208083018460005b6007811015613b0f5760ff613afc83613ac6565b1683529183019190830190600101613ae8565b505050509392505050565b634e487b7160e01b600052603260045260246000fd5b634e487b7160e01b600052601260045260246000fd5b600082613b5557613b55613b30565b500690565b600060018201613b6c57613b6c613a8a565b5060010190565b808202811582820484141761200657612006613a8a565b600082613b9957613b99613b30565b500490565b600060ff821660ff8103613bb457613bb4613a8a565b60010192915050565b6101208101613bcc828661381a565b60e08201939093526101000152919050565b600060208284031215613bf057600080fd5b5051919050565b600060208284031215613c0957600080fd5b6132a982613ac6565b60208152815160208201526020820151604082015261ffff60408301511660608201526000606083015163ffffffff80821660808501528060808601511660a0850152505060a083015160c0808401526133a160e0840182613872565b60008251613c8181846020870161384e565b9190910192915050565b6020815260006132a9602083018461387256fe416464726573733a206c6f772d6c6576656c2064656c65676174652063616c6c206661696c6564a2646970667358221220cc04bc616b7f915a63127f10010dd08b7519f704a6a4c593e558bd4767a4e9d964736f6c63430008140033","opcodes":"PUSH1 0xA0 PUSH1 0x40 MSTORE ADDRESS PUSH1 0x80 MSTORE CALLVALUE DUP1 ISZERO PUSH3 0x15 JUMPI PUSH1 0x0 DUP1 REVERT JUMPDEST POP PUSH3 0x20 PUSH3 0x26 JUMP JUMPDEST PUSH3 0xE7 JUMP JUMPDEST PUSH1 0x0 SLOAD PUSH2 0x100 SWAP1 DIV PUSH1 0xFF AND ISZERO PUSH3 0x93 JUMPI PUSH1 0x40 MLOAD PUSH3 0x461BCD PUSH1 0xE5 SHL DUP2 MSTORE PUSH1 0x20 PUSH1 0x4 DUP3 ADD MSTORE PUSH1 0x27 PUSH1 0x24 DUP3 ADD MSTORE PUSH32 0x496E697469616C697A61626C653A20636F6E747261637420697320696E697469 PUSH1 0x44 DUP3 ADD MSTORE PUSH7 0x616C697A696E67 PUSH1 0xC8 SHL PUSH1 0x64 DUP3 ADD MSTORE PUSH1 0x84 ADD PUSH1 0x40 MLOAD DUP1 SWAP2 SUB SWAP1 REVERT JUMPDEST PUSH1 0x0 SLOAD PUSH1 0xFF SWAP1 DUP2 AND EQ PUSH3 0xE5 JUMPI PUSH1 0x0 DUP1 SLOAD PUSH1 0xFF NOT AND PUSH1 0xFF SWAP1 DUP2 OR SWAP1 SWAP2 SSTORE PUSH1 0x40 MLOAD SWAP1 DUP2 MSTORE PUSH32 0x7F26B83FF96E1F2B6A682F133852F6798A09C465DA95921460CEFB3847402498 SWAP1 PUSH1 0x20 ADD PUSH1 0x40 MLOAD DUP1 SWAP2 SUB SWAP1 LOG1 JUMPDEST JUMP JUMPDEST PUSH1 0x80 MLOAD PUSH2 0x3CFB PUSH3 0x11F PUSH1 0x0 CODECOPY PUSH1 0x0 DUP2 DUP2 PUSH2 0xE3F ADD MSTORE DUP2 DUP2 PUSH2 0xEC4 ADD MSTORE DUP2 DUP2 PUSH2 0x15FC ADD MSTORE DUP2 DUP2 PUSH2 0x1681 ADD MSTORE PUSH2 0x176B ADD MSTORE PUSH2 0x3CFB PUSH1 0x0 RETURN INVALID PUSH1 0x80 PUSH1 0x40 MSTORE PUSH1 0x4 CALLDATASIZE LT PUSH2 0x32D JUMPI PUSH1 0x0 CALLDATALOAD PUSH1 0xE0 SHR DUP1 PUSH4 0x84350E1D GT PUSH2 0x1A5 JUMPI DUP1 PUSH4 0xB368BA42 GT PUSH2 0xEC JUMPI DUP1 PUSH4 0xD8A4676F GT PUSH2 0x95 JUMPI DUP1 PUSH4 0xF30C07D3 GT PUSH2 0x6F JUMPI DUP1 PUSH4 0xF30C07D3 EQ PUSH2 0x9BE JUMPI DUP1 PUSH4 0xF7CB789A EQ PUSH2 0x9DE JUMPI DUP1 PUSH4 0xF9F94E34 EQ PUSH2 0x9F4 JUMPI DUP1 PUSH4 0xFC2A88C3 EQ PUSH2 0xA14 JUMPI PUSH1 0x0 DUP1 REVERT JUMPDEST DUP1 PUSH4 0xD8A4676F EQ PUSH2 0x95A JUMPI DUP1 PUSH4 0xE1A45218 EQ PUSH2 0x988 JUMPI DUP1 PUSH4 0xF2FDE38B EQ PUSH2 0x99E JUMPI PUSH1 0x0 DUP1 REVERT JUMPDEST DUP1 PUSH4 0xC885BC58 GT PUSH2 0xC6 JUMPI DUP1 PUSH4 0xC885BC58 EQ PUSH2 0x8F8 JUMPI DUP1 PUSH4 0xC88E1561 EQ PUSH2 0x90D JUMPI DUP1 PUSH4 0xD88D27D6 EQ PUSH2 0x92D JUMPI PUSH1 0x0 DUP1 REVERT JUMPDEST DUP1 PUSH4 0xB368BA42 EQ PUSH2 0x881 JUMPI DUP1 PUSH4 0xC1E0D236 EQ PUSH2 0x8AB JUMPI DUP1 PUSH4 0xC4289070 EQ PUSH2 0x8CB JUMPI PUSH1 0x0 DUP1 REVERT JUMPDEST DUP1 PUSH4 0x9CBE5EFD GT PUSH2 0x14E JUMPI DUP1 PUSH4 0xA4EB718C GT PUSH2 0x128 JUMPI DUP1 PUSH4 0xA4EB718C EQ PUSH2 0x815 JUMPI DUP1 PUSH4 0xB0FB162F EQ PUSH2 0x835 JUMPI DUP1 PUSH4 0xB28F6EF1 EQ PUSH2 0x86B JUMPI PUSH1 0x0 DUP1 REVERT JUMPDEST DUP1 PUSH4 0x9CBE5EFD EQ PUSH2 0x7AE JUMPI DUP1 PUSH4 0x9ECCACF6 EQ PUSH2 0x7C4 JUMPI DUP1 PUSH4 0xA426E4C8 EQ PUSH2 0x7E4 JUMPI PUSH1 0x0 DUP1 REVERT JUMPDEST DUP1 PUSH4 0x8DA5CB5B GT PUSH2 0x17F JUMPI DUP1 PUSH4 0x8DA5CB5B EQ PUSH2 0x73C JUMPI DUP1 PUSH4 0x900FC869 EQ PUSH2 0x76E JUMPI DUP1 PUSH4 0x98544710 EQ PUSH2 0x78E JUMPI PUSH1 0x0 DUP1 REVERT JUMPDEST DUP1 PUSH4 0x84350E1D EQ PUSH2 0x67B JUMPI DUP1 PUSH4 0x8824F5A7 EQ PUSH2 0x690 JUMPI DUP1 PUSH4 0x8C65C81F EQ PUSH2 0x6B0 JUMPI PUSH1 0x0 DUP1 REVERT JUMPDEST DUP1 PUSH4 0x3C51C7BB GT PUSH2 0x274 JUMPI DUP1 PUSH4 0x61728F39 GT PUSH2 0x21D JUMPI DUP1 PUSH4 0x715018A6 GT PUSH2 0x1F7 JUMPI DUP1 PUSH4 0x715018A6 EQ PUSH2 0x5CF JUMPI DUP1 PUSH4 0x7CCFD7FC EQ PUSH2 0x5E4 JUMPI DUP1 PUSH4 0x81D12C58 EQ PUSH2 0x60B JUMPI DUP1 PUSH4 0x82FBC5C2 EQ PUSH2 0x65B JUMPI PUSH1 0x0 DUP1 REVERT JUMPDEST DUP1 PUSH4 0x61728F39 EQ PUSH2 0x55E JUMPI DUP1 PUSH4 0x64069E71 EQ PUSH2 0x574 JUMPI DUP1 PUSH4 0x6E04FF0D EQ PUSH2 0x5A1 JUMPI PUSH1 0x0 DUP1 REVERT JUMPDEST DUP1 PUSH4 0x4E45F095 GT PUSH2 0x24E JUMPI DUP1 PUSH4 0x4E45F095 EQ PUSH2 0x504 JUMPI DUP1 PUSH4 0x4F1EF286 EQ PUSH2 0x536 JUMPI DUP1 PUSH4 0x52D1902D EQ PUSH2 0x549 JUMPI PUSH1 0x0 DUP1 REVERT JUMPDEST DUP1 PUSH4 0x3C51C7BB EQ PUSH2 0x4B9 JUMPI DUP1 PUSH4 0x4585E33B EQ PUSH2 0x4CF JUMPI DUP1 PUSH4 0x472ABF68 EQ PUSH2 0x4EF JUMPI PUSH1 0x0 DUP1 REVERT JUMPDEST DUP1 PUSH4 0x25C5D34A GT PUSH2 0x2D6 JUMPI DUP1 PUSH4 0x36C92C3F GT PUSH2 0x2B0 JUMPI DUP1 PUSH4 0x36C92C3F EQ PUSH2 0x464 JUMPI DUP1 PUSH4 0x39E7397B EQ PUSH2 0x484 JUMPI DUP1 PUSH4 0x3C256B24 EQ PUSH2 0x497 JUMPI PUSH1 0x0 DUP1 REVERT JUMPDEST DUP1 PUSH4 0x25C5D34A EQ PUSH2 0x401 JUMPI DUP1 PUSH4 0x31D7A262 EQ PUSH2 0x417 JUMPI DUP1 PUSH4 0x3659CFE6 EQ PUSH2 0x444 JUMPI PUSH1 0x0 DUP1 REVERT JUMPDEST DUP1 PUSH4 0x15981650 GT PUSH2 0x307 JUMPI DUP1 PUSH4 0x15981650 EQ PUSH2 0x38F JUMPI DUP1 PUSH4 0x1FE543E3 EQ PUSH2 0x3AF JUMPI DUP1 PUSH4 0x24F74697 EQ PUSH2 0x3CF JUMPI PUSH1 0x0 DUP1 REVERT JUMPDEST DUP1 PUSH4 0x72EA61C EQ PUSH2 0x339 JUMPI DUP1 PUSH4 0x9C1BA2E EQ PUSH2 0x362 JUMPI DUP1 PUSH4 0xA9EF34C EQ PUSH2 0x378 JUMPI PUSH1 0x0 DUP1 REVERT JUMPDEST CALLDATASIZE PUSH2 0x334 JUMPI STOP JUMPDEST PUSH1 0x0 DUP1 REVERT JUMPDEST CALLVALUE DUP1 ISZERO PUSH2 0x345 JUMPI PUSH1 0x0 DUP1 REVERT JUMPDEST POP PUSH2 0x34F PUSH1 0xD9 SLOAD DUP2 JUMP JUMPDEST PUSH1 0x40 MLOAD SWAP1 DUP2 MSTORE PUSH1 0x20 ADD JUMPDEST PUSH1 0x40 MLOAD DUP1 SWAP2 SUB SWAP1 RETURN JUMPDEST CALLVALUE DUP1 ISZERO PUSH2 0x36E JUMPI PUSH1 0x0 DUP1 REVERT JUMPDEST POP PUSH2 0x34F PUSH1 0xCA SLOAD DUP2 JUMP JUMPDEST CALLVALUE DUP1 ISZERO PUSH2 0x384 JUMPI PUSH1 0x0 DUP1 REVERT JUMPDEST POP PUSH2 0x38D PUSH2 0xA2A JUMP JUMPDEST STOP JUMPDEST CALLVALUE DUP1 ISZERO PUSH2 0x39B JUMPI PUSH1 0x0 DUP1 REVERT JUMPDEST POP PUSH2 0x38D PUSH2 0x3AA CALLDATASIZE PUSH1 0x4 PUSH2 0x358B JUMP JUMPDEST PUSH2 0xB82 JUMP JUMPDEST CALLVALUE DUP1 ISZERO PUSH2 0x3BB JUMPI PUSH1 0x0 DUP1 REVERT JUMPDEST POP PUSH2 0x38D PUSH2 0x3CA CALLDATASIZE PUSH1 0x4 PUSH2 0x35A4 JUMP JUMPDEST PUSH2 0xBDF JUMP JUMPDEST CALLVALUE DUP1 ISZERO PUSH2 0x3DB JUMPI PUSH1 0x0 DUP1 REVERT JUMPDEST POP PUSH1 0xCC SLOAD PUSH2 0x3EC SWAP1 PUSH4 0xFFFFFFFF AND DUP2 JUMP JUMPDEST PUSH1 0x40 MLOAD PUSH4 0xFFFFFFFF SWAP1 SWAP2 AND DUP2 MSTORE PUSH1 0x20 ADD PUSH2 0x359 JUMP JUMPDEST CALLVALUE DUP1 ISZERO PUSH2 0x40D JUMPI PUSH1 0x0 DUP1 REVERT JUMPDEST POP PUSH2 0x34F PUSH2 0x3E8 DUP2 JUMP JUMPDEST CALLVALUE DUP1 ISZERO PUSH2 0x423 JUMPI PUSH1 0x0 DUP1 REVERT JUMPDEST POP PUSH2 0x34F PUSH2 0x432 CALLDATASIZE PUSH1 0x4 PUSH2 0x363F JUMP JUMPDEST PUSH1 0xD5 PUSH1 0x20 MSTORE PUSH1 0x0 SWAP1 DUP2 MSTORE PUSH1 0x40 SWAP1 KECCAK256 SLOAD DUP2 JUMP JUMPDEST CALLVALUE DUP1 ISZERO PUSH2 0x450 JUMPI PUSH1 0x0 DUP1 REVERT JUMPDEST POP PUSH2 0x38D PUSH2 0x45F CALLDATASIZE PUSH1 0x4 PUSH2 0x363F JUMP JUMPDEST PUSH2 0xE35 JUMP JUMPDEST CALLVALUE DUP1 ISZERO PUSH2 0x470 JUMPI PUSH1 0x0 DUP1 REVERT JUMPDEST POP PUSH2 0x38D PUSH2 0x47F CALLDATASIZE PUSH1 0x4 PUSH2 0x358B JUMP JUMPDEST PUSH2 0xFB0 JUMP JUMPDEST PUSH2 0x38D PUSH2 0x492 CALLDATASIZE PUSH1 0x4 PUSH2 0x365A JUMP JUMPDEST PUSH2 0x100D JUMP JUMPDEST CALLVALUE DUP1 ISZERO PUSH2 0x4A3 JUMPI PUSH1 0x0 DUP1 REVERT JUMPDEST POP PUSH2 0x4AC PUSH2 0x12D5 JUMP JUMPDEST PUSH1 0x40 MLOAD PUSH2 0x359 SWAP2 SWAP1 PUSH2 0x36BD JUMP JUMPDEST CALLVALUE DUP1 ISZERO PUSH2 0x4C5 JUMPI PUSH1 0x0 DUP1 REVERT JUMPDEST POP PUSH2 0x34F PUSH1 0xD7 SLOAD DUP2 JUMP JUMPDEST CALLVALUE DUP1 ISZERO PUSH2 0x4DB JUMPI PUSH1 0x0 DUP1 REVERT JUMPDEST POP PUSH2 0x38D PUSH2 0x4EA CALLDATASIZE PUSH1 0x4 PUSH2 0x36D0 JUMP JUMPDEST PUSH2 0x132D JUMP JUMPDEST CALLVALUE DUP1 ISZERO PUSH2 0x4FB JUMPI PUSH1 0x0 DUP1 REVERT JUMPDEST POP PUSH2 0x38D PUSH2 0x14BA JUMP JUMPDEST CALLVALUE DUP1 ISZERO PUSH2 0x510 JUMPI PUSH1 0x0 DUP1 REVERT JUMPDEST POP PUSH2 0x524 PUSH2 0x51F CALLDATASIZE PUSH1 0x4 PUSH2 0x358B JUMP JUMPDEST PUSH2 0x15C8 JUMP JUMPDEST PUSH1 0x40 MLOAD PUSH1 0xFF SWAP1 SWAP2 AND DUP2 MSTORE PUSH1 0x20 ADD PUSH2 0x359 JUMP JUMPDEST PUSH2 0x38D PUSH2 0x544 CALLDATASIZE PUSH1 0x4 PUSH2 0x3758 JUMP JUMPDEST PUSH2 0x15F2 JUMP JUMPDEST CALLVALUE DUP1 ISZERO PUSH2 0x555 JUMPI PUSH1 0x0 DUP1 REVERT JUMPDEST POP PUSH2 0x34F PUSH2 0x175E JUMP JUMPDEST CALLVALUE DUP1 ISZERO PUSH2 0x56A JUMPI PUSH1 0x0 DUP1 REVERT JUMPDEST POP PUSH2 0x34F PUSH1 0xCB SLOAD DUP2 JUMP JUMPDEST CALLVALUE DUP1 ISZERO PUSH2 0x580 JUMPI PUSH1 0x0 DUP1 REVERT JUMPDEST POP PUSH2 0x594 PUSH2 0x58F CALLDATASIZE PUSH1 0x4 PUSH2 0x358B JUMP JUMPDEST PUSH2 0x1823 JUMP JUMPDEST PUSH1 0x40 MLOAD PUSH2 0x359 SWAP2 SWAP1 PUSH2 0x3840 JUMP JUMPDEST CALLVALUE DUP1 ISZERO PUSH2 0x5AD JUMPI PUSH1 0x0 DUP1 REVERT JUMPDEST POP PUSH2 0x5C1 PUSH2 0x5BC CALLDATASIZE PUSH1 0x4 PUSH2 0x36D0 JUMP JUMPDEST PUSH2 0x1887 JUMP JUMPDEST PUSH1 0x40 MLOAD PUSH2 0x359 SWAP3 SWAP2 SWAP1 PUSH2 0x389E JUMP JUMPDEST CALLVALUE DUP1 ISZERO PUSH2 0x5DB JUMPI PUSH1 0x0 DUP1 REVERT JUMPDEST POP PUSH2 0x38D PUSH2 0x18F4 JUMP JUMPDEST CALLVALUE DUP1 ISZERO PUSH2 0x5F0 JUMPI PUSH1 0x0 DUP1 REVERT JUMPDEST POP PUSH1 0xCC SLOAD PUSH2 0x3EC SWAP1 PUSH7 0x1000000000000 SWAP1 DIV PUSH4 0xFFFFFFFF AND DUP2 JUMP JUMPDEST CALLVALUE DUP1 ISZERO PUSH2 0x617 JUMPI PUSH1 0x0 DUP1 REVERT JUMPDEST POP PUSH2 0x644 PUSH2 0x626 CALLDATASIZE PUSH1 0x4 PUSH2 0x358B JUMP JUMPDEST PUSH1 0xD0 PUSH1 0x20 MSTORE PUSH1 0x0 SWAP1 DUP2 MSTORE PUSH1 0x40 SWAP1 KECCAK256 SLOAD PUSH1 0xFF DUP1 DUP3 AND SWAP2 PUSH2 0x100 SWAP1 DIV AND DUP3 JUMP JUMPDEST PUSH1 0x40 DUP1 MLOAD SWAP3 ISZERO ISZERO DUP4 MSTORE SWAP1 ISZERO ISZERO PUSH1 0x20 DUP4 ADD MSTORE ADD PUSH2 0x359 JUMP JUMPDEST CALLVALUE DUP1 ISZERO PUSH2 0x667 JUMPI PUSH1 0x0 DUP1 REVERT JUMPDEST POP PUSH2 0x524 PUSH2 0x676 CALLDATASIZE PUSH1 0x4 PUSH2 0x38B9 JUMP JUMPDEST PUSH2 0x1908 JUMP JUMPDEST CALLVALUE DUP1 ISZERO PUSH2 0x687 JUMPI PUSH1 0x0 DUP1 REVERT JUMPDEST POP PUSH2 0x594 PUSH2 0x1941 JUMP JUMPDEST CALLVALUE DUP1 ISZERO PUSH2 0x69C JUMPI PUSH1 0x0 DUP1 REVERT JUMPDEST POP PUSH2 0x38D PUSH2 0x6AB CALLDATASIZE PUSH1 0x4 PUSH2 0x38DB JUMP JUMPDEST PUSH2 0x1999 JUMP JUMPDEST CALLVALUE DUP1 ISZERO PUSH2 0x6BC JUMPI PUSH1 0x0 DUP1 REVERT JUMPDEST POP PUSH2 0x707 PUSH2 0x6CB CALLDATASIZE PUSH1 0x4 PUSH2 0x358B JUMP JUMPDEST PUSH1 0xD2 PUSH1 0x20 MSTORE PUSH1 0x0 SWAP1 DUP2 MSTORE PUSH1 0x40 SWAP1 KECCAK256 DUP1 SLOAD PUSH1 0x1 DUP3 ADD SLOAD PUSH1 0x2 DUP4 ADD SLOAD PUSH1 0x3 SWAP1 SWAP4 ADD SLOAD PUSH1 0xFF DUP1 DUP5 AND SWAP5 PUSH2 0x100 DUP6 DIV DUP3 AND SWAP5 PUSH3 0x10000 SWAP1 DIV SWAP1 SWAP2 AND SWAP3 SWAP2 DUP7 JUMP JUMPDEST PUSH1 0x40 DUP1 MLOAD SWAP7 ISZERO ISZERO DUP8 MSTORE SWAP5 ISZERO ISZERO PUSH1 0x20 DUP8 ADD MSTORE SWAP3 ISZERO ISZERO SWAP4 DUP6 ADD SWAP4 SWAP1 SWAP4 MSTORE PUSH1 0x60 DUP5 ADD MSTORE PUSH1 0x80 DUP4 ADD SWAP2 SWAP1 SWAP2 MSTORE PUSH1 0xA0 DUP3 ADD MSTORE PUSH1 0xC0 ADD PUSH2 0x359 JUMP JUMPDEST CALLVALUE DUP1 ISZERO PUSH2 0x748 JUMPI PUSH1 0x0 DUP1 REVERT JUMPDEST POP PUSH1 0x33 SLOAD PUSH1 0x1 PUSH1 0x1 PUSH1 0xA0 SHL SUB AND JUMPDEST PUSH1 0x40 MLOAD PUSH1 0x1 PUSH1 0x1 PUSH1 0xA0 SHL SUB SWAP1 SWAP2 AND DUP2 MSTORE PUSH1 0x20 ADD PUSH2 0x359 JUMP JUMPDEST CALLVALUE DUP1 ISZERO PUSH2 0x77A JUMPI PUSH1 0x0 DUP1 REVERT JUMPDEST POP PUSH2 0x34F PUSH2 0x789 CALLDATASIZE PUSH1 0x4 PUSH2 0x358B JUMP JUMPDEST PUSH2 0x19C5 JUMP JUMPDEST CALLVALUE DUP1 ISZERO PUSH2 0x79A JUMPI PUSH1 0x0 DUP1 REVERT JUMPDEST POP PUSH2 0x38D PUSH2 0x7A9 CALLDATASIZE PUSH1 0x4 PUSH2 0x358B JUMP JUMPDEST PUSH2 0x19E6 JUMP JUMPDEST CALLVALUE DUP1 ISZERO PUSH2 0x7BA JUMPI PUSH1 0x0 DUP1 REVERT JUMPDEST POP PUSH2 0x34F PUSH1 0xD8 SLOAD DUP2 JUMP JUMPDEST CALLVALUE DUP1 ISZERO PUSH2 0x7D0 JUMPI PUSH1 0x0 DUP1 REVERT JUMPDEST POP PUSH1 0xC9 SLOAD PUSH2 0x756 SWAP1 PUSH1 0x1 PUSH1 0x1 PUSH1 0xA0 SHL SUB AND DUP2 JUMP JUMPDEST CALLVALUE DUP1 ISZERO PUSH2 0x7F0 JUMPI PUSH1 0x0 DUP1 REVERT JUMPDEST POP PUSH2 0x804 PUSH2 0x7FF CALLDATASIZE PUSH1 0x4 PUSH2 0x38B9 JUMP JUMPDEST PUSH2 0x19F3 JUMP JUMPDEST PUSH1 0x40 MLOAD PUSH2 0x359 SWAP6 SWAP5 SWAP4 SWAP3 SWAP2 SWAP1 PUSH2 0x38FF JUMP JUMPDEST CALLVALUE DUP1 ISZERO PUSH2 0x821 JUMPI PUSH1 0x0 DUP1 REVERT JUMPDEST POP PUSH2 0x38D PUSH2 0x830 CALLDATASIZE PUSH1 0x4 PUSH2 0x393F JUMP JUMPDEST PUSH2 0x1AC5 JUMP JUMPDEST CALLVALUE DUP1 ISZERO PUSH2 0x841 JUMPI PUSH1 0x0 DUP1 REVERT JUMPDEST POP PUSH1 0xCC SLOAD PUSH2 0x858 SWAP1 PUSH5 0x100000000 SWAP1 DIV PUSH2 0xFFFF AND DUP2 JUMP JUMPDEST PUSH1 0x40 MLOAD PUSH2 0xFFFF SWAP1 SWAP2 AND DUP2 MSTORE PUSH1 0x20 ADD PUSH2 0x359 JUMP JUMPDEST CALLVALUE DUP1 ISZERO PUSH2 0x877 JUMPI PUSH1 0x0 DUP1 REVERT JUMPDEST POP PUSH2 0x34F PUSH1 0xD6 SLOAD DUP2 JUMP JUMPDEST CALLVALUE DUP1 ISZERO PUSH2 0x88D JUMPI PUSH1 0x0 DUP1 REVERT JUMPDEST POP PUSH1 0xDB SLOAD PUSH2 0x89B SWAP1 PUSH1 0xFF AND DUP2 JUMP JUMPDEST PUSH1 0x40 MLOAD SWAP1 ISZERO ISZERO DUP2 MSTORE PUSH1 0x20 ADD PUSH2 0x359 JUMP JUMPDEST CALLVALUE DUP1 ISZERO PUSH2 0x8B7 JUMPI PUSH1 0x0 DUP1 REVERT JUMPDEST POP PUSH2 0x38D PUSH2 0x8C6 CALLDATASIZE PUSH1 0x4 PUSH2 0x358B JUMP JUMPDEST PUSH2 0x1AE9 JUMP JUMPDEST CALLVALUE DUP1 ISZERO PUSH2 0x8D7 JUMPI PUSH1 0x0 DUP1 REVERT JUMPDEST POP PUSH2 0x34F PUSH2 0x8E6 CALLDATASIZE PUSH1 0x4 PUSH2 0x358B JUMP JUMPDEST PUSH1 0x0 SWAP1 DUP2 MSTORE PUSH1 0xD3 PUSH1 0x20 MSTORE PUSH1 0x40 SWAP1 KECCAK256 SLOAD SWAP1 JUMP JUMPDEST CALLVALUE DUP1 ISZERO PUSH2 0x904 JUMPI PUSH1 0x0 DUP1 REVERT JUMPDEST POP PUSH2 0x38D PUSH2 0x1AF6 JUMP JUMPDEST CALLVALUE DUP1 ISZERO PUSH2 0x919 JUMPI PUSH1 0x0 DUP1 REVERT JUMPDEST POP PUSH2 0x38D PUSH2 0x928 CALLDATASIZE PUSH1 0x4 PUSH2 0x3965 JUMP JUMPDEST PUSH2 0x1C2C JUMP JUMPDEST CALLVALUE DUP1 ISZERO PUSH2 0x939 JUMPI PUSH1 0x0 DUP1 REVERT JUMPDEST POP PUSH2 0x34F PUSH2 0x948 CALLDATASIZE PUSH1 0x4 PUSH2 0x358B JUMP JUMPDEST PUSH1 0xD1 PUSH1 0x20 MSTORE PUSH1 0x0 SWAP1 DUP2 MSTORE PUSH1 0x40 SWAP1 KECCAK256 SLOAD DUP2 JUMP JUMPDEST CALLVALUE DUP1 ISZERO PUSH2 0x966 JUMPI PUSH1 0x0 DUP1 REVERT JUMPDEST POP PUSH2 0x97A PUSH2 0x975 CALLDATASIZE PUSH1 0x4 PUSH2 0x358B JUMP JUMPDEST PUSH2 0x1C47 JUMP JUMPDEST PUSH1 0x40 MLOAD PUSH2 0x359 SWAP3 SWAP2 SWAP1 PUSH2 0x3987 JUMP JUMPDEST CALLVALUE DUP1 ISZERO PUSH2 0x994 JUMPI PUSH1 0x0 DUP1 REVERT JUMPDEST POP PUSH2 0x34F PUSH2 0x2710 DUP2 JUMP JUMPDEST CALLVALUE DUP1 ISZERO PUSH2 0x9AA JUMPI PUSH1 0x0 DUP1 REVERT JUMPDEST POP PUSH2 0x38D PUSH2 0x9B9 CALLDATASIZE PUSH1 0x4 PUSH2 0x363F JUMP JUMPDEST PUSH2 0x1D21 JUMP JUMPDEST CALLVALUE DUP1 ISZERO PUSH2 0x9CA JUMPI PUSH1 0x0 DUP1 REVERT JUMPDEST POP PUSH2 0x38D PUSH2 0x9D9 CALLDATASIZE PUSH1 0x4 PUSH2 0x393F JUMP JUMPDEST PUSH2 0x1DAE JUMP JUMPDEST CALLVALUE DUP1 ISZERO PUSH2 0x9EA JUMPI PUSH1 0x0 DUP1 REVERT JUMPDEST POP PUSH2 0x34F PUSH1 0xDA SLOAD DUP2 JUMP JUMPDEST CALLVALUE DUP1 ISZERO PUSH2 0xA00 JUMPI PUSH1 0x0 DUP1 REVERT JUMPDEST POP PUSH2 0x38D PUSH2 0xA0F CALLDATASIZE PUSH1 0x4 PUSH2 0x363F JUMP JUMPDEST PUSH2 0x1E38 JUMP JUMPDEST CALLVALUE DUP1 ISZERO PUSH2 0xA20 JUMPI PUSH1 0x0 DUP1 REVERT JUMPDEST POP PUSH2 0x34F PUSH1 0xCD SLOAD DUP2 JUMP JUMPDEST PUSH2 0xA32 PUSH2 0x1E6F JUMP JUMPDEST PUSH1 0xD6 SLOAD DUP1 PUSH2 0xA87 JUMPI PUSH1 0x40 MLOAD PUSH3 0x461BCD PUSH1 0xE5 SHL DUP2 MSTORE PUSH1 0x20 PUSH1 0x4 DUP3 ADD MSTORE PUSH1 0xD PUSH1 0x24 DUP3 ADD MSTORE PUSH32 0x4E6F206F776E6572206665657300000000000000000000000000000000000000 PUSH1 0x44 DUP3 ADD MSTORE PUSH1 0x64 ADD JUMPDEST PUSH1 0x40 MLOAD DUP1 SWAP2 SUB SWAP1 REVERT JUMPDEST PUSH1 0x0 PUSH1 0xD6 DUP2 SWAP1 SSTORE PUSH1 0x33 SLOAD PUSH1 0x40 MLOAD PUSH1 0x1 PUSH1 0x1 PUSH1 0xA0 SHL SUB SWAP1 SWAP2 AND SWAP1 DUP4 SWAP1 DUP4 DUP2 DUP2 DUP2 DUP6 DUP8 GAS CALL SWAP3 POP POP POP RETURNDATASIZE DUP1 PUSH1 0x0 DUP2 EQ PUSH2 0xADA JUMPI PUSH1 0x40 MLOAD SWAP2 POP PUSH1 0x1F NOT PUSH1 0x3F RETURNDATASIZE ADD AND DUP3 ADD PUSH1 0x40 MSTORE RETURNDATASIZE DUP3 MSTORE RETURNDATASIZE PUSH1 0x0 PUSH1 0x20 DUP5 ADD RETURNDATACOPY PUSH2 0xADF JUMP JUMPDEST PUSH1 0x60 SWAP2 POP JUMPDEST POP POP SWAP1 POP DUP1 PUSH2 0xB30 JUMPI PUSH1 0x40 MLOAD PUSH3 0x461BCD PUSH1 0xE5 SHL DUP2 MSTORE PUSH1 0x20 PUSH1 0x4 DUP3 ADD MSTORE PUSH1 0x19 PUSH1 0x24 DUP3 ADD MSTORE PUSH32 0x4F776E657220666565207472616E73666572206661696C656400000000000000 PUSH1 0x44 DUP3 ADD MSTORE PUSH1 0x64 ADD PUSH2 0xA7E JUMP JUMPDEST PUSH1 0x33 SLOAD PUSH1 0x1 PUSH1 0x1 PUSH1 0xA0 SHL SUB AND PUSH1 0x1 PUSH1 0x1 PUSH1 0xA0 SHL SUB AND PUSH32 0x8C86225979E924F39334C49A16A32E53CA5FFE7A271A6793B57476CD62749D05 DUP4 PUSH1 0x40 MLOAD PUSH2 0xB76 SWAP2 DUP2 MSTORE PUSH1 0x20 ADD SWAP1 JUMP JUMPDEST PUSH1 0x40 MLOAD DUP1 SWAP2 SUB SWAP1 LOG2 POP POP JUMP JUMPDEST PUSH2 0xB8A PUSH2 0x1E6F JUMP JUMPDEST PUSH1 0x0 DUP2 GT PUSH2 0xBDA JUMPI PUSH1 0x40 MLOAD PUSH3 0x461BCD PUSH1 0xE5 SHL DUP2 MSTORE PUSH1 0x20 PUSH1 0x4 DUP3 ADD MSTORE PUSH1 0x11 PUSH1 0x24 DUP3 ADD MSTORE PUSH32 0x5072696365206D757374206265203E2030000000000000000000000000000000 PUSH1 0x44 DUP3 ADD MSTORE PUSH1 0x64 ADD PUSH2 0xA7E JUMP JUMPDEST PUSH1 0xD9 SSTORE JUMP JUMPDEST PUSH1 0xC9 SLOAD PUSH1 0x1 PUSH1 0x1 PUSH1 0xA0 SHL SUB AND CALLER EQ PUSH2 0xC39 JUMPI PUSH1 0x40 MLOAD PUSH3 0x461BCD PUSH1 0xE5 SHL DUP2 MSTORE PUSH1 0x20 PUSH1 0x4 DUP3 ADD MSTORE PUSH1 0x1C PUSH1 0x24 DUP3 ADD MSTORE PUSH32 0x4F6E6C7920636F6F7264696E61746F722063616E2066756C66696C6C00000000 PUSH1 0x44 DUP3 ADD MSTORE PUSH1 0x64 ADD PUSH2 0xA7E JUMP JUMPDEST PUSH1 0x0 DUP4 DUP2 MSTORE PUSH1 0xD0 PUSH1 0x20 MSTORE PUSH1 0x40 SWAP1 KECCAK256 SLOAD PUSH1 0xFF AND PUSH2 0xC97 JUMPI PUSH1 0x40 MLOAD PUSH3 0x461BCD PUSH1 0xE5 SHL DUP2 MSTORE PUSH1 0x20 PUSH1 0x4 DUP3 ADD MSTORE PUSH1 0x11 PUSH1 0x24 DUP3 ADD MSTORE PUSH32 0x52657175657374206E6F7420666F756E64000000000000000000000000000000 PUSH1 0x44 DUP3 ADD MSTORE PUSH1 0x64 ADD PUSH2 0xA7E JUMP JUMPDEST PUSH1 0x0 DUP4 DUP2 MSTORE PUSH1 0xD0 PUSH1 0x20 MSTORE PUSH1 0x40 SWAP1 KECCAK256 DUP1 SLOAD PUSH2 0xFF00 NOT AND PUSH2 0x100 OR DUP2 SSTORE PUSH2 0xCC0 SWAP1 PUSH1 0x1 ADD DUP4 DUP4 PUSH2 0x33D3 JUMP JUMPDEST POP PUSH2 0xCCD PUSH1 0xCE DUP4 DUP4 PUSH2 0x33D3 JUMP JUMPDEST POP PUSH1 0x0 DUP4 DUP2 MSTORE PUSH1 0xD1 PUSH1 0x20 MSTORE PUSH1 0x40 DUP2 KECCAK256 SLOAD SWAP1 DUP2 SWAP1 SUB PUSH2 0xD2D JUMPI PUSH1 0x40 MLOAD PUSH3 0x461BCD PUSH1 0xE5 SHL DUP2 MSTORE PUSH1 0x20 PUSH1 0x4 DUP3 ADD MSTORE PUSH1 0x10 PUSH1 0x24 DUP3 ADD MSTORE PUSH32 0x526F756E64206E6F74206C696E6B656400000000000000000000000000000000 PUSH1 0x44 DUP3 ADD MSTORE PUSH1 0x64 ADD PUSH2 0xA7E JUMP JUMPDEST PUSH2 0xD37 DUP4 DUP4 PUSH2 0x1EC9 JUMP JUMPDEST PUSH2 0xD45 SWAP1 PUSH1 0xCF SWAP1 PUSH1 0x7 PUSH2 0x341E JUMP JUMPDEST POP PUSH1 0x0 DUP2 DUP2 MSTORE PUSH1 0xD4 PUSH1 0x20 MSTORE PUSH1 0x40 SWAP1 KECCAK256 PUSH2 0xD61 SWAP1 PUSH1 0xCF PUSH1 0x7 PUSH2 0x34AC JUMP JUMPDEST POP PUSH32 0xFE2E2D779DBA245964D4E3EF9B994BE63856FD568BF7D3CA9E224755CB1BD54D DUP5 DUP5 DUP5 PUSH1 0x40 MLOAD PUSH2 0xD95 SWAP4 SWAP3 SWAP2 SWAP1 PUSH2 0x39A2 JUMP JUMPDEST PUSH1 0x40 MLOAD DUP1 SWAP2 SUB SWAP1 LOG1 PUSH32 0x65A3CADF20A29471EE7BC9E1BF93B5F513A619FCFFFC0BCAB66D7CBAE1045CB1 DUP5 DUP3 PUSH1 0xCF PUSH1 0x40 MLOAD PUSH2 0xDD1 SWAP4 SWAP3 SWAP2 SWAP1 PUSH2 0x39FB JUMP JUMPDEST PUSH1 0x40 MLOAD DUP1 SWAP2 SUB SWAP1 LOG1 PUSH1 0x40 DUP1 MLOAD PUSH1 0xE0 DUP2 ADD SWAP2 DUP3 SWAP1 MSTORE PUSH2 0xE2F SWAP2 DUP4 SWAP2 SWAP1 PUSH1 0xCF SWAP1 PUSH1 0x7 SWAP1 DUP3 PUSH1 0x0 DUP6 JUMPDEST DUP3 SLOAD PUSH2 0x100 DUP4 SWAP1 EXP SWAP1 DIV PUSH1 0xFF AND DUP2 MSTORE PUSH1 0x20 PUSH1 0x1 SWAP3 DUP4 ADD DUP2 DUP2 DIV SWAP5 DUP6 ADD SWAP5 SWAP1 SWAP4 SUB SWAP1 SWAP3 MUL SWAP2 ADD DUP1 DUP5 GT PUSH2 0xDF7 JUMPI SWAP1 POP POP POP POP POP POP PUSH2 0x200C JUMP JUMPDEST POP POP POP POP JUMP JUMPDEST PUSH1 0x1 PUSH1 0x1 PUSH1 0xA0 SHL SUB PUSH32 0x0 AND ADDRESS SUB PUSH2 0xEC2 JUMPI PUSH1 0x40 MLOAD PUSH3 0x461BCD PUSH1 0xE5 SHL DUP2 MSTORE PUSH1 0x20 PUSH1 0x4 DUP3 ADD MSTORE PUSH1 0x2C PUSH1 0x24 DUP3 ADD MSTORE PUSH32 0x46756E6374696F6E206D7573742062652063616C6C6564207468726F75676820 PUSH1 0x44 DUP3 ADD MSTORE PUSH12 0x19195B1959D85D1958D85B1B PUSH1 0xA2 SHL PUSH1 0x64 DUP3 ADD MSTORE PUSH1 0x84 ADD PUSH2 0xA7E JUMP JUMPDEST PUSH32 0x0 PUSH1 0x1 PUSH1 0x1 PUSH1 0xA0 SHL SUB AND PUSH2 0xF1D PUSH32 0x360894A13BA1A3210667C828492DB98DCA3E2076CC3735A920A3CA505D382BBC SLOAD PUSH1 0x1 PUSH1 0x1 PUSH1 0xA0 SHL SUB AND SWAP1 JUMP JUMPDEST PUSH1 0x1 PUSH1 0x1 PUSH1 0xA0 SHL SUB AND EQ PUSH2 0xF88 JUMPI PUSH1 0x40 MLOAD PUSH3 0x461BCD PUSH1 0xE5 SHL DUP2 MSTORE PUSH1 0x20 PUSH1 0x4 DUP3 ADD MSTORE PUSH1 0x2C PUSH1 0x24 DUP3 ADD MSTORE PUSH32 0x46756E6374696F6E206D7573742062652063616C6C6564207468726F75676820 PUSH1 0x44 DUP3 ADD MSTORE PUSH12 0x6163746976652070726F7879 PUSH1 0xA0 SHL PUSH1 0x64 DUP3 ADD MSTORE PUSH1 0x84 ADD PUSH2 0xA7E JUMP JUMPDEST PUSH2 0xF91 DUP2 PUSH2 0x25EE JUMP JUMPDEST PUSH1 0x40 DUP1 MLOAD PUSH1 0x0 DUP1 DUP3 MSTORE PUSH1 0x20 DUP3 ADD SWAP1 SWAP3 MSTORE PUSH2 0xFAD SWAP2 DUP4 SWAP2 SWAP1 PUSH2 0x25F6 JUMP JUMPDEST POP JUMP JUMPDEST PUSH2 0xFB8 PUSH2 0x1E6F JUMP JUMPDEST PUSH1 0x0 DUP2 GT PUSH2 0x1008 JUMPI PUSH1 0x40 MLOAD PUSH3 0x461BCD PUSH1 0xE5 SHL DUP2 MSTORE PUSH1 0x20 PUSH1 0x4 DUP3 ADD MSTORE PUSH1 0x14 PUSH1 0x24 DUP3 ADD MSTORE PUSH32 0x4475726174696F6E206D757374206265203E2030000000000000000000000000 PUSH1 0x44 DUP3 ADD MSTORE PUSH1 0x64 ADD PUSH2 0xA7E JUMP JUMPDEST PUSH1 0xDA SSTORE JUMP JUMPDEST PUSH1 0xD9 SLOAD CALLVALUE EQ PUSH2 0x105E JUMPI PUSH1 0x40 MLOAD PUSH3 0x461BCD PUSH1 0xE5 SHL DUP2 MSTORE PUSH1 0x20 PUSH1 0x4 DUP3 ADD MSTORE PUSH1 0x13 PUSH1 0x24 DUP3 ADD MSTORE PUSH32 0x496E636F727265637420656E7472792066656500000000000000000000000000 PUSH1 0x44 DUP3 ADD MSTORE PUSH1 0x64 ADD PUSH2 0xA7E JUMP JUMPDEST PUSH2 0x1067 DUP2 PUSH2 0x279B JUMP JUMPDEST PUSH1 0xD8 SLOAD PUSH1 0x0 SWAP1 DUP2 MSTORE PUSH1 0xD2 PUSH1 0x20 MSTORE PUSH1 0x40 SWAP1 KECCAK256 DUP1 SLOAD PUSH1 0xFF AND PUSH2 0x10BB JUMPI PUSH1 0x40 MLOAD PUSH3 0x461BCD PUSH1 0xE5 SHL DUP2 MSTORE PUSH1 0x20 PUSH1 0x4 DUP3 ADD MSTORE PUSH1 0xF PUSH1 0x24 DUP3 ADD MSTORE PUSH15 0x139BC81858DD1A5D99481C9BDD5B99 PUSH1 0x8A SHL PUSH1 0x44 DUP3 ADD MSTORE PUSH1 0x64 ADD PUSH2 0xA7E JUMP JUMPDEST DUP1 SLOAD PUSH2 0x100 SWAP1 DIV PUSH1 0xFF AND ISZERO PUSH2 0x1112 JUMPI PUSH1 0x40 MLOAD PUSH3 0x461BCD PUSH1 0xE5 SHL DUP2 MSTORE PUSH1 0x20 PUSH1 0x4 DUP3 ADD MSTORE PUSH1 0x16 PUSH1 0x24 DUP3 ADD MSTORE PUSH32 0x4472617720616C72656164792072657175657374656400000000000000000000 PUSH1 0x44 DUP3 ADD MSTORE PUSH1 0x64 ADD PUSH2 0xA7E JUMP JUMPDEST DUP1 PUSH1 0x2 ADD SLOAD TIMESTAMP LT PUSH2 0x1165 JUMPI PUSH1 0x40 MLOAD PUSH3 0x461BCD PUSH1 0xE5 SHL DUP2 MSTORE PUSH1 0x20 PUSH1 0x4 DUP3 ADD MSTORE PUSH1 0xD PUSH1 0x24 DUP3 ADD MSTORE PUSH32 0x526F756E64206578706972656400000000000000000000000000000000000000 PUSH1 0x44 DUP3 ADD MSTORE PUSH1 0x64 ADD PUSH2 0xA7E JUMP JUMPDEST CALLVALUE DUP2 PUSH1 0x3 ADD PUSH1 0x0 DUP3 DUP3 SLOAD PUSH2 0x1179 SWAP2 SWAP1 PUSH2 0x3AA0 JUMP JUMPDEST SWAP1 SWAP2 SSTORE POP POP PUSH1 0xD8 SLOAD PUSH1 0x0 SWAP1 DUP2 MSTORE PUSH1 0xD3 PUSH1 0x20 SWAP1 DUP2 MSTORE PUSH1 0x40 SWAP2 DUP3 SWAP1 KECCAK256 DUP3 MLOAD PUSH1 0xA0 DUP2 ADD DUP5 MSTORE CALLER DUP2 MSTORE DUP4 MLOAD PUSH1 0xE0 DUP2 DUP2 ADD SWAP1 SWAP6 MSTORE SWAP2 SWAP4 SWAP1 SWAP3 DUP4 ADD SWAP2 SWAP1 DUP7 SWAP1 PUSH1 0x7 SWAP1 DUP4 SWAP1 DUP4 SWAP1 DUP1 DUP3 DUP5 CALLDATACOPY PUSH1 0x0 SWAP3 ADD DUP3 SWAP1 MSTORE POP SWAP3 DUP5 MSTORE POP POP PUSH1 0x20 DUP1 DUP4 ADD DUP3 SWAP1 MSTORE PUSH1 0x40 DUP4 ADD DUP3 SWAP1 MSTORE PUSH1 0x60 SWAP1 SWAP3 ADD DUP2 SWAP1 MSTORE DUP4 SLOAD PUSH1 0x1 DUP1 DUP3 ADD DUP7 SSTORE SWAP5 DUP3 MSTORE SWAP1 DUP3 SWAP1 KECCAK256 DUP4 MLOAD PUSH1 0x4 SWAP1 SWAP3 MUL ADD DUP1 SLOAD PUSH20 0xFFFFFFFFFFFFFFFFFFFFFFFFFFFFFFFFFFFFFFFF NOT AND PUSH1 0x1 PUSH1 0x1 PUSH1 0xA0 SHL SUB SWAP1 SWAP3 AND SWAP2 SWAP1 SWAP2 OR DUP2 SSTORE SWAP1 DUP3 ADD MLOAD SWAP2 SWAP3 SWAP1 SWAP2 PUSH2 0x1239 SWAP2 DUP4 ADD SWAP1 PUSH1 0x7 PUSH2 0x341E JUMP JUMPDEST POP PUSH1 0x40 DUP3 DUP2 ADD MLOAD PUSH1 0x2 DUP4 ADD DUP1 SLOAD PUSH1 0x60 DUP7 ADD MLOAD PUSH1 0xFF AND PUSH2 0x100 MUL PUSH2 0xFF00 NOT SWAP4 ISZERO ISZERO SWAP4 SWAP1 SWAP4 AND PUSH2 0xFFFF NOT SWAP1 SWAP2 AND OR SWAP2 SWAP1 SWAP2 OR SWAP1 SSTORE PUSH1 0x80 SWAP1 SWAP3 ADD MLOAD PUSH1 0x3 SWAP1 SWAP2 ADD SSTORE PUSH1 0xD8 SLOAD PUSH1 0x0 DUP2 DUP2 MSTORE PUSH1 0xD3 PUSH1 0x20 MSTORE SWAP2 SWAP1 SWAP2 KECCAK256 SLOAD CALLER SWAP2 SWAP1 PUSH32 0x72C7C6A525D2C132932B4FC43AE4BB642B552692D21F5BEDEB662E34B564E8E8 SWAP1 PUSH2 0x12BA SWAP1 PUSH1 0x1 SWAP1 PUSH2 0x3AB3 JUMP JUMPDEST DUP6 PUSH1 0x40 MLOAD PUSH2 0x12C9 SWAP3 SWAP2 SWAP1 PUSH2 0x3AD7 JUMP JUMPDEST PUSH1 0x40 MLOAD DUP1 SWAP2 SUB SWAP1 LOG3 POP POP JUMP JUMPDEST PUSH1 0x60 PUSH1 0xCE DUP1 SLOAD DUP1 PUSH1 0x20 MUL PUSH1 0x20 ADD PUSH1 0x40 MLOAD SWAP1 DUP2 ADD PUSH1 0x40 MSTORE DUP1 SWAP3 SWAP2 SWAP1 DUP2 DUP2 MSTORE PUSH1 0x20 ADD DUP3 DUP1 SLOAD DUP1 ISZERO PUSH2 0x1323 JUMPI PUSH1 0x20 MUL DUP3 ADD SWAP2 SWAP1 PUSH1 0x0 MSTORE PUSH1 0x20 PUSH1 0x0 KECCAK256 SWAP1 JUMPDEST DUP2 SLOAD DUP2 MSTORE PUSH1 0x20 ADD SWAP1 PUSH1 0x1 ADD SWAP1 DUP1 DUP4 GT PUSH2 0x130F JUMPI JUMPDEST POP POP POP POP POP SWAP1 POP SWAP1 JUMP JUMPDEST PUSH1 0x0 PUSH2 0x133B DUP3 DUP5 ADD DUP5 PUSH2 0x358B JUMP JUMPDEST PUSH1 0xD8 SLOAD PUSH1 0x0 DUP2 DUP2 MSTORE PUSH1 0xD2 PUSH1 0x20 MSTORE PUSH1 0x40 SWAP1 KECCAK256 SWAP2 SWAP3 POP DUP3 EQ PUSH2 0x139D JUMPI PUSH1 0x40 MLOAD PUSH3 0x461BCD PUSH1 0xE5 SHL DUP2 MSTORE PUSH1 0x20 PUSH1 0x4 DUP3 ADD MSTORE PUSH1 0xC PUSH1 0x24 DUP3 ADD MSTORE PUSH32 0x5374616C652075706B6565700000000000000000000000000000000000000000 PUSH1 0x44 DUP3 ADD MSTORE PUSH1 0x64 ADD PUSH2 0xA7E JUMP JUMPDEST DUP1 SLOAD PUSH1 0xFF AND PUSH2 0x13E0 JUMPI PUSH1 0x40 MLOAD PUSH3 0x461BCD PUSH1 0xE5 SHL DUP2 MSTORE PUSH1 0x20 PUSH1 0x4 DUP3 ADD MSTORE PUSH1 0xF PUSH1 0x24 DUP3 ADD MSTORE PUSH15 0x139BC81858DD1A5D99481C9BDD5B99 PUSH1 0x8A SHL PUSH1 0x44 DUP3 ADD MSTORE PUSH1 0x64 ADD PUSH2 0xA7E JUMP JUMPDEST DUP1 SLOAD PUSH2 0x100 SWAP1 DIV PUSH1 0xFF AND ISZERO PUSH2 0x1437 JUMPI PUSH1 0x40 MLOAD PUSH3 0x461BCD PUSH1 0xE5 SHL DUP2 MSTORE PUSH1 0x20 PUSH1 0x4 DUP3 ADD MSTORE PUSH1 0x16 PUSH1 0x24 DUP3 ADD MSTORE PUSH32 0x4472617720616C72656164792072657175657374656400000000000000000000 PUSH1 0x44 DUP3 ADD MSTORE PUSH1 0x64 ADD PUSH2 0xA7E JUMP JUMPDEST DUP1 PUSH1 0x2 ADD SLOAD TIMESTAMP LT ISZERO PUSH2 0x148B JUMPI PUSH1 0x40 MLOAD PUSH3 0x461BCD PUSH1 0xE5 SHL DUP2 MSTORE PUSH1 0x20 PUSH1 0x4 DUP3 ADD MSTORE PUSH1 0x12 PUSH1 0x24 DUP3 ADD MSTORE PUSH32 0x526F756E64207374696C6C206163746976650000000000000000000000000000 PUSH1 0x44 DUP3 ADD MSTORE PUSH1 0x64 ADD PUSH2 0xA7E JUMP JUMPDEST PUSH1 0xD8 SLOAD PUSH1 0x0 SWAP1 DUP2 MSTORE PUSH1 0xD3 PUSH1 0x20 MSTORE PUSH1 0x40 DUP2 KECCAK256 SLOAD SWAP1 SUB PUSH2 0x14AB JUMPI PUSH2 0xE2F PUSH2 0x293D JUMP JUMPDEST PUSH2 0x14B3 PUSH2 0x2AB0 JUMP JUMPDEST POP POP POP POP POP JUMP JUMPDEST PUSH1 0x0 SLOAD PUSH1 0x2 SWAP1 PUSH2 0x100 SWAP1 DIV PUSH1 0xFF AND ISZERO DUP1 ISZERO PUSH2 0x14DC JUMPI POP PUSH1 0x0 SLOAD PUSH1 0xFF DUP1 DUP4 AND SWAP2 AND LT JUMPDEST PUSH2 0x154E JUMPI PUSH1 0x40 MLOAD PUSH3 0x461BCD PUSH1 0xE5 SHL DUP2 MSTORE PUSH1 0x20 PUSH1 0x4 DUP3 ADD MSTORE PUSH1 0x2E PUSH1 0x24 DUP3 ADD MSTORE PUSH32 0x496E697469616C697A61626C653A20636F6E747261637420697320616C726561 PUSH1 0x44 DUP3 ADD MSTORE PUSH32 0x647920696E697469616C697A6564000000000000000000000000000000000000 PUSH1 0x64 DUP3 ADD MSTORE PUSH1 0x84 ADD PUSH2 0xA7E JUMP JUMPDEST PUSH1 0x0 DUP1 SLOAD PUSH2 0xFFFF NOT AND PUSH1 0xFF DUP4 AND OR PUSH2 0x100 OR SWAP1 SSTORE PUSH2 0x156A PUSH2 0x2CCB JUMP JUMPDEST PUSH6 0x5AF3107A4000 PUSH1 0xD9 SSTORE PUSH2 0x12C PUSH1 0xDA SSTORE PUSH1 0xDB DUP1 SLOAD PUSH1 0xFF NOT AND SWAP1 SSTORE PUSH1 0x0 DUP1 SLOAD PUSH2 0xFF00 NOT AND SWAP1 SSTORE PUSH1 0x40 MLOAD PUSH1 0xFF DUP3 AND DUP2 MSTORE PUSH32 0x7F26B83FF96E1F2B6A682F133852F6798A09C465DA95921460CEFB3847402498 SWAP1 PUSH1 0x20 ADD PUSH1 0x40 MLOAD DUP1 SWAP2 SUB SWAP1 LOG1 POP JUMP JUMPDEST PUSH1 0xCF DUP2 PUSH1 0x7 DUP2 LT PUSH2 0x15D8 JUMPI PUSH1 0x0 DUP1 REVERT JUMPDEST PUSH1 0x20 SWAP2 DUP3 DUP3 DIV ADD SWAP2 SWAP1 MOD SWAP2 POP SLOAD SWAP1 PUSH2 0x100 EXP SWAP1 DIV PUSH1 0xFF AND DUP2 JUMP JUMPDEST PUSH1 0x1 PUSH1 0x1 PUSH1 0xA0 SHL SUB PUSH32 0x0 AND ADDRESS SUB PUSH2 0x167F JUMPI PUSH1 0x40 MLOAD PUSH3 0x461BCD PUSH1 0xE5 SHL DUP2 MSTORE PUSH1 0x20 PUSH1 0x4 DUP3 ADD MSTORE PUSH1 0x2C PUSH1 0x24 DUP3 ADD MSTORE PUSH32 0x46756E6374696F6E206D7573742062652063616C6C6564207468726F75676820 PUSH1 0x44 DUP3 ADD MSTORE PUSH12 0x19195B1959D85D1958D85B1B PUSH1 0xA2 SHL PUSH1 0x64 DUP3 ADD MSTORE PUSH1 0x84 ADD PUSH2 0xA7E JUMP JUMPDEST PUSH32 0x0 PUSH1 0x1 PUSH1 0x1 PUSH1 0xA0 SHL SUB AND PUSH2 0x16DA PUSH32 0x360894A13BA1A3210667C828492DB98DCA3E2076CC3735A920A3CA505D382BBC SLOAD PUSH1 0x1 PUSH1 0x1 PUSH1 0xA0 SHL SUB AND SWAP1 JUMP JUMPDEST PUSH1 0x1 PUSH1 0x1 PUSH1 0xA0 SHL SUB AND EQ PUSH2 0x1745 JUMPI PUSH1 0x40 MLOAD PUSH3 0x461BCD PUSH1 0xE5 SHL DUP2 MSTORE PUSH1 0x20 PUSH1 0x4 DUP3 ADD MSTORE PUSH1 0x2C PUSH1 0x24 DUP3 ADD MSTORE PUSH32 0x46756E6374696F6E206D7573742062652063616C6C6564207468726F75676820 PUSH1 0x44 DUP3 ADD MSTORE PUSH12 0x6163746976652070726F7879 PUSH1 0xA0 SHL PUSH1 0x64 DUP3 ADD MSTORE PUSH1 0x84 ADD PUSH2 0xA7E JUMP JUMPDEST PUSH2 0x174E DUP3 PUSH2 0x25EE JUMP JUMPDEST PUSH2 0x175A DUP3 DUP3 PUSH1 0x1 PUSH2 0x25F6 JUMP JUMPDEST POP POP JUMP JUMPDEST PUSH1 0x0 ADDRESS PUSH1 0x1 PUSH1 0x1 PUSH1 0xA0 SHL SUB PUSH32 0x0 AND EQ PUSH2 0x17FE JUMPI PUSH1 0x40 MLOAD PUSH3 0x461BCD PUSH1 0xE5 SHL DUP2 MSTORE PUSH1 0x20 PUSH1 0x4 DUP3 ADD MSTORE PUSH1 0x38 PUSH1 0x24 DUP3 ADD MSTORE PUSH32 0x555550535570677261646561626C653A206D757374206E6F742062652063616C PUSH1 0x44 DUP3 ADD MSTORE PUSH32 0x6C6564207468726F7567682064656C656761746563616C6C0000000000000000 PUSH1 0x64 DUP3 ADD MSTORE PUSH1 0x84 ADD PUSH2 0xA7E JUMP JUMPDEST POP PUSH32 0x360894A13BA1A3210667C828492DB98DCA3E2076CC3735A920A3CA505D382BBC SWAP1 JUMP JUMPDEST PUSH2 0x182B PUSH2 0x34DF JUMP JUMPDEST PUSH1 0x0 DUP3 DUP2 MSTORE PUSH1 0xD4 PUSH1 0x20 MSTORE PUSH1 0x40 DUP1 DUP3 KECCAK256 DUP2 MLOAD PUSH1 0xE0 DUP2 ADD SWAP3 DUP4 SWAP1 MSTORE SWAP3 SWAP1 SWAP2 PUSH1 0x7 SWAP2 DUP4 SWAP1 DUP6 JUMPDEST DUP3 SLOAD PUSH2 0x100 DUP4 SWAP1 EXP SWAP1 DIV PUSH1 0xFF AND DUP2 MSTORE PUSH1 0x20 PUSH1 0x1 SWAP3 DUP4 ADD DUP2 DUP2 DIV SWAP5 DUP6 ADD SWAP5 SWAP1 SWAP4 SUB SWAP1 SWAP3 MUL SWAP2 ADD DUP1 DUP5 GT PUSH2 0x184E JUMPI POP SWAP5 SWAP8 SWAP7 POP POP POP POP POP POP POP JUMP JUMPDEST PUSH1 0xD8 SLOAD PUSH1 0x0 SWAP1 DUP2 MSTORE PUSH1 0xD2 PUSH1 0x20 MSTORE PUSH1 0x40 DUP2 KECCAK256 DUP1 SLOAD PUSH1 0x60 SWAP2 SWAP1 PUSH1 0xFF AND DUP1 ISZERO PUSH2 0x18B4 JUMPI POP DUP1 SLOAD PUSH2 0x100 SWAP1 DIV PUSH1 0xFF AND ISZERO JUMPDEST DUP1 ISZERO PUSH2 0x18C4 JUMPI POP DUP1 PUSH1 0x2 ADD SLOAD TIMESTAMP LT ISZERO JUMPDEST SWAP3 POP PUSH1 0xD8 SLOAD PUSH1 0x40 MLOAD PUSH1 0x20 ADD PUSH2 0x18DB SWAP2 DUP2 MSTORE PUSH1 0x20 ADD SWAP1 JUMP JUMPDEST PUSH1 0x40 MLOAD PUSH1 0x20 DUP2 DUP4 SUB SUB DUP2 MSTORE SWAP1 PUSH1 0x40 MSTORE SWAP2 POP POP SWAP3 POP SWAP3 SWAP1 POP JUMP JUMPDEST PUSH2 0x18FC PUSH2 0x1E6F JUMP JUMPDEST PUSH2 0x1906 PUSH1 0x0 PUSH2 0x2D4D JUMP JUMPDEST JUMP JUMPDEST PUSH1 0xD4 PUSH1 0x20 MSTORE DUP2 PUSH1 0x0 MSTORE PUSH1 0x40 PUSH1 0x0 KECCAK256 DUP2 PUSH1 0x7 DUP2 LT PUSH2 0x1924 JUMPI PUSH1 0x0 DUP1 REVERT JUMPDEST PUSH1 0x20 DUP2 DIV SWAP1 SWAP2 ADD SLOAD PUSH1 0xFF PUSH1 0x1F SWAP1 SWAP3 AND PUSH2 0x100 EXP SWAP1 DIV AND SWAP2 POP DUP3 SWAP1 POP JUMP JUMPDEST PUSH2 0x1949 PUSH2 0x34DF JUMP JUMPDEST PUSH1 0x40 DUP1 MLOAD PUSH1 0xE0 DUP2 ADD SWAP2 DUP3 SWAP1 MSTORE SWAP1 PUSH1 0xCF SWAP1 PUSH1 0x7 SWAP1 DUP3 PUSH1 0x0 DUP6 JUMPDEST DUP3 SLOAD PUSH2 0x100 DUP4 SWAP1 EXP SWAP1 DIV PUSH1 0xFF AND DUP2 MSTORE PUSH1 0x20 PUSH1 0x1 SWAP3 DUP4 ADD DUP2 DUP2 DIV SWAP5 DUP6 ADD SWAP5 SWAP1 SWAP4 SUB SWAP1 SWAP3 MUL SWAP2 ADD DUP1 DUP5 GT PUSH2 0x1961 JUMPI SWAP1 POP POP POP POP POP POP SWAP1 POP SWAP1 JUMP JUMPDEST PUSH2 0x19A1 PUSH2 0x1E6F JUMP JUMPDEST PUSH1 0xCC DUP1 SLOAD PUSH2 0xFFFF SWAP1 SWAP3 AND PUSH5 0x100000000 MUL PUSH6 0xFFFF00000000 NOT SWAP1 SWAP3 AND SWAP2 SWAP1 SWAP2 OR SWAP1 SSTORE JUMP JUMPDEST PUSH1 0xCE DUP2 DUP2 SLOAD DUP2 LT PUSH2 0x19D5 JUMPI PUSH1 0x0 DUP1 REVERT JUMPDEST PUSH1 0x0 SWAP2 DUP3 MSTORE PUSH1 0x20 SWAP1 SWAP2 KECCAK256 ADD SLOAD SWAP1 POP DUP2 JUMP JUMPDEST PUSH2 0x19EE PUSH2 0x1E6F JUMP JUMPDEST PUSH1 0xCB SSTORE JUMP JUMPDEST PUSH1 0x0 PUSH2 0x19FD PUSH2 0x34DF JUMP JUMPDEST PUSH1 0x0 DUP1 PUSH1 0x0 DUP1 PUSH1 0xD3 PUSH1 0x0 DUP10 DUP2 MSTORE PUSH1 0x20 ADD SWAP1 DUP2 MSTORE PUSH1 0x20 ADD PUSH1 0x0 KECCAK256 DUP8 DUP2 SLOAD DUP2 LT PUSH2 0x1A27 JUMPI PUSH2 0x1A27 PUSH2 0x3B1A JUMP JUMPDEST PUSH1 0x0 SWAP2 DUP3 MSTORE PUSH1 0x20 DUP3 KECCAK256 PUSH1 0x4 SWAP1 SWAP2 MUL ADD DUP1 SLOAD PUSH1 0x2 DUP3 ADD SLOAD PUSH1 0x3 DUP4 ADD SLOAD PUSH1 0x40 DUP1 MLOAD PUSH1 0xE0 DUP2 ADD SWAP2 DUP3 SWAP1 MSTORE SWAP5 SWAP7 POP PUSH1 0x1 PUSH1 0x1 PUSH1 0xA0 SHL SUB SWAP1 SWAP4 AND SWAP5 PUSH1 0x1 DUP8 ADD SWAP5 PUSH1 0xFF DUP1 DUP6 AND SWAP6 PUSH2 0x100 SWAP1 SWAP6 DIV AND SWAP4 SWAP1 SWAP2 DUP7 SWAP2 PUSH1 0x7 SWAP2 DUP4 SWAP1 DUP6 JUMPDEST DUP3 SLOAD PUSH2 0x100 DUP4 SWAP1 EXP SWAP1 DIV PUSH1 0xFF AND DUP2 MSTORE PUSH1 0x20 PUSH1 0x1 SWAP3 DUP4 ADD DUP2 DUP2 DIV SWAP5 DUP6 ADD SWAP5 SWAP1 SWAP4 SUB SWAP1 SWAP3 MUL SWAP2 ADD DUP1 DUP5 GT PUSH2 0x1A7B JUMPI SWAP1 POP POP POP POP POP POP SWAP4 POP SWAP6 POP SWAP6 POP SWAP6 POP SWAP6 POP SWAP6 POP POP SWAP3 SWAP6 POP SWAP3 SWAP6 SWAP1 SWAP4 POP JUMP JUMPDEST PUSH2 0x1ACD PUSH2 0x1E6F JUMP JUMPDEST PUSH1 0xCC DUP1 SLOAD PUSH4 0xFFFFFFFF NOT AND PUSH4 0xFFFFFFFF SWAP3 SWAP1 SWAP3 AND SWAP2 SWAP1 SWAP2 OR SWAP1 SSTORE JUMP JUMPDEST PUSH2 0x1AF1 PUSH2 0x1E6F JUMP JUMPDEST PUSH1 0xCA SSTORE JUMP JUMPDEST CALLER PUSH1 0x0 SWAP1 DUP2 MSTORE PUSH1 0xD5 PUSH1 0x20 MSTORE PUSH1 0x40 SWAP1 KECCAK256 SLOAD DUP1 PUSH2 0x1B53 JUMPI PUSH1 0x40 MLOAD PUSH3 0x461BCD PUSH1 0xE5 SHL DUP2 MSTORE PUSH1 0x20 PUSH1 0x4 DUP3 ADD MSTORE PUSH1 0x13 PUSH1 0x24 DUP3 ADD MSTORE PUSH32 0x4E6F2072657761726420617661696C61626C6500000000000000000000000000 PUSH1 0x44 DUP3 ADD MSTORE PUSH1 0x64 ADD PUSH2 0xA7E JUMP JUMPDEST CALLER PUSH1 0x0 DUP2 DUP2 MSTORE PUSH1 0xD5 PUSH1 0x20 MSTORE PUSH1 0x40 DUP1 DUP3 KECCAK256 DUP3 SWAP1 SSTORE MLOAD SWAP1 SWAP2 SWAP1 DUP4 SWAP1 DUP4 DUP2 DUP2 DUP2 DUP6 DUP8 GAS CALL SWAP3 POP POP POP RETURNDATASIZE DUP1 PUSH1 0x0 DUP2 EQ PUSH2 0x1BA4 JUMPI PUSH1 0x40 MLOAD SWAP2 POP PUSH1 0x1F NOT PUSH1 0x3F RETURNDATASIZE ADD AND DUP3 ADD PUSH1 0x40 MSTORE RETURNDATASIZE DUP3 MSTORE RETURNDATASIZE PUSH1 0x0 PUSH1 0x20 DUP5 ADD RETURNDATACOPY PUSH2 0x1BA9 JUMP JUMPDEST PUSH1 0x60 SWAP2 POP JUMPDEST POP POP SWAP1 POP DUP1 PUSH2 0x1BFA JUMPI PUSH1 0x40 MLOAD PUSH3 0x461BCD PUSH1 0xE5 SHL DUP2 MSTORE PUSH1 0x20 PUSH1 0x4 DUP3 ADD MSTORE PUSH1 0x16 PUSH1 0x24 DUP3 ADD MSTORE PUSH32 0x526577617264207472616E73666572206661696C656400000000000000000000 PUSH1 0x44 DUP3 ADD MSTORE PUSH1 0x64 ADD PUSH2 0xA7E JUMP JUMPDEST PUSH1 0x40 MLOAD DUP3 DUP2 MSTORE CALLER SWAP1 PUSH32 0x1D3EEE4CA001CFF39EEC6EC7615AACF2F2BD61791273830728BA00CCBD6E1337 SWAP1 PUSH1 0x20 ADD PUSH2 0xB76 JUMP JUMPDEST PUSH2 0x1C34 PUSH2 0x1E6F JUMP JUMPDEST PUSH1 0xDB DUP1 SLOAD PUSH1 0xFF NOT AND SWAP2 ISZERO ISZERO SWAP2 SWAP1 SWAP2 OR SWAP1 SSTORE JUMP JUMPDEST PUSH1 0x0 DUP2 DUP2 MSTORE PUSH1 0xD0 PUSH1 0x20 MSTORE PUSH1 0x40 DUP2 KECCAK256 SLOAD PUSH1 0x60 SWAP1 PUSH1 0xFF AND PUSH2 0x1CA8 JUMPI PUSH1 0x40 MLOAD PUSH3 0x461BCD PUSH1 0xE5 SHL DUP2 MSTORE PUSH1 0x20 PUSH1 0x4 DUP3 ADD MSTORE PUSH1 0x11 PUSH1 0x24 DUP3 ADD MSTORE PUSH32 0x52657175657374206E6F7420666F756E64000000000000000000000000000000 PUSH1 0x44 DUP3 ADD MSTORE PUSH1 0x64 ADD PUSH2 0xA7E JUMP JUMPDEST PUSH1 0x0 DUP4 DUP2 MSTORE PUSH1 0xD0 PUSH1 0x20 SWAP1 DUP2 MSTORE PUSH1 0x40 SWAP2 DUP3 SWAP1 KECCAK256 DUP1 SLOAD PUSH1 0x1 DUP3 ADD DUP1 SLOAD DUP6 MLOAD DUP2 DUP7 MUL DUP2 ADD DUP7 ADD SWAP1 SWAP7 MSTORE DUP1 DUP7 MSTORE SWAP3 SWAP5 PUSH2 0x100 SWAP1 SWAP3 DIV PUSH1 0xFF AND SWAP4 SWAP1 SWAP3 DUP4 SWAP2 DUP4 ADD DUP3 DUP3 DUP1 ISZERO PUSH2 0x1D10 JUMPI PUSH1 0x20 MUL DUP3 ADD SWAP2 SWAP1 PUSH1 0x0 MSTORE PUSH1 0x20 PUSH1 0x0 KECCAK256 SWAP1 JUMPDEST DUP2 SLOAD DUP2 MSTORE PUSH1 0x20 ADD SWAP1 PUSH1 0x1 ADD SWAP1 DUP1 DUP4 GT PUSH2 0x1CFC JUMPI JUMPDEST POP POP POP POP POP SWAP1 POP SWAP3 POP SWAP3 POP POP SWAP2 POP SWAP2 JUMP JUMPDEST PUSH2 0x1D29 PUSH2 0x1E6F JUMP JUMPDEST PUSH1 0x1 PUSH1 0x1 PUSH1 0xA0 SHL SUB DUP2 AND PUSH2 0x1DA5 JUMPI PUSH1 0x40 MLOAD PUSH3 0x461BCD PUSH1 0xE5 SHL DUP2 MSTORE PUSH1 0x20 PUSH1 0x4 DUP3 ADD MSTORE PUSH1 0x26 PUSH1 0x24 DUP3 ADD MSTORE PUSH32 0x4F776E61626C653A206E6577206F776E657220697320746865207A65726F2061 PUSH1 0x44 DUP3 ADD MSTORE PUSH32 0x6464726573730000000000000000000000000000000000000000000000000000 PUSH1 0x64 DUP3 ADD MSTORE PUSH1 0x84 ADD PUSH2 0xA7E JUMP JUMPDEST PUSH2 0xFAD DUP2 PUSH2 0x2D4D JUMP JUMPDEST PUSH2 0x1DB6 PUSH2 0x1E6F JUMP JUMPDEST PUSH1 0x0 DUP2 PUSH4 0xFFFFFFFF AND GT PUSH2 0x1E0C JUMPI PUSH1 0x40 MLOAD PUSH3 0x461BCD PUSH1 0xE5 SHL DUP2 MSTORE PUSH1 0x20 PUSH1 0x4 DUP3 ADD MSTORE PUSH1 0x14 PUSH1 0x24 DUP3 ADD MSTORE PUSH32 0x6E756D576F726473206D757374206265203E2030000000000000000000000000 PUSH1 0x44 DUP3 ADD MSTORE PUSH1 0x64 ADD PUSH2 0xA7E JUMP JUMPDEST PUSH1 0xCC DUP1 SLOAD PUSH4 0xFFFFFFFF SWAP1 SWAP3 AND PUSH7 0x1000000000000 MUL PUSH10 0xFFFFFFFF000000000000 NOT SWAP1 SWAP3 AND SWAP2 SWAP1 SWAP2 OR SWAP1 SSTORE JUMP JUMPDEST PUSH2 0x1E40 PUSH2 0x1E6F JUMP JUMPDEST PUSH1 0xC9 DUP1 SLOAD PUSH20 0xFFFFFFFFFFFFFFFFFFFFFFFFFFFFFFFFFFFFFFFF NOT AND PUSH1 0x1 PUSH1 0x1 PUSH1 0xA0 SHL SUB SWAP3 SWAP1 SWAP3 AND SWAP2 SWAP1 SWAP2 OR SWAP1 SSTORE JUMP JUMPDEST PUSH1 0x33 SLOAD PUSH1 0x1 PUSH1 0x1 PUSH1 0xA0 SHL SUB AND CALLER EQ PUSH2 0x1906 JUMPI PUSH1 0x40 MLOAD PUSH3 0x461BCD PUSH1 0xE5 SHL DUP2 MSTORE PUSH1 0x20 PUSH1 0x4 DUP3 ADD DUP2 SWAP1 MSTORE PUSH1 0x24 DUP3 ADD MSTORE PUSH32 0x4F776E61626C653A2063616C6C6572206973206E6F7420746865206F776E6572 PUSH1 0x44 DUP3 ADD MSTORE PUSH1 0x64 ADD PUSH2 0xA7E JUMP JUMPDEST PUSH2 0x1ED1 PUSH2 0x34DF JUMP JUMPDEST PUSH2 0x1ED9 PUSH2 0x34FD JUMP JUMPDEST PUSH1 0x0 DUP1 JUMPDEST PUSH1 0x7 DUP3 LT ISZERO PUSH2 0x1FF9 JUMPI PUSH1 0x0 JUMPDEST DUP6 DUP2 LT DUP1 ISZERO PUSH2 0x1EF8 JUMPI POP PUSH1 0x7 DUP4 LT JUMPDEST ISZERO PUSH2 0x1FF3 JUMPI PUSH1 0x0 PUSH1 0x31 DUP9 DUP9 DUP5 DUP2 DUP2 LT PUSH2 0x1F13 JUMPI PUSH2 0x1F13 PUSH2 0x3B1A JUMP JUMPDEST SWAP1 POP PUSH1 0x20 MUL ADD CALLDATALOAD DUP5 PUSH1 0x40 MLOAD PUSH1 0x20 ADD PUSH2 0x1F35 SWAP3 SWAP2 SWAP1 SWAP2 DUP3 MSTORE PUSH1 0x20 DUP3 ADD MSTORE PUSH1 0x40 ADD SWAP1 JUMP JUMPDEST PUSH1 0x40 MLOAD PUSH1 0x20 DUP2 DUP4 SUB SUB DUP2 MSTORE SWAP1 PUSH1 0x40 MSTORE DUP1 MLOAD SWAP1 PUSH1 0x20 ADD KECCAK256 PUSH1 0x0 SHR PUSH2 0x1F58 SWAP2 SWAP1 PUSH2 0x3B46 JUMP JUMPDEST PUSH2 0x1F63 SWAP1 PUSH1 0x1 PUSH2 0x3AA0 JUMP JUMPDEST SWAP1 POP DUP5 DUP2 PUSH1 0xFF AND PUSH1 0x32 DUP2 LT PUSH2 0x1F7A JUMPI PUSH2 0x1F7A PUSH2 0x3B1A JUMP JUMPDEST PUSH1 0x20 MUL ADD MLOAD PUSH2 0x1FD2 JUMPI PUSH1 0x1 DUP6 DUP3 PUSH1 0xFF AND PUSH1 0x32 DUP2 LT PUSH2 0x1F9A JUMPI PUSH2 0x1F9A PUSH2 0x3B1A JUMP JUMPDEST SWAP2 ISZERO ISZERO PUSH1 0x20 SWAP1 SWAP3 MUL ADD MSTORE DUP1 DUP7 DUP6 PUSH1 0x7 DUP2 LT PUSH2 0x1FB7 JUMPI PUSH2 0x1FB7 PUSH2 0x3B1A JUMP JUMPDEST PUSH1 0xFF SWAP1 SWAP3 AND PUSH1 0x20 SWAP3 SWAP1 SWAP3 MUL ADD MSTORE DUP4 PUSH2 0x1FCE DUP2 PUSH2 0x3B5A JUMP JUMPDEST SWAP5 POP POP JUMPDEST DUP3 PUSH2 0x1FDC DUP2 PUSH2 0x3B5A JUMP JUMPDEST SWAP4 POP POP POP DUP1 DUP1 PUSH2 0x1FEB SWAP1 PUSH2 0x3B5A JUMP JUMPDEST SWAP2 POP POP PUSH2 0x1EE9 JUMP JUMPDEST POP PUSH2 0x1EDD JUMP JUMPDEST PUSH2 0x2002 DUP5 PUSH2 0x2DAC JUMP JUMPDEST POP POP POP JUMPDEST SWAP3 SWAP2 POP POP JUMP JUMPDEST PUSH1 0x0 DUP3 DUP2 MSTORE PUSH1 0xD2 PUSH1 0x20 MSTORE PUSH1 0x40 SWAP1 KECCAK256 DUP1 SLOAD PUSH1 0xFF AND PUSH2 0x206B JUMPI PUSH1 0x40 MLOAD PUSH3 0x461BCD PUSH1 0xE5 SHL DUP2 MSTORE PUSH1 0x20 PUSH1 0x4 DUP3 ADD MSTORE PUSH1 0x10 PUSH1 0x24 DUP3 ADD MSTORE PUSH32 0x526F756E64206E6F742061637469766500000000000000000000000000000000 PUSH1 0x44 DUP3 ADD MSTORE PUSH1 0x64 ADD PUSH2 0xA7E JUMP JUMPDEST DUP1 SLOAD PUSH2 0x100 SWAP1 DIV PUSH1 0xFF AND PUSH2 0x20C1 JUMPI PUSH1 0x40 MLOAD PUSH3 0x461BCD PUSH1 0xE5 SHL DUP2 MSTORE PUSH1 0x20 PUSH1 0x4 DUP3 ADD MSTORE PUSH1 0x12 PUSH1 0x24 DUP3 ADD MSTORE PUSH32 0x44726177206E6F74207265717565737465640000000000000000000000000000 PUSH1 0x44 DUP3 ADD MSTORE PUSH1 0x64 ADD PUSH2 0xA7E JUMP JUMPDEST DUP1 SLOAD PUSH3 0x10000 SWAP1 DIV PUSH1 0xFF AND ISZERO PUSH2 0x2119 JUMPI PUSH1 0x40 MLOAD PUSH3 0x461BCD PUSH1 0xE5 SHL DUP2 MSTORE PUSH1 0x20 PUSH1 0x4 DUP3 ADD MSTORE PUSH1 0x15 PUSH1 0x24 DUP3 ADD MSTORE PUSH32 0x526F756E6420616C726561647920736574746C65640000000000000000000000 PUSH1 0x44 DUP3 ADD MSTORE PUSH1 0x64 ADD PUSH2 0xA7E JUMP JUMPDEST PUSH1 0x0 DUP4 DUP2 MSTORE PUSH1 0xD3 PUSH1 0x20 MSTORE PUSH1 0x40 SWAP1 KECCAK256 DUP1 SLOAD PUSH2 0x2131 PUSH2 0x351C JUMP JUMPDEST PUSH1 0x0 JUMPDEST DUP3 DUP2 LT ISZERO PUSH2 0x2237 JUMPI PUSH1 0x0 PUSH2 0x21B6 DUP6 DUP4 DUP2 SLOAD DUP2 LT PUSH2 0x2153 JUMPI PUSH2 0x2153 PUSH2 0x3B1A JUMP JUMPDEST PUSH1 0x0 SWAP2 DUP3 MSTORE PUSH1 0x20 DUP3 KECCAK256 PUSH1 0x40 DUP1 MLOAD PUSH1 0xE0 DUP2 ADD SWAP2 DUP3 SWAP1 MSTORE SWAP4 PUSH1 0x4 SWAP1 SWAP4 MUL SWAP1 SWAP2 ADD PUSH1 0x1 ADD SWAP2 PUSH1 0x7 SWAP2 SWAP1 DUP4 SWAP1 DUP6 JUMPDEST DUP3 SLOAD PUSH2 0x100 DUP4 SWAP1 EXP SWAP1 DIV PUSH1 0xFF AND DUP2 MSTORE PUSH1 0x20 PUSH1 0x1 SWAP3 DUP4 ADD DUP2 DUP2 DIV SWAP5 DUP6 ADD SWAP5 SWAP1 SWAP4 SUB SWAP1 SWAP3 MUL SWAP2 ADD DUP1 DUP5 GT PUSH2 0x217D JUMPI SWAP1 POP POP POP POP POP POP DUP9 PUSH2 0x2EA3 JUMP JUMPDEST SWAP1 POP DUP1 DUP6 DUP4 DUP2 SLOAD DUP2 LT PUSH2 0x21CB JUMPI PUSH2 0x21CB PUSH2 0x3B1A JUMP JUMPDEST PUSH1 0x0 SWAP2 DUP3 MSTORE PUSH1 0x20 SWAP1 SWAP2 KECCAK256 PUSH1 0x4 SWAP1 SWAP2 MUL ADD PUSH1 0x2 SWAP1 DUP2 ADD DUP1 SLOAD PUSH2 0xFF00 NOT AND PUSH2 0x100 PUSH1 0xFF SWAP5 DUP6 AND MUL OR SWAP1 SSTORE SWAP1 DUP3 AND LT PUSH2 0x2224 JUMPI DUP3 DUP2 PUSH1 0xFF AND PUSH1 0x8 DUP2 LT PUSH2 0x2210 JUMPI PUSH2 0x2210 PUSH2 0x3B1A JUMP JUMPDEST PUSH1 0x20 MUL ADD DUP1 MLOAD SWAP1 PUSH2 0x2220 DUP3 PUSH2 0x3B5A JUMP JUMPDEST SWAP1 MSTORE POP JUMPDEST POP DUP1 PUSH2 0x222F DUP2 PUSH2 0x3B5A JUMP JUMPDEST SWAP2 POP POP PUSH2 0x2134 JUMP JUMPDEST POP PUSH1 0x0 PUSH2 0x2710 PUSH2 0x3E8 DUP7 PUSH1 0x3 ADD SLOAD PUSH2 0x224F SWAP2 SWAP1 PUSH2 0x3B73 JUMP JUMPDEST PUSH2 0x2259 SWAP2 SWAP1 PUSH2 0x3B8A JUMP JUMPDEST SWAP1 POP PUSH1 0x0 DUP2 DUP7 PUSH1 0x3 ADD SLOAD PUSH2 0x226D SWAP2 SWAP1 PUSH2 0x3AB3 JUMP JUMPDEST SWAP1 POP PUSH1 0x0 PUSH2 0x2279 PUSH2 0x351C JUMP JUMPDEST PUSH1 0x64 PUSH2 0x2286 DUP5 PUSH1 0x5 PUSH2 0x3B73 JUMP JUMPDEST PUSH2 0x2290 SWAP2 SWAP1 PUSH2 0x3B8A JUMP JUMPDEST PUSH1 0x40 DUP3 ADD MSTORE PUSH1 0x64 PUSH2 0x22A2 DUP5 PUSH1 0xA PUSH2 0x3B73 JUMP JUMPDEST PUSH2 0x22AC SWAP2 SWAP1 PUSH2 0x3B8A JUMP JUMPDEST PUSH1 0x60 DUP3 ADD MSTORE PUSH1 0x64 PUSH2 0x22BE DUP5 PUSH1 0xF PUSH2 0x3B73 JUMP JUMPDEST PUSH2 0x22C8 SWAP2 SWAP1 PUSH2 0x3B8A JUMP JUMPDEST PUSH1 0x80 DUP3 ADD MSTORE PUSH1 0x64 PUSH2 0x22DA DUP5 PUSH1 0x14 PUSH2 0x3B73 JUMP JUMPDEST PUSH2 0x22E4 SWAP2 SWAP1 PUSH2 0x3B8A JUMP JUMPDEST PUSH1 0xA0 DUP3 ADD MSTORE PUSH1 0x64 PUSH2 0x22F6 DUP5 PUSH1 0x14 PUSH2 0x3B73 JUMP JUMPDEST PUSH2 0x2300 SWAP2 SWAP1 PUSH2 0x3B8A JUMP JUMPDEST PUSH1 0xC0 DUP3 ADD MSTORE PUSH1 0x64 PUSH2 0x2312 DUP5 PUSH1 0x1E PUSH2 0x3B73 JUMP JUMPDEST PUSH2 0x231C SWAP2 SWAP1 PUSH2 0x3B8A JUMP JUMPDEST PUSH1 0xE0 DUP3 ADD MSTORE PUSH2 0x2329 PUSH2 0x351C JUMP JUMPDEST PUSH1 0x2 JUMPDEST PUSH1 0x7 DUP2 PUSH1 0xFF AND GT PUSH2 0x23EF JUMPI PUSH1 0x0 DUP8 DUP3 PUSH1 0xFF AND PUSH1 0x8 DUP2 LT PUSH2 0x234E JUMPI PUSH2 0x234E PUSH2 0x3B1A JUMP JUMPDEST PUSH1 0x20 MUL ADD MLOAD GT ISZERO PUSH2 0x23B6 JUMPI DUP7 DUP2 PUSH1 0xFF AND PUSH1 0x8 DUP2 LT PUSH2 0x236E JUMPI PUSH2 0x236E PUSH2 0x3B1A JUMP JUMPDEST PUSH1 0x20 MUL ADD MLOAD DUP4 DUP3 PUSH1 0xFF AND PUSH1 0x8 DUP2 LT PUSH2 0x2388 JUMPI PUSH2 0x2388 PUSH2 0x3B1A JUMP JUMPDEST PUSH1 0x20 MUL ADD MLOAD PUSH2 0x2397 SWAP2 SWAP1 PUSH2 0x3B8A JUMP JUMPDEST DUP3 DUP3 PUSH1 0xFF AND PUSH1 0x8 DUP2 LT PUSH2 0x23AC JUMPI PUSH2 0x23AC PUSH2 0x3B1A JUMP JUMPDEST PUSH1 0x20 MUL ADD MSTORE PUSH2 0x23DD JUMP JUMPDEST DUP3 DUP2 PUSH1 0xFF AND PUSH1 0x8 DUP2 LT PUSH2 0x23CB JUMPI PUSH2 0x23CB PUSH2 0x3B1A JUMP JUMPDEST PUSH1 0x20 MUL ADD MLOAD PUSH2 0x23DA SWAP1 DUP6 PUSH2 0x3AA0 JUMP JUMPDEST SWAP4 POP JUMPDEST DUP1 PUSH2 0x23E7 DUP2 PUSH2 0x3B9E JUMP JUMPDEST SWAP2 POP POP PUSH2 0x232C JUMP JUMPDEST POP PUSH1 0x0 JUMPDEST DUP8 DUP2 LT ISZERO PUSH2 0x255B JUMPI PUSH1 0x0 DUP10 DUP3 DUP2 SLOAD DUP2 LT PUSH2 0x240F JUMPI PUSH2 0x240F PUSH2 0x3B1A JUMP JUMPDEST PUSH1 0x0 SWAP2 DUP3 MSTORE PUSH1 0x20 SWAP1 SWAP2 KECCAK256 PUSH1 0x2 PUSH1 0x4 SWAP1 SWAP3 MUL ADD DUP2 ADD SLOAD PUSH1 0xFF PUSH2 0x100 SWAP1 SWAP2 DIV AND SWAP2 POP DUP2 LT PUSH2 0x2548 JUMPI PUSH1 0x0 DUP4 DUP3 PUSH1 0xFF AND PUSH1 0x8 DUP2 LT PUSH2 0x244C JUMPI PUSH2 0x244C PUSH2 0x3B1A JUMP JUMPDEST PUSH1 0x20 MUL ADD MLOAD SWAP1 POP DUP1 DUP12 DUP5 DUP2 SLOAD DUP2 LT PUSH2 0x2466 JUMPI PUSH2 0x2466 PUSH2 0x3B1A JUMP JUMPDEST SWAP1 PUSH1 0x0 MSTORE PUSH1 0x20 PUSH1 0x0 KECCAK256 SWAP1 PUSH1 0x4 MUL ADD PUSH1 0x3 ADD DUP2 SWAP1 SSTORE POP DUP1 PUSH1 0xD5 PUSH1 0x0 DUP14 DUP7 DUP2 SLOAD DUP2 LT PUSH2 0x2492 JUMPI PUSH2 0x2492 PUSH2 0x3B1A JUMP JUMPDEST PUSH1 0x0 SWAP2 DUP3 MSTORE PUSH1 0x20 DUP1 DUP4 KECCAK256 PUSH1 0x4 SWAP1 SWAP3 MUL SWAP1 SWAP2 ADD SLOAD PUSH1 0x1 PUSH1 0x1 PUSH1 0xA0 SHL SUB AND DUP4 MSTORE DUP3 ADD SWAP3 SWAP1 SWAP3 MSTORE PUSH1 0x40 ADD DUP2 KECCAK256 DUP1 SLOAD SWAP1 SWAP2 SWAP1 PUSH2 0x24CB SWAP1 DUP5 SWAP1 PUSH2 0x3AA0 JUMP JUMPDEST SWAP3 POP POP DUP2 SWAP1 SSTORE POP DUP11 DUP4 DUP2 SLOAD DUP2 LT PUSH2 0x24E4 JUMPI PUSH2 0x24E4 PUSH2 0x3B1A JUMP JUMPDEST PUSH1 0x0 SWAP2 DUP3 MSTORE PUSH1 0x20 SWAP2 DUP3 SWAP1 KECCAK256 PUSH1 0x4 SWAP1 SWAP2 MUL ADD SLOAD PUSH1 0x40 DUP1 MLOAD DUP7 DUP2 MSTORE PUSH1 0xFF DUP7 AND SWAP4 DUP2 ADD SWAP4 SWAP1 SWAP4 MSTORE DUP3 ADD DUP4 SWAP1 MSTORE PUSH1 0x1 PUSH1 0x1 PUSH1 0xA0 SHL SUB AND SWAP1 DUP16 SWAP1 PUSH32 0xAF8D69C5BF84763F900B51E0405FDC2AD4EAF8B44698617A07AE9C31BC41204C SWAP1 PUSH1 0x60 ADD PUSH1 0x40 MLOAD DUP1 SWAP2 SUB SWAP1 LOG3 POP JUMPDEST POP DUP1 PUSH2 0x2553 DUP2 PUSH2 0x3B5A JUMP JUMPDEST SWAP2 POP POP PUSH2 0x23F3 JUMP JUMPDEST POP DUP5 PUSH1 0xD6 PUSH1 0x0 DUP3 DUP3 SLOAD PUSH2 0x256E SWAP2 SWAP1 PUSH2 0x3AA0 JUMP JUMPDEST SWAP3 POP POP DUP2 SWAP1 SSTORE POP DUP3 PUSH1 0xD7 PUSH1 0x0 DUP3 DUP3 SLOAD PUSH2 0x2587 SWAP2 SWAP1 PUSH2 0x3AA0 JUMP JUMPDEST SWAP1 SWAP2 SSTORE POP POP DUP9 SLOAD PUSH3 0xFF00FF NOT AND PUSH3 0x10000 OR DUP10 SSTORE PUSH1 0x40 MLOAD DUP12 SWAP1 PUSH32 0xB8CA8B8466FCA767994635DC37682D654DA89BF89D11DE69E1025CCDB2CDFEE5 SWAP1 PUSH2 0x25D1 SWAP1 DUP14 SWAP1 DUP10 SWAP1 DUP9 SWAP1 PUSH2 0x3BBD JUMP JUMPDEST PUSH1 0x40 MLOAD DUP1 SWAP2 SUB SWAP1 LOG2 PUSH2 0x25E1 PUSH2 0x2F22 JUMP JUMPDEST POP POP POP POP POP POP POP POP POP POP POP JUMP JUMPDEST PUSH2 0xFAD PUSH2 0x1E6F JUMP JUMPDEST PUSH32 0x4910FDFA16FED3260ED0E7147F7CC6DA11A60208B5B9406D12A635614FFD9143 SLOAD PUSH1 0xFF AND ISZERO PUSH2 0x262E JUMPI PUSH2 0x2629 DUP4 PUSH2 0x30B6 JUMP JUMPDEST POP POP POP JUMP JUMPDEST DUP3 PUSH1 0x1 PUSH1 0x1 PUSH1 0xA0 SHL SUB AND PUSH4 0x52D1902D PUSH1 0x40 MLOAD DUP2 PUSH4 0xFFFFFFFF AND PUSH1 0xE0 SHL DUP2 MSTORE PUSH1 0x4 ADD PUSH1 0x20 PUSH1 0x40 MLOAD DUP1 DUP4 SUB DUP2 DUP7 GAS STATICCALL SWAP3 POP POP POP DUP1 ISZERO PUSH2 0x2688 JUMPI POP PUSH1 0x40 DUP1 MLOAD PUSH1 0x1F RETURNDATASIZE SWAP1 DUP2 ADD PUSH1 0x1F NOT AND DUP3 ADD SWAP1 SWAP3 MSTORE PUSH2 0x2685 SWAP2 DUP2 ADD SWAP1 PUSH2 0x3BDE JUMP JUMPDEST PUSH1 0x1 JUMPDEST PUSH2 0x26FA JUMPI PUSH1 0x40 MLOAD PUSH3 0x461BCD PUSH1 0xE5 SHL DUP2 MSTORE PUSH1 0x20 PUSH1 0x4 DUP3 ADD MSTORE PUSH1 0x2E PUSH1 0x24 DUP3 ADD MSTORE PUSH32 0x45524331393637557067726164653A206E657720696D706C656D656E74617469 PUSH1 0x44 DUP3 ADD MSTORE PUSH32 0x6F6E206973206E6F742055555053000000000000000000000000000000000000 PUSH1 0x64 DUP3 ADD MSTORE PUSH1 0x84 ADD PUSH2 0xA7E JUMP JUMPDEST PUSH32 0x360894A13BA1A3210667C828492DB98DCA3E2076CC3735A920A3CA505D382BBC DUP2 EQ PUSH2 0x278F JUMPI PUSH1 0x40 MLOAD PUSH3 0x461BCD PUSH1 0xE5 SHL DUP2 MSTORE PUSH1 0x20 PUSH1 0x4 DUP3 ADD MSTORE PUSH1 0x29 PUSH1 0x24 DUP3 ADD MSTORE PUSH32 0x45524331393637557067726164653A20756E737570706F727465642070726F78 PUSH1 0x44 DUP3 ADD MSTORE PUSH32 0x6961626C65555549440000000000000000000000000000000000000000000000 PUSH1 0x64 DUP3 ADD MSTORE PUSH1 0x84 ADD PUSH2 0xA7E JUMP JUMPDEST POP PUSH2 0x2629 DUP4 DUP4 DUP4 PUSH2 0x3181 JUMP JUMPDEST PUSH2 0x27A3 PUSH2 0x34FD JUMP JUMPDEST PUSH1 0x0 JUMPDEST PUSH1 0x7 DUP2 LT ISZERO PUSH2 0x2629 JUMPI PUSH1 0x1 DUP4 DUP3 PUSH1 0x7 DUP2 LT PUSH2 0x27C3 JUMPI PUSH2 0x27C3 PUSH2 0x3B1A JUMP JUMPDEST PUSH1 0x20 MUL ADD PUSH1 0x20 DUP2 ADD SWAP1 PUSH2 0x27D6 SWAP2 SWAP1 PUSH2 0x3BF7 JUMP JUMPDEST PUSH1 0xFF AND LT ISZERO DUP1 ISZERO PUSH2 0x280F JUMPI POP PUSH1 0x31 DUP4 DUP3 PUSH1 0x7 DUP2 LT PUSH2 0x27F6 JUMPI PUSH2 0x27F6 PUSH2 0x3B1A JUMP JUMPDEST PUSH1 0x20 MUL ADD PUSH1 0x20 DUP2 ADD SWAP1 PUSH2 0x2809 SWAP2 SWAP1 PUSH2 0x3BF7 JUMP JUMPDEST PUSH1 0xFF AND GT ISZERO JUMPDEST PUSH2 0x285B JUMPI PUSH1 0x40 MLOAD PUSH3 0x461BCD PUSH1 0xE5 SHL DUP2 MSTORE PUSH1 0x20 PUSH1 0x4 DUP3 ADD MSTORE PUSH1 0x13 PUSH1 0x24 DUP3 ADD MSTORE PUSH32 0x4E756D626572206F7574206F662072616E676500000000000000000000000000 PUSH1 0x44 DUP3 ADD MSTORE PUSH1 0x64 ADD PUSH2 0xA7E JUMP JUMPDEST DUP2 DUP4 DUP3 PUSH1 0x7 DUP2 LT PUSH2 0x286E JUMPI PUSH2 0x286E PUSH2 0x3B1A JUMP JUMPDEST PUSH1 0x20 MUL ADD PUSH1 0x20 DUP2 ADD SWAP1 PUSH2 0x2881 SWAP2 SWAP1 PUSH2 0x3BF7 JUMP JUMPDEST PUSH1 0xFF AND PUSH1 0x32 DUP2 LT PUSH2 0x2894 JUMPI PUSH2 0x2894 PUSH2 0x3B1A JUMP JUMPDEST PUSH1 0x20 MUL ADD MLOAD ISZERO PUSH2 0x28E6 JUMPI PUSH1 0x40 MLOAD PUSH3 0x461BCD PUSH1 0xE5 SHL DUP2 MSTORE PUSH1 0x20 PUSH1 0x4 DUP3 ADD MSTORE PUSH1 0x1C PUSH1 0x24 DUP3 ADD MSTORE PUSH32 0x4475706C6963617465206E756D626572206E6F7420616C6C6F77656400000000 PUSH1 0x44 DUP3 ADD MSTORE PUSH1 0x64 ADD PUSH2 0xA7E JUMP JUMPDEST PUSH1 0x1 DUP3 DUP5 DUP4 PUSH1 0x7 DUP2 LT PUSH2 0x28FB JUMPI PUSH2 0x28FB PUSH2 0x3B1A JUMP JUMPDEST PUSH1 0x20 MUL ADD PUSH1 0x20 DUP2 ADD SWAP1 PUSH2 0x290E SWAP2 SWAP1 PUSH2 0x3BF7 JUMP JUMPDEST PUSH1 0xFF AND PUSH1 0x32 DUP2 LT PUSH2 0x2921 JUMPI PUSH2 0x2921 PUSH2 0x3B1A JUMP JUMPDEST SWAP2 ISZERO ISZERO PUSH1 0x20 SWAP1 SWAP3 MUL ADD MSTORE DUP1 PUSH2 0x2935 DUP2 PUSH2 0x3B5A JUMP JUMPDEST SWAP2 POP POP PUSH2 0x27A6 JUMP JUMPDEST PUSH1 0xD8 SLOAD PUSH1 0x0 SWAP1 DUP2 MSTORE PUSH1 0xD2 PUSH1 0x20 MSTORE PUSH1 0x40 SWAP1 KECCAK256 DUP1 SLOAD PUSH1 0xFF AND PUSH2 0x2991 JUMPI PUSH1 0x40 MLOAD PUSH3 0x461BCD PUSH1 0xE5 SHL DUP2 MSTORE PUSH1 0x20 PUSH1 0x4 DUP3 ADD MSTORE PUSH1 0xF PUSH1 0x24 DUP3 ADD MSTORE PUSH15 0x139BC81858DD1A5D99481C9BDD5B99 PUSH1 0x8A SHL PUSH1 0x44 DUP3 ADD MSTORE PUSH1 0x64 ADD PUSH2 0xA7E JUMP JUMPDEST DUP1 SLOAD PUSH2 0x100 SWAP1 DIV PUSH1 0xFF AND ISZERO PUSH2 0x29E8 JUMPI PUSH1 0x40 MLOAD PUSH3 0x461BCD PUSH1 0xE5 SHL DUP2 MSTORE PUSH1 0x20 PUSH1 0x4 DUP3 ADD MSTORE PUSH1 0x16 PUSH1 0x24 DUP3 ADD MSTORE PUSH32 0x4472617720616C72656164792072657175657374656400000000000000000000 PUSH1 0x44 DUP3 ADD MSTORE PUSH1 0x64 ADD PUSH2 0xA7E JUMP JUMPDEST DUP1 PUSH1 0x2 ADD SLOAD TIMESTAMP LT ISZERO PUSH2 0x2A3C JUMPI PUSH1 0x40 MLOAD PUSH3 0x461BCD PUSH1 0xE5 SHL DUP2 MSTORE PUSH1 0x20 PUSH1 0x4 DUP3 ADD MSTORE PUSH1 0x12 PUSH1 0x24 DUP3 ADD MSTORE PUSH32 0x526F756E64207374696C6C206163746976650000000000000000000000000000 PUSH1 0x44 DUP3 ADD MSTORE PUSH1 0x64 ADD PUSH2 0xA7E JUMP JUMPDEST DUP1 PUSH1 0x3 ADD SLOAD PUSH1 0xD7 PUSH1 0x0 DUP3 DUP3 SLOAD PUSH2 0x2A52 SWAP2 SWAP1 PUSH2 0x3AA0 JUMP JUMPDEST SWAP1 SWAP2 SSTORE POP POP DUP1 SLOAD PUSH3 0xFF00FF NOT AND PUSH3 0x10000 OR DUP2 SSTORE PUSH1 0xD8 SLOAD PUSH1 0x3 DUP3 ADD SLOAD PUSH1 0x40 MLOAD PUSH32 0x3FD1C85CDA6246C06E5680D9888D379FE80D0234F53064BA2F3E3EF7698DFD4B SWAP2 PUSH2 0x2AA0 SWAP2 SWAP1 DUP2 MSTORE PUSH1 0x20 ADD SWAP1 JUMP JUMPDEST PUSH1 0x40 MLOAD DUP1 SWAP2 SUB SWAP1 LOG2 PUSH2 0xFAD PUSH2 0x2F22 JUMP JUMPDEST PUSH1 0xD8 SLOAD PUSH1 0x0 SWAP1 DUP2 MSTORE PUSH1 0xD2 PUSH1 0x20 SWAP1 DUP2 MSTORE PUSH1 0x40 DUP1 DUP4 KECCAK256 PUSH1 0xC9 SLOAD DUP3 MLOAD PUSH1 0xC0 DUP2 ADD DUP5 MSTORE PUSH1 0xCB SLOAD DUP2 MSTORE PUSH1 0xCA SLOAD DUP2 DUP7 ADD MSTORE PUSH1 0xCC SLOAD PUSH2 0xFFFF PUSH5 0x100000000 DUP3 DIV AND DUP3 DUP7 ADD MSTORE PUSH4 0xFFFFFFFF DUP1 DUP3 AND PUSH1 0x60 DUP5 ADD MSTORE PUSH7 0x1000000000000 SWAP1 SWAP2 DIV AND PUSH1 0x80 DUP3 ADD MSTORE DUP4 MLOAD SWAP5 DUP6 ADD SWAP1 SWAP4 MSTORE PUSH1 0xDB SLOAD PUSH1 0xFF AND ISZERO ISZERO DUP5 MSTORE SWAP1 SWAP3 PUSH1 0x1 PUSH1 0x1 PUSH1 0xA0 SHL SUB SWAP1 SWAP2 AND SWAP2 PUSH4 0x9B1C385E SWAP2 PUSH1 0xA0 DUP3 ADD SWAP1 PUSH2 0x2B40 SWAP1 PUSH2 0x31A6 JUMP JUMPDEST DUP2 MSTORE POP PUSH1 0x40 MLOAD DUP3 PUSH4 0xFFFFFFFF AND PUSH1 0xE0 SHL DUP2 MSTORE PUSH1 0x4 ADD PUSH2 0x2B5F SWAP2 SWAP1 PUSH2 0x3C12 JUMP JUMPDEST PUSH1 0x20 PUSH1 0x40 MLOAD DUP1 DUP4 SUB DUP2 PUSH1 0x0 DUP8 GAS CALL ISZERO DUP1 ISZERO PUSH2 0x2B7E JUMPI RETURNDATASIZE PUSH1 0x0 DUP1 RETURNDATACOPY RETURNDATASIZE PUSH1 0x0 REVERT JUMPDEST POP POP POP POP PUSH1 0x40 MLOAD RETURNDATASIZE PUSH1 0x1F NOT PUSH1 0x1F DUP3 ADD AND DUP3 ADD DUP1 PUSH1 0x40 MSTORE POP DUP2 ADD SWAP1 PUSH2 0x2BA2 SWAP2 SWAP1 PUSH2 0x3BDE JUMP JUMPDEST PUSH1 0x40 DUP1 MLOAD PUSH1 0x60 DUP2 ADD DUP3 MSTORE PUSH1 0x1 DUP1 DUP3 MSTORE PUSH1 0x0 PUSH1 0x20 DUP1 DUP5 ADD DUP3 DUP2 MSTORE DUP6 MLOAD DUP4 DUP2 MSTORE DUP1 DUP4 ADD DUP8 MSTORE DUP6 DUP8 ADD SWAP1 DUP2 MSTORE DUP8 DUP5 MSTORE PUSH1 0xD0 DUP4 MSTORE SWAP6 SWAP1 SWAP3 KECCAK256 DUP5 MLOAD DUP2 SLOAD SWAP4 MLOAD PUSH2 0xFFFF NOT SWAP1 SWAP5 AND SWAP1 ISZERO ISZERO PUSH2 0xFF00 NOT AND OR PUSH2 0x100 SWAP4 ISZERO ISZERO SWAP4 SWAP1 SWAP4 MUL SWAP3 SWAP1 SWAP3 OR DUP3 SSTORE SWAP4 MLOAD DUP1 MLOAD SWAP6 SWAP8 POP SWAP3 SWAP5 SWAP1 SWAP4 PUSH2 0x2C16 SWAP4 SWAP3 DUP6 ADD SWAP3 ADD SWAP1 PUSH2 0x353B JUMP JUMPDEST POP POP PUSH1 0xD8 SLOAD PUSH1 0x0 DUP5 DUP2 MSTORE PUSH1 0xD1 PUSH1 0x20 SWAP1 DUP2 MSTORE PUSH1 0x40 SWAP2 DUP3 SWAP1 KECCAK256 SWAP3 SWAP1 SWAP3 SSTORE PUSH1 0xCD DUP6 SWAP1 SSTORE DUP4 SLOAD PUSH2 0x100 PUSH2 0xFF00 NOT SWAP1 SWAP2 AND OR DUP5 SSTORE PUSH1 0xCC SLOAD DUP2 MLOAD DUP7 DUP2 MSTORE PUSH7 0x1000000000000 SWAP1 SWAP2 DIV PUSH4 0xFFFFFFFF AND SWAP3 DUP2 ADD SWAP3 SWAP1 SWAP3 MSTORE PUSH32 0xCC58B13AD3EAB50626C6A6300B1D139CD6EBB1688A7CCED9461C2F7E762665EE SWAP3 POP ADD PUSH1 0x40 MLOAD DUP1 SWAP2 SUB SWAP1 LOG1 PUSH1 0xD8 SLOAD PUSH1 0x40 MLOAD DUP4 DUP2 MSTORE PUSH32 0xC67DDA8E11F1AA941C7E74466B1859A07A32F46AAF641D29B83BE348424D93CD SWAP1 PUSH1 0x20 ADD PUSH1 0x40 MLOAD DUP1 SWAP2 SUB SWAP1 LOG2 POP SWAP1 JUMP JUMPDEST PUSH1 0x0 SLOAD PUSH2 0x100 SWAP1 DIV PUSH1 0xFF AND PUSH2 0x2D48 JUMPI PUSH1 0x40 MLOAD PUSH3 0x461BCD PUSH1 0xE5 SHL DUP2 MSTORE PUSH1 0x20 PUSH1 0x4 DUP3 ADD MSTORE PUSH1 0x2B PUSH1 0x24 DUP3 ADD MSTORE PUSH32 0x496E697469616C697A61626C653A20636F6E7472616374206973206E6F742069 PUSH1 0x44 DUP3 ADD MSTORE PUSH32 0x6E697469616C697A696E67000000000000000000000000000000000000000000 PUSH1 0x64 DUP3 ADD MSTORE PUSH1 0x84 ADD PUSH2 0xA7E JUMP JUMPDEST PUSH2 0x1906 CALLER JUMPDEST PUSH1 0x33 DUP1 SLOAD PUSH1 0x1 PUSH1 0x1 PUSH1 0xA0 SHL SUB DUP4 DUP2 AND PUSH20 0xFFFFFFFFFFFFFFFFFFFFFFFFFFFFFFFFFFFFFFFF NOT DUP4 AND DUP2 OR SWAP1 SWAP4 SSTORE PUSH1 0x40 MLOAD SWAP2 AND SWAP2 SWAP1 DUP3 SWAP1 PUSH32 0x8BE0079C531659141344CD1FD0A4F28419497F9722A3DAAFE3B4186F6B6457E0 SWAP1 PUSH1 0x0 SWAP1 LOG3 POP POP JUMP JUMPDEST PUSH1 0x0 JUMPDEST PUSH1 0x7 DUP2 LT ISZERO PUSH2 0x175A JUMPI PUSH1 0x0 PUSH2 0x2DC5 DUP3 PUSH1 0x1 PUSH2 0x3AA0 JUMP JUMPDEST SWAP1 POP JUMPDEST PUSH1 0x7 DUP2 LT ISZERO PUSH2 0x2E90 JUMPI DUP3 DUP3 PUSH1 0x7 DUP2 LT PUSH2 0x2DE3 JUMPI PUSH2 0x2DE3 PUSH2 0x3B1A JUMP JUMPDEST PUSH1 0x20 MUL ADD MLOAD PUSH1 0xFF AND DUP4 DUP3 PUSH1 0x7 DUP2 LT PUSH2 0x2DFD JUMPI PUSH2 0x2DFD PUSH2 0x3B1A JUMP JUMPDEST PUSH1 0x20 MUL ADD MLOAD PUSH1 0xFF AND LT ISZERO PUSH2 0x2E7E JUMPI PUSH1 0x0 DUP4 DUP4 PUSH1 0x7 DUP2 LT PUSH2 0x2E1F JUMPI PUSH2 0x2E1F PUSH2 0x3B1A JUMP JUMPDEST PUSH1 0x20 MUL ADD MLOAD SWAP1 POP DUP4 DUP3 PUSH1 0x7 DUP2 LT PUSH2 0x2E38 JUMPI PUSH2 0x2E38 PUSH2 0x3B1A JUMP JUMPDEST PUSH1 0x20 MUL ADD MLOAD DUP5 DUP5 PUSH1 0x7 DUP2 LT PUSH2 0x2E4F JUMPI PUSH2 0x2E4F PUSH2 0x3B1A JUMP JUMPDEST PUSH1 0xFF SWAP1 SWAP3 AND PUSH1 0x20 SWAP3 SWAP1 SWAP3 MUL ADD MSTORE DUP1 DUP5 DUP4 PUSH1 0x7 DUP2 LT PUSH2 0x2E6F JUMPI PUSH2 0x2E6F PUSH2 0x3B1A JUMP JUMPDEST PUSH1 0xFF SWAP1 SWAP3 AND PUSH1 0x20 SWAP3 SWAP1 SWAP3 MUL ADD MSTORE POP JUMPDEST DUP1 PUSH2 0x2E88 DUP2 PUSH2 0x3B5A JUMP JUMPDEST SWAP2 POP POP PUSH2 0x2DC8 JUMP JUMPDEST POP DUP1 PUSH2 0x2E9B DUP2 PUSH2 0x3B5A JUMP JUMPDEST SWAP2 POP POP PUSH2 0x2DAF JUMP JUMPDEST PUSH1 0x0 DUP1 JUMPDEST PUSH1 0x7 DUP2 PUSH1 0xFF AND LT ISZERO PUSH2 0x2F1B JUMPI DUP3 DUP2 PUSH1 0xFF AND PUSH1 0x7 DUP2 LT PUSH2 0x2EC8 JUMPI PUSH2 0x2EC8 PUSH2 0x3B1A JUMP JUMPDEST PUSH1 0x20 MUL ADD MLOAD PUSH1 0xFF AND DUP5 DUP3 PUSH1 0xFF AND PUSH1 0x7 DUP2 LT PUSH2 0x2EE5 JUMPI PUSH2 0x2EE5 PUSH2 0x3B1A JUMP JUMPDEST PUSH1 0x20 MUL ADD MLOAD PUSH1 0xFF AND SUB PUSH2 0x2F04 JUMPI DUP2 PUSH2 0x2EFC DUP2 PUSH2 0x3B9E JUMP JUMPDEST SWAP3 POP POP PUSH2 0x2F09 JUMP JUMPDEST PUSH2 0x2F1B JUMP JUMPDEST DUP1 PUSH2 0x2F13 DUP2 PUSH2 0x3B9E JUMP JUMPDEST SWAP2 POP POP PUSH2 0x2EA7 JUMP JUMPDEST POP SWAP3 SWAP2 POP POP JUMP JUMPDEST PUSH1 0xD8 SLOAD ISZERO DUP1 PUSH2 0x2F43 JUMPI POP PUSH1 0xD8 SLOAD PUSH1 0x0 SWAP1 DUP2 MSTORE PUSH1 0xD2 PUSH1 0x20 MSTORE PUSH1 0x40 SWAP1 KECCAK256 SLOAD PUSH1 0xFF AND ISZERO JUMPDEST PUSH2 0x2F8F JUMPI PUSH1 0x40 MLOAD PUSH3 0x461BCD PUSH1 0xE5 SHL DUP2 MSTORE PUSH1 0x20 PUSH1 0x4 DUP3 ADD MSTORE PUSH1 0x1A PUSH1 0x24 DUP3 ADD MSTORE PUSH32 0x43757272656E7420726F756E64207374696C6C20616374697665000000000000 PUSH1 0x44 DUP3 ADD MSTORE PUSH1 0x64 ADD PUSH2 0xA7E JUMP JUMPDEST PUSH1 0xD8 DUP1 SLOAD SWAP1 PUSH1 0x0 PUSH2 0x2F9F DUP4 PUSH2 0x3B5A JUMP JUMPDEST SWAP2 SWAP1 POP SSTORE POP PUSH1 0x40 MLOAD DUP1 PUSH1 0xC0 ADD PUSH1 0x40 MSTORE DUP1 PUSH1 0x1 ISZERO ISZERO DUP2 MSTORE PUSH1 0x20 ADD PUSH1 0x0 ISZERO ISZERO DUP2 MSTORE PUSH1 0x20 ADD PUSH1 0x0 ISZERO ISZERO DUP2 MSTORE PUSH1 0x20 ADD TIMESTAMP DUP2 MSTORE PUSH1 0x20 ADD PUSH1 0xDA SLOAD TIMESTAMP PUSH2 0x2FDE SWAP2 SWAP1 PUSH2 0x3AA0 JUMP JUMPDEST DUP2 MSTORE PUSH1 0xD7 SLOAD PUSH1 0x20 SWAP2 DUP3 ADD MSTORE PUSH1 0xD8 DUP1 SLOAD PUSH1 0x0 SWAP1 DUP2 MSTORE PUSH1 0xD2 DUP4 MSTORE PUSH1 0x40 SWAP1 DUP2 SWAP1 KECCAK256 DUP5 MLOAD DUP2 SLOAD SWAP5 DUP7 ADD MLOAD SWAP3 DUP7 ADD MLOAD ISZERO ISZERO PUSH3 0x10000 MUL PUSH3 0xFF0000 NOT SWAP4 ISZERO ISZERO PUSH2 0x100 MUL PUSH2 0xFF00 NOT SWAP3 ISZERO ISZERO SWAP3 SWAP1 SWAP3 AND PUSH2 0xFFFF NOT SWAP1 SWAP7 AND SWAP6 SWAP1 SWAP6 OR OR SWAP2 SWAP1 SWAP2 AND SWAP3 SWAP1 SWAP3 OR DUP3 SSTORE PUSH1 0x60 DUP4 ADD MLOAD PUSH1 0x1 DUP4 ADD SSTORE PUSH1 0x80 DUP4 ADD MLOAD PUSH1 0x2 DUP4 ADD SSTORE PUSH1 0xA0 SWAP1 SWAP3 ADD MLOAD PUSH1 0x3 SWAP1 SWAP2 ADD SSTORE SLOAD PUSH1 0xDA SLOAD PUSH32 0xFD9D17E5565DEEA3D25918D95FC398673B9445EF0A96D12EAF3AB2B198756C65 SWAP1 TIMESTAMP SWAP1 PUSH2 0x308E SWAP1 DUP3 PUSH2 0x3AA0 JUMP JUMPDEST PUSH1 0xD7 SLOAD PUSH1 0x40 DUP1 MLOAD SWAP4 DUP5 MSTORE PUSH1 0x20 DUP5 ADD SWAP3 SWAP1 SWAP3 MSTORE SWAP1 DUP3 ADD MSTORE PUSH1 0x60 ADD PUSH1 0x40 MLOAD DUP1 SWAP2 SUB SWAP1 LOG2 PUSH1 0x0 PUSH1 0xD7 SSTORE JUMP JUMPDEST PUSH1 0x1 PUSH1 0x1 PUSH1 0xA0 SHL SUB DUP2 AND EXTCODESIZE PUSH2 0x3133 JUMPI PUSH1 0x40 MLOAD PUSH3 0x461BCD PUSH1 0xE5 SHL DUP2 MSTORE PUSH1 0x20 PUSH1 0x4 DUP3 ADD MSTORE PUSH1 0x2D PUSH1 0x24 DUP3 ADD MSTORE PUSH32 0x455243313936373A206E657720696D706C656D656E746174696F6E206973206E PUSH1 0x44 DUP3 ADD MSTORE PUSH32 0x6F74206120636F6E747261637400000000000000000000000000000000000000 PUSH1 0x64 DUP3 ADD MSTORE PUSH1 0x84 ADD PUSH2 0xA7E JUMP JUMPDEST PUSH32 0x360894A13BA1A3210667C828492DB98DCA3E2076CC3735A920A3CA505D382BBC DUP1 SLOAD PUSH20 0xFFFFFFFFFFFFFFFFFFFFFFFFFFFFFFFFFFFFFFFF NOT AND PUSH1 0x1 PUSH1 0x1 PUSH1 0xA0 SHL SUB SWAP3 SWAP1 SWAP3 AND SWAP2 SWAP1 SWAP2 OR SWAP1 SSTORE JUMP JUMPDEST PUSH2 0x318A DUP4 PUSH2 0x3244 JUMP JUMPDEST PUSH1 0x0 DUP3 MLOAD GT DUP1 PUSH2 0x3197 JUMPI POP DUP1 JUMPDEST ISZERO PUSH2 0x2629 JUMPI PUSH2 0xE2F DUP4 DUP4 PUSH2 0x3284 JUMP JUMPDEST PUSH1 0x60 PUSH32 0x92FD13387C7FE7BEFBC38D303D6468778FB9731BC4583F17D92989C6FCFDEAAA DUP3 PUSH1 0x40 MLOAD PUSH1 0x24 ADD PUSH2 0x31DF SWAP2 MLOAD ISZERO ISZERO DUP2 MSTORE PUSH1 0x20 ADD SWAP1 JUMP JUMPDEST PUSH1 0x40 DUP1 MLOAD PUSH1 0x1F NOT DUP2 DUP5 SUB ADD DUP2 MSTORE SWAP2 SWAP1 MSTORE PUSH1 0x20 DUP2 ADD DUP1 MLOAD PUSH28 0xFFFFFFFFFFFFFFFFFFFFFFFFFFFFFFFFFFFFFFFFFFFFFFFFFFFFFFFF AND PUSH32 0xFFFFFFFF00000000000000000000000000000000000000000000000000000000 SWAP1 SWAP4 AND SWAP3 SWAP1 SWAP3 OR SWAP1 SWAP2 MSTORE SWAP3 SWAP2 POP POP JUMP JUMPDEST PUSH2 0x324D DUP2 PUSH2 0x30B6 JUMP JUMPDEST PUSH1 0x40 MLOAD PUSH1 0x1 PUSH1 0x1 PUSH1 0xA0 SHL SUB DUP3 AND SWAP1 PUSH32 0xBC7CD75A20EE27FD9ADEBAB32041F755214DBC6BFFA90CC0225B39DA2E5C2D3B SWAP1 PUSH1 0x0 SWAP1 LOG2 POP JUMP JUMPDEST PUSH1 0x60 PUSH2 0x32A9 DUP4 DUP4 PUSH1 0x40 MLOAD DUP1 PUSH1 0x60 ADD PUSH1 0x40 MSTORE DUP1 PUSH1 0x27 DUP2 MSTORE PUSH1 0x20 ADD PUSH2 0x3C9F PUSH1 0x27 SWAP2 CODECOPY PUSH2 0x32B0 JUMP JUMPDEST SWAP4 SWAP3 POP POP POP JUMP JUMPDEST PUSH1 0x60 PUSH1 0x0 DUP1 DUP6 PUSH1 0x1 PUSH1 0x1 PUSH1 0xA0 SHL SUB AND DUP6 PUSH1 0x40 MLOAD PUSH2 0x32CD SWAP2 SWAP1 PUSH2 0x3C6F JUMP JUMPDEST PUSH1 0x0 PUSH1 0x40 MLOAD DUP1 DUP4 SUB DUP2 DUP6 GAS DELEGATECALL SWAP2 POP POP RETURNDATASIZE DUP1 PUSH1 0x0 DUP2 EQ PUSH2 0x3308 JUMPI PUSH1 0x40 MLOAD SWAP2 POP PUSH1 0x1F NOT PUSH1 0x3F RETURNDATASIZE ADD AND DUP3 ADD PUSH1 0x40 MSTORE RETURNDATASIZE DUP3 MSTORE RETURNDATASIZE PUSH1 0x0 PUSH1 0x20 DUP5 ADD RETURNDATACOPY PUSH2 0x330D JUMP JUMPDEST PUSH1 0x60 SWAP2 POP JUMPDEST POP SWAP2 POP SWAP2 POP PUSH2 0x331E DUP7 DUP4 DUP4 DUP8 PUSH2 0x3328 JUMP JUMPDEST SWAP7 SWAP6 POP POP POP POP POP POP JUMP JUMPDEST PUSH1 0x60 DUP4 ISZERO PUSH2 0x3397 JUMPI DUP3 MLOAD PUSH1 0x0 SUB PUSH2 0x3390 JUMPI PUSH1 0x1 PUSH1 0x1 PUSH1 0xA0 SHL SUB DUP6 AND EXTCODESIZE PUSH2 0x3390 JUMPI PUSH1 0x40 MLOAD PUSH3 0x461BCD PUSH1 0xE5 SHL DUP2 MSTORE PUSH1 0x20 PUSH1 0x4 DUP3 ADD MSTORE PUSH1 0x1D PUSH1 0x24 DUP3 ADD MSTORE PUSH32 0x416464726573733A2063616C6C20746F206E6F6E2D636F6E7472616374000000 PUSH1 0x44 DUP3 ADD MSTORE PUSH1 0x64 ADD PUSH2 0xA7E JUMP JUMPDEST POP DUP2 PUSH2 0x33A1 JUMP JUMPDEST PUSH2 0x33A1 DUP4 DUP4 PUSH2 0x33A9 JUMP JUMPDEST SWAP5 SWAP4 POP POP POP POP JUMP JUMPDEST DUP2 MLOAD ISZERO PUSH2 0x33B9 JUMPI DUP2 MLOAD DUP1 DUP4 PUSH1 0x20 ADD REVERT JUMPDEST DUP1 PUSH1 0x40 MLOAD PUSH3 0x461BCD PUSH1 0xE5 SHL DUP2 MSTORE PUSH1 0x4 ADD PUSH2 0xA7E SWAP2 SWAP1 PUSH2 0x3C8B JUMP JUMPDEST DUP3 DUP1 SLOAD DUP3 DUP3 SSTORE SWAP1 PUSH1 0x0 MSTORE PUSH1 0x20 PUSH1 0x0 KECCAK256 SWAP1 DUP2 ADD SWAP3 DUP3 ISZERO PUSH2 0x340E JUMPI SWAP2 PUSH1 0x20 MUL DUP3 ADD JUMPDEST DUP3 DUP2 GT ISZERO PUSH2 0x340E JUMPI DUP3 CALLDATALOAD DUP3 SSTORE SWAP2 PUSH1 0x20 ADD SWAP2 SWAP1 PUSH1 0x1 ADD SWAP1 PUSH2 0x33F3 JUMP JUMPDEST POP PUSH2 0x341A SWAP3 SWAP2 POP PUSH2 0x3576 JUMP JUMPDEST POP SWAP1 JUMP JUMPDEST PUSH1 0x1 DUP4 ADD SWAP2 DUP4 SWAP1 DUP3 ISZERO PUSH2 0x340E JUMPI SWAP2 PUSH1 0x20 MUL DUP3 ADD PUSH1 0x0 JUMPDEST DUP4 DUP3 GT ISZERO PUSH2 0x3472 JUMPI DUP4 MLOAD DUP4 DUP3 PUSH2 0x100 EXP DUP2 SLOAD DUP2 PUSH1 0xFF MUL NOT AND SWAP1 DUP4 PUSH1 0xFF AND MUL OR SWAP1 SSTORE POP SWAP3 PUSH1 0x20 ADD SWAP3 PUSH1 0x1 ADD PUSH1 0x20 DUP2 PUSH1 0x0 ADD DIV SWAP3 DUP4 ADD SWAP3 PUSH1 0x1 SUB MUL PUSH2 0x3434 JUMP JUMPDEST DUP1 ISZERO PUSH2 0x349F JUMPI DUP3 DUP2 PUSH2 0x100 EXP DUP2 SLOAD SWAP1 PUSH1 0xFF MUL NOT AND SWAP1 SSTORE PUSH1 0x1 ADD PUSH1 0x20 DUP2 PUSH1 0x0 ADD DIV SWAP3 DUP4 ADD SWAP3 PUSH1 0x1 SUB MUL PUSH2 0x3472 JUMP JUMPDEST POP POP PUSH2 0x341A SWAP3 SWAP2 POP PUSH2 0x3576 JUMP JUMPDEST PUSH1 0x1 DUP4 ADD SWAP2 DUP4 SWAP1 DUP3 ISZERO PUSH2 0x340E JUMPI SWAP2 PUSH1 0x1F ADD PUSH1 0x20 SWAP1 DIV DUP3 ADD JUMPDEST DUP3 DUP2 GT ISZERO PUSH2 0x340E JUMPI DUP3 SLOAD DUP3 SSTORE SWAP2 PUSH1 0x1 ADD SWAP2 SWAP1 PUSH1 0x1 ADD SWAP1 PUSH2 0x34C4 JUMP JUMPDEST PUSH1 0x40 MLOAD DUP1 PUSH1 0xE0 ADD PUSH1 0x40 MSTORE DUP1 PUSH1 0x7 SWAP1 PUSH1 0x20 DUP3 MUL DUP1 CALLDATASIZE DUP4 CALLDATACOPY POP SWAP2 SWAP3 SWAP2 POP POP JUMP JUMPDEST PUSH1 0x40 MLOAD DUP1 PUSH2 0x640 ADD PUSH1 0x40 MSTORE DUP1 PUSH1 0x32 SWAP1 PUSH1 0x20 DUP3 MUL DUP1 CALLDATASIZE DUP4 CALLDATACOPY POP SWAP2 SWAP3 SWAP2 POP POP JUMP JUMPDEST PUSH1 0x40 MLOAD DUP1 PUSH2 0x100 ADD PUSH1 0x40 MSTORE DUP1 PUSH1 0x8 SWAP1 PUSH1 0x20 DUP3 MUL DUP1 CALLDATASIZE DUP4 CALLDATACOPY POP SWAP2 SWAP3 SWAP2 POP POP JUMP JUMPDEST DUP3 DUP1 SLOAD DUP3 DUP3 SSTORE SWAP1 PUSH1 0x0 MSTORE PUSH1 0x20 PUSH1 0x0 KECCAK256 SWAP1 DUP2 ADD SWAP3 DUP3 ISZERO PUSH2 0x340E JUMPI SWAP2 PUSH1 0x20 MUL DUP3 ADD JUMPDEST DUP3 DUP2 GT ISZERO PUSH2 0x340E JUMPI DUP3 MLOAD DUP3 SSTORE SWAP2 PUSH1 0x20 ADD SWAP2 SWAP1 PUSH1 0x1 ADD SWAP1 PUSH2 0x355B JUMP JUMPDEST JUMPDEST DUP1 DUP3 GT ISZERO PUSH2 0x341A JUMPI PUSH1 0x0 DUP2 SSTORE PUSH1 0x1 ADD PUSH2 0x3577 JUMP JUMPDEST PUSH1 0x0 PUSH1 0x20 DUP3 DUP5 SUB SLT ISZERO PUSH2 0x359D JUMPI PUSH1 0x0 DUP1 REVERT JUMPDEST POP CALLDATALOAD SWAP2 SWAP1 POP JUMP JUMPDEST PUSH1 0x0 DUP1 PUSH1 0x0 PUSH1 0x40 DUP5 DUP7 SUB SLT ISZERO PUSH2 0x35B9 JUMPI PUSH1 0x0 DUP1 REVERT JUMPDEST DUP4 CALLDATALOAD SWAP3 POP PUSH1 0x20 DUP5 ADD CALLDATALOAD PUSH8 0xFFFFFFFFFFFFFFFF DUP1 DUP3 GT ISZERO PUSH2 0x35D8 JUMPI PUSH1 0x0 DUP1 REVERT JUMPDEST DUP2 DUP7 ADD SWAP2 POP DUP7 PUSH1 0x1F DUP4 ADD SLT PUSH2 0x35EC JUMPI PUSH1 0x0 DUP1 REVERT JUMPDEST DUP2 CALLDATALOAD DUP2 DUP2 GT ISZERO PUSH2 0x35FB JUMPI PUSH1 0x0 DUP1 REVERT JUMPDEST DUP8 PUSH1 0x20 DUP3 PUSH1 0x5 SHL DUP6 ADD ADD GT ISZERO PUSH2 0x3610 JUMPI PUSH1 0x0 DUP1 REVERT JUMPDEST PUSH1 0x20 DUP4 ADD SWAP5 POP DUP1 SWAP4 POP POP POP POP SWAP3 POP SWAP3 POP SWAP3 JUMP JUMPDEST DUP1 CALLDATALOAD PUSH1 0x1 PUSH1 0x1 PUSH1 0xA0 SHL SUB DUP2 AND DUP2 EQ PUSH2 0x363A JUMPI PUSH1 0x0 DUP1 REVERT JUMPDEST SWAP2 SWAP1 POP JUMP JUMPDEST PUSH1 0x0 PUSH1 0x20 DUP3 DUP5 SUB SLT ISZERO PUSH2 0x3651 JUMPI PUSH1 0x0 DUP1 REVERT JUMPDEST PUSH2 0x32A9 DUP3 PUSH2 0x3623 JUMP JUMPDEST PUSH1 0x0 PUSH1 0xE0 DUP3 DUP5 SUB SLT ISZERO PUSH2 0x366C JUMPI PUSH1 0x0 DUP1 REVERT JUMPDEST DUP3 PUSH1 0xE0 DUP4 ADD GT ISZERO PUSH2 0x367C JUMPI PUSH1 0x0 DUP1 REVERT JUMPDEST POP SWAP2 SWAP1 POP JUMP JUMPDEST PUSH1 0x0 DUP2 MLOAD DUP1 DUP5 MSTORE PUSH1 0x20 DUP1 DUP6 ADD SWAP5 POP DUP1 DUP5 ADD PUSH1 0x0 JUMPDEST DUP4 DUP2 LT ISZERO PUSH2 0x36B2 JUMPI DUP2 MLOAD DUP8 MSTORE SWAP6 DUP3 ADD SWAP6 SWAP1 DUP3 ADD SWAP1 PUSH1 0x1 ADD PUSH2 0x3696 JUMP JUMPDEST POP SWAP5 SWAP6 SWAP5 POP POP POP POP POP JUMP JUMPDEST PUSH1 0x20 DUP2 MSTORE PUSH1 0x0 PUSH2 0x32A9 PUSH1 0x20 DUP4 ADD DUP5 PUSH2 0x3682 JUMP JUMPDEST PUSH1 0x0 DUP1 PUSH1 0x20 DUP4 DUP6 SUB SLT ISZERO PUSH2 0x36E3 JUMPI PUSH1 0x0 DUP1 REVERT JUMPDEST DUP3 CALLDATALOAD PUSH8 0xFFFFFFFFFFFFFFFF DUP1 DUP3 GT ISZERO PUSH2 0x36FB JUMPI PUSH1 0x0 DUP1 REVERT JUMPDEST DUP2 DUP6 ADD SWAP2 POP DUP6 PUSH1 0x1F DUP4 ADD SLT PUSH2 0x370F JUMPI PUSH1 0x0 DUP1 REVERT JUMPDEST DUP2 CALLDATALOAD DUP2 DUP2 GT ISZERO PUSH2 0x371E JUMPI PUSH1 0x0 DUP1 REVERT JUMPDEST DUP7 PUSH1 0x20 DUP3 DUP6 ADD ADD GT ISZERO PUSH2 0x3730 JUMPI PUSH1 0x0 DUP1 REVERT JUMPDEST PUSH1 0x20 SWAP3 SWAP1 SWAP3 ADD SWAP7 SWAP2 SWAP6 POP SWAP1 SWAP4 POP POP POP POP JUMP JUMPDEST PUSH4 0x4E487B71 PUSH1 0xE0 SHL PUSH1 0x0 MSTORE PUSH1 0x41 PUSH1 0x4 MSTORE PUSH1 0x24 PUSH1 0x0 REVERT JUMPDEST PUSH1 0x0 DUP1 PUSH1 0x40 DUP4 DUP6 SUB SLT ISZERO PUSH2 0x376B JUMPI PUSH1 0x0 DUP1 REVERT JUMPDEST PUSH2 0x3774 DUP4 PUSH2 0x3623 JUMP JUMPDEST SWAP2 POP PUSH1 0x20 DUP4 ADD CALLDATALOAD PUSH8 0xFFFFFFFFFFFFFFFF DUP1 DUP3 GT ISZERO PUSH2 0x3791 JUMPI PUSH1 0x0 DUP1 REVERT JUMPDEST DUP2 DUP6 ADD SWAP2 POP DUP6 PUSH1 0x1F DUP4 ADD SLT PUSH2 0x37A5 JUMPI PUSH1 0x0 DUP1 REVERT JUMPDEST DUP2 CALLDATALOAD DUP2 DUP2 GT ISZERO PUSH2 0x37B7 JUMPI PUSH2 0x37B7 PUSH2 0x3742 JUMP JUMPDEST PUSH1 0x40 MLOAD PUSH1 0x1F DUP3 ADD PUSH1 0x1F NOT SWAP1 DUP2 AND PUSH1 0x3F ADD AND DUP2 ADD SWAP1 DUP4 DUP3 GT DUP2 DUP4 LT OR ISZERO PUSH2 0x37DF JUMPI PUSH2 0x37DF PUSH2 0x3742 JUMP JUMPDEST DUP2 PUSH1 0x40 MSTORE DUP3 DUP2 MSTORE DUP9 PUSH1 0x20 DUP5 DUP8 ADD ADD GT ISZERO PUSH2 0x37F8 JUMPI PUSH1 0x0 DUP1 REVERT JUMPDEST DUP3 PUSH1 0x20 DUP7 ADD PUSH1 0x20 DUP4 ADD CALLDATACOPY PUSH1 0x0 PUSH1 0x20 DUP5 DUP4 ADD ADD MSTORE DUP1 SWAP6 POP POP POP POP POP POP SWAP3 POP SWAP3 SWAP1 POP JUMP JUMPDEST DUP1 PUSH1 0x0 JUMPDEST PUSH1 0x7 DUP2 LT ISZERO PUSH2 0xE2F JUMPI DUP2 MLOAD PUSH1 0xFF AND DUP5 MSTORE PUSH1 0x20 SWAP4 DUP5 ADD SWAP4 SWAP1 SWAP2 ADD SWAP1 PUSH1 0x1 ADD PUSH2 0x381E JUMP JUMPDEST PUSH1 0xE0 DUP2 ADD PUSH2 0x2006 DUP3 DUP5 PUSH2 0x381A JUMP JUMPDEST PUSH1 0x0 JUMPDEST DUP4 DUP2 LT ISZERO PUSH2 0x3869 JUMPI DUP2 DUP2 ADD MLOAD DUP4 DUP3 ADD MSTORE PUSH1 0x20 ADD PUSH2 0x3851 JUMP JUMPDEST POP POP PUSH1 0x0 SWAP2 ADD MSTORE JUMP JUMPDEST PUSH1 0x0 DUP2 MLOAD DUP1 DUP5 MSTORE PUSH2 0x388A DUP2 PUSH1 0x20 DUP7 ADD PUSH1 0x20 DUP7 ADD PUSH2 0x384E JUMP JUMPDEST PUSH1 0x1F ADD PUSH1 0x1F NOT AND SWAP3 SWAP1 SWAP3 ADD PUSH1 0x20 ADD SWAP3 SWAP2 POP POP JUMP JUMPDEST DUP3 ISZERO ISZERO DUP2 MSTORE PUSH1 0x40 PUSH1 0x20 DUP3 ADD MSTORE PUSH1 0x0 PUSH2 0x33A1 PUSH1 0x40 DUP4 ADD DUP5 PUSH2 0x3872 JUMP JUMPDEST PUSH1 0x0 DUP1 PUSH1 0x40 DUP4 DUP6 SUB SLT ISZERO PUSH2 0x38CC JUMPI PUSH1 0x0 DUP1 REVERT JUMPDEST POP POP DUP1 CALLDATALOAD SWAP3 PUSH1 0x20 SWAP1 SWAP2 ADD CALLDATALOAD SWAP2 POP JUMP JUMPDEST PUSH1 0x0 PUSH1 0x20 DUP3 DUP5 SUB SLT ISZERO PUSH2 0x38ED JUMPI PUSH1 0x0 DUP1 REVERT JUMPDEST DUP2 CALLDATALOAD PUSH2 0xFFFF DUP2 AND DUP2 EQ PUSH2 0x32A9 JUMPI PUSH1 0x0 DUP1 REVERT JUMPDEST PUSH1 0x1 PUSH1 0x1 PUSH1 0xA0 SHL SUB DUP7 AND DUP2 MSTORE PUSH2 0x160 DUP2 ADD PUSH2 0x391D PUSH1 0x20 DUP4 ADD DUP8 PUSH2 0x381A JUMP JUMPDEST SWAP4 ISZERO ISZERO PUSH2 0x100 DUP3 ADD MSTORE PUSH1 0xFF SWAP3 SWAP1 SWAP3 AND PUSH2 0x120 DUP4 ADD MSTORE PUSH2 0x140 SWAP1 SWAP2 ADD MSTORE SWAP3 SWAP2 POP POP JUMP JUMPDEST PUSH1 0x0 PUSH1 0x20 DUP3 DUP5 SUB SLT ISZERO PUSH2 0x3951 JUMPI PUSH1 0x0 DUP1 REVERT JUMPDEST DUP2 CALLDATALOAD PUSH4 0xFFFFFFFF DUP2 AND DUP2 EQ PUSH2 0x32A9 JUMPI PUSH1 0x0 DUP1 REVERT JUMPDEST PUSH1 0x0 PUSH1 0x20 DUP3 DUP5 SUB SLT ISZERO PUSH2 0x3977 JUMPI PUSH1 0x0 DUP1 REVERT JUMPDEST DUP2 CALLDATALOAD DUP1 ISZERO ISZERO DUP2 EQ PUSH2 0x32A9 JUMPI PUSH1 0x0 DUP1 REVERT JUMPDEST DUP3 ISZERO ISZERO DUP2 MSTORE PUSH1 0x40 PUSH1 0x20 DUP3 ADD MSTORE PUSH1 0x0 PUSH2 0x33A1 PUSH1 0x40 DUP4 ADD DUP5 PUSH2 0x3682 JUMP JUMPDEST DUP4 DUP2 MSTORE PUSH1 0x40 PUSH1 0x20 DUP3 ADD MSTORE DUP2 PUSH1 0x40 DUP3 ADD MSTORE PUSH1 0x0 PUSH32 0x7FFFFFFFFFFFFFFFFFFFFFFFFFFFFFFFFFFFFFFFFFFFFFFFFFFFFFFFFFFFFFF DUP4 GT ISZERO PUSH2 0x39E1 JUMPI PUSH1 0x0 DUP1 REVERT JUMPDEST DUP3 PUSH1 0x5 SHL DUP1 DUP6 PUSH1 0x60 DUP6 ADD CALLDATACOPY SWAP2 SWAP1 SWAP2 ADD PUSH1 0x60 ADD SWAP5 SWAP4 POP POP POP POP JUMP JUMPDEST PUSH1 0x0 PUSH2 0x120 DUP3 ADD SWAP1 POP DUP5 DUP3 MSTORE DUP4 PUSH1 0x20 DUP4 ADD MSTORE DUP3 SLOAD PUSH1 0xFF DUP1 DUP3 AND PUSH1 0x40 DUP6 ADD MSTORE DUP1 DUP3 PUSH1 0x8 SHR AND PUSH1 0x60 DUP6 ADD MSTORE DUP1 DUP3 PUSH1 0x10 SHR AND PUSH1 0x80 DUP6 ADD MSTORE PUSH2 0x3A43 PUSH1 0xA0 DUP6 ADD DUP3 DUP5 PUSH1 0x18 SHR AND PUSH1 0xFF AND SWAP1 MSTORE JUMP JUMPDEST PUSH2 0x3A57 PUSH1 0xC0 DUP6 ADD DUP3 DUP5 PUSH1 0x20 SHR AND PUSH1 0xFF AND SWAP1 MSTORE JUMP JUMPDEST PUSH2 0x3A6B PUSH1 0xE0 DUP6 ADD DUP3 DUP5 PUSH1 0x28 SHR AND PUSH1 0xFF AND SWAP1 MSTORE JUMP JUMPDEST PUSH2 0x3A80 PUSH2 0x100 DUP6 ADD DUP3 DUP5 PUSH1 0x30 SHR AND PUSH1 0xFF AND SWAP1 MSTORE JUMP JUMPDEST POP POP SWAP5 SWAP4 POP POP POP POP JUMP JUMPDEST PUSH4 0x4E487B71 PUSH1 0xE0 SHL PUSH1 0x0 MSTORE PUSH1 0x11 PUSH1 0x4 MSTORE PUSH1 0x24 PUSH1 0x0 REVERT JUMPDEST DUP1 DUP3 ADD DUP1 DUP3 GT ISZERO PUSH2 0x2006 JUMPI PUSH2 0x2006 PUSH2 0x3A8A JUMP JUMPDEST DUP2 DUP2 SUB DUP2 DUP2 GT ISZERO PUSH2 0x2006 JUMPI PUSH2 0x2006 PUSH2 0x3A8A JUMP JUMPDEST DUP1 CALLDATALOAD PUSH1 0xFF DUP2 AND DUP2 EQ PUSH2 0x363A JUMPI PUSH1 0x0 DUP1 REVERT JUMPDEST DUP3 DUP2 MSTORE PUSH2 0x100 DUP2 ADD PUSH1 0x20 DUP1 DUP4 ADD DUP5 PUSH1 0x0 JUMPDEST PUSH1 0x7 DUP2 LT ISZERO PUSH2 0x3B0F JUMPI PUSH1 0xFF PUSH2 0x3AFC DUP4 PUSH2 0x3AC6 JUMP JUMPDEST AND DUP4 MSTORE SWAP2 DUP4 ADD SWAP2 SWAP1 DUP4 ADD SWAP1 PUSH1 0x1 ADD PUSH2 0x3AE8 JUMP JUMPDEST POP POP POP POP SWAP4 SWAP3 POP POP POP JUMP JUMPDEST PUSH4 0x4E487B71 PUSH1 0xE0 SHL PUSH1 0x0 MSTORE PUSH1 0x32 PUSH1 0x4 MSTORE PUSH1 0x24 PUSH1 0x0 REVERT JUMPDEST PUSH4 0x4E487B71 PUSH1 0xE0 SHL PUSH1 0x0 MSTORE PUSH1 0x12 PUSH1 0x4 MSTORE PUSH1 0x24 PUSH1 0x0 REVERT JUMPDEST PUSH1 0x0 DUP3 PUSH2 0x3B55 JUMPI PUSH2 0x3B55 PUSH2 0x3B30 JUMP JUMPDEST POP MOD SWAP1 JUMP JUMPDEST PUSH1 0x0 PUSH1 0x1 DUP3 ADD PUSH2 0x3B6C JUMPI PUSH2 0x3B6C PUSH2 0x3A8A JUMP JUMPDEST POP PUSH1 0x1 ADD SWAP1 JUMP JUMPDEST DUP1 DUP3 MUL DUP2 ISZERO DUP3 DUP3 DIV DUP5 EQ OR PUSH2 0x2006 JUMPI PUSH2 0x2006 PUSH2 0x3A8A JUMP JUMPDEST PUSH1 0x0 DUP3 PUSH2 0x3B99 JUMPI PUSH2 0x3B99 PUSH2 0x3B30 JUMP JUMPDEST POP DIV SWAP1 JUMP JUMPDEST PUSH1 0x0 PUSH1 0xFF DUP3 AND PUSH1 0xFF DUP2 SUB PUSH2 0x3BB4 JUMPI PUSH2 0x3BB4 PUSH2 0x3A8A JUMP JUMPDEST PUSH1 0x1 ADD SWAP3 SWAP2 POP POP JUMP JUMPDEST PUSH2 0x120 DUP2 ADD PUSH2 0x3BCC DUP3 DUP7 PUSH2 0x381A JUMP JUMPDEST PUSH1 0xE0 DUP3 ADD SWAP4 SWAP1 SWAP4 MSTORE PUSH2 0x100 ADD MSTORE SWAP2 SWAP1 POP JUMP JUMPDEST PUSH1 0x0 PUSH1 0x20 DUP3 DUP5 SUB SLT ISZERO PUSH2 0x3BF0 JUMPI PUSH1 0x0 DUP1 REVERT JUMPDEST POP MLOAD SWAP2 SWAP1 POP JUMP JUMPDEST PUSH1 0x0 PUSH1 0x20 DUP3 DUP5 SUB SLT ISZERO PUSH2 0x3C09 JUMPI PUSH1 0x0 DUP1 REVERT JUMPDEST PUSH2 0x32A9 DUP3 PUSH2 0x3AC6 JUMP JUMPDEST PUSH1 0x20 DUP2 MSTORE DUP2 MLOAD PUSH1 0x20 DUP3 ADD MSTORE PUSH1 0x20 DUP3 ADD MLOAD PUSH1 0x40 DUP3 ADD MSTORE PUSH2 0xFFFF PUSH1 0x40 DUP4 ADD MLOAD AND PUSH1 0x60 DUP3 ADD MSTORE PUSH1 0x0 PUSH1 0x60 DUP4 ADD MLOAD PUSH4 0xFFFFFFFF DUP1 DUP3 AND PUSH1 0x80 DUP6 ADD MSTORE DUP1 PUSH1 0x80 DUP7 ADD MLOAD AND PUSH1 0xA0 DUP6 ADD MSTORE POP POP PUSH1 0xA0 DUP4 ADD MLOAD PUSH1 0xC0 DUP1 DUP5 ADD MSTORE PUSH2 0x33A1 PUSH1 0xE0 DUP5 ADD DUP3 PUSH2 0x3872 JUMP JUMPDEST PUSH1 0x0 DUP3 MLOAD PUSH2 0x3C81 DUP2 DUP5 PUSH1 0x20 DUP8 ADD PUSH2 0x384E JUMP JUMPDEST SWAP2 SWAP1 SWAP2 ADD SWAP3 SWAP2 POP POP JUMP JUMPDEST PUSH1 0x20 DUP2 MSTORE PUSH1 0x0 PUSH2 0x32A9 PUSH1 0x20 DUP4 ADD DUP5 PUSH2 0x3872 JUMP INVALID COINBASE PUSH5 0x6472657373 GASPRICE KECCAK256 PUSH13 0x6F772D6C6576656C2064656C65 PUSH8 0x6174652063616C6C KECCAK256 PUSH7 0x61696C6564A264 PUSH10 0x70667358221220CC04BC PUSH2 0x6B7F SWAP2 GAS PUSH4 0x127F1001 0xD 0xD0 DUP12 PUSH22 0x19F704A6A4C593E558BD4767A4E9D964736F6C634300 ADDMOD EQ STOP CALLER "},"methodIdentifiers":{"BPS_DENOMINATOR()":"e1a45218","OWNER_FEE_BPS()":"25c5d34a","automationNativePayment()":"b368ba42","buyTicket(uint8[7])":"39e7397b","callbackGasLimit()":"24f74697","checkUpkeep(bytes)":"6e04ff0d","currentRoundId()":"9cbe5efd","entryFee()":"072ea61c","getLastRandomWords()":"3c256b24","getRequestStatus(uint256)":"d8a4676f","getRoundTicketCount(uint256)":"c4289070","getRoundWinningNumbers(uint256)":"64069e71","getTicket(uint256,uint256)":"a426e4c8","getWinningNumbers()":"84350e1d","initialize2()":"472abf68","keyHash()":"61728f39","lastRandomWords(uint256)":"900fc869","lastRequestId()":"fc2a88c3","numWords()":"7ccfd7fc","owner()":"8da5cb5b","ownerFeesAccrued()":"b28f6ef1","pendingRewards(address)":"31d7a262","performUpkeep(bytes)":"4585e33b","proxiableUUID()":"52d1902d","rawFulfillRandomWords(uint256,uint256[])":"1fe543e3","renounceOwnership()":"715018a6","requestConfirmations()":"b0fb162f","requestToRoundId(uint256)":"d88d27d6","requests(uint256)":"81d12c58","rolloverPool()":"3c51c7bb","roundDuration()":"f7cb789a","roundWinningNumbers(uint256,uint256)":"82fbc5c2","rounds(uint256)":"8c65c81f","s_vrfCoordinator()":"9eccacf6","setAutomationNativePayment(bool)":"c88e1561","setCallbackGasLimit(uint32)":"a4eb718c","setKeyHash(bytes32)":"98544710","setNumWords(uint32)":"f30c07d3","setRequestConfirmations(uint16)":"8824f5a7","setRoundDuration(uint256)":"36c92c3f","setSubscriptionId(uint256)":"c1e0d236","setTicketPrice(uint256)":"15981650","subscriptionId()":"09c1ba2e","transferOwnership(address)":"f2fde38b","updateCoordinator(address)":"f9f94e34","upgradeTo(address)":"3659cfe6","upgradeToAndCall(address,bytes)":"4f1ef286","winningNumbers(uint256)":"4e45f095","withdrawOwnerFees()":"0a9ef34c","withdrawReward()":"c885bc58"}},"storageLayout":{"storage":[{"astId":722,"contract":"contracts/Lottery1.sol:Lottery1","label":"_initialized","offset":0,"slot":"0","type":"t_uint8"},{"astId":725,"contract":"contracts/Lottery1.sol:Lottery1","label":"_initializing","offset":1,"slot":"0","type":"t_bool"},{"astId":1401,"contract":"contracts/Lottery1.sol:Lottery1","label":"__gap","offset":0,"slot":"1","type":"t_array(t_uint256)50_storage"},{"astId":228,"contract":"contracts/Lottery1.sol:Lottery1","label":"_owner","offset":0,"slot":"51","type":"t_address"},{"astId":348,"contract":"contracts/Lottery1.sol:Lottery1","label":"__gap","offset":0,"slot":"52","type":"t_array(t_uint256)49_storage"},{"astId":704,"contract":"contracts/Lottery1.sol:Lottery1","label":"__gap","offset":0,"slot":"101","type":"t_array(t_uint256)50_storage"},{"astId":1020,"contract":"contracts/Lottery1.sol:Lottery1","label":"__gap","offset":0,"slot":"151","type":"t_array(t_uint256)50_storage"},{"astId":1537,"contract":"contracts/Lottery1.sol:Lottery1","label":"s_vrfCoordinator","offset":0,"slot":"201","type":"t_contract(IVRFCoordinatorV2Plus)85"},{"astId":1539,"contract":"contracts/Lottery1.sol:Lottery1","label":"subscriptionId","offset":0,"slot":"202","type":"t_uint256"},{"astId":1541,"contract":"contracts/Lottery1.sol:Lottery1","label":"keyHash","offset":0,"slot":"203","type":"t_bytes32"},{"astId":1543,"contract":"contracts/Lottery1.sol:Lottery1","label":"callbackGasLimit","offset":0,"slot":"204","type":"t_uint32"},{"astId":1545,"contract":"contracts/Lottery1.sol:Lottery1","label":"requestConfirmations","offset":4,"slot":"204","type":"t_uint16"},{"astId":1547,"contract":"contracts/Lottery1.sol:Lottery1","label":"numWords","offset":6,"slot":"204","type":"t_uint32"},{"astId":1549,"contract":"contracts/Lottery1.sol:Lottery1","label":"lastRequestId","offset":0,"slot":"205","type":"t_uint256"},{"astId":1552,"contract":"contracts/Lottery1.sol:Lottery1","label":"lastRandomWords","offset":0,"slot":"206","type":"t_array(t_uint256)dyn_storage"},{"astId":1556,"contract":"contracts/Lottery1.sol:Lottery1","label":"winningNumbers","offset":0,"slot":"207","type":"t_array(t_uint8)7_storage"},{"astId":1601,"contract":"contracts/Lottery1.sol:Lottery1","label":"requests","offset":0,"slot":"208","type":"t_mapping(t_uint256,t_struct(RequestStatus)1570_storage)"},{"astId":1605,"contract":"contracts/Lottery1.sol:Lottery1","label":"requestToRoundId","offset":0,"slot":"209","type":"t_mapping(t_uint256,t_uint256)"},{"astId":1610,"contract":"contracts/Lottery1.sol:Lottery1","label":"rounds","offset":0,"slot":"210","type":"t_mapping(t_uint256,t_struct(RoundInfo)1596_storage)"},{"astId":1616,"contract":"contracts/Lottery1.sol:Lottery1","label":"roundTickets","offset":0,"slot":"211","type":"t_mapping(t_uint256,t_array(t_struct(Ticket)1583_storage)dyn_storage)"},{"astId":1622,"contract":"contracts/Lottery1.sol:Lottery1","label":"roundWinningNumbers","offset":0,"slot":"212","type":"t_mapping(t_uint256,t_array(t_uint8)7_storage)"},{"astId":1626,"contract":"contracts/Lottery1.sol:Lottery1","label":"pendingRewards","offset":0,"slot":"213","type":"t_mapping(t_address,t_uint256)"},{"astId":1628,"contract":"contracts/Lottery1.sol:Lottery1","label":"ownerFeesAccrued","offset":0,"slot":"214","type":"t_uint256"},{"astId":1630,"contract":"contracts/Lottery1.sol:Lottery1","label":"rolloverPool","offset":0,"slot":"215","type":"t_uint256"},{"astId":1632,"contract":"contracts/Lottery1.sol:Lottery1","label":"currentRoundId","offset":0,"slot":"216","type":"t_uint256"},{"astId":1634,"contract":"contracts/Lottery1.sol:Lottery1","label":"entryFee","offset":0,"slot":"217","type":"t_uint256"},{"astId":1636,"contract":"contracts/Lottery1.sol:Lottery1","label":"roundDuration","offset":0,"slot":"218","type":"t_uint256"},{"astId":1638,"contract":"contracts/Lottery1.sol:Lottery1","label":"automationNativePayment","offset":0,"slot":"219","type":"t_bool"},{"astId":1735,"contract":"contracts/Lottery1.sol:Lottery1","label":"__gap","offset":0,"slot":"220","type":"t_array(t_uint256)39_storage"}],"types":{"t_address":{"encoding":"inplace","label":"address","numberOfBytes":"20"},"t_array(t_struct(Ticket)1583_storage)dyn_storage":{"base":"t_struct(Ticket)1583_storage","encoding":"dynamic_array","label":"struct Lottery1.Ticket[]","numberOfBytes":"32"},"t_array(t_uint256)39_storage":{"base":"t_uint256","encoding":"inplace","label":"uint256[39]","numberOfBytes":"1248"},"t_array(t_uint256)49_storage":{"base":"t_uint256","encoding":"inplace","label":"uint256[49]","numberOfBytes":"1568"},"t_array(t_uint256)50_storage":{"base":"t_uint256","encoding":"inplace","label":"uint256[50]","numberOfBytes":"1600"},"t_array(t_uint256)dyn_storage":{"base":"t_uint256","encoding":"dynamic_array","label":"uint256[]","numberOfBytes":"32"},"t_array(t_uint8)7_storage":{"base":"t_uint8","encoding":"inplace","label":"uint8[7]","numberOfBytes":"32"},"t_bool":{"encoding":"inplace","label":"bool","numberOfBytes":"1"},"t_bytes32":{"encoding":"inplace","label":"bytes32","numberOfBytes":"32"},"t_contract(IVRFCoordinatorV2Plus)85":{"encoding":"inplace","label":"contract IVRFCoordinatorV2Plus","numberOfBytes":"20"},"t_mapping(t_address,t_uint256)":{"encoding":"mapping","key":"t_address","label":"mapping(address => uint256)","numberOfBytes":"32","value":"t_uint256"},"t_mapping(t_uint256,t_array(t_struct(Ticket)1583_storage)dyn_storage)":{"encoding":"mapping","key":"t_uint256","label":"mapping(uint256 => struct Lottery1.Ticket[])","numberOfBytes":"32","value":"t_array(t_struct(Ticket)1583_storage)dyn_storage"},"t_mapping(t_uint256,t_array(t_uint8)7_storage)":{"encoding":"mapping","key":"t_uint256","label":"mapping(uint256 => uint8[7])","numberOfBytes":"32","value":"t_array(t_uint8)7_storage"},"t_mapping(t_uint256,t_struct(RequestStatus)1570_storage)":{"encoding":"mapping","key":"t_uint256","label":"mapping(uint256 => struct Lottery1.RequestStatus)","numberOfBytes":"32","value":"t_struct(RequestStatus)1570_storage"},"t_mapping(t_uint256,t_struct(RoundInfo)1596_storage)":{"encoding":"mapping","key":"t_uint256","label":"mapping(uint256 => struct Lottery1.RoundInfo)","numberOfBytes":"32","value":"t_struct(RoundInfo)1596_storage"},"t_mapping(t_uint256,t_uint256)":{"encoding":"mapping","key":"t_uint256","label":"mapping(uint256 => uint256)","numberOfBytes":"32","value":"t_uint256"},"t_struct(RequestStatus)1570_storage":{"encoding":"inplace","label":"struct Lottery1.RequestStatus","members":[{"astId":1564,"contract":"contracts/Lottery1.sol:Lottery1","label":"exists","offset":0,"slot":"0","type":"t_bool"},{"astId":1566,"contract":"contracts/Lottery1.sol:Lottery1","label":"fulfilled","offset":1,"slot":"0","type":"t_bool"},{"astId":1569,"contract":"contracts/Lottery1.sol:Lottery1","label":"randomWords","offset":0,"slot":"1","type":"t_array(t_uint256)dyn_storage"}],"numberOfBytes":"64"},"t_struct(RoundInfo)1596_storage":{"encoding":"inplace","label":"struct Lottery1.RoundInfo","members":[{"astId":1585,"contract":"contracts/Lottery1.sol:Lottery1","label":"active","offset":0,"slot":"0","type":"t_bool"},{"astId":1587,"contract":"contracts/Lottery1.sol:Lottery1","label":"drawRequested","offset":1,"slot":"0","type":"t_bool"},{"astId":1589,"contract":"contracts/Lottery1.sol:Lottery1","label":"drawn","offset":2,"slot":"0","type":"t_bool"},{"astId":1591,"contract":"contracts/Lottery1.sol:Lottery1","label":"startTime","offset":0,"slot":"1","type":"t_uint256"},{"astId":1593,"contract":"contracts/Lottery1.sol:Lottery1","label":"endTime","offset":0,"slot":"2","type":"t_uint256"},{"astId":1595,"contract":"contracts/Lottery1.sol:Lottery1","label":"pot","offset":0,"slot":"3","type":"t_uint256"}],"numberOfBytes":"128"},"t_struct(Ticket)1583_storage":{"encoding":"inplace","label":"struct Lottery1.Ticket","members":[{"astId":1572,"contract":"contracts/Lottery1.sol:Lottery1","label":"player","offset":0,"slot":"0","type":"t_address"},{"astId":1576,"contract":"contracts/Lottery1.sol:Lottery1","label":"numbers","offset":0,"slot":"1","type":"t_array(t_uint8)7_storage"},{"astId":1578,"contract":"contracts/Lottery1.sol:Lottery1","label":"claimed","offset":0,"slot":"2","type":"t_bool"},{"astId":1580,"contract":"contracts/Lottery1.sol:Lottery1","label":"matchedCount","offset":1,"slot":"2","type":"t_uint8"},{"astId":1582,"contract":"contracts/Lottery1.sol:Lottery1","label":"reward","offset":0,"slot":"3","type":"t_uint256"}],"numberOfBytes":"128"},"t_uint16":{"encoding":"inplace","label":"uint16","numberOfBytes":"2"},"t_uint256":{"encoding":"inplace","label":"uint256","numberOfBytes":"32"},"t_uint32":{"encoding":"inplace","label":"uint32","numberOfBytes":"4"},"t_uint8":{"encoding":"inplace","label":"uint8","numberOfBytes":"1"}}}}}}