{"contracts/Lottery1.sol":{"Lottery1":{"abi":[{"inputs":[],"stateMutability":"nonpayable","type":"constructor"},{"anonymous":false,"inputs":[{"indexed":false,"internalType":"address","name":"previousAdmin","type":"address"},{"indexed":false,"internalType":"address","name":"newAdmin","type":"address"}],"name":"AdminChanged","type":"event"},{"anonymous":false,"inputs":[{"indexed":true,"internalType":"address","name":"beacon","type":"address"}],"name":"BeaconUpgraded","type":"event"},{"anonymous":false,"inputs":[{"indexed":false,"internalType":"uint8","name":"version","type":"uint8"}],"name":"Initialized","type":"event"},{"anonymous":false,"inputs":[{"indexed":true,"internalType":"address","name":"owner","type":"address"},{"indexed":false,"internalType":"uint256","name":"amount","type":"uint256"}],"name":"OwnerFeesWithdrawn","type":"event"},{"anonymous":false,"inputs":[{"indexed":true,"internalType":"address","name":"previousOwner","type":"address"},{"indexed":true,"internalType":"address","name":"newOwner","type":"address"}],"name":"OwnershipTransferred","type":"event"},{"anonymous":false,"inputs":[{"indexed":false,"internalType":"uint256","name":"requestId","type":"uint256"},{"indexed":false,"internalType":"uint256[]","name":"randomWords","type":"uint256[]"}],"name":"RequestFulfilled","type":"event"},{"anonymous":false,"inputs":[{"indexed":false,"internalType":"uint256","name":"requestId","type":"uint256"},{"indexed":false,"internalType":"uint32","name":"numWords","type":"uint32"}],"name":"RequestSent","type":"event"},{"anonymous":false,"inputs":[{"indexed":true,"internalType":"uint256","name":"roundId","type":"uint256"},{"indexed":true,"internalType":"address","name":"player","type":"address"},{"indexed":false,"internalType":"uint256","name":"ticketIndex","type":"uint256"},{"indexed":false,"internalType":"uint8","name":"matches","type":"uint8"},{"indexed":false,"internalType":"uint256","name":"reward","type":"uint256"}],"name":"RewardAssigned","type":"event"},{"anonymous":false,"inputs":[{"indexed":true,"internalType":"address","name":"player","type":"address"},{"indexed":false,"internalType":"uint256","name":"amount","type":"uint256"}],"name":"RewardWithdrawn","type":"event"},{"anonymous":false,"inputs":[{"indexed":true,"internalType":"uint256","name":"roundId","type":"uint256"},{"indexed":false,"internalType":"uint256","name":"requestId","type":"uint256"}],"name":"RoundClosed","type":"event"},{"anonymous":false,"inputs":[{"indexed":true,"internalType":"uint256","name":"roundId","type":"uint256"},{"indexed":false,"internalType":"uint8[7]","name":"winningNumbers","type":"uint8[7]"},{"indexed":false,"internalType":"uint256","name":"ownerFee","type":"uint256"},{"indexed":false,"internalType":"uint256","name":"rolloverAdded","type":"uint256"}],"name":"RoundSettled","type":"event"},{"anonymous":false,"inputs":[{"indexed":true,"internalType":"uint256","name":"roundId","type":"uint256"},{"indexed":false,"internalType":"uint256","name":"rolloverAmount","type":"uint256"}],"name":"RoundSkipped","type":"event"},{"anonymous":false,"inputs":[{"indexed":true,"internalType":"uint256","name":"roundId","type":"uint256"},{"indexed":false,"internalType":"uint256","name":"startTime","type":"uint256"},{"indexed":false,"internalType":"uint256","name":"endTime","type":"uint256"},{"indexed":false,"internalType":"uint256","name":"seededPot","type":"uint256"}],"name":"RoundStarted","type":"event"},{"anonymous":false,"inputs":[{"indexed":true,"internalType":"uint256","name":"roundId","type":"uint256"},{"indexed":true,"internalType":"address","name":"player","type":"address"},{"indexed":false,"internalType":"uint256","name":"ticketIndex","type":"uint256"},{"indexed":false,"internalType":"uint8[7]","name":"numbers","type":"uint8[7]"}],"name":"TicketBought","type":"event"},{"anonymous":false,"inputs":[{"indexed":true,"internalType":"address","name":"implementation","type":"address"}],"name":"Upgraded","type":"event"},{"anonymous":false,"inputs":[{"indexed":false,"internalType":"uint256","name":"requestId","type":"uint256"},{"indexed":false,"internalType":"uint256","name":"roundId","type":"uint256"},{"indexed":false,"internalType":"uint8[7]","name":"winningNumbers","type":"uint8[7]"}],"name":"WinningNumbersGenerated","type":"event"},{"inputs":[],"name":"BPS_DENOMINATOR","outputs":[{"internalType":"uint256","name":"","type":"uint256"}],"stateMutability":"view","type":"function"},{"inputs":[],"name":"OWNER_FEE_BPS","outputs":[{"internalType":"uint256","name":"","type":"uint256"}],"stateMutability":"view","type":"function"},{"inputs":[],"name":"automationNativePayment","outputs":[{"internalType":"bool","name":"","type":"bool"}],"stateMutability":"view","type":"function"},{"inputs":[{"internalType":"uint8[7]","name":"numbers","type":"uint8[7]"}],"name":"buyTicket","outputs":[],"stateMutability":"payable","type":"function"},{"inputs":[],"name":"callbackGasLimit","outputs":[{"internalType":"uint32","name":"","type":"uint32"}],"stateMutability":"view","type":"function"},{"inputs":[{"internalType":"bytes","name":"","type":"bytes"}],"name":"checkUpkeep","outputs":[{"internalType":"bool","name":"upkeepNeeded","type":"bool"},{"internalType":"bytes","name":"performData","type":"bytes"}],"stateMutability":"view","type":"function"},{"inputs":[],"name":"currentRoundId","outputs":[{"internalType":"uint256","name":"","type":"uint256"}],"stateMutability":"view","type":"function"},{"inputs":[],"name":"entryFee","outputs":[{"internalType":"uint256","name":"","type":"uint256"}],"stateMutability":"view","type":"function"},{"inputs":[],"name":"getLastRandomWords","outputs":[{"internalType":"uint256[]","name":"","type":"uint256[]"}],"stateMutability":"view","type":"function"},{"inputs":[{"internalType":"uint256","name":"requestId","type":"uint256"}],"name":"getRequestStatus","outputs":[{"internalType":"bool","name":"fulfilled","type":"bool"},{"internalType":"uint256[]","name":"randomWords","type":"uint256[]"}],"stateMutability":"view","type":"function"},{"inputs":[{"internalType":"uint256","name":"roundId","type":"uint256"}],"name":"getRoundTicketCount","outputs":[{"internalType":"uint256","name":"","type":"uint256"}],"stateMutability":"view","type":"function"},{"inputs":[{"internalType":"uint256","name":"roundId","type":"uint256"}],"name":"getRoundWinningNumbers","outputs":[{"internalType":"uint8[7]","name":"","type":"uint8[7]"}],"stateMutability":"view","type":"function"},{"inputs":[{"internalType":"uint256","name":"roundId","type":"uint256"},{"internalType":"uint256","name":"ticketIndex","type":"uint256"}],"name":"getTicket","outputs":[{"internalType":"address","name":"player","type":"address"},{"internalType":"uint8[7]","name":"numbers","type":"uint8[7]"},{"internalType":"bool","name":"claimed","type":"bool"},{"internalType":"uint8","name":"matchedCount","type":"uint8"},{"internalType":"uint256","name":"reward","type":"uint256"}],"stateMutability":"view","type":"function"},{"inputs":[],"name":"getWinningNumbers","outputs":[{"internalType":"uint8[7]","name":"","type":"uint8[7]"}],"stateMutability":"view","type":"function"},{"inputs":[],"name":"initialize2","outputs":[],"stateMutability":"nonpayable","type":"function"},{"inputs":[],"name":"keyHash","outputs":[{"internalType":"bytes32","name":"","type":"bytes32"}],"stateMutability":"view","type":"function"},{"inputs":[{"internalType":"uint256","name":"","type":"uint256"}],"name":"lastRandomWords","outputs":[{"internalType":"uint256","name":"","type":"uint256"}],"stateMutability":"view","type":"function"},{"inputs":[],"name":"lastRequestId","outputs":[{"internalType":"uint256","name":"","type":"uint256"}],"stateMutability":"view","type":"function"},{"inputs":[],"name":"numWords","outputs":[{"internalType":"uint32","name":"","type":"uint32"}],"stateMutability":"view","type":"function"},{"inputs":[],"name":"owner","outputs":[{"internalType":"address","name":"","type":"address"}],"stateMutability":"view","type":"function"},{"inputs":[],"name":"ownerFeesAccrued","outputs":[{"internalType":"uint256","name":"","type":"uint256"}],"stateMutability":"view","type":"function"},{"inputs":[{"internalType":"address","name":"","type":"address"}],"name":"pendingRewards","outputs":[{"internalType":"uint256","name":"","type":"uint256"}],"stateMutability":"view","type":"function"},{"inputs":[{"internalType":"bytes","name":"performData","type":"bytes"}],"name":"performUpkeep","outputs":[],"stateMutability":"nonpayable","type":"function"},{"inputs":[],"name":"proxiableUUID","outputs":[{"internalType":"bytes32","name":"","type":"bytes32"}],"stateMutability":"view","type":"function"},{"inputs":[{"internalType":"uint256","name":"requestId","type":"uint256"},{"internalType":"uint256[]","name":"randomWords","type":"uint256[]"}],"name":"rawFulfillRandomWords","outputs":[],"stateMutability":"nonpayable","type":"function"},{"inputs":[],"name":"renounceOwnership","outputs":[],"stateMutability":"nonpayable","type":"function"},{"inputs":[],"name":"requestConfirmations","outputs":[{"internalType":"uint16","name":"","type":"uint16"}],"stateMutability":"view","type":"function"},{"inputs":[{"internalType":"uint256","name":"","type":"uint256"}],"name":"requestToRoundId","outputs":[{"internalType":"uint256","name":"","type":"uint256"}],"stateMutability":"view","type":"function"},{"inputs":[{"internalType":"uint256","name":"","type":"uint256"}],"name":"requests","outputs":[{"internalType":"bool","name":"exists","type":"bool"},{"internalType":"bool","name":"fulfilled","type":"bool"}],"stateMutability":"view","type":"function"},{"inputs":[],"name":"rolloverPool","outputs":[{"internalType":"uint256","name":"","type":"uint256"}],"stateMutability":"view","type":"function"},{"inputs":[],"name":"roundDuration","outputs":[{"internalType":"uint256","name":"","type":"uint256"}],"stateMutability":"view","type":"function"},{"inputs":[{"internalType":"uint256","name":"","type":"uint256"},{"internalType":"uint256","name":"","type":"uint256"}],"name":"roundWinningNumbers","outputs":[{"internalType":"uint8","name":"","type":"uint8"}],"stateMutability":"view","type":"function"},{"inputs":[{"internalType":"uint256","name":"","type":"uint256"}],"name":"rounds","outputs":[{"internalType":"bool","name":"active","type":"bool"},{"internalType":"bool","name":"drawRequested","type":"bool"},{"internalType":"bool","name":"drawn","type":"bool"},{"internalType":"uint256","name":"startTime","type":"uint256"},{"internalType":"uint256","name":"endTime","type":"uint256"},{"internalType":"uint256","name":"pot","type":"uint256"}],"stateMutability":"view","type":"function"},{"inputs":[],"name":"s_vrfCoordinator","outputs":[{"internalType":"contract IVRFCoordinatorV2Plus","name":"","type":"address"}],"stateMutability":"view","type":"function"},{"inputs":[{"internalType":"bool","name":"enabled","type":"bool"}],"name":"setAutomationNativePayment","outputs":[],"stateMutability":"nonpayable","type":"function"},{"inputs":[{"internalType":"uint32","name":"_callbackGasLimit","type":"uint32"}],"name":"setCallbackGasLimit","outputs":[],"stateMutability":"nonpayable","type":"function"},{"inputs":[{"internalType":"bytes32","name":"_keyHash","type":"bytes32"}],"name":"setKeyHash","outputs":[],"stateMutability":"nonpayable","type":"function"},{"inputs":[{"internalType":"uint32","name":"_numWords","type":"uint32"}],"name":"setNumWords","outputs":[],"stateMutability":"nonpayable","type":"function"},{"inputs":[{"internalType":"uint16","name":"_requestConfirmations","type":"uint16"}],"name":"setRequestConfirmations","outputs":[],"stateMutability":"nonpayable","type":"function"},{"inputs":[{"internalType":"uint256","name":"time","type":"uint256"}],"name":"setRoundDuration","outputs":[],"stateMutability":"nonpayable","type":"function"},{"inputs":[{"internalType":"uint256","name":"_subscriptionId","type":"uint256"}],"name":"setSubscriptionId","outputs":[],"stateMutability":"nonpayable","type":"function"},{"inputs":[{"internalType":"uint256","name":"price","type":"uint256"}],"name":"setTicketPrice","outputs":[],"stateMutability":"nonpayable","type":"function"},{"inputs":[],"name":"startRound","outputs":[],"stateMutability":"nonpayable","type":"function"},{"inputs":[],"name":"subscriptionId","outputs":[{"internalType":"uint256","name":"","type":"uint256"}],"stateMutability":"view","type":"function"},{"inputs":[{"internalType":"address","name":"newOwner","type":"address"}],"name":"transferOwnership","outputs":[],"stateMutability":"nonpayable","type":"function"},{"inputs":[{"internalType":"address","name":"newCoordinator","type":"address"}],"name":"updateCoordinator","outputs":[],"stateMutability":"nonpayable","type":"function"},{"inputs":[{"internalType":"address","name":"newImplementation","type":"address"}],"name":"upgradeTo","outputs":[],"stateMutability":"nonpayable","type":"function"},{"inputs":[{"internalType":"address","name":"newImplementation","type":"address"},{"internalType":"bytes","name":"data","type":"bytes"}],"name":"upgradeToAndCall","outputs":[],"stateMutability":"payable","type":"function"},{"inputs":[{"internalType":"uint256","name":"","type":"uint256"}],"name":"winningNumbers","outputs":[{"internalType":"uint8","name":"","type":"uint8"}],"stateMutability":"view","type":"function"},{"inputs":[],"name":"withdrawOwnerFees","outputs":[],"stateMutability":"nonpayable","type":"function"},{"inputs":[],"name":"withdrawReward","outputs":[],"stateMutability":"nonpayable","type":"function"},{"stateMutability":"payable","type":"receive"}],"evm":{"bytecode":{"linkReferences":{},"object":"60a0604052306080523480156200001557600080fd5b506200002062000026565b620000e7565b600054610100900460ff1615620000935760405162461bcd60e51b815260206004820152602760248201527f496e697469616c697a61626c653a20636f6e747261637420697320696e697469604482015266616c697a696e6760c81b606482015260840160405180910390fd5b60005460ff90811614620000e5576000805460ff191660ff9081179091556040519081527f7f26b83ff96e1f2b6a682f133852f6798a09c465da95921460cefb38474024989060200160405180910390a15b565b608051613d2f6200011f60003960008181610e5f01528181610ee40152818161161c015281816116a1015261178b0152613d2f6000f3fe6080604052600436106103385760003560e01c806382fbc5c2116101b0578063b368ba42116100ec578063d8a4676f11610095578063f30c07d31161006f578063f30c07d3146109de578063f7cb789a146109fe578063f9f94e3414610a14578063fc2a88c314610a3457600080fd5b8063d8a4676f1461097a578063e1a45218146109a8578063f2fde38b146109be57600080fd5b8063c885bc58116100c6578063c885bc5814610918578063c88e15611461092d578063d88d27d61461094d57600080fd5b8063b368ba42146108a1578063c1e0d236146108cb578063c4289070146108eb57600080fd5b80639854471011610159578063a426e4c811610133578063a426e4c814610804578063a4eb718c14610835578063b0fb162f14610855578063b28f6ef11461088b57600080fd5b806398544710146107ae5780639cbe5efd146107ce5780639eccacf6146107e457600080fd5b80638c65c81f1161018a5780638c65c81f146106d05780638da5cb5b1461075c578063900fc8691461078e57600080fd5b806382fbc5c21461067b57806384350e1d1461069b5780638824f5a7146106b057600080fd5b80633c51c7bb1161027f57806355e3f086116102285780636e04ff0d116102025780636e04ff0d146105c1578063715018a6146105ef5780637ccfd7fc1461060457806381d12c581461062b57600080fd5b806355e3f0861461056957806361728f391461057e57806364069e711461059457600080fd5b80634e45f095116102595780634e45f0951461050f5780634f1ef2861461054157806352d1902d1461055457600080fd5b80633c51c7bb146104c45780634585e33b146104da578063472abf68146104fa57600080fd5b806325c5d34a116102e157806336c92c3f116102bb57806336c92c3f1461046f57806339e7397b1461048f5780633c256b24146104a257600080fd5b806325c5d34a1461040c57806331d7a262146104225780633659cfe61461044f57600080fd5b80631598165011610312578063159816501461039a5780631fe543e3146103ba57806324f74697146103da57600080fd5b8063072ea61c1461034457806309c1ba2e1461036d5780630a9ef34c1461038357600080fd5b3661033f57005b600080fd5b34801561035057600080fd5b5061035a60d95481565b6040519081526020015b60405180910390f35b34801561037957600080fd5b5061035a60ca5481565b34801561038f57600080fd5b50610398610a4a565b005b3480156103a657600080fd5b506103986103b53660046135bf565b610ba2565b3480156103c657600080fd5b506103986103d53660046135d8565b610bff565b3480156103e657600080fd5b5060cc546103f79063ffffffff1681565b60405163ffffffff9091168152602001610364565b34801561041857600080fd5b5061035a6103e881565b34801561042e57600080fd5b5061035a61043d366004613673565b60d56020526000908152604090205481565b34801561045b57600080fd5b5061039861046a366004613673565b610e55565b34801561047b57600080fd5b5061039861048a3660046135bf565b610fd0565b61039861049d36600461368e565b61102d565b3480156104ae57600080fd5b506104b76112f5565b60405161036491906136f1565b3480156104d057600080fd5b5061035a60d75481565b3480156104e657600080fd5b506103986104f5366004613704565b61134d565b34801561050657600080fd5b506103986114da565b34801561051b57600080fd5b5061052f61052a3660046135bf565b6115e8565b60405160ff9091168152602001610364565b61039861054f36600461378c565b611612565b34801561056057600080fd5b5061035a61177e565b34801561057557600080fd5b50610398611843565b34801561058a57600080fd5b5061035a60cb5481565b3480156105a057600080fd5b506105b46105af3660046135bf565b611855565b6040516103649190613874565b3480156105cd57600080fd5b506105e16105dc366004613704565b6118b9565b6040516103649291906138d2565b3480156105fb57600080fd5b50610398611926565b34801561061057600080fd5b5060cc546103f7906601000000000000900463ffffffff1681565b34801561063757600080fd5b506106646106463660046135bf565b60d06020526000908152604090205460ff8082169161010090041682565b604080519215158352901515602083015201610364565b34801561068757600080fd5b5061052f6106963660046138ed565b611938565b3480156106a757600080fd5b506105b4611971565b3480156106bc57600080fd5b506103986106cb36600461390f565b6119c9565b3480156106dc57600080fd5b506107276106eb3660046135bf565b60d260205260009081526040902080546001820154600283015460039093015460ff808416946101008504821694620100009004909116929186565b6040805196151587529415156020870152921515938501939093526060840152608083019190915260a082015260c001610364565b34801561076857600080fd5b506033546001600160a01b03165b6040516001600160a01b039091168152602001610364565b34801561079a57600080fd5b5061035a6107a93660046135bf565b6119f5565b3480156107ba57600080fd5b506103986107c93660046135bf565b611a16565b3480156107da57600080fd5b5061035a60d85481565b3480156107f057600080fd5b5060c954610776906001600160a01b031681565b34801561081057600080fd5b5061082461081f3660046138ed565b611a23565b604051610364959493929190613933565b34801561084157600080fd5b50610398610850366004613973565b611af5565b34801561086157600080fd5b5060cc5461087890640100000000900461ffff1681565b60405161ffff9091168152602001610364565b34801561089757600080fd5b5061035a60d65481565b3480156108ad57600080fd5b5060db546108bb9060ff1681565b6040519015158152602001610364565b3480156108d757600080fd5b506103986108e63660046135bf565b611b19565b3480156108f757600080fd5b5061035a6109063660046135bf565b600090815260d3602052604090205490565b34801561092457600080fd5b50610398611b26565b34801561093957600080fd5b50610398610948366004613999565b611c5c565b34801561095957600080fd5b5061035a6109683660046135bf565b60d16020526000908152604090205481565b34801561098657600080fd5b5061099a6109953660046135bf565b611c77565b6040516103649291906139bb565b3480156109b457600080fd5b5061035a61271081565b3480156109ca57600080fd5b506103986109d9366004613673565b611d51565b3480156109ea57600080fd5b506103986109f9366004613973565b611dde565b348015610a0a57600080fd5b5061035a60da5481565b348015610a2057600080fd5b50610398610a2f366004613673565b611e68565b348015610a4057600080fd5b5061035a60cd5481565b610a52611e9f565b60d65480610aa75760405162461bcd60e51b815260206004820152600d60248201527f4e6f206f776e657220666565730000000000000000000000000000000000000060448201526064015b60405180910390fd5b600060d68190556033546040516001600160a01b039091169083908381818185875af1925050503d8060008114610afa576040519150601f19603f3d011682016040523d82523d6000602084013e610aff565b606091505b5050905080610b505760405162461bcd60e51b815260206004820152601960248201527f4f776e657220666565207472616e73666572206661696c6564000000000000006044820152606401610a9e565b6033546001600160a01b03166001600160a01b03167f8c86225979e924f39334c49a16a32e53ca5ffe7a271a6793b57476cd62749d0583604051610b9691815260200190565b60405180910390a25050565b610baa611e9f565b60008111610bfa5760405162461bcd60e51b815260206004820152601160248201527f5072696365206d757374206265203e20300000000000000000000000000000006044820152606401610a9e565b60d955565b60c9546001600160a01b03163314610c595760405162461bcd60e51b815260206004820152601c60248201527f4f6e6c7920636f6f7264696e61746f722063616e2066756c66696c6c000000006044820152606401610a9e565b600083815260d0602052604090205460ff16610cb75760405162461bcd60e51b815260206004820152601160248201527f52657175657374206e6f7420666f756e640000000000000000000000000000006044820152606401610a9e565b600083815260d060205260409020805461ff001916610100178155610ce0906001018383613407565b50610ced60ce8383613407565b50600083815260d1602052604081205490819003610d4d5760405162461bcd60e51b815260206004820152601060248201527f526f756e64206e6f74206c696e6b6564000000000000000000000000000000006044820152606401610a9e565b610d578383611ef9565b610d659060cf906007613452565b50600081815260d460205260409020610d819060cf60076134e0565b507ffe2e2d779dba245964d4e3ef9b994be63856fd568bf7d3ca9e224755cb1bd54d848484604051610db5939291906139d6565b60405180910390a17f65a3cadf20a29471ee7bc9e1bf93b5f513a619fcfffc0bcab66d7cbae1045cb1848260cf604051610df193929190613a2f565b60405180910390a16040805160e0810191829052610e4f9183919060cf90600790826000855b825461010083900a900460ff16815260206001928301818104948501949093039092029101808411610e17579050505050505061203c565b50505050565b6001600160a01b037f0000000000000000000000000000000000000000000000000000000000000000163003610ee25760405162461bcd60e51b815260206004820152602c60248201527f46756e6374696f6e206d7573742062652063616c6c6564207468726f7567682060448201526b19195b1959d85d1958d85b1b60a21b6064820152608401610a9e565b7f00000000000000000000000000000000000000000000000000000000000000006001600160a01b0316610f3d7f360894a13ba1a3210667c828492db98dca3e2076cc3735a920a3ca505d382bbc546001600160a01b031690565b6001600160a01b031614610fa85760405162461bcd60e51b815260206004820152602c60248201527f46756e6374696f6e206d7573742062652063616c6c6564207468726f7567682060448201526b6163746976652070726f787960a01b6064820152608401610a9e565b610fb18161261e565b60408051600080825260208201909252610fcd91839190612626565b50565b610fd8611e9f565b600081116110285760405162461bcd60e51b815260206004820152601460248201527f4475726174696f6e206d757374206265203e20300000000000000000000000006044820152606401610a9e565b60da55565b60d954341461107e5760405162461bcd60e51b815260206004820152601360248201527f496e636f727265637420656e74727920666565000000000000000000000000006044820152606401610a9e565b611087816127cb565b60d854600090815260d260205260409020805460ff166110db5760405162461bcd60e51b815260206004820152600f60248201526e139bc81858dd1a5d99481c9bdd5b99608a1b6044820152606401610a9e565b8054610100900460ff16156111325760405162461bcd60e51b815260206004820152601660248201527f4472617720616c726561647920726571756573746564000000000000000000006044820152606401610a9e565b806002015442106111855760405162461bcd60e51b815260206004820152600d60248201527f526f756e642065787069726564000000000000000000000000000000000000006044820152606401610a9e565b348160030160008282546111999190613ad4565b909155505060d854600090815260d36020908152604091829020825160a081018452338152835160e0818101909552919390928301919086906007908390839080828437600092018290525092845250506020808301829052604083018290526060909201819052835460018082018655948252908290208351600490920201805473ffffffffffffffffffffffffffffffffffffffff19166001600160a01b039092169190911781559082015191929091611259918301906007613452565b50604082810151600283018054606086015160ff166101000261ff00199315159390931661ffff199091161791909117905560809092015160039091015560d854600081815260d360205291909120543391907f72c7c6a525d2c132932b4fc43ae4bb642b552692d21f5bedeb662e34b564e8e8906112da90600190613ae7565b856040516112e9929190613b0b565b60405180910390a35050565b606060ce80548060200260200160405190810160405280929190818152602001828054801561134357602002820191906000526020600020905b81548152602001906001019080831161132f575b5050505050905090565b600061135b828401846135bf565b60d854600081815260d26020526040902091925082146113bd5760405162461bcd60e51b815260206004820152600c60248201527f5374616c652075706b65657000000000000000000000000000000000000000006044820152606401610a9e565b805460ff166114005760405162461bcd60e51b815260206004820152600f60248201526e139bc81858dd1a5d99481c9bdd5b99608a1b6044820152606401610a9e565b8054610100900460ff16156114575760405162461bcd60e51b815260206004820152601660248201527f4472617720616c726561647920726571756573746564000000000000000000006044820152606401610a9e565b80600201544210156114ab5760405162461bcd60e51b815260206004820152601260248201527f526f756e64207374696c6c2061637469766500000000000000000000000000006044820152606401610a9e565b60d854600090815260d3602052604081205490036114cb57610e4f61296d565b6114d3612ae0565b5050505050565b600054600290610100900460ff161580156114fc575060005460ff8083169116105b61156e5760405162461bcd60e51b815260206004820152602e60248201527f496e697469616c697a61626c653a20636f6e747261637420697320616c72656160448201527f647920696e697469616c697a65640000000000000000000000000000000000006064820152608401610a9e565b6000805461ffff191660ff83161761010017905561158a612cfb565b655af3107a400060d95561012c60da5560db805460ff191690556000805461ff001916905560405160ff821681527f7f26b83ff96e1f2b6a682f133852f6798a09c465da95921460cefb38474024989060200160405180910390a150565b60cf81600781106115f857600080fd5b60209182820401919006915054906101000a900460ff1681565b6001600160a01b037f000000000000000000000000000000000000000000000000000000000000000016300361169f5760405162461bcd60e51b815260206004820152602c60248201527f46756e6374696f6e206d7573742062652063616c6c6564207468726f7567682060448201526b19195b1959d85d1958d85b1b60a21b6064820152608401610a9e565b7f00000000000000000000000000000000000000000000000000000000000000006001600160a01b03166116fa7f360894a13ba1a3210667c828492db98dca3e2076cc3735a920a3ca505d382bbc546001600160a01b031690565b6001600160a01b0316146117655760405162461bcd60e51b815260206004820152602c60248201527f46756e6374696f6e206d7573742062652063616c6c6564207468726f7567682060448201526b6163746976652070726f787960a01b6064820152608401610a9e565b61176e8261261e565b61177a82826001612626565b5050565b6000306001600160a01b037f0000000000000000000000000000000000000000000000000000000000000000161461181e5760405162461bcd60e51b815260206004820152603860248201527f555550535570677261646561626c653a206d757374206e6f742062652063616c60448201527f6c6564207468726f7567682064656c656761746563616c6c00000000000000006064820152608401610a9e565b507f360894a13ba1a3210667c828492db98dca3e2076cc3735a920a3ca505d382bbc90565b61184b611e9f565b611853612d81565b565b61185d613513565b600082815260d46020526040808220815160e08101928390529290916007918390855b825461010083900a900460ff16815260206001928301818104948501949093039092029101808411611880575094979650505050505050565b60d854600090815260d26020526040812080546060919060ff1680156118e657508054610100900460ff16155b80156118f6575080600201544210155b925060d85460405160200161190d91815260200190565b6040516020818303038152906040529150509250929050565b61192e611e9f565b6118536000612f15565b60d4602052816000526040600020816007811061195457600080fd5b602081049091015460ff601f9092166101000a9004169150829050565b611979613513565b6040805160e08101918290529060cf90600790826000855b825461010083900a900460ff168152602060019283018181049485019490930390920291018084116119915790505050505050905090565b6119d1611e9f565b60cc805461ffff9092166401000000000265ffff0000000019909216919091179055565b60ce8181548110611a0557600080fd5b600091825260209091200154905081565b611a1e611e9f565b60cb55565b6000611a2d613513565b60008060008060d360008981526020019081526020016000208781548110611a5757611a57613b4e565b6000918252602082206004909102018054600282015460038301546040805160e08101918290529496506001600160a01b0390931694600187019460ff808516956101009095041693909186916007918390855b825461010083900a900460ff16815260206001928301818104948501949093039092029101808411611aab5790505050505050935095509550955095509550509295509295909350565b611afd611e9f565b60cc805463ffffffff191663ffffffff92909216919091179055565b611b21611e9f565b60ca55565b33600090815260d5602052604090205480611b835760405162461bcd60e51b815260206004820152601360248201527f4e6f2072657761726420617661696c61626c65000000000000000000000000006044820152606401610a9e565b33600081815260d560205260408082208290555190919083908381818185875af1925050503d8060008114611bd4576040519150601f19603f3d011682016040523d82523d6000602084013e611bd9565b606091505b5050905080611c2a5760405162461bcd60e51b815260206004820152601660248201527f526577617264207472616e73666572206661696c6564000000000000000000006044820152606401610a9e565b60405182815233907f1d3eee4ca001cff39eec6ec7615aacf2f2bd61791273830728ba00ccbd6e133790602001610b96565b611c64611e9f565b60db805460ff1916911515919091179055565b600081815260d0602052604081205460609060ff16611cd85760405162461bcd60e51b815260206004820152601160248201527f52657175657374206e6f7420666f756e640000000000000000000000000000006044820152606401610a9e565b600083815260d060209081526040918290208054600182018054855181860281018601909652808652929461010090920460ff169390928391830182828015611d4057602002820191906000526020600020905b815481526020019060010190808311611d2c575b505050505090509250925050915091565b611d59611e9f565b6001600160a01b038116611dd55760405162461bcd60e51b815260206004820152602660248201527f4f776e61626c653a206e6577206f776e657220697320746865207a65726f206160448201527f64647265737300000000000000000000000000000000000000000000000000006064820152608401610a9e565b610fcd81612f15565b611de6611e9f565b60008163ffffffff1611611e3c5760405162461bcd60e51b815260206004820152601460248201527f6e756d576f726473206d757374206265203e20300000000000000000000000006044820152606401610a9e565b60cc805463ffffffff90921666010000000000000269ffffffff00000000000019909216919091179055565b611e70611e9f565b60c9805473ffffffffffffffffffffffffffffffffffffffff19166001600160a01b0392909216919091179055565b6033546001600160a01b031633146118535760405162461bcd60e51b815260206004820181905260248201527f4f776e61626c653a2063616c6c6572206973206e6f7420746865206f776e65726044820152606401610a9e565b611f01613513565b611f09613531565b6000805b60078210156120295760005b8581108015611f285750600783105b156120235760006031888884818110611f4357611f43613b4e565b9050602002013584604051602001611f65929190918252602082015260400190565b6040516020818303038152906040528051906020012060001c611f889190613b7a565b611f93906001613ad4565b9050848160ff1660328110611faa57611faa613b4e565b6020020151612002576001858260ff1660328110611fca57611fca613b4e565b9115156020909202015280868560078110611fe757611fe7613b4e565b60ff909216602092909202015283611ffe81613b8e565b9450505b8261200c81613b8e565b93505050808061201b90613b8e565b915050611f19565b50611f0d565b61203284612f74565b5050505b92915050565b600082815260d260205260409020805460ff1661209b5760405162461bcd60e51b815260206004820152601060248201527f526f756e64206e6f7420616374697665000000000000000000000000000000006044820152606401610a9e565b8054610100900460ff166120f15760405162461bcd60e51b815260206004820152601260248201527f44726177206e6f742072657175657374656400000000000000000000000000006044820152606401610a9e565b805462010000900460ff16156121495760405162461bcd60e51b815260206004820152601560248201527f526f756e6420616c726561647920736574746c656400000000000000000000006044820152606401610a9e565b600083815260d3602052604090208054612161613550565b60005b828110156122675760006121e685838154811061218357612183613b4e565b6000918252602082206040805160e081019182905293600490930290910160010191600791908390855b825461010083900a900460ff168152602060019283018181049485019490930390920291018084116121ad57905050505050508861306b565b9050808583815481106121fb576121fb613b4e565b600091825260209091206004909102016002908101805461ff00191661010060ff948516021790559082161061225457828160ff166008811061224057612240613b4e565b6020020180519061225082613b8e565b9052505b508061225f81613b8e565b915050612164565b5060006127106103e8866003015461227f9190613ba7565b6122899190613bbe565b9050600081866003015461229d9190613ae7565b905060006122a9613550565b60646122b6846005613ba7565b6122c09190613bbe565b604082015260646122d284600a613ba7565b6122dc9190613bbe565b606082015260646122ee84600f613ba7565b6122f89190613bbe565b6080820152606461230a846014613ba7565b6123149190613bbe565b60a08201526064612326846014613ba7565b6123309190613bbe565b60c0820152606461234284601e613ba7565b61234c9190613bbe565b60e0820152612359613550565b60025b60078160ff161161241f576000878260ff166008811061237e5761237e613b4e565b602002015111156123e657868160ff166008811061239e5761239e613b4e565b6020020151838260ff16600881106123b8576123b8613b4e565b60200201516123c79190613bbe565b828260ff16600881106123dc576123dc613b4e565b602002015261240d565b828160ff16600881106123fb576123fb613b4e565b602002015161240a9085613ad4565b93505b8061241781613bd2565b91505061235c565b5060005b8781101561258b57600089828154811061243f5761243f613b4e565b60009182526020909120600260049092020181015460ff6101009091041691508110612578576000838260ff166008811061247c5761247c613b4e565b60200201519050808b848154811061249657612496613b4e565b9060005260206000209060040201600301819055508060d560008d86815481106124c2576124c2613b4e565b600091825260208083206004909202909101546001600160a01b03168352820192909252604001812080549091906124fb908490613ad4565b925050819055508a838154811061251457612514613b4e565b6000918252602091829020600490910201546040805186815260ff86169381019390935282018390526001600160a01b0316908f907faf8d69c5bf84763f900b51e0405fdc2ad4eaf8b44698617a07ae9c31bc41204c9060600160405180910390a3505b508061258381613b8e565b915050612423565b508460d6600082825461259e9190613ad4565b925050819055508260d760008282546125b79190613ad4565b9091555050885462ff00ff1916620100001789556040518b907fb8ca8b8466fca767994635dc37682d654da89bf89d11de69e1025ccdb2cdfee590612601908d9089908890613bf1565b60405180910390a2612611612d81565b5050505050505050505050565b610fcd611e9f565b7f4910fdfa16fed3260ed0e7147f7cc6da11a60208b5b9406d12a635614ffd91435460ff161561265e57612659836130ea565b505050565b826001600160a01b03166352d1902d6040518163ffffffff1660e01b8152600401602060405180830381865afa9250505080156126b8575060408051601f3d908101601f191682019092526126b591810190613c12565b60015b61272a5760405162461bcd60e51b815260206004820152602e60248201527f45524331393637557067726164653a206e657720696d706c656d656e7461746960448201527f6f6e206973206e6f7420555550530000000000000000000000000000000000006064820152608401610a9e565b7f360894a13ba1a3210667c828492db98dca3e2076cc3735a920a3ca505d382bbc81146127bf5760405162461bcd60e51b815260206004820152602960248201527f45524331393637557067726164653a20756e737570706f727465642070726f7860448201527f6961626c655555494400000000000000000000000000000000000000000000006064820152608401610a9e565b506126598383836131b5565b6127d3613531565b60005b60078110156126595760018382600781106127f3576127f3613b4e565b6020020160208101906128069190613c2b565b60ff161015801561283f5750603183826007811061282657612826613b4e565b6020020160208101906128399190613c2b565b60ff1611155b61288b5760405162461bcd60e51b815260206004820152601360248201527f4e756d626572206f7574206f662072616e6765000000000000000000000000006044820152606401610a9e565b8183826007811061289e5761289e613b4e565b6020020160208101906128b19190613c2b565b60ff16603281106128c4576128c4613b4e565b6020020151156129165760405162461bcd60e51b815260206004820152601c60248201527f4475706c6963617465206e756d626572206e6f7420616c6c6f776564000000006044820152606401610a9e565b60018284836007811061292b5761292b613b4e565b60200201602081019061293e9190613c2b565b60ff166032811061295157612951613b4e565b911515602090920201528061296581613b8e565b9150506127d6565b60d854600090815260d260205260409020805460ff166129c15760405162461bcd60e51b815260206004820152600f60248201526e139bc81858dd1a5d99481c9bdd5b99608a1b6044820152606401610a9e565b8054610100900460ff1615612a185760405162461bcd60e51b815260206004820152601660248201527f4472617720616c726561647920726571756573746564000000000000000000006044820152606401610a9e565b8060020154421015612a6c5760405162461bcd60e51b815260206004820152601260248201527f526f756e64207374696c6c2061637469766500000000000000000000000000006044820152606401610a9e565b806003015460d76000828254612a829190613ad4565b9091555050805462ff00ff19166201000017815560d85460038201546040517f3fd1c85cda6246c06e5680d9888d379fe80d0234f53064ba2f3e3ef7698dfd4b91612ad09190815260200190565b60405180910390a2610fcd612d81565b60d854600090815260d26020908152604080832060c954825160c08101845260cb54815260ca548186015260cc5461ffff6401000000008204168286015263ffffffff80821660608401526601000000000000909104166080820152835194850190935260db5460ff161515845290926001600160a01b0390911691639b1c385e9160a0820190612b70906131da565b8152506040518263ffffffff1660e01b8152600401612b8f9190613c46565b6020604051808303816000875af1158015612bae573d6000803e3d6000fd5b505050506040513d601f19601f82011682018060405250810190612bd29190613c12565b604080516060810182526001808252600060208084018281528551838152808301875285870190815287845260d083529590922084518154935161ffff1990941690151561ff00191617610100931515939093029290921782559351805195975092949093612c469392850192019061356f565b505060d854600084815260d160209081526040918290209290925560cd859055835461010061ff001990911617845560cc548151868152660100000000000090910463ffffffff16928101929092527fcc58b13ad3eab50626c6a6300b1d139cd6ebb1688a7cced9461c2f7e762665ee92500160405180910390a160d8546040518381527fc67dda8e11f1aa941c7e74466b1859a07a32f46aaf641d29b83be348424d93cd9060200160405180910390a25090565b600054610100900460ff16612d785760405162461bcd60e51b815260206004820152602b60248201527f496e697469616c697a61626c653a20636f6e7472616374206973206e6f74206960448201527f6e697469616c697a696e670000000000000000000000000000000000000000006064820152608401610a9e565b61185333612f15565b60d8541580612da2575060d854600090815260d2602052604090205460ff16155b612dee5760405162461bcd60e51b815260206004820152601a60248201527f43757272656e7420726f756e64207374696c6c206163746976650000000000006044820152606401610a9e565b60d88054906000612dfe83613b8e565b91905055506040518060c0016040528060011515815260200160001515815260200160001515815260200142815260200160da5442612e3d9190613ad4565b815260d75460209182015260d88054600090815260d283526040908190208451815494860151928601511515620100000262ff0000199315156101000261ff00199215159290921661ffff19909616959095171791909116929092178255606083015160018301556080830151600283015560a0909201516003909101555460da547ffd9d17e5565deea3d25918d95fc398673b9445ef0a96d12eaf3ab2b198756c65904290612eed9082613ad4565b60d7546040805193845260208401929092529082015260600160405180910390a2600060d755565b603380546001600160a01b0383811673ffffffffffffffffffffffffffffffffffffffff19831681179093556040519116919082907f8be0079c531659141344cd1fd0a4f28419497f9722a3daafe3b4186f6b6457e090600090a35050565b60005b600781101561177a576000612f8d826001613ad4565b90505b600781101561305857828260078110612fab57612fab613b4e565b602002015160ff16838260078110612fc557612fc5613b4e565b602002015160ff161015613046576000838360078110612fe757612fe7613b4e565b6020020151905083826007811061300057613000613b4e565b602002015184846007811061301757613017613b4e565b60ff90921660209290920201528084836007811061303757613037613b4e565b60ff9092166020929092020152505b8061305081613b8e565b915050612f90565b508061306381613b8e565b915050612f77565b6000805b60078160ff1610156130e357828160ff166007811061309057613090613b4e565b602002015160ff16848260ff16600781106130ad576130ad613b4e565b602002015160ff16036130cc57816130c481613bd2565b9250506130d1565b6130e3565b806130db81613bd2565b91505061306f565b5092915050565b6001600160a01b0381163b6131675760405162461bcd60e51b815260206004820152602d60248201527f455243313936373a206e657720696d706c656d656e746174696f6e206973206e60448201527f6f74206120636f6e7472616374000000000000000000000000000000000000006064820152608401610a9e565b7f360894a13ba1a3210667c828492db98dca3e2076cc3735a920a3ca505d382bbc805473ffffffffffffffffffffffffffffffffffffffff19166001600160a01b0392909216919091179055565b6131be83613278565b6000825111806131cb5750805b1561265957610e4f83836132b8565b60607f92fd13387c7fe7befbc38d303d6468778fb9731bc4583f17d92989c6fcfdeaaa8260405160240161321391511515815260200190565b60408051601f198184030181529190526020810180517bffffffffffffffffffffffffffffffffffffffffffffffffffffffff167fffffffff000000000000000000000000000000000000000000000000000000009093169290921790915292915050565b613281816130ea565b6040516001600160a01b038216907fbc7cd75a20ee27fd9adebab32041f755214dbc6bffa90cc0225b39da2e5c2d3b90600090a250565b60606132dd8383604051806060016040528060278152602001613cd3602791396132e4565b9392505050565b6060600080856001600160a01b0316856040516133019190613ca3565b600060405180830381855af49150503d806000811461333c576040519150601f19603f3d011682016040523d82523d6000602084013e613341565b606091505b50915091506133528683838761335c565b9695505050505050565b606083156133cb5782516000036133c4576001600160a01b0385163b6133c45760405162461bcd60e51b815260206004820152601d60248201527f416464726573733a2063616c6c20746f206e6f6e2d636f6e74726163740000006044820152606401610a9e565b50816133d5565b6133d583836133dd565b949350505050565b8151156133ed5781518083602001fd5b8060405162461bcd60e51b8152600401610a9e9190613cbf565b828054828255906000526020600020908101928215613442579160200282015b82811115613442578235825591602001919060010190613427565b5061344e9291506135aa565b5090565b6001830191839082156134425791602002820160005b838211156134a657835183826101000a81548160ff021916908360ff1602179055509260200192600101602081600001049283019260010302613468565b80156134d35782816101000a81549060ff02191690556001016020816000010492830192600103026134a6565b505061344e9291506135aa565b6001830191839082156134425791601f016020900482015b828111156134425782548255916001019190600101906134f8565b6040518060e001604052806007906020820280368337509192915050565b6040518061064001604052806032906020820280368337509192915050565b6040518061010001604052806008906020820280368337509192915050565b828054828255906000526020600020908101928215613442579160200282015b8281111561344257825182559160200191906001019061358f565b5b8082111561344e57600081556001016135ab565b6000602082840312156135d157600080fd5b5035919050565b6000806000604084860312156135ed57600080fd5b83359250602084013567ffffffffffffffff8082111561360c57600080fd5b818601915086601f83011261362057600080fd5b81358181111561362f57600080fd5b8760208260051b850101111561364457600080fd5b6020830194508093505050509250925092565b80356001600160a01b038116811461366e57600080fd5b919050565b60006020828403121561368557600080fd5b6132dd82613657565b600060e082840312156136a057600080fd5b8260e0830111156136b057600080fd5b50919050565b600081518084526020808501945080840160005b838110156136e6578151875295820195908201906001016136ca565b509495945050505050565b6020815260006132dd60208301846136b6565b6000806020838503121561371757600080fd5b823567ffffffffffffffff8082111561372f57600080fd5b818501915085601f83011261374357600080fd5b81358181111561375257600080fd5b86602082850101111561376457600080fd5b60209290920196919550909350505050565b634e487b7160e01b600052604160045260246000fd5b6000806040838503121561379f57600080fd5b6137a883613657565b9150602083013567ffffffffffffffff808211156137c557600080fd5b818501915085601f8301126137d957600080fd5b8135818111156137eb576137eb613776565b604051601f8201601f19908116603f0116810190838211818310171561381357613813613776565b8160405282815288602084870101111561382c57600080fd5b8260208601602083013760006020848301015280955050505050509250929050565b8060005b6007811015610e4f57815160ff16845260209384019390910190600101613852565b60e08101612036828461384e565b60005b8381101561389d578181015183820152602001613885565b50506000910152565b600081518084526138be816020860160208601613882565b601f01601f19169290920160200192915050565b82151581526040602082015260006133d560408301846138a6565b6000806040838503121561390057600080fd5b50508035926020909101359150565b60006020828403121561392157600080fd5b813561ffff811681146132dd57600080fd5b6001600160a01b03861681526101608101613951602083018761384e565b93151561010082015260ff929092166101208301526101409091015292915050565b60006020828403121561398557600080fd5b813563ffffffff811681146132dd57600080fd5b6000602082840312156139ab57600080fd5b813580151581146132dd57600080fd5b82151581526040602082015260006133d560408301846136b6565b8381526040602082015281604082015260007f07ffffffffffffffffffffffffffffffffffffffffffffffffffffffffffffff831115613a1557600080fd5b8260051b8085606085013791909101606001949350505050565b600061012082019050848252836020830152825460ff8082166040850152808260081c166060850152808260101c166080850152613a7760a08501828460181c1660ff169052565b613a8b60c08501828460201c1660ff169052565b613a9f60e08501828460281c1660ff169052565b613ab46101008501828460301c1660ff169052565b5050949350505050565b634e487b7160e01b600052601160045260246000fd5b8082018082111561203657612036613abe565b8181038181111561203657612036613abe565b803560ff8116811461366e57600080fd5b828152610100810160208083018460005b6007811015613b435760ff613b3083613afa565b1683529183019190830190600101613b1c565b505050509392505050565b634e487b7160e01b600052603260045260246000fd5b634e487b7160e01b600052601260045260246000fd5b600082613b8957613b89613b64565b500690565b600060018201613ba057613ba0613abe565b5060010190565b808202811582820484141761203657612036613abe565b600082613bcd57613bcd613b64565b500490565b600060ff821660ff8103613be857613be8613abe565b60010192915050565b6101208101613c00828661384e565b60e08201939093526101000152919050565b600060208284031215613c2457600080fd5b5051919050565b600060208284031215613c3d57600080fd5b6132dd82613afa565b60208152815160208201526020820151604082015261ffff60408301511660608201526000606083015163ffffffff80821660808501528060808601511660a0850152505060a083015160c0808401526133d560e08401826138a6565b60008251613cb5818460208701613882565b9190910192915050565b6020815260006132dd60208301846138a656fe416464726573733a206c6f772d6c6576656c2064656c65676174652063616c6c206661696c6564a264697066735822122014883102bae817ce932341e61176f4fcf766f58a223bbe8b0c35f469066bb95264736f6c63430008140033","opcodes":"PUSH1 0xA0 PUSH1 0x40 MSTORE ADDRESS PUSH1 0x80 MSTORE CALLVALUE DUP1 ISZERO PUSH3 0x15 JUMPI PUSH1 0x0 DUP1 REVERT JUMPDEST POP PUSH3 0x20 PUSH3 0x26 JUMP JUMPDEST PUSH3 0xE7 JUMP JUMPDEST PUSH1 0x0 SLOAD PUSH2 0x100 SWAP1 DIV PUSH1 0xFF AND ISZERO PUSH3 0x93 JUMPI PUSH1 0x40 MLOAD PUSH3 0x461BCD PUSH1 0xE5 SHL DUP2 MSTORE PUSH1 0x20 PUSH1 0x4 DUP3 ADD MSTORE PUSH1 0x27 PUSH1 0x24 DUP3 ADD MSTORE PUSH32 0x496E697469616C697A61626C653A20636F6E747261637420697320696E697469 PUSH1 0x44 DUP3 ADD MSTORE PUSH7 0x616C697A696E67 PUSH1 0xC8 SHL PUSH1 0x64 DUP3 ADD MSTORE PUSH1 0x84 ADD PUSH1 0x40 MLOAD DUP1 SWAP2 SUB SWAP1 REVERT JUMPDEST PUSH1 0x0 SLOAD PUSH1 0xFF SWAP1 DUP2 AND EQ PUSH3 0xE5 JUMPI PUSH1 0x0 DUP1 SLOAD PUSH1 0xFF NOT AND PUSH1 0xFF SWAP1 DUP2 OR SWAP1 SWAP2 SSTORE PUSH1 0x40 MLOAD SWAP1 DUP2 MSTORE PUSH32 0x7F26B83FF96E1F2B6A682F133852F6798A09C465DA95921460CEFB3847402498 SWAP1 PUSH1 0x20 ADD PUSH1 0x40 MLOAD DUP1 SWAP2 SUB SWAP1 LOG1 JUMPDEST JUMP JUMPDEST PUSH1 0x80 MLOAD PUSH2 0x3D2F PUSH3 0x11F PUSH1 0x0 CODECOPY PUSH1 0x0 DUP2 DUP2 PUSH2 0xE5F ADD MSTORE DUP2 DUP2 PUSH2 0xEE4 ADD MSTORE DUP2 DUP2 PUSH2 0x161C ADD MSTORE DUP2 DUP2 PUSH2 0x16A1 ADD MSTORE PUSH2 0x178B ADD MSTORE PUSH2 0x3D2F PUSH1 0x0 RETURN INVALID PUSH1 0x80 PUSH1 0x40 MSTORE PUSH1 0x4 CALLDATASIZE LT PUSH2 0x338 JUMPI PUSH1 0x0 CALLDATALOAD PUSH1 0xE0 SHR DUP1 PUSH4 0x82FBC5C2 GT PUSH2 0x1B0 JUMPI DUP1 PUSH4 0xB368BA42 GT PUSH2 0xEC JUMPI DUP1 PUSH4 0xD8A4676F GT PUSH2 0x95 JUMPI DUP1 PUSH4 0xF30C07D3 GT PUSH2 0x6F JUMPI DUP1 PUSH4 0xF30C07D3 EQ PUSH2 0x9DE JUMPI DUP1 PUSH4 0xF7CB789A EQ PUSH2 0x9FE JUMPI DUP1 PUSH4 0xF9F94E34 EQ PUSH2 0xA14 JUMPI DUP1 PUSH4 0xFC2A88C3 EQ PUSH2 0xA34 JUMPI PUSH1 0x0 DUP1 REVERT JUMPDEST DUP1 PUSH4 0xD8A4676F EQ PUSH2 0x97A JUMPI DUP1 PUSH4 0xE1A45218 EQ PUSH2 0x9A8 JUMPI DUP1 PUSH4 0xF2FDE38B EQ PUSH2 0x9BE JUMPI PUSH1 0x0 DUP1 REVERT JUMPDEST DUP1 PUSH4 0xC885BC58 GT PUSH2 0xC6 JUMPI DUP1 PUSH4 0xC885BC58 EQ PUSH2 0x918 JUMPI DUP1 PUSH4 0xC88E1561 EQ PUSH2 0x92D JUMPI DUP1 PUSH4 0xD88D27D6 EQ PUSH2 0x94D JUMPI PUSH1 0x0 DUP1 REVERT JUMPDEST DUP1 PUSH4 0xB368BA42 EQ PUSH2 0x8A1 JUMPI DUP1 PUSH4 0xC1E0D236 EQ PUSH2 0x8CB JUMPI DUP1 PUSH4 0xC4289070 EQ PUSH2 0x8EB JUMPI PUSH1 0x0 DUP1 REVERT JUMPDEST DUP1 PUSH4 0x98544710 GT PUSH2 0x159 JUMPI DUP1 PUSH4 0xA426E4C8 GT PUSH2 0x133 JUMPI DUP1 PUSH4 0xA426E4C8 EQ PUSH2 0x804 JUMPI DUP1 PUSH4 0xA4EB718C EQ PUSH2 0x835 JUMPI DUP1 PUSH4 0xB0FB162F EQ PUSH2 0x855 JUMPI DUP1 PUSH4 0xB28F6EF1 EQ PUSH2 0x88B JUMPI PUSH1 0x0 DUP1 REVERT JUMPDEST DUP1 PUSH4 0x98544710 EQ PUSH2 0x7AE JUMPI DUP1 PUSH4 0x9CBE5EFD EQ PUSH2 0x7CE JUMPI DUP1 PUSH4 0x9ECCACF6 EQ PUSH2 0x7E4 JUMPI PUSH1 0x0 DUP1 REVERT JUMPDEST DUP1 PUSH4 0x8C65C81F GT PUSH2 0x18A JUMPI DUP1 PUSH4 0x8C65C81F EQ PUSH2 0x6D0 JUMPI DUP1 PUSH4 0x8DA5CB5B EQ PUSH2 0x75C JUMPI DUP1 PUSH4 0x900FC869 EQ PUSH2 0x78E JUMPI PUSH1 0x0 DUP1 REVERT JUMPDEST DUP1 PUSH4 0x82FBC5C2 EQ PUSH2 0x67B JUMPI DUP1 PUSH4 0x84350E1D EQ PUSH2 0x69B JUMPI DUP1 PUSH4 0x8824F5A7 EQ PUSH2 0x6B0 JUMPI PUSH1 0x0 DUP1 REVERT JUMPDEST DUP1 PUSH4 0x3C51C7BB GT PUSH2 0x27F JUMPI DUP1 PUSH4 0x55E3F086 GT PUSH2 0x228 JUMPI DUP1 PUSH4 0x6E04FF0D GT PUSH2 0x202 JUMPI DUP1 PUSH4 0x6E04FF0D EQ PUSH2 0x5C1 JUMPI DUP1 PUSH4 0x715018A6 EQ PUSH2 0x5EF JUMPI DUP1 PUSH4 0x7CCFD7FC EQ PUSH2 0x604 JUMPI DUP1 PUSH4 0x81D12C58 EQ PUSH2 0x62B JUMPI PUSH1 0x0 DUP1 REVERT JUMPDEST DUP1 PUSH4 0x55E3F086 EQ PUSH2 0x569 JUMPI DUP1 PUSH4 0x61728F39 EQ PUSH2 0x57E JUMPI DUP1 PUSH4 0x64069E71 EQ PUSH2 0x594 JUMPI PUSH1 0x0 DUP1 REVERT JUMPDEST DUP1 PUSH4 0x4E45F095 GT PUSH2 0x259 JUMPI DUP1 PUSH4 0x4E45F095 EQ PUSH2 0x50F JUMPI DUP1 PUSH4 0x4F1EF286 EQ PUSH2 0x541 JUMPI DUP1 PUSH4 0x52D1902D EQ PUSH2 0x554 JUMPI PUSH1 0x0 DUP1 REVERT JUMPDEST DUP1 PUSH4 0x3C51C7BB EQ PUSH2 0x4C4 JUMPI DUP1 PUSH4 0x4585E33B EQ PUSH2 0x4DA JUMPI DUP1 PUSH4 0x472ABF68 EQ PUSH2 0x4FA JUMPI PUSH1 0x0 DUP1 REVERT JUMPDEST DUP1 PUSH4 0x25C5D34A GT PUSH2 0x2E1 JUMPI DUP1 PUSH4 0x36C92C3F GT PUSH2 0x2BB JUMPI DUP1 PUSH4 0x36C92C3F EQ PUSH2 0x46F JUMPI DUP1 PUSH4 0x39E7397B EQ PUSH2 0x48F JUMPI DUP1 PUSH4 0x3C256B24 EQ PUSH2 0x4A2 JUMPI PUSH1 0x0 DUP1 REVERT JUMPDEST DUP1 PUSH4 0x25C5D34A EQ PUSH2 0x40C JUMPI DUP1 PUSH4 0x31D7A262 EQ PUSH2 0x422 JUMPI DUP1 PUSH4 0x3659CFE6 EQ PUSH2 0x44F JUMPI PUSH1 0x0 DUP1 REVERT JUMPDEST DUP1 PUSH4 0x15981650 GT PUSH2 0x312 JUMPI DUP1 PUSH4 0x15981650 EQ PUSH2 0x39A JUMPI DUP1 PUSH4 0x1FE543E3 EQ PUSH2 0x3BA JUMPI DUP1 PUSH4 0x24F74697 EQ PUSH2 0x3DA JUMPI PUSH1 0x0 DUP1 REVERT JUMPDEST DUP1 PUSH4 0x72EA61C EQ PUSH2 0x344 JUMPI DUP1 PUSH4 0x9C1BA2E EQ PUSH2 0x36D JUMPI DUP1 PUSH4 0xA9EF34C EQ PUSH2 0x383 JUMPI PUSH1 0x0 DUP1 REVERT JUMPDEST CALLDATASIZE PUSH2 0x33F JUMPI STOP JUMPDEST PUSH1 0x0 DUP1 REVERT JUMPDEST CALLVALUE DUP1 ISZERO PUSH2 0x350 JUMPI PUSH1 0x0 DUP1 REVERT JUMPDEST POP PUSH2 0x35A PUSH1 0xD9 SLOAD DUP2 JUMP JUMPDEST PUSH1 0x40 MLOAD SWAP1 DUP2 MSTORE PUSH1 0x20 ADD JUMPDEST PUSH1 0x40 MLOAD DUP1 SWAP2 SUB SWAP1 RETURN JUMPDEST CALLVALUE DUP1 ISZERO PUSH2 0x379 JUMPI PUSH1 0x0 DUP1 REVERT JUMPDEST POP PUSH2 0x35A PUSH1 0xCA SLOAD DUP2 JUMP JUMPDEST CALLVALUE DUP1 ISZERO PUSH2 0x38F JUMPI PUSH1 0x0 DUP1 REVERT JUMPDEST POP PUSH2 0x398 PUSH2 0xA4A JUMP JUMPDEST STOP JUMPDEST CALLVALUE DUP1 ISZERO PUSH2 0x3A6 JUMPI PUSH1 0x0 DUP1 REVERT JUMPDEST POP PUSH2 0x398 PUSH2 0x3B5 CALLDATASIZE PUSH1 0x4 PUSH2 0x35BF JUMP JUMPDEST PUSH2 0xBA2 JUMP JUMPDEST CALLVALUE DUP1 ISZERO PUSH2 0x3C6 JUMPI PUSH1 0x0 DUP1 REVERT JUMPDEST POP PUSH2 0x398 PUSH2 0x3D5 CALLDATASIZE PUSH1 0x4 PUSH2 0x35D8 JUMP JUMPDEST PUSH2 0xBFF JUMP JUMPDEST CALLVALUE DUP1 ISZERO PUSH2 0x3E6 JUMPI PUSH1 0x0 DUP1 REVERT JUMPDEST POP PUSH1 0xCC SLOAD PUSH2 0x3F7 SWAP1 PUSH4 0xFFFFFFFF AND DUP2 JUMP JUMPDEST PUSH1 0x40 MLOAD PUSH4 0xFFFFFFFF SWAP1 SWAP2 AND DUP2 MSTORE PUSH1 0x20 ADD PUSH2 0x364 JUMP JUMPDEST CALLVALUE DUP1 ISZERO PUSH2 0x418 JUMPI PUSH1 0x0 DUP1 REVERT JUMPDEST POP PUSH2 0x35A PUSH2 0x3E8 DUP2 JUMP JUMPDEST CALLVALUE DUP1 ISZERO PUSH2 0x42E JUMPI PUSH1 0x0 DUP1 REVERT JUMPDEST POP PUSH2 0x35A PUSH2 0x43D CALLDATASIZE PUSH1 0x4 PUSH2 0x3673 JUMP JUMPDEST PUSH1 0xD5 PUSH1 0x20 MSTORE PUSH1 0x0 SWAP1 DUP2 MSTORE PUSH1 0x40 SWAP1 KECCAK256 SLOAD DUP2 JUMP JUMPDEST CALLVALUE DUP1 ISZERO PUSH2 0x45B JUMPI PUSH1 0x0 DUP1 REVERT JUMPDEST POP PUSH2 0x398 PUSH2 0x46A CALLDATASIZE PUSH1 0x4 PUSH2 0x3673 JUMP JUMPDEST PUSH2 0xE55 JUMP JUMPDEST CALLVALUE DUP1 ISZERO PUSH2 0x47B JUMPI PUSH1 0x0 DUP1 REVERT JUMPDEST POP PUSH2 0x398 PUSH2 0x48A CALLDATASIZE PUSH1 0x4 PUSH2 0x35BF JUMP JUMPDEST PUSH2 0xFD0 JUMP JUMPDEST PUSH2 0x398 PUSH2 0x49D CALLDATASIZE PUSH1 0x4 PUSH2 0x368E JUMP JUMPDEST PUSH2 0x102D JUMP JUMPDEST CALLVALUE DUP1 ISZERO PUSH2 0x4AE JUMPI PUSH1 0x0 DUP1 REVERT JUMPDEST POP PUSH2 0x4B7 PUSH2 0x12F5 JUMP JUMPDEST PUSH1 0x40 MLOAD PUSH2 0x364 SWAP2 SWAP1 PUSH2 0x36F1 JUMP JUMPDEST CALLVALUE DUP1 ISZERO PUSH2 0x4D0 JUMPI PUSH1 0x0 DUP1 REVERT JUMPDEST POP PUSH2 0x35A PUSH1 0xD7 SLOAD DUP2 JUMP JUMPDEST CALLVALUE DUP1 ISZERO PUSH2 0x4E6 JUMPI PUSH1 0x0 DUP1 REVERT JUMPDEST POP PUSH2 0x398 PUSH2 0x4F5 CALLDATASIZE PUSH1 0x4 PUSH2 0x3704 JUMP JUMPDEST PUSH2 0x134D JUMP JUMPDEST CALLVALUE DUP1 ISZERO PUSH2 0x506 JUMPI PUSH1 0x0 DUP1 REVERT JUMPDEST POP PUSH2 0x398 PUSH2 0x14DA JUMP JUMPDEST CALLVALUE DUP1 ISZERO PUSH2 0x51B JUMPI PUSH1 0x0 DUP1 REVERT JUMPDEST POP PUSH2 0x52F PUSH2 0x52A CALLDATASIZE PUSH1 0x4 PUSH2 0x35BF JUMP JUMPDEST PUSH2 0x15E8 JUMP JUMPDEST PUSH1 0x40 MLOAD PUSH1 0xFF SWAP1 SWAP2 AND DUP2 MSTORE PUSH1 0x20 ADD PUSH2 0x364 JUMP JUMPDEST PUSH2 0x398 PUSH2 0x54F CALLDATASIZE PUSH1 0x4 PUSH2 0x378C JUMP JUMPDEST PUSH2 0x1612 JUMP JUMPDEST CALLVALUE DUP1 ISZERO PUSH2 0x560 JUMPI PUSH1 0x0 DUP1 REVERT JUMPDEST POP PUSH2 0x35A PUSH2 0x177E JUMP JUMPDEST CALLVALUE DUP1 ISZERO PUSH2 0x575 JUMPI PUSH1 0x0 DUP1 REVERT JUMPDEST POP PUSH2 0x398 PUSH2 0x1843 JUMP JUMPDEST CALLVALUE DUP1 ISZERO PUSH2 0x58A JUMPI PUSH1 0x0 DUP1 REVERT JUMPDEST POP PUSH2 0x35A PUSH1 0xCB SLOAD DUP2 JUMP JUMPDEST CALLVALUE DUP1 ISZERO PUSH2 0x5A0 JUMPI PUSH1 0x0 DUP1 REVERT JUMPDEST POP PUSH2 0x5B4 PUSH2 0x5AF CALLDATASIZE PUSH1 0x4 PUSH2 0x35BF JUMP JUMPDEST PUSH2 0x1855 JUMP JUMPDEST PUSH1 0x40 MLOAD PUSH2 0x364 SWAP2 SWAP1 PUSH2 0x3874 JUMP JUMPDEST CALLVALUE DUP1 ISZERO PUSH2 0x5CD JUMPI PUSH1 0x0 DUP1 REVERT JUMPDEST POP PUSH2 0x5E1 PUSH2 0x5DC CALLDATASIZE PUSH1 0x4 PUSH2 0x3704 JUMP JUMPDEST PUSH2 0x18B9 JUMP JUMPDEST PUSH1 0x40 MLOAD PUSH2 0x364 SWAP3 SWAP2 SWAP1 PUSH2 0x38D2 JUMP JUMPDEST CALLVALUE DUP1 ISZERO PUSH2 0x5FB JUMPI PUSH1 0x0 DUP1 REVERT JUMPDEST POP PUSH2 0x398 PUSH2 0x1926 JUMP JUMPDEST CALLVALUE DUP1 ISZERO PUSH2 0x610 JUMPI PUSH1 0x0 DUP1 REVERT JUMPDEST POP PUSH1 0xCC SLOAD PUSH2 0x3F7 SWAP1 PUSH7 0x1000000000000 SWAP1 DIV PUSH4 0xFFFFFFFF AND DUP2 JUMP JUMPDEST CALLVALUE DUP1 ISZERO PUSH2 0x637 JUMPI PUSH1 0x0 DUP1 REVERT JUMPDEST POP PUSH2 0x664 PUSH2 0x646 CALLDATASIZE PUSH1 0x4 PUSH2 0x35BF JUMP JUMPDEST PUSH1 0xD0 PUSH1 0x20 MSTORE PUSH1 0x0 SWAP1 DUP2 MSTORE PUSH1 0x40 SWAP1 KECCAK256 SLOAD PUSH1 0xFF DUP1 DUP3 AND SWAP2 PUSH2 0x100 SWAP1 DIV AND DUP3 JUMP JUMPDEST PUSH1 0x40 DUP1 MLOAD SWAP3 ISZERO ISZERO DUP4 MSTORE SWAP1 ISZERO ISZERO PUSH1 0x20 DUP4 ADD MSTORE ADD PUSH2 0x364 JUMP JUMPDEST CALLVALUE DUP1 ISZERO PUSH2 0x687 JUMPI PUSH1 0x0 DUP1 REVERT JUMPDEST POP PUSH2 0x52F PUSH2 0x696 CALLDATASIZE PUSH1 0x4 PUSH2 0x38ED JUMP JUMPDEST PUSH2 0x1938 JUMP JUMPDEST CALLVALUE DUP1 ISZERO PUSH2 0x6A7 JUMPI PUSH1 0x0 DUP1 REVERT JUMPDEST POP PUSH2 0x5B4 PUSH2 0x1971 JUMP JUMPDEST CALLVALUE DUP1 ISZERO PUSH2 0x6BC JUMPI PUSH1 0x0 DUP1 REVERT JUMPDEST POP PUSH2 0x398 PUSH2 0x6CB CALLDATASIZE PUSH1 0x4 PUSH2 0x390F JUMP JUMPDEST PUSH2 0x19C9 JUMP JUMPDEST CALLVALUE DUP1 ISZERO PUSH2 0x6DC JUMPI PUSH1 0x0 DUP1 REVERT JUMPDEST POP PUSH2 0x727 PUSH2 0x6EB CALLDATASIZE PUSH1 0x4 PUSH2 0x35BF JUMP JUMPDEST PUSH1 0xD2 PUSH1 0x20 MSTORE PUSH1 0x0 SWAP1 DUP2 MSTORE PUSH1 0x40 SWAP1 KECCAK256 DUP1 SLOAD PUSH1 0x1 DUP3 ADD SLOAD PUSH1 0x2 DUP4 ADD SLOAD PUSH1 0x3 SWAP1 SWAP4 ADD SLOAD PUSH1 0xFF DUP1 DUP5 AND SWAP5 PUSH2 0x100 DUP6 DIV DUP3 AND SWAP5 PUSH3 0x10000 SWAP1 DIV SWAP1 SWAP2 AND SWAP3 SWAP2 DUP7 JUMP JUMPDEST PUSH1 0x40 DUP1 MLOAD SWAP7 ISZERO ISZERO DUP8 MSTORE SWAP5 ISZERO ISZERO PUSH1 0x20 DUP8 ADD MSTORE SWAP3 ISZERO ISZERO SWAP4 DUP6 ADD SWAP4 SWAP1 SWAP4 MSTORE PUSH1 0x60 DUP5 ADD MSTORE PUSH1 0x80 DUP4 ADD SWAP2 SWAP1 SWAP2 MSTORE PUSH1 0xA0 DUP3 ADD MSTORE PUSH1 0xC0 ADD PUSH2 0x364 JUMP JUMPDEST CALLVALUE DUP1 ISZERO PUSH2 0x768 JUMPI PUSH1 0x0 DUP1 REVERT JUMPDEST POP PUSH1 0x33 SLOAD PUSH1 0x1 PUSH1 0x1 PUSH1 0xA0 SHL SUB AND JUMPDEST PUSH1 0x40 MLOAD PUSH1 0x1 PUSH1 0x1 PUSH1 0xA0 SHL SUB SWAP1 SWAP2 AND DUP2 MSTORE PUSH1 0x20 ADD PUSH2 0x364 JUMP JUMPDEST CALLVALUE DUP1 ISZERO PUSH2 0x79A JUMPI PUSH1 0x0 DUP1 REVERT JUMPDEST POP PUSH2 0x35A PUSH2 0x7A9 CALLDATASIZE PUSH1 0x4 PUSH2 0x35BF JUMP JUMPDEST PUSH2 0x19F5 JUMP JUMPDEST CALLVALUE DUP1 ISZERO PUSH2 0x7BA JUMPI PUSH1 0x0 DUP1 REVERT JUMPDEST POP PUSH2 0x398 PUSH2 0x7C9 CALLDATASIZE PUSH1 0x4 PUSH2 0x35BF JUMP JUMPDEST PUSH2 0x1A16 JUMP JUMPDEST CALLVALUE DUP1 ISZERO PUSH2 0x7DA JUMPI PUSH1 0x0 DUP1 REVERT JUMPDEST POP PUSH2 0x35A PUSH1 0xD8 SLOAD DUP2 JUMP JUMPDEST CALLVALUE DUP1 ISZERO PUSH2 0x7F0 JUMPI PUSH1 0x0 DUP1 REVERT JUMPDEST POP PUSH1 0xC9 SLOAD PUSH2 0x776 SWAP1 PUSH1 0x1 PUSH1 0x1 PUSH1 0xA0 SHL SUB AND DUP2 JUMP JUMPDEST CALLVALUE DUP1 ISZERO PUSH2 0x810 JUMPI PUSH1 0x0 DUP1 REVERT JUMPDEST POP PUSH2 0x824 PUSH2 0x81F CALLDATASIZE PUSH1 0x4 PUSH2 0x38ED JUMP JUMPDEST PUSH2 0x1A23 JUMP JUMPDEST PUSH1 0x40 MLOAD PUSH2 0x364 SWAP6 SWAP5 SWAP4 SWAP3 SWAP2 SWAP1 PUSH2 0x3933 JUMP JUMPDEST CALLVALUE DUP1 ISZERO PUSH2 0x841 JUMPI PUSH1 0x0 DUP1 REVERT JUMPDEST POP PUSH2 0x398 PUSH2 0x850 CALLDATASIZE PUSH1 0x4 PUSH2 0x3973 JUMP JUMPDEST PUSH2 0x1AF5 JUMP JUMPDEST CALLVALUE DUP1 ISZERO PUSH2 0x861 JUMPI PUSH1 0x0 DUP1 REVERT JUMPDEST POP PUSH1 0xCC SLOAD PUSH2 0x878 SWAP1 PUSH5 0x100000000 SWAP1 DIV PUSH2 0xFFFF AND DUP2 JUMP JUMPDEST PUSH1 0x40 MLOAD PUSH2 0xFFFF SWAP1 SWAP2 AND DUP2 MSTORE PUSH1 0x20 ADD PUSH2 0x364 JUMP JUMPDEST CALLVALUE DUP1 ISZERO PUSH2 0x897 JUMPI PUSH1 0x0 DUP1 REVERT JUMPDEST POP PUSH2 0x35A PUSH1 0xD6 SLOAD DUP2 JUMP JUMPDEST CALLVALUE DUP1 ISZERO PUSH2 0x8AD JUMPI PUSH1 0x0 DUP1 REVERT JUMPDEST POP PUSH1 0xDB SLOAD PUSH2 0x8BB SWAP1 PUSH1 0xFF AND DUP2 JUMP JUMPDEST PUSH1 0x40 MLOAD SWAP1 ISZERO ISZERO DUP2 MSTORE PUSH1 0x20 ADD PUSH2 0x364 JUMP JUMPDEST CALLVALUE DUP1 ISZERO PUSH2 0x8D7 JUMPI PUSH1 0x0 DUP1 REVERT JUMPDEST POP PUSH2 0x398 PUSH2 0x8E6 CALLDATASIZE PUSH1 0x4 PUSH2 0x35BF JUMP JUMPDEST PUSH2 0x1B19 JUMP JUMPDEST CALLVALUE DUP1 ISZERO PUSH2 0x8F7 JUMPI PUSH1 0x0 DUP1 REVERT JUMPDEST POP PUSH2 0x35A PUSH2 0x906 CALLDATASIZE PUSH1 0x4 PUSH2 0x35BF JUMP JUMPDEST PUSH1 0x0 SWAP1 DUP2 MSTORE PUSH1 0xD3 PUSH1 0x20 MSTORE PUSH1 0x40 SWAP1 KECCAK256 SLOAD SWAP1 JUMP JUMPDEST CALLVALUE DUP1 ISZERO PUSH2 0x924 JUMPI PUSH1 0x0 DUP1 REVERT JUMPDEST POP PUSH2 0x398 PUSH2 0x1B26 JUMP JUMPDEST CALLVALUE DUP1 ISZERO PUSH2 0x939 JUMPI PUSH1 0x0 DUP1 REVERT JUMPDEST POP PUSH2 0x398 PUSH2 0x948 CALLDATASIZE PUSH1 0x4 PUSH2 0x3999 JUMP JUMPDEST PUSH2 0x1C5C JUMP JUMPDEST CALLVALUE DUP1 ISZERO PUSH2 0x959 JUMPI PUSH1 0x0 DUP1 REVERT JUMPDEST POP PUSH2 0x35A PUSH2 0x968 CALLDATASIZE PUSH1 0x4 PUSH2 0x35BF JUMP JUMPDEST PUSH1 0xD1 PUSH1 0x20 MSTORE PUSH1 0x0 SWAP1 DUP2 MSTORE PUSH1 0x40 SWAP1 KECCAK256 SLOAD DUP2 JUMP JUMPDEST CALLVALUE DUP1 ISZERO PUSH2 0x986 JUMPI PUSH1 0x0 DUP1 REVERT JUMPDEST POP PUSH2 0x99A PUSH2 0x995 CALLDATASIZE PUSH1 0x4 PUSH2 0x35BF JUMP JUMPDEST PUSH2 0x1C77 JUMP JUMPDEST PUSH1 0x40 MLOAD PUSH2 0x364 SWAP3 SWAP2 SWAP1 PUSH2 0x39BB JUMP JUMPDEST CALLVALUE DUP1 ISZERO PUSH2 0x9B4 JUMPI PUSH1 0x0 DUP1 REVERT JUMPDEST POP PUSH2 0x35A PUSH2 0x2710 DUP2 JUMP JUMPDEST CALLVALUE DUP1 ISZERO PUSH2 0x9CA JUMPI PUSH1 0x0 DUP1 REVERT JUMPDEST POP PUSH2 0x398 PUSH2 0x9D9 CALLDATASIZE PUSH1 0x4 PUSH2 0x3673 JUMP JUMPDEST PUSH2 0x1D51 JUMP JUMPDEST CALLVALUE DUP1 ISZERO PUSH2 0x9EA JUMPI PUSH1 0x0 DUP1 REVERT JUMPDEST POP PUSH2 0x398 PUSH2 0x9F9 CALLDATASIZE PUSH1 0x4 PUSH2 0x3973 JUMP JUMPDEST PUSH2 0x1DDE JUMP JUMPDEST CALLVALUE DUP1 ISZERO PUSH2 0xA0A JUMPI PUSH1 0x0 DUP1 REVERT JUMPDEST POP PUSH2 0x35A PUSH1 0xDA SLOAD DUP2 JUMP JUMPDEST CALLVALUE DUP1 ISZERO PUSH2 0xA20 JUMPI PUSH1 0x0 DUP1 REVERT JUMPDEST POP PUSH2 0x398 PUSH2 0xA2F CALLDATASIZE PUSH1 0x4 PUSH2 0x3673 JUMP JUMPDEST PUSH2 0x1E68 JUMP JUMPDEST CALLVALUE DUP1 ISZERO PUSH2 0xA40 JUMPI PUSH1 0x0 DUP1 REVERT JUMPDEST POP PUSH2 0x35A PUSH1 0xCD SLOAD DUP2 JUMP JUMPDEST PUSH2 0xA52 PUSH2 0x1E9F JUMP JUMPDEST PUSH1 0xD6 SLOAD DUP1 PUSH2 0xAA7 JUMPI PUSH1 0x40 MLOAD PUSH3 0x461BCD PUSH1 0xE5 SHL DUP2 MSTORE PUSH1 0x20 PUSH1 0x4 DUP3 ADD MSTORE PUSH1 0xD PUSH1 0x24 DUP3 ADD MSTORE PUSH32 0x4E6F206F776E6572206665657300000000000000000000000000000000000000 PUSH1 0x44 DUP3 ADD MSTORE PUSH1 0x64 ADD JUMPDEST PUSH1 0x40 MLOAD DUP1 SWAP2 SUB SWAP1 REVERT JUMPDEST PUSH1 0x0 PUSH1 0xD6 DUP2 SWAP1 SSTORE PUSH1 0x33 SLOAD PUSH1 0x40 MLOAD PUSH1 0x1 PUSH1 0x1 PUSH1 0xA0 SHL SUB SWAP1 SWAP2 AND SWAP1 DUP4 SWAP1 DUP4 DUP2 DUP2 DUP2 DUP6 DUP8 GAS CALL SWAP3 POP POP POP RETURNDATASIZE DUP1 PUSH1 0x0 DUP2 EQ PUSH2 0xAFA JUMPI PUSH1 0x40 MLOAD SWAP2 POP PUSH1 0x1F NOT PUSH1 0x3F RETURNDATASIZE ADD AND DUP3 ADD PUSH1 0x40 MSTORE RETURNDATASIZE DUP3 MSTORE RETURNDATASIZE PUSH1 0x0 PUSH1 0x20 DUP5 ADD RETURNDATACOPY PUSH2 0xAFF JUMP JUMPDEST PUSH1 0x60 SWAP2 POP JUMPDEST POP POP SWAP1 POP DUP1 PUSH2 0xB50 JUMPI PUSH1 0x40 MLOAD PUSH3 0x461BCD PUSH1 0xE5 SHL DUP2 MSTORE PUSH1 0x20 PUSH1 0x4 DUP3 ADD MSTORE PUSH1 0x19 PUSH1 0x24 DUP3 ADD MSTORE PUSH32 0x4F776E657220666565207472616E73666572206661696C656400000000000000 PUSH1 0x44 DUP3 ADD MSTORE PUSH1 0x64 ADD PUSH2 0xA9E JUMP JUMPDEST PUSH1 0x33 SLOAD PUSH1 0x1 PUSH1 0x1 PUSH1 0xA0 SHL SUB AND PUSH1 0x1 PUSH1 0x1 PUSH1 0xA0 SHL SUB AND PUSH32 0x8C86225979E924F39334C49A16A32E53CA5FFE7A271A6793B57476CD62749D05 DUP4 PUSH1 0x40 MLOAD PUSH2 0xB96 SWAP2 DUP2 MSTORE PUSH1 0x20 ADD SWAP1 JUMP JUMPDEST PUSH1 0x40 MLOAD DUP1 SWAP2 SUB SWAP1 LOG2 POP POP JUMP JUMPDEST PUSH2 0xBAA PUSH2 0x1E9F JUMP JUMPDEST PUSH1 0x0 DUP2 GT PUSH2 0xBFA JUMPI PUSH1 0x40 MLOAD PUSH3 0x461BCD PUSH1 0xE5 SHL DUP2 MSTORE PUSH1 0x20 PUSH1 0x4 DUP3 ADD MSTORE PUSH1 0x11 PUSH1 0x24 DUP3 ADD MSTORE PUSH32 0x5072696365206D757374206265203E2030000000000000000000000000000000 PUSH1 0x44 DUP3 ADD MSTORE PUSH1 0x64 ADD PUSH2 0xA9E JUMP JUMPDEST PUSH1 0xD9 SSTORE JUMP JUMPDEST PUSH1 0xC9 SLOAD PUSH1 0x1 PUSH1 0x1 PUSH1 0xA0 SHL SUB AND CALLER EQ PUSH2 0xC59 JUMPI PUSH1 0x40 MLOAD PUSH3 0x461BCD PUSH1 0xE5 SHL DUP2 MSTORE PUSH1 0x20 PUSH1 0x4 DUP3 ADD MSTORE PUSH1 0x1C PUSH1 0x24 DUP3 ADD MSTORE PUSH32 0x4F6E6C7920636F6F7264696E61746F722063616E2066756C66696C6C00000000 PUSH1 0x44 DUP3 ADD MSTORE PUSH1 0x64 ADD PUSH2 0xA9E JUMP JUMPDEST PUSH1 0x0 DUP4 DUP2 MSTORE PUSH1 0xD0 PUSH1 0x20 MSTORE PUSH1 0x40 SWAP1 KECCAK256 SLOAD PUSH1 0xFF AND PUSH2 0xCB7 JUMPI PUSH1 0x40 MLOAD PUSH3 0x461BCD PUSH1 0xE5 SHL DUP2 MSTORE PUSH1 0x20 PUSH1 0x4 DUP3 ADD MSTORE PUSH1 0x11 PUSH1 0x24 DUP3 ADD MSTORE PUSH32 0x52657175657374206E6F7420666F756E64000000000000000000000000000000 PUSH1 0x44 DUP3 ADD MSTORE PUSH1 0x64 ADD PUSH2 0xA9E JUMP JUMPDEST PUSH1 0x0 DUP4 DUP2 MSTORE PUSH1 0xD0 PUSH1 0x20 MSTORE PUSH1 0x40 SWAP1 KECCAK256 DUP1 SLOAD PUSH2 0xFF00 NOT AND PUSH2 0x100 OR DUP2 SSTORE PUSH2 0xCE0 SWAP1 PUSH1 0x1 ADD DUP4 DUP4 PUSH2 0x3407 JUMP JUMPDEST POP PUSH2 0xCED PUSH1 0xCE DUP4 DUP4 PUSH2 0x3407 JUMP JUMPDEST POP PUSH1 0x0 DUP4 DUP2 MSTORE PUSH1 0xD1 PUSH1 0x20 MSTORE PUSH1 0x40 DUP2 KECCAK256 SLOAD SWAP1 DUP2 SWAP1 SUB PUSH2 0xD4D JUMPI PUSH1 0x40 MLOAD PUSH3 0x461BCD PUSH1 0xE5 SHL DUP2 MSTORE PUSH1 0x20 PUSH1 0x4 DUP3 ADD MSTORE PUSH1 0x10 PUSH1 0x24 DUP3 ADD MSTORE PUSH32 0x526F756E64206E6F74206C696E6B656400000000000000000000000000000000 PUSH1 0x44 DUP3 ADD MSTORE PUSH1 0x64 ADD PUSH2 0xA9E JUMP JUMPDEST PUSH2 0xD57 DUP4 DUP4 PUSH2 0x1EF9 JUMP JUMPDEST PUSH2 0xD65 SWAP1 PUSH1 0xCF SWAP1 PUSH1 0x7 PUSH2 0x3452 JUMP JUMPDEST POP PUSH1 0x0 DUP2 DUP2 MSTORE PUSH1 0xD4 PUSH1 0x20 MSTORE PUSH1 0x40 SWAP1 KECCAK256 PUSH2 0xD81 SWAP1 PUSH1 0xCF PUSH1 0x7 PUSH2 0x34E0 JUMP JUMPDEST POP PUSH32 0xFE2E2D779DBA245964D4E3EF9B994BE63856FD568BF7D3CA9E224755CB1BD54D DUP5 DUP5 DUP5 PUSH1 0x40 MLOAD PUSH2 0xDB5 SWAP4 SWAP3 SWAP2 SWAP1 PUSH2 0x39D6 JUMP JUMPDEST PUSH1 0x40 MLOAD DUP1 SWAP2 SUB SWAP1 LOG1 PUSH32 0x65A3CADF20A29471EE7BC9E1BF93B5F513A619FCFFFC0BCAB66D7CBAE1045CB1 DUP5 DUP3 PUSH1 0xCF PUSH1 0x40 MLOAD PUSH2 0xDF1 SWAP4 SWAP3 SWAP2 SWAP1 PUSH2 0x3A2F JUMP JUMPDEST PUSH1 0x40 MLOAD DUP1 SWAP2 SUB SWAP1 LOG1 PUSH1 0x40 DUP1 MLOAD PUSH1 0xE0 DUP2 ADD SWAP2 DUP3 SWAP1 MSTORE PUSH2 0xE4F SWAP2 DUP4 SWAP2 SWAP1 PUSH1 0xCF SWAP1 PUSH1 0x7 SWAP1 DUP3 PUSH1 0x0 DUP6 JUMPDEST DUP3 SLOAD PUSH2 0x100 DUP4 SWAP1 EXP SWAP1 DIV PUSH1 0xFF AND DUP2 MSTORE PUSH1 0x20 PUSH1 0x1 SWAP3 DUP4 ADD DUP2 DUP2 DIV SWAP5 DUP6 ADD SWAP5 SWAP1 SWAP4 SUB SWAP1 SWAP3 MUL SWAP2 ADD DUP1 DUP5 GT PUSH2 0xE17 JUMPI SWAP1 POP POP POP POP POP POP PUSH2 0x203C JUMP JUMPDEST POP POP POP POP JUMP JUMPDEST PUSH1 0x1 PUSH1 0x1 PUSH1 0xA0 SHL SUB PUSH32 0x0 AND ADDRESS SUB PUSH2 0xEE2 JUMPI PUSH1 0x40 MLOAD PUSH3 0x461BCD PUSH1 0xE5 SHL DUP2 MSTORE PUSH1 0x20 PUSH1 0x4 DUP3 ADD MSTORE PUSH1 0x2C PUSH1 0x24 DUP3 ADD MSTORE PUSH32 0x46756E6374696F6E206D7573742062652063616C6C6564207468726F75676820 PUSH1 0x44 DUP3 ADD MSTORE PUSH12 0x19195B1959D85D1958D85B1B PUSH1 0xA2 SHL PUSH1 0x64 DUP3 ADD MSTORE PUSH1 0x84 ADD PUSH2 0xA9E JUMP JUMPDEST PUSH32 0x0 PUSH1 0x1 PUSH1 0x1 PUSH1 0xA0 SHL SUB AND PUSH2 0xF3D PUSH32 0x360894A13BA1A3210667C828492DB98DCA3E2076CC3735A920A3CA505D382BBC SLOAD PUSH1 0x1 PUSH1 0x1 PUSH1 0xA0 SHL SUB AND SWAP1 JUMP JUMPDEST PUSH1 0x1 PUSH1 0x1 PUSH1 0xA0 SHL SUB AND EQ PUSH2 0xFA8 JUMPI PUSH1 0x40 MLOAD PUSH3 0x461BCD PUSH1 0xE5 SHL DUP2 MSTORE PUSH1 0x20 PUSH1 0x4 DUP3 ADD MSTORE PUSH1 0x2C PUSH1 0x24 DUP3 ADD MSTORE PUSH32 0x46756E6374696F6E206D7573742062652063616C6C6564207468726F75676820 PUSH1 0x44 DUP3 ADD MSTORE PUSH12 0x6163746976652070726F7879 PUSH1 0xA0 SHL PUSH1 0x64 DUP3 ADD MSTORE PUSH1 0x84 ADD PUSH2 0xA9E JUMP JUMPDEST PUSH2 0xFB1 DUP2 PUSH2 0x261E JUMP JUMPDEST PUSH1 0x40 DUP1 MLOAD PUSH1 0x0 DUP1 DUP3 MSTORE PUSH1 0x20 DUP3 ADD SWAP1 SWAP3 MSTORE PUSH2 0xFCD SWAP2 DUP4 SWAP2 SWAP1 PUSH2 0x2626 JUMP JUMPDEST POP JUMP JUMPDEST PUSH2 0xFD8 PUSH2 0x1E9F JUMP JUMPDEST PUSH1 0x0 DUP2 GT PUSH2 0x1028 JUMPI PUSH1 0x40 MLOAD PUSH3 0x461BCD PUSH1 0xE5 SHL DUP2 MSTORE PUSH1 0x20 PUSH1 0x4 DUP3 ADD MSTORE PUSH1 0x14 PUSH1 0x24 DUP3 ADD MSTORE PUSH32 0x4475726174696F6E206D757374206265203E2030000000000000000000000000 PUSH1 0x44 DUP3 ADD MSTORE PUSH1 0x64 ADD PUSH2 0xA9E JUMP JUMPDEST PUSH1 0xDA SSTORE JUMP JUMPDEST PUSH1 0xD9 SLOAD CALLVALUE EQ PUSH2 0x107E JUMPI PUSH1 0x40 MLOAD PUSH3 0x461BCD PUSH1 0xE5 SHL DUP2 MSTORE PUSH1 0x20 PUSH1 0x4 DUP3 ADD MSTORE PUSH1 0x13 PUSH1 0x24 DUP3 ADD MSTORE PUSH32 0x496E636F727265637420656E7472792066656500000000000000000000000000 PUSH1 0x44 DUP3 ADD MSTORE PUSH1 0x64 ADD PUSH2 0xA9E JUMP JUMPDEST PUSH2 0x1087 DUP2 PUSH2 0x27CB JUMP JUMPDEST PUSH1 0xD8 SLOAD PUSH1 0x0 SWAP1 DUP2 MSTORE PUSH1 0xD2 PUSH1 0x20 MSTORE PUSH1 0x40 SWAP1 KECCAK256 DUP1 SLOAD PUSH1 0xFF AND PUSH2 0x10DB JUMPI PUSH1 0x40 MLOAD PUSH3 0x461BCD PUSH1 0xE5 SHL DUP2 MSTORE PUSH1 0x20 PUSH1 0x4 DUP3 ADD MSTORE PUSH1 0xF PUSH1 0x24 DUP3 ADD MSTORE PUSH15 0x139BC81858DD1A5D99481C9BDD5B99 PUSH1 0x8A SHL PUSH1 0x44 DUP3 ADD MSTORE PUSH1 0x64 ADD PUSH2 0xA9E JUMP JUMPDEST DUP1 SLOAD PUSH2 0x100 SWAP1 DIV PUSH1 0xFF AND ISZERO PUSH2 0x1132 JUMPI PUSH1 0x40 MLOAD PUSH3 0x461BCD PUSH1 0xE5 SHL DUP2 MSTORE PUSH1 0x20 PUSH1 0x4 DUP3 ADD MSTORE PUSH1 0x16 PUSH1 0x24 DUP3 ADD MSTORE PUSH32 0x4472617720616C72656164792072657175657374656400000000000000000000 PUSH1 0x44 DUP3 ADD MSTORE PUSH1 0x64 ADD PUSH2 0xA9E JUMP JUMPDEST DUP1 PUSH1 0x2 ADD SLOAD TIMESTAMP LT PUSH2 0x1185 JUMPI PUSH1 0x40 MLOAD PUSH3 0x461BCD PUSH1 0xE5 SHL DUP2 MSTORE PUSH1 0x20 PUSH1 0x4 DUP3 ADD MSTORE PUSH1 0xD PUSH1 0x24 DUP3 ADD MSTORE PUSH32 0x526F756E64206578706972656400000000000000000000000000000000000000 PUSH1 0x44 DUP3 ADD MSTORE PUSH1 0x64 ADD PUSH2 0xA9E JUMP JUMPDEST CALLVALUE DUP2 PUSH1 0x3 ADD PUSH1 0x0 DUP3 DUP3 SLOAD PUSH2 0x1199 SWAP2 SWAP1 PUSH2 0x3AD4 JUMP JUMPDEST SWAP1 SWAP2 SSTORE POP POP PUSH1 0xD8 SLOAD PUSH1 0x0 SWAP1 DUP2 MSTORE PUSH1 0xD3 PUSH1 0x20 SWAP1 DUP2 MSTORE PUSH1 0x40 SWAP2 DUP3 SWAP1 KECCAK256 DUP3 MLOAD PUSH1 0xA0 DUP2 ADD DUP5 MSTORE CALLER DUP2 MSTORE DUP4 MLOAD PUSH1 0xE0 DUP2 DUP2 ADD SWAP1 SWAP6 MSTORE SWAP2 SWAP4 SWAP1 SWAP3 DUP4 ADD SWAP2 SWAP1 DUP7 SWAP1 PUSH1 0x7 SWAP1 DUP4 SWAP1 DUP4 SWAP1 DUP1 DUP3 DUP5 CALLDATACOPY PUSH1 0x0 SWAP3 ADD DUP3 SWAP1 MSTORE POP SWAP3 DUP5 MSTORE POP POP PUSH1 0x20 DUP1 DUP4 ADD DUP3 SWAP1 MSTORE PUSH1 0x40 DUP4 ADD DUP3 SWAP1 MSTORE PUSH1 0x60 SWAP1 SWAP3 ADD DUP2 SWAP1 MSTORE DUP4 SLOAD PUSH1 0x1 DUP1 DUP3 ADD DUP7 SSTORE SWAP5 DUP3 MSTORE SWAP1 DUP3 SWAP1 KECCAK256 DUP4 MLOAD PUSH1 0x4 SWAP1 SWAP3 MUL ADD DUP1 SLOAD PUSH20 0xFFFFFFFFFFFFFFFFFFFFFFFFFFFFFFFFFFFFFFFF NOT AND PUSH1 0x1 PUSH1 0x1 PUSH1 0xA0 SHL SUB SWAP1 SWAP3 AND SWAP2 SWAP1 SWAP2 OR DUP2 SSTORE SWAP1 DUP3 ADD MLOAD SWAP2 SWAP3 SWAP1 SWAP2 PUSH2 0x1259 SWAP2 DUP4 ADD SWAP1 PUSH1 0x7 PUSH2 0x3452 JUMP JUMPDEST POP PUSH1 0x40 DUP3 DUP2 ADD MLOAD PUSH1 0x2 DUP4 ADD DUP1 SLOAD PUSH1 0x60 DUP7 ADD MLOAD PUSH1 0xFF AND PUSH2 0x100 MUL PUSH2 0xFF00 NOT SWAP4 ISZERO ISZERO SWAP4 SWAP1 SWAP4 AND PUSH2 0xFFFF NOT SWAP1 SWAP2 AND OR SWAP2 SWAP1 SWAP2 OR SWAP1 SSTORE PUSH1 0x80 SWAP1 SWAP3 ADD MLOAD PUSH1 0x3 SWAP1 SWAP2 ADD SSTORE PUSH1 0xD8 SLOAD PUSH1 0x0 DUP2 DUP2 MSTORE PUSH1 0xD3 PUSH1 0x20 MSTORE SWAP2 SWAP1 SWAP2 KECCAK256 SLOAD CALLER SWAP2 SWAP1 PUSH32 0x72C7C6A525D2C132932B4FC43AE4BB642B552692D21F5BEDEB662E34B564E8E8 SWAP1 PUSH2 0x12DA SWAP1 PUSH1 0x1 SWAP1 PUSH2 0x3AE7 JUMP JUMPDEST DUP6 PUSH1 0x40 MLOAD PUSH2 0x12E9 SWAP3 SWAP2 SWAP1 PUSH2 0x3B0B JUMP JUMPDEST PUSH1 0x40 MLOAD DUP1 SWAP2 SUB SWAP1 LOG3 POP POP JUMP JUMPDEST PUSH1 0x60 PUSH1 0xCE DUP1 SLOAD DUP1 PUSH1 0x20 MUL PUSH1 0x20 ADD PUSH1 0x40 MLOAD SWAP1 DUP2 ADD PUSH1 0x40 MSTORE DUP1 SWAP3 SWAP2 SWAP1 DUP2 DUP2 MSTORE PUSH1 0x20 ADD DUP3 DUP1 SLOAD DUP1 ISZERO PUSH2 0x1343 JUMPI PUSH1 0x20 MUL DUP3 ADD SWAP2 SWAP1 PUSH1 0x0 MSTORE PUSH1 0x20 PUSH1 0x0 KECCAK256 SWAP1 JUMPDEST DUP2 SLOAD DUP2 MSTORE PUSH1 0x20 ADD SWAP1 PUSH1 0x1 ADD SWAP1 DUP1 DUP4 GT PUSH2 0x132F JUMPI JUMPDEST POP POP POP POP POP SWAP1 POP SWAP1 JUMP JUMPDEST PUSH1 0x0 PUSH2 0x135B DUP3 DUP5 ADD DUP5 PUSH2 0x35BF JUMP JUMPDEST PUSH1 0xD8 SLOAD PUSH1 0x0 DUP2 DUP2 MSTORE PUSH1 0xD2 PUSH1 0x20 MSTORE PUSH1 0x40 SWAP1 KECCAK256 SWAP2 SWAP3 POP DUP3 EQ PUSH2 0x13BD JUMPI PUSH1 0x40 MLOAD PUSH3 0x461BCD PUSH1 0xE5 SHL DUP2 MSTORE PUSH1 0x20 PUSH1 0x4 DUP3 ADD MSTORE PUSH1 0xC PUSH1 0x24 DUP3 ADD MSTORE PUSH32 0x5374616C652075706B6565700000000000000000000000000000000000000000 PUSH1 0x44 DUP3 ADD MSTORE PUSH1 0x64 ADD PUSH2 0xA9E JUMP JUMPDEST DUP1 SLOAD PUSH1 0xFF AND PUSH2 0x1400 JUMPI PUSH1 0x40 MLOAD PUSH3 0x461BCD PUSH1 0xE5 SHL DUP2 MSTORE PUSH1 0x20 PUSH1 0x4 DUP3 ADD MSTORE PUSH1 0xF PUSH1 0x24 DUP3 ADD MSTORE PUSH15 0x139BC81858DD1A5D99481C9BDD5B99 PUSH1 0x8A SHL PUSH1 0x44 DUP3 ADD MSTORE PUSH1 0x64 ADD PUSH2 0xA9E JUMP JUMPDEST DUP1 SLOAD PUSH2 0x100 SWAP1 DIV PUSH1 0xFF AND ISZERO PUSH2 0x1457 JUMPI PUSH1 0x40 MLOAD PUSH3 0x461BCD PUSH1 0xE5 SHL DUP2 MSTORE PUSH1 0x20 PUSH1 0x4 DUP3 ADD MSTORE PUSH1 0x16 PUSH1 0x24 DUP3 ADD MSTORE PUSH32 0x4472617720616C72656164792072657175657374656400000000000000000000 PUSH1 0x44 DUP3 ADD MSTORE PUSH1 0x64 ADD PUSH2 0xA9E JUMP JUMPDEST DUP1 PUSH1 0x2 ADD SLOAD TIMESTAMP LT ISZERO PUSH2 0x14AB JUMPI PUSH1 0x40 MLOAD PUSH3 0x461BCD PUSH1 0xE5 SHL DUP2 MSTORE PUSH1 0x20 PUSH1 0x4 DUP3 ADD MSTORE PUSH1 0x12 PUSH1 0x24 DUP3 ADD MSTORE PUSH32 0x526F756E64207374696C6C206163746976650000000000000000000000000000 PUSH1 0x44 DUP3 ADD MSTORE PUSH1 0x64 ADD PUSH2 0xA9E JUMP JUMPDEST PUSH1 0xD8 SLOAD PUSH1 0x0 SWAP1 DUP2 MSTORE PUSH1 0xD3 PUSH1 0x20 MSTORE PUSH1 0x40 DUP2 KECCAK256 SLOAD SWAP1 SUB PUSH2 0x14CB JUMPI PUSH2 0xE4F PUSH2 0x296D JUMP JUMPDEST PUSH2 0x14D3 PUSH2 0x2AE0 JUMP JUMPDEST POP POP POP POP POP JUMP JUMPDEST PUSH1 0x0 SLOAD PUSH1 0x2 SWAP1 PUSH2 0x100 SWAP1 DIV PUSH1 0xFF AND ISZERO DUP1 ISZERO PUSH2 0x14FC JUMPI POP PUSH1 0x0 SLOAD PUSH1 0xFF DUP1 DUP4 AND SWAP2 AND LT JUMPDEST PUSH2 0x156E JUMPI PUSH1 0x40 MLOAD PUSH3 0x461BCD PUSH1 0xE5 SHL DUP2 MSTORE PUSH1 0x20 PUSH1 0x4 DUP3 ADD MSTORE PUSH1 0x2E PUSH1 0x24 DUP3 ADD MSTORE PUSH32 0x496E697469616C697A61626C653A20636F6E747261637420697320616C726561 PUSH1 0x44 DUP3 ADD MSTORE PUSH32 0x647920696E697469616C697A6564000000000000000000000000000000000000 PUSH1 0x64 DUP3 ADD MSTORE PUSH1 0x84 ADD PUSH2 0xA9E JUMP JUMPDEST PUSH1 0x0 DUP1 SLOAD PUSH2 0xFFFF NOT AND PUSH1 0xFF DUP4 AND OR PUSH2 0x100 OR SWAP1 SSTORE PUSH2 0x158A PUSH2 0x2CFB JUMP JUMPDEST PUSH6 0x5AF3107A4000 PUSH1 0xD9 SSTORE PUSH2 0x12C PUSH1 0xDA SSTORE PUSH1 0xDB DUP1 SLOAD PUSH1 0xFF NOT AND SWAP1 SSTORE PUSH1 0x0 DUP1 SLOAD PUSH2 0xFF00 NOT AND SWAP1 SSTORE PUSH1 0x40 MLOAD PUSH1 0xFF DUP3 AND DUP2 MSTORE PUSH32 0x7F26B83FF96E1F2B6A682F133852F6798A09C465DA95921460CEFB3847402498 SWAP1 PUSH1 0x20 ADD PUSH1 0x40 MLOAD DUP1 SWAP2 SUB SWAP1 LOG1 POP JUMP JUMPDEST PUSH1 0xCF DUP2 PUSH1 0x7 DUP2 LT PUSH2 0x15F8 JUMPI PUSH1 0x0 DUP1 REVERT JUMPDEST PUSH1 0x20 SWAP2 DUP3 DUP3 DIV ADD SWAP2 SWAP1 MOD SWAP2 POP SLOAD SWAP1 PUSH2 0x100 EXP SWAP1 DIV PUSH1 0xFF AND DUP2 JUMP JUMPDEST PUSH1 0x1 PUSH1 0x1 PUSH1 0xA0 SHL SUB PUSH32 0x0 AND ADDRESS SUB PUSH2 0x169F JUMPI PUSH1 0x40 MLOAD PUSH3 0x461BCD PUSH1 0xE5 SHL DUP2 MSTORE PUSH1 0x20 PUSH1 0x4 DUP3 ADD MSTORE PUSH1 0x2C PUSH1 0x24 DUP3 ADD MSTORE PUSH32 0x46756E6374696F6E206D7573742062652063616C6C6564207468726F75676820 PUSH1 0x44 DUP3 ADD MSTORE PUSH12 0x19195B1959D85D1958D85B1B PUSH1 0xA2 SHL PUSH1 0x64 DUP3 ADD MSTORE PUSH1 0x84 ADD PUSH2 0xA9E JUMP JUMPDEST PUSH32 0x0 PUSH1 0x1 PUSH1 0x1 PUSH1 0xA0 SHL SUB AND PUSH2 0x16FA PUSH32 0x360894A13BA1A3210667C828492DB98DCA3E2076CC3735A920A3CA505D382BBC SLOAD PUSH1 0x1 PUSH1 0x1 PUSH1 0xA0 SHL SUB AND SWAP1 JUMP JUMPDEST PUSH1 0x1 PUSH1 0x1 PUSH1 0xA0 SHL SUB AND EQ PUSH2 0x1765 JUMPI PUSH1 0x40 MLOAD PUSH3 0x461BCD PUSH1 0xE5 SHL DUP2 MSTORE PUSH1 0x20 PUSH1 0x4 DUP3 ADD MSTORE PUSH1 0x2C PUSH1 0x24 DUP3 ADD MSTORE PUSH32 0x46756E6374696F6E206D7573742062652063616C6C6564207468726F75676820 PUSH1 0x44 DUP3 ADD MSTORE PUSH12 0x6163746976652070726F7879 PUSH1 0xA0 SHL PUSH1 0x64 DUP3 ADD MSTORE PUSH1 0x84 ADD PUSH2 0xA9E JUMP JUMPDEST PUSH2 0x176E DUP3 PUSH2 0x261E JUMP JUMPDEST PUSH2 0x177A DUP3 DUP3 PUSH1 0x1 PUSH2 0x2626 JUMP JUMPDEST POP POP JUMP JUMPDEST PUSH1 0x0 ADDRESS PUSH1 0x1 PUSH1 0x1 PUSH1 0xA0 SHL SUB PUSH32 0x0 AND EQ PUSH2 0x181E JUMPI PUSH1 0x40 MLOAD PUSH3 0x461BCD PUSH1 0xE5 SHL DUP2 MSTORE PUSH1 0x20 PUSH1 0x4 DUP3 ADD MSTORE PUSH1 0x38 PUSH1 0x24 DUP3 ADD MSTORE PUSH32 0x555550535570677261646561626C653A206D757374206E6F742062652063616C PUSH1 0x44 DUP3 ADD MSTORE PUSH32 0x6C6564207468726F7567682064656C656761746563616C6C0000000000000000 PUSH1 0x64 DUP3 ADD MSTORE PUSH1 0x84 ADD PUSH2 0xA9E JUMP JUMPDEST POP PUSH32 0x360894A13BA1A3210667C828492DB98DCA3E2076CC3735A920A3CA505D382BBC SWAP1 JUMP JUMPDEST PUSH2 0x184B PUSH2 0x1E9F JUMP JUMPDEST PUSH2 0x1853 PUSH2 0x2D81 JUMP JUMPDEST JUMP JUMPDEST PUSH2 0x185D PUSH2 0x3513 JUMP JUMPDEST PUSH1 0x0 DUP3 DUP2 MSTORE PUSH1 0xD4 PUSH1 0x20 MSTORE PUSH1 0x40 DUP1 DUP3 KECCAK256 DUP2 MLOAD PUSH1 0xE0 DUP2 ADD SWAP3 DUP4 SWAP1 MSTORE SWAP3 SWAP1 SWAP2 PUSH1 0x7 SWAP2 DUP4 SWAP1 DUP6 JUMPDEST DUP3 SLOAD PUSH2 0x100 DUP4 SWAP1 EXP SWAP1 DIV PUSH1 0xFF AND DUP2 MSTORE PUSH1 0x20 PUSH1 0x1 SWAP3 DUP4 ADD DUP2 DUP2 DIV SWAP5 DUP6 ADD SWAP5 SWAP1 SWAP4 SUB SWAP1 SWAP3 MUL SWAP2 ADD DUP1 DUP5 GT PUSH2 0x1880 JUMPI POP SWAP5 SWAP8 SWAP7 POP POP POP POP POP POP POP JUMP JUMPDEST PUSH1 0xD8 SLOAD PUSH1 0x0 SWAP1 DUP2 MSTORE PUSH1 0xD2 PUSH1 0x20 MSTORE PUSH1 0x40 DUP2 KECCAK256 DUP1 SLOAD PUSH1 0x60 SWAP2 SWAP1 PUSH1 0xFF AND DUP1 ISZERO PUSH2 0x18E6 JUMPI POP DUP1 SLOAD PUSH2 0x100 SWAP1 DIV PUSH1 0xFF AND ISZERO JUMPDEST DUP1 ISZERO PUSH2 0x18F6 JUMPI POP DUP1 PUSH1 0x2 ADD SLOAD TIMESTAMP LT ISZERO JUMPDEST SWAP3 POP PUSH1 0xD8 SLOAD PUSH1 0x40 MLOAD PUSH1 0x20 ADD PUSH2 0x190D SWAP2 DUP2 MSTORE PUSH1 0x20 ADD SWAP1 JUMP JUMPDEST PUSH1 0x40 MLOAD PUSH1 0x20 DUP2 DUP4 SUB SUB DUP2 MSTORE SWAP1 PUSH1 0x40 MSTORE SWAP2 POP POP SWAP3 POP SWAP3 SWAP1 POP JUMP JUMPDEST PUSH2 0x192E PUSH2 0x1E9F JUMP JUMPDEST PUSH2 0x1853 PUSH1 0x0 PUSH2 0x2F15 JUMP JUMPDEST PUSH1 0xD4 PUSH1 0x20 MSTORE DUP2 PUSH1 0x0 MSTORE PUSH1 0x40 PUSH1 0x0 KECCAK256 DUP2 PUSH1 0x7 DUP2 LT PUSH2 0x1954 JUMPI PUSH1 0x0 DUP1 REVERT JUMPDEST PUSH1 0x20 DUP2 DIV SWAP1 SWAP2 ADD SLOAD PUSH1 0xFF PUSH1 0x1F SWAP1 SWAP3 AND PUSH2 0x100 EXP SWAP1 DIV AND SWAP2 POP DUP3 SWAP1 POP JUMP JUMPDEST PUSH2 0x1979 PUSH2 0x3513 JUMP JUMPDEST PUSH1 0x40 DUP1 MLOAD PUSH1 0xE0 DUP2 ADD SWAP2 DUP3 SWAP1 MSTORE SWAP1 PUSH1 0xCF SWAP1 PUSH1 0x7 SWAP1 DUP3 PUSH1 0x0 DUP6 JUMPDEST DUP3 SLOAD PUSH2 0x100 DUP4 SWAP1 EXP SWAP1 DIV PUSH1 0xFF AND DUP2 MSTORE PUSH1 0x20 PUSH1 0x1 SWAP3 DUP4 ADD DUP2 DUP2 DIV SWAP5 DUP6 ADD SWAP5 SWAP1 SWAP4 SUB SWAP1 SWAP3 MUL SWAP2 ADD DUP1 DUP5 GT PUSH2 0x1991 JUMPI SWAP1 POP POP POP POP POP POP SWAP1 POP SWAP1 JUMP JUMPDEST PUSH2 0x19D1 PUSH2 0x1E9F JUMP JUMPDEST PUSH1 0xCC DUP1 SLOAD PUSH2 0xFFFF SWAP1 SWAP3 AND PUSH5 0x100000000 MUL PUSH6 0xFFFF00000000 NOT SWAP1 SWAP3 AND SWAP2 SWAP1 SWAP2 OR SWAP1 SSTORE JUMP JUMPDEST PUSH1 0xCE DUP2 DUP2 SLOAD DUP2 LT PUSH2 0x1A05 JUMPI PUSH1 0x0 DUP1 REVERT JUMPDEST PUSH1 0x0 SWAP2 DUP3 MSTORE PUSH1 0x20 SWAP1 SWAP2 KECCAK256 ADD SLOAD SWAP1 POP DUP2 JUMP JUMPDEST PUSH2 0x1A1E PUSH2 0x1E9F JUMP JUMPDEST PUSH1 0xCB SSTORE JUMP JUMPDEST PUSH1 0x0 PUSH2 0x1A2D PUSH2 0x3513 JUMP JUMPDEST PUSH1 0x0 DUP1 PUSH1 0x0 DUP1 PUSH1 0xD3 PUSH1 0x0 DUP10 DUP2 MSTORE PUSH1 0x20 ADD SWAP1 DUP2 MSTORE PUSH1 0x20 ADD PUSH1 0x0 KECCAK256 DUP8 DUP2 SLOAD DUP2 LT PUSH2 0x1A57 JUMPI PUSH2 0x1A57 PUSH2 0x3B4E JUMP JUMPDEST PUSH1 0x0 SWAP2 DUP3 MSTORE PUSH1 0x20 DUP3 KECCAK256 PUSH1 0x4 SWAP1 SWAP2 MUL ADD DUP1 SLOAD PUSH1 0x2 DUP3 ADD SLOAD PUSH1 0x3 DUP4 ADD SLOAD PUSH1 0x40 DUP1 MLOAD PUSH1 0xE0 DUP2 ADD SWAP2 DUP3 SWAP1 MSTORE SWAP5 SWAP7 POP PUSH1 0x1 PUSH1 0x1 PUSH1 0xA0 SHL SUB SWAP1 SWAP4 AND SWAP5 PUSH1 0x1 DUP8 ADD SWAP5 PUSH1 0xFF DUP1 DUP6 AND SWAP6 PUSH2 0x100 SWAP1 SWAP6 DIV AND SWAP4 SWAP1 SWAP2 DUP7 SWAP2 PUSH1 0x7 SWAP2 DUP4 SWAP1 DUP6 JUMPDEST DUP3 SLOAD PUSH2 0x100 DUP4 SWAP1 EXP SWAP1 DIV PUSH1 0xFF AND DUP2 MSTORE PUSH1 0x20 PUSH1 0x1 SWAP3 DUP4 ADD DUP2 DUP2 DIV SWAP5 DUP6 ADD SWAP5 SWAP1 SWAP4 SUB SWAP1 SWAP3 MUL SWAP2 ADD DUP1 DUP5 GT PUSH2 0x1AAB JUMPI SWAP1 POP POP POP POP POP POP SWAP4 POP SWAP6 POP SWAP6 POP SWAP6 POP SWAP6 POP SWAP6 POP POP SWAP3 SWAP6 POP SWAP3 SWAP6 SWAP1 SWAP4 POP JUMP JUMPDEST PUSH2 0x1AFD PUSH2 0x1E9F JUMP JUMPDEST PUSH1 0xCC DUP1 SLOAD PUSH4 0xFFFFFFFF NOT AND PUSH4 0xFFFFFFFF SWAP3 SWAP1 SWAP3 AND SWAP2 SWAP1 SWAP2 OR SWAP1 SSTORE JUMP JUMPDEST PUSH2 0x1B21 PUSH2 0x1E9F JUMP JUMPDEST PUSH1 0xCA SSTORE JUMP JUMPDEST CALLER PUSH1 0x0 SWAP1 DUP2 MSTORE PUSH1 0xD5 PUSH1 0x20 MSTORE PUSH1 0x40 SWAP1 KECCAK256 SLOAD DUP1 PUSH2 0x1B83 JUMPI PUSH1 0x40 MLOAD PUSH3 0x461BCD PUSH1 0xE5 SHL DUP2 MSTORE PUSH1 0x20 PUSH1 0x4 DUP3 ADD MSTORE PUSH1 0x13 PUSH1 0x24 DUP3 ADD MSTORE PUSH32 0x4E6F2072657761726420617661696C61626C6500000000000000000000000000 PUSH1 0x44 DUP3 ADD MSTORE PUSH1 0x64 ADD PUSH2 0xA9E JUMP JUMPDEST CALLER PUSH1 0x0 DUP2 DUP2 MSTORE PUSH1 0xD5 PUSH1 0x20 MSTORE PUSH1 0x40 DUP1 DUP3 KECCAK256 DUP3 SWAP1 SSTORE MLOAD SWAP1 SWAP2 SWAP1 DUP4 SWAP1 DUP4 DUP2 DUP2 DUP2 DUP6 DUP8 GAS CALL SWAP3 POP POP POP RETURNDATASIZE DUP1 PUSH1 0x0 DUP2 EQ PUSH2 0x1BD4 JUMPI PUSH1 0x40 MLOAD SWAP2 POP PUSH1 0x1F NOT PUSH1 0x3F RETURNDATASIZE ADD AND DUP3 ADD PUSH1 0x40 MSTORE RETURNDATASIZE DUP3 MSTORE RETURNDATASIZE PUSH1 0x0 PUSH1 0x20 DUP5 ADD RETURNDATACOPY PUSH2 0x1BD9 JUMP JUMPDEST PUSH1 0x60 SWAP2 POP JUMPDEST POP POP SWAP1 POP DUP1 PUSH2 0x1C2A JUMPI PUSH1 0x40 MLOAD PUSH3 0x461BCD PUSH1 0xE5 SHL DUP2 MSTORE PUSH1 0x20 PUSH1 0x4 DUP3 ADD MSTORE PUSH1 0x16 PUSH1 0x24 DUP3 ADD MSTORE PUSH32 0x526577617264207472616E73666572206661696C656400000000000000000000 PUSH1 0x44 DUP3 ADD MSTORE PUSH1 0x64 ADD PUSH2 0xA9E JUMP JUMPDEST PUSH1 0x40 MLOAD DUP3 DUP2 MSTORE CALLER SWAP1 PUSH32 0x1D3EEE4CA001CFF39EEC6EC7615AACF2F2BD61791273830728BA00CCBD6E1337 SWAP1 PUSH1 0x20 ADD PUSH2 0xB96 JUMP JUMPDEST PUSH2 0x1C64 PUSH2 0x1E9F JUMP JUMPDEST PUSH1 0xDB DUP1 SLOAD PUSH1 0xFF NOT AND SWAP2 ISZERO ISZERO SWAP2 SWAP1 SWAP2 OR SWAP1 SSTORE JUMP JUMPDEST PUSH1 0x0 DUP2 DUP2 MSTORE PUSH1 0xD0 PUSH1 0x20 MSTORE PUSH1 0x40 DUP2 KECCAK256 SLOAD PUSH1 0x60 SWAP1 PUSH1 0xFF AND PUSH2 0x1CD8 JUMPI PUSH1 0x40 MLOAD PUSH3 0x461BCD PUSH1 0xE5 SHL DUP2 MSTORE PUSH1 0x20 PUSH1 0x4 DUP3 ADD MSTORE PUSH1 0x11 PUSH1 0x24 DUP3 ADD MSTORE PUSH32 0x52657175657374206E6F7420666F756E64000000000000000000000000000000 PUSH1 0x44 DUP3 ADD MSTORE PUSH1 0x64 ADD PUSH2 0xA9E JUMP JUMPDEST PUSH1 0x0 DUP4 DUP2 MSTORE PUSH1 0xD0 PUSH1 0x20 SWAP1 DUP2 MSTORE PUSH1 0x40 SWAP2 DUP3 SWAP1 KECCAK256 DUP1 SLOAD PUSH1 0x1 DUP3 ADD DUP1 SLOAD DUP6 MLOAD DUP2 DUP7 MUL DUP2 ADD DUP7 ADD SWAP1 SWAP7 MSTORE DUP1 DUP7 MSTORE SWAP3 SWAP5 PUSH2 0x100 SWAP1 SWAP3 DIV PUSH1 0xFF AND SWAP4 SWAP1 SWAP3 DUP4 SWAP2 DUP4 ADD DUP3 DUP3 DUP1 ISZERO PUSH2 0x1D40 JUMPI PUSH1 0x20 MUL DUP3 ADD SWAP2 SWAP1 PUSH1 0x0 MSTORE PUSH1 0x20 PUSH1 0x0 KECCAK256 SWAP1 JUMPDEST DUP2 SLOAD DUP2 MSTORE PUSH1 0x20 ADD SWAP1 PUSH1 0x1 ADD SWAP1 DUP1 DUP4 GT PUSH2 0x1D2C JUMPI JUMPDEST POP POP POP POP POP SWAP1 POP SWAP3 POP SWAP3 POP POP SWAP2 POP SWAP2 JUMP JUMPDEST PUSH2 0x1D59 PUSH2 0x1E9F JUMP JUMPDEST PUSH1 0x1 PUSH1 0x1 PUSH1 0xA0 SHL SUB DUP2 AND PUSH2 0x1DD5 JUMPI PUSH1 0x40 MLOAD PUSH3 0x461BCD PUSH1 0xE5 SHL DUP2 MSTORE PUSH1 0x20 PUSH1 0x4 DUP3 ADD MSTORE PUSH1 0x26 PUSH1 0x24 DUP3 ADD MSTORE PUSH32 0x4F776E61626C653A206E6577206F776E657220697320746865207A65726F2061 PUSH1 0x44 DUP3 ADD MSTORE PUSH32 0x6464726573730000000000000000000000000000000000000000000000000000 PUSH1 0x64 DUP3 ADD MSTORE PUSH1 0x84 ADD PUSH2 0xA9E JUMP JUMPDEST PUSH2 0xFCD DUP2 PUSH2 0x2F15 JUMP JUMPDEST PUSH2 0x1DE6 PUSH2 0x1E9F JUMP JUMPDEST PUSH1 0x0 DUP2 PUSH4 0xFFFFFFFF AND GT PUSH2 0x1E3C JUMPI PUSH1 0x40 MLOAD PUSH3 0x461BCD PUSH1 0xE5 SHL DUP2 MSTORE PUSH1 0x20 PUSH1 0x4 DUP3 ADD MSTORE PUSH1 0x14 PUSH1 0x24 DUP3 ADD MSTORE PUSH32 0x6E756D576F726473206D757374206265203E2030000000000000000000000000 PUSH1 0x44 DUP3 ADD MSTORE PUSH1 0x64 ADD PUSH2 0xA9E JUMP JUMPDEST PUSH1 0xCC DUP1 SLOAD PUSH4 0xFFFFFFFF SWAP1 SWAP3 AND PUSH7 0x1000000000000 MUL PUSH10 0xFFFFFFFF000000000000 NOT SWAP1 SWAP3 AND SWAP2 SWAP1 SWAP2 OR SWAP1 SSTORE JUMP JUMPDEST PUSH2 0x1E70 PUSH2 0x1E9F JUMP JUMPDEST PUSH1 0xC9 DUP1 SLOAD PUSH20 0xFFFFFFFFFFFFFFFFFFFFFFFFFFFFFFFFFFFFFFFF NOT AND PUSH1 0x1 PUSH1 0x1 PUSH1 0xA0 SHL SUB SWAP3 SWAP1 SWAP3 AND SWAP2 SWAP1 SWAP2 OR SWAP1 SSTORE JUMP JUMPDEST PUSH1 0x33 SLOAD PUSH1 0x1 PUSH1 0x1 PUSH1 0xA0 SHL SUB AND CALLER EQ PUSH2 0x1853 JUMPI PUSH1 0x40 MLOAD PUSH3 0x461BCD PUSH1 0xE5 SHL DUP2 MSTORE PUSH1 0x20 PUSH1 0x4 DUP3 ADD DUP2 SWAP1 MSTORE PUSH1 0x24 DUP3 ADD MSTORE PUSH32 0x4F776E61626C653A2063616C6C6572206973206E6F7420746865206F776E6572 PUSH1 0x44 DUP3 ADD MSTORE PUSH1 0x64 ADD PUSH2 0xA9E JUMP JUMPDEST PUSH2 0x1F01 PUSH2 0x3513 JUMP JUMPDEST PUSH2 0x1F09 PUSH2 0x3531 JUMP JUMPDEST PUSH1 0x0 DUP1 JUMPDEST PUSH1 0x7 DUP3 LT ISZERO PUSH2 0x2029 JUMPI PUSH1 0x0 JUMPDEST DUP6 DUP2 LT DUP1 ISZERO PUSH2 0x1F28 JUMPI POP PUSH1 0x7 DUP4 LT JUMPDEST ISZERO PUSH2 0x2023 JUMPI PUSH1 0x0 PUSH1 0x31 DUP9 DUP9 DUP5 DUP2 DUP2 LT PUSH2 0x1F43 JUMPI PUSH2 0x1F43 PUSH2 0x3B4E JUMP JUMPDEST SWAP1 POP PUSH1 0x20 MUL ADD CALLDATALOAD DUP5 PUSH1 0x40 MLOAD PUSH1 0x20 ADD PUSH2 0x1F65 SWAP3 SWAP2 SWAP1 SWAP2 DUP3 MSTORE PUSH1 0x20 DUP3 ADD MSTORE PUSH1 0x40 ADD SWAP1 JUMP JUMPDEST PUSH1 0x40 MLOAD PUSH1 0x20 DUP2 DUP4 SUB SUB DUP2 MSTORE SWAP1 PUSH1 0x40 MSTORE DUP1 MLOAD SWAP1 PUSH1 0x20 ADD KECCAK256 PUSH1 0x0 SHR PUSH2 0x1F88 SWAP2 SWAP1 PUSH2 0x3B7A JUMP JUMPDEST PUSH2 0x1F93 SWAP1 PUSH1 0x1 PUSH2 0x3AD4 JUMP JUMPDEST SWAP1 POP DUP5 DUP2 PUSH1 0xFF AND PUSH1 0x32 DUP2 LT PUSH2 0x1FAA JUMPI PUSH2 0x1FAA PUSH2 0x3B4E JUMP JUMPDEST PUSH1 0x20 MUL ADD MLOAD PUSH2 0x2002 JUMPI PUSH1 0x1 DUP6 DUP3 PUSH1 0xFF AND PUSH1 0x32 DUP2 LT PUSH2 0x1FCA JUMPI PUSH2 0x1FCA PUSH2 0x3B4E JUMP JUMPDEST SWAP2 ISZERO ISZERO PUSH1 0x20 SWAP1 SWAP3 MUL ADD MSTORE DUP1 DUP7 DUP6 PUSH1 0x7 DUP2 LT PUSH2 0x1FE7 JUMPI PUSH2 0x1FE7 PUSH2 0x3B4E JUMP JUMPDEST PUSH1 0xFF SWAP1 SWAP3 AND PUSH1 0x20 SWAP3 SWAP1 SWAP3 MUL ADD MSTORE DUP4 PUSH2 0x1FFE DUP2 PUSH2 0x3B8E JUMP JUMPDEST SWAP5 POP POP JUMPDEST DUP3 PUSH2 0x200C DUP2 PUSH2 0x3B8E JUMP JUMPDEST SWAP4 POP POP POP DUP1 DUP1 PUSH2 0x201B SWAP1 PUSH2 0x3B8E JUMP JUMPDEST SWAP2 POP POP PUSH2 0x1F19 JUMP JUMPDEST POP PUSH2 0x1F0D JUMP JUMPDEST PUSH2 0x2032 DUP5 PUSH2 0x2F74 JUMP JUMPDEST POP POP POP JUMPDEST SWAP3 SWAP2 POP POP JUMP JUMPDEST PUSH1 0x0 DUP3 DUP2 MSTORE PUSH1 0xD2 PUSH1 0x20 MSTORE PUSH1 0x40 SWAP1 KECCAK256 DUP1 SLOAD PUSH1 0xFF AND PUSH2 0x209B JUMPI PUSH1 0x40 MLOAD PUSH3 0x461BCD PUSH1 0xE5 SHL DUP2 MSTORE PUSH1 0x20 PUSH1 0x4 DUP3 ADD MSTORE PUSH1 0x10 PUSH1 0x24 DUP3 ADD MSTORE PUSH32 0x526F756E64206E6F742061637469766500000000000000000000000000000000 PUSH1 0x44 DUP3 ADD MSTORE PUSH1 0x64 ADD PUSH2 0xA9E JUMP JUMPDEST DUP1 SLOAD PUSH2 0x100 SWAP1 DIV PUSH1 0xFF AND PUSH2 0x20F1 JUMPI PUSH1 0x40 MLOAD PUSH3 0x461BCD PUSH1 0xE5 SHL DUP2 MSTORE PUSH1 0x20 PUSH1 0x4 DUP3 ADD MSTORE PUSH1 0x12 PUSH1 0x24 DUP3 ADD MSTORE PUSH32 0x44726177206E6F74207265717565737465640000000000000000000000000000 PUSH1 0x44 DUP3 ADD MSTORE PUSH1 0x64 ADD PUSH2 0xA9E JUMP JUMPDEST DUP1 SLOAD PUSH3 0x10000 SWAP1 DIV PUSH1 0xFF AND ISZERO PUSH2 0x2149 JUMPI PUSH1 0x40 MLOAD PUSH3 0x461BCD PUSH1 0xE5 SHL DUP2 MSTORE PUSH1 0x20 PUSH1 0x4 DUP3 ADD MSTORE PUSH1 0x15 PUSH1 0x24 DUP3 ADD MSTORE PUSH32 0x526F756E6420616C726561647920736574746C65640000000000000000000000 PUSH1 0x44 DUP3 ADD MSTORE PUSH1 0x64 ADD PUSH2 0xA9E JUMP JUMPDEST PUSH1 0x0 DUP4 DUP2 MSTORE PUSH1 0xD3 PUSH1 0x20 MSTORE PUSH1 0x40 SWAP1 KECCAK256 DUP1 SLOAD PUSH2 0x2161 PUSH2 0x3550 JUMP JUMPDEST PUSH1 0x0 JUMPDEST DUP3 DUP2 LT ISZERO PUSH2 0x2267 JUMPI PUSH1 0x0 PUSH2 0x21E6 DUP6 DUP4 DUP2 SLOAD DUP2 LT PUSH2 0x2183 JUMPI PUSH2 0x2183 PUSH2 0x3B4E JUMP JUMPDEST PUSH1 0x0 SWAP2 DUP3 MSTORE PUSH1 0x20 DUP3 KECCAK256 PUSH1 0x40 DUP1 MLOAD PUSH1 0xE0 DUP2 ADD SWAP2 DUP3 SWAP1 MSTORE SWAP4 PUSH1 0x4 SWAP1 SWAP4 MUL SWAP1 SWAP2 ADD PUSH1 0x1 ADD SWAP2 PUSH1 0x7 SWAP2 SWAP1 DUP4 SWAP1 DUP6 JUMPDEST DUP3 SLOAD PUSH2 0x100 DUP4 SWAP1 EXP SWAP1 DIV PUSH1 0xFF AND DUP2 MSTORE PUSH1 0x20 PUSH1 0x1 SWAP3 DUP4 ADD DUP2 DUP2 DIV SWAP5 DUP6 ADD SWAP5 SWAP1 SWAP4 SUB SWAP1 SWAP3 MUL SWAP2 ADD DUP1 DUP5 GT PUSH2 0x21AD JUMPI SWAP1 POP POP POP POP POP POP DUP9 PUSH2 0x306B JUMP JUMPDEST SWAP1 POP DUP1 DUP6 DUP4 DUP2 SLOAD DUP2 LT PUSH2 0x21FB JUMPI PUSH2 0x21FB PUSH2 0x3B4E JUMP JUMPDEST PUSH1 0x0 SWAP2 DUP3 MSTORE PUSH1 0x20 SWAP1 SWAP2 KECCAK256 PUSH1 0x4 SWAP1 SWAP2 MUL ADD PUSH1 0x2 SWAP1 DUP2 ADD DUP1 SLOAD PUSH2 0xFF00 NOT AND PUSH2 0x100 PUSH1 0xFF SWAP5 DUP6 AND MUL OR SWAP1 SSTORE SWAP1 DUP3 AND LT PUSH2 0x2254 JUMPI DUP3 DUP2 PUSH1 0xFF AND PUSH1 0x8 DUP2 LT PUSH2 0x2240 JUMPI PUSH2 0x2240 PUSH2 0x3B4E JUMP JUMPDEST PUSH1 0x20 MUL ADD DUP1 MLOAD SWAP1 PUSH2 0x2250 DUP3 PUSH2 0x3B8E JUMP JUMPDEST SWAP1 MSTORE POP JUMPDEST POP DUP1 PUSH2 0x225F DUP2 PUSH2 0x3B8E JUMP JUMPDEST SWAP2 POP POP PUSH2 0x2164 JUMP JUMPDEST POP PUSH1 0x0 PUSH2 0x2710 PUSH2 0x3E8 DUP7 PUSH1 0x3 ADD SLOAD PUSH2 0x227F SWAP2 SWAP1 PUSH2 0x3BA7 JUMP JUMPDEST PUSH2 0x2289 SWAP2 SWAP1 PUSH2 0x3BBE JUMP JUMPDEST SWAP1 POP PUSH1 0x0 DUP2 DUP7 PUSH1 0x3 ADD SLOAD PUSH2 0x229D SWAP2 SWAP1 PUSH2 0x3AE7 JUMP JUMPDEST SWAP1 POP PUSH1 0x0 PUSH2 0x22A9 PUSH2 0x3550 JUMP JUMPDEST PUSH1 0x64 PUSH2 0x22B6 DUP5 PUSH1 0x5 PUSH2 0x3BA7 JUMP JUMPDEST PUSH2 0x22C0 SWAP2 SWAP1 PUSH2 0x3BBE JUMP JUMPDEST PUSH1 0x40 DUP3 ADD MSTORE PUSH1 0x64 PUSH2 0x22D2 DUP5 PUSH1 0xA PUSH2 0x3BA7 JUMP JUMPDEST PUSH2 0x22DC SWAP2 SWAP1 PUSH2 0x3BBE JUMP JUMPDEST PUSH1 0x60 DUP3 ADD MSTORE PUSH1 0x64 PUSH2 0x22EE DUP5 PUSH1 0xF PUSH2 0x3BA7 JUMP JUMPDEST PUSH2 0x22F8 SWAP2 SWAP1 PUSH2 0x3BBE JUMP JUMPDEST PUSH1 0x80 DUP3 ADD MSTORE PUSH1 0x64 PUSH2 0x230A DUP5 PUSH1 0x14 PUSH2 0x3BA7 JUMP JUMPDEST PUSH2 0x2314 SWAP2 SWAP1 PUSH2 0x3BBE JUMP JUMPDEST PUSH1 0xA0 DUP3 ADD MSTORE PUSH1 0x64 PUSH2 0x2326 DUP5 PUSH1 0x14 PUSH2 0x3BA7 JUMP JUMPDEST PUSH2 0x2330 SWAP2 SWAP1 PUSH2 0x3BBE JUMP JUMPDEST PUSH1 0xC0 DUP3 ADD MSTORE PUSH1 0x64 PUSH2 0x2342 DUP5 PUSH1 0x1E PUSH2 0x3BA7 JUMP JUMPDEST PUSH2 0x234C SWAP2 SWAP1 PUSH2 0x3BBE JUMP JUMPDEST PUSH1 0xE0 DUP3 ADD MSTORE PUSH2 0x2359 PUSH2 0x3550 JUMP JUMPDEST PUSH1 0x2 JUMPDEST PUSH1 0x7 DUP2 PUSH1 0xFF AND GT PUSH2 0x241F JUMPI PUSH1 0x0 DUP8 DUP3 PUSH1 0xFF AND PUSH1 0x8 DUP2 LT PUSH2 0x237E JUMPI PUSH2 0x237E PUSH2 0x3B4E JUMP JUMPDEST PUSH1 0x20 MUL ADD MLOAD GT ISZERO PUSH2 0x23E6 JUMPI DUP7 DUP2 PUSH1 0xFF AND PUSH1 0x8 DUP2 LT PUSH2 0x239E JUMPI PUSH2 0x239E PUSH2 0x3B4E JUMP JUMPDEST PUSH1 0x20 MUL ADD MLOAD DUP4 DUP3 PUSH1 0xFF AND PUSH1 0x8 DUP2 LT PUSH2 0x23B8 JUMPI PUSH2 0x23B8 PUSH2 0x3B4E JUMP JUMPDEST PUSH1 0x20 MUL ADD MLOAD PUSH2 0x23C7 SWAP2 SWAP1 PUSH2 0x3BBE JUMP JUMPDEST DUP3 DUP3 PUSH1 0xFF AND PUSH1 0x8 DUP2 LT PUSH2 0x23DC JUMPI PUSH2 0x23DC PUSH2 0x3B4E JUMP JUMPDEST PUSH1 0x20 MUL ADD MSTORE PUSH2 0x240D JUMP JUMPDEST DUP3 DUP2 PUSH1 0xFF AND PUSH1 0x8 DUP2 LT PUSH2 0x23FB JUMPI PUSH2 0x23FB PUSH2 0x3B4E JUMP JUMPDEST PUSH1 0x20 MUL ADD MLOAD PUSH2 0x240A SWAP1 DUP6 PUSH2 0x3AD4 JUMP JUMPDEST SWAP4 POP JUMPDEST DUP1 PUSH2 0x2417 DUP2 PUSH2 0x3BD2 JUMP JUMPDEST SWAP2 POP POP PUSH2 0x235C JUMP JUMPDEST POP PUSH1 0x0 JUMPDEST DUP8 DUP2 LT ISZERO PUSH2 0x258B JUMPI PUSH1 0x0 DUP10 DUP3 DUP2 SLOAD DUP2 LT PUSH2 0x243F JUMPI PUSH2 0x243F PUSH2 0x3B4E JUMP JUMPDEST PUSH1 0x0 SWAP2 DUP3 MSTORE PUSH1 0x20 SWAP1 SWAP2 KECCAK256 PUSH1 0x2 PUSH1 0x4 SWAP1 SWAP3 MUL ADD DUP2 ADD SLOAD PUSH1 0xFF PUSH2 0x100 SWAP1 SWAP2 DIV AND SWAP2 POP DUP2 LT PUSH2 0x2578 JUMPI PUSH1 0x0 DUP4 DUP3 PUSH1 0xFF AND PUSH1 0x8 DUP2 LT PUSH2 0x247C JUMPI PUSH2 0x247C PUSH2 0x3B4E JUMP JUMPDEST PUSH1 0x20 MUL ADD MLOAD SWAP1 POP DUP1 DUP12 DUP5 DUP2 SLOAD DUP2 LT PUSH2 0x2496 JUMPI PUSH2 0x2496 PUSH2 0x3B4E JUMP JUMPDEST SWAP1 PUSH1 0x0 MSTORE PUSH1 0x20 PUSH1 0x0 KECCAK256 SWAP1 PUSH1 0x4 MUL ADD PUSH1 0x3 ADD DUP2 SWAP1 SSTORE POP DUP1 PUSH1 0xD5 PUSH1 0x0 DUP14 DUP7 DUP2 SLOAD DUP2 LT PUSH2 0x24C2 JUMPI PUSH2 0x24C2 PUSH2 0x3B4E JUMP JUMPDEST PUSH1 0x0 SWAP2 DUP3 MSTORE PUSH1 0x20 DUP1 DUP4 KECCAK256 PUSH1 0x4 SWAP1 SWAP3 MUL SWAP1 SWAP2 ADD SLOAD PUSH1 0x1 PUSH1 0x1 PUSH1 0xA0 SHL SUB AND DUP4 MSTORE DUP3 ADD SWAP3 SWAP1 SWAP3 MSTORE PUSH1 0x40 ADD DUP2 KECCAK256 DUP1 SLOAD SWAP1 SWAP2 SWAP1 PUSH2 0x24FB SWAP1 DUP5 SWAP1 PUSH2 0x3AD4 JUMP JUMPDEST SWAP3 POP POP DUP2 SWAP1 SSTORE POP DUP11 DUP4 DUP2 SLOAD DUP2 LT PUSH2 0x2514 JUMPI PUSH2 0x2514 PUSH2 0x3B4E JUMP JUMPDEST PUSH1 0x0 SWAP2 DUP3 MSTORE PUSH1 0x20 SWAP2 DUP3 SWAP1 KECCAK256 PUSH1 0x4 SWAP1 SWAP2 MUL ADD SLOAD PUSH1 0x40 DUP1 MLOAD DUP7 DUP2 MSTORE PUSH1 0xFF DUP7 AND SWAP4 DUP2 ADD SWAP4 SWAP1 SWAP4 MSTORE DUP3 ADD DUP4 SWAP1 MSTORE PUSH1 0x1 PUSH1 0x1 PUSH1 0xA0 SHL SUB AND SWAP1 DUP16 SWAP1 PUSH32 0xAF8D69C5BF84763F900B51E0405FDC2AD4EAF8B44698617A07AE9C31BC41204C SWAP1 PUSH1 0x60 ADD PUSH1 0x40 MLOAD DUP1 SWAP2 SUB SWAP1 LOG3 POP JUMPDEST POP DUP1 PUSH2 0x2583 DUP2 PUSH2 0x3B8E JUMP JUMPDEST SWAP2 POP POP PUSH2 0x2423 JUMP JUMPDEST POP DUP5 PUSH1 0xD6 PUSH1 0x0 DUP3 DUP3 SLOAD PUSH2 0x259E SWAP2 SWAP1 PUSH2 0x3AD4 JUMP JUMPDEST SWAP3 POP POP DUP2 SWAP1 SSTORE POP DUP3 PUSH1 0xD7 PUSH1 0x0 DUP3 DUP3 SLOAD PUSH2 0x25B7 SWAP2 SWAP1 PUSH2 0x3AD4 JUMP JUMPDEST SWAP1 SWAP2 SSTORE POP POP DUP9 SLOAD PUSH3 0xFF00FF NOT AND PUSH3 0x10000 OR DUP10 SSTORE PUSH1 0x40 MLOAD DUP12 SWAP1 PUSH32 0xB8CA8B8466FCA767994635DC37682D654DA89BF89D11DE69E1025CCDB2CDFEE5 SWAP1 PUSH2 0x2601 SWAP1 DUP14 SWAP1 DUP10 SWAP1 DUP9 SWAP1 PUSH2 0x3BF1 JUMP JUMPDEST PUSH1 0x40 MLOAD DUP1 SWAP2 SUB SWAP1 LOG2 PUSH2 0x2611 PUSH2 0x2D81 JUMP JUMPDEST POP POP POP POP POP POP POP POP POP POP POP JUMP JUMPDEST PUSH2 0xFCD PUSH2 0x1E9F JUMP JUMPDEST PUSH32 0x4910FDFA16FED3260ED0E7147F7CC6DA11A60208B5B9406D12A635614FFD9143 SLOAD PUSH1 0xFF AND ISZERO PUSH2 0x265E JUMPI PUSH2 0x2659 DUP4 PUSH2 0x30EA JUMP JUMPDEST POP POP POP JUMP JUMPDEST DUP3 PUSH1 0x1 PUSH1 0x1 PUSH1 0xA0 SHL SUB AND PUSH4 0x52D1902D PUSH1 0x40 MLOAD DUP2 PUSH4 0xFFFFFFFF AND PUSH1 0xE0 SHL DUP2 MSTORE PUSH1 0x4 ADD PUSH1 0x20 PUSH1 0x40 MLOAD DUP1 DUP4 SUB DUP2 DUP7 GAS STATICCALL SWAP3 POP POP POP DUP1 ISZERO PUSH2 0x26B8 JUMPI POP PUSH1 0x40 DUP1 MLOAD PUSH1 0x1F RETURNDATASIZE SWAP1 DUP2 ADD PUSH1 0x1F NOT AND DUP3 ADD SWAP1 SWAP3 MSTORE PUSH2 0x26B5 SWAP2 DUP2 ADD SWAP1 PUSH2 0x3C12 JUMP JUMPDEST PUSH1 0x1 JUMPDEST PUSH2 0x272A JUMPI PUSH1 0x40 MLOAD PUSH3 0x461BCD PUSH1 0xE5 SHL DUP2 MSTORE PUSH1 0x20 PUSH1 0x4 DUP3 ADD MSTORE PUSH1 0x2E PUSH1 0x24 DUP3 ADD MSTORE PUSH32 0x45524331393637557067726164653A206E657720696D706C656D656E74617469 PUSH1 0x44 DUP3 ADD MSTORE PUSH32 0x6F6E206973206E6F742055555053000000000000000000000000000000000000 PUSH1 0x64 DUP3 ADD MSTORE PUSH1 0x84 ADD PUSH2 0xA9E JUMP JUMPDEST PUSH32 0x360894A13BA1A3210667C828492DB98DCA3E2076CC3735A920A3CA505D382BBC DUP2 EQ PUSH2 0x27BF JUMPI PUSH1 0x40 MLOAD PUSH3 0x461BCD PUSH1 0xE5 SHL DUP2 MSTORE PUSH1 0x20 PUSH1 0x4 DUP3 ADD MSTORE PUSH1 0x29 PUSH1 0x24 DUP3 ADD MSTORE PUSH32 0x45524331393637557067726164653A20756E737570706F727465642070726F78 PUSH1 0x44 DUP3 ADD MSTORE PUSH32 0x6961626C65555549440000000000000000000000000000000000000000000000 PUSH1 0x64 DUP3 ADD MSTORE PUSH1 0x84 ADD PUSH2 0xA9E JUMP JUMPDEST POP PUSH2 0x2659 DUP4 DUP4 DUP4 PUSH2 0x31B5 JUMP JUMPDEST PUSH2 0x27D3 PUSH2 0x3531 JUMP JUMPDEST PUSH1 0x0 JUMPDEST PUSH1 0x7 DUP2 LT ISZERO PUSH2 0x2659 JUMPI PUSH1 0x1 DUP4 DUP3 PUSH1 0x7 DUP2 LT PUSH2 0x27F3 JUMPI PUSH2 0x27F3 PUSH2 0x3B4E JUMP JUMPDEST PUSH1 0x20 MUL ADD PUSH1 0x20 DUP2 ADD SWAP1 PUSH2 0x2806 SWAP2 SWAP1 PUSH2 0x3C2B JUMP JUMPDEST PUSH1 0xFF AND LT ISZERO DUP1 ISZERO PUSH2 0x283F JUMPI POP PUSH1 0x31 DUP4 DUP3 PUSH1 0x7 DUP2 LT PUSH2 0x2826 JUMPI PUSH2 0x2826 PUSH2 0x3B4E JUMP JUMPDEST PUSH1 0x20 MUL ADD PUSH1 0x20 DUP2 ADD SWAP1 PUSH2 0x2839 SWAP2 SWAP1 PUSH2 0x3C2B JUMP JUMPDEST PUSH1 0xFF AND GT ISZERO JUMPDEST PUSH2 0x288B JUMPI PUSH1 0x40 MLOAD PUSH3 0x461BCD PUSH1 0xE5 SHL DUP2 MSTORE PUSH1 0x20 PUSH1 0x4 DUP3 ADD MSTORE PUSH1 0x13 PUSH1 0x24 DUP3 ADD MSTORE PUSH32 0x4E756D626572206F7574206F662072616E676500000000000000000000000000 PUSH1 0x44 DUP3 ADD MSTORE PUSH1 0x64 ADD PUSH2 0xA9E JUMP JUMPDEST DUP2 DUP4 DUP3 PUSH1 0x7 DUP2 LT PUSH2 0x289E JUMPI PUSH2 0x289E PUSH2 0x3B4E JUMP JUMPDEST PUSH1 0x20 MUL ADD PUSH1 0x20 DUP2 ADD SWAP1 PUSH2 0x28B1 SWAP2 SWAP1 PUSH2 0x3C2B JUMP JUMPDEST PUSH1 0xFF AND PUSH1 0x32 DUP2 LT PUSH2 0x28C4 JUMPI PUSH2 0x28C4 PUSH2 0x3B4E JUMP JUMPDEST PUSH1 0x20 MUL ADD MLOAD ISZERO PUSH2 0x2916 JUMPI PUSH1 0x40 MLOAD PUSH3 0x461BCD PUSH1 0xE5 SHL DUP2 MSTORE PUSH1 0x20 PUSH1 0x4 DUP3 ADD MSTORE PUSH1 0x1C PUSH1 0x24 DUP3 ADD MSTORE PUSH32 0x4475706C6963617465206E756D626572206E6F7420616C6C6F77656400000000 PUSH1 0x44 DUP3 ADD MSTORE PUSH1 0x64 ADD PUSH2 0xA9E JUMP JUMPDEST PUSH1 0x1 DUP3 DUP5 DUP4 PUSH1 0x7 DUP2 LT PUSH2 0x292B JUMPI PUSH2 0x292B PUSH2 0x3B4E JUMP JUMPDEST PUSH1 0x20 MUL ADD PUSH1 0x20 DUP2 ADD SWAP1 PUSH2 0x293E SWAP2 SWAP1 PUSH2 0x3C2B JUMP JUMPDEST PUSH1 0xFF AND PUSH1 0x32 DUP2 LT PUSH2 0x2951 JUMPI PUSH2 0x2951 PUSH2 0x3B4E JUMP JUMPDEST SWAP2 ISZERO ISZERO PUSH1 0x20 SWAP1 SWAP3 MUL ADD MSTORE DUP1 PUSH2 0x2965 DUP2 PUSH2 0x3B8E JUMP JUMPDEST SWAP2 POP POP PUSH2 0x27D6 JUMP JUMPDEST PUSH1 0xD8 SLOAD PUSH1 0x0 SWAP1 DUP2 MSTORE PUSH1 0xD2 PUSH1 0x20 MSTORE PUSH1 0x40 SWAP1 KECCAK256 DUP1 SLOAD PUSH1 0xFF AND PUSH2 0x29C1 JUMPI PUSH1 0x40 MLOAD PUSH3 0x461BCD PUSH1 0xE5 SHL DUP2 MSTORE PUSH1 0x20 PUSH1 0x4 DUP3 ADD MSTORE PUSH1 0xF PUSH1 0x24 DUP3 ADD MSTORE PUSH15 0x139BC81858DD1A5D99481C9BDD5B99 PUSH1 0x8A SHL PUSH1 0x44 DUP3 ADD MSTORE PUSH1 0x64 ADD PUSH2 0xA9E JUMP JUMPDEST DUP1 SLOAD PUSH2 0x100 SWAP1 DIV PUSH1 0xFF AND ISZERO PUSH2 0x2A18 JUMPI PUSH1 0x40 MLOAD PUSH3 0x461BCD PUSH1 0xE5 SHL DUP2 MSTORE PUSH1 0x20 PUSH1 0x4 DUP3 ADD MSTORE PUSH1 0x16 PUSH1 0x24 DUP3 ADD MSTORE PUSH32 0x4472617720616C72656164792072657175657374656400000000000000000000 PUSH1 0x44 DUP3 ADD MSTORE PUSH1 0x64 ADD PUSH2 0xA9E JUMP JUMPDEST DUP1 PUSH1 0x2 ADD SLOAD TIMESTAMP LT ISZERO PUSH2 0x2A6C JUMPI PUSH1 0x40 MLOAD PUSH3 0x461BCD PUSH1 0xE5 SHL DUP2 MSTORE PUSH1 0x20 PUSH1 0x4 DUP3 ADD MSTORE PUSH1 0x12 PUSH1 0x24 DUP3 ADD MSTORE PUSH32 0x526F756E64207374696C6C206163746976650000000000000000000000000000 PUSH1 0x44 DUP3 ADD MSTORE PUSH1 0x64 ADD PUSH2 0xA9E JUMP JUMPDEST DUP1 PUSH1 0x3 ADD SLOAD PUSH1 0xD7 PUSH1 0x0 DUP3 DUP3 SLOAD PUSH2 0x2A82 SWAP2 SWAP1 PUSH2 0x3AD4 JUMP JUMPDEST SWAP1 SWAP2 SSTORE POP POP DUP1 SLOAD PUSH3 0xFF00FF NOT AND PUSH3 0x10000 OR DUP2 SSTORE PUSH1 0xD8 SLOAD PUSH1 0x3 DUP3 ADD SLOAD PUSH1 0x40 MLOAD PUSH32 0x3FD1C85CDA6246C06E5680D9888D379FE80D0234F53064BA2F3E3EF7698DFD4B SWAP2 PUSH2 0x2AD0 SWAP2 SWAP1 DUP2 MSTORE PUSH1 0x20 ADD SWAP1 JUMP JUMPDEST PUSH1 0x40 MLOAD DUP1 SWAP2 SUB SWAP1 LOG2 PUSH2 0xFCD PUSH2 0x2D81 JUMP JUMPDEST PUSH1 0xD8 SLOAD PUSH1 0x0 SWAP1 DUP2 MSTORE PUSH1 0xD2 PUSH1 0x20 SWAP1 DUP2 MSTORE PUSH1 0x40 DUP1 DUP4 KECCAK256 PUSH1 0xC9 SLOAD DUP3 MLOAD PUSH1 0xC0 DUP2 ADD DUP5 MSTORE PUSH1 0xCB SLOAD DUP2 MSTORE PUSH1 0xCA SLOAD DUP2 DUP7 ADD MSTORE PUSH1 0xCC SLOAD PUSH2 0xFFFF PUSH5 0x100000000 DUP3 DIV AND DUP3 DUP7 ADD MSTORE PUSH4 0xFFFFFFFF DUP1 DUP3 AND PUSH1 0x60 DUP5 ADD MSTORE PUSH7 0x1000000000000 SWAP1 SWAP2 DIV AND PUSH1 0x80 DUP3 ADD MSTORE DUP4 MLOAD SWAP5 DUP6 ADD SWAP1 SWAP4 MSTORE PUSH1 0xDB SLOAD PUSH1 0xFF AND ISZERO ISZERO DUP5 MSTORE SWAP1 SWAP3 PUSH1 0x1 PUSH1 0x1 PUSH1 0xA0 SHL SUB SWAP1 SWAP2 AND SWAP2 PUSH4 0x9B1C385E SWAP2 PUSH1 0xA0 DUP3 ADD SWAP1 PUSH2 0x2B70 SWAP1 PUSH2 0x31DA JUMP JUMPDEST DUP2 MSTORE POP PUSH1 0x40 MLOAD DUP3 PUSH4 0xFFFFFFFF AND PUSH1 0xE0 SHL DUP2 MSTORE PUSH1 0x4 ADD PUSH2 0x2B8F SWAP2 SWAP1 PUSH2 0x3C46 JUMP JUMPDEST PUSH1 0x20 PUSH1 0x40 MLOAD DUP1 DUP4 SUB DUP2 PUSH1 0x0 DUP8 GAS CALL ISZERO DUP1 ISZERO PUSH2 0x2BAE JUMPI RETURNDATASIZE PUSH1 0x0 DUP1 RETURNDATACOPY RETURNDATASIZE PUSH1 0x0 REVERT JUMPDEST POP POP POP POP PUSH1 0x40 MLOAD RETURNDATASIZE PUSH1 0x1F NOT PUSH1 0x1F DUP3 ADD AND DUP3 ADD DUP1 PUSH1 0x40 MSTORE POP DUP2 ADD SWAP1 PUSH2 0x2BD2 SWAP2 SWAP1 PUSH2 0x3C12 JUMP JUMPDEST PUSH1 0x40 DUP1 MLOAD PUSH1 0x60 DUP2 ADD DUP3 MSTORE PUSH1 0x1 DUP1 DUP3 MSTORE PUSH1 0x0 PUSH1 0x20 DUP1 DUP5 ADD DUP3 DUP2 MSTORE DUP6 MLOAD DUP4 DUP2 MSTORE DUP1 DUP4 ADD DUP8 MSTORE DUP6 DUP8 ADD SWAP1 DUP2 MSTORE DUP8 DUP5 MSTORE PUSH1 0xD0 DUP4 MSTORE SWAP6 SWAP1 SWAP3 KECCAK256 DUP5 MLOAD DUP2 SLOAD SWAP4 MLOAD PUSH2 0xFFFF NOT SWAP1 SWAP5 AND SWAP1 ISZERO ISZERO PUSH2 0xFF00 NOT AND OR PUSH2 0x100 SWAP4 ISZERO ISZERO SWAP4 SWAP1 SWAP4 MUL SWAP3 SWAP1 SWAP3 OR DUP3 SSTORE SWAP4 MLOAD DUP1 MLOAD SWAP6 SWAP8 POP SWAP3 SWAP5 SWAP1 SWAP4 PUSH2 0x2C46 SWAP4 SWAP3 DUP6 ADD SWAP3 ADD SWAP1 PUSH2 0x356F JUMP JUMPDEST POP POP PUSH1 0xD8 SLOAD PUSH1 0x0 DUP5 DUP2 MSTORE PUSH1 0xD1 PUSH1 0x20 SWAP1 DUP2 MSTORE PUSH1 0x40 SWAP2 DUP3 SWAP1 KECCAK256 SWAP3 SWAP1 SWAP3 SSTORE PUSH1 0xCD DUP6 SWAP1 SSTORE DUP4 SLOAD PUSH2 0x100 PUSH2 0xFF00 NOT SWAP1 SWAP2 AND OR DUP5 SSTORE PUSH1 0xCC SLOAD DUP2 MLOAD DUP7 DUP2 MSTORE PUSH7 0x1000000000000 SWAP1 SWAP2 DIV PUSH4 0xFFFFFFFF AND SWAP3 DUP2 ADD SWAP3 SWAP1 SWAP3 MSTORE PUSH32 0xCC58B13AD3EAB50626C6A6300B1D139CD6EBB1688A7CCED9461C2F7E762665EE SWAP3 POP ADD PUSH1 0x40 MLOAD DUP1 SWAP2 SUB SWAP1 LOG1 PUSH1 0xD8 SLOAD PUSH1 0x40 MLOAD DUP4 DUP2 MSTORE PUSH32 0xC67DDA8E11F1AA941C7E74466B1859A07A32F46AAF641D29B83BE348424D93CD SWAP1 PUSH1 0x20 ADD PUSH1 0x40 MLOAD DUP1 SWAP2 SUB SWAP1 LOG2 POP SWAP1 JUMP JUMPDEST PUSH1 0x0 SLOAD PUSH2 0x100 SWAP1 DIV PUSH1 0xFF AND PUSH2 0x2D78 JUMPI PUSH1 0x40 MLOAD PUSH3 0x461BCD PUSH1 0xE5 SHL DUP2 MSTORE PUSH1 0x20 PUSH1 0x4 DUP3 ADD MSTORE PUSH1 0x2B PUSH1 0x24 DUP3 ADD MSTORE PUSH32 0x496E697469616C697A61626C653A20636F6E7472616374206973206E6F742069 PUSH1 0x44 DUP3 ADD MSTORE PUSH32 0x6E697469616C697A696E67000000000000000000000000000000000000000000 PUSH1 0x64 DUP3 ADD MSTORE PUSH1 0x84 ADD PUSH2 0xA9E JUMP JUMPDEST PUSH2 0x1853 CALLER PUSH2 0x2F15 JUMP JUMPDEST PUSH1 0xD8 SLOAD ISZERO DUP1 PUSH2 0x2DA2 JUMPI POP PUSH1 0xD8 SLOAD PUSH1 0x0 SWAP1 DUP2 MSTORE PUSH1 0xD2 PUSH1 0x20 MSTORE PUSH1 0x40 SWAP1 KECCAK256 SLOAD PUSH1 0xFF AND ISZERO JUMPDEST PUSH2 0x2DEE JUMPI PUSH1 0x40 MLOAD PUSH3 0x461BCD PUSH1 0xE5 SHL DUP2 MSTORE PUSH1 0x20 PUSH1 0x4 DUP3 ADD MSTORE PUSH1 0x1A PUSH1 0x24 DUP3 ADD MSTORE PUSH32 0x43757272656E7420726F756E64207374696C6C20616374697665000000000000 PUSH1 0x44 DUP3 ADD MSTORE PUSH1 0x64 ADD PUSH2 0xA9E JUMP JUMPDEST PUSH1 0xD8 DUP1 SLOAD SWAP1 PUSH1 0x0 PUSH2 0x2DFE DUP4 PUSH2 0x3B8E JUMP JUMPDEST SWAP2 SWAP1 POP SSTORE POP PUSH1 0x40 MLOAD DUP1 PUSH1 0xC0 ADD PUSH1 0x40 MSTORE DUP1 PUSH1 0x1 ISZERO ISZERO DUP2 MSTORE PUSH1 0x20 ADD PUSH1 0x0 ISZERO ISZERO DUP2 MSTORE PUSH1 0x20 ADD PUSH1 0x0 ISZERO ISZERO DUP2 MSTORE PUSH1 0x20 ADD TIMESTAMP DUP2 MSTORE PUSH1 0x20 ADD PUSH1 0xDA SLOAD TIMESTAMP PUSH2 0x2E3D SWAP2 SWAP1 PUSH2 0x3AD4 JUMP JUMPDEST DUP2 MSTORE PUSH1 0xD7 SLOAD PUSH1 0x20 SWAP2 DUP3 ADD MSTORE PUSH1 0xD8 DUP1 SLOAD PUSH1 0x0 SWAP1 DUP2 MSTORE PUSH1 0xD2 DUP4 MSTORE PUSH1 0x40 SWAP1 DUP2 SWAP1 KECCAK256 DUP5 MLOAD DUP2 SLOAD SWAP5 DUP7 ADD MLOAD SWAP3 DUP7 ADD MLOAD ISZERO ISZERO PUSH3 0x10000 MUL PUSH3 0xFF0000 NOT SWAP4 ISZERO ISZERO PUSH2 0x100 MUL PUSH2 0xFF00 NOT SWAP3 ISZERO ISZERO SWAP3 SWAP1 SWAP3 AND PUSH2 0xFFFF NOT SWAP1 SWAP7 AND SWAP6 SWAP1 SWAP6 OR OR SWAP2 SWAP1 SWAP2 AND SWAP3 SWAP1 SWAP3 OR DUP3 SSTORE PUSH1 0x60 DUP4 ADD MLOAD PUSH1 0x1 DUP4 ADD SSTORE PUSH1 0x80 DUP4 ADD MLOAD PUSH1 0x2 DUP4 ADD SSTORE PUSH1 0xA0 SWAP1 SWAP3 ADD MLOAD PUSH1 0x3 SWAP1 SWAP2 ADD SSTORE SLOAD PUSH1 0xDA SLOAD PUSH32 0xFD9D17E5565DEEA3D25918D95FC398673B9445EF0A96D12EAF3AB2B198756C65 SWAP1 TIMESTAMP SWAP1 PUSH2 0x2EED SWAP1 DUP3 PUSH2 0x3AD4 JUMP JUMPDEST PUSH1 0xD7 SLOAD PUSH1 0x40 DUP1 MLOAD SWAP4 DUP5 MSTORE PUSH1 0x20 DUP5 ADD SWAP3 SWAP1 SWAP3 MSTORE SWAP1 DUP3 ADD MSTORE PUSH1 0x60 ADD PUSH1 0x40 MLOAD DUP1 SWAP2 SUB SWAP1 LOG2 PUSH1 0x0 PUSH1 0xD7 SSTORE JUMP JUMPDEST PUSH1 0x33 DUP1 SLOAD PUSH1 0x1 PUSH1 0x1 PUSH1 0xA0 SHL SUB DUP4 DUP2 AND PUSH20 0xFFFFFFFFFFFFFFFFFFFFFFFFFFFFFFFFFFFFFFFF NOT DUP4 AND DUP2 OR SWAP1 SWAP4 SSTORE PUSH1 0x40 MLOAD SWAP2 AND SWAP2 SWAP1 DUP3 SWAP1 PUSH32 0x8BE0079C531659141344CD1FD0A4F28419497F9722A3DAAFE3B4186F6B6457E0 SWAP1 PUSH1 0x0 SWAP1 LOG3 POP POP JUMP JUMPDEST PUSH1 0x0 JUMPDEST PUSH1 0x7 DUP2 LT ISZERO PUSH2 0x177A JUMPI PUSH1 0x0 PUSH2 0x2F8D DUP3 PUSH1 0x1 PUSH2 0x3AD4 JUMP JUMPDEST SWAP1 POP JUMPDEST PUSH1 0x7 DUP2 LT ISZERO PUSH2 0x3058 JUMPI DUP3 DUP3 PUSH1 0x7 DUP2 LT PUSH2 0x2FAB JUMPI PUSH2 0x2FAB PUSH2 0x3B4E JUMP JUMPDEST PUSH1 0x20 MUL ADD MLOAD PUSH1 0xFF AND DUP4 DUP3 PUSH1 0x7 DUP2 LT PUSH2 0x2FC5 JUMPI PUSH2 0x2FC5 PUSH2 0x3B4E JUMP JUMPDEST PUSH1 0x20 MUL ADD MLOAD PUSH1 0xFF AND LT ISZERO PUSH2 0x3046 JUMPI PUSH1 0x0 DUP4 DUP4 PUSH1 0x7 DUP2 LT PUSH2 0x2FE7 JUMPI PUSH2 0x2FE7 PUSH2 0x3B4E JUMP JUMPDEST PUSH1 0x20 MUL ADD MLOAD SWAP1 POP DUP4 DUP3 PUSH1 0x7 DUP2 LT PUSH2 0x3000 JUMPI PUSH2 0x3000 PUSH2 0x3B4E JUMP JUMPDEST PUSH1 0x20 MUL ADD MLOAD DUP5 DUP5 PUSH1 0x7 DUP2 LT PUSH2 0x3017 JUMPI PUSH2 0x3017 PUSH2 0x3B4E JUMP JUMPDEST PUSH1 0xFF SWAP1 SWAP3 AND PUSH1 0x20 SWAP3 SWAP1 SWAP3 MUL ADD MSTORE DUP1 DUP5 DUP4 PUSH1 0x7 DUP2 LT PUSH2 0x3037 JUMPI PUSH2 0x3037 PUSH2 0x3B4E JUMP JUMPDEST PUSH1 0xFF SWAP1 SWAP3 AND PUSH1 0x20 SWAP3 SWAP1 SWAP3 MUL ADD MSTORE POP JUMPDEST DUP1 PUSH2 0x3050 DUP2 PUSH2 0x3B8E JUMP JUMPDEST SWAP2 POP POP PUSH2 0x2F90 JUMP JUMPDEST POP DUP1 PUSH2 0x3063 DUP2 PUSH2 0x3B8E JUMP JUMPDEST SWAP2 POP POP PUSH2 0x2F77 JUMP JUMPDEST PUSH1 0x0 DUP1 JUMPDEST PUSH1 0x7 DUP2 PUSH1 0xFF AND LT ISZERO PUSH2 0x30E3 JUMPI DUP3 DUP2 PUSH1 0xFF AND PUSH1 0x7 DUP2 LT PUSH2 0x3090 JUMPI PUSH2 0x3090 PUSH2 0x3B4E JUMP JUMPDEST PUSH1 0x20 MUL ADD MLOAD PUSH1 0xFF AND DUP5 DUP3 PUSH1 0xFF AND PUSH1 0x7 DUP2 LT PUSH2 0x30AD JUMPI PUSH2 0x30AD PUSH2 0x3B4E JUMP JUMPDEST PUSH1 0x20 MUL ADD MLOAD PUSH1 0xFF AND SUB PUSH2 0x30CC JUMPI DUP2 PUSH2 0x30C4 DUP2 PUSH2 0x3BD2 JUMP JUMPDEST SWAP3 POP POP PUSH2 0x30D1 JUMP JUMPDEST PUSH2 0x30E3 JUMP JUMPDEST DUP1 PUSH2 0x30DB DUP2 PUSH2 0x3BD2 JUMP JUMPDEST SWAP2 POP POP PUSH2 0x306F JUMP JUMPDEST POP SWAP3 SWAP2 POP POP JUMP JUMPDEST PUSH1 0x1 PUSH1 0x1 PUSH1 0xA0 SHL SUB DUP2 AND EXTCODESIZE PUSH2 0x3167 JUMPI PUSH1 0x40 MLOAD PUSH3 0x461BCD PUSH1 0xE5 SHL DUP2 MSTORE PUSH1 0x20 PUSH1 0x4 DUP3 ADD MSTORE PUSH1 0x2D PUSH1 0x24 DUP3 ADD MSTORE PUSH32 0x455243313936373A206E657720696D706C656D656E746174696F6E206973206E PUSH1 0x44 DUP3 ADD MSTORE PUSH32 0x6F74206120636F6E747261637400000000000000000000000000000000000000 PUSH1 0x64 DUP3 ADD MSTORE PUSH1 0x84 ADD PUSH2 0xA9E JUMP JUMPDEST PUSH32 0x360894A13BA1A3210667C828492DB98DCA3E2076CC3735A920A3CA505D382BBC DUP1 SLOAD PUSH20 0xFFFFFFFFFFFFFFFFFFFFFFFFFFFFFFFFFFFFFFFF NOT AND PUSH1 0x1 PUSH1 0x1 PUSH1 0xA0 SHL SUB SWAP3 SWAP1 SWAP3 AND SWAP2 SWAP1 SWAP2 OR SWAP1 SSTORE JUMP JUMPDEST PUSH2 0x31BE DUP4 PUSH2 0x3278 JUMP JUMPDEST PUSH1 0x0 DUP3 MLOAD GT DUP1 PUSH2 0x31CB JUMPI POP DUP1 JUMPDEST ISZERO PUSH2 0x2659 JUMPI PUSH2 0xE4F DUP4 DUP4 PUSH2 0x32B8 JUMP JUMPDEST PUSH1 0x60 PUSH32 0x92FD13387C7FE7BEFBC38D303D6468778FB9731BC4583F17D92989C6FCFDEAAA DUP3 PUSH1 0x40 MLOAD PUSH1 0x24 ADD PUSH2 0x3213 SWAP2 MLOAD ISZERO ISZERO DUP2 MSTORE PUSH1 0x20 ADD SWAP1 JUMP JUMPDEST PUSH1 0x40 DUP1 MLOAD PUSH1 0x1F NOT DUP2 DUP5 SUB ADD DUP2 MSTORE SWAP2 SWAP1 MSTORE PUSH1 0x20 DUP2 ADD DUP1 MLOAD PUSH28 0xFFFFFFFFFFFFFFFFFFFFFFFFFFFFFFFFFFFFFFFFFFFFFFFFFFFFFFFF AND PUSH32 0xFFFFFFFF00000000000000000000000000000000000000000000000000000000 SWAP1 SWAP4 AND SWAP3 SWAP1 SWAP3 OR SWAP1 SWAP2 MSTORE SWAP3 SWAP2 POP POP JUMP JUMPDEST PUSH2 0x3281 DUP2 PUSH2 0x30EA JUMP JUMPDEST PUSH1 0x40 MLOAD PUSH1 0x1 PUSH1 0x1 PUSH1 0xA0 SHL SUB DUP3 AND SWAP1 PUSH32 0xBC7CD75A20EE27FD9ADEBAB32041F755214DBC6BFFA90CC0225B39DA2E5C2D3B SWAP1 PUSH1 0x0 SWAP1 LOG2 POP JUMP JUMPDEST PUSH1 0x60 PUSH2 0x32DD DUP4 DUP4 PUSH1 0x40 MLOAD DUP1 PUSH1 0x60 ADD PUSH1 0x40 MSTORE DUP1 PUSH1 0x27 DUP2 MSTORE PUSH1 0x20 ADD PUSH2 0x3CD3 PUSH1 0x27 SWAP2 CODECOPY PUSH2 0x32E4 JUMP JUMPDEST SWAP4 SWAP3 POP POP POP JUMP JUMPDEST PUSH1 0x60 PUSH1 0x0 DUP1 DUP6 PUSH1 0x1 PUSH1 0x1 PUSH1 0xA0 SHL SUB AND DUP6 PUSH1 0x40 MLOAD PUSH2 0x3301 SWAP2 SWAP1 PUSH2 0x3CA3 JUMP JUMPDEST PUSH1 0x0 PUSH1 0x40 MLOAD DUP1 DUP4 SUB DUP2 DUP6 GAS DELEGATECALL SWAP2 POP POP RETURNDATASIZE DUP1 PUSH1 0x0 DUP2 EQ PUSH2 0x333C JUMPI PUSH1 0x40 MLOAD SWAP2 POP PUSH1 0x1F NOT PUSH1 0x3F RETURNDATASIZE ADD AND DUP3 ADD PUSH1 0x40 MSTORE RETURNDATASIZE DUP3 MSTORE RETURNDATASIZE PUSH1 0x0 PUSH1 0x20 DUP5 ADD RETURNDATACOPY PUSH2 0x3341 JUMP JUMPDEST PUSH1 0x60 SWAP2 POP JUMPDEST POP SWAP2 POP SWAP2 POP PUSH2 0x3352 DUP7 DUP4 DUP4 DUP8 PUSH2 0x335C JUMP JUMPDEST SWAP7 SWAP6 POP POP POP POP POP POP JUMP JUMPDEST PUSH1 0x60 DUP4 ISZERO PUSH2 0x33CB JUMPI DUP3 MLOAD PUSH1 0x0 SUB PUSH2 0x33C4 JUMPI PUSH1 0x1 PUSH1 0x1 PUSH1 0xA0 SHL SUB DUP6 AND EXTCODESIZE PUSH2 0x33C4 JUMPI PUSH1 0x40 MLOAD PUSH3 0x461BCD PUSH1 0xE5 SHL DUP2 MSTORE PUSH1 0x20 PUSH1 0x4 DUP3 ADD MSTORE PUSH1 0x1D PUSH1 0x24 DUP3 ADD MSTORE PUSH32 0x416464726573733A2063616C6C20746F206E6F6E2D636F6E7472616374000000 PUSH1 0x44 DUP3 ADD MSTORE PUSH1 0x64 ADD PUSH2 0xA9E JUMP JUMPDEST POP DUP2 PUSH2 0x33D5 JUMP JUMPDEST PUSH2 0x33D5 DUP4 DUP4 PUSH2 0x33DD JUMP JUMPDEST SWAP5 SWAP4 POP POP POP POP JUMP JUMPDEST DUP2 MLOAD ISZERO PUSH2 0x33ED JUMPI DUP2 MLOAD DUP1 DUP4 PUSH1 0x20 ADD REVERT JUMPDEST DUP1 PUSH1 0x40 MLOAD PUSH3 0x461BCD PUSH1 0xE5 SHL DUP2 MSTORE PUSH1 0x4 ADD PUSH2 0xA9E SWAP2 SWAP1 PUSH2 0x3CBF JUMP JUMPDEST DUP3 DUP1 SLOAD DUP3 DUP3 SSTORE SWAP1 PUSH1 0x0 MSTORE PUSH1 0x20 PUSH1 0x0 KECCAK256 SWAP1 DUP2 ADD SWAP3 DUP3 ISZERO PUSH2 0x3442 JUMPI SWAP2 PUSH1 0x20 MUL DUP3 ADD JUMPDEST DUP3 DUP2 GT ISZERO PUSH2 0x3442 JUMPI DUP3 CALLDATALOAD DUP3 SSTORE SWAP2 PUSH1 0x20 ADD SWAP2 SWAP1 PUSH1 0x1 ADD SWAP1 PUSH2 0x3427 JUMP JUMPDEST POP PUSH2 0x344E SWAP3 SWAP2 POP PUSH2 0x35AA JUMP JUMPDEST POP SWAP1 JUMP JUMPDEST PUSH1 0x1 DUP4 ADD SWAP2 DUP4 SWAP1 DUP3 ISZERO PUSH2 0x3442 JUMPI SWAP2 PUSH1 0x20 MUL DUP3 ADD PUSH1 0x0 JUMPDEST DUP4 DUP3 GT ISZERO PUSH2 0x34A6 JUMPI DUP4 MLOAD DUP4 DUP3 PUSH2 0x100 EXP DUP2 SLOAD DUP2 PUSH1 0xFF MUL NOT AND SWAP1 DUP4 PUSH1 0xFF AND MUL OR SWAP1 SSTORE POP SWAP3 PUSH1 0x20 ADD SWAP3 PUSH1 0x1 ADD PUSH1 0x20 DUP2 PUSH1 0x0 ADD DIV SWAP3 DUP4 ADD SWAP3 PUSH1 0x1 SUB MUL PUSH2 0x3468 JUMP JUMPDEST DUP1 ISZERO PUSH2 0x34D3 JUMPI DUP3 DUP2 PUSH2 0x100 EXP DUP2 SLOAD SWAP1 PUSH1 0xFF MUL NOT AND SWAP1 SSTORE PUSH1 0x1 ADD PUSH1 0x20 DUP2 PUSH1 0x0 ADD DIV SWAP3 DUP4 ADD SWAP3 PUSH1 0x1 SUB MUL PUSH2 0x34A6 JUMP JUMPDEST POP POP PUSH2 0x344E SWAP3 SWAP2 POP PUSH2 0x35AA JUMP JUMPDEST PUSH1 0x1 DUP4 ADD SWAP2 DUP4 SWAP1 DUP3 ISZERO PUSH2 0x3442 JUMPI SWAP2 PUSH1 0x1F ADD PUSH1 0x20 SWAP1 DIV DUP3 ADD JUMPDEST DUP3 DUP2 GT ISZERO PUSH2 0x3442 JUMPI DUP3 SLOAD DUP3 SSTORE SWAP2 PUSH1 0x1 ADD SWAP2 SWAP1 PUSH1 0x1 ADD SWAP1 PUSH2 0x34F8 JUMP JUMPDEST PUSH1 0x40 MLOAD DUP1 PUSH1 0xE0 ADD PUSH1 0x40 MSTORE DUP1 PUSH1 0x7 SWAP1 PUSH1 0x20 DUP3 MUL DUP1 CALLDATASIZE DUP4 CALLDATACOPY POP SWAP2 SWAP3 SWAP2 POP POP JUMP JUMPDEST PUSH1 0x40 MLOAD DUP1 PUSH2 0x640 ADD PUSH1 0x40 MSTORE DUP1 PUSH1 0x32 SWAP1 PUSH1 0x20 DUP3 MUL DUP1 CALLDATASIZE DUP4 CALLDATACOPY POP SWAP2 SWAP3 SWAP2 POP POP JUMP JUMPDEST PUSH1 0x40 MLOAD DUP1 PUSH2 0x100 ADD PUSH1 0x40 MSTORE DUP1 PUSH1 0x8 SWAP1 PUSH1 0x20 DUP3 MUL DUP1 CALLDATASIZE DUP4 CALLDATACOPY POP SWAP2 SWAP3 SWAP2 POP POP JUMP JUMPDEST DUP3 DUP1 SLOAD DUP3 DUP3 SSTORE SWAP1 PUSH1 0x0 MSTORE PUSH1 0x20 PUSH1 0x0 KECCAK256 SWAP1 DUP2 ADD SWAP3 DUP3 ISZERO PUSH2 0x3442 JUMPI SWAP2 PUSH1 0x20 MUL DUP3 ADD JUMPDEST DUP3 DUP2 GT ISZERO PUSH2 0x3442 JUMPI DUP3 MLOAD DUP3 SSTORE SWAP2 PUSH1 0x20 ADD SWAP2 SWAP1 PUSH1 0x1 ADD SWAP1 PUSH2 0x358F JUMP JUMPDEST JUMPDEST DUP1 DUP3 GT ISZERO PUSH2 0x344E JUMPI PUSH1 0x0 DUP2 SSTORE PUSH1 0x1 ADD PUSH2 0x35AB JUMP JUMPDEST PUSH1 0x0 PUSH1 0x20 DUP3 DUP5 SUB SLT ISZERO PUSH2 0x35D1 JUMPI PUSH1 0x0 DUP1 REVERT JUMPDEST POP CALLDATALOAD SWAP2 SWAP1 POP JUMP JUMPDEST PUSH1 0x0 DUP1 PUSH1 0x0 PUSH1 0x40 DUP5 DUP7 SUB SLT ISZERO PUSH2 0x35ED JUMPI PUSH1 0x0 DUP1 REVERT JUMPDEST DUP4 CALLDATALOAD SWAP3 POP PUSH1 0x20 DUP5 ADD CALLDATALOAD PUSH8 0xFFFFFFFFFFFFFFFF DUP1 DUP3 GT ISZERO PUSH2 0x360C JUMPI PUSH1 0x0 DUP1 REVERT JUMPDEST DUP2 DUP7 ADD SWAP2 POP DUP7 PUSH1 0x1F DUP4 ADD SLT PUSH2 0x3620 JUMPI PUSH1 0x0 DUP1 REVERT JUMPDEST DUP2 CALLDATALOAD DUP2 DUP2 GT ISZERO PUSH2 0x362F JUMPI PUSH1 0x0 DUP1 REVERT JUMPDEST DUP8 PUSH1 0x20 DUP3 PUSH1 0x5 SHL DUP6 ADD ADD GT ISZERO PUSH2 0x3644 JUMPI PUSH1 0x0 DUP1 REVERT JUMPDEST PUSH1 0x20 DUP4 ADD SWAP5 POP DUP1 SWAP4 POP POP POP POP SWAP3 POP SWAP3 POP SWAP3 JUMP JUMPDEST DUP1 CALLDATALOAD PUSH1 0x1 PUSH1 0x1 PUSH1 0xA0 SHL SUB DUP2 AND DUP2 EQ PUSH2 0x366E JUMPI PUSH1 0x0 DUP1 REVERT JUMPDEST SWAP2 SWAP1 POP JUMP JUMPDEST PUSH1 0x0 PUSH1 0x20 DUP3 DUP5 SUB SLT ISZERO PUSH2 0x3685 JUMPI PUSH1 0x0 DUP1 REVERT JUMPDEST PUSH2 0x32DD DUP3 PUSH2 0x3657 JUMP JUMPDEST PUSH1 0x0 PUSH1 0xE0 DUP3 DUP5 SUB SLT ISZERO PUSH2 0x36A0 JUMPI PUSH1 0x0 DUP1 REVERT JUMPDEST DUP3 PUSH1 0xE0 DUP4 ADD GT ISZERO PUSH2 0x36B0 JUMPI PUSH1 0x0 DUP1 REVERT JUMPDEST POP SWAP2 SWAP1 POP JUMP JUMPDEST PUSH1 0x0 DUP2 MLOAD DUP1 DUP5 MSTORE PUSH1 0x20 DUP1 DUP6 ADD SWAP5 POP DUP1 DUP5 ADD PUSH1 0x0 JUMPDEST DUP4 DUP2 LT ISZERO PUSH2 0x36E6 JUMPI DUP2 MLOAD DUP8 MSTORE SWAP6 DUP3 ADD SWAP6 SWAP1 DUP3 ADD SWAP1 PUSH1 0x1 ADD PUSH2 0x36CA JUMP JUMPDEST POP SWAP5 SWAP6 SWAP5 POP POP POP POP POP JUMP JUMPDEST PUSH1 0x20 DUP2 MSTORE PUSH1 0x0 PUSH2 0x32DD PUSH1 0x20 DUP4 ADD DUP5 PUSH2 0x36B6 JUMP JUMPDEST PUSH1 0x0 DUP1 PUSH1 0x20 DUP4 DUP6 SUB SLT ISZERO PUSH2 0x3717 JUMPI PUSH1 0x0 DUP1 REVERT JUMPDEST DUP3 CALLDATALOAD PUSH8 0xFFFFFFFFFFFFFFFF DUP1 DUP3 GT ISZERO PUSH2 0x372F JUMPI PUSH1 0x0 DUP1 REVERT JUMPDEST DUP2 DUP6 ADD SWAP2 POP DUP6 PUSH1 0x1F DUP4 ADD SLT PUSH2 0x3743 JUMPI PUSH1 0x0 DUP1 REVERT JUMPDEST DUP2 CALLDATALOAD DUP2 DUP2 GT ISZERO PUSH2 0x3752 JUMPI PUSH1 0x0 DUP1 REVERT JUMPDEST DUP7 PUSH1 0x20 DUP3 DUP6 ADD ADD GT ISZERO PUSH2 0x3764 JUMPI PUSH1 0x0 DUP1 REVERT JUMPDEST PUSH1 0x20 SWAP3 SWAP1 SWAP3 ADD SWAP7 SWAP2 SWAP6 POP SWAP1 SWAP4 POP POP POP POP JUMP JUMPDEST PUSH4 0x4E487B71 PUSH1 0xE0 SHL PUSH1 0x0 MSTORE PUSH1 0x41 PUSH1 0x4 MSTORE PUSH1 0x24 PUSH1 0x0 REVERT JUMPDEST PUSH1 0x0 DUP1 PUSH1 0x40 DUP4 DUP6 SUB SLT ISZERO PUSH2 0x379F JUMPI PUSH1 0x0 DUP1 REVERT JUMPDEST PUSH2 0x37A8 DUP4 PUSH2 0x3657 JUMP JUMPDEST SWAP2 POP PUSH1 0x20 DUP4 ADD CALLDATALOAD PUSH8 0xFFFFFFFFFFFFFFFF DUP1 DUP3 GT ISZERO PUSH2 0x37C5 JUMPI PUSH1 0x0 DUP1 REVERT JUMPDEST DUP2 DUP6 ADD SWAP2 POP DUP6 PUSH1 0x1F DUP4 ADD SLT PUSH2 0x37D9 JUMPI PUSH1 0x0 DUP1 REVERT JUMPDEST DUP2 CALLDATALOAD DUP2 DUP2 GT ISZERO PUSH2 0x37EB JUMPI PUSH2 0x37EB PUSH2 0x3776 JUMP JUMPDEST PUSH1 0x40 MLOAD PUSH1 0x1F DUP3 ADD PUSH1 0x1F NOT SWAP1 DUP2 AND PUSH1 0x3F ADD AND DUP2 ADD SWAP1 DUP4 DUP3 GT DUP2 DUP4 LT OR ISZERO PUSH2 0x3813 JUMPI PUSH2 0x3813 PUSH2 0x3776 JUMP JUMPDEST DUP2 PUSH1 0x40 MSTORE DUP3 DUP2 MSTORE DUP9 PUSH1 0x20 DUP5 DUP8 ADD ADD GT ISZERO PUSH2 0x382C JUMPI PUSH1 0x0 DUP1 REVERT JUMPDEST DUP3 PUSH1 0x20 DUP7 ADD PUSH1 0x20 DUP4 ADD CALLDATACOPY PUSH1 0x0 PUSH1 0x20 DUP5 DUP4 ADD ADD MSTORE DUP1 SWAP6 POP POP POP POP POP POP SWAP3 POP SWAP3 SWAP1 POP JUMP JUMPDEST DUP1 PUSH1 0x0 JUMPDEST PUSH1 0x7 DUP2 LT ISZERO PUSH2 0xE4F JUMPI DUP2 MLOAD PUSH1 0xFF AND DUP5 MSTORE PUSH1 0x20 SWAP4 DUP5 ADD SWAP4 SWAP1 SWAP2 ADD SWAP1 PUSH1 0x1 ADD PUSH2 0x3852 JUMP JUMPDEST PUSH1 0xE0 DUP2 ADD PUSH2 0x2036 DUP3 DUP5 PUSH2 0x384E JUMP JUMPDEST PUSH1 0x0 JUMPDEST DUP4 DUP2 LT ISZERO PUSH2 0x389D JUMPI DUP2 DUP2 ADD MLOAD DUP4 DUP3 ADD MSTORE PUSH1 0x20 ADD PUSH2 0x3885 JUMP JUMPDEST POP POP PUSH1 0x0 SWAP2 ADD MSTORE JUMP JUMPDEST PUSH1 0x0 DUP2 MLOAD DUP1 DUP5 MSTORE PUSH2 0x38BE DUP2 PUSH1 0x20 DUP7 ADD PUSH1 0x20 DUP7 ADD PUSH2 0x3882 JUMP JUMPDEST PUSH1 0x1F ADD PUSH1 0x1F NOT AND SWAP3 SWAP1 SWAP3 ADD PUSH1 0x20 ADD SWAP3 SWAP2 POP POP JUMP JUMPDEST DUP3 ISZERO ISZERO DUP2 MSTORE PUSH1 0x40 PUSH1 0x20 DUP3 ADD MSTORE PUSH1 0x0 PUSH2 0x33D5 PUSH1 0x40 DUP4 ADD DUP5 PUSH2 0x38A6 JUMP JUMPDEST PUSH1 0x0 DUP1 PUSH1 0x40 DUP4 DUP6 SUB SLT ISZERO PUSH2 0x3900 JUMPI PUSH1 0x0 DUP1 REVERT JUMPDEST POP POP DUP1 CALLDATALOAD SWAP3 PUSH1 0x20 SWAP1 SWAP2 ADD CALLDATALOAD SWAP2 POP JUMP JUMPDEST PUSH1 0x0 PUSH1 0x20 DUP3 DUP5 SUB SLT ISZERO PUSH2 0x3921 JUMPI PUSH1 0x0 DUP1 REVERT JUMPDEST DUP2 CALLDATALOAD PUSH2 0xFFFF DUP2 AND DUP2 EQ PUSH2 0x32DD JUMPI PUSH1 0x0 DUP1 REVERT JUMPDEST PUSH1 0x1 PUSH1 0x1 PUSH1 0xA0 SHL SUB DUP7 AND DUP2 MSTORE PUSH2 0x160 DUP2 ADD PUSH2 0x3951 PUSH1 0x20 DUP4 ADD DUP8 PUSH2 0x384E JUMP JUMPDEST SWAP4 ISZERO ISZERO PUSH2 0x100 DUP3 ADD MSTORE PUSH1 0xFF SWAP3 SWAP1 SWAP3 AND PUSH2 0x120 DUP4 ADD MSTORE PUSH2 0x140 SWAP1 SWAP2 ADD MSTORE SWAP3 SWAP2 POP POP JUMP JUMPDEST PUSH1 0x0 PUSH1 0x20 DUP3 DUP5 SUB SLT ISZERO PUSH2 0x3985 JUMPI PUSH1 0x0 DUP1 REVERT JUMPDEST DUP2 CALLDATALOAD PUSH4 0xFFFFFFFF DUP2 AND DUP2 EQ PUSH2 0x32DD JUMPI PUSH1 0x0 DUP1 REVERT JUMPDEST PUSH1 0x0 PUSH1 0x20 DUP3 DUP5 SUB SLT ISZERO PUSH2 0x39AB JUMPI PUSH1 0x0 DUP1 REVERT JUMPDEST DUP2 CALLDATALOAD DUP1 ISZERO ISZERO DUP2 EQ PUSH2 0x32DD JUMPI PUSH1 0x0 DUP1 REVERT JUMPDEST DUP3 ISZERO ISZERO DUP2 MSTORE PUSH1 0x40 PUSH1 0x20 DUP3 ADD MSTORE PUSH1 0x0 PUSH2 0x33D5 PUSH1 0x40 DUP4 ADD DUP5 PUSH2 0x36B6 JUMP JUMPDEST DUP4 DUP2 MSTORE PUSH1 0x40 PUSH1 0x20 DUP3 ADD MSTORE DUP2 PUSH1 0x40 DUP3 ADD MSTORE PUSH1 0x0 PUSH32 0x7FFFFFFFFFFFFFFFFFFFFFFFFFFFFFFFFFFFFFFFFFFFFFFFFFFFFFFFFFFFFFF DUP4 GT ISZERO PUSH2 0x3A15 JUMPI PUSH1 0x0 DUP1 REVERT JUMPDEST DUP3 PUSH1 0x5 SHL DUP1 DUP6 PUSH1 0x60 DUP6 ADD CALLDATACOPY SWAP2 SWAP1 SWAP2 ADD PUSH1 0x60 ADD SWAP5 SWAP4 POP POP POP POP JUMP JUMPDEST PUSH1 0x0 PUSH2 0x120 DUP3 ADD SWAP1 POP DUP5 DUP3 MSTORE DUP4 PUSH1 0x20 DUP4 ADD MSTORE DUP3 SLOAD PUSH1 0xFF DUP1 DUP3 AND PUSH1 0x40 DUP6 ADD MSTORE DUP1 DUP3 PUSH1 0x8 SHR AND PUSH1 0x60 DUP6 ADD MSTORE DUP1 DUP3 PUSH1 0x10 SHR AND PUSH1 0x80 DUP6 ADD MSTORE PUSH2 0x3A77 PUSH1 0xA0 DUP6 ADD DUP3 DUP5 PUSH1 0x18 SHR AND PUSH1 0xFF AND SWAP1 MSTORE JUMP JUMPDEST PUSH2 0x3A8B PUSH1 0xC0 DUP6 ADD DUP3 DUP5 PUSH1 0x20 SHR AND PUSH1 0xFF AND SWAP1 MSTORE JUMP JUMPDEST PUSH2 0x3A9F PUSH1 0xE0 DUP6 ADD DUP3 DUP5 PUSH1 0x28 SHR AND PUSH1 0xFF AND SWAP1 MSTORE JUMP JUMPDEST PUSH2 0x3AB4 PUSH2 0x100 DUP6 ADD DUP3 DUP5 PUSH1 0x30 SHR AND PUSH1 0xFF AND SWAP1 MSTORE JUMP JUMPDEST POP POP SWAP5 SWAP4 POP POP POP POP JUMP JUMPDEST PUSH4 0x4E487B71 PUSH1 0xE0 SHL PUSH1 0x0 MSTORE PUSH1 0x11 PUSH1 0x4 MSTORE PUSH1 0x24 PUSH1 0x0 REVERT JUMPDEST DUP1 DUP3 ADD DUP1 DUP3 GT ISZERO PUSH2 0x2036 JUMPI PUSH2 0x2036 PUSH2 0x3ABE JUMP JUMPDEST DUP2 DUP2 SUB DUP2 DUP2 GT ISZERO PUSH2 0x2036 JUMPI PUSH2 0x2036 PUSH2 0x3ABE JUMP JUMPDEST DUP1 CALLDATALOAD PUSH1 0xFF DUP2 AND DUP2 EQ PUSH2 0x366E JUMPI PUSH1 0x0 DUP1 REVERT JUMPDEST DUP3 DUP2 MSTORE PUSH2 0x100 DUP2 ADD PUSH1 0x20 DUP1 DUP4 ADD DUP5 PUSH1 0x0 JUMPDEST PUSH1 0x7 DUP2 LT ISZERO PUSH2 0x3B43 JUMPI PUSH1 0xFF PUSH2 0x3B30 DUP4 PUSH2 0x3AFA JUMP JUMPDEST AND DUP4 MSTORE SWAP2 DUP4 ADD SWAP2 SWAP1 DUP4 ADD SWAP1 PUSH1 0x1 ADD PUSH2 0x3B1C JUMP JUMPDEST POP POP POP POP SWAP4 SWAP3 POP POP POP JUMP JUMPDEST PUSH4 0x4E487B71 PUSH1 0xE0 SHL PUSH1 0x0 MSTORE PUSH1 0x32 PUSH1 0x4 MSTORE PUSH1 0x24 PUSH1 0x0 REVERT JUMPDEST PUSH4 0x4E487B71 PUSH1 0xE0 SHL PUSH1 0x0 MSTORE PUSH1 0x12 PUSH1 0x4 MSTORE PUSH1 0x24 PUSH1 0x0 REVERT JUMPDEST PUSH1 0x0 DUP3 PUSH2 0x3B89 JUMPI PUSH2 0x3B89 PUSH2 0x3B64 JUMP JUMPDEST POP MOD SWAP1 JUMP JUMPDEST PUSH1 0x0 PUSH1 0x1 DUP3 ADD PUSH2 0x3BA0 JUMPI PUSH2 0x3BA0 PUSH2 0x3ABE JUMP JUMPDEST POP PUSH1 0x1 ADD SWAP1 JUMP JUMPDEST DUP1 DUP3 MUL DUP2 ISZERO DUP3 DUP3 DIV DUP5 EQ OR PUSH2 0x2036 JUMPI PUSH2 0x2036 PUSH2 0x3ABE JUMP JUMPDEST PUSH1 0x0 DUP3 PUSH2 0x3BCD JUMPI PUSH2 0x3BCD PUSH2 0x3B64 JUMP JUMPDEST POP DIV SWAP1 JUMP JUMPDEST PUSH1 0x0 PUSH1 0xFF DUP3 AND PUSH1 0xFF DUP2 SUB PUSH2 0x3BE8 JUMPI PUSH2 0x3BE8 PUSH2 0x3ABE JUMP JUMPDEST PUSH1 0x1 ADD SWAP3 SWAP2 POP POP JUMP JUMPDEST PUSH2 0x120 DUP2 ADD PUSH2 0x3C00 DUP3 DUP7 PUSH2 0x384E JUMP JUMPDEST PUSH1 0xE0 DUP3 ADD SWAP4 SWAP1 SWAP4 MSTORE PUSH2 0x100 ADD MSTORE SWAP2 SWAP1 POP JUMP JUMPDEST PUSH1 0x0 PUSH1 0x20 DUP3 DUP5 SUB SLT ISZERO PUSH2 0x3C24 JUMPI PUSH1 0x0 DUP1 REVERT JUMPDEST POP MLOAD SWAP2 SWAP1 POP JUMP JUMPDEST PUSH1 0x0 PUSH1 0x20 DUP3 DUP5 SUB SLT ISZERO PUSH2 0x3C3D JUMPI PUSH1 0x0 DUP1 REVERT JUMPDEST PUSH2 0x32DD DUP3 PUSH2 0x3AFA JUMP JUMPDEST PUSH1 0x20 DUP2 MSTORE DUP2 MLOAD PUSH1 0x20 DUP3 ADD MSTORE PUSH1 0x20 DUP3 ADD MLOAD PUSH1 0x40 DUP3 ADD MSTORE PUSH2 0xFFFF PUSH1 0x40 DUP4 ADD MLOAD AND PUSH1 0x60 DUP3 ADD MSTORE PUSH1 0x0 PUSH1 0x60 DUP4 ADD MLOAD PUSH4 0xFFFFFFFF DUP1 DUP3 AND PUSH1 0x80 DUP6 ADD MSTORE DUP1 PUSH1 0x80 DUP7 ADD MLOAD AND PUSH1 0xA0 DUP6 ADD MSTORE POP POP PUSH1 0xA0 DUP4 ADD MLOAD PUSH1 0xC0 DUP1 DUP5 ADD MSTORE PUSH2 0x33D5 PUSH1 0xE0 DUP5 ADD DUP3 PUSH2 0x38A6 JUMP JUMPDEST PUSH1 0x0 DUP3 MLOAD PUSH2 0x3CB5 DUP2 DUP5 PUSH1 0x20 DUP8 ADD PUSH2 0x3882 JUMP JUMPDEST SWAP2 SWAP1 SWAP2 ADD SWAP3 SWAP2 POP POP JUMP JUMPDEST PUSH1 0x20 DUP2 MSTORE PUSH1 0x0 PUSH2 0x32DD PUSH1 0x20 DUP4 ADD DUP5 PUSH2 0x38A6 JUMP INVALID COINBASE PUSH5 0x6472657373 GASPRICE KECCAK256 PUSH13 0x6F772D6C6576656C2064656C65 PUSH8 0x6174652063616C6C KECCAK256 PUSH7 0x61696C6564A264 PUSH10 0x70667358221220148831 MUL 0xBA 0xE8 OR 0xCE SWAP4 0x23 COINBASE 0xE6 GT PUSH23 0xF4FCF766F58A223BBE8B0C35F469066BB95264736F6C63 NUMBER STOP ADDMOD EQ STOP CALLER "},"methodIdentifiers":{"BPS_DENOMINATOR()":"e1a45218","OWNER_FEE_BPS()":"25c5d34a","automationNativePayment()":"b368ba42","buyTicket(uint8[7])":"39e7397b","callbackGasLimit()":"24f74697","checkUpkeep(bytes)":"6e04ff0d","currentRoundId()":"9cbe5efd","entryFee()":"072ea61c","getLastRandomWords()":"3c256b24","getRequestStatus(uint256)":"d8a4676f","getRoundTicketCount(uint256)":"c4289070","getRoundWinningNumbers(uint256)":"64069e71","getTicket(uint256,uint256)":"a426e4c8","getWinningNumbers()":"84350e1d","initialize2()":"472abf68","keyHash()":"61728f39","lastRandomWords(uint256)":"900fc869","lastRequestId()":"fc2a88c3","numWords()":"7ccfd7fc","owner()":"8da5cb5b","ownerFeesAccrued()":"b28f6ef1","pendingRewards(address)":"31d7a262","performUpkeep(bytes)":"4585e33b","proxiableUUID()":"52d1902d","rawFulfillRandomWords(uint256,uint256[])":"1fe543e3","renounceOwnership()":"715018a6","requestConfirmations()":"b0fb162f","requestToRoundId(uint256)":"d88d27d6","requests(uint256)":"81d12c58","rolloverPool()":"3c51c7bb","roundDuration()":"f7cb789a","roundWinningNumbers(uint256,uint256)":"82fbc5c2","rounds(uint256)":"8c65c81f","s_vrfCoordinator()":"9eccacf6","setAutomationNativePayment(bool)":"c88e1561","setCallbackGasLimit(uint32)":"a4eb718c","setKeyHash(bytes32)":"98544710","setNumWords(uint32)":"f30c07d3","setRequestConfirmations(uint16)":"8824f5a7","setRoundDuration(uint256)":"36c92c3f","setSubscriptionId(uint256)":"c1e0d236","setTicketPrice(uint256)":"15981650","startRound()":"55e3f086","subscriptionId()":"09c1ba2e","transferOwnership(address)":"f2fde38b","updateCoordinator(address)":"f9f94e34","upgradeTo(address)":"3659cfe6","upgradeToAndCall(address,bytes)":"4f1ef286","winningNumbers(uint256)":"4e45f095","withdrawOwnerFees()":"0a9ef34c","withdrawReward()":"c885bc58"}},"storageLayout":{"storage":[{"astId":722,"contract":"contracts/Lottery1.sol:Lottery1","label":"_initialized","offset":0,"slot":"0","type":"t_uint8"},{"astId":725,"contract":"contracts/Lottery1.sol:Lottery1","label":"_initializing","offset":1,"slot":"0","type":"t_bool"},{"astId":1401,"contract":"contracts/Lottery1.sol:Lottery1","label":"__gap","offset":0,"slot":"1","type":"t_array(t_uint256)50_storage"},{"astId":228,"contract":"contracts/Lottery1.sol:Lottery1","label":"_owner","offset":0,"slot":"51","type":"t_address"},{"astId":348,"contract":"contracts/Lottery1.sol:Lottery1","label":"__gap","offset":0,"slot":"52","type":"t_array(t_uint256)49_storage"},{"astId":704,"contract":"contracts/Lottery1.sol:Lottery1","label":"__gap","offset":0,"slot":"101","type":"t_array(t_uint256)50_storage"},{"astId":1020,"contract":"contracts/Lottery1.sol:Lottery1","label":"__gap","offset":0,"slot":"151","type":"t_array(t_uint256)50_storage"},{"astId":1537,"contract":"contracts/Lottery1.sol:Lottery1","label":"s_vrfCoordinator","offset":0,"slot":"201","type":"t_contract(IVRFCoordinatorV2Plus)85"},{"astId":1539,"contract":"contracts/Lottery1.sol:Lottery1","label":"subscriptionId","offset":0,"slot":"202","type":"t_uint256"},{"astId":1541,"contract":"contracts/Lottery1.sol:Lottery1","label":"keyHash","offset":0,"slot":"203","type":"t_bytes32"},{"astId":1543,"contract":"contracts/Lottery1.sol:Lottery1","label":"callbackGasLimit","offset":0,"slot":"204","type":"t_uint32"},{"astId":1545,"contract":"contracts/Lottery1.sol:Lottery1","label":"requestConfirmations","offset":4,"slot":"204","type":"t_uint16"},{"astId":1547,"contract":"contracts/Lottery1.sol:Lottery1","label":"numWords","offset":6,"slot":"204","type":"t_uint32"},{"astId":1549,"contract":"contracts/Lottery1.sol:Lottery1","label":"lastRequestId","offset":0,"slot":"205","type":"t_uint256"},{"astId":1552,"contract":"contracts/Lottery1.sol:Lottery1","label":"lastRandomWords","offset":0,"slot":"206","type":"t_array(t_uint256)dyn_storage"},{"astId":1556,"contract":"contracts/Lottery1.sol:Lottery1","label":"winningNumbers","offset":0,"slot":"207","type":"t_array(t_uint8)7_storage"},{"astId":1601,"contract":"contracts/Lottery1.sol:Lottery1","label":"requests","offset":0,"slot":"208","type":"t_mapping(t_uint256,t_struct(RequestStatus)1570_storage)"},{"astId":1605,"contract":"contracts/Lottery1.sol:Lottery1","label":"requestToRoundId","offset":0,"slot":"209","type":"t_mapping(t_uint256,t_uint256)"},{"astId":1610,"contract":"contracts/Lottery1.sol:Lottery1","label":"rounds","offset":0,"slot":"210","type":"t_mapping(t_uint256,t_struct(RoundInfo)1596_storage)"},{"astId":1616,"contract":"contracts/Lottery1.sol:Lottery1","label":"roundTickets","offset":0,"slot":"211","type":"t_mapping(t_uint256,t_array(t_struct(Ticket)1583_storage)dyn_storage)"},{"astId":1622,"contract":"contracts/Lottery1.sol:Lottery1","label":"roundWinningNumbers","offset":0,"slot":"212","type":"t_mapping(t_uint256,t_array(t_uint8)7_storage)"},{"astId":1626,"contract":"contracts/Lottery1.sol:Lottery1","label":"pendingRewards","offset":0,"slot":"213","type":"t_mapping(t_address,t_uint256)"},{"astId":1628,"contract":"contracts/Lottery1.sol:Lottery1","label":"ownerFeesAccrued","offset":0,"slot":"214","type":"t_uint256"},{"astId":1630,"contract":"contracts/Lottery1.sol:Lottery1","label":"rolloverPool","offset":0,"slot":"215","type":"t_uint256"},{"astId":1632,"contract":"contracts/Lottery1.sol:Lottery1","label":"currentRoundId","offset":0,"slot":"216","type":"t_uint256"},{"astId":1634,"contract":"contracts/Lottery1.sol:Lottery1","label":"entryFee","offset":0,"slot":"217","type":"t_uint256"},{"astId":1636,"contract":"contracts/Lottery1.sol:Lottery1","label":"roundDuration","offset":0,"slot":"218","type":"t_uint256"},{"astId":1638,"contract":"contracts/Lottery1.sol:Lottery1","label":"automationNativePayment","offset":0,"slot":"219","type":"t_bool"},{"astId":1735,"contract":"contracts/Lottery1.sol:Lottery1","label":"__gap","offset":0,"slot":"220","type":"t_array(t_uint256)39_storage"}],"types":{"t_address":{"encoding":"inplace","label":"address","numberOfBytes":"20"},"t_array(t_struct(Ticket)1583_storage)dyn_storage":{"base":"t_struct(Ticket)1583_storage","encoding":"dynamic_array","label":"struct Lottery1.Ticket[]","numberOfBytes":"32"},"t_array(t_uint256)39_storage":{"base":"t_uint256","encoding":"inplace","label":"uint256[39]","numberOfBytes":"1248"},"t_array(t_uint256)49_storage":{"base":"t_uint256","encoding":"inplace","label":"uint256[49]","numberOfBytes":"1568"},"t_array(t_uint256)50_storage":{"base":"t_uint256","encoding":"inplace","label":"uint256[50]","numberOfBytes":"1600"},"t_array(t_uint256)dyn_storage":{"base":"t_uint256","encoding":"dynamic_array","label":"uint256[]","numberOfBytes":"32"},"t_array(t_uint8)7_storage":{"base":"t_uint8","encoding":"inplace","label":"uint8[7]","numberOfBytes":"32"},"t_bool":{"encoding":"inplace","label":"bool","numberOfBytes":"1"},"t_bytes32":{"encoding":"inplace","label":"bytes32","numberOfBytes":"32"},"t_contract(IVRFCoordinatorV2Plus)85":{"encoding":"inplace","label":"contract IVRFCoordinatorV2Plus","numberOfBytes":"20"},"t_mapping(t_address,t_uint256)":{"encoding":"mapping","key":"t_address","label":"mapping(address => uint256)","numberOfBytes":"32","value":"t_uint256"},"t_mapping(t_uint256,t_array(t_struct(Ticket)1583_storage)dyn_storage)":{"encoding":"mapping","key":"t_uint256","label":"mapping(uint256 => struct Lottery1.Ticket[])","numberOfBytes":"32","value":"t_array(t_struct(Ticket)1583_storage)dyn_storage"},"t_mapping(t_uint256,t_array(t_uint8)7_storage)":{"encoding":"mapping","key":"t_uint256","label":"mapping(uint256 => uint8[7])","numberOfBytes":"32","value":"t_array(t_uint8)7_storage"},"t_mapping(t_uint256,t_struct(RequestStatus)1570_storage)":{"encoding":"mapping","key":"t_uint256","label":"mapping(uint256 => struct Lottery1.RequestStatus)","numberOfBytes":"32","value":"t_struct(RequestStatus)1570_storage"},"t_mapping(t_uint256,t_struct(RoundInfo)1596_storage)":{"encoding":"mapping","key":"t_uint256","label":"mapping(uint256 => struct Lottery1.RoundInfo)","numberOfBytes":"32","value":"t_struct(RoundInfo)1596_storage"},"t_mapping(t_uint256,t_uint256)":{"encoding":"mapping","key":"t_uint256","label":"mapping(uint256 => uint256)","numberOfBytes":"32","value":"t_uint256"},"t_struct(RequestStatus)1570_storage":{"encoding":"inplace","label":"struct Lottery1.RequestStatus","members":[{"astId":1564,"contract":"contracts/Lottery1.sol:Lottery1","label":"exists","offset":0,"slot":"0","type":"t_bool"},{"astId":1566,"contract":"contracts/Lottery1.sol:Lottery1","label":"fulfilled","offset":1,"slot":"0","type":"t_bool"},{"astId":1569,"contract":"contracts/Lottery1.sol:Lottery1","label":"randomWords","offset":0,"slot":"1","type":"t_array(t_uint256)dyn_storage"}],"numberOfBytes":"64"},"t_struct(RoundInfo)1596_storage":{"encoding":"inplace","label":"struct Lottery1.RoundInfo","members":[{"astId":1585,"contract":"contracts/Lottery1.sol:Lottery1","label":"active","offset":0,"slot":"0","type":"t_bool"},{"astId":1587,"contract":"contracts/Lottery1.sol:Lottery1","label":"drawRequested","offset":1,"slot":"0","type":"t_bool"},{"astId":1589,"contract":"contracts/Lottery1.sol:Lottery1","label":"drawn","offset":2,"slot":"0","type":"t_bool"},{"astId":1591,"contract":"contracts/Lottery1.sol:Lottery1","label":"startTime","offset":0,"slot":"1","type":"t_uint256"},{"astId":1593,"contract":"contracts/Lottery1.sol:Lottery1","label":"endTime","offset":0,"slot":"2","type":"t_uint256"},{"astId":1595,"contract":"contracts/Lottery1.sol:Lottery1","label":"pot","offset":0,"slot":"3","type":"t_uint256"}],"numberOfBytes":"128"},"t_struct(Ticket)1583_storage":{"encoding":"inplace","label":"struct Lottery1.Ticket","members":[{"astId":1572,"contract":"contracts/Lottery1.sol:Lottery1","label":"player","offset":0,"slot":"0","type":"t_address"},{"astId":1576,"contract":"contracts/Lottery1.sol:Lottery1","label":"numbers","offset":0,"slot":"1","type":"t_array(t_uint8)7_storage"},{"astId":1578,"contract":"contracts/Lottery1.sol:Lottery1","label":"claimed","offset":0,"slot":"2","type":"t_bool"},{"astId":1580,"contract":"contracts/Lottery1.sol:Lottery1","label":"matchedCount","offset":1,"slot":"2","type":"t_uint8"},{"astId":1582,"contract":"contracts/Lottery1.sol:Lottery1","label":"reward","offset":0,"slot":"3","type":"t_uint256"}],"numberOfBytes":"128"},"t_uint16":{"encoding":"inplace","label":"uint16","numberOfBytes":"2"},"t_uint256":{"encoding":"inplace","label":"uint256","numberOfBytes":"32"},"t_uint32":{"encoding":"inplace","label":"uint32","numberOfBytes":"4"},"t_uint8":{"encoding":"inplace","label":"uint8","numberOfBytes":"1"}}}}}}