{"@chainlink/contracts/src/v0.8/vrf/dev/libraries/VRFV2PlusClient.sol":{"VRFV2PlusClient":{"abi":[{"inputs":[],"name":"EXTRA_ARGS_V1_TAG","outputs":[{"internalType":"bytes4","name":"","type":"bytes4"}],"stateMutability":"view","type":"function"}],"evm":{"bytecode":{"linkReferences":{},"object":"60c9610038600b82828239805160001a607314602b57634e487b7160e01b600052600060045260246000fd5b30600052607381538281f3fe730000000000000000000000000000000000000000301460806040526004361060335760003560e01c8063f7514ab4146038575b600080fd5b605e7f92fd13387c7fe7befbc38d303d6468778fb9731bc4583f17d92989c6fcfdeaaa81565b6040517fffffffff00000000000000000000000000000000000000000000000000000000909116815260200160405180910390f3fea2646970667358221220e4f60523c544ba0d943d3b848c2e972f27924d3716ab736ac723c5579721bf5464736f6c63430008140033","opcodes":"PUSH1 0xC9 PUSH2 0x38 PUSH1 0xB DUP3 DUP3 DUP3 CODECOPY DUP1 MLOAD PUSH1 0x0 BYTE PUSH1 0x73 EQ PUSH1 0x2B JUMPI PUSH4 0x4E487B71 PUSH1 0xE0 SHL PUSH1 0x0 MSTORE PUSH1 0x0 PUSH1 0x4 MSTORE PUSH1 0x24 PUSH1 0x0 REVERT JUMPDEST ADDRESS PUSH1 0x0 MSTORE PUSH1 0x73 DUP2 MSTORE8 DUP3 DUP2 RETURN INVALID PUSH20 0x0 ADDRESS EQ PUSH1 0x80 PUSH1 0x40 MSTORE PUSH1 0x4 CALLDATASIZE LT PUSH1 0x33 JUMPI PUSH1 0x0 CALLDATALOAD PUSH1 0xE0 SHR DUP1 PUSH4 0xF7514AB4 EQ PUSH1 0x38 JUMPI JUMPDEST PUSH1 0x0 DUP1 REVERT JUMPDEST PUSH1 0x5E PUSH32 0x92FD13387C7FE7BEFBC38D303D6468778FB9731BC4583F17D92989C6FCFDEAAA DUP2 JUMP JUMPDEST PUSH1 0x40 MLOAD PUSH32 0xFFFFFFFF00000000000000000000000000000000000000000000000000000000 SWAP1 SWAP2 AND DUP2 MSTORE PUSH1 0x20 ADD PUSH1 0x40 MLOAD DUP1 SWAP2 SUB SWAP1 RETURN INVALID LOG2 PUSH5 0x6970667358 0x22 SLT KECCAK256 0xE4 0xF6 SDIV 0x23 0xC5 PREVRANDAO 0xBA 0xD SWAP5 RETURNDATASIZE EXTCODESIZE DUP5 DUP13 0x2E SWAP8 0x2F 0x27 SWAP3 0x4D CALLDATACOPY AND 0xAB PUSH20 0x6AC723C5579721BF5464736F6C63430008140033 "},"methodIdentifiers":{"EXTRA_ARGS_V1_TAG()":"f7514ab4"}},"storageLayout":{"storage":[],"types":null}}}}