{"contracts/Lottery2.sol":{"Lottery2":{"abi":[{"inputs":[],"stateMutability":"nonpayable","type":"constructor"},{"anonymous":false,"inputs":[{"indexed":false,"internalType":"address","name":"previousAdmin","type":"address"},{"indexed":false,"internalType":"address","name":"newAdmin","type":"address"}],"name":"AdminChanged","type":"event"},{"anonymous":false,"inputs":[{"indexed":true,"internalType":"address","name":"beacon","type":"address"}],"name":"BeaconUpgraded","type":"event"},{"anonymous":false,"inputs":[{"indexed":false,"internalType":"uint8","name":"version","type":"uint8"}],"name":"Initialized","type":"event"},{"anonymous":false,"inputs":[{"indexed":true,"internalType":"address","name":"owner","type":"address"},{"indexed":false,"internalType":"uint256","name":"amount","type":"uint256"}],"name":"OwnerFeesWithdrawn","type":"event"},{"anonymous":false,"inputs":[{"indexed":true,"internalType":"address","name":"previousOwner","type":"address"},{"indexed":true,"internalType":"address","name":"newOwner","type":"address"}],"name":"OwnershipTransferred","type":"event"},{"anonymous":false,"inputs":[{"indexed":false,"internalType":"uint256","name":"requestId","type":"uint256"},{"indexed":false,"internalType":"uint256[]","name":"randomWords","type":"uint256[]"}],"name":"RequestFulfilled","type":"event"},{"anonymous":false,"inputs":[{"indexed":false,"internalType":"uint256","name":"requestId","type":"uint256"},{"indexed":false,"internalType":"uint32","name":"numWords","type":"uint32"}],"name":"RequestSent","type":"event"},{"anonymous":false,"inputs":[{"indexed":true,"internalType":"uint256","name":"roundId","type":"uint256"},{"indexed":true,"internalType":"address","name":"player","type":"address"},{"indexed":false,"internalType":"uint256","name":"ticketIndex","type":"uint256"},{"indexed":false,"internalType":"uint8","name":"matches","type":"uint8"},{"indexed":false,"internalType":"uint256","name":"reward","type":"uint256"}],"name":"RewardAssigned","type":"event"},{"anonymous":false,"inputs":[{"indexed":true,"internalType":"address","name":"player","type":"address"},{"indexed":false,"internalType":"uint256","name":"amount","type":"uint256"}],"name":"RewardWithdrawn","type":"event"},{"anonymous":false,"inputs":[{"indexed":true,"internalType":"uint256","name":"roundId","type":"uint256"},{"indexed":false,"internalType":"uint256","name":"requestId","type":"uint256"}],"name":"RoundClosed","type":"event"},{"anonymous":false,"inputs":[{"indexed":true,"internalType":"uint256","name":"roundId","type":"uint256"},{"indexed":false,"internalType":"uint8[7]","name":"winningNumbers","type":"uint8[7]"},{"indexed":false,"internalType":"uint256","name":"ownerFee","type":"uint256"},{"indexed":false,"internalType":"uint256","name":"rolloverAdded","type":"uint256"}],"name":"RoundSettled","type":"event"},{"anonymous":false,"inputs":[{"indexed":true,"internalType":"uint256","name":"roundId","type":"uint256"},{"indexed":false,"internalType":"uint256","name":"rolloverAmount","type":"uint256"}],"name":"RoundSkipped","type":"event"},{"anonymous":false,"inputs":[{"indexed":true,"internalType":"uint256","name":"roundId","type":"uint256"},{"indexed":false,"internalType":"uint256","name":"startTime","type":"uint256"},{"indexed":false,"internalType":"uint256","name":"endTime","type":"uint256"},{"indexed":false,"internalType":"uint256","name":"seededPot","type":"uint256"}],"name":"RoundStarted","type":"event"},{"anonymous":false,"inputs":[{"indexed":true,"internalType":"uint256","name":"roundId","type":"uint256"},{"indexed":true,"internalType":"address","name":"player","type":"address"},{"indexed":false,"internalType":"uint256","name":"ticketIndex","type":"uint256"},{"indexed":false,"internalType":"uint8[7]","name":"numbers","type":"uint8[7]"}],"name":"TicketBought","type":"event"},{"anonymous":false,"inputs":[{"indexed":true,"internalType":"address","name":"implementation","type":"address"}],"name":"Upgraded","type":"event"},{"anonymous":false,"inputs":[{"indexed":false,"internalType":"uint256","name":"requestId","type":"uint256"},{"indexed":false,"internalType":"uint256","name":"roundId","type":"uint256"},{"indexed":false,"internalType":"uint8[7]","name":"winningNumbers","type":"uint8[7]"}],"name":"WinningNumbersGenerated","type":"event"},{"inputs":[],"name":"BPS_DENOMINATOR","outputs":[{"internalType":"uint256","name":"","type":"uint256"}],"stateMutability":"view","type":"function"},{"inputs":[],"name":"OWNER_FEE_BPS","outputs":[{"internalType":"uint256","name":"","type":"uint256"}],"stateMutability":"view","type":"function"},{"inputs":[],"name":"automationNativePayment","outputs":[{"internalType":"bool","name":"","type":"bool"}],"stateMutability":"view","type":"function"},{"inputs":[{"internalType":"uint8[7]","name":"numbers","type":"uint8[7]"}],"name":"buyTicket","outputs":[],"stateMutability":"payable","type":"function"},{"inputs":[],"name":"callbackGasLimit","outputs":[{"internalType":"uint32","name":"","type":"uint32"}],"stateMutability":"view","type":"function"},{"inputs":[{"internalType":"bytes","name":"","type":"bytes"}],"name":"checkUpkeep","outputs":[{"internalType":"bool","name":"upkeepNeeded","type":"bool"},{"internalType":"bytes","name":"performData","type":"bytes"}],"stateMutability":"view","type":"function"},{"inputs":[],"name":"currentRoundId","outputs":[{"internalType":"uint256","name":"","type":"uint256"}],"stateMutability":"view","type":"function"},{"inputs":[],"name":"entryFee","outputs":[{"internalType":"uint256","name":"","type":"uint256"}],"stateMutability":"view","type":"function"},{"inputs":[],"name":"getLastRandomWords","outputs":[{"internalType":"uint256[]","name":"","type":"uint256[]"}],"stateMutability":"view","type":"function"},{"inputs":[{"internalType":"uint256","name":"requestId","type":"uint256"}],"name":"getRequestStatus","outputs":[{"internalType":"bool","name":"fulfilled","type":"bool"},{"internalType":"uint256[]","name":"randomWords","type":"uint256[]"}],"stateMutability":"view","type":"function"},{"inputs":[{"internalType":"uint256","name":"roundId","type":"uint256"}],"name":"getRoundTicketCount","outputs":[{"internalType":"uint256","name":"","type":"uint256"}],"stateMutability":"view","type":"function"},{"inputs":[{"internalType":"uint256","name":"roundId","type":"uint256"}],"name":"getRoundWinningNumbers","outputs":[{"internalType":"uint8[7]","name":"","type":"uint8[7]"}],"stateMutability":"view","type":"function"},{"inputs":[{"internalType":"uint256","name":"roundId","type":"uint256"},{"internalType":"uint256","name":"ticketIndex","type":"uint256"}],"name":"getTicket","outputs":[{"internalType":"address","name":"player","type":"address"},{"internalType":"uint8[7]","name":"numbers","type":"uint8[7]"},{"internalType":"bool","name":"claimed","type":"bool"},{"internalType":"uint8","name":"matchedCount","type":"uint8"},{"internalType":"uint256","name":"reward","type":"uint256"}],"stateMutability":"view","type":"function"},{"inputs":[],"name":"getWinningNumbers","outputs":[{"internalType":"uint8[7]","name":"","type":"uint8[7]"}],"stateMutability":"view","type":"function"},{"inputs":[{"internalType":"uint256","name":"","type":"uint256"},{"internalType":"address","name":"","type":"address"}],"name":"hasEntered","outputs":[{"internalType":"bool","name":"","type":"bool"}],"stateMutability":"view","type":"function"},{"inputs":[],"name":"initialize3","outputs":[],"stateMutability":"nonpayable","type":"function"},{"inputs":[],"name":"keyHash","outputs":[{"internalType":"bytes32","name":"","type":"bytes32"}],"stateMutability":"view","type":"function"},{"inputs":[{"internalType":"uint256","name":"","type":"uint256"}],"name":"lastRandomWords","outputs":[{"internalType":"uint256","name":"","type":"uint256"}],"stateMutability":"view","type":"function"},{"inputs":[],"name":"lastRequestId","outputs":[{"internalType":"uint256","name":"","type":"uint256"}],"stateMutability":"view","type":"function"},{"inputs":[],"name":"numWords","outputs":[{"internalType":"uint32","name":"","type":"uint32"}],"stateMutability":"view","type":"function"},{"inputs":[],"name":"owner","outputs":[{"internalType":"address","name":"","type":"address"}],"stateMutability":"view","type":"function"},{"inputs":[],"name":"ownerFeesAccrued","outputs":[{"internalType":"uint256","name":"","type":"uint256"}],"stateMutability":"view","type":"function"},{"inputs":[{"internalType":"address","name":"","type":"address"}],"name":"pendingRewards","outputs":[{"internalType":"uint256","name":"","type":"uint256"}],"stateMutability":"view","type":"function"},{"inputs":[{"internalType":"bytes","name":"performData","type":"bytes"}],"name":"performUpkeep","outputs":[],"stateMutability":"nonpayable","type":"function"},{"inputs":[],"name":"proxiableUUID","outputs":[{"internalType":"bytes32","name":"","type":"bytes32"}],"stateMutability":"view","type":"function"},{"inputs":[{"internalType":"uint256","name":"requestId","type":"uint256"},{"internalType":"uint256[]","name":"randomWords","type":"uint256[]"}],"name":"rawFulfillRandomWords","outputs":[],"stateMutability":"nonpayable","type":"function"},{"inputs":[],"name":"renounceOwnership","outputs":[],"stateMutability":"nonpayable","type":"function"},{"inputs":[],"name":"requestConfirmations","outputs":[{"internalType":"uint16","name":"","type":"uint16"}],"stateMutability":"view","type":"function"},{"inputs":[{"internalType":"uint256","name":"","type":"uint256"}],"name":"requestToRoundId","outputs":[{"internalType":"uint256","name":"","type":"uint256"}],"stateMutability":"view","type":"function"},{"inputs":[{"internalType":"uint256","name":"","type":"uint256"}],"name":"requests","outputs":[{"internalType":"bool","name":"exists","type":"bool"},{"internalType":"bool","name":"fulfilled","type":"bool"}],"stateMutability":"view","type":"function"},{"inputs":[],"name":"rolloverPool","outputs":[{"internalType":"uint256","name":"","type":"uint256"}],"stateMutability":"view","type":"function"},{"inputs":[],"name":"roundDuration","outputs":[{"internalType":"uint256","name":"","type":"uint256"}],"stateMutability":"view","type":"function"},{"inputs":[{"internalType":"uint256","name":"","type":"uint256"},{"internalType":"uint256","name":"","type":"uint256"}],"name":"roundWinningNumbers","outputs":[{"internalType":"uint8","name":"","type":"uint8"}],"stateMutability":"view","type":"function"},{"inputs":[{"internalType":"uint256","name":"","type":"uint256"}],"name":"rounds","outputs":[{"internalType":"bool","name":"active","type":"bool"},{"internalType":"bool","name":"drawRequested","type":"bool"},{"internalType":"bool","name":"drawn","type":"bool"},{"internalType":"uint256","name":"startTime","type":"uint256"},{"internalType":"uint256","name":"endTime","type":"uint256"},{"internalType":"uint256","name":"pot","type":"uint256"}],"stateMutability":"view","type":"function"},{"inputs":[],"name":"s_vrfCoordinator","outputs":[{"internalType":"contract IVRFCoordinatorV2Plus","name":"","type":"address"}],"stateMutability":"view","type":"function"},{"inputs":[{"internalType":"bool","name":"enabled","type":"bool"}],"name":"setAutomationNativePayment","outputs":[],"stateMutability":"nonpayable","type":"function"},{"inputs":[{"internalType":"uint32","name":"_callbackGasLimit","type":"uint32"}],"name":"setCallbackGasLimit","outputs":[],"stateMutability":"nonpayable","type":"function"},{"inputs":[{"internalType":"bytes32","name":"_keyHash","type":"bytes32"}],"name":"setKeyHash","outputs":[],"stateMutability":"nonpayable","type":"function"},{"inputs":[{"internalType":"uint32","name":"_numWords","type":"uint32"}],"name":"setNumWords","outputs":[],"stateMutability":"nonpayable","type":"function"},{"inputs":[{"internalType":"uint16","name":"_requestConfirmations","type":"uint16"}],"name":"setRequestConfirmations","outputs":[],"stateMutability":"nonpayable","type":"function"},{"inputs":[{"internalType":"uint256","name":"time","type":"uint256"}],"name":"setRoundDuration","outputs":[],"stateMutability":"nonpayable","type":"function"},{"inputs":[{"internalType":"uint256","name":"_subscriptionId","type":"uint256"}],"name":"setSubscriptionId","outputs":[],"stateMutability":"nonpayable","type":"function"},{"inputs":[{"internalType":"uint256","name":"price","type":"uint256"}],"name":"setTicketPrice","outputs":[],"stateMutability":"nonpayable","type":"function"},{"inputs":[],"name":"startRound","outputs":[],"stateMutability":"nonpayable","type":"function"},{"inputs":[],"name":"subscriptionId","outputs":[{"internalType":"uint256","name":"","type":"uint256"}],"stateMutability":"view","type":"function"},{"inputs":[{"internalType":"address","name":"newOwner","type":"address"}],"name":"transferOwnership","outputs":[],"stateMutability":"nonpayable","type":"function"},{"inputs":[{"internalType":"address","name":"newCoordinator","type":"address"}],"name":"updateCoordinator","outputs":[],"stateMutability":"nonpayable","type":"function"},{"inputs":[{"internalType":"address","name":"newImplementation","type":"address"}],"name":"upgradeTo","outputs":[],"stateMutability":"nonpayable","type":"function"},{"inputs":[{"internalType":"address","name":"newImplementation","type":"address"},{"internalType":"bytes","name":"data","type":"bytes"}],"name":"upgradeToAndCall","outputs":[],"stateMutability":"payable","type":"function"},{"inputs":[{"internalType":"uint256","name":"","type":"uint256"}],"name":"winningNumbers","outputs":[{"internalType":"uint8","name":"","type":"uint8"}],"stateMutability":"view","type":"function"},{"inputs":[],"name":"withdrawOwnerFees","outputs":[],"stateMutability":"nonpayable","type":"function"},{"inputs":[],"name":"withdrawReward","outputs":[],"stateMutability":"nonpayable","type":"function"},{"stateMutability":"payable","type":"receive"}],"evm":{"bytecode":{"linkReferences":{},"object":"60a0604052306080523480156200001557600080fd5b506200002062000026565b620000e7565b600054610100900460ff1615620000935760405162461bcd60e51b815260206004820152602760248201527f496e697469616c697a61626c653a20636f6e747261637420697320696e697469604482015266616c697a696e6760c81b606482015260840160405180910390fd5b60005460ff90811614620000e5576000805460ff191660ff9081179091556040519081527f7f26b83ff96e1f2b6a682f133852f6798a09c465da95921460cefb38474024989060200160405180910390a15b565b608051613e1b6200011f60003960008181610ea501528181610f2a015281816115e80152818161166d01526117570152613e1b6000f3fe6080604052600436106103435760003560e01c806384350e1d116101b0578063c1e0d236116100ec578063e1a4521811610095578063f30c07d31161006f578063f30c07d314610a24578063f7cb789a14610a44578063f9f94e3414610a5a578063fc2a88c314610a7a57600080fd5b8063e1a45218146109d9578063ec918b65146109ef578063f2fde38b14610a0457600080fd5b8063c88e1561116100c6578063c88e15611461095e578063d88d27d61461097e578063d8a4676f146109ab57600080fd5b8063c1e0d236146108fc578063c42890701461091c578063c885bc581461094957600080fd5b80639cbe5efd11610159578063a4eb718c11610133578063a4eb718c14610876578063b0fb162f14610896578063b28f6ef1146108cc578063b368ba42146108e257600080fd5b80639cbe5efd1461080f5780639eccacf614610825578063a426e4c81461084557600080fd5b80638da5cb5b1161018a5780638da5cb5b1461079d578063900fc869146107cf57806398544710146107ef57600080fd5b806384350e1d146106dc5780638824f5a7146106f15780638c65c81f1461071157600080fd5b80633c51c7bb1161027f57806361728f3911610228578063715018a611610202578063715018a6146106305780637ccfd7fc1461064557806381d12c581461066c57806382fbc5c2146106bc57600080fd5b806361728f39146105bf57806364069e71146105d55780636e04ff0d1461060257600080fd5b80634f1ef286116102595780634f1ef2861461058257806352d1902d1461059557806355e3f086146105aa57600080fd5b80633c51c7bb1461051a5780634585e33b146105305780634e45f0951461055057600080fd5b806324f74697116102ec5780633659cfe6116102c65780633659cfe6146104a557806336c92c3f146104c557806339e7397b146104e55780633c256b24146104f857600080fd5b806324f746971461043057806325c5d34a1461046257806331d7a2621461047857600080fd5b80630a9ef34c1161031d5780630a9ef34c146103d957806315981650146103f05780631fe543e31461041057600080fd5b8063072ea61c1461034f578063073c74f31461037857806309c1ba2e146103c357600080fd5b3661034a57005b600080fd5b34801561035b57600080fd5b5061036560da5481565b6040519081526020015b60405180910390f35b34801561038457600080fd5b506103b361039336600461369b565b60d560209081526000928352604080842090915290825290205460ff1681565b604051901515815260200161036f565b3480156103cf57600080fd5b5061036560ca5481565b3480156103e557600080fd5b506103ee610a90565b005b3480156103fc57600080fd5b506103ee61040b3660046136c7565b610be8565b34801561041c57600080fd5b506103ee61042b3660046136e0565b610c45565b34801561043c57600080fd5b5060cc5461044d9063ffffffff1681565b60405163ffffffff909116815260200161036f565b34801561046e57600080fd5b506103656103e881565b34801561048457600080fd5b5061036561049336600461375f565b60d66020526000908152604090205481565b3480156104b157600080fd5b506103ee6104c036600461375f565b610e9b565b3480156104d157600080fd5b506103ee6104e03660046136c7565b611016565b6103ee6104f336600461377a565b611073565b34801561050457600080fd5b5061050d6113cf565b60405161036f91906137dd565b34801561052657600080fd5b5061036560d85481565b34801561053c57600080fd5b506103ee61054b3660046137f0565b611427565b34801561055c57600080fd5b5061057061056b3660046136c7565b6115b4565b60405160ff909116815260200161036f565b6103ee610590366004613878565b6115de565b3480156105a157600080fd5b5061036561174a565b3480156105b657600080fd5b506103ee61180f565b3480156105cb57600080fd5b5061036560cb5481565b3480156105e157600080fd5b506105f56105f03660046136c7565b611821565b60405161036f9190613960565b34801561060e57600080fd5b5061062261061d3660046137f0565b611885565b60405161036f9291906139be565b34801561063c57600080fd5b506103ee6118f2565b34801561065157600080fd5b5060cc5461044d906601000000000000900463ffffffff1681565b34801561067857600080fd5b506106a56106873660046136c7565b60d06020526000908152604090205460ff8082169161010090041682565b60408051921515835290151560208301520161036f565b3480156106c857600080fd5b506105706106d73660046139d9565b611904565b3480156106e857600080fd5b506105f561193d565b3480156106fd57600080fd5b506103ee61070c3660046139fb565b611995565b34801561071d57600080fd5b5061076861072c3660046136c7565b60d260205260009081526040902080546001820154600283015460039093015460ff808416946101008504821694620100009004909116929186565b6040805196151587529415156020870152921515938501939093526060840152608083019190915260a082015260c00161036f565b3480156107a957600080fd5b506033546001600160a01b03165b6040516001600160a01b03909116815260200161036f565b3480156107db57600080fd5b506103656107ea3660046136c7565b6119c1565b3480156107fb57600080fd5b506103ee61080a3660046136c7565b6119e2565b34801561081b57600080fd5b5061036560d95481565b34801561083157600080fd5b5060c9546107b7906001600160a01b031681565b34801561085157600080fd5b506108656108603660046139d9565b6119ef565b60405161036f959493929190613a1f565b34801561088257600080fd5b506103ee610891366004613a5f565b611ac1565b3480156108a257600080fd5b5060cc546108b990640100000000900461ffff1681565b60405161ffff909116815260200161036f565b3480156108d857600080fd5b5061036560d75481565b3480156108ee57600080fd5b5060dc546103b39060ff1681565b34801561090857600080fd5b506103ee6109173660046136c7565b611ae5565b34801561092857600080fd5b506103656109373660046136c7565b600090815260d3602052604090205490565b34801561095557600080fd5b506103ee611af2565b34801561096a57600080fd5b506103ee610979366004613a85565b611c28565b34801561098a57600080fd5b506103656109993660046136c7565b60d16020526000908152604090205481565b3480156109b757600080fd5b506109cb6109c63660046136c7565b611c43565b60405161036f929190613aa7565b3480156109e557600080fd5b5061036561271081565b3480156109fb57600080fd5b506103ee611d1d565b348015610a1057600080fd5b506103ee610a1f36600461375f565b611e11565b348015610a3057600080fd5b506103ee610a3f366004613a5f565b611e9e565b348015610a5057600080fd5b5061036560db5481565b348015610a6657600080fd5b506103ee610a7536600461375f565b611f28565b348015610a8657600080fd5b5061036560cd5481565b610a98611f5f565b60d75480610aed5760405162461bcd60e51b815260206004820152600d60248201527f4e6f206f776e657220666565730000000000000000000000000000000000000060448201526064015b60405180910390fd5b600060d78190556033546040516001600160a01b039091169083908381818185875af1925050503d8060008114610b40576040519150601f19603f3d011682016040523d82523d6000602084013e610b45565b606091505b5050905080610b965760405162461bcd60e51b815260206004820152601960248201527f4f776e657220666565207472616e73666572206661696c6564000000000000006044820152606401610ae4565b6033546001600160a01b03166001600160a01b03167f8c86225979e924f39334c49a16a32e53ca5ffe7a271a6793b57476cd62749d0583604051610bdc91815260200190565b60405180910390a25050565b610bf0611f5f565b60008111610c405760405162461bcd60e51b815260206004820152601160248201527f5072696365206d757374206265203e20300000000000000000000000000000006044820152606401610ae4565b60da55565b60c9546001600160a01b03163314610c9f5760405162461bcd60e51b815260206004820152601c60248201527f4f6e6c7920636f6f7264696e61746f722063616e2066756c66696c6c000000006044820152606401610ae4565b600083815260d0602052604090205460ff16610cfd5760405162461bcd60e51b815260206004820152601160248201527f52657175657374206e6f7420666f756e640000000000000000000000000000006044820152606401610ae4565b600083815260d060205260409020805461ff001916610100178155610d269060010183836134c7565b50610d3360ce83836134c7565b50600083815260d1602052604081205490819003610d935760405162461bcd60e51b815260206004820152601060248201527f526f756e64206e6f74206c696e6b6564000000000000000000000000000000006044820152606401610ae4565b610d9d8383611fb9565b610dab9060cf906007613512565b50600081815260d460205260409020610dc79060cf60076135a0565b507ffe2e2d779dba245964d4e3ef9b994be63856fd568bf7d3ca9e224755cb1bd54d848484604051610dfb93929190613ac2565b60405180910390a17f65a3cadf20a29471ee7bc9e1bf93b5f513a619fcfffc0bcab66d7cbae1045cb1848260cf604051610e3793929190613b1b565b60405180910390a16040805160e0810191829052610e959183919060cf90600790826000855b825461010083900a900460ff16815260206001928301818104948501949093039092029101808411610e5d57905050505050506120fc565b50505050565b6001600160a01b037f0000000000000000000000000000000000000000000000000000000000000000163003610f285760405162461bcd60e51b815260206004820152602c60248201527f46756e6374696f6e206d7573742062652063616c6c6564207468726f7567682060448201526b19195b1959d85d1958d85b1b60a21b6064820152608401610ae4565b7f00000000000000000000000000000000000000000000000000000000000000006001600160a01b0316610f837f360894a13ba1a3210667c828492db98dca3e2076cc3735a920a3ca505d382bbc546001600160a01b031690565b6001600160a01b031614610fee5760405162461bcd60e51b815260206004820152602c60248201527f46756e6374696f6e206d7573742062652063616c6c6564207468726f7567682060448201526b6163746976652070726f787960a01b6064820152608401610ae4565b610ff7816126de565b60408051600080825260208201909252611013918391906126e6565b50565b61101e611f5f565b6000811161106e5760405162461bcd60e51b815260206004820152601460248201527f4475726174696f6e206d757374206265203e20300000000000000000000000006044820152606401610ae4565b60db55565b60da5434146110c45760405162461bcd60e51b815260206004820152601360248201527f496e636f727265637420656e74727920666565000000000000000000000000006044820152606401610ae4565b6110cd8161288b565b60d954600090815260d260205260409020805460ff166111215760405162461bcd60e51b815260206004820152600f60248201526e139bc81858dd1a5d99481c9bdd5b99608a1b6044820152606401610ae4565b8054610100900460ff16156111785760405162461bcd60e51b815260206004820152601660248201527f4472617720616c726561647920726571756573746564000000000000000000006044820152606401610ae4565b806002015442106111cb5760405162461bcd60e51b815260206004820152600d60248201527f526f756e642065787069726564000000000000000000000000000000000000006044820152606401610ae4565b60d954600090815260d56020908152604080832033845290915290205460ff16156112385760405162461bcd60e51b815260206004820152601a60248201527f416c726561647920656e7465726564207468697320726f756e640000000000006044820152606401610ae4565b60d954600090815260d5602090815260408083203384529091528120805460ff19166001179055600382018054349290611273908490613bc0565b909155505060d954600090815260d36020908152604091829020825160a081018452338152835160e0818101909552919390928301919086906007908390839080828437600092018290525092845250506020808301829052604083018290526060909201819052835460018082018655948252908290208351600490920201805473ffffffffffffffffffffffffffffffffffffffff19166001600160a01b039092169190911781559082015191929091611333918301906007613512565b50604082810151600283018054606086015160ff166101000261ff00199315159390931661ffff199091161791909117905560809092015160039091015560d954600081815260d360205291909120543391907f72c7c6a525d2c132932b4fc43ae4bb642b552692d21f5bedeb662e34b564e8e8906113b490600190613bd3565b856040516113c3929190613bf7565b60405180910390a35050565b606060ce80548060200260200160405190810160405280929190818152602001828054801561141d57602002820191906000526020600020905b815481526020019060010190808311611409575b5050505050905090565b6000611435828401846136c7565b60d954600081815260d26020526040902091925082146114975760405162461bcd60e51b815260206004820152600c60248201527f5374616c652075706b65657000000000000000000000000000000000000000006044820152606401610ae4565b805460ff166114da5760405162461bcd60e51b815260206004820152600f60248201526e139bc81858dd1a5d99481c9bdd5b99608a1b6044820152606401610ae4565b8054610100900460ff16156115315760405162461bcd60e51b815260206004820152601660248201527f4472617720616c726561647920726571756573746564000000000000000000006044820152606401610ae4565b80600201544210156115855760405162461bcd60e51b815260206004820152601260248201527f526f756e64207374696c6c2061637469766500000000000000000000000000006044820152606401610ae4565b60d954600090815260d3602052604081205490036115a557610e95612a2d565b6115ad612ba0565b5050505050565b60cf81600781106115c457600080fd5b60209182820401919006915054906101000a900460ff1681565b6001600160a01b037f000000000000000000000000000000000000000000000000000000000000000016300361166b5760405162461bcd60e51b815260206004820152602c60248201527f46756e6374696f6e206d7573742062652063616c6c6564207468726f7567682060448201526b19195b1959d85d1958d85b1b60a21b6064820152608401610ae4565b7f00000000000000000000000000000000000000000000000000000000000000006001600160a01b03166116c67f360894a13ba1a3210667c828492db98dca3e2076cc3735a920a3ca505d382bbc546001600160a01b031690565b6001600160a01b0316146117315760405162461bcd60e51b815260206004820152602c60248201527f46756e6374696f6e206d7573742062652063616c6c6564207468726f7567682060448201526b6163746976652070726f787960a01b6064820152608401610ae4565b61173a826126de565b611746828260016126e6565b5050565b6000306001600160a01b037f000000000000000000000000000000000000000000000000000000000000000016146117ea5760405162461bcd60e51b815260206004820152603860248201527f555550535570677261646561626c653a206d757374206e6f742062652063616c60448201527f6c6564207468726f7567682064656c656761746563616c6c00000000000000006064820152608401610ae4565b507f360894a13ba1a3210667c828492db98dca3e2076cc3735a920a3ca505d382bbc90565b611817611f5f565b61181f612dbb565b565b6118296135d3565b600082815260d46020526040808220815160e08101928390529290916007918390855b825461010083900a900460ff1681526020600192830181810494850194909303909202910180841161184c575094979650505050505050565b60d954600090815260d26020526040812080546060919060ff1680156118b257508054610100900460ff16155b80156118c2575080600201544210155b925060d9546040516020016118d991815260200190565b6040516020818303038152906040529150509250929050565b6118fa611f5f565b61181f6000612f4f565b60d4602052816000526040600020816007811061192057600080fd5b602081049091015460ff601f9092166101000a9004169150829050565b6119456135d3565b6040805160e08101918290529060cf90600790826000855b825461010083900a900460ff1681526020600192830181810494850194909303909202910180841161195d5790505050505050905090565b61199d611f5f565b60cc805461ffff9092166401000000000265ffff0000000019909216919091179055565b60ce81815481106119d157600080fd5b600091825260209091200154905081565b6119ea611f5f565b60cb55565b60006119f96135d3565b60008060008060d360008981526020019081526020016000208781548110611a2357611a23613c3a565b6000918252602082206004909102018054600282015460038301546040805160e08101918290529496506001600160a01b0390931694600187019460ff808516956101009095041693909186916007918390855b825461010083900a900460ff16815260206001928301818104948501949093039092029101808411611a775790505050505050935095509550955095509550509295509295909350565b611ac9611f5f565b60cc805463ffffffff191663ffffffff92909216919091179055565b611aed611f5f565b60ca55565b33600090815260d6602052604090205480611b4f5760405162461bcd60e51b815260206004820152601360248201527f4e6f2072657761726420617661696c61626c65000000000000000000000000006044820152606401610ae4565b33600081815260d660205260408082208290555190919083908381818185875af1925050503d8060008114611ba0576040519150601f19603f3d011682016040523d82523d6000602084013e611ba5565b606091505b5050905080611bf65760405162461bcd60e51b815260206004820152601660248201527f526577617264207472616e73666572206661696c6564000000000000000000006044820152606401610ae4565b60405182815233907f1d3eee4ca001cff39eec6ec7615aacf2f2bd61791273830728ba00ccbd6e133790602001610bdc565b611c30611f5f565b60dc805460ff1916911515919091179055565b600081815260d0602052604081205460609060ff16611ca45760405162461bcd60e51b815260206004820152601160248201527f52657175657374206e6f7420666f756e640000000000000000000000000000006044820152606401610ae4565b600083815260d060209081526040918290208054600182018054855181860281018601909652808652929461010090920460ff169390928391830182828015611d0c57602002820191906000526020600020905b815481526020019060010190808311611cf8575b505050505090509250925050915091565b600054600390610100900460ff16158015611d3f575060005460ff8083169116105b611db15760405162461bcd60e51b815260206004820152602e60248201527f496e697469616c697a61626c653a20636f6e747261637420697320616c72656160448201527f647920696e697469616c697a65640000000000000000000000000000000000006064820152608401610ae4565b6000805461ffff191660ff831617610100179055611dcd612fae565b6000805461ff001916905560405160ff821681527f7f26b83ff96e1f2b6a682f133852f6798a09c465da95921460cefb38474024989060200160405180910390a150565b611e19611f5f565b6001600160a01b038116611e955760405162461bcd60e51b815260206004820152602660248201527f4f776e61626c653a206e6577206f776e657220697320746865207a65726f206160448201527f64647265737300000000000000000000000000000000000000000000000000006064820152608401610ae4565b61101381612f4f565b611ea6611f5f565b60008163ffffffff1611611efc5760405162461bcd60e51b815260206004820152601460248201527f6e756d576f726473206d757374206265203e20300000000000000000000000006044820152606401610ae4565b60cc805463ffffffff90921666010000000000000269ffffffff00000000000019909216919091179055565b611f30611f5f565b60c9805473ffffffffffffffffffffffffffffffffffffffff19166001600160a01b0392909216919091179055565b6033546001600160a01b0316331461181f5760405162461bcd60e51b815260206004820181905260248201527f4f776e61626c653a2063616c6c6572206973206e6f7420746865206f776e65726044820152606401610ae4565b611fc16135d3565b611fc96135f1565b6000805b60078210156120e95760005b8581108015611fe85750600783105b156120e3576000603188888481811061200357612003613c3a565b9050602002013584604051602001612025929190918252602082015260400190565b6040516020818303038152906040528051906020012060001c6120489190613c66565b612053906001613bc0565b9050848160ff166032811061206a5761206a613c3a565b60200201516120c2576001858260ff166032811061208a5761208a613c3a565b91151560209092020152808685600781106120a7576120a7613c3a565b60ff9092166020929092020152836120be81613c7a565b9450505b826120cc81613c7a565b9350505080806120db90613c7a565b915050611fd9565b50611fcd565b6120f284613034565b5050505b92915050565b600082815260d260205260409020805460ff1661215b5760405162461bcd60e51b815260206004820152601060248201527f526f756e64206e6f7420616374697665000000000000000000000000000000006044820152606401610ae4565b8054610100900460ff166121b15760405162461bcd60e51b815260206004820152601260248201527f44726177206e6f742072657175657374656400000000000000000000000000006044820152606401610ae4565b805462010000900460ff16156122095760405162461bcd60e51b815260206004820152601560248201527f526f756e6420616c726561647920736574746c656400000000000000000000006044820152606401610ae4565b600083815260d3602052604090208054612221613610565b60005b828110156123275760006122a685838154811061224357612243613c3a565b6000918252602082206040805160e081019182905293600490930290910160010191600791908390855b825461010083900a900460ff1681526020600192830181810494850194909303909202910180841161226d57905050505050508861312b565b9050808583815481106122bb576122bb613c3a565b600091825260209091206004909102016002908101805461ff00191661010060ff948516021790559082161061231457828160ff166008811061230057612300613c3a565b6020020180519061231082613c7a565b9052505b508061231f81613c7a565b915050612224565b5060006127106103e8866003015461233f9190613c93565b6123499190613caa565b9050600081866003015461235d9190613bd3565b90506000612369613610565b6064612376846005613c93565b6123809190613caa565b6040820152606461239284600a613c93565b61239c9190613caa565b606082015260646123ae84600f613c93565b6123b89190613caa565b608082015260646123ca846014613c93565b6123d49190613caa565b60a082015260646123e6846014613c93565b6123f09190613caa565b60c0820152606461240284601e613c93565b61240c9190613caa565b60e0820152612419613610565b60025b60078160ff16116124df576000878260ff166008811061243e5761243e613c3a565b602002015111156124a657868160ff166008811061245e5761245e613c3a565b6020020151838260ff166008811061247857612478613c3a565b60200201516124879190613caa565b828260ff166008811061249c5761249c613c3a565b60200201526124cd565b828160ff16600881106124bb576124bb613c3a565b60200201516124ca9085613bc0565b93505b806124d781613cbe565b91505061241c565b5060005b8781101561264b5760008982815481106124ff576124ff613c3a565b60009182526020909120600260049092020181015460ff6101009091041691508110612638576000838260ff166008811061253c5761253c613c3a565b60200201519050808b848154811061255657612556613c3a565b9060005260206000209060040201600301819055508060d660008d868154811061258257612582613c3a565b600091825260208083206004909202909101546001600160a01b03168352820192909252604001812080549091906125bb908490613bc0565b925050819055508a83815481106125d4576125d4613c3a565b6000918252602091829020600490910201546040805186815260ff86169381019390935282018390526001600160a01b0316908f907faf8d69c5bf84763f900b51e0405fdc2ad4eaf8b44698617a07ae9c31bc41204c9060600160405180910390a3505b508061264381613c7a565b9150506124e3565b508460d7600082825461265e9190613bc0565b925050819055508260d860008282546126779190613bc0565b9091555050885462ff00ff1916620100001789556040518b907fb8ca8b8466fca767994635dc37682d654da89bf89d11de69e1025ccdb2cdfee5906126c1908d9089908890613cdd565b60405180910390a26126d1612dbb565b5050505050505050505050565b611013611f5f565b7f4910fdfa16fed3260ed0e7147f7cc6da11a60208b5b9406d12a635614ffd91435460ff161561271e57612719836131aa565b505050565b826001600160a01b03166352d1902d6040518163ffffffff1660e01b8152600401602060405180830381865afa925050508015612778575060408051601f3d908101601f1916820190925261277591810190613cfe565b60015b6127ea5760405162461bcd60e51b815260206004820152602e60248201527f45524331393637557067726164653a206e657720696d706c656d656e7461746960448201527f6f6e206973206e6f7420555550530000000000000000000000000000000000006064820152608401610ae4565b7f360894a13ba1a3210667c828492db98dca3e2076cc3735a920a3ca505d382bbc811461287f5760405162461bcd60e51b815260206004820152602960248201527f45524331393637557067726164653a20756e737570706f727465642070726f7860448201527f6961626c655555494400000000000000000000000000000000000000000000006064820152608401610ae4565b50612719838383613275565b6128936135f1565b60005b60078110156127195760018382600781106128b3576128b3613c3a565b6020020160208101906128c69190613d17565b60ff16101580156128ff575060318382600781106128e6576128e6613c3a565b6020020160208101906128f99190613d17565b60ff1611155b61294b5760405162461bcd60e51b815260206004820152601360248201527f4e756d626572206f7574206f662072616e6765000000000000000000000000006044820152606401610ae4565b8183826007811061295e5761295e613c3a565b6020020160208101906129719190613d17565b60ff166032811061298457612984613c3a565b6020020151156129d65760405162461bcd60e51b815260206004820152601c60248201527f4475706c6963617465206e756d626572206e6f7420616c6c6f776564000000006044820152606401610ae4565b6001828483600781106129eb576129eb613c3a565b6020020160208101906129fe9190613d17565b60ff1660328110612a1157612a11613c3a565b9115156020909202015280612a2581613c7a565b915050612896565b60d954600090815260d260205260409020805460ff16612a815760405162461bcd60e51b815260206004820152600f60248201526e139bc81858dd1a5d99481c9bdd5b99608a1b6044820152606401610ae4565b8054610100900460ff1615612ad85760405162461bcd60e51b815260206004820152601660248201527f4472617720616c726561647920726571756573746564000000000000000000006044820152606401610ae4565b8060020154421015612b2c5760405162461bcd60e51b815260206004820152601260248201527f526f756e64207374696c6c2061637469766500000000000000000000000000006044820152606401610ae4565b806003015460d86000828254612b429190613bc0565b9091555050805462ff00ff19166201000017815560d95460038201546040517f3fd1c85cda6246c06e5680d9888d379fe80d0234f53064ba2f3e3ef7698dfd4b91612b909190815260200190565b60405180910390a2611013612dbb565b60d954600090815260d26020908152604080832060c954825160c08101845260cb54815260ca548186015260cc5461ffff6401000000008204168286015263ffffffff80821660608401526601000000000000909104166080820152835194850190935260dc5460ff161515845290926001600160a01b0390911691639b1c385e9160a0820190612c309061329a565b8152506040518263ffffffff1660e01b8152600401612c4f9190613d32565b6020604051808303816000875af1158015612c6e573d6000803e3d6000fd5b505050506040513d601f19601f82011682018060405250810190612c929190613cfe565b604080516060810182526001808252600060208084018281528551838152808301875285870190815287845260d083529590922084518154935161ffff1990941690151561ff00191617610100931515939093029290921782559351805195975092949093612d069392850192019061362f565b505060d954600084815260d160209081526040918290209290925560cd859055835461010061ff001990911617845560cc548151868152660100000000000090910463ffffffff16928101929092527fcc58b13ad3eab50626c6a6300b1d139cd6ebb1688a7cced9461c2f7e762665ee92500160405180910390a160d9546040518381527fc67dda8e11f1aa941c7e74466b1859a07a32f46aaf641d29b83be348424d93cd9060200160405180910390a25090565b60d9541580612ddc575060d954600090815260d2602052604090205460ff16155b612e285760405162461bcd60e51b815260206004820152601a60248201527f43757272656e7420726f756e64207374696c6c206163746976650000000000006044820152606401610ae4565b60d98054906000612e3883613c7a565b91905055506040518060c0016040528060011515815260200160001515815260200160001515815260200142815260200160db5442612e779190613bc0565b815260d85460209182015260d98054600090815260d283526040908190208451815494860151928601511515620100000262ff0000199315156101000261ff00199215159290921661ffff19909616959095171791909116929092178255606083015160018301556080830151600283015560a0909201516003909101555460db547ffd9d17e5565deea3d25918d95fc398673b9445ef0a96d12eaf3ab2b198756c65904290612f279082613bc0565b60d8546040805193845260208401929092529082015260600160405180910390a2600060d855565b603380546001600160a01b0383811673ffffffffffffffffffffffffffffffffffffffff19831681179093556040519116919082907f8be0079c531659141344cd1fd0a4f28419497f9722a3daafe3b4186f6b6457e090600090a35050565b600054610100900460ff1661302b5760405162461bcd60e51b815260206004820152602b60248201527f496e697469616c697a61626c653a20636f6e7472616374206973206e6f74206960448201527f6e697469616c697a696e670000000000000000000000000000000000000000006064820152608401610ae4565b61181f33612f4f565b60005b600781101561174657600061304d826001613bc0565b90505b60078110156131185782826007811061306b5761306b613c3a565b602002015160ff1683826007811061308557613085613c3a565b602002015160ff1610156131065760008383600781106130a7576130a7613c3a565b602002015190508382600781106130c0576130c0613c3a565b60200201518484600781106130d7576130d7613c3a565b60ff9092166020929092020152808483600781106130f7576130f7613c3a565b60ff9092166020929092020152505b8061311081613c7a565b915050613050565b508061312381613c7a565b915050613037565b6000805b60078160ff1610156131a357828160ff166007811061315057613150613c3a565b602002015160ff16848260ff166007811061316d5761316d613c3a565b602002015160ff160361318c578161318481613cbe565b925050613191565b6131a3565b8061319b81613cbe565b91505061312f565b5092915050565b6001600160a01b0381163b6132275760405162461bcd60e51b815260206004820152602d60248201527f455243313936373a206e657720696d706c656d656e746174696f6e206973206e60448201527f6f74206120636f6e7472616374000000000000000000000000000000000000006064820152608401610ae4565b7f360894a13ba1a3210667c828492db98dca3e2076cc3735a920a3ca505d382bbc805473ffffffffffffffffffffffffffffffffffffffff19166001600160a01b0392909216919091179055565b61327e83613338565b60008251118061328b5750805b1561271957610e958383613378565b60607f92fd13387c7fe7befbc38d303d6468778fb9731bc4583f17d92989c6fcfdeaaa826040516024016132d391511515815260200190565b60408051601f198184030181529190526020810180517bffffffffffffffffffffffffffffffffffffffffffffffffffffffff167fffffffff000000000000000000000000000000000000000000000000000000009093169290921790915292915050565b613341816131aa565b6040516001600160a01b038216907fbc7cd75a20ee27fd9adebab32041f755214dbc6bffa90cc0225b39da2e5c2d3b90600090a250565b606061339d8383604051806060016040528060278152602001613dbf602791396133a4565b9392505050565b6060600080856001600160a01b0316856040516133c19190613d8f565b600060405180830381855af49150503d80600081146133fc576040519150601f19603f3d011682016040523d82523d6000602084013e613401565b606091505b50915091506134128683838761341c565b9695505050505050565b6060831561348b578251600003613484576001600160a01b0385163b6134845760405162461bcd60e51b815260206004820152601d60248201527f416464726573733a2063616c6c20746f206e6f6e2d636f6e74726163740000006044820152606401610ae4565b5081613495565b613495838361349d565b949350505050565b8151156134ad5781518083602001fd5b8060405162461bcd60e51b8152600401610ae49190613dab565b828054828255906000526020600020908101928215613502579160200282015b828111156135025782358255916020019190600101906134e7565b5061350e92915061366a565b5090565b6001830191839082156135025791602002820160005b8382111561356657835183826101000a81548160ff021916908360ff1602179055509260200192600101602081600001049283019260010302613528565b80156135935782816101000a81549060ff0219169055600101602081600001049283019260010302613566565b505061350e92915061366a565b6001830191839082156135025791601f016020900482015b828111156135025782548255916001019190600101906135b8565b6040518060e001604052806007906020820280368337509192915050565b6040518061064001604052806032906020820280368337509192915050565b6040518061010001604052806008906020820280368337509192915050565b828054828255906000526020600020908101928215613502579160200282015b8281111561350257825182559160200191906001019061364f565b5b8082111561350e576000815560010161366b565b80356001600160a01b038116811461369657600080fd5b919050565b600080604083850312156136ae57600080fd5b823591506136be6020840161367f565b90509250929050565b6000602082840312156136d957600080fd5b5035919050565b6000806000604084860312156136f557600080fd5b83359250602084013567ffffffffffffffff8082111561371457600080fd5b818601915086601f83011261372857600080fd5b81358181111561373757600080fd5b8760208260051b850101111561374c57600080fd5b6020830194508093505050509250925092565b60006020828403121561377157600080fd5b61339d8261367f565b600060e0828403121561378c57600080fd5b8260e08301111561379c57600080fd5b50919050565b600081518084526020808501945080840160005b838110156137d2578151875295820195908201906001016137b6565b509495945050505050565b60208152600061339d60208301846137a2565b6000806020838503121561380357600080fd5b823567ffffffffffffffff8082111561381b57600080fd5b818501915085601f83011261382f57600080fd5b81358181111561383e57600080fd5b86602082850101111561385057600080fd5b60209290920196919550909350505050565b634e487b7160e01b600052604160045260246000fd5b6000806040838503121561388b57600080fd5b6138948361367f565b9150602083013567ffffffffffffffff808211156138b157600080fd5b818501915085601f8301126138c557600080fd5b8135818111156138d7576138d7613862565b604051601f8201601f19908116603f011681019083821181831017156138ff576138ff613862565b8160405282815288602084870101111561391857600080fd5b8260208601602083013760006020848301015280955050505050509250929050565b8060005b6007811015610e9557815160ff1684526020938401939091019060010161393e565b60e081016120f6828461393a565b60005b83811015613989578181015183820152602001613971565b50506000910152565b600081518084526139aa81602086016020860161396e565b601f01601f19169290920160200192915050565b82151581526040602082015260006134956040830184613992565b600080604083850312156139ec57600080fd5b50508035926020909101359150565b600060208284031215613a0d57600080fd5b813561ffff8116811461339d57600080fd5b6001600160a01b03861681526101608101613a3d602083018761393a565b93151561010082015260ff929092166101208301526101409091015292915050565b600060208284031215613a7157600080fd5b813563ffffffff8116811461339d57600080fd5b600060208284031215613a9757600080fd5b8135801515811461339d57600080fd5b821515815260406020820152600061349560408301846137a2565b8381526040602082015281604082015260007f07ffffffffffffffffffffffffffffffffffffffffffffffffffffffffffffff831115613b0157600080fd5b8260051b8085606085013791909101606001949350505050565b600061012082019050848252836020830152825460ff8082166040850152808260081c166060850152808260101c166080850152613b6360a08501828460181c1660ff169052565b613b7760c08501828460201c1660ff169052565b613b8b60e08501828460281c1660ff169052565b613ba06101008501828460301c1660ff169052565b5050949350505050565b634e487b7160e01b600052601160045260246000fd5b808201808211156120f6576120f6613baa565b818103818111156120f6576120f6613baa565b803560ff8116811461369657600080fd5b828152610100810160208083018460005b6007811015613c2f5760ff613c1c83613be6565b1683529183019190830190600101613c08565b505050509392505050565b634e487b7160e01b600052603260045260246000fd5b634e487b7160e01b600052601260045260246000fd5b600082613c7557613c75613c50565b500690565b600060018201613c8c57613c8c613baa565b5060010190565b80820281158282048414176120f6576120f6613baa565b600082613cb957613cb9613c50565b500490565b600060ff821660ff8103613cd457613cd4613baa565b60010192915050565b6101208101613cec828661393a565b60e08201939093526101000152919050565b600060208284031215613d1057600080fd5b5051919050565b600060208284031215613d2957600080fd5b61339d82613be6565b60208152815160208201526020820151604082015261ffff60408301511660608201526000606083015163ffffffff80821660808501528060808601511660a0850152505060a083015160c08084015261349560e0840182613992565b60008251613da181846020870161396e565b9190910192915050565b60208152600061339d602083018461399256fe416464726573733a206c6f772d6c6576656c2064656c65676174652063616c6c206661696c6564a26469706673582212204c4cb49bf513e67dc86f3e8527bc33ac0f7dc55a3d60b593c83a1047949ffd9364736f6c63430008140033","opcodes":"PUSH1 0xA0 PUSH1 0x40 MSTORE ADDRESS PUSH1 0x80 MSTORE CALLVALUE DUP1 ISZERO PUSH3 0x15 JUMPI PUSH1 0x0 DUP1 REVERT JUMPDEST POP PUSH3 0x20 PUSH3 0x26 JUMP JUMPDEST PUSH3 0xE7 JUMP JUMPDEST PUSH1 0x0 SLOAD PUSH2 0x100 SWAP1 DIV PUSH1 0xFF AND ISZERO PUSH3 0x93 JUMPI PUSH1 0x40 MLOAD PUSH3 0x461BCD PUSH1 0xE5 SHL DUP2 MSTORE PUSH1 0x20 PUSH1 0x4 DUP3 ADD MSTORE PUSH1 0x27 PUSH1 0x24 DUP3 ADD MSTORE PUSH32 0x496E697469616C697A61626C653A20636F6E747261637420697320696E697469 PUSH1 0x44 DUP3 ADD MSTORE PUSH7 0x616C697A696E67 PUSH1 0xC8 SHL PUSH1 0x64 DUP3 ADD MSTORE PUSH1 0x84 ADD PUSH1 0x40 MLOAD DUP1 SWAP2 SUB SWAP1 REVERT JUMPDEST PUSH1 0x0 SLOAD PUSH1 0xFF SWAP1 DUP2 AND EQ PUSH3 0xE5 JUMPI PUSH1 0x0 DUP1 SLOAD PUSH1 0xFF NOT AND PUSH1 0xFF SWAP1 DUP2 OR SWAP1 SWAP2 SSTORE PUSH1 0x40 MLOAD SWAP1 DUP2 MSTORE PUSH32 0x7F26B83FF96E1F2B6A682F133852F6798A09C465DA95921460CEFB3847402498 SWAP1 PUSH1 0x20 ADD PUSH1 0x40 MLOAD DUP1 SWAP2 SUB SWAP1 LOG1 JUMPDEST JUMP JUMPDEST PUSH1 0x80 MLOAD PUSH2 0x3E1B PUSH3 0x11F PUSH1 0x0 CODECOPY PUSH1 0x0 DUP2 DUP2 PUSH2 0xEA5 ADD MSTORE DUP2 DUP2 PUSH2 0xF2A ADD MSTORE DUP2 DUP2 PUSH2 0x15E8 ADD MSTORE DUP2 DUP2 PUSH2 0x166D ADD MSTORE PUSH2 0x1757 ADD MSTORE PUSH2 0x3E1B PUSH1 0x0 RETURN INVALID PUSH1 0x80 PUSH1 0x40 MSTORE PUSH1 0x4 CALLDATASIZE LT PUSH2 0x343 JUMPI PUSH1 0x0 CALLDATALOAD PUSH1 0xE0 SHR DUP1 PUSH4 0x84350E1D GT PUSH2 0x1B0 JUMPI DUP1 PUSH4 0xC1E0D236 GT PUSH2 0xEC JUMPI DUP1 PUSH4 0xE1A45218 GT PUSH2 0x95 JUMPI DUP1 PUSH4 0xF30C07D3 GT PUSH2 0x6F JUMPI DUP1 PUSH4 0xF30C07D3 EQ PUSH2 0xA24 JUMPI DUP1 PUSH4 0xF7CB789A EQ PUSH2 0xA44 JUMPI DUP1 PUSH4 0xF9F94E34 EQ PUSH2 0xA5A JUMPI DUP1 PUSH4 0xFC2A88C3 EQ PUSH2 0xA7A JUMPI PUSH1 0x0 DUP1 REVERT JUMPDEST DUP1 PUSH4 0xE1A45218 EQ PUSH2 0x9D9 JUMPI DUP1 PUSH4 0xEC918B65 EQ PUSH2 0x9EF JUMPI DUP1 PUSH4 0xF2FDE38B EQ PUSH2 0xA04 JUMPI PUSH1 0x0 DUP1 REVERT JUMPDEST DUP1 PUSH4 0xC88E1561 GT PUSH2 0xC6 JUMPI DUP1 PUSH4 0xC88E1561 EQ PUSH2 0x95E JUMPI DUP1 PUSH4 0xD88D27D6 EQ PUSH2 0x97E JUMPI DUP1 PUSH4 0xD8A4676F EQ PUSH2 0x9AB JUMPI PUSH1 0x0 DUP1 REVERT JUMPDEST DUP1 PUSH4 0xC1E0D236 EQ PUSH2 0x8FC JUMPI DUP1 PUSH4 0xC4289070 EQ PUSH2 0x91C JUMPI DUP1 PUSH4 0xC885BC58 EQ PUSH2 0x949 JUMPI PUSH1 0x0 DUP1 REVERT JUMPDEST DUP1 PUSH4 0x9CBE5EFD GT PUSH2 0x159 JUMPI DUP1 PUSH4 0xA4EB718C GT PUSH2 0x133 JUMPI DUP1 PUSH4 0xA4EB718C EQ PUSH2 0x876 JUMPI DUP1 PUSH4 0xB0FB162F EQ PUSH2 0x896 JUMPI DUP1 PUSH4 0xB28F6EF1 EQ PUSH2 0x8CC JUMPI DUP1 PUSH4 0xB368BA42 EQ PUSH2 0x8E2 JUMPI PUSH1 0x0 DUP1 REVERT JUMPDEST DUP1 PUSH4 0x9CBE5EFD EQ PUSH2 0x80F JUMPI DUP1 PUSH4 0x9ECCACF6 EQ PUSH2 0x825 JUMPI DUP1 PUSH4 0xA426E4C8 EQ PUSH2 0x845 JUMPI PUSH1 0x0 DUP1 REVERT JUMPDEST DUP1 PUSH4 0x8DA5CB5B GT PUSH2 0x18A JUMPI DUP1 PUSH4 0x8DA5CB5B EQ PUSH2 0x79D JUMPI DUP1 PUSH4 0x900FC869 EQ PUSH2 0x7CF JUMPI DUP1 PUSH4 0x98544710 EQ PUSH2 0x7EF JUMPI PUSH1 0x0 DUP1 REVERT JUMPDEST DUP1 PUSH4 0x84350E1D EQ PUSH2 0x6DC JUMPI DUP1 PUSH4 0x8824F5A7 EQ PUSH2 0x6F1 JUMPI DUP1 PUSH4 0x8C65C81F EQ PUSH2 0x711 JUMPI PUSH1 0x0 DUP1 REVERT JUMPDEST DUP1 PUSH4 0x3C51C7BB GT PUSH2 0x27F JUMPI DUP1 PUSH4 0x61728F39 GT PUSH2 0x228 JUMPI DUP1 PUSH4 0x715018A6 GT PUSH2 0x202 JUMPI DUP1 PUSH4 0x715018A6 EQ PUSH2 0x630 JUMPI DUP1 PUSH4 0x7CCFD7FC EQ PUSH2 0x645 JUMPI DUP1 PUSH4 0x81D12C58 EQ PUSH2 0x66C JUMPI DUP1 PUSH4 0x82FBC5C2 EQ PUSH2 0x6BC JUMPI PUSH1 0x0 DUP1 REVERT JUMPDEST DUP1 PUSH4 0x61728F39 EQ PUSH2 0x5BF JUMPI DUP1 PUSH4 0x64069E71 EQ PUSH2 0x5D5 JUMPI DUP1 PUSH4 0x6E04FF0D EQ PUSH2 0x602 JUMPI PUSH1 0x0 DUP1 REVERT JUMPDEST DUP1 PUSH4 0x4F1EF286 GT PUSH2 0x259 JUMPI DUP1 PUSH4 0x4F1EF286 EQ PUSH2 0x582 JUMPI DUP1 PUSH4 0x52D1902D EQ PUSH2 0x595 JUMPI DUP1 PUSH4 0x55E3F086 EQ PUSH2 0x5AA JUMPI PUSH1 0x0 DUP1 REVERT JUMPDEST DUP1 PUSH4 0x3C51C7BB EQ PUSH2 0x51A JUMPI DUP1 PUSH4 0x4585E33B EQ PUSH2 0x530 JUMPI DUP1 PUSH4 0x4E45F095 EQ PUSH2 0x550 JUMPI PUSH1 0x0 DUP1 REVERT JUMPDEST DUP1 PUSH4 0x24F74697 GT PUSH2 0x2EC JUMPI DUP1 PUSH4 0x3659CFE6 GT PUSH2 0x2C6 JUMPI DUP1 PUSH4 0x3659CFE6 EQ PUSH2 0x4A5 JUMPI DUP1 PUSH4 0x36C92C3F EQ PUSH2 0x4C5 JUMPI DUP1 PUSH4 0x39E7397B EQ PUSH2 0x4E5 JUMPI DUP1 PUSH4 0x3C256B24 EQ PUSH2 0x4F8 JUMPI PUSH1 0x0 DUP1 REVERT JUMPDEST DUP1 PUSH4 0x24F74697 EQ PUSH2 0x430 JUMPI DUP1 PUSH4 0x25C5D34A EQ PUSH2 0x462 JUMPI DUP1 PUSH4 0x31D7A262 EQ PUSH2 0x478 JUMPI PUSH1 0x0 DUP1 REVERT JUMPDEST DUP1 PUSH4 0xA9EF34C GT PUSH2 0x31D JUMPI DUP1 PUSH4 0xA9EF34C EQ PUSH2 0x3D9 JUMPI DUP1 PUSH4 0x15981650 EQ PUSH2 0x3F0 JUMPI DUP1 PUSH4 0x1FE543E3 EQ PUSH2 0x410 JUMPI PUSH1 0x0 DUP1 REVERT JUMPDEST DUP1 PUSH4 0x72EA61C EQ PUSH2 0x34F JUMPI DUP1 PUSH4 0x73C74F3 EQ PUSH2 0x378 JUMPI DUP1 PUSH4 0x9C1BA2E EQ PUSH2 0x3C3 JUMPI PUSH1 0x0 DUP1 REVERT JUMPDEST CALLDATASIZE PUSH2 0x34A JUMPI STOP JUMPDEST PUSH1 0x0 DUP1 REVERT JUMPDEST CALLVALUE DUP1 ISZERO PUSH2 0x35B JUMPI PUSH1 0x0 DUP1 REVERT JUMPDEST POP PUSH2 0x365 PUSH1 0xDA SLOAD DUP2 JUMP JUMPDEST PUSH1 0x40 MLOAD SWAP1 DUP2 MSTORE PUSH1 0x20 ADD JUMPDEST PUSH1 0x40 MLOAD DUP1 SWAP2 SUB SWAP1 RETURN JUMPDEST CALLVALUE DUP1 ISZERO PUSH2 0x384 JUMPI PUSH1 0x0 DUP1 REVERT JUMPDEST POP PUSH2 0x3B3 PUSH2 0x393 CALLDATASIZE PUSH1 0x4 PUSH2 0x369B JUMP JUMPDEST PUSH1 0xD5 PUSH1 0x20 SWAP1 DUP2 MSTORE PUSH1 0x0 SWAP3 DUP4 MSTORE PUSH1 0x40 DUP1 DUP5 KECCAK256 SWAP1 SWAP2 MSTORE SWAP1 DUP3 MSTORE SWAP1 KECCAK256 SLOAD PUSH1 0xFF AND DUP2 JUMP JUMPDEST PUSH1 0x40 MLOAD SWAP1 ISZERO ISZERO DUP2 MSTORE PUSH1 0x20 ADD PUSH2 0x36F JUMP JUMPDEST CALLVALUE DUP1 ISZERO PUSH2 0x3CF JUMPI PUSH1 0x0 DUP1 REVERT JUMPDEST POP PUSH2 0x365 PUSH1 0xCA SLOAD DUP2 JUMP JUMPDEST CALLVALUE DUP1 ISZERO PUSH2 0x3E5 JUMPI PUSH1 0x0 DUP1 REVERT JUMPDEST POP PUSH2 0x3EE PUSH2 0xA90 JUMP JUMPDEST STOP JUMPDEST CALLVALUE DUP1 ISZERO PUSH2 0x3FC JUMPI PUSH1 0x0 DUP1 REVERT JUMPDEST POP PUSH2 0x3EE PUSH2 0x40B CALLDATASIZE PUSH1 0x4 PUSH2 0x36C7 JUMP JUMPDEST PUSH2 0xBE8 JUMP JUMPDEST CALLVALUE DUP1 ISZERO PUSH2 0x41C JUMPI PUSH1 0x0 DUP1 REVERT JUMPDEST POP PUSH2 0x3EE PUSH2 0x42B CALLDATASIZE PUSH1 0x4 PUSH2 0x36E0 JUMP JUMPDEST PUSH2 0xC45 JUMP JUMPDEST CALLVALUE DUP1 ISZERO PUSH2 0x43C JUMPI PUSH1 0x0 DUP1 REVERT JUMPDEST POP PUSH1 0xCC SLOAD PUSH2 0x44D SWAP1 PUSH4 0xFFFFFFFF AND DUP2 JUMP JUMPDEST PUSH1 0x40 MLOAD PUSH4 0xFFFFFFFF SWAP1 SWAP2 AND DUP2 MSTORE PUSH1 0x20 ADD PUSH2 0x36F JUMP JUMPDEST CALLVALUE DUP1 ISZERO PUSH2 0x46E JUMPI PUSH1 0x0 DUP1 REVERT JUMPDEST POP PUSH2 0x365 PUSH2 0x3E8 DUP2 JUMP JUMPDEST CALLVALUE DUP1 ISZERO PUSH2 0x484 JUMPI PUSH1 0x0 DUP1 REVERT JUMPDEST POP PUSH2 0x365 PUSH2 0x493 CALLDATASIZE PUSH1 0x4 PUSH2 0x375F JUMP JUMPDEST PUSH1 0xD6 PUSH1 0x20 MSTORE PUSH1 0x0 SWAP1 DUP2 MSTORE PUSH1 0x40 SWAP1 KECCAK256 SLOAD DUP2 JUMP JUMPDEST CALLVALUE DUP1 ISZERO PUSH2 0x4B1 JUMPI PUSH1 0x0 DUP1 REVERT JUMPDEST POP PUSH2 0x3EE PUSH2 0x4C0 CALLDATASIZE PUSH1 0x4 PUSH2 0x375F JUMP JUMPDEST PUSH2 0xE9B JUMP JUMPDEST CALLVALUE DUP1 ISZERO PUSH2 0x4D1 JUMPI PUSH1 0x0 DUP1 REVERT JUMPDEST POP PUSH2 0x3EE PUSH2 0x4E0 CALLDATASIZE PUSH1 0x4 PUSH2 0x36C7 JUMP JUMPDEST PUSH2 0x1016 JUMP JUMPDEST PUSH2 0x3EE PUSH2 0x4F3 CALLDATASIZE PUSH1 0x4 PUSH2 0x377A JUMP JUMPDEST PUSH2 0x1073 JUMP JUMPDEST CALLVALUE DUP1 ISZERO PUSH2 0x504 JUMPI PUSH1 0x0 DUP1 REVERT JUMPDEST POP PUSH2 0x50D PUSH2 0x13CF JUMP JUMPDEST PUSH1 0x40 MLOAD PUSH2 0x36F SWAP2 SWAP1 PUSH2 0x37DD JUMP JUMPDEST CALLVALUE DUP1 ISZERO PUSH2 0x526 JUMPI PUSH1 0x0 DUP1 REVERT JUMPDEST POP PUSH2 0x365 PUSH1 0xD8 SLOAD DUP2 JUMP JUMPDEST CALLVALUE DUP1 ISZERO PUSH2 0x53C JUMPI PUSH1 0x0 DUP1 REVERT JUMPDEST POP PUSH2 0x3EE PUSH2 0x54B CALLDATASIZE PUSH1 0x4 PUSH2 0x37F0 JUMP JUMPDEST PUSH2 0x1427 JUMP JUMPDEST CALLVALUE DUP1 ISZERO PUSH2 0x55C JUMPI PUSH1 0x0 DUP1 REVERT JUMPDEST POP PUSH2 0x570 PUSH2 0x56B CALLDATASIZE PUSH1 0x4 PUSH2 0x36C7 JUMP JUMPDEST PUSH2 0x15B4 JUMP JUMPDEST PUSH1 0x40 MLOAD PUSH1 0xFF SWAP1 SWAP2 AND DUP2 MSTORE PUSH1 0x20 ADD PUSH2 0x36F JUMP JUMPDEST PUSH2 0x3EE PUSH2 0x590 CALLDATASIZE PUSH1 0x4 PUSH2 0x3878 JUMP JUMPDEST PUSH2 0x15DE JUMP JUMPDEST CALLVALUE DUP1 ISZERO PUSH2 0x5A1 JUMPI PUSH1 0x0 DUP1 REVERT JUMPDEST POP PUSH2 0x365 PUSH2 0x174A JUMP JUMPDEST CALLVALUE DUP1 ISZERO PUSH2 0x5B6 JUMPI PUSH1 0x0 DUP1 REVERT JUMPDEST POP PUSH2 0x3EE PUSH2 0x180F JUMP JUMPDEST CALLVALUE DUP1 ISZERO PUSH2 0x5CB JUMPI PUSH1 0x0 DUP1 REVERT JUMPDEST POP PUSH2 0x365 PUSH1 0xCB SLOAD DUP2 JUMP JUMPDEST CALLVALUE DUP1 ISZERO PUSH2 0x5E1 JUMPI PUSH1 0x0 DUP1 REVERT JUMPDEST POP PUSH2 0x5F5 PUSH2 0x5F0 CALLDATASIZE PUSH1 0x4 PUSH2 0x36C7 JUMP JUMPDEST PUSH2 0x1821 JUMP JUMPDEST PUSH1 0x40 MLOAD PUSH2 0x36F SWAP2 SWAP1 PUSH2 0x3960 JUMP JUMPDEST CALLVALUE DUP1 ISZERO PUSH2 0x60E JUMPI PUSH1 0x0 DUP1 REVERT JUMPDEST POP PUSH2 0x622 PUSH2 0x61D CALLDATASIZE PUSH1 0x4 PUSH2 0x37F0 JUMP JUMPDEST PUSH2 0x1885 JUMP JUMPDEST PUSH1 0x40 MLOAD PUSH2 0x36F SWAP3 SWAP2 SWAP1 PUSH2 0x39BE JUMP JUMPDEST CALLVALUE DUP1 ISZERO PUSH2 0x63C JUMPI PUSH1 0x0 DUP1 REVERT JUMPDEST POP PUSH2 0x3EE PUSH2 0x18F2 JUMP JUMPDEST CALLVALUE DUP1 ISZERO PUSH2 0x651 JUMPI PUSH1 0x0 DUP1 REVERT JUMPDEST POP PUSH1 0xCC SLOAD PUSH2 0x44D SWAP1 PUSH7 0x1000000000000 SWAP1 DIV PUSH4 0xFFFFFFFF AND DUP2 JUMP JUMPDEST CALLVALUE DUP1 ISZERO PUSH2 0x678 JUMPI PUSH1 0x0 DUP1 REVERT JUMPDEST POP PUSH2 0x6A5 PUSH2 0x687 CALLDATASIZE PUSH1 0x4 PUSH2 0x36C7 JUMP JUMPDEST PUSH1 0xD0 PUSH1 0x20 MSTORE PUSH1 0x0 SWAP1 DUP2 MSTORE PUSH1 0x40 SWAP1 KECCAK256 SLOAD PUSH1 0xFF DUP1 DUP3 AND SWAP2 PUSH2 0x100 SWAP1 DIV AND DUP3 JUMP JUMPDEST PUSH1 0x40 DUP1 MLOAD SWAP3 ISZERO ISZERO DUP4 MSTORE SWAP1 ISZERO ISZERO PUSH1 0x20 DUP4 ADD MSTORE ADD PUSH2 0x36F JUMP JUMPDEST CALLVALUE DUP1 ISZERO PUSH2 0x6C8 JUMPI PUSH1 0x0 DUP1 REVERT JUMPDEST POP PUSH2 0x570 PUSH2 0x6D7 CALLDATASIZE PUSH1 0x4 PUSH2 0x39D9 JUMP JUMPDEST PUSH2 0x1904 JUMP JUMPDEST CALLVALUE DUP1 ISZERO PUSH2 0x6E8 JUMPI PUSH1 0x0 DUP1 REVERT JUMPDEST POP PUSH2 0x5F5 PUSH2 0x193D JUMP JUMPDEST CALLVALUE DUP1 ISZERO PUSH2 0x6FD JUMPI PUSH1 0x0 DUP1 REVERT JUMPDEST POP PUSH2 0x3EE PUSH2 0x70C CALLDATASIZE PUSH1 0x4 PUSH2 0x39FB JUMP JUMPDEST PUSH2 0x1995 JUMP JUMPDEST CALLVALUE DUP1 ISZERO PUSH2 0x71D JUMPI PUSH1 0x0 DUP1 REVERT JUMPDEST POP PUSH2 0x768 PUSH2 0x72C CALLDATASIZE PUSH1 0x4 PUSH2 0x36C7 JUMP JUMPDEST PUSH1 0xD2 PUSH1 0x20 MSTORE PUSH1 0x0 SWAP1 DUP2 MSTORE PUSH1 0x40 SWAP1 KECCAK256 DUP1 SLOAD PUSH1 0x1 DUP3 ADD SLOAD PUSH1 0x2 DUP4 ADD SLOAD PUSH1 0x3 SWAP1 SWAP4 ADD SLOAD PUSH1 0xFF DUP1 DUP5 AND SWAP5 PUSH2 0x100 DUP6 DIV DUP3 AND SWAP5 PUSH3 0x10000 SWAP1 DIV SWAP1 SWAP2 AND SWAP3 SWAP2 DUP7 JUMP JUMPDEST PUSH1 0x40 DUP1 MLOAD SWAP7 ISZERO ISZERO DUP8 MSTORE SWAP5 ISZERO ISZERO PUSH1 0x20 DUP8 ADD MSTORE SWAP3 ISZERO ISZERO SWAP4 DUP6 ADD SWAP4 SWAP1 SWAP4 MSTORE PUSH1 0x60 DUP5 ADD MSTORE PUSH1 0x80 DUP4 ADD SWAP2 SWAP1 SWAP2 MSTORE PUSH1 0xA0 DUP3 ADD MSTORE PUSH1 0xC0 ADD PUSH2 0x36F JUMP JUMPDEST CALLVALUE DUP1 ISZERO PUSH2 0x7A9 JUMPI PUSH1 0x0 DUP1 REVERT JUMPDEST POP PUSH1 0x33 SLOAD PUSH1 0x1 PUSH1 0x1 PUSH1 0xA0 SHL SUB AND JUMPDEST PUSH1 0x40 MLOAD PUSH1 0x1 PUSH1 0x1 PUSH1 0xA0 SHL SUB SWAP1 SWAP2 AND DUP2 MSTORE PUSH1 0x20 ADD PUSH2 0x36F JUMP JUMPDEST CALLVALUE DUP1 ISZERO PUSH2 0x7DB JUMPI PUSH1 0x0 DUP1 REVERT JUMPDEST POP PUSH2 0x365 PUSH2 0x7EA CALLDATASIZE PUSH1 0x4 PUSH2 0x36C7 JUMP JUMPDEST PUSH2 0x19C1 JUMP JUMPDEST CALLVALUE DUP1 ISZERO PUSH2 0x7FB JUMPI PUSH1 0x0 DUP1 REVERT JUMPDEST POP PUSH2 0x3EE PUSH2 0x80A CALLDATASIZE PUSH1 0x4 PUSH2 0x36C7 JUMP JUMPDEST PUSH2 0x19E2 JUMP JUMPDEST CALLVALUE DUP1 ISZERO PUSH2 0x81B JUMPI PUSH1 0x0 DUP1 REVERT JUMPDEST POP PUSH2 0x365 PUSH1 0xD9 SLOAD DUP2 JUMP JUMPDEST CALLVALUE DUP1 ISZERO PUSH2 0x831 JUMPI PUSH1 0x0 DUP1 REVERT JUMPDEST POP PUSH1 0xC9 SLOAD PUSH2 0x7B7 SWAP1 PUSH1 0x1 PUSH1 0x1 PUSH1 0xA0 SHL SUB AND DUP2 JUMP JUMPDEST CALLVALUE DUP1 ISZERO PUSH2 0x851 JUMPI PUSH1 0x0 DUP1 REVERT JUMPDEST POP PUSH2 0x865 PUSH2 0x860 CALLDATASIZE PUSH1 0x4 PUSH2 0x39D9 JUMP JUMPDEST PUSH2 0x19EF JUMP JUMPDEST PUSH1 0x40 MLOAD PUSH2 0x36F SWAP6 SWAP5 SWAP4 SWAP3 SWAP2 SWAP1 PUSH2 0x3A1F JUMP JUMPDEST CALLVALUE DUP1 ISZERO PUSH2 0x882 JUMPI PUSH1 0x0 DUP1 REVERT JUMPDEST POP PUSH2 0x3EE PUSH2 0x891 CALLDATASIZE PUSH1 0x4 PUSH2 0x3A5F JUMP JUMPDEST PUSH2 0x1AC1 JUMP JUMPDEST CALLVALUE DUP1 ISZERO PUSH2 0x8A2 JUMPI PUSH1 0x0 DUP1 REVERT JUMPDEST POP PUSH1 0xCC SLOAD PUSH2 0x8B9 SWAP1 PUSH5 0x100000000 SWAP1 DIV PUSH2 0xFFFF AND DUP2 JUMP JUMPDEST PUSH1 0x40 MLOAD PUSH2 0xFFFF SWAP1 SWAP2 AND DUP2 MSTORE PUSH1 0x20 ADD PUSH2 0x36F JUMP JUMPDEST CALLVALUE DUP1 ISZERO PUSH2 0x8D8 JUMPI PUSH1 0x0 DUP1 REVERT JUMPDEST POP PUSH2 0x365 PUSH1 0xD7 SLOAD DUP2 JUMP JUMPDEST CALLVALUE DUP1 ISZERO PUSH2 0x8EE JUMPI PUSH1 0x0 DUP1 REVERT JUMPDEST POP PUSH1 0xDC SLOAD PUSH2 0x3B3 SWAP1 PUSH1 0xFF AND DUP2 JUMP JUMPDEST CALLVALUE DUP1 ISZERO PUSH2 0x908 JUMPI PUSH1 0x0 DUP1 REVERT JUMPDEST POP PUSH2 0x3EE PUSH2 0x917 CALLDATASIZE PUSH1 0x4 PUSH2 0x36C7 JUMP JUMPDEST PUSH2 0x1AE5 JUMP JUMPDEST CALLVALUE DUP1 ISZERO PUSH2 0x928 JUMPI PUSH1 0x0 DUP1 REVERT JUMPDEST POP PUSH2 0x365 PUSH2 0x937 CALLDATASIZE PUSH1 0x4 PUSH2 0x36C7 JUMP JUMPDEST PUSH1 0x0 SWAP1 DUP2 MSTORE PUSH1 0xD3 PUSH1 0x20 MSTORE PUSH1 0x40 SWAP1 KECCAK256 SLOAD SWAP1 JUMP JUMPDEST CALLVALUE DUP1 ISZERO PUSH2 0x955 JUMPI PUSH1 0x0 DUP1 REVERT JUMPDEST POP PUSH2 0x3EE PUSH2 0x1AF2 JUMP JUMPDEST CALLVALUE DUP1 ISZERO PUSH2 0x96A JUMPI PUSH1 0x0 DUP1 REVERT JUMPDEST POP PUSH2 0x3EE PUSH2 0x979 CALLDATASIZE PUSH1 0x4 PUSH2 0x3A85 JUMP JUMPDEST PUSH2 0x1C28 JUMP JUMPDEST CALLVALUE DUP1 ISZERO PUSH2 0x98A JUMPI PUSH1 0x0 DUP1 REVERT JUMPDEST POP PUSH2 0x365 PUSH2 0x999 CALLDATASIZE PUSH1 0x4 PUSH2 0x36C7 JUMP JUMPDEST PUSH1 0xD1 PUSH1 0x20 MSTORE PUSH1 0x0 SWAP1 DUP2 MSTORE PUSH1 0x40 SWAP1 KECCAK256 SLOAD DUP2 JUMP JUMPDEST CALLVALUE DUP1 ISZERO PUSH2 0x9B7 JUMPI PUSH1 0x0 DUP1 REVERT JUMPDEST POP PUSH2 0x9CB PUSH2 0x9C6 CALLDATASIZE PUSH1 0x4 PUSH2 0x36C7 JUMP JUMPDEST PUSH2 0x1C43 JUMP JUMPDEST PUSH1 0x40 MLOAD PUSH2 0x36F SWAP3 SWAP2 SWAP1 PUSH2 0x3AA7 JUMP JUMPDEST CALLVALUE DUP1 ISZERO PUSH2 0x9E5 JUMPI PUSH1 0x0 DUP1 REVERT JUMPDEST POP PUSH2 0x365 PUSH2 0x2710 DUP2 JUMP JUMPDEST CALLVALUE DUP1 ISZERO PUSH2 0x9FB JUMPI PUSH1 0x0 DUP1 REVERT JUMPDEST POP PUSH2 0x3EE PUSH2 0x1D1D JUMP JUMPDEST CALLVALUE DUP1 ISZERO PUSH2 0xA10 JUMPI PUSH1 0x0 DUP1 REVERT JUMPDEST POP PUSH2 0x3EE PUSH2 0xA1F CALLDATASIZE PUSH1 0x4 PUSH2 0x375F JUMP JUMPDEST PUSH2 0x1E11 JUMP JUMPDEST CALLVALUE DUP1 ISZERO PUSH2 0xA30 JUMPI PUSH1 0x0 DUP1 REVERT JUMPDEST POP PUSH2 0x3EE PUSH2 0xA3F CALLDATASIZE PUSH1 0x4 PUSH2 0x3A5F JUMP JUMPDEST PUSH2 0x1E9E JUMP JUMPDEST CALLVALUE DUP1 ISZERO PUSH2 0xA50 JUMPI PUSH1 0x0 DUP1 REVERT JUMPDEST POP PUSH2 0x365 PUSH1 0xDB SLOAD DUP2 JUMP JUMPDEST CALLVALUE DUP1 ISZERO PUSH2 0xA66 JUMPI PUSH1 0x0 DUP1 REVERT JUMPDEST POP PUSH2 0x3EE PUSH2 0xA75 CALLDATASIZE PUSH1 0x4 PUSH2 0x375F JUMP JUMPDEST PUSH2 0x1F28 JUMP JUMPDEST CALLVALUE DUP1 ISZERO PUSH2 0xA86 JUMPI PUSH1 0x0 DUP1 REVERT JUMPDEST POP PUSH2 0x365 PUSH1 0xCD SLOAD DUP2 JUMP JUMPDEST PUSH2 0xA98 PUSH2 0x1F5F JUMP JUMPDEST PUSH1 0xD7 SLOAD DUP1 PUSH2 0xAED JUMPI PUSH1 0x40 MLOAD PUSH3 0x461BCD PUSH1 0xE5 SHL DUP2 MSTORE PUSH1 0x20 PUSH1 0x4 DUP3 ADD MSTORE PUSH1 0xD PUSH1 0x24 DUP3 ADD MSTORE PUSH32 0x4E6F206F776E6572206665657300000000000000000000000000000000000000 PUSH1 0x44 DUP3 ADD MSTORE PUSH1 0x64 ADD JUMPDEST PUSH1 0x40 MLOAD DUP1 SWAP2 SUB SWAP1 REVERT JUMPDEST PUSH1 0x0 PUSH1 0xD7 DUP2 SWAP1 SSTORE PUSH1 0x33 SLOAD PUSH1 0x40 MLOAD PUSH1 0x1 PUSH1 0x1 PUSH1 0xA0 SHL SUB SWAP1 SWAP2 AND SWAP1 DUP4 SWAP1 DUP4 DUP2 DUP2 DUP2 DUP6 DUP8 GAS CALL SWAP3 POP POP POP RETURNDATASIZE DUP1 PUSH1 0x0 DUP2 EQ PUSH2 0xB40 JUMPI PUSH1 0x40 MLOAD SWAP2 POP PUSH1 0x1F NOT PUSH1 0x3F RETURNDATASIZE ADD AND DUP3 ADD PUSH1 0x40 MSTORE RETURNDATASIZE DUP3 MSTORE RETURNDATASIZE PUSH1 0x0 PUSH1 0x20 DUP5 ADD RETURNDATACOPY PUSH2 0xB45 JUMP JUMPDEST PUSH1 0x60 SWAP2 POP JUMPDEST POP POP SWAP1 POP DUP1 PUSH2 0xB96 JUMPI PUSH1 0x40 MLOAD PUSH3 0x461BCD PUSH1 0xE5 SHL DUP2 MSTORE PUSH1 0x20 PUSH1 0x4 DUP3 ADD MSTORE PUSH1 0x19 PUSH1 0x24 DUP3 ADD MSTORE PUSH32 0x4F776E657220666565207472616E73666572206661696C656400000000000000 PUSH1 0x44 DUP3 ADD MSTORE PUSH1 0x64 ADD PUSH2 0xAE4 JUMP JUMPDEST PUSH1 0x33 SLOAD PUSH1 0x1 PUSH1 0x1 PUSH1 0xA0 SHL SUB AND PUSH1 0x1 PUSH1 0x1 PUSH1 0xA0 SHL SUB AND PUSH32 0x8C86225979E924F39334C49A16A32E53CA5FFE7A271A6793B57476CD62749D05 DUP4 PUSH1 0x40 MLOAD PUSH2 0xBDC SWAP2 DUP2 MSTORE PUSH1 0x20 ADD SWAP1 JUMP JUMPDEST PUSH1 0x40 MLOAD DUP1 SWAP2 SUB SWAP1 LOG2 POP POP JUMP JUMPDEST PUSH2 0xBF0 PUSH2 0x1F5F JUMP JUMPDEST PUSH1 0x0 DUP2 GT PUSH2 0xC40 JUMPI PUSH1 0x40 MLOAD PUSH3 0x461BCD PUSH1 0xE5 SHL DUP2 MSTORE PUSH1 0x20 PUSH1 0x4 DUP3 ADD MSTORE PUSH1 0x11 PUSH1 0x24 DUP3 ADD MSTORE PUSH32 0x5072696365206D757374206265203E2030000000000000000000000000000000 PUSH1 0x44 DUP3 ADD MSTORE PUSH1 0x64 ADD PUSH2 0xAE4 JUMP JUMPDEST PUSH1 0xDA SSTORE JUMP JUMPDEST PUSH1 0xC9 SLOAD PUSH1 0x1 PUSH1 0x1 PUSH1 0xA0 SHL SUB AND CALLER EQ PUSH2 0xC9F JUMPI PUSH1 0x40 MLOAD PUSH3 0x461BCD PUSH1 0xE5 SHL DUP2 MSTORE PUSH1 0x20 PUSH1 0x4 DUP3 ADD MSTORE PUSH1 0x1C PUSH1 0x24 DUP3 ADD MSTORE PUSH32 0x4F6E6C7920636F6F7264696E61746F722063616E2066756C66696C6C00000000 PUSH1 0x44 DUP3 ADD MSTORE PUSH1 0x64 ADD PUSH2 0xAE4 JUMP JUMPDEST PUSH1 0x0 DUP4 DUP2 MSTORE PUSH1 0xD0 PUSH1 0x20 MSTORE PUSH1 0x40 SWAP1 KECCAK256 SLOAD PUSH1 0xFF AND PUSH2 0xCFD JUMPI PUSH1 0x40 MLOAD PUSH3 0x461BCD PUSH1 0xE5 SHL DUP2 MSTORE PUSH1 0x20 PUSH1 0x4 DUP3 ADD MSTORE PUSH1 0x11 PUSH1 0x24 DUP3 ADD MSTORE PUSH32 0x52657175657374206E6F7420666F756E64000000000000000000000000000000 PUSH1 0x44 DUP3 ADD MSTORE PUSH1 0x64 ADD PUSH2 0xAE4 JUMP JUMPDEST PUSH1 0x0 DUP4 DUP2 MSTORE PUSH1 0xD0 PUSH1 0x20 MSTORE PUSH1 0x40 SWAP1 KECCAK256 DUP1 SLOAD PUSH2 0xFF00 NOT AND PUSH2 0x100 OR DUP2 SSTORE PUSH2 0xD26 SWAP1 PUSH1 0x1 ADD DUP4 DUP4 PUSH2 0x34C7 JUMP JUMPDEST POP PUSH2 0xD33 PUSH1 0xCE DUP4 DUP4 PUSH2 0x34C7 JUMP JUMPDEST POP PUSH1 0x0 DUP4 DUP2 MSTORE PUSH1 0xD1 PUSH1 0x20 MSTORE PUSH1 0x40 DUP2 KECCAK256 SLOAD SWAP1 DUP2 SWAP1 SUB PUSH2 0xD93 JUMPI PUSH1 0x40 MLOAD PUSH3 0x461BCD PUSH1 0xE5 SHL DUP2 MSTORE PUSH1 0x20 PUSH1 0x4 DUP3 ADD MSTORE PUSH1 0x10 PUSH1 0x24 DUP3 ADD MSTORE PUSH32 0x526F756E64206E6F74206C696E6B656400000000000000000000000000000000 PUSH1 0x44 DUP3 ADD MSTORE PUSH1 0x64 ADD PUSH2 0xAE4 JUMP JUMPDEST PUSH2 0xD9D DUP4 DUP4 PUSH2 0x1FB9 JUMP JUMPDEST PUSH2 0xDAB SWAP1 PUSH1 0xCF SWAP1 PUSH1 0x7 PUSH2 0x3512 JUMP JUMPDEST POP PUSH1 0x0 DUP2 DUP2 MSTORE PUSH1 0xD4 PUSH1 0x20 MSTORE PUSH1 0x40 SWAP1 KECCAK256 PUSH2 0xDC7 SWAP1 PUSH1 0xCF PUSH1 0x7 PUSH2 0x35A0 JUMP JUMPDEST POP PUSH32 0xFE2E2D779DBA245964D4E3EF9B994BE63856FD568BF7D3CA9E224755CB1BD54D DUP5 DUP5 DUP5 PUSH1 0x40 MLOAD PUSH2 0xDFB SWAP4 SWAP3 SWAP2 SWAP1 PUSH2 0x3AC2 JUMP JUMPDEST PUSH1 0x40 MLOAD DUP1 SWAP2 SUB SWAP1 LOG1 PUSH32 0x65A3CADF20A29471EE7BC9E1BF93B5F513A619FCFFFC0BCAB66D7CBAE1045CB1 DUP5 DUP3 PUSH1 0xCF PUSH1 0x40 MLOAD PUSH2 0xE37 SWAP4 SWAP3 SWAP2 SWAP1 PUSH2 0x3B1B JUMP JUMPDEST PUSH1 0x40 MLOAD DUP1 SWAP2 SUB SWAP1 LOG1 PUSH1 0x40 DUP1 MLOAD PUSH1 0xE0 DUP2 ADD SWAP2 DUP3 SWAP1 MSTORE PUSH2 0xE95 SWAP2 DUP4 SWAP2 SWAP1 PUSH1 0xCF SWAP1 PUSH1 0x7 SWAP1 DUP3 PUSH1 0x0 DUP6 JUMPDEST DUP3 SLOAD PUSH2 0x100 DUP4 SWAP1 EXP SWAP1 DIV PUSH1 0xFF AND DUP2 MSTORE PUSH1 0x20 PUSH1 0x1 SWAP3 DUP4 ADD DUP2 DUP2 DIV SWAP5 DUP6 ADD SWAP5 SWAP1 SWAP4 SUB SWAP1 SWAP3 MUL SWAP2 ADD DUP1 DUP5 GT PUSH2 0xE5D JUMPI SWAP1 POP POP POP POP POP POP PUSH2 0x20FC JUMP JUMPDEST POP POP POP POP JUMP JUMPDEST PUSH1 0x1 PUSH1 0x1 PUSH1 0xA0 SHL SUB PUSH32 0x0 AND ADDRESS SUB PUSH2 0xF28 JUMPI PUSH1 0x40 MLOAD PUSH3 0x461BCD PUSH1 0xE5 SHL DUP2 MSTORE PUSH1 0x20 PUSH1 0x4 DUP3 ADD MSTORE PUSH1 0x2C PUSH1 0x24 DUP3 ADD MSTORE PUSH32 0x46756E6374696F6E206D7573742062652063616C6C6564207468726F75676820 PUSH1 0x44 DUP3 ADD MSTORE PUSH12 0x19195B1959D85D1958D85B1B PUSH1 0xA2 SHL PUSH1 0x64 DUP3 ADD MSTORE PUSH1 0x84 ADD PUSH2 0xAE4 JUMP JUMPDEST PUSH32 0x0 PUSH1 0x1 PUSH1 0x1 PUSH1 0xA0 SHL SUB AND PUSH2 0xF83 PUSH32 0x360894A13BA1A3210667C828492DB98DCA3E2076CC3735A920A3CA505D382BBC SLOAD PUSH1 0x1 PUSH1 0x1 PUSH1 0xA0 SHL SUB AND SWAP1 JUMP JUMPDEST PUSH1 0x1 PUSH1 0x1 PUSH1 0xA0 SHL SUB AND EQ PUSH2 0xFEE JUMPI PUSH1 0x40 MLOAD PUSH3 0x461BCD PUSH1 0xE5 SHL DUP2 MSTORE PUSH1 0x20 PUSH1 0x4 DUP3 ADD MSTORE PUSH1 0x2C PUSH1 0x24 DUP3 ADD MSTORE PUSH32 0x46756E6374696F6E206D7573742062652063616C6C6564207468726F75676820 PUSH1 0x44 DUP3 ADD MSTORE PUSH12 0x6163746976652070726F7879 PUSH1 0xA0 SHL PUSH1 0x64 DUP3 ADD MSTORE PUSH1 0x84 ADD PUSH2 0xAE4 JUMP JUMPDEST PUSH2 0xFF7 DUP2 PUSH2 0x26DE JUMP JUMPDEST PUSH1 0x40 DUP1 MLOAD PUSH1 0x0 DUP1 DUP3 MSTORE PUSH1 0x20 DUP3 ADD SWAP1 SWAP3 MSTORE PUSH2 0x1013 SWAP2 DUP4 SWAP2 SWAP1 PUSH2 0x26E6 JUMP JUMPDEST POP JUMP JUMPDEST PUSH2 0x101E PUSH2 0x1F5F JUMP JUMPDEST PUSH1 0x0 DUP2 GT PUSH2 0x106E JUMPI PUSH1 0x40 MLOAD PUSH3 0x461BCD PUSH1 0xE5 SHL DUP2 MSTORE PUSH1 0x20 PUSH1 0x4 DUP3 ADD MSTORE PUSH1 0x14 PUSH1 0x24 DUP3 ADD MSTORE PUSH32 0x4475726174696F6E206D757374206265203E2030000000000000000000000000 PUSH1 0x44 DUP3 ADD MSTORE PUSH1 0x64 ADD PUSH2 0xAE4 JUMP JUMPDEST PUSH1 0xDB SSTORE JUMP JUMPDEST PUSH1 0xDA SLOAD CALLVALUE EQ PUSH2 0x10C4 JUMPI PUSH1 0x40 MLOAD PUSH3 0x461BCD PUSH1 0xE5 SHL DUP2 MSTORE PUSH1 0x20 PUSH1 0x4 DUP3 ADD MSTORE PUSH1 0x13 PUSH1 0x24 DUP3 ADD MSTORE PUSH32 0x496E636F727265637420656E7472792066656500000000000000000000000000 PUSH1 0x44 DUP3 ADD MSTORE PUSH1 0x64 ADD PUSH2 0xAE4 JUMP JUMPDEST PUSH2 0x10CD DUP2 PUSH2 0x288B JUMP JUMPDEST PUSH1 0xD9 SLOAD PUSH1 0x0 SWAP1 DUP2 MSTORE PUSH1 0xD2 PUSH1 0x20 MSTORE PUSH1 0x40 SWAP1 KECCAK256 DUP1 SLOAD PUSH1 0xFF AND PUSH2 0x1121 JUMPI PUSH1 0x40 MLOAD PUSH3 0x461BCD PUSH1 0xE5 SHL DUP2 MSTORE PUSH1 0x20 PUSH1 0x4 DUP3 ADD MSTORE PUSH1 0xF PUSH1 0x24 DUP3 ADD MSTORE PUSH15 0x139BC81858DD1A5D99481C9BDD5B99 PUSH1 0x8A SHL PUSH1 0x44 DUP3 ADD MSTORE PUSH1 0x64 ADD PUSH2 0xAE4 JUMP JUMPDEST DUP1 SLOAD PUSH2 0x100 SWAP1 DIV PUSH1 0xFF AND ISZERO PUSH2 0x1178 JUMPI PUSH1 0x40 MLOAD PUSH3 0x461BCD PUSH1 0xE5 SHL DUP2 MSTORE PUSH1 0x20 PUSH1 0x4 DUP3 ADD MSTORE PUSH1 0x16 PUSH1 0x24 DUP3 ADD MSTORE PUSH32 0x4472617720616C72656164792072657175657374656400000000000000000000 PUSH1 0x44 DUP3 ADD MSTORE PUSH1 0x64 ADD PUSH2 0xAE4 JUMP JUMPDEST DUP1 PUSH1 0x2 ADD SLOAD TIMESTAMP LT PUSH2 0x11CB JUMPI PUSH1 0x40 MLOAD PUSH3 0x461BCD PUSH1 0xE5 SHL DUP2 MSTORE PUSH1 0x20 PUSH1 0x4 DUP3 ADD MSTORE PUSH1 0xD PUSH1 0x24 DUP3 ADD MSTORE PUSH32 0x526F756E64206578706972656400000000000000000000000000000000000000 PUSH1 0x44 DUP3 ADD MSTORE PUSH1 0x64 ADD PUSH2 0xAE4 JUMP JUMPDEST PUSH1 0xD9 SLOAD PUSH1 0x0 SWAP1 DUP2 MSTORE PUSH1 0xD5 PUSH1 0x20 SWAP1 DUP2 MSTORE PUSH1 0x40 DUP1 DUP4 KECCAK256 CALLER DUP5 MSTORE SWAP1 SWAP2 MSTORE SWAP1 KECCAK256 SLOAD PUSH1 0xFF AND ISZERO PUSH2 0x1238 JUMPI PUSH1 0x40 MLOAD PUSH3 0x461BCD PUSH1 0xE5 SHL DUP2 MSTORE PUSH1 0x20 PUSH1 0x4 DUP3 ADD MSTORE PUSH1 0x1A PUSH1 0x24 DUP3 ADD MSTORE PUSH32 0x416C726561647920656E7465726564207468697320726F756E64000000000000 PUSH1 0x44 DUP3 ADD MSTORE PUSH1 0x64 ADD PUSH2 0xAE4 JUMP JUMPDEST PUSH1 0xD9 SLOAD PUSH1 0x0 SWAP1 DUP2 MSTORE PUSH1 0xD5 PUSH1 0x20 SWAP1 DUP2 MSTORE PUSH1 0x40 DUP1 DUP4 KECCAK256 CALLER DUP5 MSTORE SWAP1 SWAP2 MSTORE DUP2 KECCAK256 DUP1 SLOAD PUSH1 0xFF NOT AND PUSH1 0x1 OR SWAP1 SSTORE PUSH1 0x3 DUP3 ADD DUP1 SLOAD CALLVALUE SWAP3 SWAP1 PUSH2 0x1273 SWAP1 DUP5 SWAP1 PUSH2 0x3BC0 JUMP JUMPDEST SWAP1 SWAP2 SSTORE POP POP PUSH1 0xD9 SLOAD PUSH1 0x0 SWAP1 DUP2 MSTORE PUSH1 0xD3 PUSH1 0x20 SWAP1 DUP2 MSTORE PUSH1 0x40 SWAP2 DUP3 SWAP1 KECCAK256 DUP3 MLOAD PUSH1 0xA0 DUP2 ADD DUP5 MSTORE CALLER DUP2 MSTORE DUP4 MLOAD PUSH1 0xE0 DUP2 DUP2 ADD SWAP1 SWAP6 MSTORE SWAP2 SWAP4 SWAP1 SWAP3 DUP4 ADD SWAP2 SWAP1 DUP7 SWAP1 PUSH1 0x7 SWAP1 DUP4 SWAP1 DUP4 SWAP1 DUP1 DUP3 DUP5 CALLDATACOPY PUSH1 0x0 SWAP3 ADD DUP3 SWAP1 MSTORE POP SWAP3 DUP5 MSTORE POP POP PUSH1 0x20 DUP1 DUP4 ADD DUP3 SWAP1 MSTORE PUSH1 0x40 DUP4 ADD DUP3 SWAP1 MSTORE PUSH1 0x60 SWAP1 SWAP3 ADD DUP2 SWAP1 MSTORE DUP4 SLOAD PUSH1 0x1 DUP1 DUP3 ADD DUP7 SSTORE SWAP5 DUP3 MSTORE SWAP1 DUP3 SWAP1 KECCAK256 DUP4 MLOAD PUSH1 0x4 SWAP1 SWAP3 MUL ADD DUP1 SLOAD PUSH20 0xFFFFFFFFFFFFFFFFFFFFFFFFFFFFFFFFFFFFFFFF NOT AND PUSH1 0x1 PUSH1 0x1 PUSH1 0xA0 SHL SUB SWAP1 SWAP3 AND SWAP2 SWAP1 SWAP2 OR DUP2 SSTORE SWAP1 DUP3 ADD MLOAD SWAP2 SWAP3 SWAP1 SWAP2 PUSH2 0x1333 SWAP2 DUP4 ADD SWAP1 PUSH1 0x7 PUSH2 0x3512 JUMP JUMPDEST POP PUSH1 0x40 DUP3 DUP2 ADD MLOAD PUSH1 0x2 DUP4 ADD DUP1 SLOAD PUSH1 0x60 DUP7 ADD MLOAD PUSH1 0xFF AND PUSH2 0x100 MUL PUSH2 0xFF00 NOT SWAP4 ISZERO ISZERO SWAP4 SWAP1 SWAP4 AND PUSH2 0xFFFF NOT SWAP1 SWAP2 AND OR SWAP2 SWAP1 SWAP2 OR SWAP1 SSTORE PUSH1 0x80 SWAP1 SWAP3 ADD MLOAD PUSH1 0x3 SWAP1 SWAP2 ADD SSTORE PUSH1 0xD9 SLOAD PUSH1 0x0 DUP2 DUP2 MSTORE PUSH1 0xD3 PUSH1 0x20 MSTORE SWAP2 SWAP1 SWAP2 KECCAK256 SLOAD CALLER SWAP2 SWAP1 PUSH32 0x72C7C6A525D2C132932B4FC43AE4BB642B552692D21F5BEDEB662E34B564E8E8 SWAP1 PUSH2 0x13B4 SWAP1 PUSH1 0x1 SWAP1 PUSH2 0x3BD3 JUMP JUMPDEST DUP6 PUSH1 0x40 MLOAD PUSH2 0x13C3 SWAP3 SWAP2 SWAP1 PUSH2 0x3BF7 JUMP JUMPDEST PUSH1 0x40 MLOAD DUP1 SWAP2 SUB SWAP1 LOG3 POP POP JUMP JUMPDEST PUSH1 0x60 PUSH1 0xCE DUP1 SLOAD DUP1 PUSH1 0x20 MUL PUSH1 0x20 ADD PUSH1 0x40 MLOAD SWAP1 DUP2 ADD PUSH1 0x40 MSTORE DUP1 SWAP3 SWAP2 SWAP1 DUP2 DUP2 MSTORE PUSH1 0x20 ADD DUP3 DUP1 SLOAD DUP1 ISZERO PUSH2 0x141D JUMPI PUSH1 0x20 MUL DUP3 ADD SWAP2 SWAP1 PUSH1 0x0 MSTORE PUSH1 0x20 PUSH1 0x0 KECCAK256 SWAP1 JUMPDEST DUP2 SLOAD DUP2 MSTORE PUSH1 0x20 ADD SWAP1 PUSH1 0x1 ADD SWAP1 DUP1 DUP4 GT PUSH2 0x1409 JUMPI JUMPDEST POP POP POP POP POP SWAP1 POP SWAP1 JUMP JUMPDEST PUSH1 0x0 PUSH2 0x1435 DUP3 DUP5 ADD DUP5 PUSH2 0x36C7 JUMP JUMPDEST PUSH1 0xD9 SLOAD PUSH1 0x0 DUP2 DUP2 MSTORE PUSH1 0xD2 PUSH1 0x20 MSTORE PUSH1 0x40 SWAP1 KECCAK256 SWAP2 SWAP3 POP DUP3 EQ PUSH2 0x1497 JUMPI PUSH1 0x40 MLOAD PUSH3 0x461BCD PUSH1 0xE5 SHL DUP2 MSTORE PUSH1 0x20 PUSH1 0x4 DUP3 ADD MSTORE PUSH1 0xC PUSH1 0x24 DUP3 ADD MSTORE PUSH32 0x5374616C652075706B6565700000000000000000000000000000000000000000 PUSH1 0x44 DUP3 ADD MSTORE PUSH1 0x64 ADD PUSH2 0xAE4 JUMP JUMPDEST DUP1 SLOAD PUSH1 0xFF AND PUSH2 0x14DA JUMPI PUSH1 0x40 MLOAD PUSH3 0x461BCD PUSH1 0xE5 SHL DUP2 MSTORE PUSH1 0x20 PUSH1 0x4 DUP3 ADD MSTORE PUSH1 0xF PUSH1 0x24 DUP3 ADD MSTORE PUSH15 0x139BC81858DD1A5D99481C9BDD5B99 PUSH1 0x8A SHL PUSH1 0x44 DUP3 ADD MSTORE PUSH1 0x64 ADD PUSH2 0xAE4 JUMP JUMPDEST DUP1 SLOAD PUSH2 0x100 SWAP1 DIV PUSH1 0xFF AND ISZERO PUSH2 0x1531 JUMPI PUSH1 0x40 MLOAD PUSH3 0x461BCD PUSH1 0xE5 SHL DUP2 MSTORE PUSH1 0x20 PUSH1 0x4 DUP3 ADD MSTORE PUSH1 0x16 PUSH1 0x24 DUP3 ADD MSTORE PUSH32 0x4472617720616C72656164792072657175657374656400000000000000000000 PUSH1 0x44 DUP3 ADD MSTORE PUSH1 0x64 ADD PUSH2 0xAE4 JUMP JUMPDEST DUP1 PUSH1 0x2 ADD SLOAD TIMESTAMP LT ISZERO PUSH2 0x1585 JUMPI PUSH1 0x40 MLOAD PUSH3 0x461BCD PUSH1 0xE5 SHL DUP2 MSTORE PUSH1 0x20 PUSH1 0x4 DUP3 ADD MSTORE PUSH1 0x12 PUSH1 0x24 DUP3 ADD MSTORE PUSH32 0x526F756E64207374696C6C206163746976650000000000000000000000000000 PUSH1 0x44 DUP3 ADD MSTORE PUSH1 0x64 ADD PUSH2 0xAE4 JUMP JUMPDEST PUSH1 0xD9 SLOAD PUSH1 0x0 SWAP1 DUP2 MSTORE PUSH1 0xD3 PUSH1 0x20 MSTORE PUSH1 0x40 DUP2 KECCAK256 SLOAD SWAP1 SUB PUSH2 0x15A5 JUMPI PUSH2 0xE95 PUSH2 0x2A2D JUMP JUMPDEST PUSH2 0x15AD PUSH2 0x2BA0 JUMP JUMPDEST POP POP POP POP POP JUMP JUMPDEST PUSH1 0xCF DUP2 PUSH1 0x7 DUP2 LT PUSH2 0x15C4 JUMPI PUSH1 0x0 DUP1 REVERT JUMPDEST PUSH1 0x20 SWAP2 DUP3 DUP3 DIV ADD SWAP2 SWAP1 MOD SWAP2 POP SLOAD SWAP1 PUSH2 0x100 EXP SWAP1 DIV PUSH1 0xFF AND DUP2 JUMP JUMPDEST PUSH1 0x1 PUSH1 0x1 PUSH1 0xA0 SHL SUB PUSH32 0x0 AND ADDRESS SUB PUSH2 0x166B JUMPI PUSH1 0x40 MLOAD PUSH3 0x461BCD PUSH1 0xE5 SHL DUP2 MSTORE PUSH1 0x20 PUSH1 0x4 DUP3 ADD MSTORE PUSH1 0x2C PUSH1 0x24 DUP3 ADD MSTORE PUSH32 0x46756E6374696F6E206D7573742062652063616C6C6564207468726F75676820 PUSH1 0x44 DUP3 ADD MSTORE PUSH12 0x19195B1959D85D1958D85B1B PUSH1 0xA2 SHL PUSH1 0x64 DUP3 ADD MSTORE PUSH1 0x84 ADD PUSH2 0xAE4 JUMP JUMPDEST PUSH32 0x0 PUSH1 0x1 PUSH1 0x1 PUSH1 0xA0 SHL SUB AND PUSH2 0x16C6 PUSH32 0x360894A13BA1A3210667C828492DB98DCA3E2076CC3735A920A3CA505D382BBC SLOAD PUSH1 0x1 PUSH1 0x1 PUSH1 0xA0 SHL SUB AND SWAP1 JUMP JUMPDEST PUSH1 0x1 PUSH1 0x1 PUSH1 0xA0 SHL SUB AND EQ PUSH2 0x1731 JUMPI PUSH1 0x40 MLOAD PUSH3 0x461BCD PUSH1 0xE5 SHL DUP2 MSTORE PUSH1 0x20 PUSH1 0x4 DUP3 ADD MSTORE PUSH1 0x2C PUSH1 0x24 DUP3 ADD MSTORE PUSH32 0x46756E6374696F6E206D7573742062652063616C6C6564207468726F75676820 PUSH1 0x44 DUP3 ADD MSTORE PUSH12 0x6163746976652070726F7879 PUSH1 0xA0 SHL PUSH1 0x64 DUP3 ADD MSTORE PUSH1 0x84 ADD PUSH2 0xAE4 JUMP JUMPDEST PUSH2 0x173A DUP3 PUSH2 0x26DE JUMP JUMPDEST PUSH2 0x1746 DUP3 DUP3 PUSH1 0x1 PUSH2 0x26E6 JUMP JUMPDEST POP POP JUMP JUMPDEST PUSH1 0x0 ADDRESS PUSH1 0x1 PUSH1 0x1 PUSH1 0xA0 SHL SUB PUSH32 0x0 AND EQ PUSH2 0x17EA JUMPI PUSH1 0x40 MLOAD PUSH3 0x461BCD PUSH1 0xE5 SHL DUP2 MSTORE PUSH1 0x20 PUSH1 0x4 DUP3 ADD MSTORE PUSH1 0x38 PUSH1 0x24 DUP3 ADD MSTORE PUSH32 0x555550535570677261646561626C653A206D757374206E6F742062652063616C PUSH1 0x44 DUP3 ADD MSTORE PUSH32 0x6C6564207468726F7567682064656C656761746563616C6C0000000000000000 PUSH1 0x64 DUP3 ADD MSTORE PUSH1 0x84 ADD PUSH2 0xAE4 JUMP JUMPDEST POP PUSH32 0x360894A13BA1A3210667C828492DB98DCA3E2076CC3735A920A3CA505D382BBC SWAP1 JUMP JUMPDEST PUSH2 0x1817 PUSH2 0x1F5F JUMP JUMPDEST PUSH2 0x181F PUSH2 0x2DBB JUMP JUMPDEST JUMP JUMPDEST PUSH2 0x1829 PUSH2 0x35D3 JUMP JUMPDEST PUSH1 0x0 DUP3 DUP2 MSTORE PUSH1 0xD4 PUSH1 0x20 MSTORE PUSH1 0x40 DUP1 DUP3 KECCAK256 DUP2 MLOAD PUSH1 0xE0 DUP2 ADD SWAP3 DUP4 SWAP1 MSTORE SWAP3 SWAP1 SWAP2 PUSH1 0x7 SWAP2 DUP4 SWAP1 DUP6 JUMPDEST DUP3 SLOAD PUSH2 0x100 DUP4 SWAP1 EXP SWAP1 DIV PUSH1 0xFF AND DUP2 MSTORE PUSH1 0x20 PUSH1 0x1 SWAP3 DUP4 ADD DUP2 DUP2 DIV SWAP5 DUP6 ADD SWAP5 SWAP1 SWAP4 SUB SWAP1 SWAP3 MUL SWAP2 ADD DUP1 DUP5 GT PUSH2 0x184C JUMPI POP SWAP5 SWAP8 SWAP7 POP POP POP POP POP POP POP JUMP JUMPDEST PUSH1 0xD9 SLOAD PUSH1 0x0 SWAP1 DUP2 MSTORE PUSH1 0xD2 PUSH1 0x20 MSTORE PUSH1 0x40 DUP2 KECCAK256 DUP1 SLOAD PUSH1 0x60 SWAP2 SWAP1 PUSH1 0xFF AND DUP1 ISZERO PUSH2 0x18B2 JUMPI POP DUP1 SLOAD PUSH2 0x100 SWAP1 DIV PUSH1 0xFF AND ISZERO JUMPDEST DUP1 ISZERO PUSH2 0x18C2 JUMPI POP DUP1 PUSH1 0x2 ADD SLOAD TIMESTAMP LT ISZERO JUMPDEST SWAP3 POP PUSH1 0xD9 SLOAD PUSH1 0x40 MLOAD PUSH1 0x20 ADD PUSH2 0x18D9 SWAP2 DUP2 MSTORE PUSH1 0x20 ADD SWAP1 JUMP JUMPDEST PUSH1 0x40 MLOAD PUSH1 0x20 DUP2 DUP4 SUB SUB DUP2 MSTORE SWAP1 PUSH1 0x40 MSTORE SWAP2 POP POP SWAP3 POP SWAP3 SWAP1 POP JUMP JUMPDEST PUSH2 0x18FA PUSH2 0x1F5F JUMP JUMPDEST PUSH2 0x181F PUSH1 0x0 PUSH2 0x2F4F JUMP JUMPDEST PUSH1 0xD4 PUSH1 0x20 MSTORE DUP2 PUSH1 0x0 MSTORE PUSH1 0x40 PUSH1 0x0 KECCAK256 DUP2 PUSH1 0x7 DUP2 LT PUSH2 0x1920 JUMPI PUSH1 0x0 DUP1 REVERT JUMPDEST PUSH1 0x20 DUP2 DIV SWAP1 SWAP2 ADD SLOAD PUSH1 0xFF PUSH1 0x1F SWAP1 SWAP3 AND PUSH2 0x100 EXP SWAP1 DIV AND SWAP2 POP DUP3 SWAP1 POP JUMP JUMPDEST PUSH2 0x1945 PUSH2 0x35D3 JUMP JUMPDEST PUSH1 0x40 DUP1 MLOAD PUSH1 0xE0 DUP2 ADD SWAP2 DUP3 SWAP1 MSTORE SWAP1 PUSH1 0xCF SWAP1 PUSH1 0x7 SWAP1 DUP3 PUSH1 0x0 DUP6 JUMPDEST DUP3 SLOAD PUSH2 0x100 DUP4 SWAP1 EXP SWAP1 DIV PUSH1 0xFF AND DUP2 MSTORE PUSH1 0x20 PUSH1 0x1 SWAP3 DUP4 ADD DUP2 DUP2 DIV SWAP5 DUP6 ADD SWAP5 SWAP1 SWAP4 SUB SWAP1 SWAP3 MUL SWAP2 ADD DUP1 DUP5 GT PUSH2 0x195D JUMPI SWAP1 POP POP POP POP POP POP SWAP1 POP SWAP1 JUMP JUMPDEST PUSH2 0x199D PUSH2 0x1F5F JUMP JUMPDEST PUSH1 0xCC DUP1 SLOAD PUSH2 0xFFFF SWAP1 SWAP3 AND PUSH5 0x100000000 MUL PUSH6 0xFFFF00000000 NOT SWAP1 SWAP3 AND SWAP2 SWAP1 SWAP2 OR SWAP1 SSTORE JUMP JUMPDEST PUSH1 0xCE DUP2 DUP2 SLOAD DUP2 LT PUSH2 0x19D1 JUMPI PUSH1 0x0 DUP1 REVERT JUMPDEST PUSH1 0x0 SWAP2 DUP3 MSTORE PUSH1 0x20 SWAP1 SWAP2 KECCAK256 ADD SLOAD SWAP1 POP DUP2 JUMP JUMPDEST PUSH2 0x19EA PUSH2 0x1F5F JUMP JUMPDEST PUSH1 0xCB SSTORE JUMP JUMPDEST PUSH1 0x0 PUSH2 0x19F9 PUSH2 0x35D3 JUMP JUMPDEST PUSH1 0x0 DUP1 PUSH1 0x0 DUP1 PUSH1 0xD3 PUSH1 0x0 DUP10 DUP2 MSTORE PUSH1 0x20 ADD SWAP1 DUP2 MSTORE PUSH1 0x20 ADD PUSH1 0x0 KECCAK256 DUP8 DUP2 SLOAD DUP2 LT PUSH2 0x1A23 JUMPI PUSH2 0x1A23 PUSH2 0x3C3A JUMP JUMPDEST PUSH1 0x0 SWAP2 DUP3 MSTORE PUSH1 0x20 DUP3 KECCAK256 PUSH1 0x4 SWAP1 SWAP2 MUL ADD DUP1 SLOAD PUSH1 0x2 DUP3 ADD SLOAD PUSH1 0x3 DUP4 ADD SLOAD PUSH1 0x40 DUP1 MLOAD PUSH1 0xE0 DUP2 ADD SWAP2 DUP3 SWAP1 MSTORE SWAP5 SWAP7 POP PUSH1 0x1 PUSH1 0x1 PUSH1 0xA0 SHL SUB SWAP1 SWAP4 AND SWAP5 PUSH1 0x1 DUP8 ADD SWAP5 PUSH1 0xFF DUP1 DUP6 AND SWAP6 PUSH2 0x100 SWAP1 SWAP6 DIV AND SWAP4 SWAP1 SWAP2 DUP7 SWAP2 PUSH1 0x7 SWAP2 DUP4 SWAP1 DUP6 JUMPDEST DUP3 SLOAD PUSH2 0x100 DUP4 SWAP1 EXP SWAP1 DIV PUSH1 0xFF AND DUP2 MSTORE PUSH1 0x20 PUSH1 0x1 SWAP3 DUP4 ADD DUP2 DUP2 DIV SWAP5 DUP6 ADD SWAP5 SWAP1 SWAP4 SUB SWAP1 SWAP3 MUL SWAP2 ADD DUP1 DUP5 GT PUSH2 0x1A77 JUMPI SWAP1 POP POP POP POP POP POP SWAP4 POP SWAP6 POP SWAP6 POP SWAP6 POP SWAP6 POP SWAP6 POP POP SWAP3 SWAP6 POP SWAP3 SWAP6 SWAP1 SWAP4 POP JUMP JUMPDEST PUSH2 0x1AC9 PUSH2 0x1F5F JUMP JUMPDEST PUSH1 0xCC DUP1 SLOAD PUSH4 0xFFFFFFFF NOT AND PUSH4 0xFFFFFFFF SWAP3 SWAP1 SWAP3 AND SWAP2 SWAP1 SWAP2 OR SWAP1 SSTORE JUMP JUMPDEST PUSH2 0x1AED PUSH2 0x1F5F JUMP JUMPDEST PUSH1 0xCA SSTORE JUMP JUMPDEST CALLER PUSH1 0x0 SWAP1 DUP2 MSTORE PUSH1 0xD6 PUSH1 0x20 MSTORE PUSH1 0x40 SWAP1 KECCAK256 SLOAD DUP1 PUSH2 0x1B4F JUMPI PUSH1 0x40 MLOAD PUSH3 0x461BCD PUSH1 0xE5 SHL DUP2 MSTORE PUSH1 0x20 PUSH1 0x4 DUP3 ADD MSTORE PUSH1 0x13 PUSH1 0x24 DUP3 ADD MSTORE PUSH32 0x4E6F2072657761726420617661696C61626C6500000000000000000000000000 PUSH1 0x44 DUP3 ADD MSTORE PUSH1 0x64 ADD PUSH2 0xAE4 JUMP JUMPDEST CALLER PUSH1 0x0 DUP2 DUP2 MSTORE PUSH1 0xD6 PUSH1 0x20 MSTORE PUSH1 0x40 DUP1 DUP3 KECCAK256 DUP3 SWAP1 SSTORE MLOAD SWAP1 SWAP2 SWAP1 DUP4 SWAP1 DUP4 DUP2 DUP2 DUP2 DUP6 DUP8 GAS CALL SWAP3 POP POP POP RETURNDATASIZE DUP1 PUSH1 0x0 DUP2 EQ PUSH2 0x1BA0 JUMPI PUSH1 0x40 MLOAD SWAP2 POP PUSH1 0x1F NOT PUSH1 0x3F RETURNDATASIZE ADD AND DUP3 ADD PUSH1 0x40 MSTORE RETURNDATASIZE DUP3 MSTORE RETURNDATASIZE PUSH1 0x0 PUSH1 0x20 DUP5 ADD RETURNDATACOPY PUSH2 0x1BA5 JUMP JUMPDEST PUSH1 0x60 SWAP2 POP JUMPDEST POP POP SWAP1 POP DUP1 PUSH2 0x1BF6 JUMPI PUSH1 0x40 MLOAD PUSH3 0x461BCD PUSH1 0xE5 SHL DUP2 MSTORE PUSH1 0x20 PUSH1 0x4 DUP3 ADD MSTORE PUSH1 0x16 PUSH1 0x24 DUP3 ADD MSTORE PUSH32 0x526577617264207472616E73666572206661696C656400000000000000000000 PUSH1 0x44 DUP3 ADD MSTORE PUSH1 0x64 ADD PUSH2 0xAE4 JUMP JUMPDEST PUSH1 0x40 MLOAD DUP3 DUP2 MSTORE CALLER SWAP1 PUSH32 0x1D3EEE4CA001CFF39EEC6EC7615AACF2F2BD61791273830728BA00CCBD6E1337 SWAP1 PUSH1 0x20 ADD PUSH2 0xBDC JUMP JUMPDEST PUSH2 0x1C30 PUSH2 0x1F5F JUMP JUMPDEST PUSH1 0xDC DUP1 SLOAD PUSH1 0xFF NOT AND SWAP2 ISZERO ISZERO SWAP2 SWAP1 SWAP2 OR SWAP1 SSTORE JUMP JUMPDEST PUSH1 0x0 DUP2 DUP2 MSTORE PUSH1 0xD0 PUSH1 0x20 MSTORE PUSH1 0x40 DUP2 KECCAK256 SLOAD PUSH1 0x60 SWAP1 PUSH1 0xFF AND PUSH2 0x1CA4 JUMPI PUSH1 0x40 MLOAD PUSH3 0x461BCD PUSH1 0xE5 SHL DUP2 MSTORE PUSH1 0x20 PUSH1 0x4 DUP3 ADD MSTORE PUSH1 0x11 PUSH1 0x24 DUP3 ADD MSTORE PUSH32 0x52657175657374206E6F7420666F756E64000000000000000000000000000000 PUSH1 0x44 DUP3 ADD MSTORE PUSH1 0x64 ADD PUSH2 0xAE4 JUMP JUMPDEST PUSH1 0x0 DUP4 DUP2 MSTORE PUSH1 0xD0 PUSH1 0x20 SWAP1 DUP2 MSTORE PUSH1 0x40 SWAP2 DUP3 SWAP1 KECCAK256 DUP1 SLOAD PUSH1 0x1 DUP3 ADD DUP1 SLOAD DUP6 MLOAD DUP2 DUP7 MUL DUP2 ADD DUP7 ADD SWAP1 SWAP7 MSTORE DUP1 DUP7 MSTORE SWAP3 SWAP5 PUSH2 0x100 SWAP1 SWAP3 DIV PUSH1 0xFF AND SWAP4 SWAP1 SWAP3 DUP4 SWAP2 DUP4 ADD DUP3 DUP3 DUP1 ISZERO PUSH2 0x1D0C JUMPI PUSH1 0x20 MUL DUP3 ADD SWAP2 SWAP1 PUSH1 0x0 MSTORE PUSH1 0x20 PUSH1 0x0 KECCAK256 SWAP1 JUMPDEST DUP2 SLOAD DUP2 MSTORE PUSH1 0x20 ADD SWAP1 PUSH1 0x1 ADD SWAP1 DUP1 DUP4 GT PUSH2 0x1CF8 JUMPI JUMPDEST POP POP POP POP POP SWAP1 POP SWAP3 POP SWAP3 POP POP SWAP2 POP SWAP2 JUMP JUMPDEST PUSH1 0x0 SLOAD PUSH1 0x3 SWAP1 PUSH2 0x100 SWAP1 DIV PUSH1 0xFF AND ISZERO DUP1 ISZERO PUSH2 0x1D3F JUMPI POP PUSH1 0x0 SLOAD PUSH1 0xFF DUP1 DUP4 AND SWAP2 AND LT JUMPDEST PUSH2 0x1DB1 JUMPI PUSH1 0x40 MLOAD PUSH3 0x461BCD PUSH1 0xE5 SHL DUP2 MSTORE PUSH1 0x20 PUSH1 0x4 DUP3 ADD MSTORE PUSH1 0x2E PUSH1 0x24 DUP3 ADD MSTORE PUSH32 0x496E697469616C697A61626C653A20636F6E747261637420697320616C726561 PUSH1 0x44 DUP3 ADD MSTORE PUSH32 0x647920696E697469616C697A6564000000000000000000000000000000000000 PUSH1 0x64 DUP3 ADD MSTORE PUSH1 0x84 ADD PUSH2 0xAE4 JUMP JUMPDEST PUSH1 0x0 DUP1 SLOAD PUSH2 0xFFFF NOT AND PUSH1 0xFF DUP4 AND OR PUSH2 0x100 OR SWAP1 SSTORE PUSH2 0x1DCD PUSH2 0x2FAE JUMP JUMPDEST PUSH1 0x0 DUP1 SLOAD PUSH2 0xFF00 NOT AND SWAP1 SSTORE PUSH1 0x40 MLOAD PUSH1 0xFF DUP3 AND DUP2 MSTORE PUSH32 0x7F26B83FF96E1F2B6A682F133852F6798A09C465DA95921460CEFB3847402498 SWAP1 PUSH1 0x20 ADD PUSH1 0x40 MLOAD DUP1 SWAP2 SUB SWAP1 LOG1 POP JUMP JUMPDEST PUSH2 0x1E19 PUSH2 0x1F5F JUMP JUMPDEST PUSH1 0x1 PUSH1 0x1 PUSH1 0xA0 SHL SUB DUP2 AND PUSH2 0x1E95 JUMPI PUSH1 0x40 MLOAD PUSH3 0x461BCD PUSH1 0xE5 SHL DUP2 MSTORE PUSH1 0x20 PUSH1 0x4 DUP3 ADD MSTORE PUSH1 0x26 PUSH1 0x24 DUP3 ADD MSTORE PUSH32 0x4F776E61626C653A206E6577206F776E657220697320746865207A65726F2061 PUSH1 0x44 DUP3 ADD MSTORE PUSH32 0x6464726573730000000000000000000000000000000000000000000000000000 PUSH1 0x64 DUP3 ADD MSTORE PUSH1 0x84 ADD PUSH2 0xAE4 JUMP JUMPDEST PUSH2 0x1013 DUP2 PUSH2 0x2F4F JUMP JUMPDEST PUSH2 0x1EA6 PUSH2 0x1F5F JUMP JUMPDEST PUSH1 0x0 DUP2 PUSH4 0xFFFFFFFF AND GT PUSH2 0x1EFC JUMPI PUSH1 0x40 MLOAD PUSH3 0x461BCD PUSH1 0xE5 SHL DUP2 MSTORE PUSH1 0x20 PUSH1 0x4 DUP3 ADD MSTORE PUSH1 0x14 PUSH1 0x24 DUP3 ADD MSTORE PUSH32 0x6E756D576F726473206D757374206265203E2030000000000000000000000000 PUSH1 0x44 DUP3 ADD MSTORE PUSH1 0x64 ADD PUSH2 0xAE4 JUMP JUMPDEST PUSH1 0xCC DUP1 SLOAD PUSH4 0xFFFFFFFF SWAP1 SWAP3 AND PUSH7 0x1000000000000 MUL PUSH10 0xFFFFFFFF000000000000 NOT SWAP1 SWAP3 AND SWAP2 SWAP1 SWAP2 OR SWAP1 SSTORE JUMP JUMPDEST PUSH2 0x1F30 PUSH2 0x1F5F JUMP JUMPDEST PUSH1 0xC9 DUP1 SLOAD PUSH20 0xFFFFFFFFFFFFFFFFFFFFFFFFFFFFFFFFFFFFFFFF NOT AND PUSH1 0x1 PUSH1 0x1 PUSH1 0xA0 SHL SUB SWAP3 SWAP1 SWAP3 AND SWAP2 SWAP1 SWAP2 OR SWAP1 SSTORE JUMP JUMPDEST PUSH1 0x33 SLOAD PUSH1 0x1 PUSH1 0x1 PUSH1 0xA0 SHL SUB AND CALLER EQ PUSH2 0x181F JUMPI PUSH1 0x40 MLOAD PUSH3 0x461BCD PUSH1 0xE5 SHL DUP2 MSTORE PUSH1 0x20 PUSH1 0x4 DUP3 ADD DUP2 SWAP1 MSTORE PUSH1 0x24 DUP3 ADD MSTORE PUSH32 0x4F776E61626C653A2063616C6C6572206973206E6F7420746865206F776E6572 PUSH1 0x44 DUP3 ADD MSTORE PUSH1 0x64 ADD PUSH2 0xAE4 JUMP JUMPDEST PUSH2 0x1FC1 PUSH2 0x35D3 JUMP JUMPDEST PUSH2 0x1FC9 PUSH2 0x35F1 JUMP JUMPDEST PUSH1 0x0 DUP1 JUMPDEST PUSH1 0x7 DUP3 LT ISZERO PUSH2 0x20E9 JUMPI PUSH1 0x0 JUMPDEST DUP6 DUP2 LT DUP1 ISZERO PUSH2 0x1FE8 JUMPI POP PUSH1 0x7 DUP4 LT JUMPDEST ISZERO PUSH2 0x20E3 JUMPI PUSH1 0x0 PUSH1 0x31 DUP9 DUP9 DUP5 DUP2 DUP2 LT PUSH2 0x2003 JUMPI PUSH2 0x2003 PUSH2 0x3C3A JUMP JUMPDEST SWAP1 POP PUSH1 0x20 MUL ADD CALLDATALOAD DUP5 PUSH1 0x40 MLOAD PUSH1 0x20 ADD PUSH2 0x2025 SWAP3 SWAP2 SWAP1 SWAP2 DUP3 MSTORE PUSH1 0x20 DUP3 ADD MSTORE PUSH1 0x40 ADD SWAP1 JUMP JUMPDEST PUSH1 0x40 MLOAD PUSH1 0x20 DUP2 DUP4 SUB SUB DUP2 MSTORE SWAP1 PUSH1 0x40 MSTORE DUP1 MLOAD SWAP1 PUSH1 0x20 ADD KECCAK256 PUSH1 0x0 SHR PUSH2 0x2048 SWAP2 SWAP1 PUSH2 0x3C66 JUMP JUMPDEST PUSH2 0x2053 SWAP1 PUSH1 0x1 PUSH2 0x3BC0 JUMP JUMPDEST SWAP1 POP DUP5 DUP2 PUSH1 0xFF AND PUSH1 0x32 DUP2 LT PUSH2 0x206A JUMPI PUSH2 0x206A PUSH2 0x3C3A JUMP JUMPDEST PUSH1 0x20 MUL ADD MLOAD PUSH2 0x20C2 JUMPI PUSH1 0x1 DUP6 DUP3 PUSH1 0xFF AND PUSH1 0x32 DUP2 LT PUSH2 0x208A JUMPI PUSH2 0x208A PUSH2 0x3C3A JUMP JUMPDEST SWAP2 ISZERO ISZERO PUSH1 0x20 SWAP1 SWAP3 MUL ADD MSTORE DUP1 DUP7 DUP6 PUSH1 0x7 DUP2 LT PUSH2 0x20A7 JUMPI PUSH2 0x20A7 PUSH2 0x3C3A JUMP JUMPDEST PUSH1 0xFF SWAP1 SWAP3 AND PUSH1 0x20 SWAP3 SWAP1 SWAP3 MUL ADD MSTORE DUP4 PUSH2 0x20BE DUP2 PUSH2 0x3C7A JUMP JUMPDEST SWAP5 POP POP JUMPDEST DUP3 PUSH2 0x20CC DUP2 PUSH2 0x3C7A JUMP JUMPDEST SWAP4 POP POP POP DUP1 DUP1 PUSH2 0x20DB SWAP1 PUSH2 0x3C7A JUMP JUMPDEST SWAP2 POP POP PUSH2 0x1FD9 JUMP JUMPDEST POP PUSH2 0x1FCD JUMP JUMPDEST PUSH2 0x20F2 DUP5 PUSH2 0x3034 JUMP JUMPDEST POP POP POP JUMPDEST SWAP3 SWAP2 POP POP JUMP JUMPDEST PUSH1 0x0 DUP3 DUP2 MSTORE PUSH1 0xD2 PUSH1 0x20 MSTORE PUSH1 0x40 SWAP1 KECCAK256 DUP1 SLOAD PUSH1 0xFF AND PUSH2 0x215B JUMPI PUSH1 0x40 MLOAD PUSH3 0x461BCD PUSH1 0xE5 SHL DUP2 MSTORE PUSH1 0x20 PUSH1 0x4 DUP3 ADD MSTORE PUSH1 0x10 PUSH1 0x24 DUP3 ADD MSTORE PUSH32 0x526F756E64206E6F742061637469766500000000000000000000000000000000 PUSH1 0x44 DUP3 ADD MSTORE PUSH1 0x64 ADD PUSH2 0xAE4 JUMP JUMPDEST DUP1 SLOAD PUSH2 0x100 SWAP1 DIV PUSH1 0xFF AND PUSH2 0x21B1 JUMPI PUSH1 0x40 MLOAD PUSH3 0x461BCD PUSH1 0xE5 SHL DUP2 MSTORE PUSH1 0x20 PUSH1 0x4 DUP3 ADD MSTORE PUSH1 0x12 PUSH1 0x24 DUP3 ADD MSTORE PUSH32 0x44726177206E6F74207265717565737465640000000000000000000000000000 PUSH1 0x44 DUP3 ADD MSTORE PUSH1 0x64 ADD PUSH2 0xAE4 JUMP JUMPDEST DUP1 SLOAD PUSH3 0x10000 SWAP1 DIV PUSH1 0xFF AND ISZERO PUSH2 0x2209 JUMPI PUSH1 0x40 MLOAD PUSH3 0x461BCD PUSH1 0xE5 SHL DUP2 MSTORE PUSH1 0x20 PUSH1 0x4 DUP3 ADD MSTORE PUSH1 0x15 PUSH1 0x24 DUP3 ADD MSTORE PUSH32 0x526F756E6420616C726561647920736574746C65640000000000000000000000 PUSH1 0x44 DUP3 ADD MSTORE PUSH1 0x64 ADD PUSH2 0xAE4 JUMP JUMPDEST PUSH1 0x0 DUP4 DUP2 MSTORE PUSH1 0xD3 PUSH1 0x20 MSTORE PUSH1 0x40 SWAP1 KECCAK256 DUP1 SLOAD PUSH2 0x2221 PUSH2 0x3610 JUMP JUMPDEST PUSH1 0x0 JUMPDEST DUP3 DUP2 LT ISZERO PUSH2 0x2327 JUMPI PUSH1 0x0 PUSH2 0x22A6 DUP6 DUP4 DUP2 SLOAD DUP2 LT PUSH2 0x2243 JUMPI PUSH2 0x2243 PUSH2 0x3C3A JUMP JUMPDEST PUSH1 0x0 SWAP2 DUP3 MSTORE PUSH1 0x20 DUP3 KECCAK256 PUSH1 0x40 DUP1 MLOAD PUSH1 0xE0 DUP2 ADD SWAP2 DUP3 SWAP1 MSTORE SWAP4 PUSH1 0x4 SWAP1 SWAP4 MUL SWAP1 SWAP2 ADD PUSH1 0x1 ADD SWAP2 PUSH1 0x7 SWAP2 SWAP1 DUP4 SWAP1 DUP6 JUMPDEST DUP3 SLOAD PUSH2 0x100 DUP4 SWAP1 EXP SWAP1 DIV PUSH1 0xFF AND DUP2 MSTORE PUSH1 0x20 PUSH1 0x1 SWAP3 DUP4 ADD DUP2 DUP2 DIV SWAP5 DUP6 ADD SWAP5 SWAP1 SWAP4 SUB SWAP1 SWAP3 MUL SWAP2 ADD DUP1 DUP5 GT PUSH2 0x226D JUMPI SWAP1 POP POP POP POP POP POP DUP9 PUSH2 0x312B JUMP JUMPDEST SWAP1 POP DUP1 DUP6 DUP4 DUP2 SLOAD DUP2 LT PUSH2 0x22BB JUMPI PUSH2 0x22BB PUSH2 0x3C3A JUMP JUMPDEST PUSH1 0x0 SWAP2 DUP3 MSTORE PUSH1 0x20 SWAP1 SWAP2 KECCAK256 PUSH1 0x4 SWAP1 SWAP2 MUL ADD PUSH1 0x2 SWAP1 DUP2 ADD DUP1 SLOAD PUSH2 0xFF00 NOT AND PUSH2 0x100 PUSH1 0xFF SWAP5 DUP6 AND MUL OR SWAP1 SSTORE SWAP1 DUP3 AND LT PUSH2 0x2314 JUMPI DUP3 DUP2 PUSH1 0xFF AND PUSH1 0x8 DUP2 LT PUSH2 0x2300 JUMPI PUSH2 0x2300 PUSH2 0x3C3A JUMP JUMPDEST PUSH1 0x20 MUL ADD DUP1 MLOAD SWAP1 PUSH2 0x2310 DUP3 PUSH2 0x3C7A JUMP JUMPDEST SWAP1 MSTORE POP JUMPDEST POP DUP1 PUSH2 0x231F DUP2 PUSH2 0x3C7A JUMP JUMPDEST SWAP2 POP POP PUSH2 0x2224 JUMP JUMPDEST POP PUSH1 0x0 PUSH2 0x2710 PUSH2 0x3E8 DUP7 PUSH1 0x3 ADD SLOAD PUSH2 0x233F SWAP2 SWAP1 PUSH2 0x3C93 JUMP JUMPDEST PUSH2 0x2349 SWAP2 SWAP1 PUSH2 0x3CAA JUMP JUMPDEST SWAP1 POP PUSH1 0x0 DUP2 DUP7 PUSH1 0x3 ADD SLOAD PUSH2 0x235D SWAP2 SWAP1 PUSH2 0x3BD3 JUMP JUMPDEST SWAP1 POP PUSH1 0x0 PUSH2 0x2369 PUSH2 0x3610 JUMP JUMPDEST PUSH1 0x64 PUSH2 0x2376 DUP5 PUSH1 0x5 PUSH2 0x3C93 JUMP JUMPDEST PUSH2 0x2380 SWAP2 SWAP1 PUSH2 0x3CAA JUMP JUMPDEST PUSH1 0x40 DUP3 ADD MSTORE PUSH1 0x64 PUSH2 0x2392 DUP5 PUSH1 0xA PUSH2 0x3C93 JUMP JUMPDEST PUSH2 0x239C SWAP2 SWAP1 PUSH2 0x3CAA JUMP JUMPDEST PUSH1 0x60 DUP3 ADD MSTORE PUSH1 0x64 PUSH2 0x23AE DUP5 PUSH1 0xF PUSH2 0x3C93 JUMP JUMPDEST PUSH2 0x23B8 SWAP2 SWAP1 PUSH2 0x3CAA JUMP JUMPDEST PUSH1 0x80 DUP3 ADD MSTORE PUSH1 0x64 PUSH2 0x23CA DUP5 PUSH1 0x14 PUSH2 0x3C93 JUMP JUMPDEST PUSH2 0x23D4 SWAP2 SWAP1 PUSH2 0x3CAA JUMP JUMPDEST PUSH1 0xA0 DUP3 ADD MSTORE PUSH1 0x64 PUSH2 0x23E6 DUP5 PUSH1 0x14 PUSH2 0x3C93 JUMP JUMPDEST PUSH2 0x23F0 SWAP2 SWAP1 PUSH2 0x3CAA JUMP JUMPDEST PUSH1 0xC0 DUP3 ADD MSTORE PUSH1 0x64 PUSH2 0x2402 DUP5 PUSH1 0x1E PUSH2 0x3C93 JUMP JUMPDEST PUSH2 0x240C SWAP2 SWAP1 PUSH2 0x3CAA JUMP JUMPDEST PUSH1 0xE0 DUP3 ADD MSTORE PUSH2 0x2419 PUSH2 0x3610 JUMP JUMPDEST PUSH1 0x2 JUMPDEST PUSH1 0x7 DUP2 PUSH1 0xFF AND GT PUSH2 0x24DF JUMPI PUSH1 0x0 DUP8 DUP3 PUSH1 0xFF AND PUSH1 0x8 DUP2 LT PUSH2 0x243E JUMPI PUSH2 0x243E PUSH2 0x3C3A JUMP JUMPDEST PUSH1 0x20 MUL ADD MLOAD GT ISZERO PUSH2 0x24A6 JUMPI DUP7 DUP2 PUSH1 0xFF AND PUSH1 0x8 DUP2 LT PUSH2 0x245E JUMPI PUSH2 0x245E PUSH2 0x3C3A JUMP JUMPDEST PUSH1 0x20 MUL ADD MLOAD DUP4 DUP3 PUSH1 0xFF AND PUSH1 0x8 DUP2 LT PUSH2 0x2478 JUMPI PUSH2 0x2478 PUSH2 0x3C3A JUMP JUMPDEST PUSH1 0x20 MUL ADD MLOAD PUSH2 0x2487 SWAP2 SWAP1 PUSH2 0x3CAA JUMP JUMPDEST DUP3 DUP3 PUSH1 0xFF AND PUSH1 0x8 DUP2 LT PUSH2 0x249C JUMPI PUSH2 0x249C PUSH2 0x3C3A JUMP JUMPDEST PUSH1 0x20 MUL ADD MSTORE PUSH2 0x24CD JUMP JUMPDEST DUP3 DUP2 PUSH1 0xFF AND PUSH1 0x8 DUP2 LT PUSH2 0x24BB JUMPI PUSH2 0x24BB PUSH2 0x3C3A JUMP JUMPDEST PUSH1 0x20 MUL ADD MLOAD PUSH2 0x24CA SWAP1 DUP6 PUSH2 0x3BC0 JUMP JUMPDEST SWAP4 POP JUMPDEST DUP1 PUSH2 0x24D7 DUP2 PUSH2 0x3CBE JUMP JUMPDEST SWAP2 POP POP PUSH2 0x241C JUMP JUMPDEST POP PUSH1 0x0 JUMPDEST DUP8 DUP2 LT ISZERO PUSH2 0x264B JUMPI PUSH1 0x0 DUP10 DUP3 DUP2 SLOAD DUP2 LT PUSH2 0x24FF JUMPI PUSH2 0x24FF PUSH2 0x3C3A JUMP JUMPDEST PUSH1 0x0 SWAP2 DUP3 MSTORE PUSH1 0x20 SWAP1 SWAP2 KECCAK256 PUSH1 0x2 PUSH1 0x4 SWAP1 SWAP3 MUL ADD DUP2 ADD SLOAD PUSH1 0xFF PUSH2 0x100 SWAP1 SWAP2 DIV AND SWAP2 POP DUP2 LT PUSH2 0x2638 JUMPI PUSH1 0x0 DUP4 DUP3 PUSH1 0xFF AND PUSH1 0x8 DUP2 LT PUSH2 0x253C JUMPI PUSH2 0x253C PUSH2 0x3C3A JUMP JUMPDEST PUSH1 0x20 MUL ADD MLOAD SWAP1 POP DUP1 DUP12 DUP5 DUP2 SLOAD DUP2 LT PUSH2 0x2556 JUMPI PUSH2 0x2556 PUSH2 0x3C3A JUMP JUMPDEST SWAP1 PUSH1 0x0 MSTORE PUSH1 0x20 PUSH1 0x0 KECCAK256 SWAP1 PUSH1 0x4 MUL ADD PUSH1 0x3 ADD DUP2 SWAP1 SSTORE POP DUP1 PUSH1 0xD6 PUSH1 0x0 DUP14 DUP7 DUP2 SLOAD DUP2 LT PUSH2 0x2582 JUMPI PUSH2 0x2582 PUSH2 0x3C3A JUMP JUMPDEST PUSH1 0x0 SWAP2 DUP3 MSTORE PUSH1 0x20 DUP1 DUP4 KECCAK256 PUSH1 0x4 SWAP1 SWAP3 MUL SWAP1 SWAP2 ADD SLOAD PUSH1 0x1 PUSH1 0x1 PUSH1 0xA0 SHL SUB AND DUP4 MSTORE DUP3 ADD SWAP3 SWAP1 SWAP3 MSTORE PUSH1 0x40 ADD DUP2 KECCAK256 DUP1 SLOAD SWAP1 SWAP2 SWAP1 PUSH2 0x25BB SWAP1 DUP5 SWAP1 PUSH2 0x3BC0 JUMP JUMPDEST SWAP3 POP POP DUP2 SWAP1 SSTORE POP DUP11 DUP4 DUP2 SLOAD DUP2 LT PUSH2 0x25D4 JUMPI PUSH2 0x25D4 PUSH2 0x3C3A JUMP JUMPDEST PUSH1 0x0 SWAP2 DUP3 MSTORE PUSH1 0x20 SWAP2 DUP3 SWAP1 KECCAK256 PUSH1 0x4 SWAP1 SWAP2 MUL ADD SLOAD PUSH1 0x40 DUP1 MLOAD DUP7 DUP2 MSTORE PUSH1 0xFF DUP7 AND SWAP4 DUP2 ADD SWAP4 SWAP1 SWAP4 MSTORE DUP3 ADD DUP4 SWAP1 MSTORE PUSH1 0x1 PUSH1 0x1 PUSH1 0xA0 SHL SUB AND SWAP1 DUP16 SWAP1 PUSH32 0xAF8D69C5BF84763F900B51E0405FDC2AD4EAF8B44698617A07AE9C31BC41204C SWAP1 PUSH1 0x60 ADD PUSH1 0x40 MLOAD DUP1 SWAP2 SUB SWAP1 LOG3 POP JUMPDEST POP DUP1 PUSH2 0x2643 DUP2 PUSH2 0x3C7A JUMP JUMPDEST SWAP2 POP POP PUSH2 0x24E3 JUMP JUMPDEST POP DUP5 PUSH1 0xD7 PUSH1 0x0 DUP3 DUP3 SLOAD PUSH2 0x265E SWAP2 SWAP1 PUSH2 0x3BC0 JUMP JUMPDEST SWAP3 POP POP DUP2 SWAP1 SSTORE POP DUP3 PUSH1 0xD8 PUSH1 0x0 DUP3 DUP3 SLOAD PUSH2 0x2677 SWAP2 SWAP1 PUSH2 0x3BC0 JUMP JUMPDEST SWAP1 SWAP2 SSTORE POP POP DUP9 SLOAD PUSH3 0xFF00FF NOT AND PUSH3 0x10000 OR DUP10 SSTORE PUSH1 0x40 MLOAD DUP12 SWAP1 PUSH32 0xB8CA8B8466FCA767994635DC37682D654DA89BF89D11DE69E1025CCDB2CDFEE5 SWAP1 PUSH2 0x26C1 SWAP1 DUP14 SWAP1 DUP10 SWAP1 DUP9 SWAP1 PUSH2 0x3CDD JUMP JUMPDEST PUSH1 0x40 MLOAD DUP1 SWAP2 SUB SWAP1 LOG2 PUSH2 0x26D1 PUSH2 0x2DBB JUMP JUMPDEST POP POP POP POP POP POP POP POP POP POP POP JUMP JUMPDEST PUSH2 0x1013 PUSH2 0x1F5F JUMP JUMPDEST PUSH32 0x4910FDFA16FED3260ED0E7147F7CC6DA11A60208B5B9406D12A635614FFD9143 SLOAD PUSH1 0xFF AND ISZERO PUSH2 0x271E JUMPI PUSH2 0x2719 DUP4 PUSH2 0x31AA JUMP JUMPDEST POP POP POP JUMP JUMPDEST DUP3 PUSH1 0x1 PUSH1 0x1 PUSH1 0xA0 SHL SUB AND PUSH4 0x52D1902D PUSH1 0x40 MLOAD DUP2 PUSH4 0xFFFFFFFF AND PUSH1 0xE0 SHL DUP2 MSTORE PUSH1 0x4 ADD PUSH1 0x20 PUSH1 0x40 MLOAD DUP1 DUP4 SUB DUP2 DUP7 GAS STATICCALL SWAP3 POP POP POP DUP1 ISZERO PUSH2 0x2778 JUMPI POP PUSH1 0x40 DUP1 MLOAD PUSH1 0x1F RETURNDATASIZE SWAP1 DUP2 ADD PUSH1 0x1F NOT AND DUP3 ADD SWAP1 SWAP3 MSTORE PUSH2 0x2775 SWAP2 DUP2 ADD SWAP1 PUSH2 0x3CFE JUMP JUMPDEST PUSH1 0x1 JUMPDEST PUSH2 0x27EA JUMPI PUSH1 0x40 MLOAD PUSH3 0x461BCD PUSH1 0xE5 SHL DUP2 MSTORE PUSH1 0x20 PUSH1 0x4 DUP3 ADD MSTORE PUSH1 0x2E PUSH1 0x24 DUP3 ADD MSTORE PUSH32 0x45524331393637557067726164653A206E657720696D706C656D656E74617469 PUSH1 0x44 DUP3 ADD MSTORE PUSH32 0x6F6E206973206E6F742055555053000000000000000000000000000000000000 PUSH1 0x64 DUP3 ADD MSTORE PUSH1 0x84 ADD PUSH2 0xAE4 JUMP JUMPDEST PUSH32 0x360894A13BA1A3210667C828492DB98DCA3E2076CC3735A920A3CA505D382BBC DUP2 EQ PUSH2 0x287F JUMPI PUSH1 0x40 MLOAD PUSH3 0x461BCD PUSH1 0xE5 SHL DUP2 MSTORE PUSH1 0x20 PUSH1 0x4 DUP3 ADD MSTORE PUSH1 0x29 PUSH1 0x24 DUP3 ADD MSTORE PUSH32 0x45524331393637557067726164653A20756E737570706F727465642070726F78 PUSH1 0x44 DUP3 ADD MSTORE PUSH32 0x6961626C65555549440000000000000000000000000000000000000000000000 PUSH1 0x64 DUP3 ADD MSTORE PUSH1 0x84 ADD PUSH2 0xAE4 JUMP JUMPDEST POP PUSH2 0x2719 DUP4 DUP4 DUP4 PUSH2 0x3275 JUMP JUMPDEST PUSH2 0x2893 PUSH2 0x35F1 JUMP JUMPDEST PUSH1 0x0 JUMPDEST PUSH1 0x7 DUP2 LT ISZERO PUSH2 0x2719 JUMPI PUSH1 0x1 DUP4 DUP3 PUSH1 0x7 DUP2 LT PUSH2 0x28B3 JUMPI PUSH2 0x28B3 PUSH2 0x3C3A JUMP JUMPDEST PUSH1 0x20 MUL ADD PUSH1 0x20 DUP2 ADD SWAP1 PUSH2 0x28C6 SWAP2 SWAP1 PUSH2 0x3D17 JUMP JUMPDEST PUSH1 0xFF AND LT ISZERO DUP1 ISZERO PUSH2 0x28FF JUMPI POP PUSH1 0x31 DUP4 DUP3 PUSH1 0x7 DUP2 LT PUSH2 0x28E6 JUMPI PUSH2 0x28E6 PUSH2 0x3C3A JUMP JUMPDEST PUSH1 0x20 MUL ADD PUSH1 0x20 DUP2 ADD SWAP1 PUSH2 0x28F9 SWAP2 SWAP1 PUSH2 0x3D17 JUMP JUMPDEST PUSH1 0xFF AND GT ISZERO JUMPDEST PUSH2 0x294B JUMPI PUSH1 0x40 MLOAD PUSH3 0x461BCD PUSH1 0xE5 SHL DUP2 MSTORE PUSH1 0x20 PUSH1 0x4 DUP3 ADD MSTORE PUSH1 0x13 PUSH1 0x24 DUP3 ADD MSTORE PUSH32 0x4E756D626572206F7574206F662072616E676500000000000000000000000000 PUSH1 0x44 DUP3 ADD MSTORE PUSH1 0x64 ADD PUSH2 0xAE4 JUMP JUMPDEST DUP2 DUP4 DUP3 PUSH1 0x7 DUP2 LT PUSH2 0x295E JUMPI PUSH2 0x295E PUSH2 0x3C3A JUMP JUMPDEST PUSH1 0x20 MUL ADD PUSH1 0x20 DUP2 ADD SWAP1 PUSH2 0x2971 SWAP2 SWAP1 PUSH2 0x3D17 JUMP JUMPDEST PUSH1 0xFF AND PUSH1 0x32 DUP2 LT PUSH2 0x2984 JUMPI PUSH2 0x2984 PUSH2 0x3C3A JUMP JUMPDEST PUSH1 0x20 MUL ADD MLOAD ISZERO PUSH2 0x29D6 JUMPI PUSH1 0x40 MLOAD PUSH3 0x461BCD PUSH1 0xE5 SHL DUP2 MSTORE PUSH1 0x20 PUSH1 0x4 DUP3 ADD MSTORE PUSH1 0x1C PUSH1 0x24 DUP3 ADD MSTORE PUSH32 0x4475706C6963617465206E756D626572206E6F7420616C6C6F77656400000000 PUSH1 0x44 DUP3 ADD MSTORE PUSH1 0x64 ADD PUSH2 0xAE4 JUMP JUMPDEST PUSH1 0x1 DUP3 DUP5 DUP4 PUSH1 0x7 DUP2 LT PUSH2 0x29EB JUMPI PUSH2 0x29EB PUSH2 0x3C3A JUMP JUMPDEST PUSH1 0x20 MUL ADD PUSH1 0x20 DUP2 ADD SWAP1 PUSH2 0x29FE SWAP2 SWAP1 PUSH2 0x3D17 JUMP JUMPDEST PUSH1 0xFF AND PUSH1 0x32 DUP2 LT PUSH2 0x2A11 JUMPI PUSH2 0x2A11 PUSH2 0x3C3A JUMP JUMPDEST SWAP2 ISZERO ISZERO PUSH1 0x20 SWAP1 SWAP3 MUL ADD MSTORE DUP1 PUSH2 0x2A25 DUP2 PUSH2 0x3C7A JUMP JUMPDEST SWAP2 POP POP PUSH2 0x2896 JUMP JUMPDEST PUSH1 0xD9 SLOAD PUSH1 0x0 SWAP1 DUP2 MSTORE PUSH1 0xD2 PUSH1 0x20 MSTORE PUSH1 0x40 SWAP1 KECCAK256 DUP1 SLOAD PUSH1 0xFF AND PUSH2 0x2A81 JUMPI PUSH1 0x40 MLOAD PUSH3 0x461BCD PUSH1 0xE5 SHL DUP2 MSTORE PUSH1 0x20 PUSH1 0x4 DUP3 ADD MSTORE PUSH1 0xF PUSH1 0x24 DUP3 ADD MSTORE PUSH15 0x139BC81858DD1A5D99481C9BDD5B99 PUSH1 0x8A SHL PUSH1 0x44 DUP3 ADD MSTORE PUSH1 0x64 ADD PUSH2 0xAE4 JUMP JUMPDEST DUP1 SLOAD PUSH2 0x100 SWAP1 DIV PUSH1 0xFF AND ISZERO PUSH2 0x2AD8 JUMPI PUSH1 0x40 MLOAD PUSH3 0x461BCD PUSH1 0xE5 SHL DUP2 MSTORE PUSH1 0x20 PUSH1 0x4 DUP3 ADD MSTORE PUSH1 0x16 PUSH1 0x24 DUP3 ADD MSTORE PUSH32 0x4472617720616C72656164792072657175657374656400000000000000000000 PUSH1 0x44 DUP3 ADD MSTORE PUSH1 0x64 ADD PUSH2 0xAE4 JUMP JUMPDEST DUP1 PUSH1 0x2 ADD SLOAD TIMESTAMP LT ISZERO PUSH2 0x2B2C JUMPI PUSH1 0x40 MLOAD PUSH3 0x461BCD PUSH1 0xE5 SHL DUP2 MSTORE PUSH1 0x20 PUSH1 0x4 DUP3 ADD MSTORE PUSH1 0x12 PUSH1 0x24 DUP3 ADD MSTORE PUSH32 0x526F756E64207374696C6C206163746976650000000000000000000000000000 PUSH1 0x44 DUP3 ADD MSTORE PUSH1 0x64 ADD PUSH2 0xAE4 JUMP JUMPDEST DUP1 PUSH1 0x3 ADD SLOAD PUSH1 0xD8 PUSH1 0x0 DUP3 DUP3 SLOAD PUSH2 0x2B42 SWAP2 SWAP1 PUSH2 0x3BC0 JUMP JUMPDEST SWAP1 SWAP2 SSTORE POP POP DUP1 SLOAD PUSH3 0xFF00FF NOT AND PUSH3 0x10000 OR DUP2 SSTORE PUSH1 0xD9 SLOAD PUSH1 0x3 DUP3 ADD SLOAD PUSH1 0x40 MLOAD PUSH32 0x3FD1C85CDA6246C06E5680D9888D379FE80D0234F53064BA2F3E3EF7698DFD4B SWAP2 PUSH2 0x2B90 SWAP2 SWAP1 DUP2 MSTORE PUSH1 0x20 ADD SWAP1 JUMP JUMPDEST PUSH1 0x40 MLOAD DUP1 SWAP2 SUB SWAP1 LOG2 PUSH2 0x1013 PUSH2 0x2DBB JUMP JUMPDEST PUSH1 0xD9 SLOAD PUSH1 0x0 SWAP1 DUP2 MSTORE PUSH1 0xD2 PUSH1 0x20 SWAP1 DUP2 MSTORE PUSH1 0x40 DUP1 DUP4 KECCAK256 PUSH1 0xC9 SLOAD DUP3 MLOAD PUSH1 0xC0 DUP2 ADD DUP5 MSTORE PUSH1 0xCB SLOAD DUP2 MSTORE PUSH1 0xCA SLOAD DUP2 DUP7 ADD MSTORE PUSH1 0xCC SLOAD PUSH2 0xFFFF PUSH5 0x100000000 DUP3 DIV AND DUP3 DUP7 ADD MSTORE PUSH4 0xFFFFFFFF DUP1 DUP3 AND PUSH1 0x60 DUP5 ADD MSTORE PUSH7 0x1000000000000 SWAP1 SWAP2 DIV AND PUSH1 0x80 DUP3 ADD MSTORE DUP4 MLOAD SWAP5 DUP6 ADD SWAP1 SWAP4 MSTORE PUSH1 0xDC SLOAD PUSH1 0xFF AND ISZERO ISZERO DUP5 MSTORE SWAP1 SWAP3 PUSH1 0x1 PUSH1 0x1 PUSH1 0xA0 SHL SUB SWAP1 SWAP2 AND SWAP2 PUSH4 0x9B1C385E SWAP2 PUSH1 0xA0 DUP3 ADD SWAP1 PUSH2 0x2C30 SWAP1 PUSH2 0x329A JUMP JUMPDEST DUP2 MSTORE POP PUSH1 0x40 MLOAD DUP3 PUSH4 0xFFFFFFFF AND PUSH1 0xE0 SHL DUP2 MSTORE PUSH1 0x4 ADD PUSH2 0x2C4F SWAP2 SWAP1 PUSH2 0x3D32 JUMP JUMPDEST PUSH1 0x20 PUSH1 0x40 MLOAD DUP1 DUP4 SUB DUP2 PUSH1 0x0 DUP8 GAS CALL ISZERO DUP1 ISZERO PUSH2 0x2C6E JUMPI RETURNDATASIZE PUSH1 0x0 DUP1 RETURNDATACOPY RETURNDATASIZE PUSH1 0x0 REVERT JUMPDEST POP POP POP POP PUSH1 0x40 MLOAD RETURNDATASIZE PUSH1 0x1F NOT PUSH1 0x1F DUP3 ADD AND DUP3 ADD DUP1 PUSH1 0x40 MSTORE POP DUP2 ADD SWAP1 PUSH2 0x2C92 SWAP2 SWAP1 PUSH2 0x3CFE JUMP JUMPDEST PUSH1 0x40 DUP1 MLOAD PUSH1 0x60 DUP2 ADD DUP3 MSTORE PUSH1 0x1 DUP1 DUP3 MSTORE PUSH1 0x0 PUSH1 0x20 DUP1 DUP5 ADD DUP3 DUP2 MSTORE DUP6 MLOAD DUP4 DUP2 MSTORE DUP1 DUP4 ADD DUP8 MSTORE DUP6 DUP8 ADD SWAP1 DUP2 MSTORE DUP8 DUP5 MSTORE PUSH1 0xD0 DUP4 MSTORE SWAP6 SWAP1 SWAP3 KECCAK256 DUP5 MLOAD DUP2 SLOAD SWAP4 MLOAD PUSH2 0xFFFF NOT SWAP1 SWAP5 AND SWAP1 ISZERO ISZERO PUSH2 0xFF00 NOT AND OR PUSH2 0x100 SWAP4 ISZERO ISZERO SWAP4 SWAP1 SWAP4 MUL SWAP3 SWAP1 SWAP3 OR DUP3 SSTORE SWAP4 MLOAD DUP1 MLOAD SWAP6 SWAP8 POP SWAP3 SWAP5 SWAP1 SWAP4 PUSH2 0x2D06 SWAP4 SWAP3 DUP6 ADD SWAP3 ADD SWAP1 PUSH2 0x362F JUMP JUMPDEST POP POP PUSH1 0xD9 SLOAD PUSH1 0x0 DUP5 DUP2 MSTORE PUSH1 0xD1 PUSH1 0x20 SWAP1 DUP2 MSTORE PUSH1 0x40 SWAP2 DUP3 SWAP1 KECCAK256 SWAP3 SWAP1 SWAP3 SSTORE PUSH1 0xCD DUP6 SWAP1 SSTORE DUP4 SLOAD PUSH2 0x100 PUSH2 0xFF00 NOT SWAP1 SWAP2 AND OR DUP5 SSTORE PUSH1 0xCC SLOAD DUP2 MLOAD DUP7 DUP2 MSTORE PUSH7 0x1000000000000 SWAP1 SWAP2 DIV PUSH4 0xFFFFFFFF AND SWAP3 DUP2 ADD SWAP3 SWAP1 SWAP3 MSTORE PUSH32 0xCC58B13AD3EAB50626C6A6300B1D139CD6EBB1688A7CCED9461C2F7E762665EE SWAP3 POP ADD PUSH1 0x40 MLOAD DUP1 SWAP2 SUB SWAP1 LOG1 PUSH1 0xD9 SLOAD PUSH1 0x40 MLOAD DUP4 DUP2 MSTORE PUSH32 0xC67DDA8E11F1AA941C7E74466B1859A07A32F46AAF641D29B83BE348424D93CD SWAP1 PUSH1 0x20 ADD PUSH1 0x40 MLOAD DUP1 SWAP2 SUB SWAP1 LOG2 POP SWAP1 JUMP JUMPDEST PUSH1 0xD9 SLOAD ISZERO DUP1 PUSH2 0x2DDC JUMPI POP PUSH1 0xD9 SLOAD PUSH1 0x0 SWAP1 DUP2 MSTORE PUSH1 0xD2 PUSH1 0x20 MSTORE PUSH1 0x40 SWAP1 KECCAK256 SLOAD PUSH1 0xFF AND ISZERO JUMPDEST PUSH2 0x2E28 JUMPI PUSH1 0x40 MLOAD PUSH3 0x461BCD PUSH1 0xE5 SHL DUP2 MSTORE PUSH1 0x20 PUSH1 0x4 DUP3 ADD MSTORE PUSH1 0x1A PUSH1 0x24 DUP3 ADD MSTORE PUSH32 0x43757272656E7420726F756E64207374696C6C20616374697665000000000000 PUSH1 0x44 DUP3 ADD MSTORE PUSH1 0x64 ADD PUSH2 0xAE4 JUMP JUMPDEST PUSH1 0xD9 DUP1 SLOAD SWAP1 PUSH1 0x0 PUSH2 0x2E38 DUP4 PUSH2 0x3C7A JUMP JUMPDEST SWAP2 SWAP1 POP SSTORE POP PUSH1 0x40 MLOAD DUP1 PUSH1 0xC0 ADD PUSH1 0x40 MSTORE DUP1 PUSH1 0x1 ISZERO ISZERO DUP2 MSTORE PUSH1 0x20 ADD PUSH1 0x0 ISZERO ISZERO DUP2 MSTORE PUSH1 0x20 ADD PUSH1 0x0 ISZERO ISZERO DUP2 MSTORE PUSH1 0x20 ADD TIMESTAMP DUP2 MSTORE PUSH1 0x20 ADD PUSH1 0xDB SLOAD TIMESTAMP PUSH2 0x2E77 SWAP2 SWAP1 PUSH2 0x3BC0 JUMP JUMPDEST DUP2 MSTORE PUSH1 0xD8 SLOAD PUSH1 0x20 SWAP2 DUP3 ADD MSTORE PUSH1 0xD9 DUP1 SLOAD PUSH1 0x0 SWAP1 DUP2 MSTORE PUSH1 0xD2 DUP4 MSTORE PUSH1 0x40 SWAP1 DUP2 SWAP1 KECCAK256 DUP5 MLOAD DUP2 SLOAD SWAP5 DUP7 ADD MLOAD SWAP3 DUP7 ADD MLOAD ISZERO ISZERO PUSH3 0x10000 MUL PUSH3 0xFF0000 NOT SWAP4 ISZERO ISZERO PUSH2 0x100 MUL PUSH2 0xFF00 NOT SWAP3 ISZERO ISZERO SWAP3 SWAP1 SWAP3 AND PUSH2 0xFFFF NOT SWAP1 SWAP7 AND SWAP6 SWAP1 SWAP6 OR OR SWAP2 SWAP1 SWAP2 AND SWAP3 SWAP1 SWAP3 OR DUP3 SSTORE PUSH1 0x60 DUP4 ADD MLOAD PUSH1 0x1 DUP4 ADD SSTORE PUSH1 0x80 DUP4 ADD MLOAD PUSH1 0x2 DUP4 ADD SSTORE PUSH1 0xA0 SWAP1 SWAP3 ADD MLOAD PUSH1 0x3 SWAP1 SWAP2 ADD SSTORE SLOAD PUSH1 0xDB SLOAD PUSH32 0xFD9D17E5565DEEA3D25918D95FC398673B9445EF0A96D12EAF3AB2B198756C65 SWAP1 TIMESTAMP SWAP1 PUSH2 0x2F27 SWAP1 DUP3 PUSH2 0x3BC0 JUMP JUMPDEST PUSH1 0xD8 SLOAD PUSH1 0x40 DUP1 MLOAD SWAP4 DUP5 MSTORE PUSH1 0x20 DUP5 ADD SWAP3 SWAP1 SWAP3 MSTORE SWAP1 DUP3 ADD MSTORE PUSH1 0x60 ADD PUSH1 0x40 MLOAD DUP1 SWAP2 SUB SWAP1 LOG2 PUSH1 0x0 PUSH1 0xD8 SSTORE JUMP JUMPDEST PUSH1 0x33 DUP1 SLOAD PUSH1 0x1 PUSH1 0x1 PUSH1 0xA0 SHL SUB DUP4 DUP2 AND PUSH20 0xFFFFFFFFFFFFFFFFFFFFFFFFFFFFFFFFFFFFFFFF NOT DUP4 AND DUP2 OR SWAP1 SWAP4 SSTORE PUSH1 0x40 MLOAD SWAP2 AND SWAP2 SWAP1 DUP3 SWAP1 PUSH32 0x8BE0079C531659141344CD1FD0A4F28419497F9722A3DAAFE3B4186F6B6457E0 SWAP1 PUSH1 0x0 SWAP1 LOG3 POP POP JUMP JUMPDEST PUSH1 0x0 SLOAD PUSH2 0x100 SWAP1 DIV PUSH1 0xFF AND PUSH2 0x302B JUMPI PUSH1 0x40 MLOAD PUSH3 0x461BCD PUSH1 0xE5 SHL DUP2 MSTORE PUSH1 0x20 PUSH1 0x4 DUP3 ADD MSTORE PUSH1 0x2B PUSH1 0x24 DUP3 ADD MSTORE PUSH32 0x496E697469616C697A61626C653A20636F6E7472616374206973206E6F742069 PUSH1 0x44 DUP3 ADD MSTORE PUSH32 0x6E697469616C697A696E67000000000000000000000000000000000000000000 PUSH1 0x64 DUP3 ADD MSTORE PUSH1 0x84 ADD PUSH2 0xAE4 JUMP JUMPDEST PUSH2 0x181F CALLER PUSH2 0x2F4F JUMP JUMPDEST PUSH1 0x0 JUMPDEST PUSH1 0x7 DUP2 LT ISZERO PUSH2 0x1746 JUMPI PUSH1 0x0 PUSH2 0x304D DUP3 PUSH1 0x1 PUSH2 0x3BC0 JUMP JUMPDEST SWAP1 POP JUMPDEST PUSH1 0x7 DUP2 LT ISZERO PUSH2 0x3118 JUMPI DUP3 DUP3 PUSH1 0x7 DUP2 LT PUSH2 0x306B JUMPI PUSH2 0x306B PUSH2 0x3C3A JUMP JUMPDEST PUSH1 0x20 MUL ADD MLOAD PUSH1 0xFF AND DUP4 DUP3 PUSH1 0x7 DUP2 LT PUSH2 0x3085 JUMPI PUSH2 0x3085 PUSH2 0x3C3A JUMP JUMPDEST PUSH1 0x20 MUL ADD MLOAD PUSH1 0xFF AND LT ISZERO PUSH2 0x3106 JUMPI PUSH1 0x0 DUP4 DUP4 PUSH1 0x7 DUP2 LT PUSH2 0x30A7 JUMPI PUSH2 0x30A7 PUSH2 0x3C3A JUMP JUMPDEST PUSH1 0x20 MUL ADD MLOAD SWAP1 POP DUP4 DUP3 PUSH1 0x7 DUP2 LT PUSH2 0x30C0 JUMPI PUSH2 0x30C0 PUSH2 0x3C3A JUMP JUMPDEST PUSH1 0x20 MUL ADD MLOAD DUP5 DUP5 PUSH1 0x7 DUP2 LT PUSH2 0x30D7 JUMPI PUSH2 0x30D7 PUSH2 0x3C3A JUMP JUMPDEST PUSH1 0xFF SWAP1 SWAP3 AND PUSH1 0x20 SWAP3 SWAP1 SWAP3 MUL ADD MSTORE DUP1 DUP5 DUP4 PUSH1 0x7 DUP2 LT PUSH2 0x30F7 JUMPI PUSH2 0x30F7 PUSH2 0x3C3A JUMP JUMPDEST PUSH1 0xFF SWAP1 SWAP3 AND PUSH1 0x20 SWAP3 SWAP1 SWAP3 MUL ADD MSTORE POP JUMPDEST DUP1 PUSH2 0x3110 DUP2 PUSH2 0x3C7A JUMP JUMPDEST SWAP2 POP POP PUSH2 0x3050 JUMP JUMPDEST POP DUP1 PUSH2 0x3123 DUP2 PUSH2 0x3C7A JUMP JUMPDEST SWAP2 POP POP PUSH2 0x3037 JUMP JUMPDEST PUSH1 0x0 DUP1 JUMPDEST PUSH1 0x7 DUP2 PUSH1 0xFF AND LT ISZERO PUSH2 0x31A3 JUMPI DUP3 DUP2 PUSH1 0xFF AND PUSH1 0x7 DUP2 LT PUSH2 0x3150 JUMPI PUSH2 0x3150 PUSH2 0x3C3A JUMP JUMPDEST PUSH1 0x20 MUL ADD MLOAD PUSH1 0xFF AND DUP5 DUP3 PUSH1 0xFF AND PUSH1 0x7 DUP2 LT PUSH2 0x316D JUMPI PUSH2 0x316D PUSH2 0x3C3A JUMP JUMPDEST PUSH1 0x20 MUL ADD MLOAD PUSH1 0xFF AND SUB PUSH2 0x318C JUMPI DUP2 PUSH2 0x3184 DUP2 PUSH2 0x3CBE JUMP JUMPDEST SWAP3 POP POP PUSH2 0x3191 JUMP JUMPDEST PUSH2 0x31A3 JUMP JUMPDEST DUP1 PUSH2 0x319B DUP2 PUSH2 0x3CBE JUMP JUMPDEST SWAP2 POP POP PUSH2 0x312F JUMP JUMPDEST POP SWAP3 SWAP2 POP POP JUMP JUMPDEST PUSH1 0x1 PUSH1 0x1 PUSH1 0xA0 SHL SUB DUP2 AND EXTCODESIZE PUSH2 0x3227 JUMPI PUSH1 0x40 MLOAD PUSH3 0x461BCD PUSH1 0xE5 SHL DUP2 MSTORE PUSH1 0x20 PUSH1 0x4 DUP3 ADD MSTORE PUSH1 0x2D PUSH1 0x24 DUP3 ADD MSTORE PUSH32 0x455243313936373A206E657720696D706C656D656E746174696F6E206973206E PUSH1 0x44 DUP3 ADD MSTORE PUSH32 0x6F74206120636F6E747261637400000000000000000000000000000000000000 PUSH1 0x64 DUP3 ADD MSTORE PUSH1 0x84 ADD PUSH2 0xAE4 JUMP JUMPDEST PUSH32 0x360894A13BA1A3210667C828492DB98DCA3E2076CC3735A920A3CA505D382BBC DUP1 SLOAD PUSH20 0xFFFFFFFFFFFFFFFFFFFFFFFFFFFFFFFFFFFFFFFF NOT AND PUSH1 0x1 PUSH1 0x1 PUSH1 0xA0 SHL SUB SWAP3 SWAP1 SWAP3 AND SWAP2 SWAP1 SWAP2 OR SWAP1 SSTORE JUMP JUMPDEST PUSH2 0x327E DUP4 PUSH2 0x3338 JUMP JUMPDEST PUSH1 0x0 DUP3 MLOAD GT DUP1 PUSH2 0x328B JUMPI POP DUP1 JUMPDEST ISZERO PUSH2 0x2719 JUMPI PUSH2 0xE95 DUP4 DUP4 PUSH2 0x3378 JUMP JUMPDEST PUSH1 0x60 PUSH32 0x92FD13387C7FE7BEFBC38D303D6468778FB9731BC4583F17D92989C6FCFDEAAA DUP3 PUSH1 0x40 MLOAD PUSH1 0x24 ADD PUSH2 0x32D3 SWAP2 MLOAD ISZERO ISZERO DUP2 MSTORE PUSH1 0x20 ADD SWAP1 JUMP JUMPDEST PUSH1 0x40 DUP1 MLOAD PUSH1 0x1F NOT DUP2 DUP5 SUB ADD DUP2 MSTORE SWAP2 SWAP1 MSTORE PUSH1 0x20 DUP2 ADD DUP1 MLOAD PUSH28 0xFFFFFFFFFFFFFFFFFFFFFFFFFFFFFFFFFFFFFFFFFFFFFFFFFFFFFFFF AND PUSH32 0xFFFFFFFF00000000000000000000000000000000000000000000000000000000 SWAP1 SWAP4 AND SWAP3 SWAP1 SWAP3 OR SWAP1 SWAP2 MSTORE SWAP3 SWAP2 POP POP JUMP JUMPDEST PUSH2 0x3341 DUP2 PUSH2 0x31AA JUMP JUMPDEST PUSH1 0x40 MLOAD PUSH1 0x1 PUSH1 0x1 PUSH1 0xA0 SHL SUB DUP3 AND SWAP1 PUSH32 0xBC7CD75A20EE27FD9ADEBAB32041F755214DBC6BFFA90CC0225B39DA2E5C2D3B SWAP1 PUSH1 0x0 SWAP1 LOG2 POP JUMP JUMPDEST PUSH1 0x60 PUSH2 0x339D DUP4 DUP4 PUSH1 0x40 MLOAD DUP1 PUSH1 0x60 ADD PUSH1 0x40 MSTORE DUP1 PUSH1 0x27 DUP2 MSTORE PUSH1 0x20 ADD PUSH2 0x3DBF PUSH1 0x27 SWAP2 CODECOPY PUSH2 0x33A4 JUMP JUMPDEST SWAP4 SWAP3 POP POP POP JUMP JUMPDEST PUSH1 0x60 PUSH1 0x0 DUP1 DUP6 PUSH1 0x1 PUSH1 0x1 PUSH1 0xA0 SHL SUB AND DUP6 PUSH1 0x40 MLOAD PUSH2 0x33C1 SWAP2 SWAP1 PUSH2 0x3D8F JUMP JUMPDEST PUSH1 0x0 PUSH1 0x40 MLOAD DUP1 DUP4 SUB DUP2 DUP6 GAS DELEGATECALL SWAP2 POP POP RETURNDATASIZE DUP1 PUSH1 0x0 DUP2 EQ PUSH2 0x33FC JUMPI PUSH1 0x40 MLOAD SWAP2 POP PUSH1 0x1F NOT PUSH1 0x3F RETURNDATASIZE ADD AND DUP3 ADD PUSH1 0x40 MSTORE RETURNDATASIZE DUP3 MSTORE RETURNDATASIZE PUSH1 0x0 PUSH1 0x20 DUP5 ADD RETURNDATACOPY PUSH2 0x3401 JUMP JUMPDEST PUSH1 0x60 SWAP2 POP JUMPDEST POP SWAP2 POP SWAP2 POP PUSH2 0x3412 DUP7 DUP4 DUP4 DUP8 PUSH2 0x341C JUMP JUMPDEST SWAP7 SWAP6 POP POP POP POP POP POP JUMP JUMPDEST PUSH1 0x60 DUP4 ISZERO PUSH2 0x348B JUMPI DUP3 MLOAD PUSH1 0x0 SUB PUSH2 0x3484 JUMPI PUSH1 0x1 PUSH1 0x1 PUSH1 0xA0 SHL SUB DUP6 AND EXTCODESIZE PUSH2 0x3484 JUMPI PUSH1 0x40 MLOAD PUSH3 0x461BCD PUSH1 0xE5 SHL DUP2 MSTORE PUSH1 0x20 PUSH1 0x4 DUP3 ADD MSTORE PUSH1 0x1D PUSH1 0x24 DUP3 ADD MSTORE PUSH32 0x416464726573733A2063616C6C20746F206E6F6E2D636F6E7472616374000000 PUSH1 0x44 DUP3 ADD MSTORE PUSH1 0x64 ADD PUSH2 0xAE4 JUMP JUMPDEST POP DUP2 PUSH2 0x3495 JUMP JUMPDEST PUSH2 0x3495 DUP4 DUP4 PUSH2 0x349D JUMP JUMPDEST SWAP5 SWAP4 POP POP POP POP JUMP JUMPDEST DUP2 MLOAD ISZERO PUSH2 0x34AD JUMPI DUP2 MLOAD DUP1 DUP4 PUSH1 0x20 ADD REVERT JUMPDEST DUP1 PUSH1 0x40 MLOAD PUSH3 0x461BCD PUSH1 0xE5 SHL DUP2 MSTORE PUSH1 0x4 ADD PUSH2 0xAE4 SWAP2 SWAP1 PUSH2 0x3DAB JUMP JUMPDEST DUP3 DUP1 SLOAD DUP3 DUP3 SSTORE SWAP1 PUSH1 0x0 MSTORE PUSH1 0x20 PUSH1 0x0 KECCAK256 SWAP1 DUP2 ADD SWAP3 DUP3 ISZERO PUSH2 0x3502 JUMPI SWAP2 PUSH1 0x20 MUL DUP3 ADD JUMPDEST DUP3 DUP2 GT ISZERO PUSH2 0x3502 JUMPI DUP3 CALLDATALOAD DUP3 SSTORE SWAP2 PUSH1 0x20 ADD SWAP2 SWAP1 PUSH1 0x1 ADD SWAP1 PUSH2 0x34E7 JUMP JUMPDEST POP PUSH2 0x350E SWAP3 SWAP2 POP PUSH2 0x366A JUMP JUMPDEST POP SWAP1 JUMP JUMPDEST PUSH1 0x1 DUP4 ADD SWAP2 DUP4 SWAP1 DUP3 ISZERO PUSH2 0x3502 JUMPI SWAP2 PUSH1 0x20 MUL DUP3 ADD PUSH1 0x0 JUMPDEST DUP4 DUP3 GT ISZERO PUSH2 0x3566 JUMPI DUP4 MLOAD DUP4 DUP3 PUSH2 0x100 EXP DUP2 SLOAD DUP2 PUSH1 0xFF MUL NOT AND SWAP1 DUP4 PUSH1 0xFF AND MUL OR SWAP1 SSTORE POP SWAP3 PUSH1 0x20 ADD SWAP3 PUSH1 0x1 ADD PUSH1 0x20 DUP2 PUSH1 0x0 ADD DIV SWAP3 DUP4 ADD SWAP3 PUSH1 0x1 SUB MUL PUSH2 0x3528 JUMP JUMPDEST DUP1 ISZERO PUSH2 0x3593 JUMPI DUP3 DUP2 PUSH2 0x100 EXP DUP2 SLOAD SWAP1 PUSH1 0xFF MUL NOT AND SWAP1 SSTORE PUSH1 0x1 ADD PUSH1 0x20 DUP2 PUSH1 0x0 ADD DIV SWAP3 DUP4 ADD SWAP3 PUSH1 0x1 SUB MUL PUSH2 0x3566 JUMP JUMPDEST POP POP PUSH2 0x350E SWAP3 SWAP2 POP PUSH2 0x366A JUMP JUMPDEST PUSH1 0x1 DUP4 ADD SWAP2 DUP4 SWAP1 DUP3 ISZERO PUSH2 0x3502 JUMPI SWAP2 PUSH1 0x1F ADD PUSH1 0x20 SWAP1 DIV DUP3 ADD JUMPDEST DUP3 DUP2 GT ISZERO PUSH2 0x3502 JUMPI DUP3 SLOAD DUP3 SSTORE SWAP2 PUSH1 0x1 ADD SWAP2 SWAP1 PUSH1 0x1 ADD SWAP1 PUSH2 0x35B8 JUMP JUMPDEST PUSH1 0x40 MLOAD DUP1 PUSH1 0xE0 ADD PUSH1 0x40 MSTORE DUP1 PUSH1 0x7 SWAP1 PUSH1 0x20 DUP3 MUL DUP1 CALLDATASIZE DUP4 CALLDATACOPY POP SWAP2 SWAP3 SWAP2 POP POP JUMP JUMPDEST PUSH1 0x40 MLOAD DUP1 PUSH2 0x640 ADD PUSH1 0x40 MSTORE DUP1 PUSH1 0x32 SWAP1 PUSH1 0x20 DUP3 MUL DUP1 CALLDATASIZE DUP4 CALLDATACOPY POP SWAP2 SWAP3 SWAP2 POP POP JUMP JUMPDEST PUSH1 0x40 MLOAD DUP1 PUSH2 0x100 ADD PUSH1 0x40 MSTORE DUP1 PUSH1 0x8 SWAP1 PUSH1 0x20 DUP3 MUL DUP1 CALLDATASIZE DUP4 CALLDATACOPY POP SWAP2 SWAP3 SWAP2 POP POP JUMP JUMPDEST DUP3 DUP1 SLOAD DUP3 DUP3 SSTORE SWAP1 PUSH1 0x0 MSTORE PUSH1 0x20 PUSH1 0x0 KECCAK256 SWAP1 DUP2 ADD SWAP3 DUP3 ISZERO PUSH2 0x3502 JUMPI SWAP2 PUSH1 0x20 MUL DUP3 ADD JUMPDEST DUP3 DUP2 GT ISZERO PUSH2 0x3502 JUMPI DUP3 MLOAD DUP3 SSTORE SWAP2 PUSH1 0x20 ADD SWAP2 SWAP1 PUSH1 0x1 ADD SWAP1 PUSH2 0x364F JUMP JUMPDEST JUMPDEST DUP1 DUP3 GT ISZERO PUSH2 0x350E JUMPI PUSH1 0x0 DUP2 SSTORE PUSH1 0x1 ADD PUSH2 0x366B JUMP JUMPDEST DUP1 CALLDATALOAD PUSH1 0x1 PUSH1 0x1 PUSH1 0xA0 SHL SUB DUP2 AND DUP2 EQ PUSH2 0x3696 JUMPI PUSH1 0x0 DUP1 REVERT JUMPDEST SWAP2 SWAP1 POP JUMP JUMPDEST PUSH1 0x0 DUP1 PUSH1 0x40 DUP4 DUP6 SUB SLT ISZERO PUSH2 0x36AE JUMPI PUSH1 0x0 DUP1 REVERT JUMPDEST DUP3 CALLDATALOAD SWAP2 POP PUSH2 0x36BE PUSH1 0x20 DUP5 ADD PUSH2 0x367F JUMP JUMPDEST SWAP1 POP SWAP3 POP SWAP3 SWAP1 POP JUMP JUMPDEST PUSH1 0x0 PUSH1 0x20 DUP3 DUP5 SUB SLT ISZERO PUSH2 0x36D9 JUMPI PUSH1 0x0 DUP1 REVERT JUMPDEST POP CALLDATALOAD SWAP2 SWAP1 POP JUMP JUMPDEST PUSH1 0x0 DUP1 PUSH1 0x0 PUSH1 0x40 DUP5 DUP7 SUB SLT ISZERO PUSH2 0x36F5 JUMPI PUSH1 0x0 DUP1 REVERT JUMPDEST DUP4 CALLDATALOAD SWAP3 POP PUSH1 0x20 DUP5 ADD CALLDATALOAD PUSH8 0xFFFFFFFFFFFFFFFF DUP1 DUP3 GT ISZERO PUSH2 0x3714 JUMPI PUSH1 0x0 DUP1 REVERT JUMPDEST DUP2 DUP7 ADD SWAP2 POP DUP7 PUSH1 0x1F DUP4 ADD SLT PUSH2 0x3728 JUMPI PUSH1 0x0 DUP1 REVERT JUMPDEST DUP2 CALLDATALOAD DUP2 DUP2 GT ISZERO PUSH2 0x3737 JUMPI PUSH1 0x0 DUP1 REVERT JUMPDEST DUP8 PUSH1 0x20 DUP3 PUSH1 0x5 SHL DUP6 ADD ADD GT ISZERO PUSH2 0x374C JUMPI PUSH1 0x0 DUP1 REVERT JUMPDEST PUSH1 0x20 DUP4 ADD SWAP5 POP DUP1 SWAP4 POP POP POP POP SWAP3 POP SWAP3 POP SWAP3 JUMP JUMPDEST PUSH1 0x0 PUSH1 0x20 DUP3 DUP5 SUB SLT ISZERO PUSH2 0x3771 JUMPI PUSH1 0x0 DUP1 REVERT JUMPDEST PUSH2 0x339D DUP3 PUSH2 0x367F JUMP JUMPDEST PUSH1 0x0 PUSH1 0xE0 DUP3 DUP5 SUB SLT ISZERO PUSH2 0x378C JUMPI PUSH1 0x0 DUP1 REVERT JUMPDEST DUP3 PUSH1 0xE0 DUP4 ADD GT ISZERO PUSH2 0x379C JUMPI PUSH1 0x0 DUP1 REVERT JUMPDEST POP SWAP2 SWAP1 POP JUMP JUMPDEST PUSH1 0x0 DUP2 MLOAD DUP1 DUP5 MSTORE PUSH1 0x20 DUP1 DUP6 ADD SWAP5 POP DUP1 DUP5 ADD PUSH1 0x0 JUMPDEST DUP4 DUP2 LT ISZERO PUSH2 0x37D2 JUMPI DUP2 MLOAD DUP8 MSTORE SWAP6 DUP3 ADD SWAP6 SWAP1 DUP3 ADD SWAP1 PUSH1 0x1 ADD PUSH2 0x37B6 JUMP JUMPDEST POP SWAP5 SWAP6 SWAP5 POP POP POP POP POP JUMP JUMPDEST PUSH1 0x20 DUP2 MSTORE PUSH1 0x0 PUSH2 0x339D PUSH1 0x20 DUP4 ADD DUP5 PUSH2 0x37A2 JUMP JUMPDEST PUSH1 0x0 DUP1 PUSH1 0x20 DUP4 DUP6 SUB SLT ISZERO PUSH2 0x3803 JUMPI PUSH1 0x0 DUP1 REVERT JUMPDEST DUP3 CALLDATALOAD PUSH8 0xFFFFFFFFFFFFFFFF DUP1 DUP3 GT ISZERO PUSH2 0x381B JUMPI PUSH1 0x0 DUP1 REVERT JUMPDEST DUP2 DUP6 ADD SWAP2 POP DUP6 PUSH1 0x1F DUP4 ADD SLT PUSH2 0x382F JUMPI PUSH1 0x0 DUP1 REVERT JUMPDEST DUP2 CALLDATALOAD DUP2 DUP2 GT ISZERO PUSH2 0x383E JUMPI PUSH1 0x0 DUP1 REVERT JUMPDEST DUP7 PUSH1 0x20 DUP3 DUP6 ADD ADD GT ISZERO PUSH2 0x3850 JUMPI PUSH1 0x0 DUP1 REVERT JUMPDEST PUSH1 0x20 SWAP3 SWAP1 SWAP3 ADD SWAP7 SWAP2 SWAP6 POP SWAP1 SWAP4 POP POP POP POP JUMP JUMPDEST PUSH4 0x4E487B71 PUSH1 0xE0 SHL PUSH1 0x0 MSTORE PUSH1 0x41 PUSH1 0x4 MSTORE PUSH1 0x24 PUSH1 0x0 REVERT JUMPDEST PUSH1 0x0 DUP1 PUSH1 0x40 DUP4 DUP6 SUB SLT ISZERO PUSH2 0x388B JUMPI PUSH1 0x0 DUP1 REVERT JUMPDEST PUSH2 0x3894 DUP4 PUSH2 0x367F JUMP JUMPDEST SWAP2 POP PUSH1 0x20 DUP4 ADD CALLDATALOAD PUSH8 0xFFFFFFFFFFFFFFFF DUP1 DUP3 GT ISZERO PUSH2 0x38B1 JUMPI PUSH1 0x0 DUP1 REVERT JUMPDEST DUP2 DUP6 ADD SWAP2 POP DUP6 PUSH1 0x1F DUP4 ADD SLT PUSH2 0x38C5 JUMPI PUSH1 0x0 DUP1 REVERT JUMPDEST DUP2 CALLDATALOAD DUP2 DUP2 GT ISZERO PUSH2 0x38D7 JUMPI PUSH2 0x38D7 PUSH2 0x3862 JUMP JUMPDEST PUSH1 0x40 MLOAD PUSH1 0x1F DUP3 ADD PUSH1 0x1F NOT SWAP1 DUP2 AND PUSH1 0x3F ADD AND DUP2 ADD SWAP1 DUP4 DUP3 GT DUP2 DUP4 LT OR ISZERO PUSH2 0x38FF JUMPI PUSH2 0x38FF PUSH2 0x3862 JUMP JUMPDEST DUP2 PUSH1 0x40 MSTORE DUP3 DUP2 MSTORE DUP9 PUSH1 0x20 DUP5 DUP8 ADD ADD GT ISZERO PUSH2 0x3918 JUMPI PUSH1 0x0 DUP1 REVERT JUMPDEST DUP3 PUSH1 0x20 DUP7 ADD PUSH1 0x20 DUP4 ADD CALLDATACOPY PUSH1 0x0 PUSH1 0x20 DUP5 DUP4 ADD ADD MSTORE DUP1 SWAP6 POP POP POP POP POP POP SWAP3 POP SWAP3 SWAP1 POP JUMP JUMPDEST DUP1 PUSH1 0x0 JUMPDEST PUSH1 0x7 DUP2 LT ISZERO PUSH2 0xE95 JUMPI DUP2 MLOAD PUSH1 0xFF AND DUP5 MSTORE PUSH1 0x20 SWAP4 DUP5 ADD SWAP4 SWAP1 SWAP2 ADD SWAP1 PUSH1 0x1 ADD PUSH2 0x393E JUMP JUMPDEST PUSH1 0xE0 DUP2 ADD PUSH2 0x20F6 DUP3 DUP5 PUSH2 0x393A JUMP JUMPDEST PUSH1 0x0 JUMPDEST DUP4 DUP2 LT ISZERO PUSH2 0x3989 JUMPI DUP2 DUP2 ADD MLOAD DUP4 DUP3 ADD MSTORE PUSH1 0x20 ADD PUSH2 0x3971 JUMP JUMPDEST POP POP PUSH1 0x0 SWAP2 ADD MSTORE JUMP JUMPDEST PUSH1 0x0 DUP2 MLOAD DUP1 DUP5 MSTORE PUSH2 0x39AA DUP2 PUSH1 0x20 DUP7 ADD PUSH1 0x20 DUP7 ADD PUSH2 0x396E JUMP JUMPDEST PUSH1 0x1F ADD PUSH1 0x1F NOT AND SWAP3 SWAP1 SWAP3 ADD PUSH1 0x20 ADD SWAP3 SWAP2 POP POP JUMP JUMPDEST DUP3 ISZERO ISZERO DUP2 MSTORE PUSH1 0x40 PUSH1 0x20 DUP3 ADD MSTORE PUSH1 0x0 PUSH2 0x3495 PUSH1 0x40 DUP4 ADD DUP5 PUSH2 0x3992 JUMP JUMPDEST PUSH1 0x0 DUP1 PUSH1 0x40 DUP4 DUP6 SUB SLT ISZERO PUSH2 0x39EC JUMPI PUSH1 0x0 DUP1 REVERT JUMPDEST POP POP DUP1 CALLDATALOAD SWAP3 PUSH1 0x20 SWAP1 SWAP2 ADD CALLDATALOAD SWAP2 POP JUMP JUMPDEST PUSH1 0x0 PUSH1 0x20 DUP3 DUP5 SUB SLT ISZERO PUSH2 0x3A0D JUMPI PUSH1 0x0 DUP1 REVERT JUMPDEST DUP2 CALLDATALOAD PUSH2 0xFFFF DUP2 AND DUP2 EQ PUSH2 0x339D JUMPI PUSH1 0x0 DUP1 REVERT JUMPDEST PUSH1 0x1 PUSH1 0x1 PUSH1 0xA0 SHL SUB DUP7 AND DUP2 MSTORE PUSH2 0x160 DUP2 ADD PUSH2 0x3A3D PUSH1 0x20 DUP4 ADD DUP8 PUSH2 0x393A JUMP JUMPDEST SWAP4 ISZERO ISZERO PUSH2 0x100 DUP3 ADD MSTORE PUSH1 0xFF SWAP3 SWAP1 SWAP3 AND PUSH2 0x120 DUP4 ADD MSTORE PUSH2 0x140 SWAP1 SWAP2 ADD MSTORE SWAP3 SWAP2 POP POP JUMP JUMPDEST PUSH1 0x0 PUSH1 0x20 DUP3 DUP5 SUB SLT ISZERO PUSH2 0x3A71 JUMPI PUSH1 0x0 DUP1 REVERT JUMPDEST DUP2 CALLDATALOAD PUSH4 0xFFFFFFFF DUP2 AND DUP2 EQ PUSH2 0x339D JUMPI PUSH1 0x0 DUP1 REVERT JUMPDEST PUSH1 0x0 PUSH1 0x20 DUP3 DUP5 SUB SLT ISZERO PUSH2 0x3A97 JUMPI PUSH1 0x0 DUP1 REVERT JUMPDEST DUP2 CALLDATALOAD DUP1 ISZERO ISZERO DUP2 EQ PUSH2 0x339D JUMPI PUSH1 0x0 DUP1 REVERT JUMPDEST DUP3 ISZERO ISZERO DUP2 MSTORE PUSH1 0x40 PUSH1 0x20 DUP3 ADD MSTORE PUSH1 0x0 PUSH2 0x3495 PUSH1 0x40 DUP4 ADD DUP5 PUSH2 0x37A2 JUMP JUMPDEST DUP4 DUP2 MSTORE PUSH1 0x40 PUSH1 0x20 DUP3 ADD MSTORE DUP2 PUSH1 0x40 DUP3 ADD MSTORE PUSH1 0x0 PUSH32 0x7FFFFFFFFFFFFFFFFFFFFFFFFFFFFFFFFFFFFFFFFFFFFFFFFFFFFFFFFFFFFFF DUP4 GT ISZERO PUSH2 0x3B01 JUMPI PUSH1 0x0 DUP1 REVERT JUMPDEST DUP3 PUSH1 0x5 SHL DUP1 DUP6 PUSH1 0x60 DUP6 ADD CALLDATACOPY SWAP2 SWAP1 SWAP2 ADD PUSH1 0x60 ADD SWAP5 SWAP4 POP POP POP POP JUMP JUMPDEST PUSH1 0x0 PUSH2 0x120 DUP3 ADD SWAP1 POP DUP5 DUP3 MSTORE DUP4 PUSH1 0x20 DUP4 ADD MSTORE DUP3 SLOAD PUSH1 0xFF DUP1 DUP3 AND PUSH1 0x40 DUP6 ADD MSTORE DUP1 DUP3 PUSH1 0x8 SHR AND PUSH1 0x60 DUP6 ADD MSTORE DUP1 DUP3 PUSH1 0x10 SHR AND PUSH1 0x80 DUP6 ADD MSTORE PUSH2 0x3B63 PUSH1 0xA0 DUP6 ADD DUP3 DUP5 PUSH1 0x18 SHR AND PUSH1 0xFF AND SWAP1 MSTORE JUMP JUMPDEST PUSH2 0x3B77 PUSH1 0xC0 DUP6 ADD DUP3 DUP5 PUSH1 0x20 SHR AND PUSH1 0xFF AND SWAP1 MSTORE JUMP JUMPDEST PUSH2 0x3B8B PUSH1 0xE0 DUP6 ADD DUP3 DUP5 PUSH1 0x28 SHR AND PUSH1 0xFF AND SWAP1 MSTORE JUMP JUMPDEST PUSH2 0x3BA0 PUSH2 0x100 DUP6 ADD DUP3 DUP5 PUSH1 0x30 SHR AND PUSH1 0xFF AND SWAP1 MSTORE JUMP JUMPDEST POP POP SWAP5 SWAP4 POP POP POP POP JUMP JUMPDEST PUSH4 0x4E487B71 PUSH1 0xE0 SHL PUSH1 0x0 MSTORE PUSH1 0x11 PUSH1 0x4 MSTORE PUSH1 0x24 PUSH1 0x0 REVERT JUMPDEST DUP1 DUP3 ADD DUP1 DUP3 GT ISZERO PUSH2 0x20F6 JUMPI PUSH2 0x20F6 PUSH2 0x3BAA JUMP JUMPDEST DUP2 DUP2 SUB DUP2 DUP2 GT ISZERO PUSH2 0x20F6 JUMPI PUSH2 0x20F6 PUSH2 0x3BAA JUMP JUMPDEST DUP1 CALLDATALOAD PUSH1 0xFF DUP2 AND DUP2 EQ PUSH2 0x3696 JUMPI PUSH1 0x0 DUP1 REVERT JUMPDEST DUP3 DUP2 MSTORE PUSH2 0x100 DUP2 ADD PUSH1 0x20 DUP1 DUP4 ADD DUP5 PUSH1 0x0 JUMPDEST PUSH1 0x7 DUP2 LT ISZERO PUSH2 0x3C2F JUMPI PUSH1 0xFF PUSH2 0x3C1C DUP4 PUSH2 0x3BE6 JUMP JUMPDEST AND DUP4 MSTORE SWAP2 DUP4 ADD SWAP2 SWAP1 DUP4 ADD SWAP1 PUSH1 0x1 ADD PUSH2 0x3C08 JUMP JUMPDEST POP POP POP POP SWAP4 SWAP3 POP POP POP JUMP JUMPDEST PUSH4 0x4E487B71 PUSH1 0xE0 SHL PUSH1 0x0 MSTORE PUSH1 0x32 PUSH1 0x4 MSTORE PUSH1 0x24 PUSH1 0x0 REVERT JUMPDEST PUSH4 0x4E487B71 PUSH1 0xE0 SHL PUSH1 0x0 MSTORE PUSH1 0x12 PUSH1 0x4 MSTORE PUSH1 0x24 PUSH1 0x0 REVERT JUMPDEST PUSH1 0x0 DUP3 PUSH2 0x3C75 JUMPI PUSH2 0x3C75 PUSH2 0x3C50 JUMP JUMPDEST POP MOD SWAP1 JUMP JUMPDEST PUSH1 0x0 PUSH1 0x1 DUP3 ADD PUSH2 0x3C8C JUMPI PUSH2 0x3C8C PUSH2 0x3BAA JUMP JUMPDEST POP PUSH1 0x1 ADD SWAP1 JUMP JUMPDEST DUP1 DUP3 MUL DUP2 ISZERO DUP3 DUP3 DIV DUP5 EQ OR PUSH2 0x20F6 JUMPI PUSH2 0x20F6 PUSH2 0x3BAA JUMP JUMPDEST PUSH1 0x0 DUP3 PUSH2 0x3CB9 JUMPI PUSH2 0x3CB9 PUSH2 0x3C50 JUMP JUMPDEST POP DIV SWAP1 JUMP JUMPDEST PUSH1 0x0 PUSH1 0xFF DUP3 AND PUSH1 0xFF DUP2 SUB PUSH2 0x3CD4 JUMPI PUSH2 0x3CD4 PUSH2 0x3BAA JUMP JUMPDEST PUSH1 0x1 ADD SWAP3 SWAP2 POP POP JUMP JUMPDEST PUSH2 0x120 DUP2 ADD PUSH2 0x3CEC DUP3 DUP7 PUSH2 0x393A JUMP JUMPDEST PUSH1 0xE0 DUP3 ADD SWAP4 SWAP1 SWAP4 MSTORE PUSH2 0x100 ADD MSTORE SWAP2 SWAP1 POP JUMP JUMPDEST PUSH1 0x0 PUSH1 0x20 DUP3 DUP5 SUB SLT ISZERO PUSH2 0x3D10 JUMPI PUSH1 0x0 DUP1 REVERT JUMPDEST POP MLOAD SWAP2 SWAP1 POP JUMP JUMPDEST PUSH1 0x0 PUSH1 0x20 DUP3 DUP5 SUB SLT ISZERO PUSH2 0x3D29 JUMPI PUSH1 0x0 DUP1 REVERT JUMPDEST PUSH2 0x339D DUP3 PUSH2 0x3BE6 JUMP JUMPDEST PUSH1 0x20 DUP2 MSTORE DUP2 MLOAD PUSH1 0x20 DUP3 ADD MSTORE PUSH1 0x20 DUP3 ADD MLOAD PUSH1 0x40 DUP3 ADD MSTORE PUSH2 0xFFFF PUSH1 0x40 DUP4 ADD MLOAD AND PUSH1 0x60 DUP3 ADD MSTORE PUSH1 0x0 PUSH1 0x60 DUP4 ADD MLOAD PUSH4 0xFFFFFFFF DUP1 DUP3 AND PUSH1 0x80 DUP6 ADD MSTORE DUP1 PUSH1 0x80 DUP7 ADD MLOAD AND PUSH1 0xA0 DUP6 ADD MSTORE POP POP PUSH1 0xA0 DUP4 ADD MLOAD PUSH1 0xC0 DUP1 DUP5 ADD MSTORE PUSH2 0x3495 PUSH1 0xE0 DUP5 ADD DUP3 PUSH2 0x3992 JUMP JUMPDEST PUSH1 0x0 DUP3 MLOAD PUSH2 0x3DA1 DUP2 DUP5 PUSH1 0x20 DUP8 ADD PUSH2 0x396E JUMP JUMPDEST SWAP2 SWAP1 SWAP2 ADD SWAP3 SWAP2 POP POP JUMP JUMPDEST PUSH1 0x20 DUP2 MSTORE PUSH1 0x0 PUSH2 0x339D PUSH1 0x20 DUP4 ADD DUP5 PUSH2 0x3992 JUMP INVALID COINBASE PUSH5 0x6472657373 GASPRICE KECCAK256 PUSH13 0x6F772D6C6576656C2064656C65 PUSH8 0x6174652063616C6C KECCAK256 PUSH7 0x61696C6564A264 PUSH10 0x706673582212204C4CB4 SWAP12 CREATE2 SGT 0xE6 PUSH30 0xC86F3E8527BC33AC0F7DC55A3D60B593C83A1047949FFD9364736F6C6343 STOP ADDMOD EQ STOP CALLER "},"methodIdentifiers":{"BPS_DENOMINATOR()":"e1a45218","OWNER_FEE_BPS()":"25c5d34a","automationNativePayment()":"b368ba42","buyTicket(uint8[7])":"39e7397b","callbackGasLimit()":"24f74697","checkUpkeep(bytes)":"6e04ff0d","currentRoundId()":"9cbe5efd","entryFee()":"072ea61c","getLastRandomWords()":"3c256b24","getRequestStatus(uint256)":"d8a4676f","getRoundTicketCount(uint256)":"c4289070","getRoundWinningNumbers(uint256)":"64069e71","getTicket(uint256,uint256)":"a426e4c8","getWinningNumbers()":"84350e1d","hasEntered(uint256,address)":"073c74f3","initialize3()":"ec918b65","keyHash()":"61728f39","lastRandomWords(uint256)":"900fc869","lastRequestId()":"fc2a88c3","numWords()":"7ccfd7fc","owner()":"8da5cb5b","ownerFeesAccrued()":"b28f6ef1","pendingRewards(address)":"31d7a262","performUpkeep(bytes)":"4585e33b","proxiableUUID()":"52d1902d","rawFulfillRandomWords(uint256,uint256[])":"1fe543e3","renounceOwnership()":"715018a6","requestConfirmations()":"b0fb162f","requestToRoundId(uint256)":"d88d27d6","requests(uint256)":"81d12c58","rolloverPool()":"3c51c7bb","roundDuration()":"f7cb789a","roundWinningNumbers(uint256,uint256)":"82fbc5c2","rounds(uint256)":"8c65c81f","s_vrfCoordinator()":"9eccacf6","setAutomationNativePayment(bool)":"c88e1561","setCallbackGasLimit(uint32)":"a4eb718c","setKeyHash(bytes32)":"98544710","setNumWords(uint32)":"f30c07d3","setRequestConfirmations(uint16)":"8824f5a7","setRoundDuration(uint256)":"36c92c3f","setSubscriptionId(uint256)":"c1e0d236","setTicketPrice(uint256)":"15981650","startRound()":"55e3f086","subscriptionId()":"09c1ba2e","transferOwnership(address)":"f2fde38b","updateCoordinator(address)":"f9f94e34","upgradeTo(address)":"3659cfe6","upgradeToAndCall(address,bytes)":"4f1ef286","winningNumbers(uint256)":"4e45f095","withdrawOwnerFees()":"0a9ef34c","withdrawReward()":"c885bc58"}},"storageLayout":{"storage":[{"astId":722,"contract":"contracts/Lottery2.sol:Lottery2","label":"_initialized","offset":0,"slot":"0","type":"t_uint8"},{"astId":725,"contract":"contracts/Lottery2.sol:Lottery2","label":"_initializing","offset":1,"slot":"0","type":"t_bool"},{"astId":1401,"contract":"contracts/Lottery2.sol:Lottery2","label":"__gap","offset":0,"slot":"1","type":"t_array(t_uint256)50_storage"},{"astId":228,"contract":"contracts/Lottery2.sol:Lottery2","label":"_owner","offset":0,"slot":"51","type":"t_address"},{"astId":348,"contract":"contracts/Lottery2.sol:Lottery2","label":"__gap","offset":0,"slot":"52","type":"t_array(t_uint256)49_storage"},{"astId":704,"contract":"contracts/Lottery2.sol:Lottery2","label":"__gap","offset":0,"slot":"101","type":"t_array(t_uint256)50_storage"},{"astId":1020,"contract":"contracts/Lottery2.sol:Lottery2","label":"__gap","offset":0,"slot":"151","type":"t_array(t_uint256)50_storage"},{"astId":3236,"contract":"contracts/Lottery2.sol:Lottery2","label":"s_vrfCoordinator","offset":0,"slot":"201","type":"t_contract(IVRFCoordinatorV2Plus)85"},{"astId":3238,"contract":"contracts/Lottery2.sol:Lottery2","label":"subscriptionId","offset":0,"slot":"202","type":"t_uint256"},{"astId":3240,"contract":"contracts/Lottery2.sol:Lottery2","label":"keyHash","offset":0,"slot":"203","type":"t_bytes32"},{"astId":3242,"contract":"contracts/Lottery2.sol:Lottery2","label":"callbackGasLimit","offset":0,"slot":"204","type":"t_uint32"},{"astId":3244,"contract":"contracts/Lottery2.sol:Lottery2","label":"requestConfirmations","offset":4,"slot":"204","type":"t_uint16"},{"astId":3246,"contract":"contracts/Lottery2.sol:Lottery2","label":"numWords","offset":6,"slot":"204","type":"t_uint32"},{"astId":3248,"contract":"contracts/Lottery2.sol:Lottery2","label":"lastRequestId","offset":0,"slot":"205","type":"t_uint256"},{"astId":3251,"contract":"contracts/Lottery2.sol:Lottery2","label":"lastRandomWords","offset":0,"slot":"206","type":"t_array(t_uint256)dyn_storage"},{"astId":3255,"contract":"contracts/Lottery2.sol:Lottery2","label":"winningNumbers","offset":0,"slot":"207","type":"t_array(t_uint8)7_storage"},{"astId":3300,"contract":"contracts/Lottery2.sol:Lottery2","label":"requests","offset":0,"slot":"208","type":"t_mapping(t_uint256,t_struct(RequestStatus)3269_storage)"},{"astId":3304,"contract":"contracts/Lottery2.sol:Lottery2","label":"requestToRoundId","offset":0,"slot":"209","type":"t_mapping(t_uint256,t_uint256)"},{"astId":3309,"contract":"contracts/Lottery2.sol:Lottery2","label":"rounds","offset":0,"slot":"210","type":"t_mapping(t_uint256,t_struct(RoundInfo)3295_storage)"},{"astId":3315,"contract":"contracts/Lottery2.sol:Lottery2","label":"roundTickets","offset":0,"slot":"211","type":"t_mapping(t_uint256,t_array(t_struct(Ticket)3282_storage)dyn_storage)"},{"astId":3321,"contract":"contracts/Lottery2.sol:Lottery2","label":"roundWinningNumbers","offset":0,"slot":"212","type":"t_mapping(t_uint256,t_array(t_uint8)7_storage)"},{"astId":3327,"contract":"contracts/Lottery2.sol:Lottery2","label":"hasEntered","offset":0,"slot":"213","type":"t_mapping(t_uint256,t_mapping(t_address,t_bool))"},{"astId":3331,"contract":"contracts/Lottery2.sol:Lottery2","label":"pendingRewards","offset":0,"slot":"214","type":"t_mapping(t_address,t_uint256)"},{"astId":3333,"contract":"contracts/Lottery2.sol:Lottery2","label":"ownerFeesAccrued","offset":0,"slot":"215","type":"t_uint256"},{"astId":3335,"contract":"contracts/Lottery2.sol:Lottery2","label":"rolloverPool","offset":0,"slot":"216","type":"t_uint256"},{"astId":3337,"contract":"contracts/Lottery2.sol:Lottery2","label":"currentRoundId","offset":0,"slot":"217","type":"t_uint256"},{"astId":3339,"contract":"contracts/Lottery2.sol:Lottery2","label":"entryFee","offset":0,"slot":"218","type":"t_uint256"},{"astId":3341,"contract":"contracts/Lottery2.sol:Lottery2","label":"roundDuration","offset":0,"slot":"219","type":"t_uint256"},{"astId":3343,"contract":"contracts/Lottery2.sol:Lottery2","label":"automationNativePayment","offset":0,"slot":"220","type":"t_bool"},{"astId":3440,"contract":"contracts/Lottery2.sol:Lottery2","label":"__gap","offset":0,"slot":"221","type":"t_array(t_uint256)38_storage"}],"types":{"t_address":{"encoding":"inplace","label":"address","numberOfBytes":"20"},"t_array(t_struct(Ticket)3282_storage)dyn_storage":{"base":"t_struct(Ticket)3282_storage","encoding":"dynamic_array","label":"struct Lottery2.Ticket[]","numberOfBytes":"32"},"t_array(t_uint256)38_storage":{"base":"t_uint256","encoding":"inplace","label":"uint256[38]","numberOfBytes":"1216"},"t_array(t_uint256)49_storage":{"base":"t_uint256","encoding":"inplace","label":"uint256[49]","numberOfBytes":"1568"},"t_array(t_uint256)50_storage":{"base":"t_uint256","encoding":"inplace","label":"uint256[50]","numberOfBytes":"1600"},"t_array(t_uint256)dyn_storage":{"base":"t_uint256","encoding":"dynamic_array","label":"uint256[]","numberOfBytes":"32"},"t_array(t_uint8)7_storage":{"base":"t_uint8","encoding":"inplace","label":"uint8[7]","numberOfBytes":"32"},"t_bool":{"encoding":"inplace","label":"bool","numberOfBytes":"1"},"t_bytes32":{"encoding":"inplace","label":"bytes32","numberOfBytes":"32"},"t_contract(IVRFCoordinatorV2Plus)85":{"encoding":"inplace","label":"contract IVRFCoordinatorV2Plus","numberOfBytes":"20"},"t_mapping(t_address,t_bool)":{"encoding":"mapping","key":"t_address","label":"mapping(address => bool)","numberOfBytes":"32","value":"t_bool"},"t_mapping(t_address,t_uint256)":{"encoding":"mapping","key":"t_address","label":"mapping(address => uint256)","numberOfBytes":"32","value":"t_uint256"},"t_mapping(t_uint256,t_array(t_struct(Ticket)3282_storage)dyn_storage)":{"encoding":"mapping","key":"t_uint256","label":"mapping(uint256 => struct Lottery2.Ticket[])","numberOfBytes":"32","value":"t_array(t_struct(Ticket)3282_storage)dyn_storage"},"t_mapping(t_uint256,t_array(t_uint8)7_storage)":{"encoding":"mapping","key":"t_uint256","label":"mapping(uint256 => uint8[7])","numberOfBytes":"32","value":"t_array(t_uint8)7_storage"},"t_mapping(t_uint256,t_mapping(t_address,t_bool))":{"encoding":"mapping","key":"t_uint256","label":"mapping(uint256 => mapping(address => bool))","numberOfBytes":"32","value":"t_mapping(t_address,t_bool)"},"t_mapping(t_uint256,t_struct(RequestStatus)3269_storage)":{"encoding":"mapping","key":"t_uint256","label":"mapping(uint256 => struct Lottery2.RequestStatus)","numberOfBytes":"32","value":"t_struct(RequestStatus)3269_storage"},"t_mapping(t_uint256,t_struct(RoundInfo)3295_storage)":{"encoding":"mapping","key":"t_uint256","label":"mapping(uint256 => struct Lottery2.RoundInfo)","numberOfBytes":"32","value":"t_struct(RoundInfo)3295_storage"},"t_mapping(t_uint256,t_uint256)":{"encoding":"mapping","key":"t_uint256","label":"mapping(uint256 => uint256)","numberOfBytes":"32","value":"t_uint256"},"t_struct(RequestStatus)3269_storage":{"encoding":"inplace","label":"struct Lottery2.RequestStatus","members":[{"astId":3263,"contract":"contracts/Lottery2.sol:Lottery2","label":"exists","offset":0,"slot":"0","type":"t_bool"},{"astId":3265,"contract":"contracts/Lottery2.sol:Lottery2","label":"fulfilled","offset":1,"slot":"0","type":"t_bool"},{"astId":3268,"contract":"contracts/Lottery2.sol:Lottery2","label":"randomWords","offset":0,"slot":"1","type":"t_array(t_uint256)dyn_storage"}],"numberOfBytes":"64"},"t_struct(RoundInfo)3295_storage":{"encoding":"inplace","label":"struct Lottery2.RoundInfo","members":[{"astId":3284,"contract":"contracts/Lottery2.sol:Lottery2","label":"active","offset":0,"slot":"0","type":"t_bool"},{"astId":3286,"contract":"contracts/Lottery2.sol:Lottery2","label":"drawRequested","offset":1,"slot":"0","type":"t_bool"},{"astId":3288,"contract":"contracts/Lottery2.sol:Lottery2","label":"drawn","offset":2,"slot":"0","type":"t_bool"},{"astId":3290,"contract":"contracts/Lottery2.sol:Lottery2","label":"startTime","offset":0,"slot":"1","type":"t_uint256"},{"astId":3292,"contract":"contracts/Lottery2.sol:Lottery2","label":"endTime","offset":0,"slot":"2","type":"t_uint256"},{"astId":3294,"contract":"contracts/Lottery2.sol:Lottery2","label":"pot","offset":0,"slot":"3","type":"t_uint256"}],"numberOfBytes":"128"},"t_struct(Ticket)3282_storage":{"encoding":"inplace","label":"struct Lottery2.Ticket","members":[{"astId":3271,"contract":"contracts/Lottery2.sol:Lottery2","label":"player","offset":0,"slot":"0","type":"t_address"},{"astId":3275,"contract":"contracts/Lottery2.sol:Lottery2","label":"numbers","offset":0,"slot":"1","type":"t_array(t_uint8)7_storage"},{"astId":3277,"contract":"contracts/Lottery2.sol:Lottery2","label":"claimed","offset":0,"slot":"2","type":"t_bool"},{"astId":3279,"contract":"contracts/Lottery2.sol:Lottery2","label":"matchedCount","offset":1,"slot":"2","type":"t_uint8"},{"astId":3281,"contract":"contracts/Lottery2.sol:Lottery2","label":"reward","offset":0,"slot":"3","type":"t_uint256"}],"numberOfBytes":"128"},"t_uint16":{"encoding":"inplace","label":"uint16","numberOfBytes":"2"},"t_uint256":{"encoding":"inplace","label":"uint256","numberOfBytes":"32"},"t_uint32":{"encoding":"inplace","label":"uint32","numberOfBytes":"4"},"t_uint8":{"encoding":"inplace","label":"uint8","numberOfBytes":"1"}}}}}}