{"contracts/Lottery1.sol":{"Lottery1":{"abi":[{"inputs":[],"stateMutability":"nonpayable","type":"constructor"},{"anonymous":false,"inputs":[{"indexed":false,"internalType":"address","name":"previousAdmin","type":"address"},{"indexed":false,"internalType":"address","name":"newAdmin","type":"address"}],"name":"AdminChanged","type":"event"},{"anonymous":false,"inputs":[{"indexed":true,"internalType":"address","name":"beacon","type":"address"}],"name":"BeaconUpgraded","type":"event"},{"anonymous":false,"inputs":[{"indexed":false,"internalType":"uint8","name":"version","type":"uint8"}],"name":"Initialized","type":"event"},{"anonymous":false,"inputs":[{"indexed":true,"internalType":"address","name":"owner","type":"address"},{"indexed":false,"internalType":"uint256","name":"amount","type":"uint256"}],"name":"OwnerFeesWithdrawn","type":"event"},{"anonymous":false,"inputs":[{"indexed":true,"internalType":"address","name":"previousOwner","type":"address"},{"indexed":true,"internalType":"address","name":"newOwner","type":"address"}],"name":"OwnershipTransferred","type":"event"},{"anonymous":false,"inputs":[{"indexed":false,"internalType":"uint256","name":"requestId","type":"uint256"},{"indexed":false,"internalType":"uint256[]","name":"randomWords","type":"uint256[]"}],"name":"RequestFulfilled","type":"event"},{"anonymous":false,"inputs":[{"indexed":false,"internalType":"uint256","name":"requestId","type":"uint256"},{"indexed":false,"internalType":"uint32","name":"numWords","type":"uint32"}],"name":"RequestSent","type":"event"},{"anonymous":false,"inputs":[{"indexed":true,"internalType":"uint256","name":"roundId","type":"uint256"},{"indexed":true,"internalType":"address","name":"player","type":"address"},{"indexed":false,"internalType":"uint256","name":"ticketIndex","type":"uint256"},{"indexed":false,"internalType":"uint8","name":"matches","type":"uint8"},{"indexed":false,"internalType":"uint256","name":"reward","type":"uint256"}],"name":"RewardAssigned","type":"event"},{"anonymous":false,"inputs":[{"indexed":true,"internalType":"address","name":"player","type":"address"},{"indexed":false,"internalType":"uint256","name":"amount","type":"uint256"}],"name":"RewardWithdrawn","type":"event"},{"anonymous":false,"inputs":[{"indexed":true,"internalType":"uint256","name":"roundId","type":"uint256"},{"indexed":false,"internalType":"uint256","name":"requestId","type":"uint256"}],"name":"RoundClosed","type":"event"},{"anonymous":false,"inputs":[{"indexed":true,"internalType":"uint256","name":"roundId","type":"uint256"},{"indexed":false,"internalType":"uint8[7]","name":"winningNumbers","type":"uint8[7]"},{"indexed":false,"internalType":"uint256","name":"ownerFee","type":"uint256"},{"indexed":false,"internalType":"uint256","name":"rolloverAdded","type":"uint256"}],"name":"RoundSettled","type":"event"},{"anonymous":false,"inputs":[{"indexed":true,"internalType":"uint256","name":"roundId","type":"uint256"},{"indexed":false,"internalType":"uint256","name":"rolloverAmount","type":"uint256"}],"name":"RoundSkipped","type":"event"},{"anonymous":false,"inputs":[{"indexed":true,"internalType":"uint256","name":"roundId","type":"uint256"},{"indexed":false,"internalType":"uint256","name":"startTime","type":"uint256"},{"indexed":false,"internalType":"uint256","name":"endTime","type":"uint256"},{"indexed":false,"internalType":"uint256","name":"seededPot","type":"uint256"}],"name":"RoundStarted","type":"event"},{"anonymous":false,"inputs":[{"indexed":true,"internalType":"uint256","name":"roundId","type":"uint256"},{"indexed":true,"internalType":"address","name":"player","type":"address"},{"indexed":false,"internalType":"uint256","name":"ticketIndex","type":"uint256"},{"indexed":false,"internalType":"uint8[7]","name":"numbers","type":"uint8[7]"}],"name":"TicketBought","type":"event"},{"anonymous":false,"inputs":[{"indexed":true,"internalType":"address","name":"implementation","type":"address"}],"name":"Upgraded","type":"event"},{"anonymous":false,"inputs":[{"indexed":false,"internalType":"uint256","name":"requestId","type":"uint256"},{"indexed":false,"internalType":"uint256","name":"roundId","type":"uint256"},{"indexed":false,"internalType":"uint8[7]","name":"winningNumbers","type":"uint8[7]"}],"name":"WinningNumbersGenerated","type":"event"},{"inputs":[],"name":"BPS_DENOMINATOR","outputs":[{"internalType":"uint256","name":"","type":"uint256"}],"stateMutability":"view","type":"function"},{"inputs":[],"name":"OWNER_FEE_BPS","outputs":[{"internalType":"uint256","name":"","type":"uint256"}],"stateMutability":"view","type":"function"},{"inputs":[],"name":"automationNativePayment","outputs":[{"internalType":"bool","name":"","type":"bool"}],"stateMutability":"view","type":"function"},{"inputs":[{"internalType":"uint8[7]","name":"numbers","type":"uint8[7]"}],"name":"buyTicket","outputs":[],"stateMutability":"payable","type":"function"},{"inputs":[],"name":"callbackGasLimit","outputs":[{"internalType":"uint32","name":"","type":"uint32"}],"stateMutability":"view","type":"function"},{"inputs":[{"internalType":"bytes","name":"","type":"bytes"}],"name":"checkUpkeep","outputs":[{"internalType":"bool","name":"upkeepNeeded","type":"bool"},{"internalType":"bytes","name":"performData","type":"bytes"}],"stateMutability":"view","type":"function"},{"inputs":[],"name":"currentRoundId","outputs":[{"internalType":"uint256","name":"","type":"uint256"}],"stateMutability":"view","type":"function"},{"inputs":[],"name":"entryFee","outputs":[{"internalType":"uint256","name":"","type":"uint256"}],"stateMutability":"view","type":"function"},{"inputs":[],"name":"getLastRandomWords","outputs":[{"internalType":"uint256[]","name":"","type":"uint256[]"}],"stateMutability":"view","type":"function"},{"inputs":[{"internalType":"uint256","name":"requestId","type":"uint256"}],"name":"getRequestStatus","outputs":[{"internalType":"bool","name":"fulfilled","type":"bool"},{"internalType":"uint256[]","name":"randomWords","type":"uint256[]"}],"stateMutability":"view","type":"function"},{"inputs":[{"internalType":"uint256","name":"roundId","type":"uint256"}],"name":"getRoundTicketCount","outputs":[{"internalType":"uint256","name":"","type":"uint256"}],"stateMutability":"view","type":"function"},{"inputs":[{"internalType":"uint256","name":"roundId","type":"uint256"}],"name":"getRoundWinningNumbers","outputs":[{"internalType":"uint8[7]","name":"","type":"uint8[7]"}],"stateMutability":"view","type":"function"},{"inputs":[{"internalType":"uint256","name":"roundId","type":"uint256"},{"internalType":"uint256","name":"ticketIndex","type":"uint256"}],"name":"getTicket","outputs":[{"internalType":"address","name":"player","type":"address"},{"internalType":"uint8[7]","name":"numbers","type":"uint8[7]"},{"internalType":"bool","name":"claimed","type":"bool"},{"internalType":"uint8","name":"matchedCount","type":"uint8"},{"internalType":"uint256","name":"reward","type":"uint256"}],"stateMutability":"view","type":"function"},{"inputs":[],"name":"getWinningNumbers","outputs":[{"internalType":"uint8[7]","name":"","type":"uint8[7]"}],"stateMutability":"view","type":"function"},{"inputs":[{"internalType":"address","name":"vrfCoordinator","type":"address"},{"internalType":"uint256","name":"_subscriptionId","type":"uint256"},{"internalType":"bytes32","name":"_keyHash","type":"bytes32"}],"name":"initialize","outputs":[],"stateMutability":"nonpayable","type":"function"},{"inputs":[],"name":"keyHash","outputs":[{"internalType":"bytes32","name":"","type":"bytes32"}],"stateMutability":"view","type":"function"},{"inputs":[{"internalType":"uint256","name":"","type":"uint256"}],"name":"lastRandomWords","outputs":[{"internalType":"uint256","name":"","type":"uint256"}],"stateMutability":"view","type":"function"},{"inputs":[],"name":"lastRequestId","outputs":[{"internalType":"uint256","name":"","type":"uint256"}],"stateMutability":"view","type":"function"},{"inputs":[],"name":"numWords","outputs":[{"internalType":"uint32","name":"","type":"uint32"}],"stateMutability":"view","type":"function"},{"inputs":[],"name":"owner","outputs":[{"internalType":"address","name":"","type":"address"}],"stateMutability":"view","type":"function"},{"inputs":[],"name":"ownerFeesAccrued","outputs":[{"internalType":"uint256","name":"","type":"uint256"}],"stateMutability":"view","type":"function"},{"inputs":[{"internalType":"address","name":"","type":"address"}],"name":"pendingRewards","outputs":[{"internalType":"uint256","name":"","type":"uint256"}],"stateMutability":"view","type":"function"},{"inputs":[{"internalType":"bytes","name":"performData","type":"bytes"}],"name":"performUpkeep","outputs":[],"stateMutability":"nonpayable","type":"function"},{"inputs":[],"name":"proxiableUUID","outputs":[{"internalType":"bytes32","name":"","type":"bytes32"}],"stateMutability":"view","type":"function"},{"inputs":[{"internalType":"uint256","name":"requestId","type":"uint256"},{"internalType":"uint256[]","name":"randomWords","type":"uint256[]"}],"name":"rawFulfillRandomWords","outputs":[],"stateMutability":"nonpayable","type":"function"},{"inputs":[],"name":"renounceOwnership","outputs":[],"stateMutability":"nonpayable","type":"function"},{"inputs":[],"name":"requestConfirmations","outputs":[{"internalType":"uint16","name":"","type":"uint16"}],"stateMutability":"view","type":"function"},{"inputs":[{"internalType":"uint256","name":"","type":"uint256"}],"name":"requestToRoundId","outputs":[{"internalType":"uint256","name":"","type":"uint256"}],"stateMutability":"view","type":"function"},{"inputs":[{"internalType":"uint256","name":"","type":"uint256"}],"name":"requests","outputs":[{"internalType":"bool","name":"exists","type":"bool"},{"internalType":"bool","name":"fulfilled","type":"bool"}],"stateMutability":"view","type":"function"},{"inputs":[],"name":"rolloverPool","outputs":[{"internalType":"uint256","name":"","type":"uint256"}],"stateMutability":"view","type":"function"},{"inputs":[],"name":"roundDuration","outputs":[{"internalType":"uint256","name":"","type":"uint256"}],"stateMutability":"view","type":"function"},{"inputs":[{"internalType":"uint256","name":"","type":"uint256"},{"internalType":"uint256","name":"","type":"uint256"}],"name":"roundWinningNumbers","outputs":[{"internalType":"uint8","name":"","type":"uint8"}],"stateMutability":"view","type":"function"},{"inputs":[{"internalType":"uint256","name":"","type":"uint256"}],"name":"rounds","outputs":[{"internalType":"bool","name":"active","type":"bool"},{"internalType":"bool","name":"drawRequested","type":"bool"},{"internalType":"bool","name":"drawn","type":"bool"},{"internalType":"uint256","name":"startTime","type":"uint256"},{"internalType":"uint256","name":"endTime","type":"uint256"},{"internalType":"uint256","name":"pot","type":"uint256"}],"stateMutability":"view","type":"function"},{"inputs":[],"name":"s_vrfCoordinator","outputs":[{"internalType":"contract IVRFCoordinatorV2Plus","name":"","type":"address"}],"stateMutability":"view","type":"function"},{"inputs":[{"internalType":"bool","name":"enabled","type":"bool"}],"name":"setAutomationNativePayment","outputs":[],"stateMutability":"nonpayable","type":"function"},{"inputs":[{"internalType":"uint32","name":"_callbackGasLimit","type":"uint32"}],"name":"setCallbackGasLimit","outputs":[],"stateMutability":"nonpayable","type":"function"},{"inputs":[{"internalType":"bytes32","name":"_keyHash","type":"bytes32"}],"name":"setKeyHash","outputs":[],"stateMutability":"nonpayable","type":"function"},{"inputs":[{"internalType":"uint32","name":"_numWords","type":"uint32"}],"name":"setNumWords","outputs":[],"stateMutability":"nonpayable","type":"function"},{"inputs":[{"internalType":"uint16","name":"_requestConfirmations","type":"uint16"}],"name":"setRequestConfirmations","outputs":[],"stateMutability":"nonpayable","type":"function"},{"inputs":[{"internalType":"uint256","name":"time","type":"uint256"}],"name":"setRoundDuration","outputs":[],"stateMutability":"nonpayable","type":"function"},{"inputs":[{"internalType":"uint256","name":"_subscriptionId","type":"uint256"}],"name":"setSubscriptionId","outputs":[],"stateMutability":"nonpayable","type":"function"},{"inputs":[{"internalType":"uint256","name":"price","type":"uint256"}],"name":"setTicketPrice","outputs":[],"stateMutability":"nonpayable","type":"function"},{"inputs":[],"name":"subscriptionId","outputs":[{"internalType":"uint256","name":"","type":"uint256"}],"stateMutability":"view","type":"function"},{"inputs":[{"internalType":"address","name":"newOwner","type":"address"}],"name":"transferOwnership","outputs":[],"stateMutability":"nonpayable","type":"function"},{"inputs":[{"internalType":"address","name":"newCoordinator","type":"address"}],"name":"updateCoordinator","outputs":[],"stateMutability":"nonpayable","type":"function"},{"inputs":[{"internalType":"address","name":"newImplementation","type":"address"}],"name":"upgradeTo","outputs":[],"stateMutability":"nonpayable","type":"function"},{"inputs":[{"internalType":"address","name":"newImplementation","type":"address"},{"internalType":"bytes","name":"data","type":"bytes"}],"name":"upgradeToAndCall","outputs":[],"stateMutability":"payable","type":"function"},{"inputs":[{"internalType":"uint256","name":"","type":"uint256"}],"name":"winningNumbers","outputs":[{"internalType":"uint8","name":"","type":"uint8"}],"stateMutability":"view","type":"function"},{"inputs":[],"name":"withdrawOwnerFees","outputs":[],"stateMutability":"nonpayable","type":"function"},{"inputs":[],"name":"withdrawReward","outputs":[],"stateMutability":"nonpayable","type":"function"},{"stateMutability":"payable","type":"receive"}],"evm":{"bytecode":{"linkReferences":{},"object":"60a0604052306080523480156200001557600080fd5b506200002062000026565b620000e7565b600054610100900460ff1615620000935760405162461bcd60e51b815260206004820152602760248201527f496e697469616c697a61626c653a20636f6e747261637420697320696e697469604482015266616c697a696e6760c81b606482015260840160405180910390fd5b60005460ff90811614620000e5576000805460ff191660ff9081179091556040519081527f7f26b83ff96e1f2b6a682f133852f6798a09c465da95921460cefb38474024989060200160405180910390a15b565b608051613e296200011f60003960008181610fac015281816110310152818161164e015281816116d301526117bd0152613e296000f3fe60806040526004361061032d5760003560e01c806384350e1d116101a5578063b368ba42116100ec578063d8a4676f11610095578063f30c07d31161006f578063f30c07d3146109c9578063f7cb789a146109e9578063f9f94e34146109ff578063fc2a88c314610a1f57600080fd5b8063d8a4676f14610965578063e1a4521814610993578063f2fde38b146109a957600080fd5b8063c885bc58116100c6578063c885bc5814610903578063c88e156114610918578063d88d27d61461093857600080fd5b8063b368ba421461088c578063c1e0d236146108b6578063c4289070146108d657600080fd5b80639cbe5efd1161014e578063a4eb718c11610128578063a4eb718c14610820578063b0fb162f14610840578063b28f6ef11461087657600080fd5b80639cbe5efd146107b95780639eccacf6146107cf578063a426e4c8146107ef57600080fd5b80638da5cb5b1161017f5780638da5cb5b14610747578063900fc86914610779578063985447101461079957600080fd5b806384350e1d146106865780638824f5a71461069b5780638c65c81f146106bb57600080fd5b80633c256b241161027457806361728f391161021d578063715018a6116101f7578063715018a6146105da5780637ccfd7fc146105ef57806381d12c581461061657806382fbc5c21461066657600080fd5b806361728f391461056957806364069e711461057f5780636e04ff0d146105ac57600080fd5b80634e45f0951161024e5780634e45f0951461050f5780634f1ef2861461054157806352d1902d1461055457600080fd5b80633c256b24146104b75780633c51c7bb146104d95780634585e33b146104ef57600080fd5b806324f74697116102d65780633659cfe6116102b05780633659cfe61461046457806336c92c3f1461048457806339e7397b146104a457600080fd5b806324f74697146103ef57806325c5d34a1461042157806331d7a2621461043757600080fd5b80631598165011610307578063159816501461038f5780631b7ce041146103af5780631fe543e3146103cf57600080fd5b8063072ea61c1461033957806309c1ba2e146103625780630a9ef34c1461037857600080fd5b3661033457005b600080fd5b34801561034557600080fd5b5061034f60d05481565b6040519081526020015b60405180910390f35b34801561036e57600080fd5b5061034f60ca5481565b34801561038457600080fd5b5061038d610a35565b005b34801561039b57600080fd5b5061038d6103aa366004613686565b610b8d565b3480156103bb57600080fd5b5061038d6103ca3660046136bb565b610bea565b3480156103db57600080fd5b5061038d6103ea3660046136ee565b610d4c565b3480156103fb57600080fd5b5060cc5461040c9063ffffffff1681565b60405163ffffffff9091168152602001610359565b34801561042d57600080fd5b5061034f6103e881565b34801561044357600080fd5b5061034f61045236600461376d565b60d86020526000908152604090205481565b34801561047057600080fd5b5061038d61047f36600461376d565b610fa2565b34801561049057600080fd5b5061038d61049f366004613686565b61111d565b61038d6104b2366004613788565b61117a565b3480156104c357600080fd5b506104cc611435565b60405161035991906137eb565b3480156104e557600080fd5b5061034f60da5481565b3480156104fb57600080fd5b5061038d61050a3660046137fe565b61148d565b34801561051b57600080fd5b5061052f61052a366004613686565b61161a565b60405160ff9091168152602001610359565b61038d61054f366004613886565b611644565b34801561056057600080fd5b5061034f6117b0565b34801561057557600080fd5b5061034f60cb5481565b34801561058b57600080fd5b5061059f61059a366004613686565b611875565b604051610359919061396e565b3480156105b857600080fd5b506105cc6105c73660046137fe565b6118d9565b6040516103599291906139cc565b3480156105e657600080fd5b5061038d611946565b3480156105fb57600080fd5b5060cc5461040c906601000000000000900463ffffffff1681565b34801561062257600080fd5b5061064f610631366004613686565b60d36020526000908152604090205460ff8082169161010090041682565b604080519215158352901515602083015201610359565b34801561067257600080fd5b5061052f6106813660046139e7565b61195a565b34801561069257600080fd5b5061059f611993565b3480156106a757600080fd5b5061038d6106b6366004613a09565b6119eb565b3480156106c757600080fd5b506107126106d6366004613686565b60d560205260009081526040902080546001820154600283015460039093015460ff808416946101008504821694620100009004909116929186565b6040805196151587529415156020870152921515938501939093526060840152608083019190915260a082015260c001610359565b34801561075357600080fd5b506033546001600160a01b03165b6040516001600160a01b039091168152602001610359565b34801561078557600080fd5b5061034f610794366004613686565b611a17565b3480156107a557600080fd5b5061038d6107b4366004613686565b611a38565b3480156107c557600080fd5b5061034f60db5481565b3480156107db57600080fd5b5060c954610761906001600160a01b031681565b3480156107fb57600080fd5b5061080f61080a3660046139e7565b611a45565b604051610359959493929190613a2d565b34801561082c57600080fd5b5061038d61083b366004613a6d565b611b17565b34801561084c57600080fd5b5060cc5461086390640100000000900461ffff1681565b60405161ffff9091168152602001610359565b34801561088257600080fd5b5061034f60d95481565b34801561089857600080fd5b5060d2546108a69060ff1681565b6040519015158152602001610359565b3480156108c257600080fd5b5061038d6108d1366004613686565b611b3b565b3480156108e257600080fd5b5061034f6108f1366004613686565b600090815260d6602052604090205490565b34801561090f57600080fd5b5061038d611b48565b34801561092457600080fd5b5061038d610933366004613a93565b611c7e565b34801561094457600080fd5b5061034f610953366004613686565b60d46020526000908152604090205481565b34801561097157600080fd5b50610985610980366004613686565b611c99565b604051610359929190613ab5565b34801561099f57600080fd5b5061034f61271081565b3480156109b557600080fd5b5061038d6109c436600461376d565b611d73565b3480156109d557600080fd5b5061038d6109e4366004613a6d565b611e00565b3480156109f557600080fd5b5061034f60d15481565b348015610a0b57600080fd5b5061038d610a1a36600461376d565b611e8a565b348015610a2b57600080fd5b5061034f60cd5481565b610a3d611eb4565b60d95480610a925760405162461bcd60e51b815260206004820152600d60248201527f4e6f206f776e657220666565730000000000000000000000000000000000000060448201526064015b60405180910390fd5b600060d98190556033546040516001600160a01b039091169083908381818185875af1925050503d8060008114610ae5576040519150601f19603f3d011682016040523d82523d6000602084013e610aea565b606091505b5050905080610b3b5760405162461bcd60e51b815260206004820152601960248201527f4f776e657220666565207472616e73666572206661696c6564000000000000006044820152606401610a89565b6033546001600160a01b03166001600160a01b03167f8c86225979e924f39334c49a16a32e53ca5ffe7a271a6793b57476cd62749d0583604051610b8191815260200190565b60405180910390a25050565b610b95611eb4565b60008111610be55760405162461bcd60e51b815260206004820152601160248201527f5072696365206d757374206265203e20300000000000000000000000000000006044820152606401610a89565b60d055565b600054600290610100900460ff16158015610c0c575060005460ff8083169116105b610c7e5760405162461bcd60e51b815260206004820152602e60248201527f496e697469616c697a61626c653a20636f6e747261637420697320616c72656160448201527f647920696e697469616c697a65640000000000000000000000000000000000006064820152608401610a89565b6000805461ffff191660ff831617610100179055610c9a611f0e565b610ca2611f81565b60c980546001600160a01b0319166001600160a01b03861617905560ca83905560cb82905560cc805469ffffffffffffffffffff191666070003000aae60179055655af3107a400060d05561012c60d15560d2805460ff19169055610d05611fec565b6000805461ff001916905560405160ff821681527f7f26b83ff96e1f2b6a682f133852f6798a09c465da95921460cefb38474024989060200160405180910390a150505050565b60c9546001600160a01b03163314610da65760405162461bcd60e51b815260206004820152601c60248201527f4f6e6c7920636f6f7264696e61746f722063616e2066756c66696c6c000000006044820152606401610a89565b600083815260d3602052604090205460ff16610e045760405162461bcd60e51b815260206004820152601160248201527f52657175657374206e6f7420666f756e640000000000000000000000000000006044820152606401610a89565b600083815260d360205260409020805461ff001916610100178155610e2d9060010183836134ce565b50610e3a60ce83836134ce565b50600083815260d4602052604081205490819003610e9a5760405162461bcd60e51b815260206004820152601060248201527f526f756e64206e6f74206c696e6b6564000000000000000000000000000000006044820152606401610a89565b610ea48383612180565b610eb29060cf906007613519565b50600081815260d760205260409020610ece9060cf60076135a7565b507ffe2e2d779dba245964d4e3ef9b994be63856fd568bf7d3ca9e224755cb1bd54d848484604051610f0293929190613ad0565b60405180910390a17f65a3cadf20a29471ee7bc9e1bf93b5f513a619fcfffc0bcab66d7cbae1045cb1848260cf604051610f3e93929190613b29565b60405180910390a16040805160e0810191829052610f9c9183919060cf90600790826000855b825461010083900a900460ff16815260206001928301818104948501949093039092029101808411610f6457905050505050506122c3565b50505050565b6001600160a01b037f000000000000000000000000000000000000000000000000000000000000000016300361102f5760405162461bcd60e51b815260206004820152602c60248201527f46756e6374696f6e206d7573742062652063616c6c6564207468726f7567682060448201526b19195b1959d85d1958d85b1b60a21b6064820152608401610a89565b7f00000000000000000000000000000000000000000000000000000000000000006001600160a01b031661108a7f360894a13ba1a3210667c828492db98dca3e2076cc3735a920a3ca505d382bbc546001600160a01b031690565b6001600160a01b0316146110f55760405162461bcd60e51b815260206004820152602c60248201527f46756e6374696f6e206d7573742062652063616c6c6564207468726f7567682060448201526b6163746976652070726f787960a01b6064820152608401610a89565b6110fe816128a5565b6040805160008082526020820190925261111a918391906128ad565b50565b611125611eb4565b600081116111755760405162461bcd60e51b815260206004820152601460248201527f4475726174696f6e206d757374206265203e20300000000000000000000000006044820152606401610a89565b60d155565b60d05434146111cb5760405162461bcd60e51b815260206004820152601360248201527f496e636f727265637420656e74727920666565000000000000000000000000006044820152606401610a89565b6111d481612a52565b60db54600090815260d560205260409020805460ff166112285760405162461bcd60e51b815260206004820152600f60248201526e139bc81858dd1a5d99481c9bdd5b99608a1b6044820152606401610a89565b8054610100900460ff161561127f5760405162461bcd60e51b815260206004820152601660248201527f4472617720616c726561647920726571756573746564000000000000000000006044820152606401610a89565b806002015442106112d25760405162461bcd60e51b815260206004820152600d60248201527f526f756e642065787069726564000000000000000000000000000000000000006044820152606401610a89565b348160030160008282546112e69190613bce565b909155505060db54600090815260d66020908152604091829020825160a081018452338152835160e081810190955291939092830191908690600790839083908082843760009201829052509284525050602080830182905260408301829052606090920181905283546001808201865594825290829020835160049092020180546001600160a01b0319166001600160a01b039092169190911781559082015191929091611399918301906007613519565b50604082810151600283018054606086015160ff166101000261ff00199315159390931661ffff199091161791909117905560809092015160039091015560db54600081815260d660205291909120543391907f72c7c6a525d2c132932b4fc43ae4bb642b552692d21f5bedeb662e34b564e8e89061141a90600190613be1565b85604051611429929190613c05565b60405180910390a35050565b606060ce80548060200260200160405190810160405280929190818152602001828054801561148357602002820191906000526020600020905b81548152602001906001019080831161146f575b5050505050905090565b600061149b82840184613686565b60db54600081815260d56020526040902091925082146114fd5760405162461bcd60e51b815260206004820152600c60248201527f5374616c652075706b65657000000000000000000000000000000000000000006044820152606401610a89565b805460ff166115405760405162461bcd60e51b815260206004820152600f60248201526e139bc81858dd1a5d99481c9bdd5b99608a1b6044820152606401610a89565b8054610100900460ff16156115975760405162461bcd60e51b815260206004820152601660248201527f4472617720616c726561647920726571756573746564000000000000000000006044820152606401610a89565b80600201544210156115eb5760405162461bcd60e51b815260206004820152601260248201527f526f756e64207374696c6c2061637469766500000000000000000000000000006044820152606401610a89565b60db54600090815260d66020526040812054900361160b57610f9c612bf4565b611613612d67565b5050505050565b60cf816007811061162a57600080fd5b60209182820401919006915054906101000a900460ff1681565b6001600160a01b037f00000000000000000000000000000000000000000000000000000000000000001630036116d15760405162461bcd60e51b815260206004820152602c60248201527f46756e6374696f6e206d7573742062652063616c6c6564207468726f7567682060448201526b19195b1959d85d1958d85b1b60a21b6064820152608401610a89565b7f00000000000000000000000000000000000000000000000000000000000000006001600160a01b031661172c7f360894a13ba1a3210667c828492db98dca3e2076cc3735a920a3ca505d382bbc546001600160a01b031690565b6001600160a01b0316146117975760405162461bcd60e51b815260206004820152602c60248201527f46756e6374696f6e206d7573742062652063616c6c6564207468726f7567682060448201526b6163746976652070726f787960a01b6064820152608401610a89565b6117a0826128a5565b6117ac828260016128ad565b5050565b6000306001600160a01b037f000000000000000000000000000000000000000000000000000000000000000016146118505760405162461bcd60e51b815260206004820152603860248201527f555550535570677261646561626c653a206d757374206e6f742062652063616c60448201527f6c6564207468726f7567682064656c656761746563616c6c00000000000000006064820152608401610a89565b507f360894a13ba1a3210667c828492db98dca3e2076cc3735a920a3ca505d382bbc90565b61187d6135da565b600082815260d76020526040808220815160e08101928390529290916007918390855b825461010083900a900460ff168152602060019283018181049485019490930390920291018084116118a0575094979650505050505050565b60db54600090815260d56020526040812080546060919060ff16801561190657508054610100900460ff16155b8015611916575080600201544210155b925060db5460405160200161192d91815260200190565b6040516020818303038152906040529150509250929050565b61194e611eb4565b6119586000612f82565b565b60d7602052816000526040600020816007811061197657600080fd5b602081049091015460ff601f9092166101000a9004169150829050565b61199b6135da565b6040805160e08101918290529060cf90600790826000855b825461010083900a900460ff168152602060019283018181049485019490930390920291018084116119b35790505050505050905090565b6119f3611eb4565b60cc805461ffff9092166401000000000265ffff0000000019909216919091179055565b60ce8181548110611a2757600080fd5b600091825260209091200154905081565b611a40611eb4565b60cb55565b6000611a4f6135da565b60008060008060d660008981526020019081526020016000208781548110611a7957611a79613c48565b6000918252602082206004909102018054600282015460038301546040805160e08101918290529496506001600160a01b0390931694600187019460ff808516956101009095041693909186916007918390855b825461010083900a900460ff16815260206001928301818104948501949093039092029101808411611acd5790505050505050935095509550955095509550509295509295909350565b611b1f611eb4565b60cc805463ffffffff191663ffffffff92909216919091179055565b611b43611eb4565b60ca55565b33600090815260d8602052604090205480611ba55760405162461bcd60e51b815260206004820152601360248201527f4e6f2072657761726420617661696c61626c65000000000000000000000000006044820152606401610a89565b33600081815260d860205260408082208290555190919083908381818185875af1925050503d8060008114611bf6576040519150601f19603f3d011682016040523d82523d6000602084013e611bfb565b606091505b5050905080611c4c5760405162461bcd60e51b815260206004820152601660248201527f526577617264207472616e73666572206661696c6564000000000000000000006044820152606401610a89565b60405182815233907f1d3eee4ca001cff39eec6ec7615aacf2f2bd61791273830728ba00ccbd6e133790602001610b81565b611c86611eb4565b60d2805460ff1916911515919091179055565b600081815260d3602052604081205460609060ff16611cfa5760405162461bcd60e51b815260206004820152601160248201527f52657175657374206e6f7420666f756e640000000000000000000000000000006044820152606401610a89565b600083815260d360209081526040918290208054600182018054855181860281018601909652808652929461010090920460ff169390928391830182828015611d6257602002820191906000526020600020905b815481526020019060010190808311611d4e575b505050505090509250925050915091565b611d7b611eb4565b6001600160a01b038116611df75760405162461bcd60e51b815260206004820152602660248201527f4f776e61626c653a206e6577206f776e657220697320746865207a65726f206160448201527f64647265737300000000000000000000000000000000000000000000000000006064820152608401610a89565b61111a81612f82565b611e08611eb4565b60008163ffffffff1611611e5e5760405162461bcd60e51b815260206004820152601460248201527f6e756d576f726473206d757374206265203e20300000000000000000000000006044820152606401610a89565b60cc805463ffffffff90921666010000000000000269ffffffff00000000000019909216919091179055565b611e92611eb4565b60c980546001600160a01b0319166001600160a01b0392909216919091179055565b6033546001600160a01b031633146119585760405162461bcd60e51b815260206004820181905260248201527f4f776e61626c653a2063616c6c6572206973206e6f7420746865206f776e65726044820152606401610a89565b600054610100900460ff16611f795760405162461bcd60e51b815260206004820152602b60248201527f496e697469616c697a61626c653a20636f6e7472616374206973206e6f74206960448201526a6e697469616c697a696e6760a81b6064820152608401610a89565b611958612fd4565b600054610100900460ff166119585760405162461bcd60e51b815260206004820152602b60248201527f496e697469616c697a61626c653a20636f6e7472616374206973206e6f74206960448201526a6e697469616c697a696e6760a81b6064820152608401610a89565b60db54158061200d575060db54600090815260d5602052604090205460ff16155b6120595760405162461bcd60e51b815260206004820152601a60248201527f43757272656e7420726f756e64207374696c6c206163746976650000000000006044820152606401610a89565b60db805490600061206983613c5e565b91905055506040518060c0016040528060011515815260200160001515815260200160001515815260200142815260200160d154426120a89190613bce565b815260da5460209182015260db8054600090815260d583526040908190208451815494860151928601511515620100000262ff0000199315156101000261ff00199215159290921661ffff19909616959095171791909116929092178255606083015160018301556080830151600283015560a0909201516003909101555460d1547ffd9d17e5565deea3d25918d95fc398673b9445ef0a96d12eaf3ab2b198756c659042906121589082613bce565b60da546040805193845260208401929092529082015260600160405180910390a2600060da55565b6121886135da565b6121906135f8565b6000805b60078210156122b05760005b85811080156121af5750600783105b156122aa57600060318888848181106121ca576121ca613c48565b90506020020135846040516020016121ec929190918252602082015260400190565b6040516020818303038152906040528051906020012060001c61220f9190613c8d565b61221a906001613bce565b9050848160ff166032811061223157612231613c48565b6020020151612289576001858260ff166032811061225157612251613c48565b911515602090920201528086856007811061226e5761226e613c48565b60ff90921660209290920201528361228581613c5e565b9450505b8261229381613c5e565b9350505080806122a290613c5e565b9150506121a0565b50612194565b6122b984613048565b5050505b92915050565b600082815260d560205260409020805460ff166123225760405162461bcd60e51b815260206004820152601060248201527f526f756e64206e6f7420616374697665000000000000000000000000000000006044820152606401610a89565b8054610100900460ff166123785760405162461bcd60e51b815260206004820152601260248201527f44726177206e6f742072657175657374656400000000000000000000000000006044820152606401610a89565b805462010000900460ff16156123d05760405162461bcd60e51b815260206004820152601560248201527f526f756e6420616c726561647920736574746c656400000000000000000000006044820152606401610a89565b600083815260d66020526040902080546123e8613617565b60005b828110156124ee57600061246d85838154811061240a5761240a613c48565b6000918252602082206040805160e081019182905293600490930290910160010191600791908390855b825461010083900a900460ff1681526020600192830181810494850194909303909202910180841161243457905050505050508861313f565b90508085838154811061248257612482613c48565b600091825260209091206004909102016002908101805461ff00191661010060ff94851602179055908216106124db57828160ff16600881106124c7576124c7613c48565b602002018051906124d782613c5e565b9052505b50806124e681613c5e565b9150506123eb565b5060006127106103e886600301546125069190613ca1565b6125109190613cb8565b905060008186600301546125249190613be1565b90506000612530613617565b606461253d846005613ca1565b6125479190613cb8565b6040820152606461255984600a613ca1565b6125639190613cb8565b6060820152606461257584600f613ca1565b61257f9190613cb8565b60808201526064612591846014613ca1565b61259b9190613cb8565b60a082015260646125ad846014613ca1565b6125b79190613cb8565b60c082015260646125c984601e613ca1565b6125d39190613cb8565b60e08201526125e0613617565b60025b60078160ff16116126a6576000878260ff166008811061260557612605613c48565b6020020151111561266d57868160ff166008811061262557612625613c48565b6020020151838260ff166008811061263f5761263f613c48565b602002015161264e9190613cb8565b828260ff166008811061266357612663613c48565b6020020152612694565b828160ff166008811061268257612682613c48565b60200201516126919085613bce565b93505b8061269e81613ccc565b9150506125e3565b5060005b878110156128125760008982815481106126c6576126c6613c48565b60009182526020909120600260049092020181015460ff61010090910416915081106127ff576000838260ff166008811061270357612703613c48565b60200201519050808b848154811061271d5761271d613c48565b9060005260206000209060040201600301819055508060d860008d868154811061274957612749613c48565b600091825260208083206004909202909101546001600160a01b0316835282019290925260400181208054909190612782908490613bce565b925050819055508a838154811061279b5761279b613c48565b6000918252602091829020600490910201546040805186815260ff86169381019390935282018390526001600160a01b0316908f907faf8d69c5bf84763f900b51e0405fdc2ad4eaf8b44698617a07ae9c31bc41204c9060600160405180910390a3505b508061280a81613c5e565b9150506126aa565b508460d960008282546128259190613bce565b925050819055508260da600082825461283e9190613bce565b9091555050885462ff00ff1916620100001789556040518b907fb8ca8b8466fca767994635dc37682d654da89bf89d11de69e1025ccdb2cdfee590612888908d9089908890613ceb565b60405180910390a2612898611fec565b5050505050505050505050565b61111a611eb4565b7f4910fdfa16fed3260ed0e7147f7cc6da11a60208b5b9406d12a635614ffd91435460ff16156128e5576128e0836131be565b505050565b826001600160a01b03166352d1902d6040518163ffffffff1660e01b8152600401602060405180830381865afa92505050801561293f575060408051601f3d908101601f1916820190925261293c91810190613d0c565b60015b6129b15760405162461bcd60e51b815260206004820152602e60248201527f45524331393637557067726164653a206e657720696d706c656d656e7461746960448201527f6f6e206973206e6f7420555550530000000000000000000000000000000000006064820152608401610a89565b7f360894a13ba1a3210667c828492db98dca3e2076cc3735a920a3ca505d382bbc8114612a465760405162461bcd60e51b815260206004820152602960248201527f45524331393637557067726164653a20756e737570706f727465642070726f7860448201527f6961626c655555494400000000000000000000000000000000000000000000006064820152608401610a89565b506128e083838361327c565b612a5a6135f8565b60005b60078110156128e0576001838260078110612a7a57612a7a613c48565b602002016020810190612a8d9190613d25565b60ff1610158015612ac657506031838260078110612aad57612aad613c48565b602002016020810190612ac09190613d25565b60ff1611155b612b125760405162461bcd60e51b815260206004820152601360248201527f4e756d626572206f7574206f662072616e6765000000000000000000000000006044820152606401610a89565b81838260078110612b2557612b25613c48565b602002016020810190612b389190613d25565b60ff1660328110612b4b57612b4b613c48565b602002015115612b9d5760405162461bcd60e51b815260206004820152601c60248201527f4475706c6963617465206e756d626572206e6f7420616c6c6f776564000000006044820152606401610a89565b600182848360078110612bb257612bb2613c48565b602002016020810190612bc59190613d25565b60ff1660328110612bd857612bd8613c48565b9115156020909202015280612bec81613c5e565b915050612a5d565b60db54600090815260d560205260409020805460ff16612c485760405162461bcd60e51b815260206004820152600f60248201526e139bc81858dd1a5d99481c9bdd5b99608a1b6044820152606401610a89565b8054610100900460ff1615612c9f5760405162461bcd60e51b815260206004820152601660248201527f4472617720616c726561647920726571756573746564000000000000000000006044820152606401610a89565b8060020154421015612cf35760405162461bcd60e51b815260206004820152601260248201527f526f756e64207374696c6c2061637469766500000000000000000000000000006044820152606401610a89565b806003015460da6000828254612d099190613bce565b9091555050805462ff00ff19166201000017815560db5460038201546040517f3fd1c85cda6246c06e5680d9888d379fe80d0234f53064ba2f3e3ef7698dfd4b91612d579190815260200190565b60405180910390a261111a611fec565b60db54600090815260d56020908152604080832060c954825160c08101845260cb54815260ca548186015260cc5461ffff6401000000008204168286015263ffffffff80821660608401526601000000000000909104166080820152835194850190935260d25460ff161515845290926001600160a01b0390911691639b1c385e9160a0820190612df7906132a1565b8152506040518263ffffffff1660e01b8152600401612e169190613d40565b6020604051808303816000875af1158015612e35573d6000803e3d6000fd5b505050506040513d601f19601f82011682018060405250810190612e599190613d0c565b604080516060810182526001808252600060208084018281528551838152808301875285870190815287845260d383529590922084518154935161ffff1990941690151561ff00191617610100931515939093029290921782559351805195975092949093612ecd93928501920190613636565b505060db54600084815260d460209081526040918290209290925560cd859055835461010061ff001990911617845560cc548151868152660100000000000090910463ffffffff16928101929092527fcc58b13ad3eab50626c6a6300b1d139cd6ebb1688a7cced9461c2f7e762665ee92500160405180910390a160db546040518381527fc67dda8e11f1aa941c7e74466b1859a07a32f46aaf641d29b83be348424d93cd9060200160405180910390a25090565b603380546001600160a01b038381166001600160a01b0319831681179093556040519116919082907f8be0079c531659141344cd1fd0a4f28419497f9722a3daafe3b4186f6b6457e090600090a35050565b600054610100900460ff1661303f5760405162461bcd60e51b815260206004820152602b60248201527f496e697469616c697a61626c653a20636f6e7472616374206973206e6f74206960448201526a6e697469616c697a696e6760a81b6064820152608401610a89565b61195833612f82565b60005b60078110156117ac576000613061826001613bce565b90505b600781101561312c5782826007811061307f5761307f613c48565b602002015160ff1683826007811061309957613099613c48565b602002015160ff16101561311a5760008383600781106130bb576130bb613c48565b602002015190508382600781106130d4576130d4613c48565b60200201518484600781106130eb576130eb613c48565b60ff90921660209290920201528084836007811061310b5761310b613c48565b60ff9092166020929092020152505b8061312481613c5e565b915050613064565b508061313781613c5e565b91505061304b565b6000805b60078160ff1610156131b757828160ff166007811061316457613164613c48565b602002015160ff16848260ff166007811061318157613181613c48565b602002015160ff16036131a0578161319881613ccc565b9250506131a5565b6131b7565b806131af81613ccc565b915050613143565b5092915050565b6001600160a01b0381163b61323b5760405162461bcd60e51b815260206004820152602d60248201527f455243313936373a206e657720696d706c656d656e746174696f6e206973206e60448201527f6f74206120636f6e7472616374000000000000000000000000000000000000006064820152608401610a89565b7f360894a13ba1a3210667c828492db98dca3e2076cc3735a920a3ca505d382bbc80546001600160a01b0319166001600160a01b0392909216919091179055565b6132858361333f565b6000825111806132925750805b156128e057610f9c838361337f565b60607f92fd13387c7fe7befbc38d303d6468778fb9731bc4583f17d92989c6fcfdeaaa826040516024016132da91511515815260200190565b60408051601f198184030181529190526020810180517bffffffffffffffffffffffffffffffffffffffffffffffffffffffff167fffffffff000000000000000000000000000000000000000000000000000000009093169290921790915292915050565b613348816131be565b6040516001600160a01b038216907fbc7cd75a20ee27fd9adebab32041f755214dbc6bffa90cc0225b39da2e5c2d3b90600090a250565b60606133a48383604051806060016040528060278152602001613dcd602791396133ab565b9392505050565b6060600080856001600160a01b0316856040516133c89190613d9d565b600060405180830381855af49150503d8060008114613403576040519150601f19603f3d011682016040523d82523d6000602084013e613408565b606091505b509150915061341986838387613423565b9695505050505050565b6060831561349257825160000361348b576001600160a01b0385163b61348b5760405162461bcd60e51b815260206004820152601d60248201527f416464726573733a2063616c6c20746f206e6f6e2d636f6e74726163740000006044820152606401610a89565b508161349c565b61349c83836134a4565b949350505050565b8151156134b45781518083602001fd5b8060405162461bcd60e51b8152600401610a899190613db9565b828054828255906000526020600020908101928215613509579160200282015b828111156135095782358255916020019190600101906134ee565b50613515929150613671565b5090565b6001830191839082156135095791602002820160005b8382111561356d57835183826101000a81548160ff021916908360ff160217905550926020019260010160208160000104928301926001030261352f565b801561359a5782816101000a81549060ff021916905560010160208160000104928301926001030261356d565b5050613515929150613671565b6001830191839082156135095791601f016020900482015b828111156135095782548255916001019190600101906135bf565b6040518060e001604052806007906020820280368337509192915050565b6040518061064001604052806032906020820280368337509192915050565b6040518061010001604052806008906020820280368337509192915050565b828054828255906000526020600020908101928215613509579160200282015b82811115613509578251825591602001919060010190613656565b5b808211156135155760008155600101613672565b60006020828403121561369857600080fd5b5035919050565b80356001600160a01b03811681146136b657600080fd5b919050565b6000806000606084860312156136d057600080fd5b6136d98461369f565b95602085013595506040909401359392505050565b60008060006040848603121561370357600080fd5b83359250602084013567ffffffffffffffff8082111561372257600080fd5b818601915086601f83011261373657600080fd5b81358181111561374557600080fd5b8760208260051b850101111561375a57600080fd5b6020830194508093505050509250925092565b60006020828403121561377f57600080fd5b6133a48261369f565b600060e0828403121561379a57600080fd5b8260e0830111156137aa57600080fd5b50919050565b600081518084526020808501945080840160005b838110156137e0578151875295820195908201906001016137c4565b509495945050505050565b6020815260006133a460208301846137b0565b6000806020838503121561381157600080fd5b823567ffffffffffffffff8082111561382957600080fd5b818501915085601f83011261383d57600080fd5b81358181111561384c57600080fd5b86602082850101111561385e57600080fd5b60209290920196919550909350505050565b634e487b7160e01b600052604160045260246000fd5b6000806040838503121561389957600080fd5b6138a28361369f565b9150602083013567ffffffffffffffff808211156138bf57600080fd5b818501915085601f8301126138d357600080fd5b8135818111156138e5576138e5613870565b604051601f8201601f19908116603f0116810190838211818310171561390d5761390d613870565b8160405282815288602084870101111561392657600080fd5b8260208601602083013760006020848301015280955050505050509250929050565b8060005b6007811015610f9c57815160ff1684526020938401939091019060010161394c565b60e081016122bd8284613948565b60005b8381101561399757818101518382015260200161397f565b50506000910152565b600081518084526139b881602086016020860161397c565b601f01601f19169290920160200192915050565b821515815260406020820152600061349c60408301846139a0565b600080604083850312156139fa57600080fd5b50508035926020909101359150565b600060208284031215613a1b57600080fd5b813561ffff811681146133a457600080fd5b6001600160a01b03861681526101608101613a4b6020830187613948565b93151561010082015260ff929092166101208301526101409091015292915050565b600060208284031215613a7f57600080fd5b813563ffffffff811681146133a457600080fd5b600060208284031215613aa557600080fd5b813580151581146133a457600080fd5b821515815260406020820152600061349c60408301846137b0565b8381526040602082015281604082015260007f07ffffffffffffffffffffffffffffffffffffffffffffffffffffffffffffff831115613b0f57600080fd5b8260051b8085606085013791909101606001949350505050565b600061012082019050848252836020830152825460ff8082166040850152808260081c166060850152808260101c166080850152613b7160a08501828460181c1660ff169052565b613b8560c08501828460201c1660ff169052565b613b9960e08501828460281c1660ff169052565b613bae6101008501828460301c1660ff169052565b5050949350505050565b634e487b7160e01b600052601160045260246000fd5b808201808211156122bd576122bd613bb8565b818103818111156122bd576122bd613bb8565b803560ff811681146136b657600080fd5b828152610100810160208083018460005b6007811015613c3d5760ff613c2a83613bf4565b1683529183019190830190600101613c16565b505050509392505050565b634e487b7160e01b600052603260045260246000fd5b600060018201613c7057613c70613bb8565b5060010190565b634e487b7160e01b600052601260045260246000fd5b600082613c9c57613c9c613c77565b500690565b80820281158282048414176122bd576122bd613bb8565b600082613cc757613cc7613c77565b500490565b600060ff821660ff8103613ce257613ce2613bb8565b60010192915050565b6101208101613cfa8286613948565b60e08201939093526101000152919050565b600060208284031215613d1e57600080fd5b5051919050565b600060208284031215613d3757600080fd5b6133a482613bf4565b60208152815160208201526020820151604082015261ffff60408301511660608201526000606083015163ffffffff80821660808501528060808601511660a0850152505060a083015160c08084015261349c60e08401826139a0565b60008251613daf81846020870161397c565b9190910192915050565b6020815260006133a460208301846139a056fe416464726573733a206c6f772d6c6576656c2064656c65676174652063616c6c206661696c6564a2646970667358221220727328449e76e841a6fc883062daea4f3ac73e6a73813a62438ee34cead76b9c64736f6c63430008140033","opcodes":"PUSH1 0xA0 PUSH1 0x40 MSTORE ADDRESS PUSH1 0x80 MSTORE CALLVALUE DUP1 ISZERO PUSH3 0x15 JUMPI PUSH1 0x0 DUP1 REVERT JUMPDEST POP PUSH3 0x20 PUSH3 0x26 JUMP JUMPDEST PUSH3 0xE7 JUMP JUMPDEST PUSH1 0x0 SLOAD PUSH2 0x100 SWAP1 DIV PUSH1 0xFF AND ISZERO PUSH3 0x93 JUMPI PUSH1 0x40 MLOAD PUSH3 0x461BCD PUSH1 0xE5 SHL DUP2 MSTORE PUSH1 0x20 PUSH1 0x4 DUP3 ADD MSTORE PUSH1 0x27 PUSH1 0x24 DUP3 ADD MSTORE PUSH32 0x496E697469616C697A61626C653A20636F6E747261637420697320696E697469 PUSH1 0x44 DUP3 ADD MSTORE PUSH7 0x616C697A696E67 PUSH1 0xC8 SHL PUSH1 0x64 DUP3 ADD MSTORE PUSH1 0x84 ADD PUSH1 0x40 MLOAD DUP1 SWAP2 SUB SWAP1 REVERT JUMPDEST PUSH1 0x0 SLOAD PUSH1 0xFF SWAP1 DUP2 AND EQ PUSH3 0xE5 JUMPI PUSH1 0x0 DUP1 SLOAD PUSH1 0xFF NOT AND PUSH1 0xFF SWAP1 DUP2 OR SWAP1 SWAP2 SSTORE PUSH1 0x40 MLOAD SWAP1 DUP2 MSTORE PUSH32 0x7F26B83FF96E1F2B6A682F133852F6798A09C465DA95921460CEFB3847402498 SWAP1 PUSH1 0x20 ADD PUSH1 0x40 MLOAD DUP1 SWAP2 SUB SWAP1 LOG1 JUMPDEST JUMP JUMPDEST PUSH1 0x80 MLOAD PUSH2 0x3E29 PUSH3 0x11F PUSH1 0x0 CODECOPY PUSH1 0x0 DUP2 DUP2 PUSH2 0xFAC ADD MSTORE DUP2 DUP2 PUSH2 0x1031 ADD MSTORE DUP2 DUP2 PUSH2 0x164E ADD MSTORE DUP2 DUP2 PUSH2 0x16D3 ADD MSTORE PUSH2 0x17BD ADD MSTORE PUSH2 0x3E29 PUSH1 0x0 RETURN INVALID PUSH1 0x80 PUSH1 0x40 MSTORE PUSH1 0x4 CALLDATASIZE LT PUSH2 0x32D JUMPI PUSH1 0x0 CALLDATALOAD PUSH1 0xE0 SHR DUP1 PUSH4 0x84350E1D GT PUSH2 0x1A5 JUMPI DUP1 PUSH4 0xB368BA42 GT PUSH2 0xEC JUMPI DUP1 PUSH4 0xD8A4676F GT PUSH2 0x95 JUMPI DUP1 PUSH4 0xF30C07D3 GT PUSH2 0x6F JUMPI DUP1 PUSH4 0xF30C07D3 EQ PUSH2 0x9C9 JUMPI DUP1 PUSH4 0xF7CB789A EQ PUSH2 0x9E9 JUMPI DUP1 PUSH4 0xF9F94E34 EQ PUSH2 0x9FF JUMPI DUP1 PUSH4 0xFC2A88C3 EQ PUSH2 0xA1F JUMPI PUSH1 0x0 DUP1 REVERT JUMPDEST DUP1 PUSH4 0xD8A4676F EQ PUSH2 0x965 JUMPI DUP1 PUSH4 0xE1A45218 EQ PUSH2 0x993 JUMPI DUP1 PUSH4 0xF2FDE38B EQ PUSH2 0x9A9 JUMPI PUSH1 0x0 DUP1 REVERT JUMPDEST DUP1 PUSH4 0xC885BC58 GT PUSH2 0xC6 JUMPI DUP1 PUSH4 0xC885BC58 EQ PUSH2 0x903 JUMPI DUP1 PUSH4 0xC88E1561 EQ PUSH2 0x918 JUMPI DUP1 PUSH4 0xD88D27D6 EQ PUSH2 0x938 JUMPI PUSH1 0x0 DUP1 REVERT JUMPDEST DUP1 PUSH4 0xB368BA42 EQ PUSH2 0x88C JUMPI DUP1 PUSH4 0xC1E0D236 EQ PUSH2 0x8B6 JUMPI DUP1 PUSH4 0xC4289070 EQ PUSH2 0x8D6 JUMPI PUSH1 0x0 DUP1 REVERT JUMPDEST DUP1 PUSH4 0x9CBE5EFD GT PUSH2 0x14E JUMPI DUP1 PUSH4 0xA4EB718C GT PUSH2 0x128 JUMPI DUP1 PUSH4 0xA4EB718C EQ PUSH2 0x820 JUMPI DUP1 PUSH4 0xB0FB162F EQ PUSH2 0x840 JUMPI DUP1 PUSH4 0xB28F6EF1 EQ PUSH2 0x876 JUMPI PUSH1 0x0 DUP1 REVERT JUMPDEST DUP1 PUSH4 0x9CBE5EFD EQ PUSH2 0x7B9 JUMPI DUP1 PUSH4 0x9ECCACF6 EQ PUSH2 0x7CF JUMPI DUP1 PUSH4 0xA426E4C8 EQ PUSH2 0x7EF JUMPI PUSH1 0x0 DUP1 REVERT JUMPDEST DUP1 PUSH4 0x8DA5CB5B GT PUSH2 0x17F JUMPI DUP1 PUSH4 0x8DA5CB5B EQ PUSH2 0x747 JUMPI DUP1 PUSH4 0x900FC869 EQ PUSH2 0x779 JUMPI DUP1 PUSH4 0x98544710 EQ PUSH2 0x799 JUMPI PUSH1 0x0 DUP1 REVERT JUMPDEST DUP1 PUSH4 0x84350E1D EQ PUSH2 0x686 JUMPI DUP1 PUSH4 0x8824F5A7 EQ PUSH2 0x69B JUMPI DUP1 PUSH4 0x8C65C81F EQ PUSH2 0x6BB JUMPI PUSH1 0x0 DUP1 REVERT JUMPDEST DUP1 PUSH4 0x3C256B24 GT PUSH2 0x274 JUMPI DUP1 PUSH4 0x61728F39 GT PUSH2 0x21D JUMPI DUP1 PUSH4 0x715018A6 GT PUSH2 0x1F7 JUMPI DUP1 PUSH4 0x715018A6 EQ PUSH2 0x5DA JUMPI DUP1 PUSH4 0x7CCFD7FC EQ PUSH2 0x5EF JUMPI DUP1 PUSH4 0x81D12C58 EQ PUSH2 0x616 JUMPI DUP1 PUSH4 0x82FBC5C2 EQ PUSH2 0x666 JUMPI PUSH1 0x0 DUP1 REVERT JUMPDEST DUP1 PUSH4 0x61728F39 EQ PUSH2 0x569 JUMPI DUP1 PUSH4 0x64069E71 EQ PUSH2 0x57F JUMPI DUP1 PUSH4 0x6E04FF0D EQ PUSH2 0x5AC JUMPI PUSH1 0x0 DUP1 REVERT JUMPDEST DUP1 PUSH4 0x4E45F095 GT PUSH2 0x24E JUMPI DUP1 PUSH4 0x4E45F095 EQ PUSH2 0x50F JUMPI DUP1 PUSH4 0x4F1EF286 EQ PUSH2 0x541 JUMPI DUP1 PUSH4 0x52D1902D EQ PUSH2 0x554 JUMPI PUSH1 0x0 DUP1 REVERT JUMPDEST DUP1 PUSH4 0x3C256B24 EQ PUSH2 0x4B7 JUMPI DUP1 PUSH4 0x3C51C7BB EQ PUSH2 0x4D9 JUMPI DUP1 PUSH4 0x4585E33B EQ PUSH2 0x4EF JUMPI PUSH1 0x0 DUP1 REVERT JUMPDEST DUP1 PUSH4 0x24F74697 GT PUSH2 0x2D6 JUMPI DUP1 PUSH4 0x3659CFE6 GT PUSH2 0x2B0 JUMPI DUP1 PUSH4 0x3659CFE6 EQ PUSH2 0x464 JUMPI DUP1 PUSH4 0x36C92C3F EQ PUSH2 0x484 JUMPI DUP1 PUSH4 0x39E7397B EQ PUSH2 0x4A4 JUMPI PUSH1 0x0 DUP1 REVERT JUMPDEST DUP1 PUSH4 0x24F74697 EQ PUSH2 0x3EF JUMPI DUP1 PUSH4 0x25C5D34A EQ PUSH2 0x421 JUMPI DUP1 PUSH4 0x31D7A262 EQ PUSH2 0x437 JUMPI PUSH1 0x0 DUP1 REVERT JUMPDEST DUP1 PUSH4 0x15981650 GT PUSH2 0x307 JUMPI DUP1 PUSH4 0x15981650 EQ PUSH2 0x38F JUMPI DUP1 PUSH4 0x1B7CE041 EQ PUSH2 0x3AF JUMPI DUP1 PUSH4 0x1FE543E3 EQ PUSH2 0x3CF JUMPI PUSH1 0x0 DUP1 REVERT JUMPDEST DUP1 PUSH4 0x72EA61C EQ PUSH2 0x339 JUMPI DUP1 PUSH4 0x9C1BA2E EQ PUSH2 0x362 JUMPI DUP1 PUSH4 0xA9EF34C EQ PUSH2 0x378 JUMPI PUSH1 0x0 DUP1 REVERT JUMPDEST CALLDATASIZE PUSH2 0x334 JUMPI STOP JUMPDEST PUSH1 0x0 DUP1 REVERT JUMPDEST CALLVALUE DUP1 ISZERO PUSH2 0x345 JUMPI PUSH1 0x0 DUP1 REVERT JUMPDEST POP PUSH2 0x34F PUSH1 0xD0 SLOAD DUP2 JUMP JUMPDEST PUSH1 0x40 MLOAD SWAP1 DUP2 MSTORE PUSH1 0x20 ADD JUMPDEST PUSH1 0x40 MLOAD DUP1 SWAP2 SUB SWAP1 RETURN JUMPDEST CALLVALUE DUP1 ISZERO PUSH2 0x36E JUMPI PUSH1 0x0 DUP1 REVERT JUMPDEST POP PUSH2 0x34F PUSH1 0xCA SLOAD DUP2 JUMP JUMPDEST CALLVALUE DUP1 ISZERO PUSH2 0x384 JUMPI PUSH1 0x0 DUP1 REVERT JUMPDEST POP PUSH2 0x38D PUSH2 0xA35 JUMP JUMPDEST STOP JUMPDEST CALLVALUE DUP1 ISZERO PUSH2 0x39B JUMPI PUSH1 0x0 DUP1 REVERT JUMPDEST POP PUSH2 0x38D PUSH2 0x3AA CALLDATASIZE PUSH1 0x4 PUSH2 0x3686 JUMP JUMPDEST PUSH2 0xB8D JUMP JUMPDEST CALLVALUE DUP1 ISZERO PUSH2 0x3BB JUMPI PUSH1 0x0 DUP1 REVERT JUMPDEST POP PUSH2 0x38D PUSH2 0x3CA CALLDATASIZE PUSH1 0x4 PUSH2 0x36BB JUMP JUMPDEST PUSH2 0xBEA JUMP JUMPDEST CALLVALUE DUP1 ISZERO PUSH2 0x3DB JUMPI PUSH1 0x0 DUP1 REVERT JUMPDEST POP PUSH2 0x38D PUSH2 0x3EA CALLDATASIZE PUSH1 0x4 PUSH2 0x36EE JUMP JUMPDEST PUSH2 0xD4C JUMP JUMPDEST CALLVALUE DUP1 ISZERO PUSH2 0x3FB JUMPI PUSH1 0x0 DUP1 REVERT JUMPDEST POP PUSH1 0xCC SLOAD PUSH2 0x40C SWAP1 PUSH4 0xFFFFFFFF AND DUP2 JUMP JUMPDEST PUSH1 0x40 MLOAD PUSH4 0xFFFFFFFF SWAP1 SWAP2 AND DUP2 MSTORE PUSH1 0x20 ADD PUSH2 0x359 JUMP JUMPDEST CALLVALUE DUP1 ISZERO PUSH2 0x42D JUMPI PUSH1 0x0 DUP1 REVERT JUMPDEST POP PUSH2 0x34F PUSH2 0x3E8 DUP2 JUMP JUMPDEST CALLVALUE DUP1 ISZERO PUSH2 0x443 JUMPI PUSH1 0x0 DUP1 REVERT JUMPDEST POP PUSH2 0x34F PUSH2 0x452 CALLDATASIZE PUSH1 0x4 PUSH2 0x376D JUMP JUMPDEST PUSH1 0xD8 PUSH1 0x20 MSTORE PUSH1 0x0 SWAP1 DUP2 MSTORE PUSH1 0x40 SWAP1 KECCAK256 SLOAD DUP2 JUMP JUMPDEST CALLVALUE DUP1 ISZERO PUSH2 0x470 JUMPI PUSH1 0x0 DUP1 REVERT JUMPDEST POP PUSH2 0x38D PUSH2 0x47F CALLDATASIZE PUSH1 0x4 PUSH2 0x376D JUMP JUMPDEST PUSH2 0xFA2 JUMP JUMPDEST CALLVALUE DUP1 ISZERO PUSH2 0x490 JUMPI PUSH1 0x0 DUP1 REVERT JUMPDEST POP PUSH2 0x38D PUSH2 0x49F CALLDATASIZE PUSH1 0x4 PUSH2 0x3686 JUMP JUMPDEST PUSH2 0x111D JUMP JUMPDEST PUSH2 0x38D PUSH2 0x4B2 CALLDATASIZE PUSH1 0x4 PUSH2 0x3788 JUMP JUMPDEST PUSH2 0x117A JUMP JUMPDEST CALLVALUE DUP1 ISZERO PUSH2 0x4C3 JUMPI PUSH1 0x0 DUP1 REVERT JUMPDEST POP PUSH2 0x4CC PUSH2 0x1435 JUMP JUMPDEST PUSH1 0x40 MLOAD PUSH2 0x359 SWAP2 SWAP1 PUSH2 0x37EB JUMP JUMPDEST CALLVALUE DUP1 ISZERO PUSH2 0x4E5 JUMPI PUSH1 0x0 DUP1 REVERT JUMPDEST POP PUSH2 0x34F PUSH1 0xDA SLOAD DUP2 JUMP JUMPDEST CALLVALUE DUP1 ISZERO PUSH2 0x4FB JUMPI PUSH1 0x0 DUP1 REVERT JUMPDEST POP PUSH2 0x38D PUSH2 0x50A CALLDATASIZE PUSH1 0x4 PUSH2 0x37FE JUMP JUMPDEST PUSH2 0x148D JUMP JUMPDEST CALLVALUE DUP1 ISZERO PUSH2 0x51B JUMPI PUSH1 0x0 DUP1 REVERT JUMPDEST POP PUSH2 0x52F PUSH2 0x52A CALLDATASIZE PUSH1 0x4 PUSH2 0x3686 JUMP JUMPDEST PUSH2 0x161A JUMP JUMPDEST PUSH1 0x40 MLOAD PUSH1 0xFF SWAP1 SWAP2 AND DUP2 MSTORE PUSH1 0x20 ADD PUSH2 0x359 JUMP JUMPDEST PUSH2 0x38D PUSH2 0x54F CALLDATASIZE PUSH1 0x4 PUSH2 0x3886 JUMP JUMPDEST PUSH2 0x1644 JUMP JUMPDEST CALLVALUE DUP1 ISZERO PUSH2 0x560 JUMPI PUSH1 0x0 DUP1 REVERT JUMPDEST POP PUSH2 0x34F PUSH2 0x17B0 JUMP JUMPDEST CALLVALUE DUP1 ISZERO PUSH2 0x575 JUMPI PUSH1 0x0 DUP1 REVERT JUMPDEST POP PUSH2 0x34F PUSH1 0xCB SLOAD DUP2 JUMP JUMPDEST CALLVALUE DUP1 ISZERO PUSH2 0x58B JUMPI PUSH1 0x0 DUP1 REVERT JUMPDEST POP PUSH2 0x59F PUSH2 0x59A CALLDATASIZE PUSH1 0x4 PUSH2 0x3686 JUMP JUMPDEST PUSH2 0x1875 JUMP JUMPDEST PUSH1 0x40 MLOAD PUSH2 0x359 SWAP2 SWAP1 PUSH2 0x396E JUMP JUMPDEST CALLVALUE DUP1 ISZERO PUSH2 0x5B8 JUMPI PUSH1 0x0 DUP1 REVERT JUMPDEST POP PUSH2 0x5CC PUSH2 0x5C7 CALLDATASIZE PUSH1 0x4 PUSH2 0x37FE JUMP JUMPDEST PUSH2 0x18D9 JUMP JUMPDEST PUSH1 0x40 MLOAD PUSH2 0x359 SWAP3 SWAP2 SWAP1 PUSH2 0x39CC JUMP JUMPDEST CALLVALUE DUP1 ISZERO PUSH2 0x5E6 JUMPI PUSH1 0x0 DUP1 REVERT JUMPDEST POP PUSH2 0x38D PUSH2 0x1946 JUMP JUMPDEST CALLVALUE DUP1 ISZERO PUSH2 0x5FB JUMPI PUSH1 0x0 DUP1 REVERT JUMPDEST POP PUSH1 0xCC SLOAD PUSH2 0x40C SWAP1 PUSH7 0x1000000000000 SWAP1 DIV PUSH4 0xFFFFFFFF AND DUP2 JUMP JUMPDEST CALLVALUE DUP1 ISZERO PUSH2 0x622 JUMPI PUSH1 0x0 DUP1 REVERT JUMPDEST POP PUSH2 0x64F PUSH2 0x631 CALLDATASIZE PUSH1 0x4 PUSH2 0x3686 JUMP JUMPDEST PUSH1 0xD3 PUSH1 0x20 MSTORE PUSH1 0x0 SWAP1 DUP2 MSTORE PUSH1 0x40 SWAP1 KECCAK256 SLOAD PUSH1 0xFF DUP1 DUP3 AND SWAP2 PUSH2 0x100 SWAP1 DIV AND DUP3 JUMP JUMPDEST PUSH1 0x40 DUP1 MLOAD SWAP3 ISZERO ISZERO DUP4 MSTORE SWAP1 ISZERO ISZERO PUSH1 0x20 DUP4 ADD MSTORE ADD PUSH2 0x359 JUMP JUMPDEST CALLVALUE DUP1 ISZERO PUSH2 0x672 JUMPI PUSH1 0x0 DUP1 REVERT JUMPDEST POP PUSH2 0x52F PUSH2 0x681 CALLDATASIZE PUSH1 0x4 PUSH2 0x39E7 JUMP JUMPDEST PUSH2 0x195A JUMP JUMPDEST CALLVALUE DUP1 ISZERO PUSH2 0x692 JUMPI PUSH1 0x0 DUP1 REVERT JUMPDEST POP PUSH2 0x59F PUSH2 0x1993 JUMP JUMPDEST CALLVALUE DUP1 ISZERO PUSH2 0x6A7 JUMPI PUSH1 0x0 DUP1 REVERT JUMPDEST POP PUSH2 0x38D PUSH2 0x6B6 CALLDATASIZE PUSH1 0x4 PUSH2 0x3A09 JUMP JUMPDEST PUSH2 0x19EB JUMP JUMPDEST CALLVALUE DUP1 ISZERO PUSH2 0x6C7 JUMPI PUSH1 0x0 DUP1 REVERT JUMPDEST POP PUSH2 0x712 PUSH2 0x6D6 CALLDATASIZE PUSH1 0x4 PUSH2 0x3686 JUMP JUMPDEST PUSH1 0xD5 PUSH1 0x20 MSTORE PUSH1 0x0 SWAP1 DUP2 MSTORE PUSH1 0x40 SWAP1 KECCAK256 DUP1 SLOAD PUSH1 0x1 DUP3 ADD SLOAD PUSH1 0x2 DUP4 ADD SLOAD PUSH1 0x3 SWAP1 SWAP4 ADD SLOAD PUSH1 0xFF DUP1 DUP5 AND SWAP5 PUSH2 0x100 DUP6 DIV DUP3 AND SWAP5 PUSH3 0x10000 SWAP1 DIV SWAP1 SWAP2 AND SWAP3 SWAP2 DUP7 JUMP JUMPDEST PUSH1 0x40 DUP1 MLOAD SWAP7 ISZERO ISZERO DUP8 MSTORE SWAP5 ISZERO ISZERO PUSH1 0x20 DUP8 ADD MSTORE SWAP3 ISZERO ISZERO SWAP4 DUP6 ADD SWAP4 SWAP1 SWAP4 MSTORE PUSH1 0x60 DUP5 ADD MSTORE PUSH1 0x80 DUP4 ADD SWAP2 SWAP1 SWAP2 MSTORE PUSH1 0xA0 DUP3 ADD MSTORE PUSH1 0xC0 ADD PUSH2 0x359 JUMP JUMPDEST CALLVALUE DUP1 ISZERO PUSH2 0x753 JUMPI PUSH1 0x0 DUP1 REVERT JUMPDEST POP PUSH1 0x33 SLOAD PUSH1 0x1 PUSH1 0x1 PUSH1 0xA0 SHL SUB AND JUMPDEST PUSH1 0x40 MLOAD PUSH1 0x1 PUSH1 0x1 PUSH1 0xA0 SHL SUB SWAP1 SWAP2 AND DUP2 MSTORE PUSH1 0x20 ADD PUSH2 0x359 JUMP JUMPDEST CALLVALUE DUP1 ISZERO PUSH2 0x785 JUMPI PUSH1 0x0 DUP1 REVERT JUMPDEST POP PUSH2 0x34F PUSH2 0x794 CALLDATASIZE PUSH1 0x4 PUSH2 0x3686 JUMP JUMPDEST PUSH2 0x1A17 JUMP JUMPDEST CALLVALUE DUP1 ISZERO PUSH2 0x7A5 JUMPI PUSH1 0x0 DUP1 REVERT JUMPDEST POP PUSH2 0x38D PUSH2 0x7B4 CALLDATASIZE PUSH1 0x4 PUSH2 0x3686 JUMP JUMPDEST PUSH2 0x1A38 JUMP JUMPDEST CALLVALUE DUP1 ISZERO PUSH2 0x7C5 JUMPI PUSH1 0x0 DUP1 REVERT JUMPDEST POP PUSH2 0x34F PUSH1 0xDB SLOAD DUP2 JUMP JUMPDEST CALLVALUE DUP1 ISZERO PUSH2 0x7DB JUMPI PUSH1 0x0 DUP1 REVERT JUMPDEST POP PUSH1 0xC9 SLOAD PUSH2 0x761 SWAP1 PUSH1 0x1 PUSH1 0x1 PUSH1 0xA0 SHL SUB AND DUP2 JUMP JUMPDEST CALLVALUE DUP1 ISZERO PUSH2 0x7FB JUMPI PUSH1 0x0 DUP1 REVERT JUMPDEST POP PUSH2 0x80F PUSH2 0x80A CALLDATASIZE PUSH1 0x4 PUSH2 0x39E7 JUMP JUMPDEST PUSH2 0x1A45 JUMP JUMPDEST PUSH1 0x40 MLOAD PUSH2 0x359 SWAP6 SWAP5 SWAP4 SWAP3 SWAP2 SWAP1 PUSH2 0x3A2D JUMP JUMPDEST CALLVALUE DUP1 ISZERO PUSH2 0x82C JUMPI PUSH1 0x0 DUP1 REVERT JUMPDEST POP PUSH2 0x38D PUSH2 0x83B CALLDATASIZE PUSH1 0x4 PUSH2 0x3A6D JUMP JUMPDEST PUSH2 0x1B17 JUMP JUMPDEST CALLVALUE DUP1 ISZERO PUSH2 0x84C JUMPI PUSH1 0x0 DUP1 REVERT JUMPDEST POP PUSH1 0xCC SLOAD PUSH2 0x863 SWAP1 PUSH5 0x100000000 SWAP1 DIV PUSH2 0xFFFF AND DUP2 JUMP JUMPDEST PUSH1 0x40 MLOAD PUSH2 0xFFFF SWAP1 SWAP2 AND DUP2 MSTORE PUSH1 0x20 ADD PUSH2 0x359 JUMP JUMPDEST CALLVALUE DUP1 ISZERO PUSH2 0x882 JUMPI PUSH1 0x0 DUP1 REVERT JUMPDEST POP PUSH2 0x34F PUSH1 0xD9 SLOAD DUP2 JUMP JUMPDEST CALLVALUE DUP1 ISZERO PUSH2 0x898 JUMPI PUSH1 0x0 DUP1 REVERT JUMPDEST POP PUSH1 0xD2 SLOAD PUSH2 0x8A6 SWAP1 PUSH1 0xFF AND DUP2 JUMP JUMPDEST PUSH1 0x40 MLOAD SWAP1 ISZERO ISZERO DUP2 MSTORE PUSH1 0x20 ADD PUSH2 0x359 JUMP JUMPDEST CALLVALUE DUP1 ISZERO PUSH2 0x8C2 JUMPI PUSH1 0x0 DUP1 REVERT JUMPDEST POP PUSH2 0x38D PUSH2 0x8D1 CALLDATASIZE PUSH1 0x4 PUSH2 0x3686 JUMP JUMPDEST PUSH2 0x1B3B JUMP JUMPDEST CALLVALUE DUP1 ISZERO PUSH2 0x8E2 JUMPI PUSH1 0x0 DUP1 REVERT JUMPDEST POP PUSH2 0x34F PUSH2 0x8F1 CALLDATASIZE PUSH1 0x4 PUSH2 0x3686 JUMP JUMPDEST PUSH1 0x0 SWAP1 DUP2 MSTORE PUSH1 0xD6 PUSH1 0x20 MSTORE PUSH1 0x40 SWAP1 KECCAK256 SLOAD SWAP1 JUMP JUMPDEST CALLVALUE DUP1 ISZERO PUSH2 0x90F JUMPI PUSH1 0x0 DUP1 REVERT JUMPDEST POP PUSH2 0x38D PUSH2 0x1B48 JUMP JUMPDEST CALLVALUE DUP1 ISZERO PUSH2 0x924 JUMPI PUSH1 0x0 DUP1 REVERT JUMPDEST POP PUSH2 0x38D PUSH2 0x933 CALLDATASIZE PUSH1 0x4 PUSH2 0x3A93 JUMP JUMPDEST PUSH2 0x1C7E JUMP JUMPDEST CALLVALUE DUP1 ISZERO PUSH2 0x944 JUMPI PUSH1 0x0 DUP1 REVERT JUMPDEST POP PUSH2 0x34F PUSH2 0x953 CALLDATASIZE PUSH1 0x4 PUSH2 0x3686 JUMP JUMPDEST PUSH1 0xD4 PUSH1 0x20 MSTORE PUSH1 0x0 SWAP1 DUP2 MSTORE PUSH1 0x40 SWAP1 KECCAK256 SLOAD DUP2 JUMP JUMPDEST CALLVALUE DUP1 ISZERO PUSH2 0x971 JUMPI PUSH1 0x0 DUP1 REVERT JUMPDEST POP PUSH2 0x985 PUSH2 0x980 CALLDATASIZE PUSH1 0x4 PUSH2 0x3686 JUMP JUMPDEST PUSH2 0x1C99 JUMP JUMPDEST PUSH1 0x40 MLOAD PUSH2 0x359 SWAP3 SWAP2 SWAP1 PUSH2 0x3AB5 JUMP JUMPDEST CALLVALUE DUP1 ISZERO PUSH2 0x99F JUMPI PUSH1 0x0 DUP1 REVERT JUMPDEST POP PUSH2 0x34F PUSH2 0x2710 DUP2 JUMP JUMPDEST CALLVALUE DUP1 ISZERO PUSH2 0x9B5 JUMPI PUSH1 0x0 DUP1 REVERT JUMPDEST POP PUSH2 0x38D PUSH2 0x9C4 CALLDATASIZE PUSH1 0x4 PUSH2 0x376D JUMP JUMPDEST PUSH2 0x1D73 JUMP JUMPDEST CALLVALUE DUP1 ISZERO PUSH2 0x9D5 JUMPI PUSH1 0x0 DUP1 REVERT JUMPDEST POP PUSH2 0x38D PUSH2 0x9E4 CALLDATASIZE PUSH1 0x4 PUSH2 0x3A6D JUMP JUMPDEST PUSH2 0x1E00 JUMP JUMPDEST CALLVALUE DUP1 ISZERO PUSH2 0x9F5 JUMPI PUSH1 0x0 DUP1 REVERT JUMPDEST POP PUSH2 0x34F PUSH1 0xD1 SLOAD DUP2 JUMP JUMPDEST CALLVALUE DUP1 ISZERO PUSH2 0xA0B JUMPI PUSH1 0x0 DUP1 REVERT JUMPDEST POP PUSH2 0x38D PUSH2 0xA1A CALLDATASIZE PUSH1 0x4 PUSH2 0x376D JUMP JUMPDEST PUSH2 0x1E8A JUMP JUMPDEST CALLVALUE DUP1 ISZERO PUSH2 0xA2B JUMPI PUSH1 0x0 DUP1 REVERT JUMPDEST POP PUSH2 0x34F PUSH1 0xCD SLOAD DUP2 JUMP JUMPDEST PUSH2 0xA3D PUSH2 0x1EB4 JUMP JUMPDEST PUSH1 0xD9 SLOAD DUP1 PUSH2 0xA92 JUMPI PUSH1 0x40 MLOAD PUSH3 0x461BCD PUSH1 0xE5 SHL DUP2 MSTORE PUSH1 0x20 PUSH1 0x4 DUP3 ADD MSTORE PUSH1 0xD PUSH1 0x24 DUP3 ADD MSTORE PUSH32 0x4E6F206F776E6572206665657300000000000000000000000000000000000000 PUSH1 0x44 DUP3 ADD MSTORE PUSH1 0x64 ADD JUMPDEST PUSH1 0x40 MLOAD DUP1 SWAP2 SUB SWAP1 REVERT JUMPDEST PUSH1 0x0 PUSH1 0xD9 DUP2 SWAP1 SSTORE PUSH1 0x33 SLOAD PUSH1 0x40 MLOAD PUSH1 0x1 PUSH1 0x1 PUSH1 0xA0 SHL SUB SWAP1 SWAP2 AND SWAP1 DUP4 SWAP1 DUP4 DUP2 DUP2 DUP2 DUP6 DUP8 GAS CALL SWAP3 POP POP POP RETURNDATASIZE DUP1 PUSH1 0x0 DUP2 EQ PUSH2 0xAE5 JUMPI PUSH1 0x40 MLOAD SWAP2 POP PUSH1 0x1F NOT PUSH1 0x3F RETURNDATASIZE ADD AND DUP3 ADD PUSH1 0x40 MSTORE RETURNDATASIZE DUP3 MSTORE RETURNDATASIZE PUSH1 0x0 PUSH1 0x20 DUP5 ADD RETURNDATACOPY PUSH2 0xAEA JUMP JUMPDEST PUSH1 0x60 SWAP2 POP JUMPDEST POP POP SWAP1 POP DUP1 PUSH2 0xB3B JUMPI PUSH1 0x40 MLOAD PUSH3 0x461BCD PUSH1 0xE5 SHL DUP2 MSTORE PUSH1 0x20 PUSH1 0x4 DUP3 ADD MSTORE PUSH1 0x19 PUSH1 0x24 DUP3 ADD MSTORE PUSH32 0x4F776E657220666565207472616E73666572206661696C656400000000000000 PUSH1 0x44 DUP3 ADD MSTORE PUSH1 0x64 ADD PUSH2 0xA89 JUMP JUMPDEST PUSH1 0x33 SLOAD PUSH1 0x1 PUSH1 0x1 PUSH1 0xA0 SHL SUB AND PUSH1 0x1 PUSH1 0x1 PUSH1 0xA0 SHL SUB AND PUSH32 0x8C86225979E924F39334C49A16A32E53CA5FFE7A271A6793B57476CD62749D05 DUP4 PUSH1 0x40 MLOAD PUSH2 0xB81 SWAP2 DUP2 MSTORE PUSH1 0x20 ADD SWAP1 JUMP JUMPDEST PUSH1 0x40 MLOAD DUP1 SWAP2 SUB SWAP1 LOG2 POP POP JUMP JUMPDEST PUSH2 0xB95 PUSH2 0x1EB4 JUMP JUMPDEST PUSH1 0x0 DUP2 GT PUSH2 0xBE5 JUMPI PUSH1 0x40 MLOAD PUSH3 0x461BCD PUSH1 0xE5 SHL DUP2 MSTORE PUSH1 0x20 PUSH1 0x4 DUP3 ADD MSTORE PUSH1 0x11 PUSH1 0x24 DUP3 ADD MSTORE PUSH32 0x5072696365206D757374206265203E2030000000000000000000000000000000 PUSH1 0x44 DUP3 ADD MSTORE PUSH1 0x64 ADD PUSH2 0xA89 JUMP JUMPDEST PUSH1 0xD0 SSTORE JUMP JUMPDEST PUSH1 0x0 SLOAD PUSH1 0x2 SWAP1 PUSH2 0x100 SWAP1 DIV PUSH1 0xFF AND ISZERO DUP1 ISZERO PUSH2 0xC0C JUMPI POP PUSH1 0x0 SLOAD PUSH1 0xFF DUP1 DUP4 AND SWAP2 AND LT JUMPDEST PUSH2 0xC7E JUMPI PUSH1 0x40 MLOAD PUSH3 0x461BCD PUSH1 0xE5 SHL DUP2 MSTORE PUSH1 0x20 PUSH1 0x4 DUP3 ADD MSTORE PUSH1 0x2E PUSH1 0x24 DUP3 ADD MSTORE PUSH32 0x496E697469616C697A61626C653A20636F6E747261637420697320616C726561 PUSH1 0x44 DUP3 ADD MSTORE PUSH32 0x647920696E697469616C697A6564000000000000000000000000000000000000 PUSH1 0x64 DUP3 ADD MSTORE PUSH1 0x84 ADD PUSH2 0xA89 JUMP JUMPDEST PUSH1 0x0 DUP1 SLOAD PUSH2 0xFFFF NOT AND PUSH1 0xFF DUP4 AND OR PUSH2 0x100 OR SWAP1 SSTORE PUSH2 0xC9A PUSH2 0x1F0E JUMP JUMPDEST PUSH2 0xCA2 PUSH2 0x1F81 JUMP JUMPDEST PUSH1 0xC9 DUP1 SLOAD PUSH1 0x1 PUSH1 0x1 PUSH1 0xA0 SHL SUB NOT AND PUSH1 0x1 PUSH1 0x1 PUSH1 0xA0 SHL SUB DUP7 AND OR SWAP1 SSTORE PUSH1 0xCA DUP4 SWAP1 SSTORE PUSH1 0xCB DUP3 SWAP1 SSTORE PUSH1 0xCC DUP1 SLOAD PUSH10 0xFFFFFFFFFFFFFFFFFFFF NOT AND PUSH7 0x70003000AAE60 OR SWAP1 SSTORE PUSH6 0x5AF3107A4000 PUSH1 0xD0 SSTORE PUSH2 0x12C PUSH1 0xD1 SSTORE PUSH1 0xD2 DUP1 SLOAD PUSH1 0xFF NOT AND SWAP1 SSTORE PUSH2 0xD05 PUSH2 0x1FEC JUMP JUMPDEST PUSH1 0x0 DUP1 SLOAD PUSH2 0xFF00 NOT AND SWAP1 SSTORE PUSH1 0x40 MLOAD PUSH1 0xFF DUP3 AND DUP2 MSTORE PUSH32 0x7F26B83FF96E1F2B6A682F133852F6798A09C465DA95921460CEFB3847402498 SWAP1 PUSH1 0x20 ADD PUSH1 0x40 MLOAD DUP1 SWAP2 SUB SWAP1 LOG1 POP POP POP POP JUMP JUMPDEST PUSH1 0xC9 SLOAD PUSH1 0x1 PUSH1 0x1 PUSH1 0xA0 SHL SUB AND CALLER EQ PUSH2 0xDA6 JUMPI PUSH1 0x40 MLOAD PUSH3 0x461BCD PUSH1 0xE5 SHL DUP2 MSTORE PUSH1 0x20 PUSH1 0x4 DUP3 ADD MSTORE PUSH1 0x1C PUSH1 0x24 DUP3 ADD MSTORE PUSH32 0x4F6E6C7920636F6F7264696E61746F722063616E2066756C66696C6C00000000 PUSH1 0x44 DUP3 ADD MSTORE PUSH1 0x64 ADD PUSH2 0xA89 JUMP JUMPDEST PUSH1 0x0 DUP4 DUP2 MSTORE PUSH1 0xD3 PUSH1 0x20 MSTORE PUSH1 0x40 SWAP1 KECCAK256 SLOAD PUSH1 0xFF AND PUSH2 0xE04 JUMPI PUSH1 0x40 MLOAD PUSH3 0x461BCD PUSH1 0xE5 SHL DUP2 MSTORE PUSH1 0x20 PUSH1 0x4 DUP3 ADD MSTORE PUSH1 0x11 PUSH1 0x24 DUP3 ADD MSTORE PUSH32 0x52657175657374206E6F7420666F756E64000000000000000000000000000000 PUSH1 0x44 DUP3 ADD MSTORE PUSH1 0x64 ADD PUSH2 0xA89 JUMP JUMPDEST PUSH1 0x0 DUP4 DUP2 MSTORE PUSH1 0xD3 PUSH1 0x20 MSTORE PUSH1 0x40 SWAP1 KECCAK256 DUP1 SLOAD PUSH2 0xFF00 NOT AND PUSH2 0x100 OR DUP2 SSTORE PUSH2 0xE2D SWAP1 PUSH1 0x1 ADD DUP4 DUP4 PUSH2 0x34CE JUMP JUMPDEST POP PUSH2 0xE3A PUSH1 0xCE DUP4 DUP4 PUSH2 0x34CE JUMP JUMPDEST POP PUSH1 0x0 DUP4 DUP2 MSTORE PUSH1 0xD4 PUSH1 0x20 MSTORE PUSH1 0x40 DUP2 KECCAK256 SLOAD SWAP1 DUP2 SWAP1 SUB PUSH2 0xE9A JUMPI PUSH1 0x40 MLOAD PUSH3 0x461BCD PUSH1 0xE5 SHL DUP2 MSTORE PUSH1 0x20 PUSH1 0x4 DUP3 ADD MSTORE PUSH1 0x10 PUSH1 0x24 DUP3 ADD MSTORE PUSH32 0x526F756E64206E6F74206C696E6B656400000000000000000000000000000000 PUSH1 0x44 DUP3 ADD MSTORE PUSH1 0x64 ADD PUSH2 0xA89 JUMP JUMPDEST PUSH2 0xEA4 DUP4 DUP4 PUSH2 0x2180 JUMP JUMPDEST PUSH2 0xEB2 SWAP1 PUSH1 0xCF SWAP1 PUSH1 0x7 PUSH2 0x3519 JUMP JUMPDEST POP PUSH1 0x0 DUP2 DUP2 MSTORE PUSH1 0xD7 PUSH1 0x20 MSTORE PUSH1 0x40 SWAP1 KECCAK256 PUSH2 0xECE SWAP1 PUSH1 0xCF PUSH1 0x7 PUSH2 0x35A7 JUMP JUMPDEST POP PUSH32 0xFE2E2D779DBA245964D4E3EF9B994BE63856FD568BF7D3CA9E224755CB1BD54D DUP5 DUP5 DUP5 PUSH1 0x40 MLOAD PUSH2 0xF02 SWAP4 SWAP3 SWAP2 SWAP1 PUSH2 0x3AD0 JUMP JUMPDEST PUSH1 0x40 MLOAD DUP1 SWAP2 SUB SWAP1 LOG1 PUSH32 0x65A3CADF20A29471EE7BC9E1BF93B5F513A619FCFFFC0BCAB66D7CBAE1045CB1 DUP5 DUP3 PUSH1 0xCF PUSH1 0x40 MLOAD PUSH2 0xF3E SWAP4 SWAP3 SWAP2 SWAP1 PUSH2 0x3B29 JUMP JUMPDEST PUSH1 0x40 MLOAD DUP1 SWAP2 SUB SWAP1 LOG1 PUSH1 0x40 DUP1 MLOAD PUSH1 0xE0 DUP2 ADD SWAP2 DUP3 SWAP1 MSTORE PUSH2 0xF9C SWAP2 DUP4 SWAP2 SWAP1 PUSH1 0xCF SWAP1 PUSH1 0x7 SWAP1 DUP3 PUSH1 0x0 DUP6 JUMPDEST DUP3 SLOAD PUSH2 0x100 DUP4 SWAP1 EXP SWAP1 DIV PUSH1 0xFF AND DUP2 MSTORE PUSH1 0x20 PUSH1 0x1 SWAP3 DUP4 ADD DUP2 DUP2 DIV SWAP5 DUP6 ADD SWAP5 SWAP1 SWAP4 SUB SWAP1 SWAP3 MUL SWAP2 ADD DUP1 DUP5 GT PUSH2 0xF64 JUMPI SWAP1 POP POP POP POP POP POP PUSH2 0x22C3 JUMP JUMPDEST POP POP POP POP JUMP JUMPDEST PUSH1 0x1 PUSH1 0x1 PUSH1 0xA0 SHL SUB PUSH32 0x0 AND ADDRESS SUB PUSH2 0x102F JUMPI PUSH1 0x40 MLOAD PUSH3 0x461BCD PUSH1 0xE5 SHL DUP2 MSTORE PUSH1 0x20 PUSH1 0x4 DUP3 ADD MSTORE PUSH1 0x2C PUSH1 0x24 DUP3 ADD MSTORE PUSH32 0x46756E6374696F6E206D7573742062652063616C6C6564207468726F75676820 PUSH1 0x44 DUP3 ADD MSTORE PUSH12 0x19195B1959D85D1958D85B1B PUSH1 0xA2 SHL PUSH1 0x64 DUP3 ADD MSTORE PUSH1 0x84 ADD PUSH2 0xA89 JUMP JUMPDEST PUSH32 0x0 PUSH1 0x1 PUSH1 0x1 PUSH1 0xA0 SHL SUB AND PUSH2 0x108A PUSH32 0x360894A13BA1A3210667C828492DB98DCA3E2076CC3735A920A3CA505D382BBC SLOAD PUSH1 0x1 PUSH1 0x1 PUSH1 0xA0 SHL SUB AND SWAP1 JUMP JUMPDEST PUSH1 0x1 PUSH1 0x1 PUSH1 0xA0 SHL SUB AND EQ PUSH2 0x10F5 JUMPI PUSH1 0x40 MLOAD PUSH3 0x461BCD PUSH1 0xE5 SHL DUP2 MSTORE PUSH1 0x20 PUSH1 0x4 DUP3 ADD MSTORE PUSH1 0x2C PUSH1 0x24 DUP3 ADD MSTORE PUSH32 0x46756E6374696F6E206D7573742062652063616C6C6564207468726F75676820 PUSH1 0x44 DUP3 ADD MSTORE PUSH12 0x6163746976652070726F7879 PUSH1 0xA0 SHL PUSH1 0x64 DUP3 ADD MSTORE PUSH1 0x84 ADD PUSH2 0xA89 JUMP JUMPDEST PUSH2 0x10FE DUP2 PUSH2 0x28A5 JUMP JUMPDEST PUSH1 0x40 DUP1 MLOAD PUSH1 0x0 DUP1 DUP3 MSTORE PUSH1 0x20 DUP3 ADD SWAP1 SWAP3 MSTORE PUSH2 0x111A SWAP2 DUP4 SWAP2 SWAP1 PUSH2 0x28AD JUMP JUMPDEST POP JUMP JUMPDEST PUSH2 0x1125 PUSH2 0x1EB4 JUMP JUMPDEST PUSH1 0x0 DUP2 GT PUSH2 0x1175 JUMPI PUSH1 0x40 MLOAD PUSH3 0x461BCD PUSH1 0xE5 SHL DUP2 MSTORE PUSH1 0x20 PUSH1 0x4 DUP3 ADD MSTORE PUSH1 0x14 PUSH1 0x24 DUP3 ADD MSTORE PUSH32 0x4475726174696F6E206D757374206265203E2030000000000000000000000000 PUSH1 0x44 DUP3 ADD MSTORE PUSH1 0x64 ADD PUSH2 0xA89 JUMP JUMPDEST PUSH1 0xD1 SSTORE JUMP JUMPDEST PUSH1 0xD0 SLOAD CALLVALUE EQ PUSH2 0x11CB JUMPI PUSH1 0x40 MLOAD PUSH3 0x461BCD PUSH1 0xE5 SHL DUP2 MSTORE PUSH1 0x20 PUSH1 0x4 DUP3 ADD MSTORE PUSH1 0x13 PUSH1 0x24 DUP3 ADD MSTORE PUSH32 0x496E636F727265637420656E7472792066656500000000000000000000000000 PUSH1 0x44 DUP3 ADD MSTORE PUSH1 0x64 ADD PUSH2 0xA89 JUMP JUMPDEST PUSH2 0x11D4 DUP2 PUSH2 0x2A52 JUMP JUMPDEST PUSH1 0xDB SLOAD PUSH1 0x0 SWAP1 DUP2 MSTORE PUSH1 0xD5 PUSH1 0x20 MSTORE PUSH1 0x40 SWAP1 KECCAK256 DUP1 SLOAD PUSH1 0xFF AND PUSH2 0x1228 JUMPI PUSH1 0x40 MLOAD PUSH3 0x461BCD PUSH1 0xE5 SHL DUP2 MSTORE PUSH1 0x20 PUSH1 0x4 DUP3 ADD MSTORE PUSH1 0xF PUSH1 0x24 DUP3 ADD MSTORE PUSH15 0x139BC81858DD1A5D99481C9BDD5B99 PUSH1 0x8A SHL PUSH1 0x44 DUP3 ADD MSTORE PUSH1 0x64 ADD PUSH2 0xA89 JUMP JUMPDEST DUP1 SLOAD PUSH2 0x100 SWAP1 DIV PUSH1 0xFF AND ISZERO PUSH2 0x127F JUMPI PUSH1 0x40 MLOAD PUSH3 0x461BCD PUSH1 0xE5 SHL DUP2 MSTORE PUSH1 0x20 PUSH1 0x4 DUP3 ADD MSTORE PUSH1 0x16 PUSH1 0x24 DUP3 ADD MSTORE PUSH32 0x4472617720616C72656164792072657175657374656400000000000000000000 PUSH1 0x44 DUP3 ADD MSTORE PUSH1 0x64 ADD PUSH2 0xA89 JUMP JUMPDEST DUP1 PUSH1 0x2 ADD SLOAD TIMESTAMP LT PUSH2 0x12D2 JUMPI PUSH1 0x40 MLOAD PUSH3 0x461BCD PUSH1 0xE5 SHL DUP2 MSTORE PUSH1 0x20 PUSH1 0x4 DUP3 ADD MSTORE PUSH1 0xD PUSH1 0x24 DUP3 ADD MSTORE PUSH32 0x526F756E64206578706972656400000000000000000000000000000000000000 PUSH1 0x44 DUP3 ADD MSTORE PUSH1 0x64 ADD PUSH2 0xA89 JUMP JUMPDEST CALLVALUE DUP2 PUSH1 0x3 ADD PUSH1 0x0 DUP3 DUP3 SLOAD PUSH2 0x12E6 SWAP2 SWAP1 PUSH2 0x3BCE JUMP JUMPDEST SWAP1 SWAP2 SSTORE POP POP PUSH1 0xDB SLOAD PUSH1 0x0 SWAP1 DUP2 MSTORE PUSH1 0xD6 PUSH1 0x20 SWAP1 DUP2 MSTORE PUSH1 0x40 SWAP2 DUP3 SWAP1 KECCAK256 DUP3 MLOAD PUSH1 0xA0 DUP2 ADD DUP5 MSTORE CALLER DUP2 MSTORE DUP4 MLOAD PUSH1 0xE0 DUP2 DUP2 ADD SWAP1 SWAP6 MSTORE SWAP2 SWAP4 SWAP1 SWAP3 DUP4 ADD SWAP2 SWAP1 DUP7 SWAP1 PUSH1 0x7 SWAP1 DUP4 SWAP1 DUP4 SWAP1 DUP1 DUP3 DUP5 CALLDATACOPY PUSH1 0x0 SWAP3 ADD DUP3 SWAP1 MSTORE POP SWAP3 DUP5 MSTORE POP POP PUSH1 0x20 DUP1 DUP4 ADD DUP3 SWAP1 MSTORE PUSH1 0x40 DUP4 ADD DUP3 SWAP1 MSTORE PUSH1 0x60 SWAP1 SWAP3 ADD DUP2 SWAP1 MSTORE DUP4 SLOAD PUSH1 0x1 DUP1 DUP3 ADD DUP7 SSTORE SWAP5 DUP3 MSTORE SWAP1 DUP3 SWAP1 KECCAK256 DUP4 MLOAD PUSH1 0x4 SWAP1 SWAP3 MUL ADD DUP1 SLOAD PUSH1 0x1 PUSH1 0x1 PUSH1 0xA0 SHL SUB NOT AND PUSH1 0x1 PUSH1 0x1 PUSH1 0xA0 SHL SUB SWAP1 SWAP3 AND SWAP2 SWAP1 SWAP2 OR DUP2 SSTORE SWAP1 DUP3 ADD MLOAD SWAP2 SWAP3 SWAP1 SWAP2 PUSH2 0x1399 SWAP2 DUP4 ADD SWAP1 PUSH1 0x7 PUSH2 0x3519 JUMP JUMPDEST POP PUSH1 0x40 DUP3 DUP2 ADD MLOAD PUSH1 0x2 DUP4 ADD DUP1 SLOAD PUSH1 0x60 DUP7 ADD MLOAD PUSH1 0xFF AND PUSH2 0x100 MUL PUSH2 0xFF00 NOT SWAP4 ISZERO ISZERO SWAP4 SWAP1 SWAP4 AND PUSH2 0xFFFF NOT SWAP1 SWAP2 AND OR SWAP2 SWAP1 SWAP2 OR SWAP1 SSTORE PUSH1 0x80 SWAP1 SWAP3 ADD MLOAD PUSH1 0x3 SWAP1 SWAP2 ADD SSTORE PUSH1 0xDB SLOAD PUSH1 0x0 DUP2 DUP2 MSTORE PUSH1 0xD6 PUSH1 0x20 MSTORE SWAP2 SWAP1 SWAP2 KECCAK256 SLOAD CALLER SWAP2 SWAP1 PUSH32 0x72C7C6A525D2C132932B4FC43AE4BB642B552692D21F5BEDEB662E34B564E8E8 SWAP1 PUSH2 0x141A SWAP1 PUSH1 0x1 SWAP1 PUSH2 0x3BE1 JUMP JUMPDEST DUP6 PUSH1 0x40 MLOAD PUSH2 0x1429 SWAP3 SWAP2 SWAP1 PUSH2 0x3C05 JUMP JUMPDEST PUSH1 0x40 MLOAD DUP1 SWAP2 SUB SWAP1 LOG3 POP POP JUMP JUMPDEST PUSH1 0x60 PUSH1 0xCE DUP1 SLOAD DUP1 PUSH1 0x20 MUL PUSH1 0x20 ADD PUSH1 0x40 MLOAD SWAP1 DUP2 ADD PUSH1 0x40 MSTORE DUP1 SWAP3 SWAP2 SWAP1 DUP2 DUP2 MSTORE PUSH1 0x20 ADD DUP3 DUP1 SLOAD DUP1 ISZERO PUSH2 0x1483 JUMPI PUSH1 0x20 MUL DUP3 ADD SWAP2 SWAP1 PUSH1 0x0 MSTORE PUSH1 0x20 PUSH1 0x0 KECCAK256 SWAP1 JUMPDEST DUP2 SLOAD DUP2 MSTORE PUSH1 0x20 ADD SWAP1 PUSH1 0x1 ADD SWAP1 DUP1 DUP4 GT PUSH2 0x146F JUMPI JUMPDEST POP POP POP POP POP SWAP1 POP SWAP1 JUMP JUMPDEST PUSH1 0x0 PUSH2 0x149B DUP3 DUP5 ADD DUP5 PUSH2 0x3686 JUMP JUMPDEST PUSH1 0xDB SLOAD PUSH1 0x0 DUP2 DUP2 MSTORE PUSH1 0xD5 PUSH1 0x20 MSTORE PUSH1 0x40 SWAP1 KECCAK256 SWAP2 SWAP3 POP DUP3 EQ PUSH2 0x14FD JUMPI PUSH1 0x40 MLOAD PUSH3 0x461BCD PUSH1 0xE5 SHL DUP2 MSTORE PUSH1 0x20 PUSH1 0x4 DUP3 ADD MSTORE PUSH1 0xC PUSH1 0x24 DUP3 ADD MSTORE PUSH32 0x5374616C652075706B6565700000000000000000000000000000000000000000 PUSH1 0x44 DUP3 ADD MSTORE PUSH1 0x64 ADD PUSH2 0xA89 JUMP JUMPDEST DUP1 SLOAD PUSH1 0xFF AND PUSH2 0x1540 JUMPI PUSH1 0x40 MLOAD PUSH3 0x461BCD PUSH1 0xE5 SHL DUP2 MSTORE PUSH1 0x20 PUSH1 0x4 DUP3 ADD MSTORE PUSH1 0xF PUSH1 0x24 DUP3 ADD MSTORE PUSH15 0x139BC81858DD1A5D99481C9BDD5B99 PUSH1 0x8A SHL PUSH1 0x44 DUP3 ADD MSTORE PUSH1 0x64 ADD PUSH2 0xA89 JUMP JUMPDEST DUP1 SLOAD PUSH2 0x100 SWAP1 DIV PUSH1 0xFF AND ISZERO PUSH2 0x1597 JUMPI PUSH1 0x40 MLOAD PUSH3 0x461BCD PUSH1 0xE5 SHL DUP2 MSTORE PUSH1 0x20 PUSH1 0x4 DUP3 ADD MSTORE PUSH1 0x16 PUSH1 0x24 DUP3 ADD MSTORE PUSH32 0x4472617720616C72656164792072657175657374656400000000000000000000 PUSH1 0x44 DUP3 ADD MSTORE PUSH1 0x64 ADD PUSH2 0xA89 JUMP JUMPDEST DUP1 PUSH1 0x2 ADD SLOAD TIMESTAMP LT ISZERO PUSH2 0x15EB JUMPI PUSH1 0x40 MLOAD PUSH3 0x461BCD PUSH1 0xE5 SHL DUP2 MSTORE PUSH1 0x20 PUSH1 0x4 DUP3 ADD MSTORE PUSH1 0x12 PUSH1 0x24 DUP3 ADD MSTORE PUSH32 0x526F756E64207374696C6C206163746976650000000000000000000000000000 PUSH1 0x44 DUP3 ADD MSTORE PUSH1 0x64 ADD PUSH2 0xA89 JUMP JUMPDEST PUSH1 0xDB SLOAD PUSH1 0x0 SWAP1 DUP2 MSTORE PUSH1 0xD6 PUSH1 0x20 MSTORE PUSH1 0x40 DUP2 KECCAK256 SLOAD SWAP1 SUB PUSH2 0x160B JUMPI PUSH2 0xF9C PUSH2 0x2BF4 JUMP JUMPDEST PUSH2 0x1613 PUSH2 0x2D67 JUMP JUMPDEST POP POP POP POP POP JUMP JUMPDEST PUSH1 0xCF DUP2 PUSH1 0x7 DUP2 LT PUSH2 0x162A JUMPI PUSH1 0x0 DUP1 REVERT JUMPDEST PUSH1 0x20 SWAP2 DUP3 DUP3 DIV ADD SWAP2 SWAP1 MOD SWAP2 POP SLOAD SWAP1 PUSH2 0x100 EXP SWAP1 DIV PUSH1 0xFF AND DUP2 JUMP JUMPDEST PUSH1 0x1 PUSH1 0x1 PUSH1 0xA0 SHL SUB PUSH32 0x0 AND ADDRESS SUB PUSH2 0x16D1 JUMPI PUSH1 0x40 MLOAD PUSH3 0x461BCD PUSH1 0xE5 SHL DUP2 MSTORE PUSH1 0x20 PUSH1 0x4 DUP3 ADD MSTORE PUSH1 0x2C PUSH1 0x24 DUP3 ADD MSTORE PUSH32 0x46756E6374696F6E206D7573742062652063616C6C6564207468726F75676820 PUSH1 0x44 DUP3 ADD MSTORE PUSH12 0x19195B1959D85D1958D85B1B PUSH1 0xA2 SHL PUSH1 0x64 DUP3 ADD MSTORE PUSH1 0x84 ADD PUSH2 0xA89 JUMP JUMPDEST PUSH32 0x0 PUSH1 0x1 PUSH1 0x1 PUSH1 0xA0 SHL SUB AND PUSH2 0x172C PUSH32 0x360894A13BA1A3210667C828492DB98DCA3E2076CC3735A920A3CA505D382BBC SLOAD PUSH1 0x1 PUSH1 0x1 PUSH1 0xA0 SHL SUB AND SWAP1 JUMP JUMPDEST PUSH1 0x1 PUSH1 0x1 PUSH1 0xA0 SHL SUB AND EQ PUSH2 0x1797 JUMPI PUSH1 0x40 MLOAD PUSH3 0x461BCD PUSH1 0xE5 SHL DUP2 MSTORE PUSH1 0x20 PUSH1 0x4 DUP3 ADD MSTORE PUSH1 0x2C PUSH1 0x24 DUP3 ADD MSTORE PUSH32 0x46756E6374696F6E206D7573742062652063616C6C6564207468726F75676820 PUSH1 0x44 DUP3 ADD MSTORE PUSH12 0x6163746976652070726F7879 PUSH1 0xA0 SHL PUSH1 0x64 DUP3 ADD MSTORE PUSH1 0x84 ADD PUSH2 0xA89 JUMP JUMPDEST PUSH2 0x17A0 DUP3 PUSH2 0x28A5 JUMP JUMPDEST PUSH2 0x17AC DUP3 DUP3 PUSH1 0x1 PUSH2 0x28AD JUMP JUMPDEST POP POP JUMP JUMPDEST PUSH1 0x0 ADDRESS PUSH1 0x1 PUSH1 0x1 PUSH1 0xA0 SHL SUB PUSH32 0x0 AND EQ PUSH2 0x1850 JUMPI PUSH1 0x40 MLOAD PUSH3 0x461BCD PUSH1 0xE5 SHL DUP2 MSTORE PUSH1 0x20 PUSH1 0x4 DUP3 ADD MSTORE PUSH1 0x38 PUSH1 0x24 DUP3 ADD MSTORE PUSH32 0x555550535570677261646561626C653A206D757374206E6F742062652063616C PUSH1 0x44 DUP3 ADD MSTORE PUSH32 0x6C6564207468726F7567682064656C656761746563616C6C0000000000000000 PUSH1 0x64 DUP3 ADD MSTORE PUSH1 0x84 ADD PUSH2 0xA89 JUMP JUMPDEST POP PUSH32 0x360894A13BA1A3210667C828492DB98DCA3E2076CC3735A920A3CA505D382BBC SWAP1 JUMP JUMPDEST PUSH2 0x187D PUSH2 0x35DA JUMP JUMPDEST PUSH1 0x0 DUP3 DUP2 MSTORE PUSH1 0xD7 PUSH1 0x20 MSTORE PUSH1 0x40 DUP1 DUP3 KECCAK256 DUP2 MLOAD PUSH1 0xE0 DUP2 ADD SWAP3 DUP4 SWAP1 MSTORE SWAP3 SWAP1 SWAP2 PUSH1 0x7 SWAP2 DUP4 SWAP1 DUP6 JUMPDEST DUP3 SLOAD PUSH2 0x100 DUP4 SWAP1 EXP SWAP1 DIV PUSH1 0xFF AND DUP2 MSTORE PUSH1 0x20 PUSH1 0x1 SWAP3 DUP4 ADD DUP2 DUP2 DIV SWAP5 DUP6 ADD SWAP5 SWAP1 SWAP4 SUB SWAP1 SWAP3 MUL SWAP2 ADD DUP1 DUP5 GT PUSH2 0x18A0 JUMPI POP SWAP5 SWAP8 SWAP7 POP POP POP POP POP POP POP JUMP JUMPDEST PUSH1 0xDB SLOAD PUSH1 0x0 SWAP1 DUP2 MSTORE PUSH1 0xD5 PUSH1 0x20 MSTORE PUSH1 0x40 DUP2 KECCAK256 DUP1 SLOAD PUSH1 0x60 SWAP2 SWAP1 PUSH1 0xFF AND DUP1 ISZERO PUSH2 0x1906 JUMPI POP DUP1 SLOAD PUSH2 0x100 SWAP1 DIV PUSH1 0xFF AND ISZERO JUMPDEST DUP1 ISZERO PUSH2 0x1916 JUMPI POP DUP1 PUSH1 0x2 ADD SLOAD TIMESTAMP LT ISZERO JUMPDEST SWAP3 POP PUSH1 0xDB SLOAD PUSH1 0x40 MLOAD PUSH1 0x20 ADD PUSH2 0x192D SWAP2 DUP2 MSTORE PUSH1 0x20 ADD SWAP1 JUMP JUMPDEST PUSH1 0x40 MLOAD PUSH1 0x20 DUP2 DUP4 SUB SUB DUP2 MSTORE SWAP1 PUSH1 0x40 MSTORE SWAP2 POP POP SWAP3 POP SWAP3 SWAP1 POP JUMP JUMPDEST PUSH2 0x194E PUSH2 0x1EB4 JUMP JUMPDEST PUSH2 0x1958 PUSH1 0x0 PUSH2 0x2F82 JUMP JUMPDEST JUMP JUMPDEST PUSH1 0xD7 PUSH1 0x20 MSTORE DUP2 PUSH1 0x0 MSTORE PUSH1 0x40 PUSH1 0x0 KECCAK256 DUP2 PUSH1 0x7 DUP2 LT PUSH2 0x1976 JUMPI PUSH1 0x0 DUP1 REVERT JUMPDEST PUSH1 0x20 DUP2 DIV SWAP1 SWAP2 ADD SLOAD PUSH1 0xFF PUSH1 0x1F SWAP1 SWAP3 AND PUSH2 0x100 EXP SWAP1 DIV AND SWAP2 POP DUP3 SWAP1 POP JUMP JUMPDEST PUSH2 0x199B PUSH2 0x35DA JUMP JUMPDEST PUSH1 0x40 DUP1 MLOAD PUSH1 0xE0 DUP2 ADD SWAP2 DUP3 SWAP1 MSTORE SWAP1 PUSH1 0xCF SWAP1 PUSH1 0x7 SWAP1 DUP3 PUSH1 0x0 DUP6 JUMPDEST DUP3 SLOAD PUSH2 0x100 DUP4 SWAP1 EXP SWAP1 DIV PUSH1 0xFF AND DUP2 MSTORE PUSH1 0x20 PUSH1 0x1 SWAP3 DUP4 ADD DUP2 DUP2 DIV SWAP5 DUP6 ADD SWAP5 SWAP1 SWAP4 SUB SWAP1 SWAP3 MUL SWAP2 ADD DUP1 DUP5 GT PUSH2 0x19B3 JUMPI SWAP1 POP POP POP POP POP POP SWAP1 POP SWAP1 JUMP JUMPDEST PUSH2 0x19F3 PUSH2 0x1EB4 JUMP JUMPDEST PUSH1 0xCC DUP1 SLOAD PUSH2 0xFFFF SWAP1 SWAP3 AND PUSH5 0x100000000 MUL PUSH6 0xFFFF00000000 NOT SWAP1 SWAP3 AND SWAP2 SWAP1 SWAP2 OR SWAP1 SSTORE JUMP JUMPDEST PUSH1 0xCE DUP2 DUP2 SLOAD DUP2 LT PUSH2 0x1A27 JUMPI PUSH1 0x0 DUP1 REVERT JUMPDEST PUSH1 0x0 SWAP2 DUP3 MSTORE PUSH1 0x20 SWAP1 SWAP2 KECCAK256 ADD SLOAD SWAP1 POP DUP2 JUMP JUMPDEST PUSH2 0x1A40 PUSH2 0x1EB4 JUMP JUMPDEST PUSH1 0xCB SSTORE JUMP JUMPDEST PUSH1 0x0 PUSH2 0x1A4F PUSH2 0x35DA JUMP JUMPDEST PUSH1 0x0 DUP1 PUSH1 0x0 DUP1 PUSH1 0xD6 PUSH1 0x0 DUP10 DUP2 MSTORE PUSH1 0x20 ADD SWAP1 DUP2 MSTORE PUSH1 0x20 ADD PUSH1 0x0 KECCAK256 DUP8 DUP2 SLOAD DUP2 LT PUSH2 0x1A79 JUMPI PUSH2 0x1A79 PUSH2 0x3C48 JUMP JUMPDEST PUSH1 0x0 SWAP2 DUP3 MSTORE PUSH1 0x20 DUP3 KECCAK256 PUSH1 0x4 SWAP1 SWAP2 MUL ADD DUP1 SLOAD PUSH1 0x2 DUP3 ADD SLOAD PUSH1 0x3 DUP4 ADD SLOAD PUSH1 0x40 DUP1 MLOAD PUSH1 0xE0 DUP2 ADD SWAP2 DUP3 SWAP1 MSTORE SWAP5 SWAP7 POP PUSH1 0x1 PUSH1 0x1 PUSH1 0xA0 SHL SUB SWAP1 SWAP4 AND SWAP5 PUSH1 0x1 DUP8 ADD SWAP5 PUSH1 0xFF DUP1 DUP6 AND SWAP6 PUSH2 0x100 SWAP1 SWAP6 DIV AND SWAP4 SWAP1 SWAP2 DUP7 SWAP2 PUSH1 0x7 SWAP2 DUP4 SWAP1 DUP6 JUMPDEST DUP3 SLOAD PUSH2 0x100 DUP4 SWAP1 EXP SWAP1 DIV PUSH1 0xFF AND DUP2 MSTORE PUSH1 0x20 PUSH1 0x1 SWAP3 DUP4 ADD DUP2 DUP2 DIV SWAP5 DUP6 ADD SWAP5 SWAP1 SWAP4 SUB SWAP1 SWAP3 MUL SWAP2 ADD DUP1 DUP5 GT PUSH2 0x1ACD JUMPI SWAP1 POP POP POP POP POP POP SWAP4 POP SWAP6 POP SWAP6 POP SWAP6 POP SWAP6 POP SWAP6 POP POP SWAP3 SWAP6 POP SWAP3 SWAP6 SWAP1 SWAP4 POP JUMP JUMPDEST PUSH2 0x1B1F PUSH2 0x1EB4 JUMP JUMPDEST PUSH1 0xCC DUP1 SLOAD PUSH4 0xFFFFFFFF NOT AND PUSH4 0xFFFFFFFF SWAP3 SWAP1 SWAP3 AND SWAP2 SWAP1 SWAP2 OR SWAP1 SSTORE JUMP JUMPDEST PUSH2 0x1B43 PUSH2 0x1EB4 JUMP JUMPDEST PUSH1 0xCA SSTORE JUMP JUMPDEST CALLER PUSH1 0x0 SWAP1 DUP2 MSTORE PUSH1 0xD8 PUSH1 0x20 MSTORE PUSH1 0x40 SWAP1 KECCAK256 SLOAD DUP1 PUSH2 0x1BA5 JUMPI PUSH1 0x40 MLOAD PUSH3 0x461BCD PUSH1 0xE5 SHL DUP2 MSTORE PUSH1 0x20 PUSH1 0x4 DUP3 ADD MSTORE PUSH1 0x13 PUSH1 0x24 DUP3 ADD MSTORE PUSH32 0x4E6F2072657761726420617661696C61626C6500000000000000000000000000 PUSH1 0x44 DUP3 ADD MSTORE PUSH1 0x64 ADD PUSH2 0xA89 JUMP JUMPDEST CALLER PUSH1 0x0 DUP2 DUP2 MSTORE PUSH1 0xD8 PUSH1 0x20 MSTORE PUSH1 0x40 DUP1 DUP3 KECCAK256 DUP3 SWAP1 SSTORE MLOAD SWAP1 SWAP2 SWAP1 DUP4 SWAP1 DUP4 DUP2 DUP2 DUP2 DUP6 DUP8 GAS CALL SWAP3 POP POP POP RETURNDATASIZE DUP1 PUSH1 0x0 DUP2 EQ PUSH2 0x1BF6 JUMPI PUSH1 0x40 MLOAD SWAP2 POP PUSH1 0x1F NOT PUSH1 0x3F RETURNDATASIZE ADD AND DUP3 ADD PUSH1 0x40 MSTORE RETURNDATASIZE DUP3 MSTORE RETURNDATASIZE PUSH1 0x0 PUSH1 0x20 DUP5 ADD RETURNDATACOPY PUSH2 0x1BFB JUMP JUMPDEST PUSH1 0x60 SWAP2 POP JUMPDEST POP POP SWAP1 POP DUP1 PUSH2 0x1C4C JUMPI PUSH1 0x40 MLOAD PUSH3 0x461BCD PUSH1 0xE5 SHL DUP2 MSTORE PUSH1 0x20 PUSH1 0x4 DUP3 ADD MSTORE PUSH1 0x16 PUSH1 0x24 DUP3 ADD MSTORE PUSH32 0x526577617264207472616E73666572206661696C656400000000000000000000 PUSH1 0x44 DUP3 ADD MSTORE PUSH1 0x64 ADD PUSH2 0xA89 JUMP JUMPDEST PUSH1 0x40 MLOAD DUP3 DUP2 MSTORE CALLER SWAP1 PUSH32 0x1D3EEE4CA001CFF39EEC6EC7615AACF2F2BD61791273830728BA00CCBD6E1337 SWAP1 PUSH1 0x20 ADD PUSH2 0xB81 JUMP JUMPDEST PUSH2 0x1C86 PUSH2 0x1EB4 JUMP JUMPDEST PUSH1 0xD2 DUP1 SLOAD PUSH1 0xFF NOT AND SWAP2 ISZERO ISZERO SWAP2 SWAP1 SWAP2 OR SWAP1 SSTORE JUMP JUMPDEST PUSH1 0x0 DUP2 DUP2 MSTORE PUSH1 0xD3 PUSH1 0x20 MSTORE PUSH1 0x40 DUP2 KECCAK256 SLOAD PUSH1 0x60 SWAP1 PUSH1 0xFF AND PUSH2 0x1CFA JUMPI PUSH1 0x40 MLOAD PUSH3 0x461BCD PUSH1 0xE5 SHL DUP2 MSTORE PUSH1 0x20 PUSH1 0x4 DUP3 ADD MSTORE PUSH1 0x11 PUSH1 0x24 DUP3 ADD MSTORE PUSH32 0x52657175657374206E6F7420666F756E64000000000000000000000000000000 PUSH1 0x44 DUP3 ADD MSTORE PUSH1 0x64 ADD PUSH2 0xA89 JUMP JUMPDEST PUSH1 0x0 DUP4 DUP2 MSTORE PUSH1 0xD3 PUSH1 0x20 SWAP1 DUP2 MSTORE PUSH1 0x40 SWAP2 DUP3 SWAP1 KECCAK256 DUP1 SLOAD PUSH1 0x1 DUP3 ADD DUP1 SLOAD DUP6 MLOAD DUP2 DUP7 MUL DUP2 ADD DUP7 ADD SWAP1 SWAP7 MSTORE DUP1 DUP7 MSTORE SWAP3 SWAP5 PUSH2 0x100 SWAP1 SWAP3 DIV PUSH1 0xFF AND SWAP4 SWAP1 SWAP3 DUP4 SWAP2 DUP4 ADD DUP3 DUP3 DUP1 ISZERO PUSH2 0x1D62 JUMPI PUSH1 0x20 MUL DUP3 ADD SWAP2 SWAP1 PUSH1 0x0 MSTORE PUSH1 0x20 PUSH1 0x0 KECCAK256 SWAP1 JUMPDEST DUP2 SLOAD DUP2 MSTORE PUSH1 0x20 ADD SWAP1 PUSH1 0x1 ADD SWAP1 DUP1 DUP4 GT PUSH2 0x1D4E JUMPI JUMPDEST POP POP POP POP POP SWAP1 POP SWAP3 POP SWAP3 POP POP SWAP2 POP SWAP2 JUMP JUMPDEST PUSH2 0x1D7B PUSH2 0x1EB4 JUMP JUMPDEST PUSH1 0x1 PUSH1 0x1 PUSH1 0xA0 SHL SUB DUP2 AND PUSH2 0x1DF7 JUMPI PUSH1 0x40 MLOAD PUSH3 0x461BCD PUSH1 0xE5 SHL DUP2 MSTORE PUSH1 0x20 PUSH1 0x4 DUP3 ADD MSTORE PUSH1 0x26 PUSH1 0x24 DUP3 ADD MSTORE PUSH32 0x4F776E61626C653A206E6577206F776E657220697320746865207A65726F2061 PUSH1 0x44 DUP3 ADD MSTORE PUSH32 0x6464726573730000000000000000000000000000000000000000000000000000 PUSH1 0x64 DUP3 ADD MSTORE PUSH1 0x84 ADD PUSH2 0xA89 JUMP JUMPDEST PUSH2 0x111A DUP2 PUSH2 0x2F82 JUMP JUMPDEST PUSH2 0x1E08 PUSH2 0x1EB4 JUMP JUMPDEST PUSH1 0x0 DUP2 PUSH4 0xFFFFFFFF AND GT PUSH2 0x1E5E JUMPI PUSH1 0x40 MLOAD PUSH3 0x461BCD PUSH1 0xE5 SHL DUP2 MSTORE PUSH1 0x20 PUSH1 0x4 DUP3 ADD MSTORE PUSH1 0x14 PUSH1 0x24 DUP3 ADD MSTORE PUSH32 0x6E756D576F726473206D757374206265203E2030000000000000000000000000 PUSH1 0x44 DUP3 ADD MSTORE PUSH1 0x64 ADD PUSH2 0xA89 JUMP JUMPDEST PUSH1 0xCC DUP1 SLOAD PUSH4 0xFFFFFFFF SWAP1 SWAP3 AND PUSH7 0x1000000000000 MUL PUSH10 0xFFFFFFFF000000000000 NOT SWAP1 SWAP3 AND SWAP2 SWAP1 SWAP2 OR SWAP1 SSTORE JUMP JUMPDEST PUSH2 0x1E92 PUSH2 0x1EB4 JUMP JUMPDEST PUSH1 0xC9 DUP1 SLOAD PUSH1 0x1 PUSH1 0x1 PUSH1 0xA0 SHL SUB NOT AND PUSH1 0x1 PUSH1 0x1 PUSH1 0xA0 SHL SUB SWAP3 SWAP1 SWAP3 AND SWAP2 SWAP1 SWAP2 OR SWAP1 SSTORE JUMP JUMPDEST PUSH1 0x33 SLOAD PUSH1 0x1 PUSH1 0x1 PUSH1 0xA0 SHL SUB AND CALLER EQ PUSH2 0x1958 JUMPI PUSH1 0x40 MLOAD PUSH3 0x461BCD PUSH1 0xE5 SHL DUP2 MSTORE PUSH1 0x20 PUSH1 0x4 DUP3 ADD DUP2 SWAP1 MSTORE PUSH1 0x24 DUP3 ADD MSTORE PUSH32 0x4F776E61626C653A2063616C6C6572206973206E6F7420746865206F776E6572 PUSH1 0x44 DUP3 ADD MSTORE PUSH1 0x64 ADD PUSH2 0xA89 JUMP JUMPDEST PUSH1 0x0 SLOAD PUSH2 0x100 SWAP1 DIV PUSH1 0xFF AND PUSH2 0x1F79 JUMPI PUSH1 0x40 MLOAD PUSH3 0x461BCD PUSH1 0xE5 SHL DUP2 MSTORE PUSH1 0x20 PUSH1 0x4 DUP3 ADD MSTORE PUSH1 0x2B PUSH1 0x24 DUP3 ADD MSTORE PUSH32 0x496E697469616C697A61626C653A20636F6E7472616374206973206E6F742069 PUSH1 0x44 DUP3 ADD MSTORE PUSH11 0x6E697469616C697A696E67 PUSH1 0xA8 SHL PUSH1 0x64 DUP3 ADD MSTORE PUSH1 0x84 ADD PUSH2 0xA89 JUMP JUMPDEST PUSH2 0x1958 PUSH2 0x2FD4 JUMP JUMPDEST PUSH1 0x0 SLOAD PUSH2 0x100 SWAP1 DIV PUSH1 0xFF AND PUSH2 0x1958 JUMPI PUSH1 0x40 MLOAD PUSH3 0x461BCD PUSH1 0xE5 SHL DUP2 MSTORE PUSH1 0x20 PUSH1 0x4 DUP3 ADD MSTORE PUSH1 0x2B PUSH1 0x24 DUP3 ADD MSTORE PUSH32 0x496E697469616C697A61626C653A20636F6E7472616374206973206E6F742069 PUSH1 0x44 DUP3 ADD MSTORE PUSH11 0x6E697469616C697A696E67 PUSH1 0xA8 SHL PUSH1 0x64 DUP3 ADD MSTORE PUSH1 0x84 ADD PUSH2 0xA89 JUMP JUMPDEST PUSH1 0xDB SLOAD ISZERO DUP1 PUSH2 0x200D JUMPI POP PUSH1 0xDB SLOAD PUSH1 0x0 SWAP1 DUP2 MSTORE PUSH1 0xD5 PUSH1 0x20 MSTORE PUSH1 0x40 SWAP1 KECCAK256 SLOAD PUSH1 0xFF AND ISZERO JUMPDEST PUSH2 0x2059 JUMPI PUSH1 0x40 MLOAD PUSH3 0x461BCD PUSH1 0xE5 SHL DUP2 MSTORE PUSH1 0x20 PUSH1 0x4 DUP3 ADD MSTORE PUSH1 0x1A PUSH1 0x24 DUP3 ADD MSTORE PUSH32 0x43757272656E7420726F756E64207374696C6C20616374697665000000000000 PUSH1 0x44 DUP3 ADD MSTORE PUSH1 0x64 ADD PUSH2 0xA89 JUMP JUMPDEST PUSH1 0xDB DUP1 SLOAD SWAP1 PUSH1 0x0 PUSH2 0x2069 DUP4 PUSH2 0x3C5E JUMP JUMPDEST SWAP2 SWAP1 POP SSTORE POP PUSH1 0x40 MLOAD DUP1 PUSH1 0xC0 ADD PUSH1 0x40 MSTORE DUP1 PUSH1 0x1 ISZERO ISZERO DUP2 MSTORE PUSH1 0x20 ADD PUSH1 0x0 ISZERO ISZERO DUP2 MSTORE PUSH1 0x20 ADD PUSH1 0x0 ISZERO ISZERO DUP2 MSTORE PUSH1 0x20 ADD TIMESTAMP DUP2 MSTORE PUSH1 0x20 ADD PUSH1 0xD1 SLOAD TIMESTAMP PUSH2 0x20A8 SWAP2 SWAP1 PUSH2 0x3BCE JUMP JUMPDEST DUP2 MSTORE PUSH1 0xDA SLOAD PUSH1 0x20 SWAP2 DUP3 ADD MSTORE PUSH1 0xDB DUP1 SLOAD PUSH1 0x0 SWAP1 DUP2 MSTORE PUSH1 0xD5 DUP4 MSTORE PUSH1 0x40 SWAP1 DUP2 SWAP1 KECCAK256 DUP5 MLOAD DUP2 SLOAD SWAP5 DUP7 ADD MLOAD SWAP3 DUP7 ADD MLOAD ISZERO ISZERO PUSH3 0x10000 MUL PUSH3 0xFF0000 NOT SWAP4 ISZERO ISZERO PUSH2 0x100 MUL PUSH2 0xFF00 NOT SWAP3 ISZERO ISZERO SWAP3 SWAP1 SWAP3 AND PUSH2 0xFFFF NOT SWAP1 SWAP7 AND SWAP6 SWAP1 SWAP6 OR OR SWAP2 SWAP1 SWAP2 AND SWAP3 SWAP1 SWAP3 OR DUP3 SSTORE PUSH1 0x60 DUP4 ADD MLOAD PUSH1 0x1 DUP4 ADD SSTORE PUSH1 0x80 DUP4 ADD MLOAD PUSH1 0x2 DUP4 ADD SSTORE PUSH1 0xA0 SWAP1 SWAP3 ADD MLOAD PUSH1 0x3 SWAP1 SWAP2 ADD SSTORE SLOAD PUSH1 0xD1 SLOAD PUSH32 0xFD9D17E5565DEEA3D25918D95FC398673B9445EF0A96D12EAF3AB2B198756C65 SWAP1 TIMESTAMP SWAP1 PUSH2 0x2158 SWAP1 DUP3 PUSH2 0x3BCE JUMP JUMPDEST PUSH1 0xDA SLOAD PUSH1 0x40 DUP1 MLOAD SWAP4 DUP5 MSTORE PUSH1 0x20 DUP5 ADD SWAP3 SWAP1 SWAP3 MSTORE SWAP1 DUP3 ADD MSTORE PUSH1 0x60 ADD PUSH1 0x40 MLOAD DUP1 SWAP2 SUB SWAP1 LOG2 PUSH1 0x0 PUSH1 0xDA SSTORE JUMP JUMPDEST PUSH2 0x2188 PUSH2 0x35DA JUMP JUMPDEST PUSH2 0x2190 PUSH2 0x35F8 JUMP JUMPDEST PUSH1 0x0 DUP1 JUMPDEST PUSH1 0x7 DUP3 LT ISZERO PUSH2 0x22B0 JUMPI PUSH1 0x0 JUMPDEST DUP6 DUP2 LT DUP1 ISZERO PUSH2 0x21AF JUMPI POP PUSH1 0x7 DUP4 LT JUMPDEST ISZERO PUSH2 0x22AA JUMPI PUSH1 0x0 PUSH1 0x31 DUP9 DUP9 DUP5 DUP2 DUP2 LT PUSH2 0x21CA JUMPI PUSH2 0x21CA PUSH2 0x3C48 JUMP JUMPDEST SWAP1 POP PUSH1 0x20 MUL ADD CALLDATALOAD DUP5 PUSH1 0x40 MLOAD PUSH1 0x20 ADD PUSH2 0x21EC SWAP3 SWAP2 SWAP1 SWAP2 DUP3 MSTORE PUSH1 0x20 DUP3 ADD MSTORE PUSH1 0x40 ADD SWAP1 JUMP JUMPDEST PUSH1 0x40 MLOAD PUSH1 0x20 DUP2 DUP4 SUB SUB DUP2 MSTORE SWAP1 PUSH1 0x40 MSTORE DUP1 MLOAD SWAP1 PUSH1 0x20 ADD KECCAK256 PUSH1 0x0 SHR PUSH2 0x220F SWAP2 SWAP1 PUSH2 0x3C8D JUMP JUMPDEST PUSH2 0x221A SWAP1 PUSH1 0x1 PUSH2 0x3BCE JUMP JUMPDEST SWAP1 POP DUP5 DUP2 PUSH1 0xFF AND PUSH1 0x32 DUP2 LT PUSH2 0x2231 JUMPI PUSH2 0x2231 PUSH2 0x3C48 JUMP JUMPDEST PUSH1 0x20 MUL ADD MLOAD PUSH2 0x2289 JUMPI PUSH1 0x1 DUP6 DUP3 PUSH1 0xFF AND PUSH1 0x32 DUP2 LT PUSH2 0x2251 JUMPI PUSH2 0x2251 PUSH2 0x3C48 JUMP JUMPDEST SWAP2 ISZERO ISZERO PUSH1 0x20 SWAP1 SWAP3 MUL ADD MSTORE DUP1 DUP7 DUP6 PUSH1 0x7 DUP2 LT PUSH2 0x226E JUMPI PUSH2 0x226E PUSH2 0x3C48 JUMP JUMPDEST PUSH1 0xFF SWAP1 SWAP3 AND PUSH1 0x20 SWAP3 SWAP1 SWAP3 MUL ADD MSTORE DUP4 PUSH2 0x2285 DUP2 PUSH2 0x3C5E JUMP JUMPDEST SWAP5 POP POP JUMPDEST DUP3 PUSH2 0x2293 DUP2 PUSH2 0x3C5E JUMP JUMPDEST SWAP4 POP POP POP DUP1 DUP1 PUSH2 0x22A2 SWAP1 PUSH2 0x3C5E JUMP JUMPDEST SWAP2 POP POP PUSH2 0x21A0 JUMP JUMPDEST POP PUSH2 0x2194 JUMP JUMPDEST PUSH2 0x22B9 DUP5 PUSH2 0x3048 JUMP JUMPDEST POP POP POP JUMPDEST SWAP3 SWAP2 POP POP JUMP JUMPDEST PUSH1 0x0 DUP3 DUP2 MSTORE PUSH1 0xD5 PUSH1 0x20 MSTORE PUSH1 0x40 SWAP1 KECCAK256 DUP1 SLOAD PUSH1 0xFF AND PUSH2 0x2322 JUMPI PUSH1 0x40 MLOAD PUSH3 0x461BCD PUSH1 0xE5 SHL DUP2 MSTORE PUSH1 0x20 PUSH1 0x4 DUP3 ADD MSTORE PUSH1 0x10 PUSH1 0x24 DUP3 ADD MSTORE PUSH32 0x526F756E64206E6F742061637469766500000000000000000000000000000000 PUSH1 0x44 DUP3 ADD MSTORE PUSH1 0x64 ADD PUSH2 0xA89 JUMP JUMPDEST DUP1 SLOAD PUSH2 0x100 SWAP1 DIV PUSH1 0xFF AND PUSH2 0x2378 JUMPI PUSH1 0x40 MLOAD PUSH3 0x461BCD PUSH1 0xE5 SHL DUP2 MSTORE PUSH1 0x20 PUSH1 0x4 DUP3 ADD MSTORE PUSH1 0x12 PUSH1 0x24 DUP3 ADD MSTORE PUSH32 0x44726177206E6F74207265717565737465640000000000000000000000000000 PUSH1 0x44 DUP3 ADD MSTORE PUSH1 0x64 ADD PUSH2 0xA89 JUMP JUMPDEST DUP1 SLOAD PUSH3 0x10000 SWAP1 DIV PUSH1 0xFF AND ISZERO PUSH2 0x23D0 JUMPI PUSH1 0x40 MLOAD PUSH3 0x461BCD PUSH1 0xE5 SHL DUP2 MSTORE PUSH1 0x20 PUSH1 0x4 DUP3 ADD MSTORE PUSH1 0x15 PUSH1 0x24 DUP3 ADD MSTORE PUSH32 0x526F756E6420616C726561647920736574746C65640000000000000000000000 PUSH1 0x44 DUP3 ADD MSTORE PUSH1 0x64 ADD PUSH2 0xA89 JUMP JUMPDEST PUSH1 0x0 DUP4 DUP2 MSTORE PUSH1 0xD6 PUSH1 0x20 MSTORE PUSH1 0x40 SWAP1 KECCAK256 DUP1 SLOAD PUSH2 0x23E8 PUSH2 0x3617 JUMP JUMPDEST PUSH1 0x0 JUMPDEST DUP3 DUP2 LT ISZERO PUSH2 0x24EE JUMPI PUSH1 0x0 PUSH2 0x246D DUP6 DUP4 DUP2 SLOAD DUP2 LT PUSH2 0x240A JUMPI PUSH2 0x240A PUSH2 0x3C48 JUMP JUMPDEST PUSH1 0x0 SWAP2 DUP3 MSTORE PUSH1 0x20 DUP3 KECCAK256 PUSH1 0x40 DUP1 MLOAD PUSH1 0xE0 DUP2 ADD SWAP2 DUP3 SWAP1 MSTORE SWAP4 PUSH1 0x4 SWAP1 SWAP4 MUL SWAP1 SWAP2 ADD PUSH1 0x1 ADD SWAP2 PUSH1 0x7 SWAP2 SWAP1 DUP4 SWAP1 DUP6 JUMPDEST DUP3 SLOAD PUSH2 0x100 DUP4 SWAP1 EXP SWAP1 DIV PUSH1 0xFF AND DUP2 MSTORE PUSH1 0x20 PUSH1 0x1 SWAP3 DUP4 ADD DUP2 DUP2 DIV SWAP5 DUP6 ADD SWAP5 SWAP1 SWAP4 SUB SWAP1 SWAP3 MUL SWAP2 ADD DUP1 DUP5 GT PUSH2 0x2434 JUMPI SWAP1 POP POP POP POP POP POP DUP9 PUSH2 0x313F JUMP JUMPDEST SWAP1 POP DUP1 DUP6 DUP4 DUP2 SLOAD DUP2 LT PUSH2 0x2482 JUMPI PUSH2 0x2482 PUSH2 0x3C48 JUMP JUMPDEST PUSH1 0x0 SWAP2 DUP3 MSTORE PUSH1 0x20 SWAP1 SWAP2 KECCAK256 PUSH1 0x4 SWAP1 SWAP2 MUL ADD PUSH1 0x2 SWAP1 DUP2 ADD DUP1 SLOAD PUSH2 0xFF00 NOT AND PUSH2 0x100 PUSH1 0xFF SWAP5 DUP6 AND MUL OR SWAP1 SSTORE SWAP1 DUP3 AND LT PUSH2 0x24DB JUMPI DUP3 DUP2 PUSH1 0xFF AND PUSH1 0x8 DUP2 LT PUSH2 0x24C7 JUMPI PUSH2 0x24C7 PUSH2 0x3C48 JUMP JUMPDEST PUSH1 0x20 MUL ADD DUP1 MLOAD SWAP1 PUSH2 0x24D7 DUP3 PUSH2 0x3C5E JUMP JUMPDEST SWAP1 MSTORE POP JUMPDEST POP DUP1 PUSH2 0x24E6 DUP2 PUSH2 0x3C5E JUMP JUMPDEST SWAP2 POP POP PUSH2 0x23EB JUMP JUMPDEST POP PUSH1 0x0 PUSH2 0x2710 PUSH2 0x3E8 DUP7 PUSH1 0x3 ADD SLOAD PUSH2 0x2506 SWAP2 SWAP1 PUSH2 0x3CA1 JUMP JUMPDEST PUSH2 0x2510 SWAP2 SWAP1 PUSH2 0x3CB8 JUMP JUMPDEST SWAP1 POP PUSH1 0x0 DUP2 DUP7 PUSH1 0x3 ADD SLOAD PUSH2 0x2524 SWAP2 SWAP1 PUSH2 0x3BE1 JUMP JUMPDEST SWAP1 POP PUSH1 0x0 PUSH2 0x2530 PUSH2 0x3617 JUMP JUMPDEST PUSH1 0x64 PUSH2 0x253D DUP5 PUSH1 0x5 PUSH2 0x3CA1 JUMP JUMPDEST PUSH2 0x2547 SWAP2 SWAP1 PUSH2 0x3CB8 JUMP JUMPDEST PUSH1 0x40 DUP3 ADD MSTORE PUSH1 0x64 PUSH2 0x2559 DUP5 PUSH1 0xA PUSH2 0x3CA1 JUMP JUMPDEST PUSH2 0x2563 SWAP2 SWAP1 PUSH2 0x3CB8 JUMP JUMPDEST PUSH1 0x60 DUP3 ADD MSTORE PUSH1 0x64 PUSH2 0x2575 DUP5 PUSH1 0xF PUSH2 0x3CA1 JUMP JUMPDEST PUSH2 0x257F SWAP2 SWAP1 PUSH2 0x3CB8 JUMP JUMPDEST PUSH1 0x80 DUP3 ADD MSTORE PUSH1 0x64 PUSH2 0x2591 DUP5 PUSH1 0x14 PUSH2 0x3CA1 JUMP JUMPDEST PUSH2 0x259B SWAP2 SWAP1 PUSH2 0x3CB8 JUMP JUMPDEST PUSH1 0xA0 DUP3 ADD MSTORE PUSH1 0x64 PUSH2 0x25AD DUP5 PUSH1 0x14 PUSH2 0x3CA1 JUMP JUMPDEST PUSH2 0x25B7 SWAP2 SWAP1 PUSH2 0x3CB8 JUMP JUMPDEST PUSH1 0xC0 DUP3 ADD MSTORE PUSH1 0x64 PUSH2 0x25C9 DUP5 PUSH1 0x1E PUSH2 0x3CA1 JUMP JUMPDEST PUSH2 0x25D3 SWAP2 SWAP1 PUSH2 0x3CB8 JUMP JUMPDEST PUSH1 0xE0 DUP3 ADD MSTORE PUSH2 0x25E0 PUSH2 0x3617 JUMP JUMPDEST PUSH1 0x2 JUMPDEST PUSH1 0x7 DUP2 PUSH1 0xFF AND GT PUSH2 0x26A6 JUMPI PUSH1 0x0 DUP8 DUP3 PUSH1 0xFF AND PUSH1 0x8 DUP2 LT PUSH2 0x2605 JUMPI PUSH2 0x2605 PUSH2 0x3C48 JUMP JUMPDEST PUSH1 0x20 MUL ADD MLOAD GT ISZERO PUSH2 0x266D JUMPI DUP7 DUP2 PUSH1 0xFF AND PUSH1 0x8 DUP2 LT PUSH2 0x2625 JUMPI PUSH2 0x2625 PUSH2 0x3C48 JUMP JUMPDEST PUSH1 0x20 MUL ADD MLOAD DUP4 DUP3 PUSH1 0xFF AND PUSH1 0x8 DUP2 LT PUSH2 0x263F JUMPI PUSH2 0x263F PUSH2 0x3C48 JUMP JUMPDEST PUSH1 0x20 MUL ADD MLOAD PUSH2 0x264E SWAP2 SWAP1 PUSH2 0x3CB8 JUMP JUMPDEST DUP3 DUP3 PUSH1 0xFF AND PUSH1 0x8 DUP2 LT PUSH2 0x2663 JUMPI PUSH2 0x2663 PUSH2 0x3C48 JUMP JUMPDEST PUSH1 0x20 MUL ADD MSTORE PUSH2 0x2694 JUMP JUMPDEST DUP3 DUP2 PUSH1 0xFF AND PUSH1 0x8 DUP2 LT PUSH2 0x2682 JUMPI PUSH2 0x2682 PUSH2 0x3C48 JUMP JUMPDEST PUSH1 0x20 MUL ADD MLOAD PUSH2 0x2691 SWAP1 DUP6 PUSH2 0x3BCE JUMP JUMPDEST SWAP4 POP JUMPDEST DUP1 PUSH2 0x269E DUP2 PUSH2 0x3CCC JUMP JUMPDEST SWAP2 POP POP PUSH2 0x25E3 JUMP JUMPDEST POP PUSH1 0x0 JUMPDEST DUP8 DUP2 LT ISZERO PUSH2 0x2812 JUMPI PUSH1 0x0 DUP10 DUP3 DUP2 SLOAD DUP2 LT PUSH2 0x26C6 JUMPI PUSH2 0x26C6 PUSH2 0x3C48 JUMP JUMPDEST PUSH1 0x0 SWAP2 DUP3 MSTORE PUSH1 0x20 SWAP1 SWAP2 KECCAK256 PUSH1 0x2 PUSH1 0x4 SWAP1 SWAP3 MUL ADD DUP2 ADD SLOAD PUSH1 0xFF PUSH2 0x100 SWAP1 SWAP2 DIV AND SWAP2 POP DUP2 LT PUSH2 0x27FF JUMPI PUSH1 0x0 DUP4 DUP3 PUSH1 0xFF AND PUSH1 0x8 DUP2 LT PUSH2 0x2703 JUMPI PUSH2 0x2703 PUSH2 0x3C48 JUMP JUMPDEST PUSH1 0x20 MUL ADD MLOAD SWAP1 POP DUP1 DUP12 DUP5 DUP2 SLOAD DUP2 LT PUSH2 0x271D JUMPI PUSH2 0x271D PUSH2 0x3C48 JUMP JUMPDEST SWAP1 PUSH1 0x0 MSTORE PUSH1 0x20 PUSH1 0x0 KECCAK256 SWAP1 PUSH1 0x4 MUL ADD PUSH1 0x3 ADD DUP2 SWAP1 SSTORE POP DUP1 PUSH1 0xD8 PUSH1 0x0 DUP14 DUP7 DUP2 SLOAD DUP2 LT PUSH2 0x2749 JUMPI PUSH2 0x2749 PUSH2 0x3C48 JUMP JUMPDEST PUSH1 0x0 SWAP2 DUP3 MSTORE PUSH1 0x20 DUP1 DUP4 KECCAK256 PUSH1 0x4 SWAP1 SWAP3 MUL SWAP1 SWAP2 ADD SLOAD PUSH1 0x1 PUSH1 0x1 PUSH1 0xA0 SHL SUB AND DUP4 MSTORE DUP3 ADD SWAP3 SWAP1 SWAP3 MSTORE PUSH1 0x40 ADD DUP2 KECCAK256 DUP1 SLOAD SWAP1 SWAP2 SWAP1 PUSH2 0x2782 SWAP1 DUP5 SWAP1 PUSH2 0x3BCE JUMP JUMPDEST SWAP3 POP POP DUP2 SWAP1 SSTORE POP DUP11 DUP4 DUP2 SLOAD DUP2 LT PUSH2 0x279B JUMPI PUSH2 0x279B PUSH2 0x3C48 JUMP JUMPDEST PUSH1 0x0 SWAP2 DUP3 MSTORE PUSH1 0x20 SWAP2 DUP3 SWAP1 KECCAK256 PUSH1 0x4 SWAP1 SWAP2 MUL ADD SLOAD PUSH1 0x40 DUP1 MLOAD DUP7 DUP2 MSTORE PUSH1 0xFF DUP7 AND SWAP4 DUP2 ADD SWAP4 SWAP1 SWAP4 MSTORE DUP3 ADD DUP4 SWAP1 MSTORE PUSH1 0x1 PUSH1 0x1 PUSH1 0xA0 SHL SUB AND SWAP1 DUP16 SWAP1 PUSH32 0xAF8D69C5BF84763F900B51E0405FDC2AD4EAF8B44698617A07AE9C31BC41204C SWAP1 PUSH1 0x60 ADD PUSH1 0x40 MLOAD DUP1 SWAP2 SUB SWAP1 LOG3 POP JUMPDEST POP DUP1 PUSH2 0x280A DUP2 PUSH2 0x3C5E JUMP JUMPDEST SWAP2 POP POP PUSH2 0x26AA JUMP JUMPDEST POP DUP5 PUSH1 0xD9 PUSH1 0x0 DUP3 DUP3 SLOAD PUSH2 0x2825 SWAP2 SWAP1 PUSH2 0x3BCE JUMP JUMPDEST SWAP3 POP POP DUP2 SWAP1 SSTORE POP DUP3 PUSH1 0xDA PUSH1 0x0 DUP3 DUP3 SLOAD PUSH2 0x283E SWAP2 SWAP1 PUSH2 0x3BCE JUMP JUMPDEST SWAP1 SWAP2 SSTORE POP POP DUP9 SLOAD PUSH3 0xFF00FF NOT AND PUSH3 0x10000 OR DUP10 SSTORE PUSH1 0x40 MLOAD DUP12 SWAP1 PUSH32 0xB8CA8B8466FCA767994635DC37682D654DA89BF89D11DE69E1025CCDB2CDFEE5 SWAP1 PUSH2 0x2888 SWAP1 DUP14 SWAP1 DUP10 SWAP1 DUP9 SWAP1 PUSH2 0x3CEB JUMP JUMPDEST PUSH1 0x40 MLOAD DUP1 SWAP2 SUB SWAP1 LOG2 PUSH2 0x2898 PUSH2 0x1FEC JUMP JUMPDEST POP POP POP POP POP POP POP POP POP POP POP JUMP JUMPDEST PUSH2 0x111A PUSH2 0x1EB4 JUMP JUMPDEST PUSH32 0x4910FDFA16FED3260ED0E7147F7CC6DA11A60208B5B9406D12A635614FFD9143 SLOAD PUSH1 0xFF AND ISZERO PUSH2 0x28E5 JUMPI PUSH2 0x28E0 DUP4 PUSH2 0x31BE JUMP JUMPDEST POP POP POP JUMP JUMPDEST DUP3 PUSH1 0x1 PUSH1 0x1 PUSH1 0xA0 SHL SUB AND PUSH4 0x52D1902D PUSH1 0x40 MLOAD DUP2 PUSH4 0xFFFFFFFF AND PUSH1 0xE0 SHL DUP2 MSTORE PUSH1 0x4 ADD PUSH1 0x20 PUSH1 0x40 MLOAD DUP1 DUP4 SUB DUP2 DUP7 GAS STATICCALL SWAP3 POP POP POP DUP1 ISZERO PUSH2 0x293F JUMPI POP PUSH1 0x40 DUP1 MLOAD PUSH1 0x1F RETURNDATASIZE SWAP1 DUP2 ADD PUSH1 0x1F NOT AND DUP3 ADD SWAP1 SWAP3 MSTORE PUSH2 0x293C SWAP2 DUP2 ADD SWAP1 PUSH2 0x3D0C JUMP JUMPDEST PUSH1 0x1 JUMPDEST PUSH2 0x29B1 JUMPI PUSH1 0x40 MLOAD PUSH3 0x461BCD PUSH1 0xE5 SHL DUP2 MSTORE PUSH1 0x20 PUSH1 0x4 DUP3 ADD MSTORE PUSH1 0x2E PUSH1 0x24 DUP3 ADD MSTORE PUSH32 0x45524331393637557067726164653A206E657720696D706C656D656E74617469 PUSH1 0x44 DUP3 ADD MSTORE PUSH32 0x6F6E206973206E6F742055555053000000000000000000000000000000000000 PUSH1 0x64 DUP3 ADD MSTORE PUSH1 0x84 ADD PUSH2 0xA89 JUMP JUMPDEST PUSH32 0x360894A13BA1A3210667C828492DB98DCA3E2076CC3735A920A3CA505D382BBC DUP2 EQ PUSH2 0x2A46 JUMPI PUSH1 0x40 MLOAD PUSH3 0x461BCD PUSH1 0xE5 SHL DUP2 MSTORE PUSH1 0x20 PUSH1 0x4 DUP3 ADD MSTORE PUSH1 0x29 PUSH1 0x24 DUP3 ADD MSTORE PUSH32 0x45524331393637557067726164653A20756E737570706F727465642070726F78 PUSH1 0x44 DUP3 ADD MSTORE PUSH32 0x6961626C65555549440000000000000000000000000000000000000000000000 PUSH1 0x64 DUP3 ADD MSTORE PUSH1 0x84 ADD PUSH2 0xA89 JUMP JUMPDEST POP PUSH2 0x28E0 DUP4 DUP4 DUP4 PUSH2 0x327C JUMP JUMPDEST PUSH2 0x2A5A PUSH2 0x35F8 JUMP JUMPDEST PUSH1 0x0 JUMPDEST PUSH1 0x7 DUP2 LT ISZERO PUSH2 0x28E0 JUMPI PUSH1 0x1 DUP4 DUP3 PUSH1 0x7 DUP2 LT PUSH2 0x2A7A JUMPI PUSH2 0x2A7A PUSH2 0x3C48 JUMP JUMPDEST PUSH1 0x20 MUL ADD PUSH1 0x20 DUP2 ADD SWAP1 PUSH2 0x2A8D SWAP2 SWAP1 PUSH2 0x3D25 JUMP JUMPDEST PUSH1 0xFF AND LT ISZERO DUP1 ISZERO PUSH2 0x2AC6 JUMPI POP PUSH1 0x31 DUP4 DUP3 PUSH1 0x7 DUP2 LT PUSH2 0x2AAD JUMPI PUSH2 0x2AAD PUSH2 0x3C48 JUMP JUMPDEST PUSH1 0x20 MUL ADD PUSH1 0x20 DUP2 ADD SWAP1 PUSH2 0x2AC0 SWAP2 SWAP1 PUSH2 0x3D25 JUMP JUMPDEST PUSH1 0xFF AND GT ISZERO JUMPDEST PUSH2 0x2B12 JUMPI PUSH1 0x40 MLOAD PUSH3 0x461BCD PUSH1 0xE5 SHL DUP2 MSTORE PUSH1 0x20 PUSH1 0x4 DUP3 ADD MSTORE PUSH1 0x13 PUSH1 0x24 DUP3 ADD MSTORE PUSH32 0x4E756D626572206F7574206F662072616E676500000000000000000000000000 PUSH1 0x44 DUP3 ADD MSTORE PUSH1 0x64 ADD PUSH2 0xA89 JUMP JUMPDEST DUP2 DUP4 DUP3 PUSH1 0x7 DUP2 LT PUSH2 0x2B25 JUMPI PUSH2 0x2B25 PUSH2 0x3C48 JUMP JUMPDEST PUSH1 0x20 MUL ADD PUSH1 0x20 DUP2 ADD SWAP1 PUSH2 0x2B38 SWAP2 SWAP1 PUSH2 0x3D25 JUMP JUMPDEST PUSH1 0xFF AND PUSH1 0x32 DUP2 LT PUSH2 0x2B4B JUMPI PUSH2 0x2B4B PUSH2 0x3C48 JUMP JUMPDEST PUSH1 0x20 MUL ADD MLOAD ISZERO PUSH2 0x2B9D JUMPI PUSH1 0x40 MLOAD PUSH3 0x461BCD PUSH1 0xE5 SHL DUP2 MSTORE PUSH1 0x20 PUSH1 0x4 DUP3 ADD MSTORE PUSH1 0x1C PUSH1 0x24 DUP3 ADD MSTORE PUSH32 0x4475706C6963617465206E756D626572206E6F7420616C6C6F77656400000000 PUSH1 0x44 DUP3 ADD MSTORE PUSH1 0x64 ADD PUSH2 0xA89 JUMP JUMPDEST PUSH1 0x1 DUP3 DUP5 DUP4 PUSH1 0x7 DUP2 LT PUSH2 0x2BB2 JUMPI PUSH2 0x2BB2 PUSH2 0x3C48 JUMP JUMPDEST PUSH1 0x20 MUL ADD PUSH1 0x20 DUP2 ADD SWAP1 PUSH2 0x2BC5 SWAP2 SWAP1 PUSH2 0x3D25 JUMP JUMPDEST PUSH1 0xFF AND PUSH1 0x32 DUP2 LT PUSH2 0x2BD8 JUMPI PUSH2 0x2BD8 PUSH2 0x3C48 JUMP JUMPDEST SWAP2 ISZERO ISZERO PUSH1 0x20 SWAP1 SWAP3 MUL ADD MSTORE DUP1 PUSH2 0x2BEC DUP2 PUSH2 0x3C5E JUMP JUMPDEST SWAP2 POP POP PUSH2 0x2A5D JUMP JUMPDEST PUSH1 0xDB SLOAD PUSH1 0x0 SWAP1 DUP2 MSTORE PUSH1 0xD5 PUSH1 0x20 MSTORE PUSH1 0x40 SWAP1 KECCAK256 DUP1 SLOAD PUSH1 0xFF AND PUSH2 0x2C48 JUMPI PUSH1 0x40 MLOAD PUSH3 0x461BCD PUSH1 0xE5 SHL DUP2 MSTORE PUSH1 0x20 PUSH1 0x4 DUP3 ADD MSTORE PUSH1 0xF PUSH1 0x24 DUP3 ADD MSTORE PUSH15 0x139BC81858DD1A5D99481C9BDD5B99 PUSH1 0x8A SHL PUSH1 0x44 DUP3 ADD MSTORE PUSH1 0x64 ADD PUSH2 0xA89 JUMP JUMPDEST DUP1 SLOAD PUSH2 0x100 SWAP1 DIV PUSH1 0xFF AND ISZERO PUSH2 0x2C9F JUMPI PUSH1 0x40 MLOAD PUSH3 0x461BCD PUSH1 0xE5 SHL DUP2 MSTORE PUSH1 0x20 PUSH1 0x4 DUP3 ADD MSTORE PUSH1 0x16 PUSH1 0x24 DUP3 ADD MSTORE PUSH32 0x4472617720616C72656164792072657175657374656400000000000000000000 PUSH1 0x44 DUP3 ADD MSTORE PUSH1 0x64 ADD PUSH2 0xA89 JUMP JUMPDEST DUP1 PUSH1 0x2 ADD SLOAD TIMESTAMP LT ISZERO PUSH2 0x2CF3 JUMPI PUSH1 0x40 MLOAD PUSH3 0x461BCD PUSH1 0xE5 SHL DUP2 MSTORE PUSH1 0x20 PUSH1 0x4 DUP3 ADD MSTORE PUSH1 0x12 PUSH1 0x24 DUP3 ADD MSTORE PUSH32 0x526F756E64207374696C6C206163746976650000000000000000000000000000 PUSH1 0x44 DUP3 ADD MSTORE PUSH1 0x64 ADD PUSH2 0xA89 JUMP JUMPDEST DUP1 PUSH1 0x3 ADD SLOAD PUSH1 0xDA PUSH1 0x0 DUP3 DUP3 SLOAD PUSH2 0x2D09 SWAP2 SWAP1 PUSH2 0x3BCE JUMP JUMPDEST SWAP1 SWAP2 SSTORE POP POP DUP1 SLOAD PUSH3 0xFF00FF NOT AND PUSH3 0x10000 OR DUP2 SSTORE PUSH1 0xDB SLOAD PUSH1 0x3 DUP3 ADD SLOAD PUSH1 0x40 MLOAD PUSH32 0x3FD1C85CDA6246C06E5680D9888D379FE80D0234F53064BA2F3E3EF7698DFD4B SWAP2 PUSH2 0x2D57 SWAP2 SWAP1 DUP2 MSTORE PUSH1 0x20 ADD SWAP1 JUMP JUMPDEST PUSH1 0x40 MLOAD DUP1 SWAP2 SUB SWAP1 LOG2 PUSH2 0x111A PUSH2 0x1FEC JUMP JUMPDEST PUSH1 0xDB SLOAD PUSH1 0x0 SWAP1 DUP2 MSTORE PUSH1 0xD5 PUSH1 0x20 SWAP1 DUP2 MSTORE PUSH1 0x40 DUP1 DUP4 KECCAK256 PUSH1 0xC9 SLOAD DUP3 MLOAD PUSH1 0xC0 DUP2 ADD DUP5 MSTORE PUSH1 0xCB SLOAD DUP2 MSTORE PUSH1 0xCA SLOAD DUP2 DUP7 ADD MSTORE PUSH1 0xCC SLOAD PUSH2 0xFFFF PUSH5 0x100000000 DUP3 DIV AND DUP3 DUP7 ADD MSTORE PUSH4 0xFFFFFFFF DUP1 DUP3 AND PUSH1 0x60 DUP5 ADD MSTORE PUSH7 0x1000000000000 SWAP1 SWAP2 DIV AND PUSH1 0x80 DUP3 ADD MSTORE DUP4 MLOAD SWAP5 DUP6 ADD SWAP1 SWAP4 MSTORE PUSH1 0xD2 SLOAD PUSH1 0xFF AND ISZERO ISZERO DUP5 MSTORE SWAP1 SWAP3 PUSH1 0x1 PUSH1 0x1 PUSH1 0xA0 SHL SUB SWAP1 SWAP2 AND SWAP2 PUSH4 0x9B1C385E SWAP2 PUSH1 0xA0 DUP3 ADD SWAP1 PUSH2 0x2DF7 SWAP1 PUSH2 0x32A1 JUMP JUMPDEST DUP2 MSTORE POP PUSH1 0x40 MLOAD DUP3 PUSH4 0xFFFFFFFF AND PUSH1 0xE0 SHL DUP2 MSTORE PUSH1 0x4 ADD PUSH2 0x2E16 SWAP2 SWAP1 PUSH2 0x3D40 JUMP JUMPDEST PUSH1 0x20 PUSH1 0x40 MLOAD DUP1 DUP4 SUB DUP2 PUSH1 0x0 DUP8 GAS CALL ISZERO DUP1 ISZERO PUSH2 0x2E35 JUMPI RETURNDATASIZE PUSH1 0x0 DUP1 RETURNDATACOPY RETURNDATASIZE PUSH1 0x0 REVERT JUMPDEST POP POP POP POP PUSH1 0x40 MLOAD RETURNDATASIZE PUSH1 0x1F NOT PUSH1 0x1F DUP3 ADD AND DUP3 ADD DUP1 PUSH1 0x40 MSTORE POP DUP2 ADD SWAP1 PUSH2 0x2E59 SWAP2 SWAP1 PUSH2 0x3D0C JUMP JUMPDEST PUSH1 0x40 DUP1 MLOAD PUSH1 0x60 DUP2 ADD DUP3 MSTORE PUSH1 0x1 DUP1 DUP3 MSTORE PUSH1 0x0 PUSH1 0x20 DUP1 DUP5 ADD DUP3 DUP2 MSTORE DUP6 MLOAD DUP4 DUP2 MSTORE DUP1 DUP4 ADD DUP8 MSTORE DUP6 DUP8 ADD SWAP1 DUP2 MSTORE DUP8 DUP5 MSTORE PUSH1 0xD3 DUP4 MSTORE SWAP6 SWAP1 SWAP3 KECCAK256 DUP5 MLOAD DUP2 SLOAD SWAP4 MLOAD PUSH2 0xFFFF NOT SWAP1 SWAP5 AND SWAP1 ISZERO ISZERO PUSH2 0xFF00 NOT AND OR PUSH2 0x100 SWAP4 ISZERO ISZERO SWAP4 SWAP1 SWAP4 MUL SWAP3 SWAP1 SWAP3 OR DUP3 SSTORE SWAP4 MLOAD DUP1 MLOAD SWAP6 SWAP8 POP SWAP3 SWAP5 SWAP1 SWAP4 PUSH2 0x2ECD SWAP4 SWAP3 DUP6 ADD SWAP3 ADD SWAP1 PUSH2 0x3636 JUMP JUMPDEST POP POP PUSH1 0xDB SLOAD PUSH1 0x0 DUP5 DUP2 MSTORE PUSH1 0xD4 PUSH1 0x20 SWAP1 DUP2 MSTORE PUSH1 0x40 SWAP2 DUP3 SWAP1 KECCAK256 SWAP3 SWAP1 SWAP3 SSTORE PUSH1 0xCD DUP6 SWAP1 SSTORE DUP4 SLOAD PUSH2 0x100 PUSH2 0xFF00 NOT SWAP1 SWAP2 AND OR DUP5 SSTORE PUSH1 0xCC SLOAD DUP2 MLOAD DUP7 DUP2 MSTORE PUSH7 0x1000000000000 SWAP1 SWAP2 DIV PUSH4 0xFFFFFFFF AND SWAP3 DUP2 ADD SWAP3 SWAP1 SWAP3 MSTORE PUSH32 0xCC58B13AD3EAB50626C6A6300B1D139CD6EBB1688A7CCED9461C2F7E762665EE SWAP3 POP ADD PUSH1 0x40 MLOAD DUP1 SWAP2 SUB SWAP1 LOG1 PUSH1 0xDB SLOAD PUSH1 0x40 MLOAD DUP4 DUP2 MSTORE PUSH32 0xC67DDA8E11F1AA941C7E74466B1859A07A32F46AAF641D29B83BE348424D93CD SWAP1 PUSH1 0x20 ADD PUSH1 0x40 MLOAD DUP1 SWAP2 SUB SWAP1 LOG2 POP SWAP1 JUMP JUMPDEST PUSH1 0x33 DUP1 SLOAD PUSH1 0x1 PUSH1 0x1 PUSH1 0xA0 SHL SUB DUP4 DUP2 AND PUSH1 0x1 PUSH1 0x1 PUSH1 0xA0 SHL SUB NOT DUP4 AND DUP2 OR SWAP1 SWAP4 SSTORE PUSH1 0x40 MLOAD SWAP2 AND SWAP2 SWAP1 DUP3 SWAP1 PUSH32 0x8BE0079C531659141344CD1FD0A4F28419497F9722A3DAAFE3B4186F6B6457E0 SWAP1 PUSH1 0x0 SWAP1 LOG3 POP POP JUMP JUMPDEST PUSH1 0x0 SLOAD PUSH2 0x100 SWAP1 DIV PUSH1 0xFF AND PUSH2 0x303F JUMPI PUSH1 0x40 MLOAD PUSH3 0x461BCD PUSH1 0xE5 SHL DUP2 MSTORE PUSH1 0x20 PUSH1 0x4 DUP3 ADD MSTORE PUSH1 0x2B PUSH1 0x24 DUP3 ADD MSTORE PUSH32 0x496E697469616C697A61626C653A20636F6E7472616374206973206E6F742069 PUSH1 0x44 DUP3 ADD MSTORE PUSH11 0x6E697469616C697A696E67 PUSH1 0xA8 SHL PUSH1 0x64 DUP3 ADD MSTORE PUSH1 0x84 ADD PUSH2 0xA89 JUMP JUMPDEST PUSH2 0x1958 CALLER PUSH2 0x2F82 JUMP JUMPDEST PUSH1 0x0 JUMPDEST PUSH1 0x7 DUP2 LT ISZERO PUSH2 0x17AC JUMPI PUSH1 0x0 PUSH2 0x3061 DUP3 PUSH1 0x1 PUSH2 0x3BCE JUMP JUMPDEST SWAP1 POP JUMPDEST PUSH1 0x7 DUP2 LT ISZERO PUSH2 0x312C JUMPI DUP3 DUP3 PUSH1 0x7 DUP2 LT PUSH2 0x307F JUMPI PUSH2 0x307F PUSH2 0x3C48 JUMP JUMPDEST PUSH1 0x20 MUL ADD MLOAD PUSH1 0xFF AND DUP4 DUP3 PUSH1 0x7 DUP2 LT PUSH2 0x3099 JUMPI PUSH2 0x3099 PUSH2 0x3C48 JUMP JUMPDEST PUSH1 0x20 MUL ADD MLOAD PUSH1 0xFF AND LT ISZERO PUSH2 0x311A JUMPI PUSH1 0x0 DUP4 DUP4 PUSH1 0x7 DUP2 LT PUSH2 0x30BB JUMPI PUSH2 0x30BB PUSH2 0x3C48 JUMP JUMPDEST PUSH1 0x20 MUL ADD MLOAD SWAP1 POP DUP4 DUP3 PUSH1 0x7 DUP2 LT PUSH2 0x30D4 JUMPI PUSH2 0x30D4 PUSH2 0x3C48 JUMP JUMPDEST PUSH1 0x20 MUL ADD MLOAD DUP5 DUP5 PUSH1 0x7 DUP2 LT PUSH2 0x30EB JUMPI PUSH2 0x30EB PUSH2 0x3C48 JUMP JUMPDEST PUSH1 0xFF SWAP1 SWAP3 AND PUSH1 0x20 SWAP3 SWAP1 SWAP3 MUL ADD MSTORE DUP1 DUP5 DUP4 PUSH1 0x7 DUP2 LT PUSH2 0x310B JUMPI PUSH2 0x310B PUSH2 0x3C48 JUMP JUMPDEST PUSH1 0xFF SWAP1 SWAP3 AND PUSH1 0x20 SWAP3 SWAP1 SWAP3 MUL ADD MSTORE POP JUMPDEST DUP1 PUSH2 0x3124 DUP2 PUSH2 0x3C5E JUMP JUMPDEST SWAP2 POP POP PUSH2 0x3064 JUMP JUMPDEST POP DUP1 PUSH2 0x3137 DUP2 PUSH2 0x3C5E JUMP JUMPDEST SWAP2 POP POP PUSH2 0x304B JUMP JUMPDEST PUSH1 0x0 DUP1 JUMPDEST PUSH1 0x7 DUP2 PUSH1 0xFF AND LT ISZERO PUSH2 0x31B7 JUMPI DUP3 DUP2 PUSH1 0xFF AND PUSH1 0x7 DUP2 LT PUSH2 0x3164 JUMPI PUSH2 0x3164 PUSH2 0x3C48 JUMP JUMPDEST PUSH1 0x20 MUL ADD MLOAD PUSH1 0xFF AND DUP5 DUP3 PUSH1 0xFF AND PUSH1 0x7 DUP2 LT PUSH2 0x3181 JUMPI PUSH2 0x3181 PUSH2 0x3C48 JUMP JUMPDEST PUSH1 0x20 MUL ADD MLOAD PUSH1 0xFF AND SUB PUSH2 0x31A0 JUMPI DUP2 PUSH2 0x3198 DUP2 PUSH2 0x3CCC JUMP JUMPDEST SWAP3 POP POP PUSH2 0x31A5 JUMP JUMPDEST PUSH2 0x31B7 JUMP JUMPDEST DUP1 PUSH2 0x31AF DUP2 PUSH2 0x3CCC JUMP JUMPDEST SWAP2 POP POP PUSH2 0x3143 JUMP JUMPDEST POP SWAP3 SWAP2 POP POP JUMP JUMPDEST PUSH1 0x1 PUSH1 0x1 PUSH1 0xA0 SHL SUB DUP2 AND EXTCODESIZE PUSH2 0x323B JUMPI PUSH1 0x40 MLOAD PUSH3 0x461BCD PUSH1 0xE5 SHL DUP2 MSTORE PUSH1 0x20 PUSH1 0x4 DUP3 ADD MSTORE PUSH1 0x2D PUSH1 0x24 DUP3 ADD MSTORE PUSH32 0x455243313936373A206E657720696D706C656D656E746174696F6E206973206E PUSH1 0x44 DUP3 ADD MSTORE PUSH32 0x6F74206120636F6E747261637400000000000000000000000000000000000000 PUSH1 0x64 DUP3 ADD MSTORE PUSH1 0x84 ADD PUSH2 0xA89 JUMP JUMPDEST PUSH32 0x360894A13BA1A3210667C828492DB98DCA3E2076CC3735A920A3CA505D382BBC DUP1 SLOAD PUSH1 0x1 PUSH1 0x1 PUSH1 0xA0 SHL SUB NOT AND PUSH1 0x1 PUSH1 0x1 PUSH1 0xA0 SHL SUB SWAP3 SWAP1 SWAP3 AND SWAP2 SWAP1 SWAP2 OR SWAP1 SSTORE JUMP JUMPDEST PUSH2 0x3285 DUP4 PUSH2 0x333F JUMP JUMPDEST PUSH1 0x0 DUP3 MLOAD GT DUP1 PUSH2 0x3292 JUMPI POP DUP1 JUMPDEST ISZERO PUSH2 0x28E0 JUMPI PUSH2 0xF9C DUP4 DUP4 PUSH2 0x337F JUMP JUMPDEST PUSH1 0x60 PUSH32 0x92FD13387C7FE7BEFBC38D303D6468778FB9731BC4583F17D92989C6FCFDEAAA DUP3 PUSH1 0x40 MLOAD PUSH1 0x24 ADD PUSH2 0x32DA SWAP2 MLOAD ISZERO ISZERO DUP2 MSTORE PUSH1 0x20 ADD SWAP1 JUMP JUMPDEST PUSH1 0x40 DUP1 MLOAD PUSH1 0x1F NOT DUP2 DUP5 SUB ADD DUP2 MSTORE SWAP2 SWAP1 MSTORE PUSH1 0x20 DUP2 ADD DUP1 MLOAD PUSH28 0xFFFFFFFFFFFFFFFFFFFFFFFFFFFFFFFFFFFFFFFFFFFFFFFFFFFFFFFF AND PUSH32 0xFFFFFFFF00000000000000000000000000000000000000000000000000000000 SWAP1 SWAP4 AND SWAP3 SWAP1 SWAP3 OR SWAP1 SWAP2 MSTORE SWAP3 SWAP2 POP POP JUMP JUMPDEST PUSH2 0x3348 DUP2 PUSH2 0x31BE JUMP JUMPDEST PUSH1 0x40 MLOAD PUSH1 0x1 PUSH1 0x1 PUSH1 0xA0 SHL SUB DUP3 AND SWAP1 PUSH32 0xBC7CD75A20EE27FD9ADEBAB32041F755214DBC6BFFA90CC0225B39DA2E5C2D3B SWAP1 PUSH1 0x0 SWAP1 LOG2 POP JUMP JUMPDEST PUSH1 0x60 PUSH2 0x33A4 DUP4 DUP4 PUSH1 0x40 MLOAD DUP1 PUSH1 0x60 ADD PUSH1 0x40 MSTORE DUP1 PUSH1 0x27 DUP2 MSTORE PUSH1 0x20 ADD PUSH2 0x3DCD PUSH1 0x27 SWAP2 CODECOPY PUSH2 0x33AB JUMP JUMPDEST SWAP4 SWAP3 POP POP POP JUMP JUMPDEST PUSH1 0x60 PUSH1 0x0 DUP1 DUP6 PUSH1 0x1 PUSH1 0x1 PUSH1 0xA0 SHL SUB AND DUP6 PUSH1 0x40 MLOAD PUSH2 0x33C8 SWAP2 SWAP1 PUSH2 0x3D9D JUMP JUMPDEST PUSH1 0x0 PUSH1 0x40 MLOAD DUP1 DUP4 SUB DUP2 DUP6 GAS DELEGATECALL SWAP2 POP POP RETURNDATASIZE DUP1 PUSH1 0x0 DUP2 EQ PUSH2 0x3403 JUMPI PUSH1 0x40 MLOAD SWAP2 POP PUSH1 0x1F NOT PUSH1 0x3F RETURNDATASIZE ADD AND DUP3 ADD PUSH1 0x40 MSTORE RETURNDATASIZE DUP3 MSTORE RETURNDATASIZE PUSH1 0x0 PUSH1 0x20 DUP5 ADD RETURNDATACOPY PUSH2 0x3408 JUMP JUMPDEST PUSH1 0x60 SWAP2 POP JUMPDEST POP SWAP2 POP SWAP2 POP PUSH2 0x3419 DUP7 DUP4 DUP4 DUP8 PUSH2 0x3423 JUMP JUMPDEST SWAP7 SWAP6 POP POP POP POP POP POP JUMP JUMPDEST PUSH1 0x60 DUP4 ISZERO PUSH2 0x3492 JUMPI DUP3 MLOAD PUSH1 0x0 SUB PUSH2 0x348B JUMPI PUSH1 0x1 PUSH1 0x1 PUSH1 0xA0 SHL SUB DUP6 AND EXTCODESIZE PUSH2 0x348B JUMPI PUSH1 0x40 MLOAD PUSH3 0x461BCD PUSH1 0xE5 SHL DUP2 MSTORE PUSH1 0x20 PUSH1 0x4 DUP3 ADD MSTORE PUSH1 0x1D PUSH1 0x24 DUP3 ADD MSTORE PUSH32 0x416464726573733A2063616C6C20746F206E6F6E2D636F6E7472616374000000 PUSH1 0x44 DUP3 ADD MSTORE PUSH1 0x64 ADD PUSH2 0xA89 JUMP JUMPDEST POP DUP2 PUSH2 0x349C JUMP JUMPDEST PUSH2 0x349C DUP4 DUP4 PUSH2 0x34A4 JUMP JUMPDEST SWAP5 SWAP4 POP POP POP POP JUMP JUMPDEST DUP2 MLOAD ISZERO PUSH2 0x34B4 JUMPI DUP2 MLOAD DUP1 DUP4 PUSH1 0x20 ADD REVERT JUMPDEST DUP1 PUSH1 0x40 MLOAD PUSH3 0x461BCD PUSH1 0xE5 SHL DUP2 MSTORE PUSH1 0x4 ADD PUSH2 0xA89 SWAP2 SWAP1 PUSH2 0x3DB9 JUMP JUMPDEST DUP3 DUP1 SLOAD DUP3 DUP3 SSTORE SWAP1 PUSH1 0x0 MSTORE PUSH1 0x20 PUSH1 0x0 KECCAK256 SWAP1 DUP2 ADD SWAP3 DUP3 ISZERO PUSH2 0x3509 JUMPI SWAP2 PUSH1 0x20 MUL DUP3 ADD JUMPDEST DUP3 DUP2 GT ISZERO PUSH2 0x3509 JUMPI DUP3 CALLDATALOAD DUP3 SSTORE SWAP2 PUSH1 0x20 ADD SWAP2 SWAP1 PUSH1 0x1 ADD SWAP1 PUSH2 0x34EE JUMP JUMPDEST POP PUSH2 0x3515 SWAP3 SWAP2 POP PUSH2 0x3671 JUMP JUMPDEST POP SWAP1 JUMP JUMPDEST PUSH1 0x1 DUP4 ADD SWAP2 DUP4 SWAP1 DUP3 ISZERO PUSH2 0x3509 JUMPI SWAP2 PUSH1 0x20 MUL DUP3 ADD PUSH1 0x0 JUMPDEST DUP4 DUP3 GT ISZERO PUSH2 0x356D JUMPI DUP4 MLOAD DUP4 DUP3 PUSH2 0x100 EXP DUP2 SLOAD DUP2 PUSH1 0xFF MUL NOT AND SWAP1 DUP4 PUSH1 0xFF AND MUL OR SWAP1 SSTORE POP SWAP3 PUSH1 0x20 ADD SWAP3 PUSH1 0x1 ADD PUSH1 0x20 DUP2 PUSH1 0x0 ADD DIV SWAP3 DUP4 ADD SWAP3 PUSH1 0x1 SUB MUL PUSH2 0x352F JUMP JUMPDEST DUP1 ISZERO PUSH2 0x359A JUMPI DUP3 DUP2 PUSH2 0x100 EXP DUP2 SLOAD SWAP1 PUSH1 0xFF MUL NOT AND SWAP1 SSTORE PUSH1 0x1 ADD PUSH1 0x20 DUP2 PUSH1 0x0 ADD DIV SWAP3 DUP4 ADD SWAP3 PUSH1 0x1 SUB MUL PUSH2 0x356D JUMP JUMPDEST POP POP PUSH2 0x3515 SWAP3 SWAP2 POP PUSH2 0x3671 JUMP JUMPDEST PUSH1 0x1 DUP4 ADD SWAP2 DUP4 SWAP1 DUP3 ISZERO PUSH2 0x3509 JUMPI SWAP2 PUSH1 0x1F ADD PUSH1 0x20 SWAP1 DIV DUP3 ADD JUMPDEST DUP3 DUP2 GT ISZERO PUSH2 0x3509 JUMPI DUP3 SLOAD DUP3 SSTORE SWAP2 PUSH1 0x1 ADD SWAP2 SWAP1 PUSH1 0x1 ADD SWAP1 PUSH2 0x35BF JUMP JUMPDEST PUSH1 0x40 MLOAD DUP1 PUSH1 0xE0 ADD PUSH1 0x40 MSTORE DUP1 PUSH1 0x7 SWAP1 PUSH1 0x20 DUP3 MUL DUP1 CALLDATASIZE DUP4 CALLDATACOPY POP SWAP2 SWAP3 SWAP2 POP POP JUMP JUMPDEST PUSH1 0x40 MLOAD DUP1 PUSH2 0x640 ADD PUSH1 0x40 MSTORE DUP1 PUSH1 0x32 SWAP1 PUSH1 0x20 DUP3 MUL DUP1 CALLDATASIZE DUP4 CALLDATACOPY POP SWAP2 SWAP3 SWAP2 POP POP JUMP JUMPDEST PUSH1 0x40 MLOAD DUP1 PUSH2 0x100 ADD PUSH1 0x40 MSTORE DUP1 PUSH1 0x8 SWAP1 PUSH1 0x20 DUP3 MUL DUP1 CALLDATASIZE DUP4 CALLDATACOPY POP SWAP2 SWAP3 SWAP2 POP POP JUMP JUMPDEST DUP3 DUP1 SLOAD DUP3 DUP3 SSTORE SWAP1 PUSH1 0x0 MSTORE PUSH1 0x20 PUSH1 0x0 KECCAK256 SWAP1 DUP2 ADD SWAP3 DUP3 ISZERO PUSH2 0x3509 JUMPI SWAP2 PUSH1 0x20 MUL DUP3 ADD JUMPDEST DUP3 DUP2 GT ISZERO PUSH2 0x3509 JUMPI DUP3 MLOAD DUP3 SSTORE SWAP2 PUSH1 0x20 ADD SWAP2 SWAP1 PUSH1 0x1 ADD SWAP1 PUSH2 0x3656 JUMP JUMPDEST JUMPDEST DUP1 DUP3 GT ISZERO PUSH2 0x3515 JUMPI PUSH1 0x0 DUP2 SSTORE PUSH1 0x1 ADD PUSH2 0x3672 JUMP JUMPDEST PUSH1 0x0 PUSH1 0x20 DUP3 DUP5 SUB SLT ISZERO PUSH2 0x3698 JUMPI PUSH1 0x0 DUP1 REVERT JUMPDEST POP CALLDATALOAD SWAP2 SWAP1 POP JUMP JUMPDEST DUP1 CALLDATALOAD PUSH1 0x1 PUSH1 0x1 PUSH1 0xA0 SHL SUB DUP2 AND DUP2 EQ PUSH2 0x36B6 JUMPI PUSH1 0x0 DUP1 REVERT JUMPDEST SWAP2 SWAP1 POP JUMP JUMPDEST PUSH1 0x0 DUP1 PUSH1 0x0 PUSH1 0x60 DUP5 DUP7 SUB SLT ISZERO PUSH2 0x36D0 JUMPI PUSH1 0x0 DUP1 REVERT JUMPDEST PUSH2 0x36D9 DUP5 PUSH2 0x369F JUMP JUMPDEST SWAP6 PUSH1 0x20 DUP6 ADD CALLDATALOAD SWAP6 POP PUSH1 0x40 SWAP1 SWAP5 ADD CALLDATALOAD SWAP4 SWAP3 POP POP POP JUMP JUMPDEST PUSH1 0x0 DUP1 PUSH1 0x0 PUSH1 0x40 DUP5 DUP7 SUB SLT ISZERO PUSH2 0x3703 JUMPI PUSH1 0x0 DUP1 REVERT JUMPDEST DUP4 CALLDATALOAD SWAP3 POP PUSH1 0x20 DUP5 ADD CALLDATALOAD PUSH8 0xFFFFFFFFFFFFFFFF DUP1 DUP3 GT ISZERO PUSH2 0x3722 JUMPI PUSH1 0x0 DUP1 REVERT JUMPDEST DUP2 DUP7 ADD SWAP2 POP DUP7 PUSH1 0x1F DUP4 ADD SLT PUSH2 0x3736 JUMPI PUSH1 0x0 DUP1 REVERT JUMPDEST DUP2 CALLDATALOAD DUP2 DUP2 GT ISZERO PUSH2 0x3745 JUMPI PUSH1 0x0 DUP1 REVERT JUMPDEST DUP8 PUSH1 0x20 DUP3 PUSH1 0x5 SHL DUP6 ADD ADD GT ISZERO PUSH2 0x375A JUMPI PUSH1 0x0 DUP1 REVERT JUMPDEST PUSH1 0x20 DUP4 ADD SWAP5 POP DUP1 SWAP4 POP POP POP POP SWAP3 POP SWAP3 POP SWAP3 JUMP JUMPDEST PUSH1 0x0 PUSH1 0x20 DUP3 DUP5 SUB SLT ISZERO PUSH2 0x377F JUMPI PUSH1 0x0 DUP1 REVERT JUMPDEST PUSH2 0x33A4 DUP3 PUSH2 0x369F JUMP JUMPDEST PUSH1 0x0 PUSH1 0xE0 DUP3 DUP5 SUB SLT ISZERO PUSH2 0x379A JUMPI PUSH1 0x0 DUP1 REVERT JUMPDEST DUP3 PUSH1 0xE0 DUP4 ADD GT ISZERO PUSH2 0x37AA JUMPI PUSH1 0x0 DUP1 REVERT JUMPDEST POP SWAP2 SWAP1 POP JUMP JUMPDEST PUSH1 0x0 DUP2 MLOAD DUP1 DUP5 MSTORE PUSH1 0x20 DUP1 DUP6 ADD SWAP5 POP DUP1 DUP5 ADD PUSH1 0x0 JUMPDEST DUP4 DUP2 LT ISZERO PUSH2 0x37E0 JUMPI DUP2 MLOAD DUP8 MSTORE SWAP6 DUP3 ADD SWAP6 SWAP1 DUP3 ADD SWAP1 PUSH1 0x1 ADD PUSH2 0x37C4 JUMP JUMPDEST POP SWAP5 SWAP6 SWAP5 POP POP POP POP POP JUMP JUMPDEST PUSH1 0x20 DUP2 MSTORE PUSH1 0x0 PUSH2 0x33A4 PUSH1 0x20 DUP4 ADD DUP5 PUSH2 0x37B0 JUMP JUMPDEST PUSH1 0x0 DUP1 PUSH1 0x20 DUP4 DUP6 SUB SLT ISZERO PUSH2 0x3811 JUMPI PUSH1 0x0 DUP1 REVERT JUMPDEST DUP3 CALLDATALOAD PUSH8 0xFFFFFFFFFFFFFFFF DUP1 DUP3 GT ISZERO PUSH2 0x3829 JUMPI PUSH1 0x0 DUP1 REVERT JUMPDEST DUP2 DUP6 ADD SWAP2 POP DUP6 PUSH1 0x1F DUP4 ADD SLT PUSH2 0x383D JUMPI PUSH1 0x0 DUP1 REVERT JUMPDEST DUP2 CALLDATALOAD DUP2 DUP2 GT ISZERO PUSH2 0x384C JUMPI PUSH1 0x0 DUP1 REVERT JUMPDEST DUP7 PUSH1 0x20 DUP3 DUP6 ADD ADD GT ISZERO PUSH2 0x385E JUMPI PUSH1 0x0 DUP1 REVERT JUMPDEST PUSH1 0x20 SWAP3 SWAP1 SWAP3 ADD SWAP7 SWAP2 SWAP6 POP SWAP1 SWAP4 POP POP POP POP JUMP JUMPDEST PUSH4 0x4E487B71 PUSH1 0xE0 SHL PUSH1 0x0 MSTORE PUSH1 0x41 PUSH1 0x4 MSTORE PUSH1 0x24 PUSH1 0x0 REVERT JUMPDEST PUSH1 0x0 DUP1 PUSH1 0x40 DUP4 DUP6 SUB SLT ISZERO PUSH2 0x3899 JUMPI PUSH1 0x0 DUP1 REVERT JUMPDEST PUSH2 0x38A2 DUP4 PUSH2 0x369F JUMP JUMPDEST SWAP2 POP PUSH1 0x20 DUP4 ADD CALLDATALOAD PUSH8 0xFFFFFFFFFFFFFFFF DUP1 DUP3 GT ISZERO PUSH2 0x38BF JUMPI PUSH1 0x0 DUP1 REVERT JUMPDEST DUP2 DUP6 ADD SWAP2 POP DUP6 PUSH1 0x1F DUP4 ADD SLT PUSH2 0x38D3 JUMPI PUSH1 0x0 DUP1 REVERT JUMPDEST DUP2 CALLDATALOAD DUP2 DUP2 GT ISZERO PUSH2 0x38E5 JUMPI PUSH2 0x38E5 PUSH2 0x3870 JUMP JUMPDEST PUSH1 0x40 MLOAD PUSH1 0x1F DUP3 ADD PUSH1 0x1F NOT SWAP1 DUP2 AND PUSH1 0x3F ADD AND DUP2 ADD SWAP1 DUP4 DUP3 GT DUP2 DUP4 LT OR ISZERO PUSH2 0x390D JUMPI PUSH2 0x390D PUSH2 0x3870 JUMP JUMPDEST DUP2 PUSH1 0x40 MSTORE DUP3 DUP2 MSTORE DUP9 PUSH1 0x20 DUP5 DUP8 ADD ADD GT ISZERO PUSH2 0x3926 JUMPI PUSH1 0x0 DUP1 REVERT JUMPDEST DUP3 PUSH1 0x20 DUP7 ADD PUSH1 0x20 DUP4 ADD CALLDATACOPY PUSH1 0x0 PUSH1 0x20 DUP5 DUP4 ADD ADD MSTORE DUP1 SWAP6 POP POP POP POP POP POP SWAP3 POP SWAP3 SWAP1 POP JUMP JUMPDEST DUP1 PUSH1 0x0 JUMPDEST PUSH1 0x7 DUP2 LT ISZERO PUSH2 0xF9C JUMPI DUP2 MLOAD PUSH1 0xFF AND DUP5 MSTORE PUSH1 0x20 SWAP4 DUP5 ADD SWAP4 SWAP1 SWAP2 ADD SWAP1 PUSH1 0x1 ADD PUSH2 0x394C JUMP JUMPDEST PUSH1 0xE0 DUP2 ADD PUSH2 0x22BD DUP3 DUP5 PUSH2 0x3948 JUMP JUMPDEST PUSH1 0x0 JUMPDEST DUP4 DUP2 LT ISZERO PUSH2 0x3997 JUMPI DUP2 DUP2 ADD MLOAD DUP4 DUP3 ADD MSTORE PUSH1 0x20 ADD PUSH2 0x397F JUMP JUMPDEST POP POP PUSH1 0x0 SWAP2 ADD MSTORE JUMP JUMPDEST PUSH1 0x0 DUP2 MLOAD DUP1 DUP5 MSTORE PUSH2 0x39B8 DUP2 PUSH1 0x20 DUP7 ADD PUSH1 0x20 DUP7 ADD PUSH2 0x397C JUMP JUMPDEST PUSH1 0x1F ADD PUSH1 0x1F NOT AND SWAP3 SWAP1 SWAP3 ADD PUSH1 0x20 ADD SWAP3 SWAP2 POP POP JUMP JUMPDEST DUP3 ISZERO ISZERO DUP2 MSTORE PUSH1 0x40 PUSH1 0x20 DUP3 ADD MSTORE PUSH1 0x0 PUSH2 0x349C PUSH1 0x40 DUP4 ADD DUP5 PUSH2 0x39A0 JUMP JUMPDEST PUSH1 0x0 DUP1 PUSH1 0x40 DUP4 DUP6 SUB SLT ISZERO PUSH2 0x39FA JUMPI PUSH1 0x0 DUP1 REVERT JUMPDEST POP POP DUP1 CALLDATALOAD SWAP3 PUSH1 0x20 SWAP1 SWAP2 ADD CALLDATALOAD SWAP2 POP JUMP JUMPDEST PUSH1 0x0 PUSH1 0x20 DUP3 DUP5 SUB SLT ISZERO PUSH2 0x3A1B JUMPI PUSH1 0x0 DUP1 REVERT JUMPDEST DUP2 CALLDATALOAD PUSH2 0xFFFF DUP2 AND DUP2 EQ PUSH2 0x33A4 JUMPI PUSH1 0x0 DUP1 REVERT JUMPDEST PUSH1 0x1 PUSH1 0x1 PUSH1 0xA0 SHL SUB DUP7 AND DUP2 MSTORE PUSH2 0x160 DUP2 ADD PUSH2 0x3A4B PUSH1 0x20 DUP4 ADD DUP8 PUSH2 0x3948 JUMP JUMPDEST SWAP4 ISZERO ISZERO PUSH2 0x100 DUP3 ADD MSTORE PUSH1 0xFF SWAP3 SWAP1 SWAP3 AND PUSH2 0x120 DUP4 ADD MSTORE PUSH2 0x140 SWAP1 SWAP2 ADD MSTORE SWAP3 SWAP2 POP POP JUMP JUMPDEST PUSH1 0x0 PUSH1 0x20 DUP3 DUP5 SUB SLT ISZERO PUSH2 0x3A7F JUMPI PUSH1 0x0 DUP1 REVERT JUMPDEST DUP2 CALLDATALOAD PUSH4 0xFFFFFFFF DUP2 AND DUP2 EQ PUSH2 0x33A4 JUMPI PUSH1 0x0 DUP1 REVERT JUMPDEST PUSH1 0x0 PUSH1 0x20 DUP3 DUP5 SUB SLT ISZERO PUSH2 0x3AA5 JUMPI PUSH1 0x0 DUP1 REVERT JUMPDEST DUP2 CALLDATALOAD DUP1 ISZERO ISZERO DUP2 EQ PUSH2 0x33A4 JUMPI PUSH1 0x0 DUP1 REVERT JUMPDEST DUP3 ISZERO ISZERO DUP2 MSTORE PUSH1 0x40 PUSH1 0x20 DUP3 ADD MSTORE PUSH1 0x0 PUSH2 0x349C PUSH1 0x40 DUP4 ADD DUP5 PUSH2 0x37B0 JUMP JUMPDEST DUP4 DUP2 MSTORE PUSH1 0x40 PUSH1 0x20 DUP3 ADD MSTORE DUP2 PUSH1 0x40 DUP3 ADD MSTORE PUSH1 0x0 PUSH32 0x7FFFFFFFFFFFFFFFFFFFFFFFFFFFFFFFFFFFFFFFFFFFFFFFFFFFFFFFFFFFFFF DUP4 GT ISZERO PUSH2 0x3B0F JUMPI PUSH1 0x0 DUP1 REVERT JUMPDEST DUP3 PUSH1 0x5 SHL DUP1 DUP6 PUSH1 0x60 DUP6 ADD CALLDATACOPY SWAP2 SWAP1 SWAP2 ADD PUSH1 0x60 ADD SWAP5 SWAP4 POP POP POP POP JUMP JUMPDEST PUSH1 0x0 PUSH2 0x120 DUP3 ADD SWAP1 POP DUP5 DUP3 MSTORE DUP4 PUSH1 0x20 DUP4 ADD MSTORE DUP3 SLOAD PUSH1 0xFF DUP1 DUP3 AND PUSH1 0x40 DUP6 ADD MSTORE DUP1 DUP3 PUSH1 0x8 SHR AND PUSH1 0x60 DUP6 ADD MSTORE DUP1 DUP3 PUSH1 0x10 SHR AND PUSH1 0x80 DUP6 ADD MSTORE PUSH2 0x3B71 PUSH1 0xA0 DUP6 ADD DUP3 DUP5 PUSH1 0x18 SHR AND PUSH1 0xFF AND SWAP1 MSTORE JUMP JUMPDEST PUSH2 0x3B85 PUSH1 0xC0 DUP6 ADD DUP3 DUP5 PUSH1 0x20 SHR AND PUSH1 0xFF AND SWAP1 MSTORE JUMP JUMPDEST PUSH2 0x3B99 PUSH1 0xE0 DUP6 ADD DUP3 DUP5 PUSH1 0x28 SHR AND PUSH1 0xFF AND SWAP1 MSTORE JUMP JUMPDEST PUSH2 0x3BAE PUSH2 0x100 DUP6 ADD DUP3 DUP5 PUSH1 0x30 SHR AND PUSH1 0xFF AND SWAP1 MSTORE JUMP JUMPDEST POP POP SWAP5 SWAP4 POP POP POP POP JUMP JUMPDEST PUSH4 0x4E487B71 PUSH1 0xE0 SHL PUSH1 0x0 MSTORE PUSH1 0x11 PUSH1 0x4 MSTORE PUSH1 0x24 PUSH1 0x0 REVERT JUMPDEST DUP1 DUP3 ADD DUP1 DUP3 GT ISZERO PUSH2 0x22BD JUMPI PUSH2 0x22BD PUSH2 0x3BB8 JUMP JUMPDEST DUP2 DUP2 SUB DUP2 DUP2 GT ISZERO PUSH2 0x22BD JUMPI PUSH2 0x22BD PUSH2 0x3BB8 JUMP JUMPDEST DUP1 CALLDATALOAD PUSH1 0xFF DUP2 AND DUP2 EQ PUSH2 0x36B6 JUMPI PUSH1 0x0 DUP1 REVERT JUMPDEST DUP3 DUP2 MSTORE PUSH2 0x100 DUP2 ADD PUSH1 0x20 DUP1 DUP4 ADD DUP5 PUSH1 0x0 JUMPDEST PUSH1 0x7 DUP2 LT ISZERO PUSH2 0x3C3D JUMPI PUSH1 0xFF PUSH2 0x3C2A DUP4 PUSH2 0x3BF4 JUMP JUMPDEST AND DUP4 MSTORE SWAP2 DUP4 ADD SWAP2 SWAP1 DUP4 ADD SWAP1 PUSH1 0x1 ADD PUSH2 0x3C16 JUMP JUMPDEST POP POP POP POP SWAP4 SWAP3 POP POP POP JUMP JUMPDEST PUSH4 0x4E487B71 PUSH1 0xE0 SHL PUSH1 0x0 MSTORE PUSH1 0x32 PUSH1 0x4 MSTORE PUSH1 0x24 PUSH1 0x0 REVERT JUMPDEST PUSH1 0x0 PUSH1 0x1 DUP3 ADD PUSH2 0x3C70 JUMPI PUSH2 0x3C70 PUSH2 0x3BB8 JUMP JUMPDEST POP PUSH1 0x1 ADD SWAP1 JUMP JUMPDEST PUSH4 0x4E487B71 PUSH1 0xE0 SHL PUSH1 0x0 MSTORE PUSH1 0x12 PUSH1 0x4 MSTORE PUSH1 0x24 PUSH1 0x0 REVERT JUMPDEST PUSH1 0x0 DUP3 PUSH2 0x3C9C JUMPI PUSH2 0x3C9C PUSH2 0x3C77 JUMP JUMPDEST POP MOD SWAP1 JUMP JUMPDEST DUP1 DUP3 MUL DUP2 ISZERO DUP3 DUP3 DIV DUP5 EQ OR PUSH2 0x22BD JUMPI PUSH2 0x22BD PUSH2 0x3BB8 JUMP JUMPDEST PUSH1 0x0 DUP3 PUSH2 0x3CC7 JUMPI PUSH2 0x3CC7 PUSH2 0x3C77 JUMP JUMPDEST POP DIV SWAP1 JUMP JUMPDEST PUSH1 0x0 PUSH1 0xFF DUP3 AND PUSH1 0xFF DUP2 SUB PUSH2 0x3CE2 JUMPI PUSH2 0x3CE2 PUSH2 0x3BB8 JUMP JUMPDEST PUSH1 0x1 ADD SWAP3 SWAP2 POP POP JUMP JUMPDEST PUSH2 0x120 DUP2 ADD PUSH2 0x3CFA DUP3 DUP7 PUSH2 0x3948 JUMP JUMPDEST PUSH1 0xE0 DUP3 ADD SWAP4 SWAP1 SWAP4 MSTORE PUSH2 0x100 ADD MSTORE SWAP2 SWAP1 POP JUMP JUMPDEST PUSH1 0x0 PUSH1 0x20 DUP3 DUP5 SUB SLT ISZERO PUSH2 0x3D1E JUMPI PUSH1 0x0 DUP1 REVERT JUMPDEST POP MLOAD SWAP2 SWAP1 POP JUMP JUMPDEST PUSH1 0x0 PUSH1 0x20 DUP3 DUP5 SUB SLT ISZERO PUSH2 0x3D37 JUMPI PUSH1 0x0 DUP1 REVERT JUMPDEST PUSH2 0x33A4 DUP3 PUSH2 0x3BF4 JUMP JUMPDEST PUSH1 0x20 DUP2 MSTORE DUP2 MLOAD PUSH1 0x20 DUP3 ADD MSTORE PUSH1 0x20 DUP3 ADD MLOAD PUSH1 0x40 DUP3 ADD MSTORE PUSH2 0xFFFF PUSH1 0x40 DUP4 ADD MLOAD AND PUSH1 0x60 DUP3 ADD MSTORE PUSH1 0x0 PUSH1 0x60 DUP4 ADD MLOAD PUSH4 0xFFFFFFFF DUP1 DUP3 AND PUSH1 0x80 DUP6 ADD MSTORE DUP1 PUSH1 0x80 DUP7 ADD MLOAD AND PUSH1 0xA0 DUP6 ADD MSTORE POP POP PUSH1 0xA0 DUP4 ADD MLOAD PUSH1 0xC0 DUP1 DUP5 ADD MSTORE PUSH2 0x349C PUSH1 0xE0 DUP5 ADD DUP3 PUSH2 0x39A0 JUMP JUMPDEST PUSH1 0x0 DUP3 MLOAD PUSH2 0x3DAF DUP2 DUP5 PUSH1 0x20 DUP8 ADD PUSH2 0x397C JUMP JUMPDEST SWAP2 SWAP1 SWAP2 ADD SWAP3 SWAP2 POP POP JUMP JUMPDEST PUSH1 0x20 DUP2 MSTORE PUSH1 0x0 PUSH2 0x33A4 PUSH1 0x20 DUP4 ADD DUP5 PUSH2 0x39A0 JUMP INVALID COINBASE PUSH5 0x6472657373 GASPRICE KECCAK256 PUSH13 0x6F772D6C6576656C2064656C65 PUSH8 0x6174652063616C6C KECCAK256 PUSH7 0x61696C6564A264 PUSH10 0x70667358221220727328 PREVRANDAO SWAP15 PUSH23 0xE841A6FC883062DAEA4F3AC73E6A73813A62438EE34CEA 0xD7 PUSH12 0x9C64736F6C63430008140033 "},"methodIdentifiers":{"BPS_DENOMINATOR()":"e1a45218","OWNER_FEE_BPS()":"25c5d34a","automationNativePayment()":"b368ba42","buyTicket(uint8[7])":"39e7397b","callbackGasLimit()":"24f74697","checkUpkeep(bytes)":"6e04ff0d","currentRoundId()":"9cbe5efd","entryFee()":"072ea61c","getLastRandomWords()":"3c256b24","getRequestStatus(uint256)":"d8a4676f","getRoundTicketCount(uint256)":"c4289070","getRoundWinningNumbers(uint256)":"64069e71","getTicket(uint256,uint256)":"a426e4c8","getWinningNumbers()":"84350e1d","initialize(address,uint256,bytes32)":"1b7ce041","keyHash()":"61728f39","lastRandomWords(uint256)":"900fc869","lastRequestId()":"fc2a88c3","numWords()":"7ccfd7fc","owner()":"8da5cb5b","ownerFeesAccrued()":"b28f6ef1","pendingRewards(address)":"31d7a262","performUpkeep(bytes)":"4585e33b","proxiableUUID()":"52d1902d","rawFulfillRandomWords(uint256,uint256[])":"1fe543e3","renounceOwnership()":"715018a6","requestConfirmations()":"b0fb162f","requestToRoundId(uint256)":"d88d27d6","requests(uint256)":"81d12c58","rolloverPool()":"3c51c7bb","roundDuration()":"f7cb789a","roundWinningNumbers(uint256,uint256)":"82fbc5c2","rounds(uint256)":"8c65c81f","s_vrfCoordinator()":"9eccacf6","setAutomationNativePayment(bool)":"c88e1561","setCallbackGasLimit(uint32)":"a4eb718c","setKeyHash(bytes32)":"98544710","setNumWords(uint32)":"f30c07d3","setRequestConfirmations(uint16)":"8824f5a7","setRoundDuration(uint256)":"36c92c3f","setSubscriptionId(uint256)":"c1e0d236","setTicketPrice(uint256)":"15981650","subscriptionId()":"09c1ba2e","transferOwnership(address)":"f2fde38b","updateCoordinator(address)":"f9f94e34","upgradeTo(address)":"3659cfe6","upgradeToAndCall(address,bytes)":"4f1ef286","winningNumbers(uint256)":"4e45f095","withdrawOwnerFees()":"0a9ef34c","withdrawReward()":"c885bc58"}},"storageLayout":{"storage":[{"astId":722,"contract":"contracts/Lottery1.sol:Lottery1","label":"_initialized","offset":0,"slot":"0","type":"t_uint8"},{"astId":725,"contract":"contracts/Lottery1.sol:Lottery1","label":"_initializing","offset":1,"slot":"0","type":"t_bool"},{"astId":1401,"contract":"contracts/Lottery1.sol:Lottery1","label":"__gap","offset":0,"slot":"1","type":"t_array(t_uint256)50_storage"},{"astId":228,"contract":"contracts/Lottery1.sol:Lottery1","label":"_owner","offset":0,"slot":"51","type":"t_address"},{"astId":348,"contract":"contracts/Lottery1.sol:Lottery1","label":"__gap","offset":0,"slot":"52","type":"t_array(t_uint256)49_storage"},{"astId":704,"contract":"contracts/Lottery1.sol:Lottery1","label":"__gap","offset":0,"slot":"101","type":"t_array(t_uint256)50_storage"},{"astId":1020,"contract":"contracts/Lottery1.sol:Lottery1","label":"__gap","offset":0,"slot":"151","type":"t_array(t_uint256)50_storage"},{"astId":1537,"contract":"contracts/Lottery1.sol:Lottery1","label":"s_vrfCoordinator","offset":0,"slot":"201","type":"t_contract(IVRFCoordinatorV2Plus)85"},{"astId":1539,"contract":"contracts/Lottery1.sol:Lottery1","label":"subscriptionId","offset":0,"slot":"202","type":"t_uint256"},{"astId":1541,"contract":"contracts/Lottery1.sol:Lottery1","label":"keyHash","offset":0,"slot":"203","type":"t_bytes32"},{"astId":1543,"contract":"contracts/Lottery1.sol:Lottery1","label":"callbackGasLimit","offset":0,"slot":"204","type":"t_uint32"},{"astId":1545,"contract":"contracts/Lottery1.sol:Lottery1","label":"requestConfirmations","offset":4,"slot":"204","type":"t_uint16"},{"astId":1547,"contract":"contracts/Lottery1.sol:Lottery1","label":"numWords","offset":6,"slot":"204","type":"t_uint32"},{"astId":1549,"contract":"contracts/Lottery1.sol:Lottery1","label":"lastRequestId","offset":0,"slot":"205","type":"t_uint256"},{"astId":1552,"contract":"contracts/Lottery1.sol:Lottery1","label":"lastRandomWords","offset":0,"slot":"206","type":"t_array(t_uint256)dyn_storage"},{"astId":1556,"contract":"contracts/Lottery1.sol:Lottery1","label":"winningNumbers","offset":0,"slot":"207","type":"t_array(t_uint8)7_storage"},{"astId":1558,"contract":"contracts/Lottery1.sol:Lottery1","label":"entryFee","offset":0,"slot":"208","type":"t_uint256"},{"astId":1560,"contract":"contracts/Lottery1.sol:Lottery1","label":"roundDuration","offset":0,"slot":"209","type":"t_uint256"},{"astId":1562,"contract":"contracts/Lottery1.sol:Lottery1","label":"automationNativePayment","offset":0,"slot":"210","type":"t_bool"},{"astId":1607,"contract":"contracts/Lottery1.sol:Lottery1","label":"requests","offset":0,"slot":"211","type":"t_mapping(t_uint256,t_struct(RequestStatus)1576_storage)"},{"astId":1611,"contract":"contracts/Lottery1.sol:Lottery1","label":"requestToRoundId","offset":0,"slot":"212","type":"t_mapping(t_uint256,t_uint256)"},{"astId":1616,"contract":"contracts/Lottery1.sol:Lottery1","label":"rounds","offset":0,"slot":"213","type":"t_mapping(t_uint256,t_struct(RoundInfo)1602_storage)"},{"astId":1622,"contract":"contracts/Lottery1.sol:Lottery1","label":"roundTickets","offset":0,"slot":"214","type":"t_mapping(t_uint256,t_array(t_struct(Ticket)1589_storage)dyn_storage)"},{"astId":1628,"contract":"contracts/Lottery1.sol:Lottery1","label":"roundWinningNumbers","offset":0,"slot":"215","type":"t_mapping(t_uint256,t_array(t_uint8)7_storage)"},{"astId":1632,"contract":"contracts/Lottery1.sol:Lottery1","label":"pendingRewards","offset":0,"slot":"216","type":"t_mapping(t_address,t_uint256)"},{"astId":1634,"contract":"contracts/Lottery1.sol:Lottery1","label":"ownerFeesAccrued","offset":0,"slot":"217","type":"t_uint256"},{"astId":1636,"contract":"contracts/Lottery1.sol:Lottery1","label":"rolloverPool","offset":0,"slot":"218","type":"t_uint256"},{"astId":1638,"contract":"contracts/Lottery1.sol:Lottery1","label":"currentRoundId","offset":0,"slot":"219","type":"t_uint256"},{"astId":1735,"contract":"contracts/Lottery1.sol:Lottery1","label":"__gap","offset":0,"slot":"220","type":"t_array(t_uint256)37_storage"}],"types":{"t_address":{"encoding":"inplace","label":"address","numberOfBytes":"20"},"t_array(t_struct(Ticket)1589_storage)dyn_storage":{"base":"t_struct(Ticket)1589_storage","encoding":"dynamic_array","label":"struct Lottery1.Ticket[]","numberOfBytes":"32"},"t_array(t_uint256)37_storage":{"base":"t_uint256","encoding":"inplace","label":"uint256[37]","numberOfBytes":"1184"},"t_array(t_uint256)49_storage":{"base":"t_uint256","encoding":"inplace","label":"uint256[49]","numberOfBytes":"1568"},"t_array(t_uint256)50_storage":{"base":"t_uint256","encoding":"inplace","label":"uint256[50]","numberOfBytes":"1600"},"t_array(t_uint256)dyn_storage":{"base":"t_uint256","encoding":"dynamic_array","label":"uint256[]","numberOfBytes":"32"},"t_array(t_uint8)7_storage":{"base":"t_uint8","encoding":"inplace","label":"uint8[7]","numberOfBytes":"32"},"t_bool":{"encoding":"inplace","label":"bool","numberOfBytes":"1"},"t_bytes32":{"encoding":"inplace","label":"bytes32","numberOfBytes":"32"},"t_contract(IVRFCoordinatorV2Plus)85":{"encoding":"inplace","label":"contract IVRFCoordinatorV2Plus","numberOfBytes":"20"},"t_mapping(t_address,t_uint256)":{"encoding":"mapping","key":"t_address","label":"mapping(address => uint256)","numberOfBytes":"32","value":"t_uint256"},"t_mapping(t_uint256,t_array(t_struct(Ticket)1589_storage)dyn_storage)":{"encoding":"mapping","key":"t_uint256","label":"mapping(uint256 => struct Lottery1.Ticket[])","numberOfBytes":"32","value":"t_array(t_struct(Ticket)1589_storage)dyn_storage"},"t_mapping(t_uint256,t_array(t_uint8)7_storage)":{"encoding":"mapping","key":"t_uint256","label":"mapping(uint256 => uint8[7])","numberOfBytes":"32","value":"t_array(t_uint8)7_storage"},"t_mapping(t_uint256,t_struct(RequestStatus)1576_storage)":{"encoding":"mapping","key":"t_uint256","label":"mapping(uint256 => struct Lottery1.RequestStatus)","numberOfBytes":"32","value":"t_struct(RequestStatus)1576_storage"},"t_mapping(t_uint256,t_struct(RoundInfo)1602_storage)":{"encoding":"mapping","key":"t_uint256","label":"mapping(uint256 => struct Lottery1.RoundInfo)","numberOfBytes":"32","value":"t_struct(RoundInfo)1602_storage"},"t_mapping(t_uint256,t_uint256)":{"encoding":"mapping","key":"t_uint256","label":"mapping(uint256 => uint256)","numberOfBytes":"32","value":"t_uint256"},"t_struct(RequestStatus)1576_storage":{"encoding":"inplace","label":"struct Lottery1.RequestStatus","members":[{"astId":1570,"contract":"contracts/Lottery1.sol:Lottery1","label":"exists","offset":0,"slot":"0","type":"t_bool"},{"astId":1572,"contract":"contracts/Lottery1.sol:Lottery1","label":"fulfilled","offset":1,"slot":"0","type":"t_bool"},{"astId":1575,"contract":"contracts/Lottery1.sol:Lottery1","label":"randomWords","offset":0,"slot":"1","type":"t_array(t_uint256)dyn_storage"}],"numberOfBytes":"64"},"t_struct(RoundInfo)1602_storage":{"encoding":"inplace","label":"struct Lottery1.RoundInfo","members":[{"astId":1591,"contract":"contracts/Lottery1.sol:Lottery1","label":"active","offset":0,"slot":"0","type":"t_bool"},{"astId":1593,"contract":"contracts/Lottery1.sol:Lottery1","label":"drawRequested","offset":1,"slot":"0","type":"t_bool"},{"astId":1595,"contract":"contracts/Lottery1.sol:Lottery1","label":"drawn","offset":2,"slot":"0","type":"t_bool"},{"astId":1597,"contract":"contracts/Lottery1.sol:Lottery1","label":"startTime","offset":0,"slot":"1","type":"t_uint256"},{"astId":1599,"contract":"contracts/Lottery1.sol:Lottery1","label":"endTime","offset":0,"slot":"2","type":"t_uint256"},{"astId":1601,"contract":"contracts/Lottery1.sol:Lottery1","label":"pot","offset":0,"slot":"3","type":"t_uint256"}],"numberOfBytes":"128"},"t_struct(Ticket)1589_storage":{"encoding":"inplace","label":"struct Lottery1.Ticket","members":[{"astId":1578,"contract":"contracts/Lottery1.sol:Lottery1","label":"player","offset":0,"slot":"0","type":"t_address"},{"astId":1582,"contract":"contracts/Lottery1.sol:Lottery1","label":"numbers","offset":0,"slot":"1","type":"t_array(t_uint8)7_storage"},{"astId":1584,"contract":"contracts/Lottery1.sol:Lottery1","label":"claimed","offset":0,"slot":"2","type":"t_bool"},{"astId":1586,"contract":"contracts/Lottery1.sol:Lottery1","label":"matchedCount","offset":1,"slot":"2","type":"t_uint8"},{"astId":1588,"contract":"contracts/Lottery1.sol:Lottery1","label":"reward","offset":0,"slot":"3","type":"t_uint256"}],"numberOfBytes":"128"},"t_uint16":{"encoding":"inplace","label":"uint16","numberOfBytes":"2"},"t_uint256":{"encoding":"inplace","label":"uint256","numberOfBytes":"32"},"t_uint32":{"encoding":"inplace","label":"uint32","numberOfBytes":"4"},"t_uint8":{"encoding":"inplace","label":"uint8","numberOfBytes":"1"}}}}}}