{
  "_format": "hh-sol-artifact-1",
  "contractName": "Lottery1",
  "sourceName": "contracts/Lottery1.sol",
  "abi": [
    {
      "inputs": [],
      "stateMutability": "nonpayable",
      "type": "constructor"
    },
    {
      "anonymous": false,
      "inputs": [
        {
          "indexed": false,
          "internalType": "address",
          "name": "previousAdmin",
          "type": "address"
        },
        {
          "indexed": false,
          "internalType": "address",
          "name": "newAdmin",
          "type": "address"
        }
      ],
      "name": "AdminChanged",
      "type": "event"
    },
    {
      "anonymous": false,
      "inputs": [
        {
          "indexed": true,
          "internalType": "address",
          "name": "beacon",
          "type": "address"
        }
      ],
      "name": "BeaconUpgraded",
      "type": "event"
    },
    {
      "anonymous": false,
      "inputs": [
        {
          "indexed": false,
          "internalType": "uint8",
          "name": "version",
          "type": "uint8"
        }
      ],
      "name": "Initialized",
      "type": "event"
    },
    {
      "anonymous": false,
      "inputs": [
        {
          "indexed": true,
          "internalType": "address",
          "name": "owner",
          "type": "address"
        },
        {
          "indexed": false,
          "internalType": "uint256",
          "name": "amount",
          "type": "uint256"
        }
      ],
      "name": "OwnerFeesWithdrawn",
      "type": "event"
    },
    {
      "anonymous": false,
      "inputs": [
        {
          "indexed": true,
          "internalType": "address",
          "name": "previousOwner",
          "type": "address"
        },
        {
          "indexed": true,
          "internalType": "address",
          "name": "newOwner",
          "type": "address"
        }
      ],
      "name": "OwnershipTransferred",
      "type": "event"
    },
    {
      "anonymous": false,
      "inputs": [
        {
          "indexed": false,
          "internalType": "uint256",
          "name": "requestId",
          "type": "uint256"
        },
        {
          "indexed": false,
          "internalType": "uint256[]",
          "name": "randomWords",
          "type": "uint256[]"
        }
      ],
      "name": "RequestFulfilled",
      "type": "event"
    },
    {
      "anonymous": false,
      "inputs": [
        {
          "indexed": false,
          "internalType": "uint256",
          "name": "requestId",
          "type": "uint256"
        },
        {
          "indexed": false,
          "internalType": "uint32",
          "name": "numWords",
          "type": "uint32"
        }
      ],
      "name": "RequestSent",
      "type": "event"
    },
    {
      "anonymous": false,
      "inputs": [
        {
          "indexed": true,
          "internalType": "uint256",
          "name": "roundId",
          "type": "uint256"
        },
        {
          "indexed": true,
          "internalType": "address",
          "name": "player",
          "type": "address"
        },
        {
          "indexed": false,
          "internalType": "uint256",
          "name": "ticketIndex",
          "type": "uint256"
        },
        {
          "indexed": false,
          "internalType": "uint8",
          "name": "matches",
          "type": "uint8"
        },
        {
          "indexed": false,
          "internalType": "uint256",
          "name": "reward",
          "type": "uint256"
        }
      ],
      "name": "RewardAssigned",
      "type": "event"
    },
    {
      "anonymous": false,
      "inputs": [
        {
          "indexed": true,
          "internalType": "address",
          "name": "player",
          "type": "address"
        },
        {
          "indexed": false,
          "internalType": "uint256",
          "name": "amount",
          "type": "uint256"
        }
      ],
      "name": "RewardWithdrawn",
      "type": "event"
    },
    {
      "anonymous": false,
      "inputs": [
        {
          "indexed": true,
          "internalType": "uint256",
          "name": "roundId",
          "type": "uint256"
        },
        {
          "indexed": false,
          "internalType": "uint256",
          "name": "requestId",
          "type": "uint256"
        }
      ],
      "name": "RoundClosed",
      "type": "event"
    },
    {
      "anonymous": false,
      "inputs": [
        {
          "indexed": true,
          "internalType": "uint256",
          "name": "roundId",
          "type": "uint256"
        },
        {
          "indexed": false,
          "internalType": "uint8[7]",
          "name": "winningNumbers",
          "type": "uint8[7]"
        },
        {
          "indexed": false,
          "internalType": "uint256",
          "name": "ownerFee",
          "type": "uint256"
        },
        {
          "indexed": false,
          "internalType": "uint256",
          "name": "rolloverAdded",
          "type": "uint256"
        }
      ],
      "name": "RoundSettled",
      "type": "event"
    },
    {
      "anonymous": false,
      "inputs": [
        {
          "indexed": true,
          "internalType": "uint256",
          "name": "roundId",
          "type": "uint256"
        },
        {
          "indexed": false,
          "internalType": "uint256",
          "name": "rolloverAmount",
          "type": "uint256"
        }
      ],
      "name": "RoundSkipped",
      "type": "event"
    },
    {
      "anonymous": false,
      "inputs": [
        {
          "indexed": true,
          "internalType": "uint256",
          "name": "roundId",
          "type": "uint256"
        },
        {
          "indexed": false,
          "internalType": "uint256",
          "name": "startTime",
          "type": "uint256"
        },
        {
          "indexed": false,
          "internalType": "uint256",
          "name": "endTime",
          "type": "uint256"
        },
        {
          "indexed": false,
          "internalType": "uint256",
          "name": "seededPot",
          "type": "uint256"
        }
      ],
      "name": "RoundStarted",
      "type": "event"
    },
    {
      "anonymous": false,
      "inputs": [
        {
          "indexed": true,
          "internalType": "uint256",
          "name": "roundId",
          "type": "uint256"
        },
        {
          "indexed": true,
          "internalType": "address",
          "name": "player",
          "type": "address"
        },
        {
          "indexed": false,
          "internalType": "uint256",
          "name": "ticketIndex",
          "type": "uint256"
        },
        {
          "indexed": false,
          "internalType": "uint8[7]",
          "name": "numbers",
          "type": "uint8[7]"
        }
      ],
      "name": "TicketBought",
      "type": "event"
    },
    {
      "anonymous": false,
      "inputs": [
        {
          "indexed": true,
          "internalType": "address",
          "name": "implementation",
          "type": "address"
        }
      ],
      "name": "Upgraded",
      "type": "event"
    },
    {
      "anonymous": false,
      "inputs": [
        {
          "indexed": false,
          "internalType": "uint256",
          "name": "requestId",
          "type": "uint256"
        },
        {
          "indexed": false,
          "internalType": "uint256",
          "name": "roundId",
          "type": "uint256"
        },
        {
          "indexed": false,
          "internalType": "uint8[7]",
          "name": "winningNumbers",
          "type": "uint8[7]"
        }
      ],
      "name": "WinningNumbersGenerated",
      "type": "event"
    },
    {
      "inputs": [],
      "name": "BPS_DENOMINATOR",
      "outputs": [
        {
          "internalType": "uint256",
          "name": "",
          "type": "uint256"
        }
      ],
      "stateMutability": "view",
      "type": "function"
    },
    {
      "inputs": [],
      "name": "OWNER_FEE_BPS",
      "outputs": [
        {
          "internalType": "uint256",
          "name": "",
          "type": "uint256"
        }
      ],
      "stateMutability": "view",
      "type": "function"
    },
    {
      "inputs": [],
      "name": "automationNativePayment",
      "outputs": [
        {
          "internalType": "bool",
          "name": "",
          "type": "bool"
        }
      ],
      "stateMutability": "view",
      "type": "function"
    },
    {
      "inputs": [
        {
          "internalType": "uint8[7]",
          "name": "numbers",
          "type": "uint8[7]"
        }
      ],
      "name": "buyTicket",
      "outputs": [],
      "stateMutability": "payable",
      "type": "function"
    },
    {
      "inputs": [],
      "name": "callbackGasLimit",
      "outputs": [
        {
          "internalType": "uint32",
          "name": "",
          "type": "uint32"
        }
      ],
      "stateMutability": "view",
      "type": "function"
    },
    {
      "inputs": [
        {
          "internalType": "bytes",
          "name": "",
          "type": "bytes"
        }
      ],
      "name": "checkUpkeep",
      "outputs": [
        {
          "internalType": "bool",
          "name": "upkeepNeeded",
          "type": "bool"
        },
        {
          "internalType": "bytes",
          "name": "performData",
          "type": "bytes"
        }
      ],
      "stateMutability": "view",
      "type": "function"
    },
    {
      "inputs": [],
      "name": "currentRoundId",
      "outputs": [
        {
          "internalType": "uint256",
          "name": "",
          "type": "uint256"
        }
      ],
      "stateMutability": "view",
      "type": "function"
    },
    {
      "inputs": [],
      "name": "entryFee",
      "outputs": [
        {
          "internalType": "uint256",
          "name": "",
          "type": "uint256"
        }
      ],
      "stateMutability": "view",
      "type": "function"
    },
    {
      "inputs": [],
      "name": "getLastRandomWords",
      "outputs": [
        {
          "internalType": "uint256[]",
          "name": "",
          "type": "uint256[]"
        }
      ],
      "stateMutability": "view",
      "type": "function"
    },
    {
      "inputs": [
        {
          "internalType": "uint256",
          "name": "requestId",
          "type": "uint256"
        }
      ],
      "name": "getRequestStatus",
      "outputs": [
        {
          "internalType": "bool",
          "name": "fulfilled",
          "type": "bool"
        },
        {
          "internalType": "uint256[]",
          "name": "randomWords",
          "type": "uint256[]"
        }
      ],
      "stateMutability": "view",
      "type": "function"
    },
    {
      "inputs": [
        {
          "internalType": "uint256",
          "name": "roundId",
          "type": "uint256"
        }
      ],
      "name": "getRoundTicketCount",
      "outputs": [
        {
          "internalType": "uint256",
          "name": "",
          "type": "uint256"
        }
      ],
      "stateMutability": "view",
      "type": "function"
    },
    {
      "inputs": [
        {
          "internalType": "uint256",
          "name": "roundId",
          "type": "uint256"
        }
      ],
      "name": "getRoundWinningNumbers",
      "outputs": [
        {
          "internalType": "uint8[7]",
          "name": "",
          "type": "uint8[7]"
        }
      ],
      "stateMutability": "view",
      "type": "function"
    },
    {
      "inputs": [
        {
          "internalType": "uint256",
          "name": "roundId",
          "type": "uint256"
        },
        {
          "internalType": "uint256",
          "name": "ticketIndex",
          "type": "uint256"
        }
      ],
      "name": "getTicket",
      "outputs": [
        {
          "internalType": "address",
          "name": "player",
          "type": "address"
        },
        {
          "internalType": "uint8[7]",
          "name": "numbers",
          "type": "uint8[7]"
        },
        {
          "internalType": "bool",
          "name": "claimed",
          "type": "bool"
        },
        {
          "internalType": "uint8",
          "name": "matchedCount",
          "type": "uint8"
        },
        {
          "internalType": "uint256",
          "name": "reward",
          "type": "uint256"
        }
      ],
      "stateMutability": "view",
      "type": "function"
    },
    {
      "inputs": [],
      "name": "getWinningNumbers",
      "outputs": [
        {
          "internalType": "uint8[7]",
          "name": "",
          "type": "uint8[7]"
        }
      ],
      "stateMutability": "view",
      "type": "function"
    },
    {
      "inputs": [
        {
          "internalType": "uint256",
          "name": "",
          "type": "uint256"
        },
        {
          "internalType": "address",
          "name": "",
          "type": "address"
        }
      ],
      "name": "hasEntered",
      "outputs": [
        {
          "internalType": "bool",
          "name": "",
          "type": "bool"
        }
      ],
      "stateMutability": "view",
      "type": "function"
    },
    {
      "inputs": [],
      "name": "initialize2",
      "outputs": [],
      "stateMutability": "nonpayable",
      "type": "function"
    },
    {
      "inputs": [],
      "name": "keyHash",
      "outputs": [
        {
          "internalType": "bytes32",
          "name": "",
          "type": "bytes32"
        }
      ],
      "stateMutability": "view",
      "type": "function"
    },
    {
      "inputs": [
        {
          "internalType": "uint256",
          "name": "",
          "type": "uint256"
        }
      ],
      "name": "lastRandomWords",
      "outputs": [
        {
          "internalType": "uint256",
          "name": "",
          "type": "uint256"
        }
      ],
      "stateMutability": "view",
      "type": "function"
    },
    {
      "inputs": [],
      "name": "lastRequestId",
      "outputs": [
        {
          "internalType": "uint256",
          "name": "",
          "type": "uint256"
        }
      ],
      "stateMutability": "view",
      "type": "function"
    },
    {
      "inputs": [],
      "name": "numWords",
      "outputs": [
        {
          "internalType": "uint32",
          "name": "",
          "type": "uint32"
        }
      ],
      "stateMutability": "view",
      "type": "function"
    },
    {
      "inputs": [],
      "name": "owner",
      "outputs": [
        {
          "internalType": "address",
          "name": "",
          "type": "address"
        }
      ],
      "stateMutability": "view",
      "type": "function"
    },
    {
      "inputs": [],
      "name": "ownerFeesAccrued",
      "outputs": [
        {
          "internalType": "uint256",
          "name": "",
          "type": "uint256"
        }
      ],
      "stateMutability": "view",
      "type": "function"
    },
    {
      "inputs": [
        {
          "internalType": "address",
          "name": "",
          "type": "address"
        }
      ],
      "name": "pendingRewards",
      "outputs": [
        {
          "internalType": "uint256",
          "name": "",
          "type": "uint256"
        }
      ],
      "stateMutability": "view",
      "type": "function"
    },
    {
      "inputs": [
        {
          "internalType": "bytes",
          "name": "performData",
          "type": "bytes"
        }
      ],
      "name": "performUpkeep",
      "outputs": [],
      "stateMutability": "nonpayable",
      "type": "function"
    },
    {
      "inputs": [],
      "name": "proxiableUUID",
      "outputs": [
        {
          "internalType": "bytes32",
          "name": "",
          "type": "bytes32"
        }
      ],
      "stateMutability": "view",
      "type": "function"
    },
    {
      "inputs": [
        {
          "internalType": "uint256",
          "name": "requestId",
          "type": "uint256"
        },
        {
          "internalType": "uint256[]",
          "name": "randomWords",
          "type": "uint256[]"
        }
      ],
      "name": "rawFulfillRandomWords",
      "outputs": [],
      "stateMutability": "nonpayable",
      "type": "function"
    },
    {
      "inputs": [],
      "name": "renounceOwnership",
      "outputs": [],
      "stateMutability": "nonpayable",
      "type": "function"
    },
    {
      "inputs": [],
      "name": "requestConfirmations",
      "outputs": [
        {
          "internalType": "uint16",
          "name": "",
          "type": "uint16"
        }
      ],
      "stateMutability": "view",
      "type": "function"
    },
    {
      "inputs": [
        {
          "internalType": "uint256",
          "name": "",
          "type": "uint256"
        }
      ],
      "name": "requestToRoundId",
      "outputs": [
        {
          "internalType": "uint256",
          "name": "",
          "type": "uint256"
        }
      ],
      "stateMutability": "view",
      "type": "function"
    },
    {
      "inputs": [
        {
          "internalType": "uint256",
          "name": "",
          "type": "uint256"
        }
      ],
      "name": "requests",
      "outputs": [
        {
          "internalType": "bool",
          "name": "exists",
          "type": "bool"
        },
        {
          "internalType": "bool",
          "name": "fulfilled",
          "type": "bool"
        }
      ],
      "stateMutability": "view",
      "type": "function"
    },
    {
      "inputs": [],
      "name": "rolloverPool",
      "outputs": [
        {
          "internalType": "uint256",
          "name": "",
          "type": "uint256"
        }
      ],
      "stateMutability": "view",
      "type": "function"
    },
    {
      "inputs": [],
      "name": "roundDuration",
      "outputs": [
        {
          "internalType": "uint256",
          "name": "",
          "type": "uint256"
        }
      ],
      "stateMutability": "view",
      "type": "function"
    },
    {
      "inputs": [
        {
          "internalType": "uint256",
          "name": "",
          "type": "uint256"
        },
        {
          "internalType": "uint256",
          "name": "",
          "type": "uint256"
        }
      ],
      "name": "roundWinningNumbers",
      "outputs": [
        {
          "internalType": "uint8",
          "name": "",
          "type": "uint8"
        }
      ],
      "stateMutability": "view",
      "type": "function"
    },
    {
      "inputs": [
        {
          "internalType": "uint256",
          "name": "",
          "type": "uint256"
        }
      ],
      "name": "rounds",
      "outputs": [
        {
          "internalType": "bool",
          "name": "active",
          "type": "bool"
        },
        {
          "internalType": "bool",
          "name": "drawRequested",
          "type": "bool"
        },
        {
          "internalType": "bool",
          "name": "drawn",
          "type": "bool"
        },
        {
          "internalType": "uint256",
          "name": "startTime",
          "type": "uint256"
        },
        {
          "internalType": "uint256",
          "name": "endTime",
          "type": "uint256"
        },
        {
          "internalType": "uint256",
          "name": "pot",
          "type": "uint256"
        }
      ],
      "stateMutability": "view",
      "type": "function"
    },
    {
      "inputs": [],
      "name": "s_vrfCoordinator",
      "outputs": [
        {
          "internalType": "contract IVRFCoordinatorV2Plus",
          "name": "",
          "type": "address"
        }
      ],
      "stateMutability": "view",
      "type": "function"
    },
    {
      "inputs": [
        {
          "internalType": "bool",
          "name": "enabled",
          "type": "bool"
        }
      ],
      "name": "setAutomationNativePayment",
      "outputs": [],
      "stateMutability": "nonpayable",
      "type": "function"
    },
    {
      "inputs": [
        {
          "internalType": "uint32",
          "name": "_callbackGasLimit",
          "type": "uint32"
        }
      ],
      "name": "setCallbackGasLimit",
      "outputs": [],
      "stateMutability": "nonpayable",
      "type": "function"
    },
    {
      "inputs": [
        {
          "internalType": "bytes32",
          "name": "_keyHash",
          "type": "bytes32"
        }
      ],
      "name": "setKeyHash",
      "outputs": [],
      "stateMutability": "nonpayable",
      "type": "function"
    },
    {
      "inputs": [
        {
          "internalType": "uint32",
          "name": "_numWords",
          "type": "uint32"
        }
      ],
      "name": "setNumWords",
      "outputs": [],
      "stateMutability": "nonpayable",
      "type": "function"
    },
    {
      "inputs": [
        {
          "internalType": "uint16",
          "name": "_requestConfirmations",
          "type": "uint16"
        }
      ],
      "name": "setRequestConfirmations",
      "outputs": [],
      "stateMutability": "nonpayable",
      "type": "function"
    },
    {
      "inputs": [
        {
          "internalType": "uint256",
          "name": "time",
          "type": "uint256"
        }
      ],
      "name": "setRoundDuration",
      "outputs": [],
      "stateMutability": "nonpayable",
      "type": "function"
    },
    {
      "inputs": [
        {
          "internalType": "uint256",
          "name": "_subscriptionId",
          "type": "uint256"
        }
      ],
      "name": "setSubscriptionId",
      "outputs": [],
      "stateMutability": "nonpayable",
      "type": "function"
    },
    {
      "inputs": [
        {
          "internalType": "uint256",
          "name": "price",
          "type": "uint256"
        }
      ],
      "name": "setTicketPrice",
      "outputs": [],
      "stateMutability": "nonpayable",
      "type": "function"
    },
    {
      "inputs": [],
      "name": "startRound",
      "outputs": [],
      "stateMutability": "nonpayable",
      "type": "function"
    },
    {
      "inputs": [],
      "name": "subscriptionId",
      "outputs": [
        {
          "internalType": "uint256",
          "name": "",
          "type": "uint256"
        }
      ],
      "stateMutability": "view",
      "type": "function"
    },
    {
      "inputs": [
        {
          "internalType": "address",
          "name": "newOwner",
          "type": "address"
        }
      ],
      "name": "transferOwnership",
      "outputs": [],
      "stateMutability": "nonpayable",
      "type": "function"
    },
    {
      "inputs": [
        {
          "internalType": "address",
          "name": "newCoordinator",
          "type": "address"
        }
      ],
      "name": "updateCoordinator",
      "outputs": [],
      "stateMutability": "nonpayable",
      "type": "function"
    },
    {
      "inputs": [
        {
          "internalType": "address",
          "name": "newImplementation",
          "type": "address"
        }
      ],
      "name": "upgradeTo",
      "outputs": [],
      "stateMutability": "nonpayable",
      "type": "function"
    },
    {
      "inputs": [
        {
          "internalType": "address",
          "name": "newImplementation",
          "type": "address"
        },
        {
          "internalType": "bytes",
          "name": "data",
          "type": "bytes"
        }
      ],
      "name": "upgradeToAndCall",
      "outputs": [],
      "stateMutability": "payable",
      "type": "function"
    },
    {
      "inputs": [
        {
          "internalType": "uint256",
          "name": "",
          "type": "uint256"
        }
      ],
      "name": "winningNumbers",
      "outputs": [
        {
          "internalType": "uint8",
          "name": "",
          "type": "uint8"
        }
      ],
      "stateMutability": "view",
      "type": "function"
    },
    {
      "inputs": [],
      "name": "withdrawOwnerFees",
      "outputs": [],
      "stateMutability": "nonpayable",
      "type": "function"
    },
    {
      "inputs": [],
      "name": "withdrawReward",
      "outputs": [],
      "stateMutability": "nonpayable",
      "type": "function"
    },
    {
      "stateMutability": "payable",
      "type": "receive"
    }
  ],
  "bytecode": "0x60a0604052306080523480156200001557600080fd5b506200002062000026565b620000e7565b600054610100900460ff1615620000935760405162461bcd60e51b815260206004820152602760248201527f496e697469616c697a61626c653a20636f6e747261637420697320696e697469604482015266616c697a696e6760c81b606482015260840160405180910390fd5b60005460ff90811614620000e5576000805460ff191660ff9081179091556040519081527f7f26b83ff96e1f2b6a682f133852f6798a09c465da95921460cefb38474024989060200160405180910390a15b565b608051613e2c6200011f60003960008181610ea501528181610f2a015281816116ed01528181611772015261185c0152613e2c6000f3fe6080604052600436106103435760003560e01c806382fbc5c2116101b0578063b368ba42116100ec578063d8a4676f11610095578063f30c07d31161006f578063f30c07d314610a24578063f7cb789a14610a44578063f9f94e3414610a5a578063fc2a88c314610a7a57600080fd5b8063d8a4676f146109c0578063e1a45218146109ee578063f2fde38b14610a0457600080fd5b8063c885bc58116100c6578063c885bc581461095e578063c88e156114610973578063d88d27d61461099357600080fd5b8063b368ba42146108f7578063c1e0d23614610911578063c42890701461093157600080fd5b80639854471011610159578063a426e4c811610133578063a426e4c81461085a578063a4eb718c1461088b578063b0fb162f146108ab578063b28f6ef1146108e157600080fd5b806398544710146108045780639cbe5efd146108245780639eccacf61461083a57600080fd5b80638c65c81f1161018a5780638c65c81f146107265780638da5cb5b146107b2578063900fc869146107e457600080fd5b806382fbc5c2146106d157806384350e1d146106f15780638824f5a71461070657600080fd5b80633c51c7bb1161027f57806355e3f086116102285780636e04ff0d116102025780636e04ff0d14610617578063715018a6146106455780637ccfd7fc1461065a57806381d12c581461068157600080fd5b806355e3f086146105bf57806361728f39146105d457806364069e71146105ea57600080fd5b80634e45f095116102595780634e45f095146105655780634f1ef2861461059757806352d1902d146105aa57600080fd5b80633c51c7bb1461051a5780634585e33b14610530578063472abf681461055057600080fd5b806324f74697116102ec5780633659cfe6116102c65780633659cfe6146104a557806336c92c3f146104c557806339e7397b146104e55780633c256b24146104f857600080fd5b806324f746971461043057806325c5d34a1461046257806331d7a2621461047857600080fd5b80630a9ef34c1161031d5780630a9ef34c146103d957806315981650146103f05780631fe543e31461041057600080fd5b8063072ea61c1461034f578063073c74f31461037857806309c1ba2e146103c357600080fd5b3661034a57005b600080fd5b34801561035b57600080fd5b5061036560da5481565b6040519081526020015b60405180910390f35b34801561038457600080fd5b506103b36103933660046136ac565b60d560209081526000928352604080842090915290825290205460ff1681565b604051901515815260200161036f565b3480156103cf57600080fd5b5061036560ca5481565b3480156103e557600080fd5b506103ee610a90565b005b3480156103fc57600080fd5b506103ee61040b3660046136d8565b610be8565b34801561041c57600080fd5b506103ee61042b3660046136f1565b610c45565b34801561043c57600080fd5b5060cc5461044d9063ffffffff1681565b60405163ffffffff909116815260200161036f565b34801561046e57600080fd5b506103656103e881565b34801561048457600080fd5b50610365610493366004613770565b60d66020526000908152604090205481565b3480156104b157600080fd5b506103ee6104c0366004613770565b610e9b565b3480156104d157600080fd5b506103ee6104e03660046136d8565b611016565b6103ee6104f336600461378b565b611073565b34801561050457600080fd5b5061050d6113c6565b60405161036f91906137ee565b34801561052657600080fd5b5061036560d85481565b34801561053c57600080fd5b506103ee61054b366004613801565b61141e565b34801561055c57600080fd5b506103ee6115ab565b34801561057157600080fd5b506105856105803660046136d8565b6116b9565b60405160ff909116815260200161036f565b6103ee6105a5366004613889565b6116e3565b3480156105b657600080fd5b5061036561184f565b3480156105cb57600080fd5b506103ee611914565b3480156105e057600080fd5b5061036560cb5481565b3480156105f657600080fd5b5061060a6106053660046136d8565b611926565b60405161036f9190613971565b34801561062357600080fd5b50610637610632366004613801565b61198a565b60405161036f9291906139cf565b34801561065157600080fd5b506103ee6119f7565b34801561066657600080fd5b5060cc5461044d906601000000000000900463ffffffff1681565b34801561068d57600080fd5b506106ba61069c3660046136d8565b60d06020526000908152604090205460ff8082169161010090041682565b60408051921515835290151560208301520161036f565b3480156106dd57600080fd5b506105856106ec3660046139ea565b611a09565b3480156106fd57600080fd5b5061060a611a42565b34801561071257600080fd5b506103ee610721366004613a0c565b611a9a565b34801561073257600080fd5b5061077d6107413660046136d8565b60d260205260009081526040902080546001820154600283015460039093015460ff808416946101008504821694620100009004909116929186565b6040805196151587529415156020870152921515938501939093526060840152608083019190915260a082015260c00161036f565b3480156107be57600080fd5b506033546001600160a01b03165b6040516001600160a01b03909116815260200161036f565b3480156107f057600080fd5b506103656107ff3660046136d8565b611ac6565b34801561081057600080fd5b506103ee61081f3660046136d8565b611ae7565b34801561083057600080fd5b5061036560d95481565b34801561084657600080fd5b5060c9546107cc906001600160a01b031681565b34801561086657600080fd5b5061087a6108753660046139ea565b611af4565b60405161036f959493929190613a30565b34801561089757600080fd5b506103ee6108a6366004613a70565b611bc6565b3480156108b757600080fd5b5060cc546108ce90640100000000900461ffff1681565b60405161ffff909116815260200161036f565b3480156108ed57600080fd5b5061036560d75481565b34801561090357600080fd5b5060dc546103b39060ff1681565b34801561091d57600080fd5b506103ee61092c3660046136d8565b611bea565b34801561093d57600080fd5b5061036561094c3660046136d8565b600090815260d3602052604090205490565b34801561096a57600080fd5b506103ee611bf7565b34801561097f57600080fd5b506103ee61098e366004613a96565b611d2d565b34801561099f57600080fd5b506103656109ae3660046136d8565b60d16020526000908152604090205481565b3480156109cc57600080fd5b506109e06109db3660046136d8565b611d48565b60405161036f929190613ab8565b3480156109fa57600080fd5b5061036561271081565b348015610a1057600080fd5b506103ee610a1f366004613770565b611e22565b348015610a3057600080fd5b506103ee610a3f366004613a70565b611eaf565b348015610a5057600080fd5b5061036560db5481565b348015610a6657600080fd5b506103ee610a75366004613770565b611f39565b348015610a8657600080fd5b5061036560cd5481565b610a98611f70565b60d75480610aed5760405162461bcd60e51b815260206004820152600d60248201527f4e6f206f776e657220666565730000000000000000000000000000000000000060448201526064015b60405180910390fd5b600060d78190556033546040516001600160a01b039091169083908381818185875af1925050503d8060008114610b40576040519150601f19603f3d011682016040523d82523d6000602084013e610b45565b606091505b5050905080610b965760405162461bcd60e51b815260206004820152601960248201527f4f776e657220666565207472616e73666572206661696c6564000000000000006044820152606401610ae4565b6033546001600160a01b03166001600160a01b03167f8c86225979e924f39334c49a16a32e53ca5ffe7a271a6793b57476cd62749d0583604051610bdc91815260200190565b60405180910390a25050565b610bf0611f70565b60008111610c405760405162461bcd60e51b815260206004820152601160248201527f5072696365206d757374206265203e20300000000000000000000000000000006044820152606401610ae4565b60da55565b60c9546001600160a01b03163314610c9f5760405162461bcd60e51b815260206004820152601c60248201527f4f6e6c7920636f6f7264696e61746f722063616e2066756c66696c6c000000006044820152606401610ae4565b600083815260d0602052604090205460ff16610cfd5760405162461bcd60e51b815260206004820152601160248201527f52657175657374206e6f7420666f756e640000000000000000000000000000006044820152606401610ae4565b600083815260d060205260409020805461ff001916610100178155610d269060010183836134d8565b50610d3360ce83836134d8565b50600083815260d1602052604081205490819003610d935760405162461bcd60e51b815260206004820152601060248201527f526f756e64206e6f74206c696e6b6564000000000000000000000000000000006044820152606401610ae4565b610d9d8383611fca565b610dab9060cf906007613523565b50600081815260d460205260409020610dc79060cf60076135b1565b507ffe2e2d779dba245964d4e3ef9b994be63856fd568bf7d3ca9e224755cb1bd54d848484604051610dfb93929190613ad3565b60405180910390a17f65a3cadf20a29471ee7bc9e1bf93b5f513a619fcfffc0bcab66d7cbae1045cb1848260cf604051610e3793929190613b2c565b60405180910390a16040805160e0810191829052610e959183919060cf90600790826000855b825461010083900a900460ff16815260206001928301818104948501949093039092029101808411610e5d579050505050505061210d565b50505050565b6001600160a01b037f0000000000000000000000000000000000000000000000000000000000000000163003610f285760405162461bcd60e51b815260206004820152602c60248201527f46756e6374696f6e206d7573742062652063616c6c6564207468726f7567682060448201526b19195b1959d85d1958d85b1b60a21b6064820152608401610ae4565b7f00000000000000000000000000000000000000000000000000000000000000006001600160a01b0316610f837f360894a13ba1a3210667c828492db98dca3e2076cc3735a920a3ca505d382bbc546001600160a01b031690565b6001600160a01b031614610fee5760405162461bcd60e51b815260206004820152602c60248201527f46756e6374696f6e206d7573742062652063616c6c6564207468726f7567682060448201526b6163746976652070726f787960a01b6064820152608401610ae4565b610ff7816126ef565b60408051600080825260208201909252611013918391906126f7565b50565b61101e611f70565b6000811161106e5760405162461bcd60e51b815260206004820152601460248201527f4475726174696f6e206d757374206265203e20300000000000000000000000006044820152606401610ae4565b60db55565b60da5434146110c45760405162461bcd60e51b815260206004820152601360248201527f496e636f727265637420656e74727920666565000000000000000000000000006044820152606401610ae4565b6110cd8161289c565b60d954600090815260d26020908152604080832060d583528184203385529092529091205460ff16156111425760405162461bcd60e51b815260206004820152601a60248201527f416c726561647920656e7465726564207468697320726f756e640000000000006044820152606401610ae4565b805460ff166111855760405162461bcd60e51b815260206004820152600f60248201526e139bc81858dd1a5d99481c9bdd5b99608a1b6044820152606401610ae4565b8054610100900460ff16156111dc5760405162461bcd60e51b815260206004820152601660248201527f4472617720616c726561647920726571756573746564000000000000000000006044820152606401610ae4565b8060020154421061122f5760405162461bcd60e51b815260206004820152600d60248201527f526f756e642065787069726564000000000000000000000000000000000000006044820152606401610ae4565b60d954600090815260d5602090815260408083203384529091528120805460ff1916600117905560038201805434929061126a908490613bd1565b909155505060d954600090815260d36020908152604091829020825160a081018452338152835160e0818101909552919390928301919086906007908390839080828437600092018290525092845250506020808301829052604083018290526060909201819052835460018082018655948252908290208351600490920201805473ffffffffffffffffffffffffffffffffffffffff19166001600160a01b03909216919091178155908201519192909161132a918301906007613523565b50604082810151600283018054606086015160ff166101000261ff00199315159390931661ffff199091161791909117905560809092015160039091015560d954600081815260d360205291909120543391907f72c7c6a525d2c132932b4fc43ae4bb642b552692d21f5bedeb662e34b564e8e8906113ab90600190613be4565b856040516113ba929190613c08565b60405180910390a35050565b606060ce80548060200260200160405190810160405280929190818152602001828054801561141457602002820191906000526020600020905b815481526020019060010190808311611400575b5050505050905090565b600061142c828401846136d8565b60d954600081815260d260205260409020919250821461148e5760405162461bcd60e51b815260206004820152600c60248201527f5374616c652075706b65657000000000000000000000000000000000000000006044820152606401610ae4565b805460ff166114d15760405162461bcd60e51b815260206004820152600f60248201526e139bc81858dd1a5d99481c9bdd5b99608a1b6044820152606401610ae4565b8054610100900460ff16156115285760405162461bcd60e51b815260206004820152601660248201527f4472617720616c726561647920726571756573746564000000000000000000006044820152606401610ae4565b806002015442101561157c5760405162461bcd60e51b815260206004820152601260248201527f526f756e64207374696c6c2061637469766500000000000000000000000000006044820152606401610ae4565b60d954600090815260d36020526040812054900361159c57610e95612a3e565b6115a4612bb1565b5050505050565b600054600290610100900460ff161580156115cd575060005460ff8083169116105b61163f5760405162461bcd60e51b815260206004820152602e60248201527f496e697469616c697a61626c653a20636f6e747261637420697320616c72656160448201527f647920696e697469616c697a65640000000000000000000000000000000000006064820152608401610ae4565b6000805461ffff191660ff83161761010017905561165b612dcc565b655af3107a400060da5561012c60db5560dc805460ff191690556000805461ff001916905560405160ff821681527f7f26b83ff96e1f2b6a682f133852f6798a09c465da95921460cefb38474024989060200160405180910390a150565b60cf81600781106116c957600080fd5b60209182820401919006915054906101000a900460ff1681565b6001600160a01b037f00000000000000000000000000000000000000000000000000000000000000001630036117705760405162461bcd60e51b815260206004820152602c60248201527f46756e6374696f6e206d7573742062652063616c6c6564207468726f7567682060448201526b19195b1959d85d1958d85b1b60a21b6064820152608401610ae4565b7f00000000000000000000000000000000000000000000000000000000000000006001600160a01b03166117cb7f360894a13ba1a3210667c828492db98dca3e2076cc3735a920a3ca505d382bbc546001600160a01b031690565b6001600160a01b0316146118365760405162461bcd60e51b815260206004820152602c60248201527f46756e6374696f6e206d7573742062652063616c6c6564207468726f7567682060448201526b6163746976652070726f787960a01b6064820152608401610ae4565b61183f826126ef565b61184b828260016126f7565b5050565b6000306001600160a01b037f000000000000000000000000000000000000000000000000000000000000000016146118ef5760405162461bcd60e51b815260206004820152603860248201527f555550535570677261646561626c653a206d757374206e6f742062652063616c60448201527f6c6564207468726f7567682064656c656761746563616c6c00000000000000006064820152608401610ae4565b507f360894a13ba1a3210667c828492db98dca3e2076cc3735a920a3ca505d382bbc90565b61191c611f70565b611924612e52565b565b61192e6135e4565b600082815260d46020526040808220815160e08101928390529290916007918390855b825461010083900a900460ff16815260206001928301818104948501949093039092029101808411611951575094979650505050505050565b60d954600090815260d26020526040812080546060919060ff1680156119b757508054610100900460ff16155b80156119c7575080600201544210155b925060d9546040516020016119de91815260200190565b6040516020818303038152906040529150509250929050565b6119ff611f70565b6119246000612fe6565b60d46020528160005260406000208160078110611a2557600080fd5b602081049091015460ff601f9092166101000a9004169150829050565b611a4a6135e4565b6040805160e08101918290529060cf90600790826000855b825461010083900a900460ff16815260206001928301818104948501949093039092029101808411611a625790505050505050905090565b611aa2611f70565b60cc805461ffff9092166401000000000265ffff0000000019909216919091179055565b60ce8181548110611ad657600080fd5b600091825260209091200154905081565b611aef611f70565b60cb55565b6000611afe6135e4565b60008060008060d360008981526020019081526020016000208781548110611b2857611b28613c4b565b6000918252602082206004909102018054600282015460038301546040805160e08101918290529496506001600160a01b0390931694600187019460ff808516956101009095041693909186916007918390855b825461010083900a900460ff16815260206001928301818104948501949093039092029101808411611b7c5790505050505050935095509550955095509550509295509295909350565b611bce611f70565b60cc805463ffffffff191663ffffffff92909216919091179055565b611bf2611f70565b60ca55565b33600090815260d6602052604090205480611c545760405162461bcd60e51b815260206004820152601360248201527f4e6f2072657761726420617661696c61626c65000000000000000000000000006044820152606401610ae4565b33600081815260d660205260408082208290555190919083908381818185875af1925050503d8060008114611ca5576040519150601f19603f3d011682016040523d82523d6000602084013e611caa565b606091505b5050905080611cfb5760405162461bcd60e51b815260206004820152601660248201527f526577617264207472616e73666572206661696c6564000000000000000000006044820152606401610ae4565b60405182815233907f1d3eee4ca001cff39eec6ec7615aacf2f2bd61791273830728ba00ccbd6e133790602001610bdc565b611d35611f70565b60dc805460ff1916911515919091179055565b600081815260d0602052604081205460609060ff16611da95760405162461bcd60e51b815260206004820152601160248201527f52657175657374206e6f7420666f756e640000000000000000000000000000006044820152606401610ae4565b600083815260d060209081526040918290208054600182018054855181860281018601909652808652929461010090920460ff169390928391830182828015611e1157602002820191906000526020600020905b815481526020019060010190808311611dfd575b505050505090509250925050915091565b611e2a611f70565b6001600160a01b038116611ea65760405162461bcd60e51b815260206004820152602660248201527f4f776e61626c653a206e6577206f776e657220697320746865207a65726f206160448201527f64647265737300000000000000000000000000000000000000000000000000006064820152608401610ae4565b61101381612fe6565b611eb7611f70565b60008163ffffffff1611611f0d5760405162461bcd60e51b815260206004820152601460248201527f6e756d576f726473206d757374206265203e20300000000000000000000000006044820152606401610ae4565b60cc805463ffffffff90921666010000000000000269ffffffff00000000000019909216919091179055565b611f41611f70565b60c9805473ffffffffffffffffffffffffffffffffffffffff19166001600160a01b0392909216919091179055565b6033546001600160a01b031633146119245760405162461bcd60e51b815260206004820181905260248201527f4f776e61626c653a2063616c6c6572206973206e6f7420746865206f776e65726044820152606401610ae4565b611fd26135e4565b611fda613602565b6000805b60078210156120fa5760005b8581108015611ff95750600783105b156120f4576000603188888481811061201457612014613c4b565b9050602002013584604051602001612036929190918252602082015260400190565b6040516020818303038152906040528051906020012060001c6120599190613c77565b612064906001613bd1565b9050848160ff166032811061207b5761207b613c4b565b60200201516120d3576001858260ff166032811061209b5761209b613c4b565b91151560209092020152808685600781106120b8576120b8613c4b565b60ff9092166020929092020152836120cf81613c8b565b9450505b826120dd81613c8b565b9350505080806120ec90613c8b565b915050611fea565b50611fde565b61210384613045565b5050505b92915050565b600082815260d260205260409020805460ff1661216c5760405162461bcd60e51b815260206004820152601060248201527f526f756e64206e6f7420616374697665000000000000000000000000000000006044820152606401610ae4565b8054610100900460ff166121c25760405162461bcd60e51b815260206004820152601260248201527f44726177206e6f742072657175657374656400000000000000000000000000006044820152606401610ae4565b805462010000900460ff161561221a5760405162461bcd60e51b815260206004820152601560248201527f526f756e6420616c726561647920736574746c656400000000000000000000006044820152606401610ae4565b600083815260d3602052604090208054612232613621565b60005b828110156123385760006122b785838154811061225457612254613c4b565b6000918252602082206040805160e081019182905293600490930290910160010191600791908390855b825461010083900a900460ff1681526020600192830181810494850194909303909202910180841161227e57905050505050508861313c565b9050808583815481106122cc576122cc613c4b565b600091825260209091206004909102016002908101805461ff00191661010060ff948516021790559082161061232557828160ff166008811061231157612311613c4b565b6020020180519061232182613c8b565b9052505b508061233081613c8b565b915050612235565b5060006127106103e886600301546123509190613ca4565b61235a9190613cbb565b9050600081866003015461236e9190613be4565b9050600061237a613621565b6064612387846005613ca4565b6123919190613cbb565b604082015260646123a384600a613ca4565b6123ad9190613cbb565b606082015260646123bf84600f613ca4565b6123c99190613cbb565b608082015260646123db846014613ca4565b6123e59190613cbb565b60a082015260646123f7846014613ca4565b6124019190613cbb565b60c0820152606461241384601e613ca4565b61241d9190613cbb565b60e082015261242a613621565b60025b60078160ff16116124f0576000878260ff166008811061244f5761244f613c4b565b602002015111156124b757868160ff166008811061246f5761246f613c4b565b6020020151838260ff166008811061248957612489613c4b565b60200201516124989190613cbb565b828260ff16600881106124ad576124ad613c4b565b60200201526124de565b828160ff16600881106124cc576124cc613c4b565b60200201516124db9085613bd1565b93505b806124e881613ccf565b91505061242d565b5060005b8781101561265c57600089828154811061251057612510613c4b565b60009182526020909120600260049092020181015460ff6101009091041691508110612649576000838260ff166008811061254d5761254d613c4b565b60200201519050808b848154811061256757612567613c4b565b9060005260206000209060040201600301819055508060d660008d868154811061259357612593613c4b565b600091825260208083206004909202909101546001600160a01b03168352820192909252604001812080549091906125cc908490613bd1565b925050819055508a83815481106125e5576125e5613c4b565b6000918252602091829020600490910201546040805186815260ff86169381019390935282018390526001600160a01b0316908f907faf8d69c5bf84763f900b51e0405fdc2ad4eaf8b44698617a07ae9c31bc41204c9060600160405180910390a3505b508061265481613c8b565b9150506124f4565b508460d7600082825461266f9190613bd1565b925050819055508260d860008282546126889190613bd1565b9091555050885462ff00ff1916620100001789556040518b907fb8ca8b8466fca767994635dc37682d654da89bf89d11de69e1025ccdb2cdfee5906126d2908d9089908890613cee565b60405180910390a26126e2612e52565b5050505050505050505050565b611013611f70565b7f4910fdfa16fed3260ed0e7147f7cc6da11a60208b5b9406d12a635614ffd91435460ff161561272f5761272a836131bb565b505050565b826001600160a01b03166352d1902d6040518163ffffffff1660e01b8152600401602060405180830381865afa925050508015612789575060408051601f3d908101601f1916820190925261278691810190613d0f565b60015b6127fb5760405162461bcd60e51b815260206004820152602e60248201527f45524331393637557067726164653a206e657720696d706c656d656e7461746960448201527f6f6e206973206e6f7420555550530000000000000000000000000000000000006064820152608401610ae4565b7f360894a13ba1a3210667c828492db98dca3e2076cc3735a920a3ca505d382bbc81146128905760405162461bcd60e51b815260206004820152602960248201527f45524331393637557067726164653a20756e737570706f727465642070726f7860448201527f6961626c655555494400000000000000000000000000000000000000000000006064820152608401610ae4565b5061272a838383613286565b6128a4613602565b60005b600781101561272a5760018382600781106128c4576128c4613c4b565b6020020160208101906128d79190613d28565b60ff1610158015612910575060318382600781106128f7576128f7613c4b565b60200201602081019061290a9190613d28565b60ff1611155b61295c5760405162461bcd60e51b815260206004820152601360248201527f4e756d626572206f7574206f662072616e6765000000000000000000000000006044820152606401610ae4565b8183826007811061296f5761296f613c4b565b6020020160208101906129829190613d28565b60ff166032811061299557612995613c4b565b6020020151156129e75760405162461bcd60e51b815260206004820152601c60248201527f4475706c6963617465206e756d626572206e6f7420616c6c6f776564000000006044820152606401610ae4565b6001828483600781106129fc576129fc613c4b565b602002016020810190612a0f9190613d28565b60ff1660328110612a2257612a22613c4b565b9115156020909202015280612a3681613c8b565b9150506128a7565b60d954600090815260d260205260409020805460ff16612a925760405162461bcd60e51b815260206004820152600f60248201526e139bc81858dd1a5d99481c9bdd5b99608a1b6044820152606401610ae4565b8054610100900460ff1615612ae95760405162461bcd60e51b815260206004820152601660248201527f4472617720616c726561647920726571756573746564000000000000000000006044820152606401610ae4565b8060020154421015612b3d5760405162461bcd60e51b815260206004820152601260248201527f526f756e64207374696c6c2061637469766500000000000000000000000000006044820152606401610ae4565b806003015460d86000828254612b539190613bd1565b9091555050805462ff00ff19166201000017815560d95460038201546040517f3fd1c85cda6246c06e5680d9888d379fe80d0234f53064ba2f3e3ef7698dfd4b91612ba19190815260200190565b60405180910390a2611013612e52565b60d954600090815260d26020908152604080832060c954825160c08101845260cb54815260ca548186015260cc5461ffff6401000000008204168286015263ffffffff80821660608401526601000000000000909104166080820152835194850190935260dc5460ff161515845290926001600160a01b0390911691639b1c385e9160a0820190612c41906132ab565b8152506040518263ffffffff1660e01b8152600401612c609190613d43565b6020604051808303816000875af1158015612c7f573d6000803e3d6000fd5b505050506040513d601f19601f82011682018060405250810190612ca39190613d0f565b604080516060810182526001808252600060208084018281528551838152808301875285870190815287845260d083529590922084518154935161ffff1990941690151561ff00191617610100931515939093029290921782559351805195975092949093612d1793928501920190613640565b505060d954600084815260d160209081526040918290209290925560cd859055835461010061ff001990911617845560cc548151868152660100000000000090910463ffffffff16928101929092527fcc58b13ad3eab50626c6a6300b1d139cd6ebb1688a7cced9461c2f7e762665ee92500160405180910390a160d9546040518381527fc67dda8e11f1aa941c7e74466b1859a07a32f46aaf641d29b83be348424d93cd9060200160405180910390a25090565b600054610100900460ff16612e495760405162461bcd60e51b815260206004820152602b60248201527f496e697469616c697a61626c653a20636f6e7472616374206973206e6f74206960448201527f6e697469616c697a696e670000000000000000000000000000000000000000006064820152608401610ae4565b61192433612fe6565b60d9541580612e73575060d954600090815260d2602052604090205460ff16155b612ebf5760405162461bcd60e51b815260206004820152601a60248201527f43757272656e7420726f756e64207374696c6c206163746976650000000000006044820152606401610ae4565b60d98054906000612ecf83613c8b565b91905055506040518060c0016040528060011515815260200160001515815260200160001515815260200142815260200160db5442612f0e9190613bd1565b815260d85460209182015260d98054600090815260d283526040908190208451815494860151928601511515620100000262ff0000199315156101000261ff00199215159290921661ffff19909616959095171791909116929092178255606083015160018301556080830151600283015560a0909201516003909101555460db547ffd9d17e5565deea3d25918d95fc398673b9445ef0a96d12eaf3ab2b198756c65904290612fbe9082613bd1565b60d8546040805193845260208401929092529082015260600160405180910390a2600060d855565b603380546001600160a01b0383811673ffffffffffffffffffffffffffffffffffffffff19831681179093556040519116919082907f8be0079c531659141344cd1fd0a4f28419497f9722a3daafe3b4186f6b6457e090600090a35050565b60005b600781101561184b57600061305e826001613bd1565b90505b60078110156131295782826007811061307c5761307c613c4b565b602002015160ff1683826007811061309657613096613c4b565b602002015160ff1610156131175760008383600781106130b8576130b8613c4b565b602002015190508382600781106130d1576130d1613c4b565b60200201518484600781106130e8576130e8613c4b565b60ff90921660209290920201528084836007811061310857613108613c4b565b60ff9092166020929092020152505b8061312181613c8b565b915050613061565b508061313481613c8b565b915050613048565b6000805b60078160ff1610156131b457828160ff166007811061316157613161613c4b565b602002015160ff16848260ff166007811061317e5761317e613c4b565b602002015160ff160361319d578161319581613ccf565b9250506131a2565b6131b4565b806131ac81613ccf565b915050613140565b5092915050565b6001600160a01b0381163b6132385760405162461bcd60e51b815260206004820152602d60248201527f455243313936373a206e657720696d706c656d656e746174696f6e206973206e60448201527f6f74206120636f6e7472616374000000000000000000000000000000000000006064820152608401610ae4565b7f360894a13ba1a3210667c828492db98dca3e2076cc3735a920a3ca505d382bbc805473ffffffffffffffffffffffffffffffffffffffff19166001600160a01b0392909216919091179055565b61328f83613349565b60008251118061329c5750805b1561272a57610e958383613389565b60607f92fd13387c7fe7befbc38d303d6468778fb9731bc4583f17d92989c6fcfdeaaa826040516024016132e491511515815260200190565b60408051601f198184030181529190526020810180517bffffffffffffffffffffffffffffffffffffffffffffffffffffffff167fffffffff000000000000000000000000000000000000000000000000000000009093169290921790915292915050565b613352816131bb565b6040516001600160a01b038216907fbc7cd75a20ee27fd9adebab32041f755214dbc6bffa90cc0225b39da2e5c2d3b90600090a250565b60606133ae8383604051806060016040528060278152602001613dd0602791396133b5565b9392505050565b6060600080856001600160a01b0316856040516133d29190613da0565b600060405180830381855af49150503d806000811461340d576040519150601f19603f3d011682016040523d82523d6000602084013e613412565b606091505b50915091506134238683838761342d565b9695505050505050565b6060831561349c578251600003613495576001600160a01b0385163b6134955760405162461bcd60e51b815260206004820152601d60248201527f416464726573733a2063616c6c20746f206e6f6e2d636f6e74726163740000006044820152606401610ae4565b50816134a6565b6134a683836134ae565b949350505050565b8151156134be5781518083602001fd5b8060405162461bcd60e51b8152600401610ae49190613dbc565b828054828255906000526020600020908101928215613513579160200282015b828111156135135782358255916020019190600101906134f8565b5061351f92915061367b565b5090565b6001830191839082156135135791602002820160005b8382111561357757835183826101000a81548160ff021916908360ff1602179055509260200192600101602081600001049283019260010302613539565b80156135a45782816101000a81549060ff0219169055600101602081600001049283019260010302613577565b505061351f92915061367b565b6001830191839082156135135791601f016020900482015b828111156135135782548255916001019190600101906135c9565b6040518060e001604052806007906020820280368337509192915050565b6040518061064001604052806032906020820280368337509192915050565b6040518061010001604052806008906020820280368337509192915050565b828054828255906000526020600020908101928215613513579160200282015b82811115613513578251825591602001919060010190613660565b5b8082111561351f576000815560010161367c565b80356001600160a01b03811681146136a757600080fd5b919050565b600080604083850312156136bf57600080fd5b823591506136cf60208401613690565b90509250929050565b6000602082840312156136ea57600080fd5b5035919050565b60008060006040848603121561370657600080fd5b83359250602084013567ffffffffffffffff8082111561372557600080fd5b818601915086601f83011261373957600080fd5b81358181111561374857600080fd5b8760208260051b850101111561375d57600080fd5b6020830194508093505050509250925092565b60006020828403121561378257600080fd5b6133ae82613690565b600060e0828403121561379d57600080fd5b8260e0830111156137ad57600080fd5b50919050565b600081518084526020808501945080840160005b838110156137e3578151875295820195908201906001016137c7565b509495945050505050565b6020815260006133ae60208301846137b3565b6000806020838503121561381457600080fd5b823567ffffffffffffffff8082111561382c57600080fd5b818501915085601f83011261384057600080fd5b81358181111561384f57600080fd5b86602082850101111561386157600080fd5b60209290920196919550909350505050565b634e487b7160e01b600052604160045260246000fd5b6000806040838503121561389c57600080fd5b6138a583613690565b9150602083013567ffffffffffffffff808211156138c257600080fd5b818501915085601f8301126138d657600080fd5b8135818111156138e8576138e8613873565b604051601f8201601f19908116603f0116810190838211818310171561391057613910613873565b8160405282815288602084870101111561392957600080fd5b8260208601602083013760006020848301015280955050505050509250929050565b8060005b6007811015610e9557815160ff1684526020938401939091019060010161394f565b60e08101612107828461394b565b60005b8381101561399a578181015183820152602001613982565b50506000910152565b600081518084526139bb81602086016020860161397f565b601f01601f19169290920160200192915050565b82151581526040602082015260006134a660408301846139a3565b600080604083850312156139fd57600080fd5b50508035926020909101359150565b600060208284031215613a1e57600080fd5b813561ffff811681146133ae57600080fd5b6001600160a01b03861681526101608101613a4e602083018761394b565b93151561010082015260ff929092166101208301526101409091015292915050565b600060208284031215613a8257600080fd5b813563ffffffff811681146133ae57600080fd5b600060208284031215613aa857600080fd5b813580151581146133ae57600080fd5b82151581526040602082015260006134a660408301846137b3565b8381526040602082015281604082015260007f07ffffffffffffffffffffffffffffffffffffffffffffffffffffffffffffff831115613b1257600080fd5b8260051b8085606085013791909101606001949350505050565b600061012082019050848252836020830152825460ff8082166040850152808260081c166060850152808260101c166080850152613b7460a08501828460181c1660ff169052565b613b8860c08501828460201c1660ff169052565b613b9c60e08501828460281c1660ff169052565b613bb16101008501828460301c1660ff169052565b5050949350505050565b634e487b7160e01b600052601160045260246000fd5b8082018082111561210757612107613bbb565b8181038181111561210757612107613bbb565b803560ff811681146136a757600080fd5b828152610100810160208083018460005b6007811015613c405760ff613c2d83613bf7565b1683529183019190830190600101613c19565b505050509392505050565b634e487b7160e01b600052603260045260246000fd5b634e487b7160e01b600052601260045260246000fd5b600082613c8657613c86613c61565b500690565b600060018201613c9d57613c9d613bbb565b5060010190565b808202811582820484141761210757612107613bbb565b600082613cca57613cca613c61565b500490565b600060ff821660ff8103613ce557613ce5613bbb565b60010192915050565b6101208101613cfd828661394b565b60e08201939093526101000152919050565b600060208284031215613d2157600080fd5b5051919050565b600060208284031215613d3a57600080fd5b6133ae82613bf7565b60208152815160208201526020820151604082015261ffff60408301511660608201526000606083015163ffffffff80821660808501528060808601511660a0850152505060a083015160c0808401526134a660e08401826139a3565b60008251613db281846020870161397f565b9190910192915050565b6020815260006133ae60208301846139a356fe416464726573733a206c6f772d6c6576656c2064656c65676174652063616c6c206661696c6564a264697066735822122035ef9a899fb3cec2e3214032a0756c6f36cfb0770e5b562124bf9914e05c1c7e64736f6c63430008140033",
  "linkReferences": {},
  "deployedLinkReferences": {}
}