{
  "_format": "hh-sol-artifact-1",
  "contractName": "Lottery1",
  "sourceName": "contracts/Lottery1.sol",
  "abi": [
    {
      "inputs": [],
      "stateMutability": "nonpayable",
      "type": "constructor"
    },
    {
      "anonymous": false,
      "inputs": [
        {
          "indexed": false,
          "internalType": "address",
          "name": "previousAdmin",
          "type": "address"
        },
        {
          "indexed": false,
          "internalType": "address",
          "name": "newAdmin",
          "type": "address"
        }
      ],
      "name": "AdminChanged",
      "type": "event"
    },
    {
      "anonymous": false,
      "inputs": [
        {
          "indexed": true,
          "internalType": "address",
          "name": "beacon",
          "type": "address"
        }
      ],
      "name": "BeaconUpgraded",
      "type": "event"
    },
    {
      "anonymous": false,
      "inputs": [
        {
          "indexed": false,
          "internalType": "uint8",
          "name": "version",
          "type": "uint8"
        }
      ],
      "name": "Initialized",
      "type": "event"
    },
    {
      "anonymous": false,
      "inputs": [
        {
          "indexed": true,
          "internalType": "address",
          "name": "owner",
          "type": "address"
        },
        {
          "indexed": false,
          "internalType": "uint256",
          "name": "amount",
          "type": "uint256"
        }
      ],
      "name": "OwnerFeesWithdrawn",
      "type": "event"
    },
    {
      "anonymous": false,
      "inputs": [
        {
          "indexed": true,
          "internalType": "address",
          "name": "previousOwner",
          "type": "address"
        },
        {
          "indexed": true,
          "internalType": "address",
          "name": "newOwner",
          "type": "address"
        }
      ],
      "name": "OwnershipTransferred",
      "type": "event"
    },
    {
      "anonymous": false,
      "inputs": [
        {
          "indexed": false,
          "internalType": "uint256",
          "name": "requestId",
          "type": "uint256"
        },
        {
          "indexed": false,
          "internalType": "uint256[]",
          "name": "randomWords",
          "type": "uint256[]"
        }
      ],
      "name": "RequestFulfilled",
      "type": "event"
    },
    {
      "anonymous": false,
      "inputs": [
        {
          "indexed": false,
          "internalType": "uint256",
          "name": "requestId",
          "type": "uint256"
        },
        {
          "indexed": false,
          "internalType": "uint32",
          "name": "numWords",
          "type": "uint32"
        }
      ],
      "name": "RequestSent",
      "type": "event"
    },
    {
      "anonymous": false,
      "inputs": [
        {
          "indexed": true,
          "internalType": "uint256",
          "name": "roundId",
          "type": "uint256"
        },
        {
          "indexed": true,
          "internalType": "address",
          "name": "player",
          "type": "address"
        },
        {
          "indexed": false,
          "internalType": "uint256",
          "name": "ticketIndex",
          "type": "uint256"
        },
        {
          "indexed": false,
          "internalType": "uint8",
          "name": "matches",
          "type": "uint8"
        },
        {
          "indexed": false,
          "internalType": "uint256",
          "name": "reward",
          "type": "uint256"
        }
      ],
      "name": "RewardAssigned",
      "type": "event"
    },
    {
      "anonymous": false,
      "inputs": [
        {
          "indexed": true,
          "internalType": "address",
          "name": "player",
          "type": "address"
        },
        {
          "indexed": false,
          "internalType": "uint256",
          "name": "amount",
          "type": "uint256"
        }
      ],
      "name": "RewardWithdrawn",
      "type": "event"
    },
    {
      "anonymous": false,
      "inputs": [
        {
          "indexed": true,
          "internalType": "uint256",
          "name": "roundId",
          "type": "uint256"
        },
        {
          "indexed": false,
          "internalType": "uint256",
          "name": "requestId",
          "type": "uint256"
        }
      ],
      "name": "RoundClosed",
      "type": "event"
    },
    {
      "anonymous": false,
      "inputs": [
        {
          "indexed": true,
          "internalType": "uint256",
          "name": "roundId",
          "type": "uint256"
        },
        {
          "indexed": false,
          "internalType": "uint8[7]",
          "name": "winningNumbers",
          "type": "uint8[7]"
        },
        {
          "indexed": false,
          "internalType": "uint256",
          "name": "ownerFee",
          "type": "uint256"
        },
        {
          "indexed": false,
          "internalType": "uint256",
          "name": "rolloverAdded",
          "type": "uint256"
        }
      ],
      "name": "RoundSettled",
      "type": "event"
    },
    {
      "anonymous": false,
      "inputs": [
        {
          "indexed": true,
          "internalType": "uint256",
          "name": "roundId",
          "type": "uint256"
        },
        {
          "indexed": false,
          "internalType": "uint256",
          "name": "rolloverAmount",
          "type": "uint256"
        }
      ],
      "name": "RoundSkipped",
      "type": "event"
    },
    {
      "anonymous": false,
      "inputs": [
        {
          "indexed": true,
          "internalType": "uint256",
          "name": "roundId",
          "type": "uint256"
        },
        {
          "indexed": false,
          "internalType": "uint256",
          "name": "startTime",
          "type": "uint256"
        },
        {
          "indexed": false,
          "internalType": "uint256",
          "name": "endTime",
          "type": "uint256"
        },
        {
          "indexed": false,
          "internalType": "uint256",
          "name": "seededPot",
          "type": "uint256"
        }
      ],
      "name": "RoundStarted",
      "type": "event"
    },
    {
      "anonymous": false,
      "inputs": [
        {
          "indexed": true,
          "internalType": "uint256",
          "name": "roundId",
          "type": "uint256"
        },
        {
          "indexed": true,
          "internalType": "address",
          "name": "player",
          "type": "address"
        },
        {
          "indexed": false,
          "internalType": "uint256",
          "name": "ticketIndex",
          "type": "uint256"
        },
        {
          "indexed": false,
          "internalType": "uint8[7]",
          "name": "numbers",
          "type": "uint8[7]"
        }
      ],
      "name": "TicketBought",
      "type": "event"
    },
    {
      "anonymous": false,
      "inputs": [
        {
          "indexed": true,
          "internalType": "address",
          "name": "implementation",
          "type": "address"
        }
      ],
      "name": "Upgraded",
      "type": "event"
    },
    {
      "anonymous": false,
      "inputs": [
        {
          "indexed": false,
          "internalType": "uint256",
          "name": "requestId",
          "type": "uint256"
        },
        {
          "indexed": false,
          "internalType": "uint256",
          "name": "roundId",
          "type": "uint256"
        },
        {
          "indexed": false,
          "internalType": "uint8[7]",
          "name": "winningNumbers",
          "type": "uint8[7]"
        }
      ],
      "name": "WinningNumbersGenerated",
      "type": "event"
    },
    {
      "inputs": [],
      "name": "BPS_DENOMINATOR",
      "outputs": [
        {
          "internalType": "uint256",
          "name": "",
          "type": "uint256"
        }
      ],
      "stateMutability": "view",
      "type": "function"
    },
    {
      "inputs": [],
      "name": "OWNER_FEE_BPS",
      "outputs": [
        {
          "internalType": "uint256",
          "name": "",
          "type": "uint256"
        }
      ],
      "stateMutability": "view",
      "type": "function"
    },
    {
      "inputs": [],
      "name": "automationNativePayment",
      "outputs": [
        {
          "internalType": "bool",
          "name": "",
          "type": "bool"
        }
      ],
      "stateMutability": "view",
      "type": "function"
    },
    {
      "inputs": [
        {
          "internalType": "uint8[7]",
          "name": "numbers",
          "type": "uint8[7]"
        }
      ],
      "name": "buyTicket",
      "outputs": [],
      "stateMutability": "payable",
      "type": "function"
    },
    {
      "inputs": [],
      "name": "callbackGasLimit",
      "outputs": [
        {
          "internalType": "uint32",
          "name": "",
          "type": "uint32"
        }
      ],
      "stateMutability": "view",
      "type": "function"
    },
    {
      "inputs": [
        {
          "internalType": "bytes",
          "name": "",
          "type": "bytes"
        }
      ],
      "name": "checkUpkeep",
      "outputs": [
        {
          "internalType": "bool",
          "name": "upkeepNeeded",
          "type": "bool"
        },
        {
          "internalType": "bytes",
          "name": "performData",
          "type": "bytes"
        }
      ],
      "stateMutability": "view",
      "type": "function"
    },
    {
      "inputs": [],
      "name": "currentRoundId",
      "outputs": [
        {
          "internalType": "uint256",
          "name": "",
          "type": "uint256"
        }
      ],
      "stateMutability": "view",
      "type": "function"
    },
    {
      "inputs": [],
      "name": "entryFee",
      "outputs": [
        {
          "internalType": "uint256",
          "name": "",
          "type": "uint256"
        }
      ],
      "stateMutability": "view",
      "type": "function"
    },
    {
      "inputs": [],
      "name": "getLastRandomWords",
      "outputs": [
        {
          "internalType": "uint256[]",
          "name": "",
          "type": "uint256[]"
        }
      ],
      "stateMutability": "view",
      "type": "function"
    },
    {
      "inputs": [
        {
          "internalType": "uint256",
          "name": "requestId",
          "type": "uint256"
        }
      ],
      "name": "getRequestStatus",
      "outputs": [
        {
          "internalType": "bool",
          "name": "fulfilled",
          "type": "bool"
        },
        {
          "internalType": "uint256[]",
          "name": "randomWords",
          "type": "uint256[]"
        }
      ],
      "stateMutability": "view",
      "type": "function"
    },
    {
      "inputs": [
        {
          "internalType": "uint256",
          "name": "roundId",
          "type": "uint256"
        }
      ],
      "name": "getRoundTicketCount",
      "outputs": [
        {
          "internalType": "uint256",
          "name": "",
          "type": "uint256"
        }
      ],
      "stateMutability": "view",
      "type": "function"
    },
    {
      "inputs": [
        {
          "internalType": "uint256",
          "name": "roundId",
          "type": "uint256"
        }
      ],
      "name": "getRoundWinningNumbers",
      "outputs": [
        {
          "internalType": "uint8[7]",
          "name": "",
          "type": "uint8[7]"
        }
      ],
      "stateMutability": "view",
      "type": "function"
    },
    {
      "inputs": [
        {
          "internalType": "uint256",
          "name": "roundId",
          "type": "uint256"
        },
        {
          "internalType": "uint256",
          "name": "ticketIndex",
          "type": "uint256"
        }
      ],
      "name": "getTicket",
      "outputs": [
        {
          "internalType": "address",
          "name": "player",
          "type": "address"
        },
        {
          "internalType": "uint8[7]",
          "name": "numbers",
          "type": "uint8[7]"
        },
        {
          "internalType": "bool",
          "name": "claimed",
          "type": "bool"
        },
        {
          "internalType": "uint8",
          "name": "matchedCount",
          "type": "uint8"
        },
        {
          "internalType": "uint256",
          "name": "reward",
          "type": "uint256"
        }
      ],
      "stateMutability": "view",
      "type": "function"
    },
    {
      "inputs": [],
      "name": "getWinningNumbers",
      "outputs": [
        {
          "internalType": "uint8[7]",
          "name": "",
          "type": "uint8[7]"
        }
      ],
      "stateMutability": "view",
      "type": "function"
    },
    {
      "inputs": [],
      "name": "initialize2",
      "outputs": [],
      "stateMutability": "nonpayable",
      "type": "function"
    },
    {
      "inputs": [],
      "name": "keyHash",
      "outputs": [
        {
          "internalType": "bytes32",
          "name": "",
          "type": "bytes32"
        }
      ],
      "stateMutability": "view",
      "type": "function"
    },
    {
      "inputs": [
        {
          "internalType": "uint256",
          "name": "",
          "type": "uint256"
        }
      ],
      "name": "lastRandomWords",
      "outputs": [
        {
          "internalType": "uint256",
          "name": "",
          "type": "uint256"
        }
      ],
      "stateMutability": "view",
      "type": "function"
    },
    {
      "inputs": [],
      "name": "lastRequestId",
      "outputs": [
        {
          "internalType": "uint256",
          "name": "",
          "type": "uint256"
        }
      ],
      "stateMutability": "view",
      "type": "function"
    },
    {
      "inputs": [],
      "name": "numWords",
      "outputs": [
        {
          "internalType": "uint32",
          "name": "",
          "type": "uint32"
        }
      ],
      "stateMutability": "view",
      "type": "function"
    },
    {
      "inputs": [],
      "name": "owner",
      "outputs": [
        {
          "internalType": "address",
          "name": "",
          "type": "address"
        }
      ],
      "stateMutability": "view",
      "type": "function"
    },
    {
      "inputs": [],
      "name": "ownerFeesAccrued",
      "outputs": [
        {
          "internalType": "uint256",
          "name": "",
          "type": "uint256"
        }
      ],
      "stateMutability": "view",
      "type": "function"
    },
    {
      "inputs": [
        {
          "internalType": "address",
          "name": "",
          "type": "address"
        }
      ],
      "name": "pendingRewards",
      "outputs": [
        {
          "internalType": "uint256",
          "name": "",
          "type": "uint256"
        }
      ],
      "stateMutability": "view",
      "type": "function"
    },
    {
      "inputs": [
        {
          "internalType": "bytes",
          "name": "performData",
          "type": "bytes"
        }
      ],
      "name": "performUpkeep",
      "outputs": [],
      "stateMutability": "nonpayable",
      "type": "function"
    },
    {
      "inputs": [],
      "name": "proxiableUUID",
      "outputs": [
        {
          "internalType": "bytes32",
          "name": "",
          "type": "bytes32"
        }
      ],
      "stateMutability": "view",
      "type": "function"
    },
    {
      "inputs": [
        {
          "internalType": "uint256",
          "name": "requestId",
          "type": "uint256"
        },
        {
          "internalType": "uint256[]",
          "name": "randomWords",
          "type": "uint256[]"
        }
      ],
      "name": "rawFulfillRandomWords",
      "outputs": [],
      "stateMutability": "nonpayable",
      "type": "function"
    },
    {
      "inputs": [],
      "name": "renounceOwnership",
      "outputs": [],
      "stateMutability": "nonpayable",
      "type": "function"
    },
    {
      "inputs": [],
      "name": "requestConfirmations",
      "outputs": [
        {
          "internalType": "uint16",
          "name": "",
          "type": "uint16"
        }
      ],
      "stateMutability": "view",
      "type": "function"
    },
    {
      "inputs": [
        {
          "internalType": "uint256",
          "name": "",
          "type": "uint256"
        }
      ],
      "name": "requestToRoundId",
      "outputs": [
        {
          "internalType": "uint256",
          "name": "",
          "type": "uint256"
        }
      ],
      "stateMutability": "view",
      "type": "function"
    },
    {
      "inputs": [
        {
          "internalType": "uint256",
          "name": "",
          "type": "uint256"
        }
      ],
      "name": "requests",
      "outputs": [
        {
          "internalType": "bool",
          "name": "exists",
          "type": "bool"
        },
        {
          "internalType": "bool",
          "name": "fulfilled",
          "type": "bool"
        }
      ],
      "stateMutability": "view",
      "type": "function"
    },
    {
      "inputs": [],
      "name": "rolloverPool",
      "outputs": [
        {
          "internalType": "uint256",
          "name": "",
          "type": "uint256"
        }
      ],
      "stateMutability": "view",
      "type": "function"
    },
    {
      "inputs": [],
      "name": "roundDuration",
      "outputs": [
        {
          "internalType": "uint256",
          "name": "",
          "type": "uint256"
        }
      ],
      "stateMutability": "view",
      "type": "function"
    },
    {
      "inputs": [
        {
          "internalType": "uint256",
          "name": "",
          "type": "uint256"
        },
        {
          "internalType": "uint256",
          "name": "",
          "type": "uint256"
        }
      ],
      "name": "roundWinningNumbers",
      "outputs": [
        {
          "internalType": "uint8",
          "name": "",
          "type": "uint8"
        }
      ],
      "stateMutability": "view",
      "type": "function"
    },
    {
      "inputs": [
        {
          "internalType": "uint256",
          "name": "",
          "type": "uint256"
        }
      ],
      "name": "rounds",
      "outputs": [
        {
          "internalType": "bool",
          "name": "active",
          "type": "bool"
        },
        {
          "internalType": "bool",
          "name": "drawRequested",
          "type": "bool"
        },
        {
          "internalType": "bool",
          "name": "drawn",
          "type": "bool"
        },
        {
          "internalType": "uint256",
          "name": "startTime",
          "type": "uint256"
        },
        {
          "internalType": "uint256",
          "name": "endTime",
          "type": "uint256"
        },
        {
          "internalType": "uint256",
          "name": "pot",
          "type": "uint256"
        }
      ],
      "stateMutability": "view",
      "type": "function"
    },
    {
      "inputs": [],
      "name": "s_vrfCoordinator",
      "outputs": [
        {
          "internalType": "contract IVRFCoordinatorV2Plus",
          "name": "",
          "type": "address"
        }
      ],
      "stateMutability": "view",
      "type": "function"
    },
    {
      "inputs": [
        {
          "internalType": "bool",
          "name": "enabled",
          "type": "bool"
        }
      ],
      "name": "setAutomationNativePayment",
      "outputs": [],
      "stateMutability": "nonpayable",
      "type": "function"
    },
    {
      "inputs": [
        {
          "internalType": "uint32",
          "name": "_callbackGasLimit",
          "type": "uint32"
        }
      ],
      "name": "setCallbackGasLimit",
      "outputs": [],
      "stateMutability": "nonpayable",
      "type": "function"
    },
    {
      "inputs": [
        {
          "internalType": "bytes32",
          "name": "_keyHash",
          "type": "bytes32"
        }
      ],
      "name": "setKeyHash",
      "outputs": [],
      "stateMutability": "nonpayable",
      "type": "function"
    },
    {
      "inputs": [
        {
          "internalType": "uint32",
          "name": "_numWords",
          "type": "uint32"
        }
      ],
      "name": "setNumWords",
      "outputs": [],
      "stateMutability": "nonpayable",
      "type": "function"
    },
    {
      "inputs": [
        {
          "internalType": "uint16",
          "name": "_requestConfirmations",
          "type": "uint16"
        }
      ],
      "name": "setRequestConfirmations",
      "outputs": [],
      "stateMutability": "nonpayable",
      "type": "function"
    },
    {
      "inputs": [
        {
          "internalType": "uint256",
          "name": "time",
          "type": "uint256"
        }
      ],
      "name": "setRoundDuration",
      "outputs": [],
      "stateMutability": "nonpayable",
      "type": "function"
    },
    {
      "inputs": [
        {
          "internalType": "uint256",
          "name": "_subscriptionId",
          "type": "uint256"
        }
      ],
      "name": "setSubscriptionId",
      "outputs": [],
      "stateMutability": "nonpayable",
      "type": "function"
    },
    {
      "inputs": [
        {
          "internalType": "uint256",
          "name": "price",
          "type": "uint256"
        }
      ],
      "name": "setTicketPrice",
      "outputs": [],
      "stateMutability": "nonpayable",
      "type": "function"
    },
    {
      "inputs": [],
      "name": "subscriptionId",
      "outputs": [
        {
          "internalType": "uint256",
          "name": "",
          "type": "uint256"
        }
      ],
      "stateMutability": "view",
      "type": "function"
    },
    {
      "inputs": [
        {
          "internalType": "address",
          "name": "newOwner",
          "type": "address"
        }
      ],
      "name": "transferOwnership",
      "outputs": [],
      "stateMutability": "nonpayable",
      "type": "function"
    },
    {
      "inputs": [
        {
          "internalType": "address",
          "name": "newCoordinator",
          "type": "address"
        }
      ],
      "name": "updateCoordinator",
      "outputs": [],
      "stateMutability": "nonpayable",
      "type": "function"
    },
    {
      "inputs": [
        {
          "internalType": "address",
          "name": "newImplementation",
          "type": "address"
        }
      ],
      "name": "upgradeTo",
      "outputs": [],
      "stateMutability": "nonpayable",
      "type": "function"
    },
    {
      "inputs": [
        {
          "internalType": "address",
          "name": "newImplementation",
          "type": "address"
        },
        {
          "internalType": "bytes",
          "name": "data",
          "type": "bytes"
        }
      ],
      "name": "upgradeToAndCall",
      "outputs": [],
      "stateMutability": "payable",
      "type": "function"
    },
    {
      "inputs": [
        {
          "internalType": "uint256",
          "name": "",
          "type": "uint256"
        }
      ],
      "name": "winningNumbers",
      "outputs": [
        {
          "internalType": "uint8",
          "name": "",
          "type": "uint8"
        }
      ],
      "stateMutability": "view",
      "type": "function"
    },
    {
      "inputs": [],
      "name": "withdrawOwnerFees",
      "outputs": [],
      "stateMutability": "nonpayable",
      "type": "function"
    },
    {
      "inputs": [],
      "name": "withdrawReward",
      "outputs": [],
      "stateMutability": "nonpayable",
      "type": "function"
    },
    {
      "stateMutability": "payable",
      "type": "receive"
    }
  ],
  "bytecode": "0x60a0604052306080523480156200001557600080fd5b506200002062000026565b620000e7565b600054610100900460ff1615620000935760405162461bcd60e51b815260206004820152602760248201527f496e697469616c697a61626c653a20636f6e747261637420697320696e697469604482015266616c697a696e6760c81b606482015260840160405180910390fd5b60005460ff90811614620000e5576000805460ff191660ff9081179091556040519081527f7f26b83ff96e1f2b6a682f133852f6798a09c465da95921460cefb38474024989060200160405180910390a15b565b608051613cfb6200011f60003960008181610e3f01528181610ec4015281816115fc01528181611681015261176b0152613cfb6000f3fe60806040526004361061032d5760003560e01c806384350e1d116101a5578063b368ba42116100ec578063d8a4676f11610095578063f30c07d31161006f578063f30c07d3146109be578063f7cb789a146109de578063f9f94e34146109f4578063fc2a88c314610a1457600080fd5b8063d8a4676f1461095a578063e1a4521814610988578063f2fde38b1461099e57600080fd5b8063c885bc58116100c6578063c885bc58146108f8578063c88e15611461090d578063d88d27d61461092d57600080fd5b8063b368ba4214610881578063c1e0d236146108ab578063c4289070146108cb57600080fd5b80639cbe5efd1161014e578063a4eb718c11610128578063a4eb718c14610815578063b0fb162f14610835578063b28f6ef11461086b57600080fd5b80639cbe5efd146107ae5780639eccacf6146107c4578063a426e4c8146107e457600080fd5b80638da5cb5b1161017f5780638da5cb5b1461073c578063900fc8691461076e578063985447101461078e57600080fd5b806384350e1d1461067b5780638824f5a7146106905780638c65c81f146106b057600080fd5b80633c51c7bb1161027457806361728f391161021d578063715018a6116101f7578063715018a6146105cf5780637ccfd7fc146105e457806381d12c581461060b57806382fbc5c21461065b57600080fd5b806361728f391461055e57806364069e71146105745780636e04ff0d146105a157600080fd5b80634e45f0951161024e5780634e45f095146105045780634f1ef2861461053657806352d1902d1461054957600080fd5b80633c51c7bb146104b95780634585e33b146104cf578063472abf68146104ef57600080fd5b806325c5d34a116102d657806336c92c3f116102b057806336c92c3f1461046457806339e7397b146104845780633c256b241461049757600080fd5b806325c5d34a1461040157806331d7a262146104175780633659cfe61461044457600080fd5b80631598165011610307578063159816501461038f5780631fe543e3146103af57806324f74697146103cf57600080fd5b8063072ea61c1461033957806309c1ba2e146103625780630a9ef34c1461037857600080fd5b3661033457005b600080fd5b34801561034557600080fd5b5061034f60d95481565b6040519081526020015b60405180910390f35b34801561036e57600080fd5b5061034f60ca5481565b34801561038457600080fd5b5061038d610a2a565b005b34801561039b57600080fd5b5061038d6103aa36600461358b565b610b82565b3480156103bb57600080fd5b5061038d6103ca3660046135a4565b610bdf565b3480156103db57600080fd5b5060cc546103ec9063ffffffff1681565b60405163ffffffff9091168152602001610359565b34801561040d57600080fd5b5061034f6103e881565b34801561042357600080fd5b5061034f61043236600461363f565b60d56020526000908152604090205481565b34801561045057600080fd5b5061038d61045f36600461363f565b610e35565b34801561047057600080fd5b5061038d61047f36600461358b565b610fb0565b61038d61049236600461365a565b61100d565b3480156104a357600080fd5b506104ac6112d5565b60405161035991906136bd565b3480156104c557600080fd5b5061034f60d75481565b3480156104db57600080fd5b5061038d6104ea3660046136d0565b61132d565b3480156104fb57600080fd5b5061038d6114ba565b34801561051057600080fd5b5061052461051f36600461358b565b6115c8565b60405160ff9091168152602001610359565b61038d610544366004613758565b6115f2565b34801561055557600080fd5b5061034f61175e565b34801561056a57600080fd5b5061034f60cb5481565b34801561058057600080fd5b5061059461058f36600461358b565b611823565b6040516103599190613840565b3480156105ad57600080fd5b506105c16105bc3660046136d0565b611887565b60405161035992919061389e565b3480156105db57600080fd5b5061038d6118f4565b3480156105f057600080fd5b5060cc546103ec906601000000000000900463ffffffff1681565b34801561061757600080fd5b5061064461062636600461358b565b60d06020526000908152604090205460ff8082169161010090041682565b604080519215158352901515602083015201610359565b34801561066757600080fd5b506105246106763660046138b9565b611908565b34801561068757600080fd5b50610594611941565b34801561069c57600080fd5b5061038d6106ab3660046138db565b611999565b3480156106bc57600080fd5b506107076106cb36600461358b565b60d260205260009081526040902080546001820154600283015460039093015460ff808416946101008504821694620100009004909116929186565b6040805196151587529415156020870152921515938501939093526060840152608083019190915260a082015260c001610359565b34801561074857600080fd5b506033546001600160a01b03165b6040516001600160a01b039091168152602001610359565b34801561077a57600080fd5b5061034f61078936600461358b565b6119c5565b34801561079a57600080fd5b5061038d6107a936600461358b565b6119e6565b3480156107ba57600080fd5b5061034f60d85481565b3480156107d057600080fd5b5060c954610756906001600160a01b031681565b3480156107f057600080fd5b506108046107ff3660046138b9565b6119f3565b6040516103599594939291906138ff565b34801561082157600080fd5b5061038d61083036600461393f565b611ac5565b34801561084157600080fd5b5060cc5461085890640100000000900461ffff1681565b60405161ffff9091168152602001610359565b34801561087757600080fd5b5061034f60d65481565b34801561088d57600080fd5b5060db5461089b9060ff1681565b6040519015158152602001610359565b3480156108b757600080fd5b5061038d6108c636600461358b565b611ae9565b3480156108d757600080fd5b5061034f6108e636600461358b565b600090815260d3602052604090205490565b34801561090457600080fd5b5061038d611af6565b34801561091957600080fd5b5061038d610928366004613965565b611c2c565b34801561093957600080fd5b5061034f61094836600461358b565b60d16020526000908152604090205481565b34801561096657600080fd5b5061097a61097536600461358b565b611c47565b604051610359929190613987565b34801561099457600080fd5b5061034f61271081565b3480156109aa57600080fd5b5061038d6109b936600461363f565b611d21565b3480156109ca57600080fd5b5061038d6109d936600461393f565b611dae565b3480156109ea57600080fd5b5061034f60da5481565b348015610a0057600080fd5b5061038d610a0f36600461363f565b611e38565b348015610a2057600080fd5b5061034f60cd5481565b610a32611e6f565b60d65480610a875760405162461bcd60e51b815260206004820152600d60248201527f4e6f206f776e657220666565730000000000000000000000000000000000000060448201526064015b60405180910390fd5b600060d68190556033546040516001600160a01b039091169083908381818185875af1925050503d8060008114610ada576040519150601f19603f3d011682016040523d82523d6000602084013e610adf565b606091505b5050905080610b305760405162461bcd60e51b815260206004820152601960248201527f4f776e657220666565207472616e73666572206661696c6564000000000000006044820152606401610a7e565b6033546001600160a01b03166001600160a01b03167f8c86225979e924f39334c49a16a32e53ca5ffe7a271a6793b57476cd62749d0583604051610b7691815260200190565b60405180910390a25050565b610b8a611e6f565b60008111610bda5760405162461bcd60e51b815260206004820152601160248201527f5072696365206d757374206265203e20300000000000000000000000000000006044820152606401610a7e565b60d955565b60c9546001600160a01b03163314610c395760405162461bcd60e51b815260206004820152601c60248201527f4f6e6c7920636f6f7264696e61746f722063616e2066756c66696c6c000000006044820152606401610a7e565b600083815260d0602052604090205460ff16610c975760405162461bcd60e51b815260206004820152601160248201527f52657175657374206e6f7420666f756e640000000000000000000000000000006044820152606401610a7e565b600083815260d060205260409020805461ff001916610100178155610cc09060010183836133d3565b50610ccd60ce83836133d3565b50600083815260d1602052604081205490819003610d2d5760405162461bcd60e51b815260206004820152601060248201527f526f756e64206e6f74206c696e6b6564000000000000000000000000000000006044820152606401610a7e565b610d378383611ec9565b610d459060cf90600761341e565b50600081815260d460205260409020610d619060cf60076134ac565b507ffe2e2d779dba245964d4e3ef9b994be63856fd568bf7d3ca9e224755cb1bd54d848484604051610d95939291906139a2565b60405180910390a17f65a3cadf20a29471ee7bc9e1bf93b5f513a619fcfffc0bcab66d7cbae1045cb1848260cf604051610dd1939291906139fb565b60405180910390a16040805160e0810191829052610e2f9183919060cf90600790826000855b825461010083900a900460ff16815260206001928301818104948501949093039092029101808411610df7579050505050505061200c565b50505050565b6001600160a01b037f0000000000000000000000000000000000000000000000000000000000000000163003610ec25760405162461bcd60e51b815260206004820152602c60248201527f46756e6374696f6e206d7573742062652063616c6c6564207468726f7567682060448201526b19195b1959d85d1958d85b1b60a21b6064820152608401610a7e565b7f00000000000000000000000000000000000000000000000000000000000000006001600160a01b0316610f1d7f360894a13ba1a3210667c828492db98dca3e2076cc3735a920a3ca505d382bbc546001600160a01b031690565b6001600160a01b031614610f885760405162461bcd60e51b815260206004820152602c60248201527f46756e6374696f6e206d7573742062652063616c6c6564207468726f7567682060448201526b6163746976652070726f787960a01b6064820152608401610a7e565b610f91816125ee565b60408051600080825260208201909252610fad918391906125f6565b50565b610fb8611e6f565b600081116110085760405162461bcd60e51b815260206004820152601460248201527f4475726174696f6e206d757374206265203e20300000000000000000000000006044820152606401610a7e565b60da55565b60d954341461105e5760405162461bcd60e51b815260206004820152601360248201527f496e636f727265637420656e74727920666565000000000000000000000000006044820152606401610a7e565b6110678161279b565b60d854600090815260d260205260409020805460ff166110bb5760405162461bcd60e51b815260206004820152600f60248201526e139bc81858dd1a5d99481c9bdd5b99608a1b6044820152606401610a7e565b8054610100900460ff16156111125760405162461bcd60e51b815260206004820152601660248201527f4472617720616c726561647920726571756573746564000000000000000000006044820152606401610a7e565b806002015442106111655760405162461bcd60e51b815260206004820152600d60248201527f526f756e642065787069726564000000000000000000000000000000000000006044820152606401610a7e565b348160030160008282546111799190613aa0565b909155505060d854600090815260d36020908152604091829020825160a081018452338152835160e0818101909552919390928301919086906007908390839080828437600092018290525092845250506020808301829052604083018290526060909201819052835460018082018655948252908290208351600490920201805473ffffffffffffffffffffffffffffffffffffffff19166001600160a01b03909216919091178155908201519192909161123991830190600761341e565b50604082810151600283018054606086015160ff166101000261ff00199315159390931661ffff199091161791909117905560809092015160039091015560d854600081815260d360205291909120543391907f72c7c6a525d2c132932b4fc43ae4bb642b552692d21f5bedeb662e34b564e8e8906112ba90600190613ab3565b856040516112c9929190613ad7565b60405180910390a35050565b606060ce80548060200260200160405190810160405280929190818152602001828054801561132357602002820191906000526020600020905b81548152602001906001019080831161130f575b5050505050905090565b600061133b8284018461358b565b60d854600081815260d260205260409020919250821461139d5760405162461bcd60e51b815260206004820152600c60248201527f5374616c652075706b65657000000000000000000000000000000000000000006044820152606401610a7e565b805460ff166113e05760405162461bcd60e51b815260206004820152600f60248201526e139bc81858dd1a5d99481c9bdd5b99608a1b6044820152606401610a7e565b8054610100900460ff16156114375760405162461bcd60e51b815260206004820152601660248201527f4472617720616c726561647920726571756573746564000000000000000000006044820152606401610a7e565b806002015442101561148b5760405162461bcd60e51b815260206004820152601260248201527f526f756e64207374696c6c2061637469766500000000000000000000000000006044820152606401610a7e565b60d854600090815260d3602052604081205490036114ab57610e2f61293d565b6114b3612ab0565b5050505050565b600054600290610100900460ff161580156114dc575060005460ff8083169116105b61154e5760405162461bcd60e51b815260206004820152602e60248201527f496e697469616c697a61626c653a20636f6e747261637420697320616c72656160448201527f647920696e697469616c697a65640000000000000000000000000000000000006064820152608401610a7e565b6000805461ffff191660ff83161761010017905561156a612ccb565b655af3107a400060d95561012c60da5560db805460ff191690556000805461ff001916905560405160ff821681527f7f26b83ff96e1f2b6a682f133852f6798a09c465da95921460cefb38474024989060200160405180910390a150565b60cf81600781106115d857600080fd5b60209182820401919006915054906101000a900460ff1681565b6001600160a01b037f000000000000000000000000000000000000000000000000000000000000000016300361167f5760405162461bcd60e51b815260206004820152602c60248201527f46756e6374696f6e206d7573742062652063616c6c6564207468726f7567682060448201526b19195b1959d85d1958d85b1b60a21b6064820152608401610a7e565b7f00000000000000000000000000000000000000000000000000000000000000006001600160a01b03166116da7f360894a13ba1a3210667c828492db98dca3e2076cc3735a920a3ca505d382bbc546001600160a01b031690565b6001600160a01b0316146117455760405162461bcd60e51b815260206004820152602c60248201527f46756e6374696f6e206d7573742062652063616c6c6564207468726f7567682060448201526b6163746976652070726f787960a01b6064820152608401610a7e565b61174e826125ee565b61175a828260016125f6565b5050565b6000306001600160a01b037f000000000000000000000000000000000000000000000000000000000000000016146117fe5760405162461bcd60e51b815260206004820152603860248201527f555550535570677261646561626c653a206d757374206e6f742062652063616c60448201527f6c6564207468726f7567682064656c656761746563616c6c00000000000000006064820152608401610a7e565b507f360894a13ba1a3210667c828492db98dca3e2076cc3735a920a3ca505d382bbc90565b61182b6134df565b600082815260d46020526040808220815160e08101928390529290916007918390855b825461010083900a900460ff1681526020600192830181810494850194909303909202910180841161184e575094979650505050505050565b60d854600090815260d26020526040812080546060919060ff1680156118b457508054610100900460ff16155b80156118c4575080600201544210155b925060d8546040516020016118db91815260200190565b6040516020818303038152906040529150509250929050565b6118fc611e6f565b6119066000612d4d565b565b60d4602052816000526040600020816007811061192457600080fd5b602081049091015460ff601f9092166101000a9004169150829050565b6119496134df565b6040805160e08101918290529060cf90600790826000855b825461010083900a900460ff168152602060019283018181049485019490930390920291018084116119615790505050505050905090565b6119a1611e6f565b60cc805461ffff9092166401000000000265ffff0000000019909216919091179055565b60ce81815481106119d557600080fd5b600091825260209091200154905081565b6119ee611e6f565b60cb55565b60006119fd6134df565b60008060008060d360008981526020019081526020016000208781548110611a2757611a27613b1a565b6000918252602082206004909102018054600282015460038301546040805160e08101918290529496506001600160a01b0390931694600187019460ff808516956101009095041693909186916007918390855b825461010083900a900460ff16815260206001928301818104948501949093039092029101808411611a7b5790505050505050935095509550955095509550509295509295909350565b611acd611e6f565b60cc805463ffffffff191663ffffffff92909216919091179055565b611af1611e6f565b60ca55565b33600090815260d5602052604090205480611b535760405162461bcd60e51b815260206004820152601360248201527f4e6f2072657761726420617661696c61626c65000000000000000000000000006044820152606401610a7e565b33600081815260d560205260408082208290555190919083908381818185875af1925050503d8060008114611ba4576040519150601f19603f3d011682016040523d82523d6000602084013e611ba9565b606091505b5050905080611bfa5760405162461bcd60e51b815260206004820152601660248201527f526577617264207472616e73666572206661696c6564000000000000000000006044820152606401610a7e565b60405182815233907f1d3eee4ca001cff39eec6ec7615aacf2f2bd61791273830728ba00ccbd6e133790602001610b76565b611c34611e6f565b60db805460ff1916911515919091179055565b600081815260d0602052604081205460609060ff16611ca85760405162461bcd60e51b815260206004820152601160248201527f52657175657374206e6f7420666f756e640000000000000000000000000000006044820152606401610a7e565b600083815260d060209081526040918290208054600182018054855181860281018601909652808652929461010090920460ff169390928391830182828015611d1057602002820191906000526020600020905b815481526020019060010190808311611cfc575b505050505090509250925050915091565b611d29611e6f565b6001600160a01b038116611da55760405162461bcd60e51b815260206004820152602660248201527f4f776e61626c653a206e6577206f776e657220697320746865207a65726f206160448201527f64647265737300000000000000000000000000000000000000000000000000006064820152608401610a7e565b610fad81612d4d565b611db6611e6f565b60008163ffffffff1611611e0c5760405162461bcd60e51b815260206004820152601460248201527f6e756d576f726473206d757374206265203e20300000000000000000000000006044820152606401610a7e565b60cc805463ffffffff90921666010000000000000269ffffffff00000000000019909216919091179055565b611e40611e6f565b60c9805473ffffffffffffffffffffffffffffffffffffffff19166001600160a01b0392909216919091179055565b6033546001600160a01b031633146119065760405162461bcd60e51b815260206004820181905260248201527f4f776e61626c653a2063616c6c6572206973206e6f7420746865206f776e65726044820152606401610a7e565b611ed16134df565b611ed96134fd565b6000805b6007821015611ff95760005b8581108015611ef85750600783105b15611ff35760006031888884818110611f1357611f13613b1a565b9050602002013584604051602001611f35929190918252602082015260400190565b6040516020818303038152906040528051906020012060001c611f589190613b46565b611f63906001613aa0565b9050848160ff1660328110611f7a57611f7a613b1a565b6020020151611fd2576001858260ff1660328110611f9a57611f9a613b1a565b9115156020909202015280868560078110611fb757611fb7613b1a565b60ff909216602092909202015283611fce81613b5a565b9450505b82611fdc81613b5a565b935050508080611feb90613b5a565b915050611ee9565b50611edd565b61200284612dac565b5050505b92915050565b600082815260d260205260409020805460ff1661206b5760405162461bcd60e51b815260206004820152601060248201527f526f756e64206e6f7420616374697665000000000000000000000000000000006044820152606401610a7e565b8054610100900460ff166120c15760405162461bcd60e51b815260206004820152601260248201527f44726177206e6f742072657175657374656400000000000000000000000000006044820152606401610a7e565b805462010000900460ff16156121195760405162461bcd60e51b815260206004820152601560248201527f526f756e6420616c726561647920736574746c656400000000000000000000006044820152606401610a7e565b600083815260d360205260409020805461213161351c565b60005b828110156122375760006121b685838154811061215357612153613b1a565b6000918252602082206040805160e081019182905293600490930290910160010191600791908390855b825461010083900a900460ff1681526020600192830181810494850194909303909202910180841161217d579050505050505088612ea3565b9050808583815481106121cb576121cb613b1a565b600091825260209091206004909102016002908101805461ff00191661010060ff948516021790559082161061222457828160ff166008811061221057612210613b1a565b6020020180519061222082613b5a565b9052505b508061222f81613b5a565b915050612134565b5060006127106103e8866003015461224f9190613b73565b6122599190613b8a565b9050600081866003015461226d9190613ab3565b9050600061227961351c565b6064612286846005613b73565b6122909190613b8a565b604082015260646122a284600a613b73565b6122ac9190613b8a565b606082015260646122be84600f613b73565b6122c89190613b8a565b608082015260646122da846014613b73565b6122e49190613b8a565b60a082015260646122f6846014613b73565b6123009190613b8a565b60c0820152606461231284601e613b73565b61231c9190613b8a565b60e082015261232961351c565b60025b60078160ff16116123ef576000878260ff166008811061234e5761234e613b1a565b602002015111156123b657868160ff166008811061236e5761236e613b1a565b6020020151838260ff166008811061238857612388613b1a565b60200201516123979190613b8a565b828260ff16600881106123ac576123ac613b1a565b60200201526123dd565b828160ff16600881106123cb576123cb613b1a565b60200201516123da9085613aa0565b93505b806123e781613b9e565b91505061232c565b5060005b8781101561255b57600089828154811061240f5761240f613b1a565b60009182526020909120600260049092020181015460ff6101009091041691508110612548576000838260ff166008811061244c5761244c613b1a565b60200201519050808b848154811061246657612466613b1a565b9060005260206000209060040201600301819055508060d560008d868154811061249257612492613b1a565b600091825260208083206004909202909101546001600160a01b03168352820192909252604001812080549091906124cb908490613aa0565b925050819055508a83815481106124e4576124e4613b1a565b6000918252602091829020600490910201546040805186815260ff86169381019390935282018390526001600160a01b0316908f907faf8d69c5bf84763f900b51e0405fdc2ad4eaf8b44698617a07ae9c31bc41204c9060600160405180910390a3505b508061255381613b5a565b9150506123f3565b508460d6600082825461256e9190613aa0565b925050819055508260d760008282546125879190613aa0565b9091555050885462ff00ff1916620100001789556040518b907fb8ca8b8466fca767994635dc37682d654da89bf89d11de69e1025ccdb2cdfee5906125d1908d9089908890613bbd565b60405180910390a26125e1612f22565b5050505050505050505050565b610fad611e6f565b7f4910fdfa16fed3260ed0e7147f7cc6da11a60208b5b9406d12a635614ffd91435460ff161561262e57612629836130b6565b505050565b826001600160a01b03166352d1902d6040518163ffffffff1660e01b8152600401602060405180830381865afa925050508015612688575060408051601f3d908101601f1916820190925261268591810190613bde565b60015b6126fa5760405162461bcd60e51b815260206004820152602e60248201527f45524331393637557067726164653a206e657720696d706c656d656e7461746960448201527f6f6e206973206e6f7420555550530000000000000000000000000000000000006064820152608401610a7e565b7f360894a13ba1a3210667c828492db98dca3e2076cc3735a920a3ca505d382bbc811461278f5760405162461bcd60e51b815260206004820152602960248201527f45524331393637557067726164653a20756e737570706f727465642070726f7860448201527f6961626c655555494400000000000000000000000000000000000000000000006064820152608401610a7e565b50612629838383613181565b6127a36134fd565b60005b60078110156126295760018382600781106127c3576127c3613b1a565b6020020160208101906127d69190613bf7565b60ff161015801561280f575060318382600781106127f6576127f6613b1a565b6020020160208101906128099190613bf7565b60ff1611155b61285b5760405162461bcd60e51b815260206004820152601360248201527f4e756d626572206f7574206f662072616e6765000000000000000000000000006044820152606401610a7e565b8183826007811061286e5761286e613b1a565b6020020160208101906128819190613bf7565b60ff166032811061289457612894613b1a565b6020020151156128e65760405162461bcd60e51b815260206004820152601c60248201527f4475706c6963617465206e756d626572206e6f7420616c6c6f776564000000006044820152606401610a7e565b6001828483600781106128fb576128fb613b1a565b60200201602081019061290e9190613bf7565b60ff166032811061292157612921613b1a565b911515602090920201528061293581613b5a565b9150506127a6565b60d854600090815260d260205260409020805460ff166129915760405162461bcd60e51b815260206004820152600f60248201526e139bc81858dd1a5d99481c9bdd5b99608a1b6044820152606401610a7e565b8054610100900460ff16156129e85760405162461bcd60e51b815260206004820152601660248201527f4472617720616c726561647920726571756573746564000000000000000000006044820152606401610a7e565b8060020154421015612a3c5760405162461bcd60e51b815260206004820152601260248201527f526f756e64207374696c6c2061637469766500000000000000000000000000006044820152606401610a7e565b806003015460d76000828254612a529190613aa0565b9091555050805462ff00ff19166201000017815560d85460038201546040517f3fd1c85cda6246c06e5680d9888d379fe80d0234f53064ba2f3e3ef7698dfd4b91612aa09190815260200190565b60405180910390a2610fad612f22565b60d854600090815260d26020908152604080832060c954825160c08101845260cb54815260ca548186015260cc5461ffff6401000000008204168286015263ffffffff80821660608401526601000000000000909104166080820152835194850190935260db5460ff161515845290926001600160a01b0390911691639b1c385e9160a0820190612b40906131a6565b8152506040518263ffffffff1660e01b8152600401612b5f9190613c12565b6020604051808303816000875af1158015612b7e573d6000803e3d6000fd5b505050506040513d601f19601f82011682018060405250810190612ba29190613bde565b604080516060810182526001808252600060208084018281528551838152808301875285870190815287845260d083529590922084518154935161ffff1990941690151561ff00191617610100931515939093029290921782559351805195975092949093612c169392850192019061353b565b505060d854600084815260d160209081526040918290209290925560cd859055835461010061ff001990911617845560cc548151868152660100000000000090910463ffffffff16928101929092527fcc58b13ad3eab50626c6a6300b1d139cd6ebb1688a7cced9461c2f7e762665ee92500160405180910390a160d8546040518381527fc67dda8e11f1aa941c7e74466b1859a07a32f46aaf641d29b83be348424d93cd9060200160405180910390a25090565b600054610100900460ff16612d485760405162461bcd60e51b815260206004820152602b60248201527f496e697469616c697a61626c653a20636f6e7472616374206973206e6f74206960448201527f6e697469616c697a696e670000000000000000000000000000000000000000006064820152608401610a7e565b611906335b603380546001600160a01b0383811673ffffffffffffffffffffffffffffffffffffffff19831681179093556040519116919082907f8be0079c531659141344cd1fd0a4f28419497f9722a3daafe3b4186f6b6457e090600090a35050565b60005b600781101561175a576000612dc5826001613aa0565b90505b6007811015612e9057828260078110612de357612de3613b1a565b602002015160ff16838260078110612dfd57612dfd613b1a565b602002015160ff161015612e7e576000838360078110612e1f57612e1f613b1a565b60200201519050838260078110612e3857612e38613b1a565b6020020151848460078110612e4f57612e4f613b1a565b60ff909216602092909202015280848360078110612e6f57612e6f613b1a565b60ff9092166020929092020152505b80612e8881613b5a565b915050612dc8565b5080612e9b81613b5a565b915050612daf565b6000805b60078160ff161015612f1b57828160ff1660078110612ec857612ec8613b1a565b602002015160ff16848260ff1660078110612ee557612ee5613b1a565b602002015160ff1603612f045781612efc81613b9e565b925050612f09565b612f1b565b80612f1381613b9e565b915050612ea7565b5092915050565b60d8541580612f43575060d854600090815260d2602052604090205460ff16155b612f8f5760405162461bcd60e51b815260206004820152601a60248201527f43757272656e7420726f756e64207374696c6c206163746976650000000000006044820152606401610a7e565b60d88054906000612f9f83613b5a565b91905055506040518060c0016040528060011515815260200160001515815260200160001515815260200142815260200160da5442612fde9190613aa0565b815260d75460209182015260d88054600090815260d283526040908190208451815494860151928601511515620100000262ff0000199315156101000261ff00199215159290921661ffff19909616959095171791909116929092178255606083015160018301556080830151600283015560a0909201516003909101555460da547ffd9d17e5565deea3d25918d95fc398673b9445ef0a96d12eaf3ab2b198756c6590429061308e9082613aa0565b60d7546040805193845260208401929092529082015260600160405180910390a2600060d755565b6001600160a01b0381163b6131335760405162461bcd60e51b815260206004820152602d60248201527f455243313936373a206e657720696d706c656d656e746174696f6e206973206e60448201527f6f74206120636f6e7472616374000000000000000000000000000000000000006064820152608401610a7e565b7f360894a13ba1a3210667c828492db98dca3e2076cc3735a920a3ca505d382bbc805473ffffffffffffffffffffffffffffffffffffffff19166001600160a01b0392909216919091179055565b61318a83613244565b6000825111806131975750805b1561262957610e2f8383613284565b60607f92fd13387c7fe7befbc38d303d6468778fb9731bc4583f17d92989c6fcfdeaaa826040516024016131df91511515815260200190565b60408051601f198184030181529190526020810180517bffffffffffffffffffffffffffffffffffffffffffffffffffffffff167fffffffff000000000000000000000000000000000000000000000000000000009093169290921790915292915050565b61324d816130b6565b6040516001600160a01b038216907fbc7cd75a20ee27fd9adebab32041f755214dbc6bffa90cc0225b39da2e5c2d3b90600090a250565b60606132a98383604051806060016040528060278152602001613c9f602791396132b0565b9392505050565b6060600080856001600160a01b0316856040516132cd9190613c6f565b600060405180830381855af49150503d8060008114613308576040519150601f19603f3d011682016040523d82523d6000602084013e61330d565b606091505b509150915061331e86838387613328565b9695505050505050565b60608315613397578251600003613390576001600160a01b0385163b6133905760405162461bcd60e51b815260206004820152601d60248201527f416464726573733a2063616c6c20746f206e6f6e2d636f6e74726163740000006044820152606401610a7e565b50816133a1565b6133a183836133a9565b949350505050565b8151156133b95781518083602001fd5b8060405162461bcd60e51b8152600401610a7e9190613c8b565b82805482825590600052602060002090810192821561340e579160200282015b8281111561340e5782358255916020019190600101906133f3565b5061341a929150613576565b5090565b60018301918390821561340e5791602002820160005b8382111561347257835183826101000a81548160ff021916908360ff1602179055509260200192600101602081600001049283019260010302613434565b801561349f5782816101000a81549060ff0219169055600101602081600001049283019260010302613472565b505061341a929150613576565b60018301918390821561340e5791601f016020900482015b8281111561340e5782548255916001019190600101906134c4565b6040518060e001604052806007906020820280368337509192915050565b6040518061064001604052806032906020820280368337509192915050565b6040518061010001604052806008906020820280368337509192915050565b82805482825590600052602060002090810192821561340e579160200282015b8281111561340e57825182559160200191906001019061355b565b5b8082111561341a5760008155600101613577565b60006020828403121561359d57600080fd5b5035919050565b6000806000604084860312156135b957600080fd5b83359250602084013567ffffffffffffffff808211156135d857600080fd5b818601915086601f8301126135ec57600080fd5b8135818111156135fb57600080fd5b8760208260051b850101111561361057600080fd5b6020830194508093505050509250925092565b80356001600160a01b038116811461363a57600080fd5b919050565b60006020828403121561365157600080fd5b6132a982613623565b600060e0828403121561366c57600080fd5b8260e08301111561367c57600080fd5b50919050565b600081518084526020808501945080840160005b838110156136b257815187529582019590820190600101613696565b509495945050505050565b6020815260006132a96020830184613682565b600080602083850312156136e357600080fd5b823567ffffffffffffffff808211156136fb57600080fd5b818501915085601f83011261370f57600080fd5b81358181111561371e57600080fd5b86602082850101111561373057600080fd5b60209290920196919550909350505050565b634e487b7160e01b600052604160045260246000fd5b6000806040838503121561376b57600080fd5b61377483613623565b9150602083013567ffffffffffffffff8082111561379157600080fd5b818501915085601f8301126137a557600080fd5b8135818111156137b7576137b7613742565b604051601f8201601f19908116603f011681019083821181831017156137df576137df613742565b816040528281528860208487010111156137f857600080fd5b8260208601602083013760006020848301015280955050505050509250929050565b8060005b6007811015610e2f57815160ff1684526020938401939091019060010161381e565b60e08101612006828461381a565b60005b83811015613869578181015183820152602001613851565b50506000910152565b6000815180845261388a81602086016020860161384e565b601f01601f19169290920160200192915050565b82151581526040602082015260006133a16040830184613872565b600080604083850312156138cc57600080fd5b50508035926020909101359150565b6000602082840312156138ed57600080fd5b813561ffff811681146132a957600080fd5b6001600160a01b0386168152610160810161391d602083018761381a565b93151561010082015260ff929092166101208301526101409091015292915050565b60006020828403121561395157600080fd5b813563ffffffff811681146132a957600080fd5b60006020828403121561397757600080fd5b813580151581146132a957600080fd5b82151581526040602082015260006133a16040830184613682565b8381526040602082015281604082015260007f07ffffffffffffffffffffffffffffffffffffffffffffffffffffffffffffff8311156139e157600080fd5b8260051b8085606085013791909101606001949350505050565b600061012082019050848252836020830152825460ff8082166040850152808260081c166060850152808260101c166080850152613a4360a08501828460181c1660ff169052565b613a5760c08501828460201c1660ff169052565b613a6b60e08501828460281c1660ff169052565b613a806101008501828460301c1660ff169052565b5050949350505050565b634e487b7160e01b600052601160045260246000fd5b8082018082111561200657612006613a8a565b8181038181111561200657612006613a8a565b803560ff8116811461363a57600080fd5b828152610100810160208083018460005b6007811015613b0f5760ff613afc83613ac6565b1683529183019190830190600101613ae8565b505050509392505050565b634e487b7160e01b600052603260045260246000fd5b634e487b7160e01b600052601260045260246000fd5b600082613b5557613b55613b30565b500690565b600060018201613b6c57613b6c613a8a565b5060010190565b808202811582820484141761200657612006613a8a565b600082613b9957613b99613b30565b500490565b600060ff821660ff8103613bb457613bb4613a8a565b60010192915050565b6101208101613bcc828661381a565b60e08201939093526101000152919050565b600060208284031215613bf057600080fd5b5051919050565b600060208284031215613c0957600080fd5b6132a982613ac6565b60208152815160208201526020820151604082015261ffff60408301511660608201526000606083015163ffffffff80821660808501528060808601511660a0850152505060a083015160c0808401526133a160e0840182613872565b60008251613c8181846020870161384e565b9190910192915050565b6020815260006132a9602083018461387256fe416464726573733a206c6f772d6c6576656c2064656c65676174652063616c6c206661696c6564a2646970667358221220cc04bc616b7f915a63127f10010dd08b7519f704a6a4c593e558bd4767a4e9d964736f6c63430008140033",
  "linkReferences": {},
  "deployedLinkReferences": {}
}