{
  "_format": "hh-sol-artifact-1",
  "contractName": "Lottery2",
  "sourceName": "contracts/Lottery2.sol",
  "abi": [
    {
      "inputs": [],
      "stateMutability": "nonpayable",
      "type": "constructor"
    },
    {
      "anonymous": false,
      "inputs": [
        {
          "indexed": false,
          "internalType": "address",
          "name": "previousAdmin",
          "type": "address"
        },
        {
          "indexed": false,
          "internalType": "address",
          "name": "newAdmin",
          "type": "address"
        }
      ],
      "name": "AdminChanged",
      "type": "event"
    },
    {
      "anonymous": false,
      "inputs": [
        {
          "indexed": true,
          "internalType": "address",
          "name": "beacon",
          "type": "address"
        }
      ],
      "name": "BeaconUpgraded",
      "type": "event"
    },
    {
      "anonymous": false,
      "inputs": [
        {
          "indexed": false,
          "internalType": "uint8",
          "name": "version",
          "type": "uint8"
        }
      ],
      "name": "Initialized",
      "type": "event"
    },
    {
      "anonymous": false,
      "inputs": [
        {
          "indexed": true,
          "internalType": "address",
          "name": "owner",
          "type": "address"
        },
        {
          "indexed": false,
          "internalType": "uint256",
          "name": "amount",
          "type": "uint256"
        }
      ],
      "name": "OwnerFeesWithdrawn",
      "type": "event"
    },
    {
      "anonymous": false,
      "inputs": [
        {
          "indexed": true,
          "internalType": "address",
          "name": "previousOwner",
          "type": "address"
        },
        {
          "indexed": true,
          "internalType": "address",
          "name": "newOwner",
          "type": "address"
        }
      ],
      "name": "OwnershipTransferred",
      "type": "event"
    },
    {
      "anonymous": false,
      "inputs": [
        {
          "indexed": false,
          "internalType": "uint256",
          "name": "requestId",
          "type": "uint256"
        },
        {
          "indexed": false,
          "internalType": "uint256[]",
          "name": "randomWords",
          "type": "uint256[]"
        }
      ],
      "name": "RequestFulfilled",
      "type": "event"
    },
    {
      "anonymous": false,
      "inputs": [
        {
          "indexed": false,
          "internalType": "uint256",
          "name": "requestId",
          "type": "uint256"
        },
        {
          "indexed": false,
          "internalType": "uint32",
          "name": "numWords",
          "type": "uint32"
        }
      ],
      "name": "RequestSent",
      "type": "event"
    },
    {
      "anonymous": false,
      "inputs": [
        {
          "indexed": true,
          "internalType": "uint256",
          "name": "roundId",
          "type": "uint256"
        },
        {
          "indexed": true,
          "internalType": "address",
          "name": "player",
          "type": "address"
        },
        {
          "indexed": false,
          "internalType": "uint256",
          "name": "ticketIndex",
          "type": "uint256"
        },
        {
          "indexed": false,
          "internalType": "uint8",
          "name": "matches",
          "type": "uint8"
        },
        {
          "indexed": false,
          "internalType": "uint256",
          "name": "reward",
          "type": "uint256"
        }
      ],
      "name": "RewardAssigned",
      "type": "event"
    },
    {
      "anonymous": false,
      "inputs": [
        {
          "indexed": true,
          "internalType": "address",
          "name": "player",
          "type": "address"
        },
        {
          "indexed": false,
          "internalType": "uint256",
          "name": "amount",
          "type": "uint256"
        }
      ],
      "name": "RewardWithdrawn",
      "type": "event"
    },
    {
      "anonymous": false,
      "inputs": [
        {
          "indexed": true,
          "internalType": "uint256",
          "name": "roundId",
          "type": "uint256"
        },
        {
          "indexed": false,
          "internalType": "uint256",
          "name": "requestId",
          "type": "uint256"
        }
      ],
      "name": "RoundClosed",
      "type": "event"
    },
    {
      "anonymous": false,
      "inputs": [
        {
          "indexed": true,
          "internalType": "uint256",
          "name": "roundId",
          "type": "uint256"
        },
        {
          "indexed": false,
          "internalType": "uint8[7]",
          "name": "winningNumbers",
          "type": "uint8[7]"
        },
        {
          "indexed": false,
          "internalType": "uint256",
          "name": "ownerFee",
          "type": "uint256"
        },
        {
          "indexed": false,
          "internalType": "uint256",
          "name": "rolloverAdded",
          "type": "uint256"
        }
      ],
      "name": "RoundSettled",
      "type": "event"
    },
    {
      "anonymous": false,
      "inputs": [
        {
          "indexed": true,
          "internalType": "uint256",
          "name": "roundId",
          "type": "uint256"
        },
        {
          "indexed": false,
          "internalType": "uint256",
          "name": "rolloverAmount",
          "type": "uint256"
        }
      ],
      "name": "RoundSkipped",
      "type": "event"
    },
    {
      "anonymous": false,
      "inputs": [
        {
          "indexed": true,
          "internalType": "uint256",
          "name": "roundId",
          "type": "uint256"
        },
        {
          "indexed": false,
          "internalType": "uint256",
          "name": "startTime",
          "type": "uint256"
        },
        {
          "indexed": false,
          "internalType": "uint256",
          "name": "endTime",
          "type": "uint256"
        },
        {
          "indexed": false,
          "internalType": "uint256",
          "name": "seededPot",
          "type": "uint256"
        }
      ],
      "name": "RoundStarted",
      "type": "event"
    },
    {
      "anonymous": false,
      "inputs": [
        {
          "indexed": true,
          "internalType": "uint256",
          "name": "roundId",
          "type": "uint256"
        },
        {
          "indexed": true,
          "internalType": "address",
          "name": "player",
          "type": "address"
        },
        {
          "indexed": false,
          "internalType": "uint256",
          "name": "ticketIndex",
          "type": "uint256"
        },
        {
          "indexed": false,
          "internalType": "uint8[7]",
          "name": "numbers",
          "type": "uint8[7]"
        }
      ],
      "name": "TicketBought",
      "type": "event"
    },
    {
      "anonymous": false,
      "inputs": [
        {
          "indexed": true,
          "internalType": "address",
          "name": "implementation",
          "type": "address"
        }
      ],
      "name": "Upgraded",
      "type": "event"
    },
    {
      "anonymous": false,
      "inputs": [
        {
          "indexed": false,
          "internalType": "uint256",
          "name": "requestId",
          "type": "uint256"
        },
        {
          "indexed": false,
          "internalType": "uint256",
          "name": "roundId",
          "type": "uint256"
        },
        {
          "indexed": false,
          "internalType": "uint8[7]",
          "name": "winningNumbers",
          "type": "uint8[7]"
        }
      ],
      "name": "WinningNumbersGenerated",
      "type": "event"
    },
    {
      "inputs": [],
      "name": "BPS_DENOMINATOR",
      "outputs": [
        {
          "internalType": "uint256",
          "name": "",
          "type": "uint256"
        }
      ],
      "stateMutability": "view",
      "type": "function"
    },
    {
      "inputs": [],
      "name": "OWNER_FEE_BPS",
      "outputs": [
        {
          "internalType": "uint256",
          "name": "",
          "type": "uint256"
        }
      ],
      "stateMutability": "view",
      "type": "function"
    },
    {
      "inputs": [],
      "name": "automationNativePayment",
      "outputs": [
        {
          "internalType": "bool",
          "name": "",
          "type": "bool"
        }
      ],
      "stateMutability": "view",
      "type": "function"
    },
    {
      "inputs": [
        {
          "internalType": "uint8[7]",
          "name": "numbers",
          "type": "uint8[7]"
        }
      ],
      "name": "buyTicket",
      "outputs": [],
      "stateMutability": "payable",
      "type": "function"
    },
    {
      "inputs": [],
      "name": "callbackGasLimit",
      "outputs": [
        {
          "internalType": "uint32",
          "name": "",
          "type": "uint32"
        }
      ],
      "stateMutability": "view",
      "type": "function"
    },
    {
      "inputs": [
        {
          "internalType": "bytes",
          "name": "",
          "type": "bytes"
        }
      ],
      "name": "checkUpkeep",
      "outputs": [
        {
          "internalType": "bool",
          "name": "upkeepNeeded",
          "type": "bool"
        },
        {
          "internalType": "bytes",
          "name": "performData",
          "type": "bytes"
        }
      ],
      "stateMutability": "view",
      "type": "function"
    },
    {
      "inputs": [],
      "name": "currentRoundId",
      "outputs": [
        {
          "internalType": "uint256",
          "name": "",
          "type": "uint256"
        }
      ],
      "stateMutability": "view",
      "type": "function"
    },
    {
      "inputs": [],
      "name": "entryFee",
      "outputs": [
        {
          "internalType": "uint256",
          "name": "",
          "type": "uint256"
        }
      ],
      "stateMutability": "view",
      "type": "function"
    },
    {
      "inputs": [],
      "name": "getLastRandomWords",
      "outputs": [
        {
          "internalType": "uint256[]",
          "name": "",
          "type": "uint256[]"
        }
      ],
      "stateMutability": "view",
      "type": "function"
    },
    {
      "inputs": [
        {
          "internalType": "uint256",
          "name": "requestId",
          "type": "uint256"
        }
      ],
      "name": "getRequestStatus",
      "outputs": [
        {
          "internalType": "bool",
          "name": "fulfilled",
          "type": "bool"
        },
        {
          "internalType": "uint256[]",
          "name": "randomWords",
          "type": "uint256[]"
        }
      ],
      "stateMutability": "view",
      "type": "function"
    },
    {
      "inputs": [
        {
          "internalType": "uint256",
          "name": "roundId",
          "type": "uint256"
        }
      ],
      "name": "getRoundTicketCount",
      "outputs": [
        {
          "internalType": "uint256",
          "name": "",
          "type": "uint256"
        }
      ],
      "stateMutability": "view",
      "type": "function"
    },
    {
      "inputs": [
        {
          "internalType": "uint256",
          "name": "roundId",
          "type": "uint256"
        }
      ],
      "name": "getRoundWinningNumbers",
      "outputs": [
        {
          "internalType": "uint8[7]",
          "name": "",
          "type": "uint8[7]"
        }
      ],
      "stateMutability": "view",
      "type": "function"
    },
    {
      "inputs": [
        {
          "internalType": "uint256",
          "name": "roundId",
          "type": "uint256"
        },
        {
          "internalType": "uint256",
          "name": "ticketIndex",
          "type": "uint256"
        }
      ],
      "name": "getTicket",
      "outputs": [
        {
          "internalType": "address",
          "name": "player",
          "type": "address"
        },
        {
          "internalType": "uint8[7]",
          "name": "numbers",
          "type": "uint8[7]"
        },
        {
          "internalType": "bool",
          "name": "claimed",
          "type": "bool"
        },
        {
          "internalType": "uint8",
          "name": "matchedCount",
          "type": "uint8"
        },
        {
          "internalType": "uint256",
          "name": "reward",
          "type": "uint256"
        }
      ],
      "stateMutability": "view",
      "type": "function"
    },
    {
      "inputs": [],
      "name": "getWinningNumbers",
      "outputs": [
        {
          "internalType": "uint8[7]",
          "name": "",
          "type": "uint8[7]"
        }
      ],
      "stateMutability": "view",
      "type": "function"
    },
    {
      "inputs": [
        {
          "internalType": "uint256",
          "name": "",
          "type": "uint256"
        },
        {
          "internalType": "address",
          "name": "",
          "type": "address"
        }
      ],
      "name": "hasEntered",
      "outputs": [
        {
          "internalType": "bool",
          "name": "",
          "type": "bool"
        }
      ],
      "stateMutability": "view",
      "type": "function"
    },
    {
      "inputs": [],
      "name": "initialize3",
      "outputs": [],
      "stateMutability": "nonpayable",
      "type": "function"
    },
    {
      "inputs": [],
      "name": "keyHash",
      "outputs": [
        {
          "internalType": "bytes32",
          "name": "",
          "type": "bytes32"
        }
      ],
      "stateMutability": "view",
      "type": "function"
    },
    {
      "inputs": [
        {
          "internalType": "uint256",
          "name": "",
          "type": "uint256"
        }
      ],
      "name": "lastRandomWords",
      "outputs": [
        {
          "internalType": "uint256",
          "name": "",
          "type": "uint256"
        }
      ],
      "stateMutability": "view",
      "type": "function"
    },
    {
      "inputs": [],
      "name": "lastRequestId",
      "outputs": [
        {
          "internalType": "uint256",
          "name": "",
          "type": "uint256"
        }
      ],
      "stateMutability": "view",
      "type": "function"
    },
    {
      "inputs": [],
      "name": "numWords",
      "outputs": [
        {
          "internalType": "uint32",
          "name": "",
          "type": "uint32"
        }
      ],
      "stateMutability": "view",
      "type": "function"
    },
    {
      "inputs": [],
      "name": "owner",
      "outputs": [
        {
          "internalType": "address",
          "name": "",
          "type": "address"
        }
      ],
      "stateMutability": "view",
      "type": "function"
    },
    {
      "inputs": [],
      "name": "ownerFeesAccrued",
      "outputs": [
        {
          "internalType": "uint256",
          "name": "",
          "type": "uint256"
        }
      ],
      "stateMutability": "view",
      "type": "function"
    },
    {
      "inputs": [
        {
          "internalType": "address",
          "name": "",
          "type": "address"
        }
      ],
      "name": "pendingRewards",
      "outputs": [
        {
          "internalType": "uint256",
          "name": "",
          "type": "uint256"
        }
      ],
      "stateMutability": "view",
      "type": "function"
    },
    {
      "inputs": [
        {
          "internalType": "bytes",
          "name": "performData",
          "type": "bytes"
        }
      ],
      "name": "performUpkeep",
      "outputs": [],
      "stateMutability": "nonpayable",
      "type": "function"
    },
    {
      "inputs": [],
      "name": "proxiableUUID",
      "outputs": [
        {
          "internalType": "bytes32",
          "name": "",
          "type": "bytes32"
        }
      ],
      "stateMutability": "view",
      "type": "function"
    },
    {
      "inputs": [
        {
          "internalType": "uint256",
          "name": "requestId",
          "type": "uint256"
        },
        {
          "internalType": "uint256[]",
          "name": "randomWords",
          "type": "uint256[]"
        }
      ],
      "name": "rawFulfillRandomWords",
      "outputs": [],
      "stateMutability": "nonpayable",
      "type": "function"
    },
    {
      "inputs": [],
      "name": "renounceOwnership",
      "outputs": [],
      "stateMutability": "nonpayable",
      "type": "function"
    },
    {
      "inputs": [],
      "name": "requestConfirmations",
      "outputs": [
        {
          "internalType": "uint16",
          "name": "",
          "type": "uint16"
        }
      ],
      "stateMutability": "view",
      "type": "function"
    },
    {
      "inputs": [
        {
          "internalType": "uint256",
          "name": "",
          "type": "uint256"
        }
      ],
      "name": "requestToRoundId",
      "outputs": [
        {
          "internalType": "uint256",
          "name": "",
          "type": "uint256"
        }
      ],
      "stateMutability": "view",
      "type": "function"
    },
    {
      "inputs": [
        {
          "internalType": "uint256",
          "name": "",
          "type": "uint256"
        }
      ],
      "name": "requests",
      "outputs": [
        {
          "internalType": "bool",
          "name": "exists",
          "type": "bool"
        },
        {
          "internalType": "bool",
          "name": "fulfilled",
          "type": "bool"
        }
      ],
      "stateMutability": "view",
      "type": "function"
    },
    {
      "inputs": [],
      "name": "rolloverPool",
      "outputs": [
        {
          "internalType": "uint256",
          "name": "",
          "type": "uint256"
        }
      ],
      "stateMutability": "view",
      "type": "function"
    },
    {
      "inputs": [],
      "name": "roundDuration",
      "outputs": [
        {
          "internalType": "uint256",
          "name": "",
          "type": "uint256"
        }
      ],
      "stateMutability": "view",
      "type": "function"
    },
    {
      "inputs": [
        {
          "internalType": "uint256",
          "name": "",
          "type": "uint256"
        },
        {
          "internalType": "uint256",
          "name": "",
          "type": "uint256"
        }
      ],
      "name": "roundWinningNumbers",
      "outputs": [
        {
          "internalType": "uint8",
          "name": "",
          "type": "uint8"
        }
      ],
      "stateMutability": "view",
      "type": "function"
    },
    {
      "inputs": [
        {
          "internalType": "uint256",
          "name": "",
          "type": "uint256"
        }
      ],
      "name": "rounds",
      "outputs": [
        {
          "internalType": "bool",
          "name": "active",
          "type": "bool"
        },
        {
          "internalType": "bool",
          "name": "drawRequested",
          "type": "bool"
        },
        {
          "internalType": "bool",
          "name": "drawn",
          "type": "bool"
        },
        {
          "internalType": "uint256",
          "name": "startTime",
          "type": "uint256"
        },
        {
          "internalType": "uint256",
          "name": "endTime",
          "type": "uint256"
        },
        {
          "internalType": "uint256",
          "name": "pot",
          "type": "uint256"
        }
      ],
      "stateMutability": "view",
      "type": "function"
    },
    {
      "inputs": [],
      "name": "s_vrfCoordinator",
      "outputs": [
        {
          "internalType": "contract IVRFCoordinatorV2Plus",
          "name": "",
          "type": "address"
        }
      ],
      "stateMutability": "view",
      "type": "function"
    },
    {
      "inputs": [
        {
          "internalType": "bool",
          "name": "enabled",
          "type": "bool"
        }
      ],
      "name": "setAutomationNativePayment",
      "outputs": [],
      "stateMutability": "nonpayable",
      "type": "function"
    },
    {
      "inputs": [
        {
          "internalType": "uint32",
          "name": "_callbackGasLimit",
          "type": "uint32"
        }
      ],
      "name": "setCallbackGasLimit",
      "outputs": [],
      "stateMutability": "nonpayable",
      "type": "function"
    },
    {
      "inputs": [
        {
          "internalType": "bytes32",
          "name": "_keyHash",
          "type": "bytes32"
        }
      ],
      "name": "setKeyHash",
      "outputs": [],
      "stateMutability": "nonpayable",
      "type": "function"
    },
    {
      "inputs": [
        {
          "internalType": "uint32",
          "name": "_numWords",
          "type": "uint32"
        }
      ],
      "name": "setNumWords",
      "outputs": [],
      "stateMutability": "nonpayable",
      "type": "function"
    },
    {
      "inputs": [
        {
          "internalType": "uint16",
          "name": "_requestConfirmations",
          "type": "uint16"
        }
      ],
      "name": "setRequestConfirmations",
      "outputs": [],
      "stateMutability": "nonpayable",
      "type": "function"
    },
    {
      "inputs": [
        {
          "internalType": "uint256",
          "name": "time",
          "type": "uint256"
        }
      ],
      "name": "setRoundDuration",
      "outputs": [],
      "stateMutability": "nonpayable",
      "type": "function"
    },
    {
      "inputs": [
        {
          "internalType": "uint256",
          "name": "_subscriptionId",
          "type": "uint256"
        }
      ],
      "name": "setSubscriptionId",
      "outputs": [],
      "stateMutability": "nonpayable",
      "type": "function"
    },
    {
      "inputs": [
        {
          "internalType": "uint256",
          "name": "price",
          "type": "uint256"
        }
      ],
      "name": "setTicketPrice",
      "outputs": [],
      "stateMutability": "nonpayable",
      "type": "function"
    },
    {
      "inputs": [],
      "name": "startRound",
      "outputs": [],
      "stateMutability": "nonpayable",
      "type": "function"
    },
    {
      "inputs": [],
      "name": "subscriptionId",
      "outputs": [
        {
          "internalType": "uint256",
          "name": "",
          "type": "uint256"
        }
      ],
      "stateMutability": "view",
      "type": "function"
    },
    {
      "inputs": [
        {
          "internalType": "address",
          "name": "newOwner",
          "type": "address"
        }
      ],
      "name": "transferOwnership",
      "outputs": [],
      "stateMutability": "nonpayable",
      "type": "function"
    },
    {
      "inputs": [
        {
          "internalType": "address",
          "name": "newCoordinator",
          "type": "address"
        }
      ],
      "name": "updateCoordinator",
      "outputs": [],
      "stateMutability": "nonpayable",
      "type": "function"
    },
    {
      "inputs": [
        {
          "internalType": "address",
          "name": "newImplementation",
          "type": "address"
        }
      ],
      "name": "upgradeTo",
      "outputs": [],
      "stateMutability": "nonpayable",
      "type": "function"
    },
    {
      "inputs": [
        {
          "internalType": "address",
          "name": "newImplementation",
          "type": "address"
        },
        {
          "internalType": "bytes",
          "name": "data",
          "type": "bytes"
        }
      ],
      "name": "upgradeToAndCall",
      "outputs": [],
      "stateMutability": "payable",
      "type": "function"
    },
    {
      "inputs": [
        {
          "internalType": "uint256",
          "name": "",
          "type": "uint256"
        }
      ],
      "name": "winningNumbers",
      "outputs": [
        {
          "internalType": "uint8",
          "name": "",
          "type": "uint8"
        }
      ],
      "stateMutability": "view",
      "type": "function"
    },
    {
      "inputs": [],
      "name": "withdrawOwnerFees",
      "outputs": [],
      "stateMutability": "nonpayable",
      "type": "function"
    },
    {
      "inputs": [],
      "name": "withdrawReward",
      "outputs": [],
      "stateMutability": "nonpayable",
      "type": "function"
    },
    {
      "stateMutability": "payable",
      "type": "receive"
    }
  ],
  "bytecode": "0x60a0604052306080523480156200001557600080fd5b506200002062000026565b620000e7565b600054610100900460ff1615620000935760405162461bcd60e51b815260206004820152602760248201527f496e697469616c697a61626c653a20636f6e747261637420697320696e697469604482015266616c697a696e6760c81b606482015260840160405180910390fd5b60005460ff90811614620000e5576000805460ff191660ff9081179091556040519081527f7f26b83ff96e1f2b6a682f133852f6798a09c465da95921460cefb38474024989060200160405180910390a15b565b608051613e1b6200011f60003960008181610ea501528181610f2a015281816115e80152818161166d01526117570152613e1b6000f3fe6080604052600436106103435760003560e01c806384350e1d116101b0578063c1e0d236116100ec578063e1a4521811610095578063f30c07d31161006f578063f30c07d314610a24578063f7cb789a14610a44578063f9f94e3414610a5a578063fc2a88c314610a7a57600080fd5b8063e1a45218146109d9578063ec918b65146109ef578063f2fde38b14610a0457600080fd5b8063c88e1561116100c6578063c88e15611461095e578063d88d27d61461097e578063d8a4676f146109ab57600080fd5b8063c1e0d236146108fc578063c42890701461091c578063c885bc581461094957600080fd5b80639cbe5efd11610159578063a4eb718c11610133578063a4eb718c14610876578063b0fb162f14610896578063b28f6ef1146108cc578063b368ba42146108e257600080fd5b80639cbe5efd1461080f5780639eccacf614610825578063a426e4c81461084557600080fd5b80638da5cb5b1161018a5780638da5cb5b1461079d578063900fc869146107cf57806398544710146107ef57600080fd5b806384350e1d146106dc5780638824f5a7146106f15780638c65c81f1461071157600080fd5b80633c51c7bb1161027f57806361728f3911610228578063715018a611610202578063715018a6146106305780637ccfd7fc1461064557806381d12c581461066c57806382fbc5c2146106bc57600080fd5b806361728f39146105bf57806364069e71146105d55780636e04ff0d1461060257600080fd5b80634f1ef286116102595780634f1ef2861461058257806352d1902d1461059557806355e3f086146105aa57600080fd5b80633c51c7bb1461051a5780634585e33b146105305780634e45f0951461055057600080fd5b806324f74697116102ec5780633659cfe6116102c65780633659cfe6146104a557806336c92c3f146104c557806339e7397b146104e55780633c256b24146104f857600080fd5b806324f746971461043057806325c5d34a1461046257806331d7a2621461047857600080fd5b80630a9ef34c1161031d5780630a9ef34c146103d957806315981650146103f05780631fe543e31461041057600080fd5b8063072ea61c1461034f578063073c74f31461037857806309c1ba2e146103c357600080fd5b3661034a57005b600080fd5b34801561035b57600080fd5b5061036560d95481565b6040519081526020015b60405180910390f35b34801561038457600080fd5b506103b361039336600461369b565b60dc60209081526000928352604080842090915290825290205460ff1681565b604051901515815260200161036f565b3480156103cf57600080fd5b5061036560ca5481565b3480156103e557600080fd5b506103ee610a90565b005b3480156103fc57600080fd5b506103ee61040b3660046136c7565b610be8565b34801561041c57600080fd5b506103ee61042b3660046136e0565b610c45565b34801561043c57600080fd5b5060cc5461044d9063ffffffff1681565b60405163ffffffff909116815260200161036f565b34801561046e57600080fd5b506103656103e881565b34801561048457600080fd5b5061036561049336600461375f565b60d56020526000908152604090205481565b3480156104b157600080fd5b506103ee6104c036600461375f565b610e9b565b3480156104d157600080fd5b506103ee6104e03660046136c7565b611016565b6103ee6104f336600461377a565b611073565b34801561050457600080fd5b5061050d6113cf565b60405161036f91906137dd565b34801561052657600080fd5b5061036560d75481565b34801561053c57600080fd5b506103ee61054b3660046137f0565b611427565b34801561055c57600080fd5b5061057061056b3660046136c7565b6115b4565b60405160ff909116815260200161036f565b6103ee610590366004613878565b6115de565b3480156105a157600080fd5b5061036561174a565b3480156105b657600080fd5b506103ee61180f565b3480156105cb57600080fd5b5061036560cb5481565b3480156105e157600080fd5b506105f56105f03660046136c7565b611821565b60405161036f9190613960565b34801561060e57600080fd5b5061062261061d3660046137f0565b611885565b60405161036f9291906139be565b34801561063c57600080fd5b506103ee6118f2565b34801561065157600080fd5b5060cc5461044d906601000000000000900463ffffffff1681565b34801561067857600080fd5b506106a56106873660046136c7565b60d06020526000908152604090205460ff8082169161010090041682565b60408051921515835290151560208301520161036f565b3480156106c857600080fd5b506105706106d73660046139d9565b611904565b3480156106e857600080fd5b506105f561193d565b3480156106fd57600080fd5b506103ee61070c3660046139fb565b611995565b34801561071d57600080fd5b5061076861072c3660046136c7565b60d260205260009081526040902080546001820154600283015460039093015460ff808416946101008504821694620100009004909116929186565b6040805196151587529415156020870152921515938501939093526060840152608083019190915260a082015260c00161036f565b3480156107a957600080fd5b506033546001600160a01b03165b6040516001600160a01b03909116815260200161036f565b3480156107db57600080fd5b506103656107ea3660046136c7565b6119c1565b3480156107fb57600080fd5b506103ee61080a3660046136c7565b6119e2565b34801561081b57600080fd5b5061036560d85481565b34801561083157600080fd5b5060c9546107b7906001600160a01b031681565b34801561085157600080fd5b506108656108603660046139d9565b6119ef565b60405161036f959493929190613a1f565b34801561088257600080fd5b506103ee610891366004613a5f565b611ac1565b3480156108a257600080fd5b5060cc546108b990640100000000900461ffff1681565b60405161ffff909116815260200161036f565b3480156108d857600080fd5b5061036560d65481565b3480156108ee57600080fd5b5060db546103b39060ff1681565b34801561090857600080fd5b506103ee6109173660046136c7565b611ae5565b34801561092857600080fd5b506103656109373660046136c7565b600090815260d3602052604090205490565b34801561095557600080fd5b506103ee611af2565b34801561096a57600080fd5b506103ee610979366004613a85565b611c28565b34801561098a57600080fd5b506103656109993660046136c7565b60d16020526000908152604090205481565b3480156109b757600080fd5b506109cb6109c63660046136c7565b611c43565b60405161036f929190613aa7565b3480156109e557600080fd5b5061036561271081565b3480156109fb57600080fd5b506103ee611d1d565b348015610a1057600080fd5b506103ee610a1f36600461375f565b611e11565b348015610a3057600080fd5b506103ee610a3f366004613a5f565b611e9e565b348015610a5057600080fd5b5061036560da5481565b348015610a6657600080fd5b506103ee610a7536600461375f565b611f28565b348015610a8657600080fd5b5061036560cd5481565b610a98611f5f565b60d65480610aed5760405162461bcd60e51b815260206004820152600d60248201527f4e6f206f776e657220666565730000000000000000000000000000000000000060448201526064015b60405180910390fd5b600060d68190556033546040516001600160a01b039091169083908381818185875af1925050503d8060008114610b40576040519150601f19603f3d011682016040523d82523d6000602084013e610b45565b606091505b5050905080610b965760405162461bcd60e51b815260206004820152601960248201527f4f776e657220666565207472616e73666572206661696c6564000000000000006044820152606401610ae4565b6033546001600160a01b03166001600160a01b03167f8c86225979e924f39334c49a16a32e53ca5ffe7a271a6793b57476cd62749d0583604051610bdc91815260200190565b60405180910390a25050565b610bf0611f5f565b60008111610c405760405162461bcd60e51b815260206004820152601160248201527f5072696365206d757374206265203e20300000000000000000000000000000006044820152606401610ae4565b60d955565b60c9546001600160a01b03163314610c9f5760405162461bcd60e51b815260206004820152601c60248201527f4f6e6c7920636f6f7264696e61746f722063616e2066756c66696c6c000000006044820152606401610ae4565b600083815260d0602052604090205460ff16610cfd5760405162461bcd60e51b815260206004820152601160248201527f52657175657374206e6f7420666f756e640000000000000000000000000000006044820152606401610ae4565b600083815260d060205260409020805461ff001916610100178155610d269060010183836134c7565b50610d3360ce83836134c7565b50600083815260d1602052604081205490819003610d935760405162461bcd60e51b815260206004820152601060248201527f526f756e64206e6f74206c696e6b6564000000000000000000000000000000006044820152606401610ae4565b610d9d8383611fb9565b610dab9060cf906007613512565b50600081815260d460205260409020610dc79060cf60076135a0565b507ffe2e2d779dba245964d4e3ef9b994be63856fd568bf7d3ca9e224755cb1bd54d848484604051610dfb93929190613ac2565b60405180910390a17f65a3cadf20a29471ee7bc9e1bf93b5f513a619fcfffc0bcab66d7cbae1045cb1848260cf604051610e3793929190613b1b565b60405180910390a16040805160e0810191829052610e959183919060cf90600790826000855b825461010083900a900460ff16815260206001928301818104948501949093039092029101808411610e5d57905050505050506120fc565b50505050565b6001600160a01b037f0000000000000000000000000000000000000000000000000000000000000000163003610f285760405162461bcd60e51b815260206004820152602c60248201527f46756e6374696f6e206d7573742062652063616c6c6564207468726f7567682060448201526b19195b1959d85d1958d85b1b60a21b6064820152608401610ae4565b7f00000000000000000000000000000000000000000000000000000000000000006001600160a01b0316610f837f360894a13ba1a3210667c828492db98dca3e2076cc3735a920a3ca505d382bbc546001600160a01b031690565b6001600160a01b031614610fee5760405162461bcd60e51b815260206004820152602c60248201527f46756e6374696f6e206d7573742062652063616c6c6564207468726f7567682060448201526b6163746976652070726f787960a01b6064820152608401610ae4565b610ff7816126de565b60408051600080825260208201909252611013918391906126e6565b50565b61101e611f5f565b6000811161106e5760405162461bcd60e51b815260206004820152601460248201527f4475726174696f6e206d757374206265203e20300000000000000000000000006044820152606401610ae4565b60da55565b60d95434146110c45760405162461bcd60e51b815260206004820152601360248201527f496e636f727265637420656e74727920666565000000000000000000000000006044820152606401610ae4565b6110cd8161288b565b60d854600090815260d260205260409020805460ff166111215760405162461bcd60e51b815260206004820152600f60248201526e139bc81858dd1a5d99481c9bdd5b99608a1b6044820152606401610ae4565b8054610100900460ff16156111785760405162461bcd60e51b815260206004820152601660248201527f4472617720616c726561647920726571756573746564000000000000000000006044820152606401610ae4565b806002015442106111cb5760405162461bcd60e51b815260206004820152600d60248201527f526f756e642065787069726564000000000000000000000000000000000000006044820152606401610ae4565b60d854600090815260dc6020908152604080832033845290915290205460ff16156112385760405162461bcd60e51b815260206004820152601a60248201527f416c726561647920656e7465726564207468697320726f756e640000000000006044820152606401610ae4565b60d854600090815260dc602090815260408083203384529091528120805460ff19166001179055600382018054349290611273908490613bc0565b909155505060d854600090815260d36020908152604091829020825160a081018452338152835160e0818101909552919390928301919086906007908390839080828437600092018290525092845250506020808301829052604083018290526060909201819052835460018082018655948252908290208351600490920201805473ffffffffffffffffffffffffffffffffffffffff19166001600160a01b039092169190911781559082015191929091611333918301906007613512565b50604082810151600283018054606086015160ff166101000261ff00199315159390931661ffff199091161791909117905560809092015160039091015560d854600081815260d360205291909120543391907f72c7c6a525d2c132932b4fc43ae4bb642b552692d21f5bedeb662e34b564e8e8906113b490600190613bd3565b856040516113c3929190613bf7565b60405180910390a35050565b606060ce80548060200260200160405190810160405280929190818152602001828054801561141d57602002820191906000526020600020905b815481526020019060010190808311611409575b5050505050905090565b6000611435828401846136c7565b60d854600081815260d26020526040902091925082146114975760405162461bcd60e51b815260206004820152600c60248201527f5374616c652075706b65657000000000000000000000000000000000000000006044820152606401610ae4565b805460ff166114da5760405162461bcd60e51b815260206004820152600f60248201526e139bc81858dd1a5d99481c9bdd5b99608a1b6044820152606401610ae4565b8054610100900460ff16156115315760405162461bcd60e51b815260206004820152601660248201527f4472617720616c726561647920726571756573746564000000000000000000006044820152606401610ae4565b80600201544210156115855760405162461bcd60e51b815260206004820152601260248201527f526f756e64207374696c6c2061637469766500000000000000000000000000006044820152606401610ae4565b60d854600090815260d3602052604081205490036115a557610e95612a2d565b6115ad612ba0565b5050505050565b60cf81600781106115c457600080fd5b60209182820401919006915054906101000a900460ff1681565b6001600160a01b037f000000000000000000000000000000000000000000000000000000000000000016300361166b5760405162461bcd60e51b815260206004820152602c60248201527f46756e6374696f6e206d7573742062652063616c6c6564207468726f7567682060448201526b19195b1959d85d1958d85b1b60a21b6064820152608401610ae4565b7f00000000000000000000000000000000000000000000000000000000000000006001600160a01b03166116c67f360894a13ba1a3210667c828492db98dca3e2076cc3735a920a3ca505d382bbc546001600160a01b031690565b6001600160a01b0316146117315760405162461bcd60e51b815260206004820152602c60248201527f46756e6374696f6e206d7573742062652063616c6c6564207468726f7567682060448201526b6163746976652070726f787960a01b6064820152608401610ae4565b61173a826126de565b611746828260016126e6565b5050565b6000306001600160a01b037f000000000000000000000000000000000000000000000000000000000000000016146117ea5760405162461bcd60e51b815260206004820152603860248201527f555550535570677261646561626c653a206d757374206e6f742062652063616c60448201527f6c6564207468726f7567682064656c656761746563616c6c00000000000000006064820152608401610ae4565b507f360894a13ba1a3210667c828492db98dca3e2076cc3735a920a3ca505d382bbc90565b611817611f5f565b61181f612dbb565b565b6118296135d3565b600082815260d46020526040808220815160e08101928390529290916007918390855b825461010083900a900460ff1681526020600192830181810494850194909303909202910180841161184c575094979650505050505050565b60d854600090815260d26020526040812080546060919060ff1680156118b257508054610100900460ff16155b80156118c2575080600201544210155b925060d8546040516020016118d991815260200190565b6040516020818303038152906040529150509250929050565b6118fa611f5f565b61181f6000612f4f565b60d4602052816000526040600020816007811061192057600080fd5b602081049091015460ff601f9092166101000a9004169150829050565b6119456135d3565b6040805160e08101918290529060cf90600790826000855b825461010083900a900460ff1681526020600192830181810494850194909303909202910180841161195d5790505050505050905090565b61199d611f5f565b60cc805461ffff9092166401000000000265ffff0000000019909216919091179055565b60ce81815481106119d157600080fd5b600091825260209091200154905081565b6119ea611f5f565b60cb55565b60006119f96135d3565b60008060008060d360008981526020019081526020016000208781548110611a2357611a23613c3a565b6000918252602082206004909102018054600282015460038301546040805160e08101918290529496506001600160a01b0390931694600187019460ff808516956101009095041693909186916007918390855b825461010083900a900460ff16815260206001928301818104948501949093039092029101808411611a775790505050505050935095509550955095509550509295509295909350565b611ac9611f5f565b60cc805463ffffffff191663ffffffff92909216919091179055565b611aed611f5f565b60ca55565b33600090815260d5602052604090205480611b4f5760405162461bcd60e51b815260206004820152601360248201527f4e6f2072657761726420617661696c61626c65000000000000000000000000006044820152606401610ae4565b33600081815260d560205260408082208290555190919083908381818185875af1925050503d8060008114611ba0576040519150601f19603f3d011682016040523d82523d6000602084013e611ba5565b606091505b5050905080611bf65760405162461bcd60e51b815260206004820152601660248201527f526577617264207472616e73666572206661696c6564000000000000000000006044820152606401610ae4565b60405182815233907f1d3eee4ca001cff39eec6ec7615aacf2f2bd61791273830728ba00ccbd6e133790602001610bdc565b611c30611f5f565b60db805460ff1916911515919091179055565b600081815260d0602052604081205460609060ff16611ca45760405162461bcd60e51b815260206004820152601160248201527f52657175657374206e6f7420666f756e640000000000000000000000000000006044820152606401610ae4565b600083815260d060209081526040918290208054600182018054855181860281018601909652808652929461010090920460ff169390928391830182828015611d0c57602002820191906000526020600020905b815481526020019060010190808311611cf8575b505050505090509250925050915091565b600054600390610100900460ff16158015611d3f575060005460ff8083169116105b611db15760405162461bcd60e51b815260206004820152602e60248201527f496e697469616c697a61626c653a20636f6e747261637420697320616c72656160448201527f647920696e697469616c697a65640000000000000000000000000000000000006064820152608401610ae4565b6000805461ffff191660ff831617610100179055611dcd612fae565b6000805461ff001916905560405160ff821681527f7f26b83ff96e1f2b6a682f133852f6798a09c465da95921460cefb38474024989060200160405180910390a150565b611e19611f5f565b6001600160a01b038116611e955760405162461bcd60e51b815260206004820152602660248201527f4f776e61626c653a206e6577206f776e657220697320746865207a65726f206160448201527f64647265737300000000000000000000000000000000000000000000000000006064820152608401610ae4565b61101381612f4f565b611ea6611f5f565b60008163ffffffff1611611efc5760405162461bcd60e51b815260206004820152601460248201527f6e756d576f726473206d757374206265203e20300000000000000000000000006044820152606401610ae4565b60cc805463ffffffff90921666010000000000000269ffffffff00000000000019909216919091179055565b611f30611f5f565b60c9805473ffffffffffffffffffffffffffffffffffffffff19166001600160a01b0392909216919091179055565b6033546001600160a01b0316331461181f5760405162461bcd60e51b815260206004820181905260248201527f4f776e61626c653a2063616c6c6572206973206e6f7420746865206f776e65726044820152606401610ae4565b611fc16135d3565b611fc96135f1565b6000805b60078210156120e95760005b8581108015611fe85750600783105b156120e3576000603188888481811061200357612003613c3a565b9050602002013584604051602001612025929190918252602082015260400190565b6040516020818303038152906040528051906020012060001c6120489190613c66565b612053906001613bc0565b9050848160ff166032811061206a5761206a613c3a565b60200201516120c2576001858260ff166032811061208a5761208a613c3a565b91151560209092020152808685600781106120a7576120a7613c3a565b60ff9092166020929092020152836120be81613c7a565b9450505b826120cc81613c7a565b9350505080806120db90613c7a565b915050611fd9565b50611fcd565b6120f284613034565b5050505b92915050565b600082815260d260205260409020805460ff1661215b5760405162461bcd60e51b815260206004820152601060248201527f526f756e64206e6f7420616374697665000000000000000000000000000000006044820152606401610ae4565b8054610100900460ff166121b15760405162461bcd60e51b815260206004820152601260248201527f44726177206e6f742072657175657374656400000000000000000000000000006044820152606401610ae4565b805462010000900460ff16156122095760405162461bcd60e51b815260206004820152601560248201527f526f756e6420616c726561647920736574746c656400000000000000000000006044820152606401610ae4565b600083815260d3602052604090208054612221613610565b60005b828110156123275760006122a685838154811061224357612243613c3a565b6000918252602082206040805160e081019182905293600490930290910160010191600791908390855b825461010083900a900460ff1681526020600192830181810494850194909303909202910180841161226d57905050505050508861312b565b9050808583815481106122bb576122bb613c3a565b600091825260209091206004909102016002908101805461ff00191661010060ff948516021790559082161061231457828160ff166008811061230057612300613c3a565b6020020180519061231082613c7a565b9052505b508061231f81613c7a565b915050612224565b5060006127106103e8866003015461233f9190613c93565b6123499190613caa565b9050600081866003015461235d9190613bd3565b90506000612369613610565b6064612376846005613c93565b6123809190613caa565b6040820152606461239284600a613c93565b61239c9190613caa565b606082015260646123ae84600f613c93565b6123b89190613caa565b608082015260646123ca846014613c93565b6123d49190613caa565b60a082015260646123e6846014613c93565b6123f09190613caa565b60c0820152606461240284601e613c93565b61240c9190613caa565b60e0820152612419613610565b60025b60078160ff16116124df576000878260ff166008811061243e5761243e613c3a565b602002015111156124a657868160ff166008811061245e5761245e613c3a565b6020020151838260ff166008811061247857612478613c3a565b60200201516124879190613caa565b828260ff166008811061249c5761249c613c3a565b60200201526124cd565b828160ff16600881106124bb576124bb613c3a565b60200201516124ca9085613bc0565b93505b806124d781613cbe565b91505061241c565b5060005b8781101561264b5760008982815481106124ff576124ff613c3a565b60009182526020909120600260049092020181015460ff6101009091041691508110612638576000838260ff166008811061253c5761253c613c3a565b60200201519050808b848154811061255657612556613c3a565b9060005260206000209060040201600301819055508060d560008d868154811061258257612582613c3a565b600091825260208083206004909202909101546001600160a01b03168352820192909252604001812080549091906125bb908490613bc0565b925050819055508a83815481106125d4576125d4613c3a565b6000918252602091829020600490910201546040805186815260ff86169381019390935282018390526001600160a01b0316908f907faf8d69c5bf84763f900b51e0405fdc2ad4eaf8b44698617a07ae9c31bc41204c9060600160405180910390a3505b508061264381613c7a565b9150506124e3565b508460d6600082825461265e9190613bc0565b925050819055508260d760008282546126779190613bc0565b9091555050885462ff00ff1916620100001789556040518b907fb8ca8b8466fca767994635dc37682d654da89bf89d11de69e1025ccdb2cdfee5906126c1908d9089908890613cdd565b60405180910390a26126d1612dbb565b5050505050505050505050565b611013611f5f565b7f4910fdfa16fed3260ed0e7147f7cc6da11a60208b5b9406d12a635614ffd91435460ff161561271e57612719836131aa565b505050565b826001600160a01b03166352d1902d6040518163ffffffff1660e01b8152600401602060405180830381865afa925050508015612778575060408051601f3d908101601f1916820190925261277591810190613cfe565b60015b6127ea5760405162461bcd60e51b815260206004820152602e60248201527f45524331393637557067726164653a206e657720696d706c656d656e7461746960448201527f6f6e206973206e6f7420555550530000000000000000000000000000000000006064820152608401610ae4565b7f360894a13ba1a3210667c828492db98dca3e2076cc3735a920a3ca505d382bbc811461287f5760405162461bcd60e51b815260206004820152602960248201527f45524331393637557067726164653a20756e737570706f727465642070726f7860448201527f6961626c655555494400000000000000000000000000000000000000000000006064820152608401610ae4565b50612719838383613275565b6128936135f1565b60005b60078110156127195760018382600781106128b3576128b3613c3a565b6020020160208101906128c69190613d17565b60ff16101580156128ff575060318382600781106128e6576128e6613c3a565b6020020160208101906128f99190613d17565b60ff1611155b61294b5760405162461bcd60e51b815260206004820152601360248201527f4e756d626572206f7574206f662072616e6765000000000000000000000000006044820152606401610ae4565b8183826007811061295e5761295e613c3a565b6020020160208101906129719190613d17565b60ff166032811061298457612984613c3a565b6020020151156129d65760405162461bcd60e51b815260206004820152601c60248201527f4475706c6963617465206e756d626572206e6f7420616c6c6f776564000000006044820152606401610ae4565b6001828483600781106129eb576129eb613c3a565b6020020160208101906129fe9190613d17565b60ff1660328110612a1157612a11613c3a565b9115156020909202015280612a2581613c7a565b915050612896565b60d854600090815260d260205260409020805460ff16612a815760405162461bcd60e51b815260206004820152600f60248201526e139bc81858dd1a5d99481c9bdd5b99608a1b6044820152606401610ae4565b8054610100900460ff1615612ad85760405162461bcd60e51b815260206004820152601660248201527f4472617720616c726561647920726571756573746564000000000000000000006044820152606401610ae4565b8060020154421015612b2c5760405162461bcd60e51b815260206004820152601260248201527f526f756e64207374696c6c2061637469766500000000000000000000000000006044820152606401610ae4565b806003015460d76000828254612b429190613bc0565b9091555050805462ff00ff19166201000017815560d85460038201546040517f3fd1c85cda6246c06e5680d9888d379fe80d0234f53064ba2f3e3ef7698dfd4b91612b909190815260200190565b60405180910390a2611013612dbb565b60d854600090815260d26020908152604080832060c954825160c08101845260cb54815260ca548186015260cc5461ffff6401000000008204168286015263ffffffff80821660608401526601000000000000909104166080820152835194850190935260db5460ff161515845290926001600160a01b0390911691639b1c385e9160a0820190612c309061329a565b8152506040518263ffffffff1660e01b8152600401612c4f9190613d32565b6020604051808303816000875af1158015612c6e573d6000803e3d6000fd5b505050506040513d601f19601f82011682018060405250810190612c929190613cfe565b604080516060810182526001808252600060208084018281528551838152808301875285870190815287845260d083529590922084518154935161ffff1990941690151561ff00191617610100931515939093029290921782559351805195975092949093612d069392850192019061362f565b505060d854600084815260d160209081526040918290209290925560cd859055835461010061ff001990911617845560cc548151868152660100000000000090910463ffffffff16928101929092527fcc58b13ad3eab50626c6a6300b1d139cd6ebb1688a7cced9461c2f7e762665ee92500160405180910390a160d8546040518381527fc67dda8e11f1aa941c7e74466b1859a07a32f46aaf641d29b83be348424d93cd9060200160405180910390a25090565b60d8541580612ddc575060d854600090815260d2602052604090205460ff16155b612e285760405162461bcd60e51b815260206004820152601a60248201527f43757272656e7420726f756e64207374696c6c206163746976650000000000006044820152606401610ae4565b60d88054906000612e3883613c7a565b91905055506040518060c0016040528060011515815260200160001515815260200160001515815260200142815260200160da5442612e779190613bc0565b815260d75460209182015260d88054600090815260d283526040908190208451815494860151928601511515620100000262ff0000199315156101000261ff00199215159290921661ffff19909616959095171791909116929092178255606083015160018301556080830151600283015560a0909201516003909101555460da547ffd9d17e5565deea3d25918d95fc398673b9445ef0a96d12eaf3ab2b198756c65904290612f279082613bc0565b60d7546040805193845260208401929092529082015260600160405180910390a2600060d755565b603380546001600160a01b0383811673ffffffffffffffffffffffffffffffffffffffff19831681179093556040519116919082907f8be0079c531659141344cd1fd0a4f28419497f9722a3daafe3b4186f6b6457e090600090a35050565b600054610100900460ff1661302b5760405162461bcd60e51b815260206004820152602b60248201527f496e697469616c697a61626c653a20636f6e7472616374206973206e6f74206960448201527f6e697469616c697a696e670000000000000000000000000000000000000000006064820152608401610ae4565b61181f33612f4f565b60005b600781101561174657600061304d826001613bc0565b90505b60078110156131185782826007811061306b5761306b613c3a565b602002015160ff1683826007811061308557613085613c3a565b602002015160ff1610156131065760008383600781106130a7576130a7613c3a565b602002015190508382600781106130c0576130c0613c3a565b60200201518484600781106130d7576130d7613c3a565b60ff9092166020929092020152808483600781106130f7576130f7613c3a565b60ff9092166020929092020152505b8061311081613c7a565b915050613050565b508061312381613c7a565b915050613037565b6000805b60078160ff1610156131a357828160ff166007811061315057613150613c3a565b602002015160ff16848260ff166007811061316d5761316d613c3a565b602002015160ff160361318c578161318481613cbe565b925050613191565b6131a3565b8061319b81613cbe565b91505061312f565b5092915050565b6001600160a01b0381163b6132275760405162461bcd60e51b815260206004820152602d60248201527f455243313936373a206e657720696d706c656d656e746174696f6e206973206e60448201527f6f74206120636f6e7472616374000000000000000000000000000000000000006064820152608401610ae4565b7f360894a13ba1a3210667c828492db98dca3e2076cc3735a920a3ca505d382bbc805473ffffffffffffffffffffffffffffffffffffffff19166001600160a01b0392909216919091179055565b61327e83613338565b60008251118061328b5750805b1561271957610e958383613378565b60607f92fd13387c7fe7befbc38d303d6468778fb9731bc4583f17d92989c6fcfdeaaa826040516024016132d391511515815260200190565b60408051601f198184030181529190526020810180517bffffffffffffffffffffffffffffffffffffffffffffffffffffffff167fffffffff000000000000000000000000000000000000000000000000000000009093169290921790915292915050565b613341816131aa565b6040516001600160a01b038216907fbc7cd75a20ee27fd9adebab32041f755214dbc6bffa90cc0225b39da2e5c2d3b90600090a250565b606061339d8383604051806060016040528060278152602001613dbf602791396133a4565b9392505050565b6060600080856001600160a01b0316856040516133c19190613d8f565b600060405180830381855af49150503d80600081146133fc576040519150601f19603f3d011682016040523d82523d6000602084013e613401565b606091505b50915091506134128683838761341c565b9695505050505050565b6060831561348b578251600003613484576001600160a01b0385163b6134845760405162461bcd60e51b815260206004820152601d60248201527f416464726573733a2063616c6c20746f206e6f6e2d636f6e74726163740000006044820152606401610ae4565b5081613495565b613495838361349d565b949350505050565b8151156134ad5781518083602001fd5b8060405162461bcd60e51b8152600401610ae49190613dab565b828054828255906000526020600020908101928215613502579160200282015b828111156135025782358255916020019190600101906134e7565b5061350e92915061366a565b5090565b6001830191839082156135025791602002820160005b8382111561356657835183826101000a81548160ff021916908360ff1602179055509260200192600101602081600001049283019260010302613528565b80156135935782816101000a81549060ff0219169055600101602081600001049283019260010302613566565b505061350e92915061366a565b6001830191839082156135025791601f016020900482015b828111156135025782548255916001019190600101906135b8565b6040518060e001604052806007906020820280368337509192915050565b6040518061064001604052806032906020820280368337509192915050565b6040518061010001604052806008906020820280368337509192915050565b828054828255906000526020600020908101928215613502579160200282015b8281111561350257825182559160200191906001019061364f565b5b8082111561350e576000815560010161366b565b80356001600160a01b038116811461369657600080fd5b919050565b600080604083850312156136ae57600080fd5b823591506136be6020840161367f565b90509250929050565b6000602082840312156136d957600080fd5b5035919050565b6000806000604084860312156136f557600080fd5b83359250602084013567ffffffffffffffff8082111561371457600080fd5b818601915086601f83011261372857600080fd5b81358181111561373757600080fd5b8760208260051b850101111561374c57600080fd5b6020830194508093505050509250925092565b60006020828403121561377157600080fd5b61339d8261367f565b600060e0828403121561378c57600080fd5b8260e08301111561379c57600080fd5b50919050565b600081518084526020808501945080840160005b838110156137d2578151875295820195908201906001016137b6565b509495945050505050565b60208152600061339d60208301846137a2565b6000806020838503121561380357600080fd5b823567ffffffffffffffff8082111561381b57600080fd5b818501915085601f83011261382f57600080fd5b81358181111561383e57600080fd5b86602082850101111561385057600080fd5b60209290920196919550909350505050565b634e487b7160e01b600052604160045260246000fd5b6000806040838503121561388b57600080fd5b6138948361367f565b9150602083013567ffffffffffffffff808211156138b157600080fd5b818501915085601f8301126138c557600080fd5b8135818111156138d7576138d7613862565b604051601f8201601f19908116603f011681019083821181831017156138ff576138ff613862565b8160405282815288602084870101111561391857600080fd5b8260208601602083013760006020848301015280955050505050509250929050565b8060005b6007811015610e9557815160ff1684526020938401939091019060010161393e565b60e081016120f6828461393a565b60005b83811015613989578181015183820152602001613971565b50506000910152565b600081518084526139aa81602086016020860161396e565b601f01601f19169290920160200192915050565b82151581526040602082015260006134956040830184613992565b600080604083850312156139ec57600080fd5b50508035926020909101359150565b600060208284031215613a0d57600080fd5b813561ffff8116811461339d57600080fd5b6001600160a01b03861681526101608101613a3d602083018761393a565b93151561010082015260ff929092166101208301526101409091015292915050565b600060208284031215613a7157600080fd5b813563ffffffff8116811461339d57600080fd5b600060208284031215613a9757600080fd5b8135801515811461339d57600080fd5b821515815260406020820152600061349560408301846137a2565b8381526040602082015281604082015260007f07ffffffffffffffffffffffffffffffffffffffffffffffffffffffffffffff831115613b0157600080fd5b8260051b8085606085013791909101606001949350505050565b600061012082019050848252836020830152825460ff8082166040850152808260081c166060850152808260101c166080850152613b6360a08501828460181c1660ff169052565b613b7760c08501828460201c1660ff169052565b613b8b60e08501828460281c1660ff169052565b613ba06101008501828460301c1660ff169052565b5050949350505050565b634e487b7160e01b600052601160045260246000fd5b808201808211156120f6576120f6613baa565b818103818111156120f6576120f6613baa565b803560ff8116811461369657600080fd5b828152610100810160208083018460005b6007811015613c2f5760ff613c1c83613be6565b1683529183019190830190600101613c08565b505050509392505050565b634e487b7160e01b600052603260045260246000fd5b634e487b7160e01b600052601260045260246000fd5b600082613c7557613c75613c50565b500690565b600060018201613c8c57613c8c613baa565b5060010190565b80820281158282048414176120f6576120f6613baa565b600082613cb957613cb9613c50565b500490565b600060ff821660ff8103613cd457613cd4613baa565b60010192915050565b6101208101613cec828661393a565b60e08201939093526101000152919050565b600060208284031215613d1057600080fd5b5051919050565b600060208284031215613d2957600080fd5b61339d82613be6565b60208152815160208201526020820151604082015261ffff60408301511660608201526000606083015163ffffffff80821660808501528060808601511660a0850152505060a083015160c08084015261349560e0840182613992565b60008251613da181846020870161396e565b9190910192915050565b60208152600061339d602083018461399256fe416464726573733a206c6f772d6c6576656c2064656c65676174652063616c6c206661696c6564a26469706673582212209ff24cd3f63fc6491b56d6217ba405c5a5f64991eb2dfffdd8a727ed39a3432364736f6c63430008140033",
  "linkReferences": {},
  "deployedLinkReferences": {}
}