{
  "_format": "hh-sol-artifact-1",
  "contractName": "LotteryRandomTest",
  "sourceName": "contracts/Lottery.sol",
  "abi": [
    {
      "inputs": [
        {
          "internalType": "address",
          "name": "vrfCoordinator",
          "type": "address"
        },
        {
          "internalType": "uint256",
          "name": "_subscriptionId",
          "type": "uint256"
        },
        {
          "internalType": "bytes32",
          "name": "_keyHash",
          "type": "bytes32"
        }
      ],
      "stateMutability": "nonpayable",
      "type": "constructor"
    },
    {
      "inputs": [
        {
          "internalType": "address",
          "name": "have",
          "type": "address"
        },
        {
          "internalType": "address",
          "name": "want",
          "type": "address"
        }
      ],
      "name": "OnlyCoordinatorCanFulfill",
      "type": "error"
    },
    {
      "inputs": [
        {
          "internalType": "address",
          "name": "have",
          "type": "address"
        },
        {
          "internalType": "address",
          "name": "owner",
          "type": "address"
        },
        {
          "internalType": "address",
          "name": "coordinator",
          "type": "address"
        }
      ],
      "name": "OnlyOwnerOrCoordinator",
      "type": "error"
    },
    {
      "inputs": [],
      "name": "ZeroAddress",
      "type": "error"
    },
    {
      "anonymous": false,
      "inputs": [
        {
          "indexed": false,
          "internalType": "address",
          "name": "vrfCoordinator",
          "type": "address"
        }
      ],
      "name": "CoordinatorSet",
      "type": "event"
    },
    {
      "anonymous": false,
      "inputs": [
        {
          "indexed": true,
          "internalType": "address",
          "name": "from",
          "type": "address"
        },
        {
          "indexed": true,
          "internalType": "address",
          "name": "to",
          "type": "address"
        }
      ],
      "name": "OwnershipTransferRequested",
      "type": "event"
    },
    {
      "anonymous": false,
      "inputs": [
        {
          "indexed": true,
          "internalType": "address",
          "name": "from",
          "type": "address"
        },
        {
          "indexed": true,
          "internalType": "address",
          "name": "to",
          "type": "address"
        }
      ],
      "name": "OwnershipTransferred",
      "type": "event"
    },
    {
      "anonymous": false,
      "inputs": [
        {
          "indexed": false,
          "internalType": "uint256",
          "name": "requestId",
          "type": "uint256"
        },
        {
          "indexed": false,
          "internalType": "uint256[]",
          "name": "randomWords",
          "type": "uint256[]"
        }
      ],
      "name": "RequestFulfilled",
      "type": "event"
    },
    {
      "anonymous": false,
      "inputs": [
        {
          "indexed": false,
          "internalType": "uint256",
          "name": "requestId",
          "type": "uint256"
        },
        {
          "indexed": false,
          "internalType": "uint32",
          "name": "numWords",
          "type": "uint32"
        }
      ],
      "name": "RequestSent",
      "type": "event"
    },
    {
      "inputs": [],
      "name": "acceptOwnership",
      "outputs": [],
      "stateMutability": "nonpayable",
      "type": "function"
    },
    {
      "inputs": [],
      "name": "callbackGasLimit",
      "outputs": [
        {
          "internalType": "uint32",
          "name": "",
          "type": "uint32"
        }
      ],
      "stateMutability": "view",
      "type": "function"
    },
    {
      "inputs": [],
      "name": "getLastRandomWords",
      "outputs": [
        {
          "internalType": "uint256[]",
          "name": "",
          "type": "uint256[]"
        }
      ],
      "stateMutability": "view",
      "type": "function"
    },
    {
      "inputs": [
        {
          "internalType": "uint256",
          "name": "requestId",
          "type": "uint256"
        }
      ],
      "name": "getRequestStatus",
      "outputs": [
        {
          "internalType": "bool",
          "name": "fulfilled",
          "type": "bool"
        },
        {
          "internalType": "uint256[]",
          "name": "randomWords",
          "type": "uint256[]"
        }
      ],
      "stateMutability": "view",
      "type": "function"
    },
    {
      "inputs": [],
      "name": "keyHash",
      "outputs": [
        {
          "internalType": "bytes32",
          "name": "",
          "type": "bytes32"
        }
      ],
      "stateMutability": "view",
      "type": "function"
    },
    {
      "inputs": [
        {
          "internalType": "uint256",
          "name": "",
          "type": "uint256"
        }
      ],
      "name": "lastRandomWords",
      "outputs": [
        {
          "internalType": "uint256",
          "name": "",
          "type": "uint256"
        }
      ],
      "stateMutability": "view",
      "type": "function"
    },
    {
      "inputs": [],
      "name": "lastRequestId",
      "outputs": [
        {
          "internalType": "uint256",
          "name": "",
          "type": "uint256"
        }
      ],
      "stateMutability": "view",
      "type": "function"
    },
    {
      "inputs": [],
      "name": "numWords",
      "outputs": [
        {
          "internalType": "uint32",
          "name": "",
          "type": "uint32"
        }
      ],
      "stateMutability": "view",
      "type": "function"
    },
    {
      "inputs": [],
      "name": "owner",
      "outputs": [
        {
          "internalType": "address",
          "name": "",
          "type": "address"
        }
      ],
      "stateMutability": "view",
      "type": "function"
    },
    {
      "inputs": [
        {
          "internalType": "uint256",
          "name": "requestId",
          "type": "uint256"
        },
        {
          "internalType": "uint256[]",
          "name": "randomWords",
          "type": "uint256[]"
        }
      ],
      "name": "rawFulfillRandomWords",
      "outputs": [],
      "stateMutability": "nonpayable",
      "type": "function"
    },
    {
      "inputs": [],
      "name": "requestConfirmations",
      "outputs": [
        {
          "internalType": "uint16",
          "name": "",
          "type": "uint16"
        }
      ],
      "stateMutability": "view",
      "type": "function"
    },
    {
      "inputs": [
        {
          "internalType": "bool",
          "name": "enableNativePayment",
          "type": "bool"
        }
      ],
      "name": "requestRandomWords",
      "outputs": [
        {
          "internalType": "uint256",
          "name": "requestId",
          "type": "uint256"
        }
      ],
      "stateMutability": "nonpayable",
      "type": "function"
    },
    {
      "inputs": [
        {
          "internalType": "uint256",
          "name": "",
          "type": "uint256"
        }
      ],
      "name": "requests",
      "outputs": [
        {
          "internalType": "bool",
          "name": "exists",
          "type": "bool"
        },
        {
          "internalType": "bool",
          "name": "fulfilled",
          "type": "bool"
        }
      ],
      "stateMutability": "view",
      "type": "function"
    },
    {
      "inputs": [],
      "name": "s_vrfCoordinator",
      "outputs": [
        {
          "internalType": "contract IVRFCoordinatorV2Plus",
          "name": "",
          "type": "address"
        }
      ],
      "stateMutability": "view",
      "type": "function"
    },
    {
      "inputs": [
        {
          "internalType": "uint32",
          "name": "_callbackGasLimit",
          "type": "uint32"
        }
      ],
      "name": "setCallbackGasLimit",
      "outputs": [],
      "stateMutability": "nonpayable",
      "type": "function"
    },
    {
      "inputs": [
        {
          "internalType": "address",
          "name": "_vrfCoordinator",
          "type": "address"
        }
      ],
      "name": "setCoordinator",
      "outputs": [],
      "stateMutability": "nonpayable",
      "type": "function"
    },
    {
      "inputs": [
        {
          "internalType": "uint32",
          "name": "_numWords",
          "type": "uint32"
        }
      ],
      "name": "setNumWords",
      "outputs": [],
      "stateMutability": "nonpayable",
      "type": "function"
    },
    {
      "inputs": [
        {
          "internalType": "uint16",
          "name": "_requestConfirmations",
          "type": "uint16"
        }
      ],
      "name": "setRequestConfirmations",
      "outputs": [],
      "stateMutability": "nonpayable",
      "type": "function"
    },
    {
      "inputs": [],
      "name": "subscriptionId",
      "outputs": [
        {
          "internalType": "uint256",
          "name": "",
          "type": "uint256"
        }
      ],
      "stateMutability": "view",
      "type": "function"
    },
    {
      "inputs": [
        {
          "internalType": "address",
          "name": "to",
          "type": "address"
        }
      ],
      "name": "transferOwnership",
      "outputs": [],
      "stateMutability": "nonpayable",
      "type": "function"
    }
  ],
  "bytecode": "0x6080604052600580546001600160501b03191666070003000aae6017905534801561002957600080fd5b506040516111f93803806111f9833981016040819052610048916101d1565b82338060008161009f5760405162461bcd60e51b815260206004820152601860248201527f43616e6e6f7420736574206f776e657220746f207a65726f000000000000000060448201526064015b60405180910390fd5b600080546001600160a01b0319166001600160a01b03848116919091179091558116156100cf576100cf81610128565b5050506001600160a01b0381166100f95760405163d92e233d60e01b815260040160405180910390fd5b600280546001600160a01b0319166001600160a01b039290921691909117905560039190915560045550610214565b336001600160a01b038216036101805760405162461bcd60e51b815260206004820152601760248201527f43616e6e6f74207472616e7366657220746f2073656c660000000000000000006044820152606401610096565b600180546001600160a01b0319166001600160a01b0383811691821790925560008054604051929316917fed8889f560326eb138920d842192f0eb3dd22b4f139c87a2c57538e05bae12789190a350565b6000806000606084860312156101e657600080fd5b83516001600160a01b03811681146101fd57600080fd5b602085015160409095015190969495509392505050565b610fd6806102236000396000f3fe608060405234801561001057600080fd5b506004361061016c5760003560e01c80638da5cb5b116100cd578063b0fb162f11610081578063f2fde38b11610066578063f2fde38b1461032b578063f30c07d31461033e578063fc2a88c31461035157600080fd5b8063b0fb162f146102e1578063d8a4676f1461030a57600080fd5b8063900fc869116100b2578063900fc869146102a85780639eccacf6146102bb578063a4eb718c146102ce57600080fd5b80638da5cb5b146102705780638ea981171461029557600080fd5b80637392a771116101245780637ccfd7fc116101095780637ccfd7fc1461020057806381d12c581461021a5780638824f5a71461025d57600080fd5b80637392a771146101e557806379ba5097146101f857600080fd5b806324f746971161015557806324f74697146101a25780633c256b24146101c757806361728f39146101dc57600080fd5b806309c1ba2e146101715780631fe543e31461018d575b600080fd5b61017a60035481565b6040519081526020015b60405180910390f35b6101a061019b366004610ced565b61035a565b005b6005546101b29063ffffffff1681565b60405163ffffffff9091168152602001610184565b6101cf6103c8565b6040516101849190610da7565b61017a60045481565b61017a6101f3366004610dc1565b610420565b6101a06105d4565b6005546101b2906601000000000000900463ffffffff1681565b610246610228366004610de3565b60086020526000908152604090205460ff8082169161010090041682565b604080519215158352901515602083015201610184565b6101a061026b366004610dfc565b610692565b6000546001600160a01b03165b6040516001600160a01b039091168152602001610184565b6101a06102a3366004610e20565b6106be565b61017a6102b6366004610de3565b6107ef565b60025461027d906001600160a01b031681565b6101a06102dc366004610e49565b610810565b6005546102f790640100000000900461ffff1681565b60405161ffff9091168152602001610184565b61031d610318366004610de3565b610834565b604051610184929190610e6f565b6101a0610339366004610e20565b61092f565b6101a061034c366004610e49565b610943565b61017a60065481565b6002546001600160a01b031633146103b8576002546040517f1cf993f40000000000000000000000000000000000000000000000000000000081523360048201526001600160a01b0390911660248201526044015b60405180910390fd5b6103c38383836109cd565b505050565b6060600780548060200260200160405190810160405280929190818152602001828054801561041657602002820191906000526020600020905b815481526020019060010190808311610402575b5050505050905090565b600061042a610aa2565b6002546040805160c081018252600454815260035460208083019190915260055461ffff6401000000008204168385015263ffffffff80821660608501526601000000000000909104166080830152825190810190925284151582526001600160a01b0390921691639b1c385e9160a08201906104a690610afe565b8152506040518263ffffffff1660e01b81526004016104c59190610e92565b6020604051808303816000875af11580156104e4573d6000803e3d6000fd5b505050506040513d601f19601f820116820180604052508101906105089190610f2e565b6040805160608101825260018082526000602080840182815285518381528083018752858701908152878452600883529590922084518154935161ffff1990941690151561ff0019161761010093151593909302929092178255935180519596509294909361057c93928501920190610c52565b505050600681905560055460408051838152660100000000000090920463ffffffff1660208301527fcc58b13ad3eab50626c6a6300b1d139cd6ebb1688a7cced9461c2f7e762665ee910160405180910390a1919050565b6001546001600160a01b0316331461062e5760405162461bcd60e51b815260206004820152601660248201527f4d7573742062652070726f706f736564206f776e65720000000000000000000060448201526064016103af565b600080543373ffffffffffffffffffffffffffffffffffffffff19808316821784556001805490911690556040516001600160a01b0390921692909183917f8be0079c531659141344cd1fd0a4f28419497f9722a3daafe3b4186f6b6457e091a350565b61069a610aa2565b6005805461ffff9092166401000000000265ffff0000000019909216919091179055565b6000546001600160a01b031633148015906106e457506002546001600160a01b03163314155b1561074e57336106fc6000546001600160a01b031690565b6002546040517f061db9c10000000000000000000000000000000000000000000000000000000081526001600160a01b03938416600482015291831660248301529190911660448201526064016103af565b6001600160a01b03811661078e576040517fd92e233d00000000000000000000000000000000000000000000000000000000815260040160405180910390fd5b6002805473ffffffffffffffffffffffffffffffffffffffff19166001600160a01b0383169081179091556040519081527fd1a6a14209a385a964d036e404cb5cfb71f4000cdb03c9366292430787261be69060200160405180910390a150565b600781815481106107ff57600080fd5b600091825260209091200154905081565b610818610aa2565b6005805463ffffffff191663ffffffff92909216919091179055565b60008181526008602052604081205460609060ff166108955760405162461bcd60e51b815260206004820152601160248201527f52657175657374206e6f7420666f756e6400000000000000000000000000000060448201526064016103af565b60008381526008602090815260408083208151606081018352815460ff808216151583526101009091041615158185015260018201805484518187028101870186528181529295939486019383018282801561091057602002820191906000526020600020905b8154815260200190600101908083116108fc575b5050505050815250509050806020015181604001519250925050915091565b610937610aa2565b61094081610b9c565b50565b61094b610aa2565b60008163ffffffff16116109a15760405162461bcd60e51b815260206004820152601460248201527f6e756d576f726473206d757374206265203e203000000000000000000000000060448201526064016103af565b6005805463ffffffff90921666010000000000000269ffffffff00000000000019909216919091179055565b60008381526008602052604090205460ff16610a2b5760405162461bcd60e51b815260206004820152601160248201527f52657175657374206e6f7420666f756e6400000000000000000000000000000060448201526064016103af565b6000838152600860205260409020805461ff001916610100178155610a54906001018383610c9d565b50610a6160078383610c9d565b507ffe2e2d779dba245964d4e3ef9b994be63856fd568bf7d3ca9e224755cb1bd54d838383604051610a9593929190610f47565b60405180910390a1505050565b6000546001600160a01b03163314610afc5760405162461bcd60e51b815260206004820152601660248201527f4f6e6c792063616c6c61626c65206279206f776e65720000000000000000000060448201526064016103af565b565b60607f92fd13387c7fe7befbc38d303d6468778fb9731bc4583f17d92989c6fcfdeaaa82604051602401610b3791511515815260200190565b60408051601f198184030181529190526020810180517bffffffffffffffffffffffffffffffffffffffffffffffffffffffff167fffffffff000000000000000000000000000000000000000000000000000000009093169290921790915292915050565b336001600160a01b03821603610bf45760405162461bcd60e51b815260206004820152601760248201527f43616e6e6f74207472616e7366657220746f2073656c6600000000000000000060448201526064016103af565b6001805473ffffffffffffffffffffffffffffffffffffffff19166001600160a01b0383811691821790925560008054604051929316917fed8889f560326eb138920d842192f0eb3dd22b4f139c87a2c57538e05bae12789190a350565b828054828255906000526020600020908101928215610c8d579160200282015b82811115610c8d578251825591602001919060010190610c72565b50610c99929150610cd8565b5090565b828054828255906000526020600020908101928215610c8d579160200282015b82811115610c8d578235825591602001919060010190610cbd565b5b80821115610c995760008155600101610cd9565b600080600060408486031215610d0257600080fd5b83359250602084013567ffffffffffffffff80821115610d2157600080fd5b818601915086601f830112610d3557600080fd5b813581811115610d4457600080fd5b8760208260051b8501011115610d5957600080fd5b6020830194508093505050509250925092565b600081518084526020808501945080840160005b83811015610d9c57815187529582019590820190600101610d80565b509495945050505050565b602081526000610dba6020830184610d6c565b9392505050565b600060208284031215610dd357600080fd5b81358015158114610dba57600080fd5b600060208284031215610df557600080fd5b5035919050565b600060208284031215610e0e57600080fd5b813561ffff81168114610dba57600080fd5b600060208284031215610e3257600080fd5b81356001600160a01b0381168114610dba57600080fd5b600060208284031215610e5b57600080fd5b813563ffffffff81168114610dba57600080fd5b8215158152604060208201526000610e8a6040830184610d6c565b949350505050565b6000602080835283518184015280840151604084015261ffff6040850151166060840152606084015163ffffffff80821660808601528060808701511660a0860152505060a084015160c08085015280518060e086015260005b81811015610f095782810184015186820161010001528301610eec565b506101009250600083828701015282601f19601f830116860101935050505092915050565b600060208284031215610f4057600080fd5b5051919050565b8381526040602082015281604082015260007f07ffffffffffffffffffffffffffffffffffffffffffffffffffffffffffffff831115610f8657600080fd5b8260051b808560608501379190910160600194935050505056fea26469706673582212208d297e736cfb1e34085d54c11896231d93b37b3983fe173e2314c1ce640c151d64736f6c63430008140033",
  "linkReferences": {},
  "deployedLinkReferences": {}
}