{
  "_format": "hh-sol-artifact-1",
  "contractName": "SimpleVoting",
  "sourceName": "contracts/Voting.sol",
  "abi": [
    {
      "inputs": [
        {
          "internalType": "string",
          "name": "_option1",
          "type": "string"
        },
        {
          "internalType": "string",
          "name": "_option2",
          "type": "string"
        }
      ],
      "stateMutability": "nonpayable",
      "type": "constructor"
    },
    {
      "anonymous": false,
      "inputs": [
        {
          "indexed": true,
          "internalType": "address",
          "name": "voter",
          "type": "address"
        },
        {
          "indexed": false,
          "internalType": "string",
          "name": "option",
          "type": "string"
        }
      ],
      "name": "Voted",
      "type": "event"
    },
    {
      "inputs": [],
      "name": "option1",
      "outputs": [
        {
          "internalType": "string",
          "name": "",
          "type": "string"
        }
      ],
      "stateMutability": "view",
      "type": "function"
    },
    {
      "inputs": [],
      "name": "option1Votes",
      "outputs": [
        {
          "internalType": "uint256",
          "name": "",
          "type": "uint256"
        }
      ],
      "stateMutability": "view",
      "type": "function"
    },
    {
      "inputs": [],
      "name": "option2",
      "outputs": [
        {
          "internalType": "string",
          "name": "",
          "type": "string"
        }
      ],
      "stateMutability": "view",
      "type": "function"
    },
    {
      "inputs": [],
      "name": "option2Votes",
      "outputs": [
        {
          "internalType": "uint256",
          "name": "",
          "type": "uint256"
        }
      ],
      "stateMutability": "view",
      "type": "function"
    },
    {
      "inputs": [],
      "name": "owner",
      "outputs": [
        {
          "internalType": "address",
          "name": "",
          "type": "address"
        }
      ],
      "stateMutability": "view",
      "type": "function"
    },
    {
      "inputs": [],
      "name": "viewOptions",
      "outputs": [
        {
          "internalType": "string",
          "name": "",
          "type": "string"
        }
      ],
      "stateMutability": "view",
      "type": "function"
    },
    {
      "inputs": [
        {
          "internalType": "uint256",
          "name": "option",
          "type": "uint256"
        }
      ],
      "name": "vote",
      "outputs": [],
      "stateMutability": "nonpayable",
      "type": "function"
    },
    {
      "inputs": [
        {
          "internalType": "address",
          "name": "",
          "type": "address"
        }
      ],
      "name": "voters",
      "outputs": [
        {
          "internalType": "bool",
          "name": "hasVoted",
          "type": "bool"
        },
        {
          "internalType": "string",
          "name": "votedFor",
          "type": "string"
        }
      ],
      "stateMutability": "view",
      "type": "function"
    },
    {
      "inputs": [],
      "name": "winner",
      "outputs": [
        {
          "internalType": "string",
          "name": "",
          "type": "string"
        }
      ],
      "stateMutability": "view",
      "type": "function"
    }
  ],
  "bytecode": "0x60806040523480156200001157600080fd5b5060405162000c8238038062000c82833981016040819052620000349162000131565b600080546001600160a01b0319163317905560046200005483826200022a565b5060056200006382826200022a565b505050620002f6565b634e487b7160e01b600052604160045260246000fd5b600082601f8301126200009457600080fd5b81516001600160401b0380821115620000b157620000b16200006c565b604051601f8301601f19908116603f01168101908282118183101715620000dc57620000dc6200006c565b81604052838152602092508683858801011115620000f957600080fd5b600091505b838210156200011d5785820183015181830184015290820190620000fe565b600093810190920192909252949350505050565b600080604083850312156200014557600080fd5b82516001600160401b03808211156200015d57600080fd5b6200016b8683870162000082565b935060208501519150808211156200018257600080fd5b50620001918582860162000082565b9150509250929050565b600181811c90821680620001b057607f821691505b602082108103620001d157634e487b7160e01b600052602260045260246000fd5b50919050565b601f8211156200022557600081815260208120601f850160051c81016020861015620002005750805b601f850160051c820191505b8181101562000221578281556001016200020c565b5050505b505050565b81516001600160401b038111156200024657620002466200006c565b6200025e816200025784546200019b565b84620001d7565b602080601f8311600181146200029657600084156200027d5750858301515b600019600386901b1c1916600185901b17855562000221565b600085815260208120601f198616915b82811015620002c757888601518255948401946001909101908401620002a6565b5085821015620002e65787850151600019600388901b60f8161c191681555b5050505050600190811b01905550565b61097c80620003066000396000f3fe608060405234801561001057600080fd5b50600436106100a35760003560e01c8063a3ec138d11610076578063b4de23841161005b578063b4de238414610142578063c0db3c601461014b578063dfbf53ae1461015357600080fd5b8063a3ec138d14610119578063ad69ab951461013a57600080fd5b80630121b93f146100a85780634d2c6c12146100bd5780638da5cb5b146100d957806392d2e43814610104575b600080fd5b6100bb6100b6366004610538565b61015b565b005b6100c660025481565b6040519081526020015b60405180910390f35b6000546100ec906001600160a01b031681565b6040516001600160a01b0390911681526020016100d0565b61010c610354565b6040516100d09190610597565b61012c6101273660046105b1565b6103e2565b6040516100d09291906105da565b61010c61048b565b6100c660015481565b61010c610498565b61010c6104c3565b6000546001600160a01b031633036101ba5760405162461bcd60e51b815260206004820152601160248201527f4f776e65722063616e6e6f7420766f746500000000000000000000000000000060448201526064015b60405180910390fd5b336000908152600360205260409020805460ff161561021b5760405162461bcd60e51b815260206004820152600d60248201527f416c726561647920766f7465640000000000000000000000000000000000000060448201526064016101b1565b816001148061022a5750816002145b6102765760405162461bcd60e51b815260206004820152600e60248201527f496e76616c6964206f7074696f6e00000000000000000000000000000000000060448201526064016101b1565b805460ff1916600190811782558290036102f5576001810161029960048261069c565b50600180549060006102aa8361077d565b9190505550336001600160a01b03167fcb6783276e8a4347387036bbfea000268f0a4b1f8c46ac79980609f2af8d2acd60046040516102e991906107a4565b60405180910390a25050565b6001810161030460058261069c565b50600280549060006103158361077d565b9190505550336001600160a01b03167fcb6783276e8a4347387036bbfea000268f0a4b1f8c46ac79980609f2af8d2acd60056040516102e991906107a4565b60048054610361906105fd565b80601f016020809104026020016040519081016040528092919081815260200182805461038d906105fd565b80156103da5780601f106103af576101008083540402835291602001916103da565b820191906000526020600020905b8154815290600101906020018083116103bd57829003601f168201915b505050505081565b6003602052600090815260409020805460018201805460ff9092169291610408906105fd565b80601f0160208091040260200160405190810160405280929190818152602001828054610434906105fd565b80156104815780601f1061045657610100808354040283529160200191610481565b820191906000526020600020905b81548152906001019060200180831161046457829003601f168201915b5050505050905082565b60058054610361906105fd565b6060600460056040516020016104af9291906108a2565b604051602081830303815290604052905090565b606060025460015403610508575060408051808201909152600f81527f4954532041204452415721212121210000000000000000000000000000000000602082015290565b60025460015411156105265760046040516020016104af919061090d565b60056040516020016104af919061090d565b60006020828403121561054a57600080fd5b5035919050565b6000815180845260005b818110156105775760208185018101518683018201520161055b565b506000602082860101526020601f19601f83011685010191505092915050565b6020815260006105aa6020830184610551565b9392505050565b6000602082840312156105c357600080fd5b81356001600160a01b03811681146105aa57600080fd5b82151581526040602082015260006105f56040830184610551565b949350505050565b600181811c9082168061061157607f821691505b60208210810361063157634e487b7160e01b600052602260045260246000fd5b50919050565b634e487b7160e01b600052604160045260246000fd5b601f82111561069757600081815260208120601f850160051c810160208610156106745750805b601f850160051c820191505b8181101561069357828155600101610680565b5050505b505050565b8181036106a7575050565b6106b182546105fd565b67ffffffffffffffff8111156106c9576106c9610637565b6106dd816106d784546105fd565b8461064d565b6000601f82116001811461071157600083156106f95750848201545b600019600385901b1c1916600184901b178455610776565b600085815260209020601f19841690600086815260209020845b8381101561074b578286015482556001958601959091019060200161072b565b50858310156107695781850154600019600388901b60f8161c191681555b50505060018360011b0184555b5050505050565b60006001820161079d57634e487b7160e01b600052601160045260246000fd5b5060010190565b60006020808352600084546107b8816105fd565b808487015260406001808416600081146107d957600181146107f357610821565b60ff1985168984015283151560051b890183019550610821565b896000528660002060005b858110156108195781548b82018601529083019088016107fe565b8a0184019650505b509398975050505050505050565b6000815461083c816105fd565b60018281168015610854576001811461086957610898565b60ff1984168752821515830287019450610898565b8560005260208060002060005b8581101561088f5781548a820152908401908201610876565b50505082870194505b5050505092915050565b7f53656c656374203120666f722000000000000000000000000000000000000000815260006108d4600d83018561082f565b7f206f72202053656c656374203220666f722000000000000000000000000000008152610904601282018561082f565b95945050505050565b6000610919828461082f565b7f2057494e532121212121210000000000000000000000000000000000000000008152600b01939250505056fea2646970667358221220d8e1a572e67ae8638cdd4e9d28bc4a188f6de50f84196f292481ed7cd26afcf364736f6c63430008140033",
  "linkReferences": {},
  "deployedLinkReferences": {}
}