{
  "_format": "hh-sol-artifact-1",
  "contractName": "WinningNumbers",
  "sourceName": "contracts/WinningNumbers.sol",
  "abi": [
    {
      "inputs": [],
      "stateMutability": "nonpayable",
      "type": "constructor"
    },
    {
      "anonymous": false,
      "inputs": [
        {
          "indexed": false,
          "internalType": "address",
          "name": "previousAdmin",
          "type": "address"
        },
        {
          "indexed": false,
          "internalType": "address",
          "name": "newAdmin",
          "type": "address"
        }
      ],
      "name": "AdminChanged",
      "type": "event"
    },
    {
      "anonymous": false,
      "inputs": [
        {
          "indexed": true,
          "internalType": "address",
          "name": "beacon",
          "type": "address"
        }
      ],
      "name": "BeaconUpgraded",
      "type": "event"
    },
    {
      "anonymous": false,
      "inputs": [
        {
          "indexed": false,
          "internalType": "uint8",
          "name": "version",
          "type": "uint8"
        }
      ],
      "name": "Initialized",
      "type": "event"
    },
    {
      "anonymous": false,
      "inputs": [
        {
          "indexed": true,
          "internalType": "address",
          "name": "previousOwner",
          "type": "address"
        },
        {
          "indexed": true,
          "internalType": "address",
          "name": "newOwner",
          "type": "address"
        }
      ],
      "name": "OwnershipTransferred",
      "type": "event"
    },
    {
      "anonymous": false,
      "inputs": [
        {
          "indexed": false,
          "internalType": "uint256",
          "name": "requestId",
          "type": "uint256"
        },
        {
          "indexed": false,
          "internalType": "uint256[]",
          "name": "randomWords",
          "type": "uint256[]"
        }
      ],
      "name": "RequestFulfilled",
      "type": "event"
    },
    {
      "anonymous": false,
      "inputs": [
        {
          "indexed": false,
          "internalType": "uint256",
          "name": "requestId",
          "type": "uint256"
        },
        {
          "indexed": false,
          "internalType": "uint32",
          "name": "numWords",
          "type": "uint32"
        }
      ],
      "name": "RequestSent",
      "type": "event"
    },
    {
      "anonymous": false,
      "inputs": [
        {
          "indexed": true,
          "internalType": "address",
          "name": "implementation",
          "type": "address"
        }
      ],
      "name": "Upgraded",
      "type": "event"
    },
    {
      "anonymous": false,
      "inputs": [
        {
          "indexed": false,
          "internalType": "uint256",
          "name": "requestId",
          "type": "uint256"
        },
        {
          "indexed": false,
          "internalType": "uint8[7]",
          "name": "winningNumbers",
          "type": "uint8[7]"
        }
      ],
      "name": "WinningNumbersGenerated",
      "type": "event"
    },
    {
      "inputs": [],
      "name": "callbackGasLimit",
      "outputs": [
        {
          "internalType": "uint32",
          "name": "",
          "type": "uint32"
        }
      ],
      "stateMutability": "view",
      "type": "function"
    },
    {
      "inputs": [],
      "name": "getLastRandomWords",
      "outputs": [
        {
          "internalType": "uint256[]",
          "name": "",
          "type": "uint256[]"
        }
      ],
      "stateMutability": "view",
      "type": "function"
    },
    {
      "inputs": [
        {
          "internalType": "uint256",
          "name": "requestId",
          "type": "uint256"
        }
      ],
      "name": "getRequestStatus",
      "outputs": [
        {
          "internalType": "bool",
          "name": "fulfilled",
          "type": "bool"
        },
        {
          "internalType": "uint256[]",
          "name": "randomWords",
          "type": "uint256[]"
        }
      ],
      "stateMutability": "view",
      "type": "function"
    },
    {
      "inputs": [],
      "name": "getWinningNumbers",
      "outputs": [
        {
          "internalType": "uint8[7]",
          "name": "",
          "type": "uint8[7]"
        }
      ],
      "stateMutability": "view",
      "type": "function"
    },
    {
      "inputs": [
        {
          "internalType": "address",
          "name": "vrfCoordinator",
          "type": "address"
        },
        {
          "internalType": "uint256",
          "name": "_subscriptionId",
          "type": "uint256"
        },
        {
          "internalType": "bytes32",
          "name": "_keyHash",
          "type": "bytes32"
        }
      ],
      "name": "initialize",
      "outputs": [],
      "stateMutability": "nonpayable",
      "type": "function"
    },
    {
      "inputs": [],
      "name": "keyHash",
      "outputs": [
        {
          "internalType": "bytes32",
          "name": "",
          "type": "bytes32"
        }
      ],
      "stateMutability": "view",
      "type": "function"
    },
    {
      "inputs": [
        {
          "internalType": "uint256",
          "name": "",
          "type": "uint256"
        }
      ],
      "name": "lastRandomWords",
      "outputs": [
        {
          "internalType": "uint256",
          "name": "",
          "type": "uint256"
        }
      ],
      "stateMutability": "view",
      "type": "function"
    },
    {
      "inputs": [],
      "name": "lastRequestId",
      "outputs": [
        {
          "internalType": "uint256",
          "name": "",
          "type": "uint256"
        }
      ],
      "stateMutability": "view",
      "type": "function"
    },
    {
      "inputs": [],
      "name": "numWords",
      "outputs": [
        {
          "internalType": "uint32",
          "name": "",
          "type": "uint32"
        }
      ],
      "stateMutability": "view",
      "type": "function"
    },
    {
      "inputs": [],
      "name": "owner",
      "outputs": [
        {
          "internalType": "address",
          "name": "",
          "type": "address"
        }
      ],
      "stateMutability": "view",
      "type": "function"
    },
    {
      "inputs": [],
      "name": "proxiableUUID",
      "outputs": [
        {
          "internalType": "bytes32",
          "name": "",
          "type": "bytes32"
        }
      ],
      "stateMutability": "view",
      "type": "function"
    },
    {
      "inputs": [
        {
          "internalType": "uint256",
          "name": "requestId",
          "type": "uint256"
        },
        {
          "internalType": "uint256[]",
          "name": "randomWords",
          "type": "uint256[]"
        }
      ],
      "name": "rawFulfillRandomWords",
      "outputs": [],
      "stateMutability": "nonpayable",
      "type": "function"
    },
    {
      "inputs": [],
      "name": "renounceOwnership",
      "outputs": [],
      "stateMutability": "nonpayable",
      "type": "function"
    },
    {
      "inputs": [],
      "name": "requestConfirmations",
      "outputs": [
        {
          "internalType": "uint16",
          "name": "",
          "type": "uint16"
        }
      ],
      "stateMutability": "view",
      "type": "function"
    },
    {
      "inputs": [
        {
          "internalType": "bool",
          "name": "enableNativePayment",
          "type": "bool"
        }
      ],
      "name": "requestRandomWords",
      "outputs": [
        {
          "internalType": "uint256",
          "name": "requestId",
          "type": "uint256"
        }
      ],
      "stateMutability": "nonpayable",
      "type": "function"
    },
    {
      "inputs": [
        {
          "internalType": "uint256",
          "name": "",
          "type": "uint256"
        }
      ],
      "name": "requests",
      "outputs": [
        {
          "internalType": "bool",
          "name": "exists",
          "type": "bool"
        },
        {
          "internalType": "bool",
          "name": "fulfilled",
          "type": "bool"
        }
      ],
      "stateMutability": "view",
      "type": "function"
    },
    {
      "inputs": [],
      "name": "s_vrfCoordinator",
      "outputs": [
        {
          "internalType": "contract IVRFCoordinatorV2Plus",
          "name": "",
          "type": "address"
        }
      ],
      "stateMutability": "view",
      "type": "function"
    },
    {
      "inputs": [
        {
          "internalType": "uint32",
          "name": "_callbackGasLimit",
          "type": "uint32"
        }
      ],
      "name": "setCallbackGasLimit",
      "outputs": [],
      "stateMutability": "nonpayable",
      "type": "function"
    },
    {
      "inputs": [
        {
          "internalType": "bytes32",
          "name": "_keyHash",
          "type": "bytes32"
        }
      ],
      "name": "setKeyHash",
      "outputs": [],
      "stateMutability": "nonpayable",
      "type": "function"
    },
    {
      "inputs": [
        {
          "internalType": "uint32",
          "name": "_numWords",
          "type": "uint32"
        }
      ],
      "name": "setNumWords",
      "outputs": [],
      "stateMutability": "nonpayable",
      "type": "function"
    },
    {
      "inputs": [
        {
          "internalType": "uint16",
          "name": "_requestConfirmations",
          "type": "uint16"
        }
      ],
      "name": "setRequestConfirmations",
      "outputs": [],
      "stateMutability": "nonpayable",
      "type": "function"
    },
    {
      "inputs": [
        {
          "internalType": "uint256",
          "name": "_subscriptionId",
          "type": "uint256"
        }
      ],
      "name": "setSubscriptionId",
      "outputs": [],
      "stateMutability": "nonpayable",
      "type": "function"
    },
    {
      "inputs": [],
      "name": "subscriptionId",
      "outputs": [
        {
          "internalType": "uint256",
          "name": "",
          "type": "uint256"
        }
      ],
      "stateMutability": "view",
      "type": "function"
    },
    {
      "inputs": [
        {
          "internalType": "address",
          "name": "newOwner",
          "type": "address"
        }
      ],
      "name": "transferOwnership",
      "outputs": [],
      "stateMutability": "nonpayable",
      "type": "function"
    },
    {
      "inputs": [
        {
          "internalType": "address",
          "name": "newCoordinator",
          "type": "address"
        }
      ],
      "name": "updateCoordinator",
      "outputs": [],
      "stateMutability": "nonpayable",
      "type": "function"
    },
    {
      "inputs": [
        {
          "internalType": "address",
          "name": "newImplementation",
          "type": "address"
        }
      ],
      "name": "upgradeTo",
      "outputs": [],
      "stateMutability": "nonpayable",
      "type": "function"
    },
    {
      "inputs": [
        {
          "internalType": "address",
          "name": "newImplementation",
          "type": "address"
        },
        {
          "internalType": "bytes",
          "name": "data",
          "type": "bytes"
        }
      ],
      "name": "upgradeToAndCall",
      "outputs": [],
      "stateMutability": "payable",
      "type": "function"
    },
    {
      "inputs": [
        {
          "internalType": "uint256",
          "name": "",
          "type": "uint256"
        }
      ],
      "name": "winningNumbers",
      "outputs": [
        {
          "internalType": "uint8",
          "name": "",
          "type": "uint8"
        }
      ],
      "stateMutability": "view",
      "type": "function"
    }
  ],
  "bytecode": "0x60a06040523060805234801561001457600080fd5b5061001d610022565b6100e1565b600054610100900460ff161561008e5760405162461bcd60e51b815260206004820152602760248201527f496e697469616c697a61626c653a20636f6e747261637420697320696e697469604482015266616c697a696e6760c81b606482015260840160405180910390fd5b60005460ff908116146100df576000805460ff191660ff9081179091556040519081527f7f26b83ff96e1f2b6a682f133852f6798a09c465da95921460cefb38474024989060200160405180910390a15b565b60805161218f62000119600039600081816108af0152818161093401528181610aac01528181610b310152610c1b015261218f6000f3fe6080604052600436106101b75760003560e01c806384350e1d116100ec578063b0fb162f1161008a578063f2fde38b11610064578063f2fde38b1461052f578063f30c07d31461054f578063f9f94e341461056f578063fc2a88c31461058f57600080fd5b8063b0fb162f146104ab578063c1e0d236146104e1578063d8a4676f1461050157600080fd5b8063900fc869116100c6578063900fc8691461042b578063985447101461044b5780639eccacf61461046b578063a4eb718c1461048b57600080fd5b806384350e1d146103b75780638824f5a7146103d95780638da5cb5b146103f957600080fd5b80634f1ef28611610159578063715018a611610133578063715018a61461030b5780637392a771146103205780637ccfd7fc1461034057806381d12c581461036757600080fd5b80634f1ef286146102cd57806352d1902d146102e057806361728f39146102f557600080fd5b806324f746971161019557806324f74697146102275780633659cfe6146102595780633c256b24146102795780634e45f0951461029b57600080fd5b806309c1ba2e146101bc5780631b7ce041146101e55780631fe543e314610207575b600080fd5b3480156101c857600080fd5b506101d260ca5481565b6040519081526020015b60405180910390f35b3480156101f157600080fd5b50610205610200366004611c37565b6105a5565b005b34801561021357600080fd5b50610205610222366004611c6a565b610723565b34801561023357600080fd5b5060cc546102449063ffffffff1681565b60405163ffffffff90911681526020016101dc565b34801561026557600080fd5b50610205610274366004611ce9565b6108a5565b34801561028557600080fd5b5061028e610a20565b6040516101dc9190611d3f565b3480156102a757600080fd5b506102bb6102b6366004611d52565b610a78565b60405160ff90911681526020016101dc565b6102056102db366004611d81565b610aa2565b3480156102ec57600080fd5b506101d2610c0e565b34801561030157600080fd5b506101d260cb5481565b34801561031757600080fd5b50610205610cd3565b34801561032c57600080fd5b506101d261033b366004611e43565b610ce7565b34801561034c57600080fd5b5060cc54610244906601000000000000900463ffffffff1681565b34801561037357600080fd5b506103a0610382366004611d52565b60d06020526000908152604090205460ff8082169161010090041682565b6040805192151583529015156020830152016101dc565b3480156103c357600080fd5b506103cc610e9b565b6040516101dc9190611e65565b3480156103e557600080fd5b506102056103f4366004611e90565b610ef3565b34801561040557600080fd5b506033546001600160a01b03165b6040516001600160a01b0390911681526020016101dc565b34801561043757600080fd5b506101d2610446366004611d52565b610f1f565b34801561045757600080fd5b50610205610466366004611d52565b610f40565b34801561047757600080fd5b5060c954610413906001600160a01b031681565b34801561049757600080fd5b506102056104a6366004611eb4565b610f4d565b3480156104b757600080fd5b5060cc546104ce90640100000000900461ffff1681565b60405161ffff90911681526020016101dc565b3480156104ed57600080fd5b506102056104fc366004611d52565b610f71565b34801561050d57600080fd5b5061052161051c366004611d52565b610f7e565b6040516101dc929190611eda565b34801561053b57600080fd5b5061020561054a366004611ce9565b611058565b34801561055b57600080fd5b5061020561056a366004611eb4565b6110e5565b34801561057b57600080fd5b5061020561058a366004611ce9565b61116f565b34801561059b57600080fd5b506101d260cd5481565b600054610100900460ff16158080156105c55750600054600160ff909116105b806105df5750303b1580156105df575060005460ff166001145b6106565760405162461bcd60e51b815260206004820152602e60248201527f496e697469616c697a61626c653a20636f6e747261637420697320616c72656160448201527f647920696e697469616c697a656400000000000000000000000000000000000060648201526084015b60405180910390fd5b6000805460ff191660011790558015610679576000805461ff0019166101001790555b6106816111a6565b610689611219565b60c9805473ffffffffffffffffffffffffffffffffffffffff19166001600160a01b03861617905560ca83905560cb82905560cc805469ffffffffffffffffffff191666070003000aae60179055801561071d576000805461ff0019169055604051600181527f7f26b83ff96e1f2b6a682f133852f6798a09c465da95921460cefb38474024989060200160405180910390a15b50505050565b60c9546001600160a01b0316331461077d5760405162461bcd60e51b815260206004820152601c60248201527f4f6e6c7920636f6f7264696e61746f722063616e2066756c66696c6c00000000604482015260640161064d565b600083815260d0602052604090205460ff166107db5760405162461bcd60e51b815260206004820152601160248201527f52657175657374206e6f7420666f756e64000000000000000000000000000000604482015260640161064d565b600083815260d060205260409020805461ff001916610100178155610804906001018383611ab5565b5061081160ce8383611ab5565b5061081c8282611284565b61082a9060cf906007611b00565b507ffe2e2d779dba245964d4e3ef9b994be63856fd568bf7d3ca9e224755cb1bd54d83838360405161085e93929190611ef5565b60405180910390a17f832fa98203b65f659389a3816dbb57fad8e86d2ddec12dd875697273c28ab0438360cf604051610898929190611f4e565b60405180910390a1505050565b6001600160a01b037f00000000000000000000000000000000000000000000000000000000000000001630036109325760405162461bcd60e51b815260206004820152602c60248201527f46756e6374696f6e206d7573742062652063616c6c6564207468726f7567682060448201526b19195b1959d85d1958d85b1b60a21b606482015260840161064d565b7f00000000000000000000000000000000000000000000000000000000000000006001600160a01b031661098d7f360894a13ba1a3210667c828492db98dca3e2076cc3735a920a3ca505d382bbc546001600160a01b031690565b6001600160a01b0316146109f85760405162461bcd60e51b815260206004820152602c60248201527f46756e6374696f6e206d7573742062652063616c6c6564207468726f7567682060448201526b6163746976652070726f787960a01b606482015260840161064d565b610a01816113c7565b60408051600080825260208201909252610a1d918391906113cf565b50565b606060ce805480602002602001604051908101604052809291908181526020018280548015610a6e57602002820191906000526020600020905b815481526020019060010190808311610a5a575b5050505050905090565b60cf8160078110610a8857600080fd5b60209182820401919006915054906101000a900460ff1681565b6001600160a01b037f0000000000000000000000000000000000000000000000000000000000000000163003610b2f5760405162461bcd60e51b815260206004820152602c60248201527f46756e6374696f6e206d7573742062652063616c6c6564207468726f7567682060448201526b19195b1959d85d1958d85b1b60a21b606482015260840161064d565b7f00000000000000000000000000000000000000000000000000000000000000006001600160a01b0316610b8a7f360894a13ba1a3210667c828492db98dca3e2076cc3735a920a3ca505d382bbc546001600160a01b031690565b6001600160a01b031614610bf55760405162461bcd60e51b815260206004820152602c60248201527f46756e6374696f6e206d7573742062652063616c6c6564207468726f7567682060448201526b6163746976652070726f787960a01b606482015260840161064d565b610bfe826113c7565b610c0a828260016113cf565b5050565b6000306001600160a01b037f00000000000000000000000000000000000000000000000000000000000000001614610cae5760405162461bcd60e51b815260206004820152603860248201527f555550535570677261646561626c653a206d757374206e6f742062652063616c60448201527f6c6564207468726f7567682064656c656761746563616c6c0000000000000000606482015260840161064d565b507f360894a13ba1a3210667c828492db98dca3e2076cc3735a920a3ca505d382bbc90565b610cdb611574565b610ce560006115ce565b565b6000610cf1611574565b60c9546040805160c08101825260cb54815260ca5460208083019190915260cc5461ffff6401000000008204168385015263ffffffff80821660608501526601000000000000909104166080830152825190810190925284151582526001600160a01b0390921691639b1c385e9160a0820190610d6d9061162d565b8152506040518263ffffffff1660e01b8152600401610d8c9190612013565b6020604051808303816000875af1158015610dab573d6000803e3d6000fd5b505050506040513d601f19601f82011682018060405250810190610dcf9190612070565b604080516060810182526001808252600060208084018281528551838152808301875285870190815287845260d083529590922084518154935161ffff1990941690151561ff00191617610100931515939093029290921782559351805195965092949093610e4393928501920190611b8e565b50505060cd81905560cc5460408051838152660100000000000090920463ffffffff1660208301527fcc58b13ad3eab50626c6a6300b1d139cd6ebb1688a7cced9461c2f7e762665ee910160405180910390a1919050565b610ea3611bc9565b6040805160e08101918290529060cf90600790826000855b825461010083900a900460ff16815260206001928301818104948501949093039092029101808411610ebb5790505050505050905090565b610efb611574565b60cc805461ffff9092166401000000000265ffff0000000019909216919091179055565b60ce8181548110610f2f57600080fd5b600091825260209091200154905081565b610f48611574565b60cb55565b610f55611574565b60cc805463ffffffff191663ffffffff92909216919091179055565b610f79611574565b60ca55565b600081815260d0602052604081205460609060ff16610fdf5760405162461bcd60e51b815260206004820152601160248201527f52657175657374206e6f7420666f756e64000000000000000000000000000000604482015260640161064d565b600083815260d060209081526040918290208054600182018054855181860281018601909652808652929461010090920460ff16939092839183018282801561104757602002820191906000526020600020905b815481526020019060010190808311611033575b505050505090509250925050915091565b611060611574565b6001600160a01b0381166110dc5760405162461bcd60e51b815260206004820152602660248201527f4f776e61626c653a206e6577206f776e657220697320746865207a65726f206160448201527f6464726573730000000000000000000000000000000000000000000000000000606482015260840161064d565b610a1d816115ce565b6110ed611574565b60008163ffffffff16116111435760405162461bcd60e51b815260206004820152601460248201527f6e756d576f726473206d757374206265203e2030000000000000000000000000604482015260640161064d565b60cc805463ffffffff90921666010000000000000269ffffffff00000000000019909216919091179055565b611177611574565b60c9805473ffffffffffffffffffffffffffffffffffffffff19166001600160a01b0392909216919091179055565b600054610100900460ff166112115760405162461bcd60e51b815260206004820152602b60248201527f496e697469616c697a61626c653a20636f6e7472616374206973206e6f74206960448201526a6e697469616c697a696e6760a81b606482015260840161064d565b610ce56116cb565b600054610100900460ff16610ce55760405162461bcd60e51b815260206004820152602b60248201527f496e697469616c697a61626c653a20636f6e7472616374206973206e6f74206960448201526a6e697469616c697a696e6760a81b606482015260840161064d565b61128c611bc9565b611294611be7565b6000805b60078210156113b45760005b85811080156112b35750600783105b156113ae57600060318888848181106112ce576112ce612089565b90506020020135846040516020016112f0929190918252602082015260400190565b6040516020818303038152906040528051906020012060001c611313919061209f565b61131e9060016120d7565b9050848160ff166032811061133557611335612089565b602002015161138d576001858260ff166032811061135557611355612089565b911515602090920201528086856007811061137257611372612089565b60ff909216602092909202015283611389816120ea565b9450505b82611397816120ea565b9350505080806113a6906120ea565b9150506112a4565b50611298565b6113bd8461173f565b5050505b92915050565b610a1d611574565b7f4910fdfa16fed3260ed0e7147f7cc6da11a60208b5b9406d12a635614ffd91435460ff16156114075761140283611836565b505050565b826001600160a01b03166352d1902d6040518163ffffffff1660e01b8152600401602060405180830381865afa925050508015611461575060408051601f3d908101601f1916820190925261145e91810190612070565b60015b6114d35760405162461bcd60e51b815260206004820152602e60248201527f45524331393637557067726164653a206e657720696d706c656d656e7461746960448201527f6f6e206973206e6f742055555053000000000000000000000000000000000000606482015260840161064d565b7f360894a13ba1a3210667c828492db98dca3e2076cc3735a920a3ca505d382bbc81146115685760405162461bcd60e51b815260206004820152602960248201527f45524331393637557067726164653a20756e737570706f727465642070726f7860448201527f6961626c65555549440000000000000000000000000000000000000000000000606482015260840161064d565b50611402838383611901565b6033546001600160a01b03163314610ce55760405162461bcd60e51b815260206004820181905260248201527f4f776e61626c653a2063616c6c6572206973206e6f7420746865206f776e6572604482015260640161064d565b603380546001600160a01b0383811673ffffffffffffffffffffffffffffffffffffffff19831681179093556040519116919082907f8be0079c531659141344cd1fd0a4f28419497f9722a3daafe3b4186f6b6457e090600090a35050565b60607f92fd13387c7fe7befbc38d303d6468778fb9731bc4583f17d92989c6fcfdeaaa8260405160240161166691511515815260200190565b60408051601f198184030181529190526020810180517bffffffffffffffffffffffffffffffffffffffffffffffffffffffff167fffffffff000000000000000000000000000000000000000000000000000000009093169290921790915292915050565b600054610100900460ff166117365760405162461bcd60e51b815260206004820152602b60248201527f496e697469616c697a61626c653a20636f6e7472616374206973206e6f74206960448201526a6e697469616c697a696e6760a81b606482015260840161064d565b610ce5336115ce565b60005b6007811015610c0a5760006117588260016120d7565b90505b60078110156118235782826007811061177657611776612089565b602002015160ff1683826007811061179057611790612089565b602002015160ff1610156118115760008383600781106117b2576117b2612089565b602002015190508382600781106117cb576117cb612089565b60200201518484600781106117e2576117e2612089565b60ff90921660209290920201528084836007811061180257611802612089565b60ff9092166020929092020152505b8061181b816120ea565b91505061175b565b508061182e816120ea565b915050611742565b6001600160a01b0381163b6118b35760405162461bcd60e51b815260206004820152602d60248201527f455243313936373a206e657720696d706c656d656e746174696f6e206973206e60448201527f6f74206120636f6e747261637400000000000000000000000000000000000000606482015260840161064d565b7f360894a13ba1a3210667c828492db98dca3e2076cc3735a920a3ca505d382bbc805473ffffffffffffffffffffffffffffffffffffffff19166001600160a01b0392909216919091179055565b61190a83611926565b6000825111806119175750805b156114025761071d8383611966565b61192f81611836565b6040516001600160a01b038216907fbc7cd75a20ee27fd9adebab32041f755214dbc6bffa90cc0225b39da2e5c2d3b90600090a250565b606061198b838360405180606001604052806027815260200161213360279139611992565b9392505050565b6060600080856001600160a01b0316856040516119af9190612103565b600060405180830381855af49150503d80600081146119ea576040519150601f19603f3d011682016040523d82523d6000602084013e6119ef565b606091505b5091509150611a0086838387611a0a565b9695505050505050565b60608315611a79578251600003611a72576001600160a01b0385163b611a725760405162461bcd60e51b815260206004820152601d60248201527f416464726573733a2063616c6c20746f206e6f6e2d636f6e7472616374000000604482015260640161064d565b5081611a83565b611a838383611a8b565b949350505050565b815115611a9b5781518083602001fd5b8060405162461bcd60e51b815260040161064d919061211f565b828054828255906000526020600020908101928215611af0579160200282015b82811115611af0578235825591602001919060010190611ad5565b50611afc929150611c06565b5090565b600183019183908215611af05791602002820160005b83821115611b5457835183826101000a81548160ff021916908360ff1602179055509260200192600101602081600001049283019260010302611b16565b8015611b815782816101000a81549060ff0219169055600101602081600001049283019260010302611b54565b5050611afc929150611c06565b828054828255906000526020600020908101928215611af0579160200282015b82811115611af0578251825591602001919060010190611bae565b6040518060e001604052806007906020820280368337509192915050565b6040518061064001604052806032906020820280368337509192915050565b5b80821115611afc5760008155600101611c07565b80356001600160a01b0381168114611c3257600080fd5b919050565b600080600060608486031215611c4c57600080fd5b611c5584611c1b565b95602085013595506040909401359392505050565b600080600060408486031215611c7f57600080fd5b83359250602084013567ffffffffffffffff80821115611c9e57600080fd5b818601915086601f830112611cb257600080fd5b813581811115611cc157600080fd5b8760208260051b8501011115611cd657600080fd5b6020830194508093505050509250925092565b600060208284031215611cfb57600080fd5b61198b82611c1b565b600081518084526020808501945080840160005b83811015611d3457815187529582019590820190600101611d18565b509495945050505050565b60208152600061198b6020830184611d04565b600060208284031215611d6457600080fd5b5035919050565b634e487b7160e01b600052604160045260246000fd5b60008060408385031215611d9457600080fd5b611d9d83611c1b565b9150602083013567ffffffffffffffff80821115611dba57600080fd5b818501915085601f830112611dce57600080fd5b813581811115611de057611de0611d6b565b604051601f8201601f19908116603f01168101908382118183101715611e0857611e08611d6b565b81604052828152886020848701011115611e2157600080fd5b8260208601602083013760006020848301015280955050505050509250929050565b600060208284031215611e5557600080fd5b8135801515811461198b57600080fd5b60e08101818360005b60078110156113bd57815160ff16835260209283019290910190600101611e6e565b600060208284031215611ea257600080fd5b813561ffff8116811461198b57600080fd5b600060208284031215611ec657600080fd5b813563ffffffff8116811461198b57600080fd5b8215158152604060208201526000611a836040830184611d04565b8381526040602082015281604082015260007f07ffffffffffffffffffffffffffffffffffffffffffffffffffffffffffffff831115611f3457600080fd5b8260051b8085606085013791909101606001949350505050565b600061010082019050838252825460ff8082166020850152808260081c166040850152808260101c166060850152808260181c166080850152808260201c1660a0850152611fa660c08501828460281c1660ff169052565b611fba60e08501828460301c1660ff169052565b50509392505050565b60005b83811015611fde578181015183820152602001611fc6565b50506000910152565b60008151808452611fff816020860160208601611fc3565b601f01601f19169290920160200192915050565b60208152815160208201526020820151604082015261ffff60408301511660608201526000606083015163ffffffff80821660808501528060808601511660a0850152505060a083015160c080840152611a8360e0840182611fe7565b60006020828403121561208257600080fd5b5051919050565b634e487b7160e01b600052603260045260246000fd5b6000826120bc57634e487b7160e01b600052601260045260246000fd5b500690565b634e487b7160e01b600052601160045260246000fd5b808201808211156113c1576113c16120c1565b6000600182016120fc576120fc6120c1565b5060010190565b60008251612115818460208701611fc3565b9190910192915050565b60208152600061198b6020830184611fe756fe416464726573733a206c6f772d6c6576656c2064656c65676174652063616c6c206661696c6564a264697066735822122091c46e05c8b91185cb0e388402c863bc5f69a50a6d9a5c6794702d0702fe9ea764736f6c63430008140033",
  "linkReferences": {},
  "deployedLinkReferences": {}
}